{
  "abi": [
    {
      "inputs": [
        {
          "internalType": "string",
          "name": "domainName",
          "type": "string"
        },
        {
          "internalType": "bytes32",
          "name": "publicKeyHash",
          "type": "bytes32"
        }
      ],
      "name": "isDKIMPublicKeyHashValid",
      "outputs": [
        {
          "internalType": "bool",
          "name": "",
          "type": "bool"
        }
      ],
      "stateMutability": "pure",
      "type": "function"
    }
  ],
  "bytecode": {
    "object": "0x608060405234801561001057600080fd5b5061015a806100206000396000f3fe608060405234801561001057600080fd5b506004361061002b5760003560e01c8063e7a7977a14610030575b600080fd5b61004661003e366004610070565b607b14919050565b604051901515815260200160405180910390f35b634e487b7160e01b600052604160045260246000fd5b6000806040838503121561008357600080fd5b82356001600160401b038082111561009a57600080fd5b818501915085601f8301126100ae57600080fd5b8135818111156100c0576100c061005a565b604051601f8201601f19908116603f011681019083821181831017156100e8576100e861005a565b8160405282815288602084870101111561010157600080fd5b82602086016020830137600060209382018401529896909101359650505050505056fea2646970667358221220e4b4d2fa2573cb8e5538f3765f07526f64132488255b60b7b9f0367aca675d9564736f6c63430008170033",
    "linkReferences": {}
  },
  "methodIdentifiers": {
    "isDKIMPublicKeyHashValid(string,bytes32)": "e7a7977a"
  },
  "id": 178
}