{
  "abi": [
    {
      "inputs": [
        {
          "internalType": "address",
          "name": "wethAddress",
          "type": "address"
        }
      ],
      "stateMutability": "nonpayable",
      "type": "constructor"
    },
    {
      "anonymous": false,
      "inputs": [
        {
          "indexed": false,
          "internalType": "address",
          "name": "previousAdmin",
          "type": "address"
        },
        {
          "indexed": false,
          "internalType": "address",
          "name": "newAdmin",
          "type": "address"
        }
      ],
      "name": "AdminChanged",
      "type": "event"
    },
    {
      "anonymous": false,
      "inputs": [
        {
          "indexed": true,
          "internalType": "address",
          "name": "beacon",
          "type": "address"
        }
      ],
      "name": "BeaconUpgraded",
      "type": "event"
    },
    {
      "anonymous": false,
      "inputs": [
        {
          "indexed": false,
          "internalType": "uint8",
          "name": "version",
          "type": "uint8"
        }
      ],
      "name": "Initialized",
      "type": "event"
    },
    {
      "anonymous": false,
      "inputs": [
        {
          "indexed": true,
          "internalType": "address",
          "name": "previousOwner",
          "type": "address"
        },
        {
          "indexed": true,
          "internalType": "address",
          "name": "newOwner",
          "type": "address"
        }
      ],
      "name": "OwnershipTransferred",
      "type": "event"
    },
    {
      "anonymous": false,
      "inputs": [
        {
          "indexed": true,
          "internalType": "address",
          "name": "implementation",
          "type": "address"
        }
      ],
      "name": "Upgraded",
      "type": "event"
    },
    {
      "stateMutability": "payable",
      "type": "fallback"
    },
    {
      "inputs": [],
      "name": "dkimRegistry",
      "outputs": [
        {
          "internalType": "address",
          "name": "",
          "type": "address"
        }
      ],
      "stateMutability": "view",
      "type": "function"
    },
    {
      "inputs": [
        {
          "internalType": "address",
          "name": "target",
          "type": "address"
        },
        {
          "internalType": "uint256",
          "name": "value",
          "type": "uint256"
        },
        {
          "internalType": "bytes",
          "name": "data",
          "type": "bytes"
        }
      ],
      "name": "execute",
      "outputs": [],
      "stateMutability": "nonpayable",
      "type": "function"
    },
    {
      "inputs": [
        {
          "internalType": "address",
          "name": "",
          "type": "address"
        }
      ],
      "name": "guardingWallet",
      "outputs": [
        {
          "internalType": "address",
          "name": "",
          "type": "address"
        }
      ],
      "stateMutability": "view",
      "type": "function"
    },
    {
      "inputs": [],
      "name": "initialize",
      "outputs": [],
      "stateMutability": "nonpayable",
      "type": "function"
    },
    {
      "inputs": [
        {
          "internalType": "address",
          "name": "",
          "type": "address"
        },
        {
          "internalType": "address",
          "name": "",
          "type": "address"
        },
        {
          "internalType": "uint256[]",
          "name": "",
          "type": "uint256[]"
        },
        {
          "internalType": "uint256[]",
          "name": "",
          "type": "uint256[]"
        },
        {
          "internalType": "bytes",
          "name": "",
          "type": "bytes"
        }
      ],
      "name": "onERC1155BatchReceived",
      "outputs": [
        {
          "internalType": "bytes4",
          "name": "",
          "type": "bytes4"
        }
      ],
      "stateMutability": "pure",
      "type": "function"
    },
    {
      "inputs": [
        {
          "internalType": "address",
          "name": "",
          "type": "address"
        },
        {
          "internalType": "address",
          "name": "",
          "type": "address"
        },
        {
          "internalType": "uint256",
          "name": "",
          "type": "uint256"
        },
        {
          "internalType": "uint256",
          "name": "",
          "type": "uint256"
        },
        {
          "internalType": "bytes",
          "name": "",
          "type": "bytes"
        }
      ],
      "name": "onERC1155Received",
      "outputs": [
        {
          "internalType": "bytes4",
          "name": "",
          "type": "bytes4"
        }
      ],
      "stateMutability": "pure",
      "type": "function"
    },
    {
      "inputs": [
        {
          "internalType": "address",
          "name": "",
          "type": "address"
        },
        {
          "internalType": "address",
          "name": "",
          "type": "address"
        },
        {
          "internalType": "uint256",
          "name": "",
          "type": "uint256"
        },
        {
          "internalType": "bytes",
          "name": "",
          "type": "bytes"
        }
      ],
      "name": "onERC721Received",
      "outputs": [
        {
          "internalType": "bytes4",
          "name": "",
          "type": "bytes4"
        }
      ],
      "stateMutability": "pure",
      "type": "function"
    },
    {
      "inputs": [],
      "name": "owner",
      "outputs": [
        {
          "internalType": "address",
          "name": "",
          "type": "address"
        }
      ],
      "stateMutability": "view",
      "type": "function"
    },
    {
      "inputs": [],
      "name": "proxiableUUID",
      "outputs": [
        {
          "internalType": "bytes32",
          "name": "",
          "type": "bytes32"
        }
      ],
      "stateMutability": "view",
      "type": "function"
    },
    {
      "inputs": [
        {
          "internalType": "uint8",
          "name": "templateIndex",
          "type": "uint8"
        },
        {
          "internalType": "bytes[]",
          "name": "subjectParams",
          "type": "bytes[]"
        },
        {
          "internalType": "address",
          "name": "guardianAddr",
          "type": "address"
        },
        {
          "internalType": "bytes32",
          "name": "emailNullifier",
          "type": "bytes32"
        }
      ],
      "name": "recover",
      "outputs": [],
      "stateMutability": "view",
      "type": "function"
    },
    {
      "inputs": [],
      "name": "renounceOwnership",
      "outputs": [],
      "stateMutability": "nonpayable",
      "type": "function"
    },
    {
      "inputs": [
        {
          "internalType": "address",
          "name": "guardianAddr",
          "type": "address"
        },
        {
          "internalType": "address",
          "name": "walletAddr",
          "type": "address"
        }
      ],
      "name": "setGuard",
      "outputs": [],
      "stateMutability": "nonpayable",
      "type": "function"
    },
    {
      "inputs": [
        {
          "internalType": "uint256",
          "name": "",
          "type": "uint256"
        },
        {
          "internalType": "uint256",
          "name": "",
          "type": "uint256"
        }
      ],
      "name": "subjectTemplates",
      "outputs": [
        {
          "internalType": "string",
          "name": "",
          "type": "string"
        }
      ],
      "stateMutability": "view",
      "type": "function"
    },
    {
      "inputs": [
        {
          "internalType": "bytes4",
          "name": "interfaceId",
          "type": "bytes4"
        }
      ],
      "name": "supportsInterface",
      "outputs": [
        {
          "internalType": "bool",
          "name": "",
          "type": "bool"
        }
      ],
      "stateMutability": "view",
      "type": "function"
    },
    {
      "inputs": [
        {
          "internalType": "address",
          "name": "",
          "type": "address"
        },
        {
          "internalType": "address",
          "name": "",
          "type": "address"
        },
        {
          "internalType": "address",
          "name": "",
          "type": "address"
        },
        {
          "internalType": "uint256",
          "name": "",
          "type": "uint256"
        },
        {
          "internalType": "bytes",
          "name": "",
          "type": "bytes"
        },
        {
          "internalType": "bytes",
          "name": "",
          "type": "bytes"
        }
      ],
      "name": "tokensReceived",
      "outputs": [],
      "stateMutability": "pure",
      "type": "function"
    },
    {
      "inputs": [
        {
          "internalType": "address",
          "name": "newOwner",
          "type": "address"
        }
      ],
      "name": "transferOwnership",
      "outputs": [],
      "stateMutability": "nonpayable",
      "type": "function"
    },
    {
      "inputs": [
        {
          "internalType": "address",
          "name": "newDKIMRegistry",
          "type": "address"
        }
      ],
      "name": "updateDKIMRegistry",
      "outputs": [],
      "stateMutability": "nonpayable",
      "type": "function"
    },
    {
      "inputs": [
        {
          "internalType": "address",
          "name": "newImplementation",
          "type": "address"
        }
      ],
      "name": "upgradeTo",
      "outputs": [],
      "stateMutability": "nonpayable",
      "type": "function"
    },
    {
      "inputs": [
        {
          "internalType": "address",
          "name": "newImplementation",
          "type": "address"
        },
        {
          "internalType": "bytes",
          "name": "data",
          "type": "bytes"
        }
      ],
      "name": "upgradeToAndCall",
      "outputs": [],
      "stateMutability": "payable",
      "type": "function"
    },
    {
      "stateMutability": "payable",
      "type": "receive"
    }
  ],
  "bytecode": {
    "object": "0x60c0604052306080523480156200001557600080fd5b506040516200289838038062002898833981016040819052620000389162000365565b6001600160a01b03811660a0526040805160028082526060820190925290816020015b60608152602001906001900390816200005b575050805162000086916065916020909101906200015d565b5060408051808201909152600060208201818152825260658054909190620000b257620000b2620003ad565b90600052602060002001906001620000cc929190620001c1565b506040518060400160405280604051806040016040528060098152602001687b75696e743235367d60b81b8152508152602001604051806040016040528060098152602001687b75696e743235367d60b81b81525081525060656001815481106200013b576200013b620003ad565b90600052602060002001906002620001559291906200021a565b50506200051e565b828054828255906000526020600020908101928215620001af579160200282015b82811115620001af57825180516200019e91849160209091019062000265565b50916020019190600101906200017e565b50620001bd929150620002b0565b5090565b8280548282559060005260206000209081019282156200020c579160200282015b828111156200020c5782518290620001fb908262000452565b5091602001919060010190620001e2565b50620001bd929150620002d1565b8280548282559060005260206000209081019282156200020c579160200282015b828111156200020c578251829062000254908262000452565b50916020019190600101906200023b565b8280548282559060005260206000209081019282156200020c579160200282015b828111156200020c57825182906200029f908262000452565b509160200191906001019062000286565b80821115620001bd576000620002c78282620002f2565b50600101620002b0565b80821115620001bd576000620002e8828262000315565b50600101620002d1565b5080546000825590600052602060002090810190620003129190620002d1565b50565b5080546200032390620003c3565b6000825580601f1062000334575050565b601f0160209004906000526020600020908101906200031291905b80821115620001bd57600081556001016200034f565b6000602082840312156200037857600080fd5b81516001600160a01b03811681146200039057600080fd5b9392505050565b634e487b7160e01b600052604160045260246000fd5b634e487b7160e01b600052603260045260246000fd5b600181811c90821680620003d857607f821691505b602082108103620003f957634e487b7160e01b600052602260045260246000fd5b50919050565b601f8211156200044d57600081815260208120601f850160051c81016020861015620004285750805b601f850160051c820191505b81811015620004495782815560010162000434565b5050505b505050565b81516001600160401b038111156200046e576200046e62000397565b62000486816200047f8454620003c3565b84620003ff565b602080601f831160018114620004be5760008415620004a55750858301515b600019600386901b1c1916600185901b17855562000449565b600085815260208120601f198616915b82811015620004ef57888601518255948401946001909101908401620004ce565b50858210156200050e5787850151600019600388901b60f8161c191681555b5050505050600190811b01905550565b60805160a05161232a6200056e60003960008181610164015281816101ac01526106050152600081816107e30152818161089301528181610aad01528181610b5d0152610ca2015261232a6000f3fe6080604052600436106101475760003560e01c8063715018a6116100c0578063adea0a5311610074578063bc197c8111610059578063bc197c81146104e5578063f23a6e611461052d578063f2fde38b1461057357610194565b8063adea0a53146104a5578063b61d27f6146104c557610194565b80638129fc1c116100a55780638129fc1c146104455780638da5cb5b1461045a578063a500125c1461048557610194565b8063715018a6146103ed5780637fdddfc61461040257610194565b80633659cfe6116101175780634f1ef286116100fc5780634f1ef2861461036557806352d1902d146103785780636423f1e21461039b57610194565b80633659cfe6146103185780634bd077601461033857610194565b806223de29146101da57806301ffc9a7146101ff578063150b7a0214610234578063227773ee146102aa57610194565b36610194573373ffffffffffffffffffffffffffffffffffffffff7f000000000000000000000000000000000000000000000000000000000000000016146101925761019234610593565b005b3373ffffffffffffffffffffffffffffffffffffffff7f000000000000000000000000000000000000000000000000000000000000000016146101925761019234610593565b3480156101e657600080fd5b506101926101f5366004611bf3565b5050505050505050565b34801561020b57600080fd5b5061021f61021a366004611c9e565b6106e7565b60405190151581526020015b60405180910390f35b34801561024057600080fd5b5061027961024f366004611ce0565b7f150b7a020000000000000000000000000000000000000000000000000000000095945050505050565b6040517fffffffff00000000000000000000000000000000000000000000000000000000909116815260200161022b565b3480156102b657600080fd5b506101926102c5366004611d4f565b73ffffffffffffffffffffffffffffffffffffffff918216600090815260676020526040902080547fffffffffffffffffffffffff00000000000000000000000000000000000000001691909216179055565b34801561032457600080fd5b50610192610333366004611d82565b6107cc565b34801561034457600080fd5b50610358610353366004611d9d565b6109d1565b60405161022b9190611de3565b610192610373366004611f40565b610a96565b34801561038457600080fd5b5061038d610c88565b60405190815260200161022b565b3480156103a757600080fd5b506066546103c89073ffffffffffffffffffffffffffffffffffffffff1681565b60405173ffffffffffffffffffffffffffffffffffffffff909116815260200161022b565b3480156103f957600080fd5b50610192610d74565b34801561040e57600080fd5b506103c861041d366004611d82565b60676020526000908152604090205473ffffffffffffffffffffffffffffffffffffffff1681565b34801561045157600080fd5b50610192610d88565b34801561046657600080fd5b5060335473ffffffffffffffffffffffffffffffffffffffff166103c8565b34801561049157600080fd5b506101926104a0366004611d82565b610f19565b3480156104b157600080fd5b506101926104c0366004611f8e565b610feb565b3480156104d157600080fd5b506101926104e0366004612084565b6111dc565b3480156104f157600080fd5b50610279610500366004612123565b7fbc197c810000000000000000000000000000000000000000000000000000000098975050505050505050565b34801561053957600080fd5b506102796105483660046121bd565b7ff23a6e61000000000000000000000000000000000000000000000000000000009695505050505050565b34801561057f57600080fd5b5061019261058e366004611d82565b6112ee565b60408051600481526024810182526020810180517bffffffffffffffffffffffffffffffffffffffffffffffffffffffff167fd0e30db000000000000000000000000000000000000000000000000000000000179052905160009173ffffffffffffffffffffffffffffffffffffffff7f00000000000000000000000000000000000000000000000000000000000000001691849161063191612235565b60006040518083038185875af1925050503d806000811461066e576040519150601f19603f3d011682016040523d82523d6000602084013e610673565b606091505b50509050806106e3576040517f08c379a000000000000000000000000000000000000000000000000000000000815260206004820152601660248201527f636f6e7665727420746f2077657468206661696c65640000000000000000000060448201526064015b60405180910390fd5b5050565b60007fffffffff0000000000000000000000000000000000000000000000000000000082167f150b7a0200000000000000000000000000000000000000000000000000000000148061077a57507fffffffff0000000000000000000000000000000000000000000000000000000082167f4e2312e000000000000000000000000000000000000000000000000000000000145b806107c657507fffffffff0000000000000000000000000000000000000000000000000000000082167f01ffc9a700000000000000000000000000000000000000000000000000000000145b92915050565b73ffffffffffffffffffffffffffffffffffffffff7f0000000000000000000000000000000000000000000000000000000000000000163003610891576040517f08c379a000000000000000000000000000000000000000000000000000000000815260206004820152602c60248201527f46756e6374696f6e206d7573742062652063616c6c6564207468726f7567682060448201527f64656c656761746563616c6c000000000000000000000000000000000000000060648201526084016106da565b7f000000000000000000000000000000000000000000000000000000000000000073ffffffffffffffffffffffffffffffffffffffff166109067f360894a13ba1a3210667c828492db98dca3e2076cc3735a920a3ca505d382bbc5473ffffffffffffffffffffffffffffffffffffffff1690565b73ffffffffffffffffffffffffffffffffffffffff16146109a9576040517f08c379a000000000000000000000000000000000000000000000000000000000815260206004820152602c60248201527f46756e6374696f6e206d7573742062652063616c6c6564207468726f7567682060448201527f6163746976652070726f7879000000000000000000000000000000000000000060648201526084016106da565b6109b2816113a2565b604080516000808252602082019092526109ce9183919061142d565b50565b606582815481106109e157600080fd5b9060005260206000200181815481106109f957600080fd5b90600052602060002001600091509150508054610a1590612251565b80601f0160208091040260200160405190810160405280929190818152602001828054610a4190612251565b8015610a8e5780601f10610a6357610100808354040283529160200191610a8e565b820191906000526020600020905b815481529060010190602001808311610a7157829003601f168201915b505050505081565b73ffffffffffffffffffffffffffffffffffffffff7f0000000000000000000000000000000000000000000000000000000000000000163003610b5b576040517f08c379a000000000000000000000000000000000000000000000000000000000815260206004820152602c60248201527f46756e6374696f6e206d7573742062652063616c6c6564207468726f7567682060448201527f64656c656761746563616c6c000000000000000000000000000000000000000060648201526084016106da565b7f000000000000000000000000000000000000000000000000000000000000000073ffffffffffffffffffffffffffffffffffffffff16610bd07f360894a13ba1a3210667c828492db98dca3e2076cc3735a920a3ca505d382bbc5473ffffffffffffffffffffffffffffffffffffffff1690565b73ffffffffffffffffffffffffffffffffffffffff1614610c73576040517f08c379a000000000000000000000000000000000000000000000000000000000815260206004820152602c60248201527f46756e6374696f6e206d7573742062652063616c6c6564207468726f7567682060448201527f6163746976652070726f7879000000000000000000000000000000000000000060648201526084016106da565b610c7c826113a2565b6106e38282600161142d565b60003073ffffffffffffffffffffffffffffffffffffffff7f00000000000000000000000000000000000000000000000000000000000000001614610d4f576040517f08c379a000000000000000000000000000000000000000000000000000000000815260206004820152603860248201527f555550535570677261646561626c653a206d757374206e6f742062652063616c60448201527f6c6564207468726f7567682064656c656761746563616c6c000000000000000060648201526084016106da565b507f360894a13ba1a3210667c828492db98dca3e2076cc3735a920a3ca505d382bbc90565b610d7c611631565b610d8660006116b2565b565b600054610100900460ff1615808015610da85750600054600160ff909116105b80610dc25750303b158015610dc2575060005460ff166001145b610e4e576040517f08c379a000000000000000000000000000000000000000000000000000000000815260206004820152602e60248201527f496e697469616c697a61626c653a20636f6e747261637420697320616c72656160448201527f647920696e697469616c697a656400000000000000000000000000000000000060648201526084016106da565b600080547fffffffffffffffffffffffffffffffffffffffffffffffffffffffffffffff001660011790558015610eac57600080547fffffffffffffffffffffffffffffffffffffffffffffffffffffffffffff00ff166101001790555b610eb4611729565b80156109ce57600080547fffffffffffffffffffffffffffffffffffffffffffffffffffffffffffff00ff169055604051600181527f7f26b83ff96e1f2b6a682f133852f6798a09c465da95921460cefb38474024989060200160405180910390a150565b60335473ffffffffffffffffffffffffffffffffffffffff16331480610f3e57503330145b610fa4576040517f08c379a000000000000000000000000000000000000000000000000000000000815260206004820152601260248201527f6f6e6c79206f776e6572206f722073656c66000000000000000000000000000060448201526064016106da565b606680547fffffffffffffffffffffffff00000000000000000000000000000000000000001673ffffffffffffffffffffffffffffffffffffffff92909216919091179055565b60018460ff161115611059576040517f08c379a000000000000000000000000000000000000000000000000000000000815260206004820152601660248201527f696e76616c69642074656d706c61746520696e6465780000000000000000000060448201526064016106da565b73ffffffffffffffffffffffffffffffffffffffff828116600090815260676020526040902054166110e7576040517f08c379a000000000000000000000000000000000000000000000000000000000815260206004820152601060248201527f696e76616c696420677561726469616e0000000000000000000000000000000060448201526064016106da565b8360ff166000036111605782511561115b576040517f08c379a000000000000000000000000000000000000000000000000000000000815260206004820152601660248201527f696e76616c6964207375626a65637420706172616d730000000000000000000060448201526064016106da565b6111d6565b8360ff166001036111d65782516002146111d6576040517f08c379a000000000000000000000000000000000000000000000000000000000815260206004820152601660248201527f696e76616c6964207375626a65637420706172616d730000000000000000000060448201526064016106da565b50505050565b60335473ffffffffffffffffffffffffffffffffffffffff1633148061120157503330145b611267576040517f08c379a000000000000000000000000000000000000000000000000000000000815260206004820152601260248201527f6f6e6c79206f776e6572206f722073656c66000000000000000000000000000060448201526064016106da565b6000808573ffffffffffffffffffffffffffffffffffffffff168585856040516112929291906122a4565b60006040518083038185875af1925050503d80600081146112cf576040519150601f19603f3d011682016040523d82523d6000602084013e6112d4565b606091505b5091509150816112e657805160208201fd5b505050505050565b6112f6611631565b73ffffffffffffffffffffffffffffffffffffffff8116611399576040517f08c379a000000000000000000000000000000000000000000000000000000000815260206004820152602660248201527f4f776e61626c653a206e6577206f776e657220697320746865207a65726f206160448201527f646472657373000000000000000000000000000000000000000000000000000060648201526084016106da565b6109ce816116b2565b60335473ffffffffffffffffffffffffffffffffffffffff163314806113c757503330145b6109ce576040517f08c379a000000000000000000000000000000000000000000000000000000000815260206004820152601260248201527f6f6e6c79206f776e6572206f722073656c66000000000000000000000000000060448201526064016106da565b7f4910fdfa16fed3260ed0e7147f7cc6da11a60208b5b9406d12a635614ffd91435460ff161561146557611460836117c8565b505050565b8273ffffffffffffffffffffffffffffffffffffffff166352d1902d6040518163ffffffff1660e01b8152600401602060405180830381865afa9250505080156114ea575060408051601f3d9081017fffffffffffffffffffffffffffffffffffffffffffffffffffffffffffffffe01682019092526114e7918101906122b4565b60015b611576576040517f08c379a000000000000000000000000000000000000000000000000000000000815260206004820152602e60248201527f45524331393637557067726164653a206e657720696d706c656d656e7461746960448201527f6f6e206973206e6f74205555505300000000000000000000000000000000000060648201526084016106da565b7f360894a13ba1a3210667c828492db98dca3e2076cc3735a920a3ca505d382bbc8114611625576040517f08c379a000000000000000000000000000000000000000000000000000000000815260206004820152602960248201527f45524331393637557067726164653a20756e737570706f727465642070726f7860448201527f6961626c6555554944000000000000000000000000000000000000000000000060648201526084016106da565b506114608383836118d2565b60335473ffffffffffffffffffffffffffffffffffffffff163314610d86576040517f08c379a000000000000000000000000000000000000000000000000000000000815260206004820181905260248201527f4f776e61626c653a2063616c6c6572206973206e6f7420746865206f776e657260448201526064016106da565b6033805473ffffffffffffffffffffffffffffffffffffffff8381167fffffffffffffffffffffffff0000000000000000000000000000000000000000831681179093556040519116919082907f8be0079c531659141344cd1fd0a4f28419497f9722a3daafe3b4186f6b6457e090600090a35050565b600054610100900460ff166117c0576040517f08c379a000000000000000000000000000000000000000000000000000000000815260206004820152602b60248201527f496e697469616c697a61626c653a20636f6e7472616374206973206e6f74206960448201527f6e697469616c697a696e6700000000000000000000000000000000000000000060648201526084016106da565b610d866118f7565b73ffffffffffffffffffffffffffffffffffffffff81163b61186c576040517f08c379a000000000000000000000000000000000000000000000000000000000815260206004820152602d60248201527f455243313936373a206e657720696d706c656d656e746174696f6e206973206e60448201527f6f74206120636f6e74726163740000000000000000000000000000000000000060648201526084016106da565b7f360894a13ba1a3210667c828492db98dca3e2076cc3735a920a3ca505d382bbc80547fffffffffffffffffffffffff00000000000000000000000000000000000000001673ffffffffffffffffffffffffffffffffffffffff92909216919091179055565b6118db83611997565b6000825111806118e85750805b15611460576111d683836119e4565b600054610100900460ff1661198e576040517f08c379a000000000000000000000000000000000000000000000000000000000815260206004820152602b60248201527f496e697469616c697a61626c653a20636f6e7472616374206973206e6f74206960448201527f6e697469616c697a696e6700000000000000000000000000000000000000000060648201526084016106da565b610d86336116b2565b6119a0816117c8565b60405173ffffffffffffffffffffffffffffffffffffffff8216907fbc7cd75a20ee27fd9adebab32041f755214dbc6bffa90cc0225b39da2e5c2d3b90600090a250565b6060611a0983836040518060600160405280602781526020016122ce60279139611a10565b9392505050565b60606000808573ffffffffffffffffffffffffffffffffffffffff1685604051611a3a9190612235565b600060405180830381855af49150503d8060008114611a75576040519150601f19603f3d011682016040523d82523d6000602084013e611a7a565b606091505b5091509150611a8b86838387611a95565b9695505050505050565b60608315611b2b578251600003611b245773ffffffffffffffffffffffffffffffffffffffff85163b611b24576040517f08c379a000000000000000000000000000000000000000000000000000000000815260206004820152601d60248201527f416464726573733a2063616c6c20746f206e6f6e2d636f6e747261637400000060448201526064016106da565b5081611b35565b611b358383611b3d565b949350505050565b815115611b4d5781518083602001fd5b806040517f08c379a00000000000000000000000000000000000000000000000000000000081526004016106da9190611de3565b803573ffffffffffffffffffffffffffffffffffffffff81168114611ba557600080fd5b919050565b60008083601f840112611bbc57600080fd5b50813567ffffffffffffffff811115611bd457600080fd5b602083019150836020828501011115611bec57600080fd5b9250929050565b60008060008060008060008060c0898b031215611c0f57600080fd5b611c1889611b81565b9750611c2660208a01611b81565b9650611c3460408a01611b81565b955060608901359450608089013567ffffffffffffffff80821115611c5857600080fd5b611c648c838d01611baa565b909650945060a08b0135915080821115611c7d57600080fd5b50611c8a8b828c01611baa565b999c989b5096995094979396929594505050565b600060208284031215611cb057600080fd5b81357fffffffff0000000000000000000000000000000000000000000000000000000081168114611a0957600080fd5b600080600080600060808688031215611cf857600080fd5b611d0186611b81565b9450611d0f60208701611b81565b935060408601359250606086013567ffffffffffffffff811115611d3257600080fd5b611d3e88828901611baa565b969995985093965092949392505050565b60008060408385031215611d6257600080fd5b611d6b83611b81565b9150611d7960208401611b81565b90509250929050565b600060208284031215611d9457600080fd5b611a0982611b81565b60008060408385031215611db057600080fd5b50508035926020909101359150565b60005b83811015611dda578181015183820152602001611dc2565b50506000910152565b6020815260008251806020840152611e02816040850160208701611dbf565b601f017fffffffffffffffffffffffffffffffffffffffffffffffffffffffffffffffe0169190910160400192915050565b7f4e487b7100000000000000000000000000000000000000000000000000000000600052604160045260246000fd5b604051601f82017fffffffffffffffffffffffffffffffffffffffffffffffffffffffffffffffe016810167ffffffffffffffff81118282101715611eaa57611eaa611e34565b604052919050565b600082601f830112611ec357600080fd5b813567ffffffffffffffff811115611edd57611edd611e34565b611f0e60207fffffffffffffffffffffffffffffffffffffffffffffffffffffffffffffffe0601f84011601611e63565b818152846020838601011115611f2357600080fd5b816020850160208301376000918101602001919091529392505050565b60008060408385031215611f5357600080fd5b611f5c83611b81565b9150602083013567ffffffffffffffff811115611f7857600080fd5b611f8485828601611eb2565b9150509250929050565b60008060008060808587031215611fa457600080fd5b843560ff81168114611fb557600080fd5b935060208581013567ffffffffffffffff80821115611fd357600080fd5b818801915088601f830112611fe757600080fd5b813581811115611ff957611ff9611e34565b8060051b612008858201611e63565b918252838101850191858101908c84111561202257600080fd5b86860192505b8383101561205e578235858111156120405760008081fd5b61204e8e89838a0101611eb2565b8352509186019190860190612028565b8099505050505050505061207460408601611b81565b9396929550929360600135925050565b6000806000806060858703121561209a57600080fd5b6120a385611b81565b935060208501359250604085013567ffffffffffffffff8111156120c657600080fd5b6120d287828801611baa565b95989497509550505050565b60008083601f8401126120f057600080fd5b50813567ffffffffffffffff81111561210857600080fd5b6020830191508360208260051b8501011115611bec57600080fd5b60008060008060008060008060a0898b03121561213f57600080fd5b61214889611b81565b975061215660208a01611b81565b9650604089013567ffffffffffffffff8082111561217357600080fd5b61217f8c838d016120de565b909850965060608b013591508082111561219857600080fd5b6121a48c838d016120de565b909650945060808b0135915080821115611c7d57600080fd5b60008060008060008060a087890312156121d657600080fd5b6121df87611b81565b95506121ed60208801611b81565b94506040870135935060608701359250608087013567ffffffffffffffff81111561221757600080fd5b61222389828a01611baa565b979a9699509497509295939492505050565b60008251612247818460208701611dbf565b9190910192915050565b600181811c9082168061226557607f821691505b60208210810361229e577f4e487b7100000000000000000000000000000000000000000000000000000000600052602260045260246000fd5b50919050565b8183823760009101908152919050565b6000602082840312156122c657600080fd5b505191905056fe416464726573733a206c6f772d6c6576656c2064656c65676174652063616c6c206661696c6564a2646970667358221220742355a67f67739b0a29e8e439f363414f792fb47def3c341e1e96cfb701f93164736f6c63430008150033",
    "linkReferences": {}
  },
  "methodIdentifiers": {
    "dkimRegistry()": "6423f1e2",
    "execute(address,uint256,bytes)": "b61d27f6",
    "guardingWallet(address)": "7fdddfc6",
    "initialize()": "8129fc1c",
    "onERC1155BatchReceived(address,address,uint256[],uint256[],bytes)": "bc197c81",
    "onERC1155Received(address,address,uint256,uint256,bytes)": "f23a6e61",
    "onERC721Received(address,address,uint256,bytes)": "150b7a02",
    "owner()": "8da5cb5b",
    "proxiableUUID()": "52d1902d",
    "recover(uint8,bytes[],address,bytes32)": "adea0a53",
    "renounceOwnership()": "715018a6",
    "setGuard(address,address)": "227773ee",
    "subjectTemplates(uint256,uint256)": "4bd07760",
    "supportsInterface(bytes4)": "01ffc9a7",
    "tokensReceived(address,address,address,uint256,bytes,bytes)": "0023de29",
    "transferOwnership(address)": "f2fde38b",
    "updateDKIMRegistry(address)": "a500125c",
    "upgradeTo(address)": "3659cfe6",
    "upgradeToAndCall(address,bytes)": "4f1ef286"
  },
  "storageLayout": {
    "storage": [
      {
        "astId": 138,
        "contract": "src/Wallet.sol:Wallet",
        "label": "_initialized",
        "offset": 0,
        "slot": "0",
        "type": "t_uint8"
      },
      {
        "astId": 141,
        "contract": "src/Wallet.sol:Wallet",
        "label": "_initializing",
        "offset": 1,
        "slot": "0",
        "type": "t_bool"
      },
      {
        "astId": 67690,
        "contract": "src/Wallet.sol:Wallet",
        "label": "__gap",
        "offset": 0,
        "slot": "1",
        "type": "t_array(t_uint256)50_storage"
      },
      {
        "astId": 10,
        "contract": "src/Wallet.sol:Wallet",
        "label": "_owner",
        "offset": 0,
        "slot": "51",
        "type": "t_address"
      },
      {
        "astId": 130,
        "contract": "src/Wallet.sol:Wallet",
        "label": "__gap",
        "offset": 0,
        "slot": "52",
        "type": "t_array(t_uint256)49_storage"
      },
      {
        "astId": 59295,
        "contract": "src/Wallet.sol:Wallet",
        "label": "subjectTemplates",
        "offset": 0,
        "slot": "101",
        "type": "t_array(t_array(t_string_storage)dyn_storage)dyn_storage"
      },
      {
        "astId": 59297,
        "contract": "src/Wallet.sol:Wallet",
        "label": "dkimRegistry",
        "offset": 0,
        "slot": "102",
        "type": "t_address"
      },
      {
        "astId": 59301,
        "contract": "src/Wallet.sol:Wallet",
        "label": "guardingWallet",
        "offset": 0,
        "slot": "103",
        "type": "t_mapping(t_address,t_address)"
      }
    ],
    "types": {
      "t_address": {
        "encoding": "inplace",
        "label": "address",
        "numberOfBytes": "20"
      },
      "t_array(t_array(t_string_storage)dyn_storage)dyn_storage": {
        "encoding": "dynamic_array",
        "label": "string[][]",
        "numberOfBytes": "32",
        "base": "t_array(t_string_storage)dyn_storage"
      },
      "t_array(t_string_storage)dyn_storage": {
        "encoding": "dynamic_array",
        "label": "string[]",
        "numberOfBytes": "32",
        "base": "t_string_storage"
      },
      "t_array(t_uint256)49_storage": {
        "encoding": "inplace",
        "label": "uint256[49]",
        "numberOfBytes": "1568",
        "base": "t_uint256"
      },
      "t_array(t_uint256)50_storage": {
        "encoding": "inplace",
        "label": "uint256[50]",
        "numberOfBytes": "1600",
        "base": "t_uint256"
      },
      "t_bool": {
        "encoding": "inplace",
        "label": "bool",
        "numberOfBytes": "1"
      },
      "t_mapping(t_address,t_address)": {
        "encoding": "mapping",
        "key": "t_address",
        "label": "mapping(address => address)",
        "numberOfBytes": "32",
        "value": "t_address"
      },
      "t_string_storage": {
        "encoding": "bytes",
        "label": "string",
        "numberOfBytes": "32"
      },
      "t_uint256": {
        "encoding": "inplace",
        "label": "uint256",
        "numberOfBytes": "32"
      },
      "t_uint8": {
        "encoding": "inplace",
        "label": "uint8",
        "numberOfBytes": "1"
      }
    }
  },
  "id": 119
}