{
  "abi": [
    {
      "inputs": [
        {
          "internalType": "address",
          "name": "wethAddress",
          "type": "address"
        }
      ],
      "stateMutability": "nonpayable",
      "type": "constructor"
    },
    {
      "anonymous": false,
      "inputs": [
        {
          "indexed": false,
          "internalType": "address",
          "name": "previousAdmin",
          "type": "address"
        },
        {
          "indexed": false,
          "internalType": "address",
          "name": "newAdmin",
          "type": "address"
        }
      ],
      "name": "AdminChanged",
      "type": "event"
    },
    {
      "anonymous": false,
      "inputs": [
        {
          "indexed": true,
          "internalType": "address",
          "name": "beacon",
          "type": "address"
        }
      ],
      "name": "BeaconUpgraded",
      "type": "event"
    },
    {
      "anonymous": false,
      "inputs": [
        {
          "indexed": false,
          "internalType": "uint8",
          "name": "version",
          "type": "uint8"
        }
      ],
      "name": "Initialized",
      "type": "event"
    },
    {
      "anonymous": false,
      "inputs": [
        {
          "indexed": true,
          "internalType": "address",
          "name": "previousOwner",
          "type": "address"
        },
        {
          "indexed": true,
          "internalType": "address",
          "name": "newOwner",
          "type": "address"
        }
      ],
      "name": "OwnershipTransferred",
      "type": "event"
    },
    {
      "anonymous": false,
      "inputs": [
        {
          "indexed": true,
          "internalType": "address",
          "name": "implementation",
          "type": "address"
        }
      ],
      "name": "Upgraded",
      "type": "event"
    },
    {
      "stateMutability": "payable",
      "type": "fallback"
    },
    {
      "inputs": [
        {
          "internalType": "address",
          "name": "target",
          "type": "address"
        },
        {
          "internalType": "uint256",
          "name": "value",
          "type": "uint256"
        },
        {
          "internalType": "bytes",
          "name": "data",
          "type": "bytes"
        }
      ],
      "name": "execute",
      "outputs": [],
      "stateMutability": "nonpayable",
      "type": "function"
    },
    {
      "inputs": [],
      "name": "initialize",
      "outputs": [],
      "stateMutability": "nonpayable",
      "type": "function"
    },
    {
      "inputs": [
        {
          "internalType": "address",
          "name": "",
          "type": "address"
        },
        {
          "internalType": "address",
          "name": "",
          "type": "address"
        },
        {
          "internalType": "uint256[]",
          "name": "",
          "type": "uint256[]"
        },
        {
          "internalType": "uint256[]",
          "name": "",
          "type": "uint256[]"
        },
        {
          "internalType": "bytes",
          "name": "",
          "type": "bytes"
        }
      ],
      "name": "onERC1155BatchReceived",
      "outputs": [
        {
          "internalType": "bytes4",
          "name": "",
          "type": "bytes4"
        }
      ],
      "stateMutability": "pure",
      "type": "function"
    },
    {
      "inputs": [
        {
          "internalType": "address",
          "name": "",
          "type": "address"
        },
        {
          "internalType": "address",
          "name": "",
          "type": "address"
        },
        {
          "internalType": "uint256",
          "name": "",
          "type": "uint256"
        },
        {
          "internalType": "uint256",
          "name": "",
          "type": "uint256"
        },
        {
          "internalType": "bytes",
          "name": "",
          "type": "bytes"
        }
      ],
      "name": "onERC1155Received",
      "outputs": [
        {
          "internalType": "bytes4",
          "name": "",
          "type": "bytes4"
        }
      ],
      "stateMutability": "pure",
      "type": "function"
    },
    {
      "inputs": [
        {
          "internalType": "address",
          "name": "",
          "type": "address"
        },
        {
          "internalType": "address",
          "name": "",
          "type": "address"
        },
        {
          "internalType": "uint256",
          "name": "",
          "type": "uint256"
        },
        {
          "internalType": "bytes",
          "name": "",
          "type": "bytes"
        }
      ],
      "name": "onERC721Received",
      "outputs": [
        {
          "internalType": "bytes4",
          "name": "",
          "type": "bytes4"
        }
      ],
      "stateMutability": "pure",
      "type": "function"
    },
    {
      "inputs": [],
      "name": "owner",
      "outputs": [
        {
          "internalType": "address",
          "name": "",
          "type": "address"
        }
      ],
      "stateMutability": "view",
      "type": "function"
    },
    {
      "inputs": [],
      "name": "proxiableUUID",
      "outputs": [
        {
          "internalType": "bytes32",
          "name": "",
          "type": "bytes32"
        }
      ],
      "stateMutability": "view",
      "type": "function"
    },
    {
      "inputs": [],
      "name": "renounceOwnership",
      "outputs": [],
      "stateMutability": "nonpayable",
      "type": "function"
    },
    {
      "inputs": [
        {
          "internalType": "bytes4",
          "name": "interfaceId",
          "type": "bytes4"
        }
      ],
      "name": "supportsInterface",
      "outputs": [
        {
          "internalType": "bool",
          "name": "",
          "type": "bool"
        }
      ],
      "stateMutability": "view",
      "type": "function"
    },
    {
      "inputs": [
        {
          "internalType": "address",
          "name": "",
          "type": "address"
        },
        {
          "internalType": "address",
          "name": "",
          "type": "address"
        },
        {
          "internalType": "address",
          "name": "",
          "type": "address"
        },
        {
          "internalType": "uint256",
          "name": "",
          "type": "uint256"
        },
        {
          "internalType": "bytes",
          "name": "",
          "type": "bytes"
        },
        {
          "internalType": "bytes",
          "name": "",
          "type": "bytes"
        }
      ],
      "name": "tokensReceived",
      "outputs": [],
      "stateMutability": "pure",
      "type": "function"
    },
    {
      "inputs": [
        {
          "internalType": "address",
          "name": "newOwner",
          "type": "address"
        }
      ],
      "name": "transferOwnership",
      "outputs": [],
      "stateMutability": "nonpayable",
      "type": "function"
    },
    {
      "inputs": [
        {
          "internalType": "address",
          "name": "newImplementation",
          "type": "address"
        }
      ],
      "name": "upgradeTo",
      "outputs": [],
      "stateMutability": "nonpayable",
      "type": "function"
    },
    {
      "inputs": [
        {
          "internalType": "address",
          "name": "newImplementation",
          "type": "address"
        },
        {
          "internalType": "bytes",
          "name": "data",
          "type": "bytes"
        }
      ],
      "name": "upgradeToAndCall",
      "outputs": [],
      "stateMutability": "payable",
      "type": "function"
    },
    {
      "stateMutability": "payable",
      "type": "receive"
    }
  ],
  "bytecode": {
    "object": "0x60c06040523060805234801561001457600080fd5b5060405161155038038061155083398101604081905261003391610044565b6001600160a01b031660a052610074565b60006020828403121561005657600080fd5b81516001600160a01b038116811461006d57600080fd5b9392505050565b60805160a05161148f6100c16000396000818160b50152818160f0015261033d01526000818161045a0152818161049a015281816105220152818161056201526105da015261148f6000f3fe6080604052600436106100a55760003560e01c806223de291461011e57806301ffc9a714610143578063150b7a02146101785780633659cfe6146101bd5780634f1ef286146101dd57806352d1902d146101f0578063715018a6146102135780638129fc1c146102285780638da5cb5b1461023d578063b61d27f61461026a578063bc197c811461028a578063f23a6e61146102b9578063f2fde38b146102e6576100e5565b366100e557336001600160a01b037f000000000000000000000000000000000000000000000000000000000000000016146100e3576100e334610306565b005b336001600160a01b037f000000000000000000000000000000000000000000000000000000000000000016146100e3576100e334610306565b34801561012a57600080fd5b506100e3610139366004610e8a565b5050505050505050565b34801561014f57600080fd5b5061016361015e366004610f34565b6103fe565b60405190151581526020015b60405180910390f35b34801561018457600080fd5b506101a4610193366004610f5e565b630a85bd0160e11b95945050505050565b6040516001600160e01b0319909116815260200161016f565b3480156101c957600080fd5b506100e36101d8366004610fcc565b610450565b6100e36101eb366004610ffd565b610518565b3480156101fc57600080fd5b506102056105cd565b60405190815260200161016f565b34801561021f57600080fd5b506100e361067b565b34801561023457600080fd5b506100e361068f565b34801561024957600080fd5b506102526107a6565b6040516001600160a01b03909116815260200161016f565b34801561027657600080fd5b506100e36102853660046110be565b6107b5565b34801561029657600080fd5b506101a46102a536600461115b565b63bc197c8160e01b98975050505050505050565b3480156102c557600080fd5b506101a46102d43660046111f4565b63f23a6e6160e01b9695505050505050565b3480156102f257600080fd5b506100e3610301366004610fcc565b610871565b60408051600481526024810182526020810180516001600160e01b0316630d0e30db60e41b17905290516000916001600160a01b037f0000000000000000000000000000000000000000000000000000000000000000169184916103699161128f565b60006040518083038185875af1925050503d80600081146103a6576040519150601f19603f3d011682016040523d82523d6000602084013e6103ab565b606091505b50509050806103fa5760405162461bcd60e51b815260206004820152601660248201527518dbdb9d995c9d081d1bc81dd95d1a0819985a5b195960521b60448201526064015b60405180910390fd5b5050565b60006001600160e01b03198216630a85bd0160e11b148061042f57506001600160e01b03198216630271189760e51b145b8061044a57506001600160e01b031982166301ffc9a760e01b145b92915050565b6001600160a01b037f00000000000000000000000000000000000000000000000000000000000000001630036104985760405162461bcd60e51b81526004016103f1906112ab565b7f00000000000000000000000000000000000000000000000000000000000000006001600160a01b03166104ca6108e7565b6001600160a01b0316146104f05760405162461bcd60e51b81526004016103f1906112e5565b6104f981610903565b6040805160008082526020820190925261051591839190610945565b50565b6001600160a01b037f00000000000000000000000000000000000000000000000000000000000000001630036105605760405162461bcd60e51b81526004016103f1906112ab565b7f00000000000000000000000000000000000000000000000000000000000000006001600160a01b03166105926108e7565b6001600160a01b0316146105b85760405162461bcd60e51b81526004016103f1906112e5565b6105c182610903565b6103fa82826001610945565b6000306001600160a01b037f000000000000000000000000000000000000000000000000000000000000000016146106685760405162461bcd60e51b815260206004820152603860248201527f555550535570677261646561626c653a206d757374206e6f742062652063616c6044820152771b1959081d1a1c9bdd59da0819195b1959d85d1958d85b1b60421b60648201526084016103f1565b5060008051602061141383398151915290565b610683610ab5565b61068d6000610b14565b565b600054610100900460ff16158080156106af5750600054600160ff909116105b806106d057506106be30610b66565b1580156106d0575060005460ff166001145b6107335760405162461bcd60e51b815260206004820152602e60248201527f496e697469616c697a61626c653a20636f6e747261637420697320616c72656160448201526d191e481a5b9a5d1a585b1a5e995960921b60648201526084016103f1565b6000805460ff191660011790558015610756576000805461ff0019166101001790555b61075e610b75565b8015610515576000805461ff0019169055604051600181527f7f26b83ff96e1f2b6a682f133852f6798a09c465da95921460cefb38474024989060200160405180910390a150565b6033546001600160a01b031690565b6107bd6107a6565b6001600160a01b0316336001600160a01b031614806107db57503330145b6107f75760405162461bcd60e51b81526004016103f19061131f565b600080856001600160a01b031685858560405161081592919061134b565b60006040518083038185875af1925050503d8060008114610852576040519150601f19603f3d011682016040523d82523d6000602084013e610857565b606091505b50915091508161086957805160208201fd5b505050505050565b610879610ab5565b6001600160a01b0381166108de5760405162461bcd60e51b815260206004820152602660248201527f4f776e61626c653a206e6577206f776e657220697320746865207a65726f206160448201526564647265737360d01b60648201526084016103f1565b61051581610b14565b600080516020611413833981519152546001600160a01b031690565b61090b6107a6565b6001600160a01b0316336001600160a01b0316148061092957503330145b6105155760405162461bcd60e51b81526004016103f19061131f565b7f4910fdfa16fed3260ed0e7147f7cc6da11a60208b5b9406d12a635614ffd91435460ff161561097d5761097883610ba4565b505050565b826001600160a01b03166352d1902d6040518163ffffffff1660e01b8152600401602060405180830381865afa9250505080156109d7575060408051601f3d908101601f191682019092526109d49181019061135b565b60015b610a3a5760405162461bcd60e51b815260206004820152602e60248201527f45524331393637557067726164653a206e657720696d706c656d656e7461746960448201526d6f6e206973206e6f74205555505360901b60648201526084016103f1565b6000805160206114138339815191528114610aa95760405162461bcd60e51b815260206004820152602960248201527f45524331393637557067726164653a20756e737570706f727465642070726f786044820152681a58589b195555525160ba1b60648201526084016103f1565b50610978838383610c3e565b33610abe6107a6565b6001600160a01b03161461068d5760405162461bcd60e51b815260206004820181905260248201527f4f776e61626c653a2063616c6c6572206973206e6f7420746865206f776e657260448201526064016103f1565b603380546001600160a01b038381166001600160a01b0319831681179093556040519116919082907f8be0079c531659141344cd1fd0a4f28419497f9722a3daafe3b4186f6b6457e090600090a35050565b6001600160a01b03163b151590565b600054610100900460ff16610b9c5760405162461bcd60e51b81526004016103f190611374565b61068d610c69565b610bad81610b66565b610c0f5760405162461bcd60e51b815260206004820152602d60248201527f455243313936373a206e657720696d706c656d656e746174696f6e206973206e60448201526c1bdd08184818dbdb9d1c9858dd609a1b60648201526084016103f1565b60008051602061141383398151915280546001600160a01b0319166001600160a01b0392909216919091179055565b610c4783610c99565b600082511180610c545750805b1561097857610c638383610cd9565b50505050565b600054610100900460ff16610c905760405162461bcd60e51b81526004016103f190611374565b61068d33610b14565b610ca281610ba4565b6040516001600160a01b038216907fbc7cd75a20ee27fd9adebab32041f755214dbc6bffa90cc0225b39da2e5c2d3b90600090a250565b6060610cfe838360405180606001604052806027815260200161143360279139610d05565b9392505050565b6060600080856001600160a01b031685604051610d22919061128f565b600060405180830381855af49150503d8060008114610d5d576040519150601f19603f3d011682016040523d82523d6000602084013e610d62565b606091505b5091509150610d7386838387610d7d565b9695505050505050565b60608315610dea578251600003610de357610d9785610b66565b610de35760405162461bcd60e51b815260206004820152601d60248201527f416464726573733a2063616c6c20746f206e6f6e2d636f6e747261637400000060448201526064016103f1565b5081610df4565b610df48383610dfc565b949350505050565b815115610e0c5781518083602001fd5b8060405162461bcd60e51b81526004016103f191906113bf565b80356001600160a01b0381168114610e3d57600080fd5b919050565b60008083601f840112610e5457600080fd5b5081356001600160401b03811115610e6b57600080fd5b602083019150836020828501011115610e8357600080fd5b9250929050565b60008060008060008060008060c0898b031215610ea657600080fd5b610eaf89610e26565b9750610ebd60208a01610e26565b9650610ecb60408a01610e26565b95506060890135945060808901356001600160401b0380821115610eee57600080fd5b610efa8c838d01610e42565b909650945060a08b0135915080821115610f1357600080fd5b50610f208b828c01610e42565b999c989b5096995094979396929594505050565b600060208284031215610f4657600080fd5b81356001600160e01b031981168114610cfe57600080fd5b600080600080600060808688031215610f7657600080fd5b610f7f86610e26565b9450610f8d60208701610e26565b93506040860135925060608601356001600160401b03811115610faf57600080fd5b610fbb88828901610e42565b969995985093965092949392505050565b600060208284031215610fde57600080fd5b610cfe82610e26565b634e487b7160e01b600052604160045260246000fd5b6000806040838503121561101057600080fd5b61101983610e26565b915060208301356001600160401b038082111561103557600080fd5b818501915085601f83011261104957600080fd5b81358181111561105b5761105b610fe7565b604051601f8201601f19908116603f0116810190838211818310171561108357611083610fe7565b8160405282815288602084870101111561109c57600080fd5b8260208601602083013760006020848301015280955050505050509250929050565b600080600080606085870312156110d457600080fd5b6110dd85610e26565b93506020850135925060408501356001600160401b038111156110ff57600080fd5b61110b87828801610e42565b95989497509550505050565b60008083601f84011261112957600080fd5b5081356001600160401b0381111561114057600080fd5b6020830191508360208260051b8501011115610e8357600080fd5b60008060008060008060008060a0898b03121561117757600080fd5b61118089610e26565b975061118e60208a01610e26565b965060408901356001600160401b03808211156111aa57600080fd5b6111b68c838d01611117565b909850965060608b01359150808211156111cf57600080fd5b6111db8c838d01611117565b909650945060808b0135915080821115610f1357600080fd5b60008060008060008060a0878903121561120d57600080fd5b61121687610e26565b955061122460208801610e26565b9450604087013593506060870135925060808701356001600160401b0381111561124d57600080fd5b61125989828a01610e42565b979a9699509497509295939492505050565b60005b8381101561128657818101518382015260200161126e565b50506000910152565b600082516112a181846020870161126b565b9190910192915050565b6020808252602c908201526000805160206113f383398151915260408201526b19195b1959d85d1958d85b1b60a21b606082015260800190565b6020808252602c908201526000805160206113f383398151915260408201526b6163746976652070726f787960a01b606082015260800190565b60208082526012908201527137b7363c9037bbb732b91037b91039b2b63360711b604082015260600190565b8183823760009101908152919050565b60006020828403121561136d57600080fd5b5051919050565b6020808252602b908201527f496e697469616c697a61626c653a20636f6e7472616374206973206e6f74206960408201526a6e697469616c697a696e6760a81b606082015260800190565b60208152600082518060208401526113de81604085016020870161126b565b601f01601f1916919091016040019291505056fe46756e6374696f6e206d7573742062652063616c6c6564207468726f75676820360894a13ba1a3210667c828492db98dca3e2076cc3735a920a3ca505d382bbc416464726573733a206c6f772d6c6576656c2064656c65676174652063616c6c206661696c6564a264697066735822122005a4101cd867a7b4634217685487ab699646a55e81f9dc23ecd6a793c358eb7b64736f6c63430008170033",
    "linkReferences": {}
  },
  "methodIdentifiers": {
    "execute(address,uint256,bytes)": "b61d27f6",
    "initialize()": "8129fc1c",
    "onERC1155BatchReceived(address,address,uint256[],uint256[],bytes)": "bc197c81",
    "onERC1155Received(address,address,uint256,uint256,bytes)": "f23a6e61",
    "onERC721Received(address,address,uint256,bytes)": "150b7a02",
    "owner()": "8da5cb5b",
    "proxiableUUID()": "52d1902d",
    "renounceOwnership()": "715018a6",
    "supportsInterface(bytes4)": "01ffc9a7",
    "tokensReceived(address,address,address,uint256,bytes,bytes)": "0023de29",
    "transferOwnership(address)": "f2fde38b",
    "upgradeTo(address)": "3659cfe6",
    "upgradeToAndCall(address,bytes)": "4f1ef286"
  },
  "id": 130
}