{
  "abi": [
    {
      "inputs": [
        {
          "internalType": "address",
          "name": "coreAddr",
          "type": "address"
        }
      ],
      "stateMutability": "nonpayable",
      "type": "constructor"
    },
    {
      "inputs": [
        {
          "internalType": "string",
          "name": "",
          "type": "string"
        }
      ],
      "name": "addressOfNFTName",
      "outputs": [
        {
          "internalType": "address",
          "name": "",
          "type": "address"
        }
      ],
      "stateMutability": "view",
      "type": "function"
    },
    {
      "inputs": [
        {
          "components": [
            {
              "internalType": "bytes32",
              "name": "emailAddrCommit",
              "type": "bytes32"
            },
            {
              "internalType": "address",
              "name": "extensionAddr",
              "type": "address"
            },
            {
              "internalType": "address",
              "name": "sender",
              "type": "address"
            },
            {
              "internalType": "bytes",
              "name": "state",
              "type": "bytes"
            },
            {
              "internalType": "uint256",
              "name": "expiryTime",
              "type": "uint256"
            }
          ],
          "internalType": "struct UnclaimedState",
          "name": "unclaimedState",
          "type": "tuple"
        },
        {
          "internalType": "address",
          "name": "wallet",
          "type": "address"
        }
      ],
      "name": "claimUnclaimedState",
      "outputs": [],
      "stateMutability": "nonpayable",
      "type": "function"
    },
    {
      "inputs": [],
      "name": "core",
      "outputs": [
        {
          "internalType": "contract EmailWalletCore",
          "name": "",
          "type": "address"
        }
      ],
      "stateMutability": "view",
      "type": "function"
    },
    {
      "inputs": [
        {
          "internalType": "uint8",
          "name": "templateIndex",
          "type": "uint8"
        },
        {
          "internalType": "bytes[]",
          "name": "subjectParams",
          "type": "bytes[]"
        },
        {
          "internalType": "address",
          "name": "wallet",
          "type": "address"
        },
        {
          "internalType": "bool",
          "name": "hasEmailRecipient",
          "type": "bool"
        },
        {
          "internalType": "address",
          "name": "recipientETHAddr",
          "type": "address"
        },
        {
          "internalType": "bytes32",
          "name": "",
          "type": "bytes32"
        }
      ],
      "name": "execute",
      "outputs": [],
      "stateMutability": "nonpayable",
      "type": "function"
    },
    {
      "inputs": [
        {
          "internalType": "address",
          "name": "",
          "type": "address"
        },
        {
          "internalType": "address",
          "name": "",
          "type": "address"
        },
        {
          "internalType": "uint256",
          "name": "",
          "type": "uint256"
        },
        {
          "internalType": "bytes",
          "name": "",
          "type": "bytes"
        }
      ],
      "name": "onERC721Received",
      "outputs": [
        {
          "internalType": "bytes4",
          "name": "",
          "type": "bytes4"
        }
      ],
      "stateMutability": "pure",
      "type": "function"
    },
    {
      "inputs": [
        {
          "components": [
            {
              "internalType": "bytes32",
              "name": "emailAddrCommit",
              "type": "bytes32"
            },
            {
              "internalType": "address",
              "name": "extensionAddr",
              "type": "address"
            },
            {
              "internalType": "address",
              "name": "sender",
              "type": "address"
            },
            {
              "internalType": "bytes",
              "name": "state",
              "type": "bytes"
            },
            {
              "internalType": "uint256",
              "name": "expiryTime",
              "type": "uint256"
            }
          ],
          "internalType": "struct UnclaimedState",
          "name": "unclaimedState",
          "type": "tuple"
        },
        {
          "internalType": "bool",
          "name": "",
          "type": "bool"
        }
      ],
      "name": "registerUnclaimedState",
      "outputs": [],
      "stateMutability": "nonpayable",
      "type": "function"
    },
    {
      "inputs": [
        {
          "internalType": "uint256",
          "name": "",
          "type": "uint256"
        },
        {
          "internalType": "uint256",
          "name": "",
          "type": "uint256"
        }
      ],
      "name": "templates",
      "outputs": [
        {
          "internalType": "string",
          "name": "",
          "type": "string"
        }
      ],
      "stateMutability": "view",
      "type": "function"
    },
    {
      "inputs": [
        {
          "components": [
            {
              "internalType": "bytes32",
              "name": "emailAddrCommit",
              "type": "bytes32"
            },
            {
              "internalType": "address",
              "name": "extensionAddr",
              "type": "address"
            },
            {
              "internalType": "address",
              "name": "sender",
              "type": "address"
            },
            {
              "internalType": "bytes",
              "name": "state",
              "type": "bytes"
            },
            {
              "internalType": "uint256",
              "name": "expiryTime",
              "type": "uint256"
            }
          ],
          "internalType": "struct UnclaimedState",
          "name": "unclaimedState",
          "type": "tuple"
        }
      ],
      "name": "voidUnclaimedState",
      "outputs": [],
      "stateMutability": "nonpayable",
      "type": "function"
    }
  ],
  "bytecode": {
    "object": "0x6001608081815260c06040529060a05b60608152602001906001900390816200000f57505080516200003a916002916020909101906200020a565b503480156200004857600080fd5b5060405162002b1338038062002b138339810160408190526200006b91620003eb565b600080546001600160a01b0319166001600160a01b03831617815560405162000094906200026e565b604051809103906000f080158015620000b1573d6000803e3d6000fd5b509050806001604051620000ce906241504560e81b815260030190565b908152604080516020928190038301812080546001600160a01b0319166001600160a01b03959095169490941790935561012083018152600360e084019081526213919560ea1b610100850152835280518082018252600481526314d95b9960e21b81840152828401528051808201825260068152657b75696e747d60d01b81840152838201528051808201825260028082526137b360f11b8285015260608501919091528151808301835260088152677b737472696e677d60c01b8185015260808501528151808301835281815261746f60f01b8185015260a08501528151808301909252600b82526a7b726563697069656e747d60a81b9282019290925260c08301528054600090620001e757620001e76200041d565b90600052602060002001906007620002019291906200027c565b5050506200058e565b8280548282559060005260206000209081019282156200025c579160200282015b828111156200025c57825180516200024b918491602090910190620002d5565b50916020019190600101906200022b565b506200026a92915062000320565b5090565b6114b0806200166383390190565b828054828255906000526020600020908101928215620002c7579160200282015b82811115620002c75782518290620002b69082620004c2565b50916020019190600101906200029d565b506200026a92915062000341565b828054828255906000526020600020908101928215620002c7579160200282015b82811115620002c757825182906200030f9082620004c2565b5091602001919060010190620002f6565b808211156200026a57600062000337828262000362565b5060010162000320565b808211156200026a57600062000358828262000385565b5060010162000341565b508054600082559060005260206000209081019062000382919062000341565b50565b508054620003939062000433565b6000825580601f10620003a4575050565b601f0160209004906000526020600020908101906200038291905b808211156200026a5760008155600101620003bf565b634e487b7160e01b600052604160045260246000fd5b600060208284031215620003fe57600080fd5b81516001600160a01b03811681146200041657600080fd5b9392505050565b634e487b7160e01b600052603260045260246000fd5b600181811c908216806200044857607f821691505b6020821081036200046957634e487b7160e01b600052602260045260246000fd5b50919050565b601f821115620004bd57600081815260208120601f850160051c81016020861015620004985750805b601f850160051c820191505b81811015620004b957828155600101620004a4565b5050505b505050565b81516001600160401b03811115620004de57620004de620003d5565b620004f681620004ef845462000433565b846200046f565b602080601f8311600181146200052e5760008415620005155750858301515b600019600386901b1c1916600185901b178555620004b9565b600085815260208120601f198616915b828110156200055f578886015182559484019460019091019084016200053e565b50858210156200057e5787850151600019600388901b60f8161c191681555b5050505050600190811b01905550565b6110c5806200059e6000396000f3fe608060405234801561001057600080fd5b50600436106100885760003560e01c8063e93977e81161005b578063e93977e814610112578063eba8f5b414610125578063f2f4eb2614610138578063fd72aa301461016357600080fd5b8063150b7a021461008d578063534e4af7146100ca578063d07e0189146100df578063e05df3ee146100ff575b600080fd5b6100ac61009b3660046109ef565b630a85bd0160e11b95945050505050565b6040516001600160e01b031990911681526020015b60405180910390f35b6100dd6100d8366004610c17565b610197565b005b6100f26100ed366004610c65565b6103db565b6040516100c19190610cd7565b6100dd61010d366004610cea565b6104a0565b6100dd610120366004610d3c565b610552565b6100dd610133366004610e52565b610913565b60005461014b906001600160a01b031681565b6040516001600160a01b0390911681526020016100c1565b61014b610171366004610e8f565b80516020818301810180516001825292820191909301209152546001600160a01b031681565b6000546001600160a01b031633146101ca5760405162461bcd60e51b81526004016101c190610ed8565b60405180910390fd5b60008083606001518060200190518101906101e59190610f00565b60405163020604bf60e21b8152600481018290529193509150829030906001600160a01b0383169063081812fc90602401602060405180830381865afa158015610233573d6000803e3d6000fd5b505050506040513d601f19601f820116820180604052508101906102579190610f2e565b6001600160a01b0316146102ad5760405162461bcd60e51b815260206004820152601d60248201527f4e4654206e6f7420617070726f76656420746f20657874656e73696f6e00000060448201526064016101c1565b60408086015190516323b872dd60e01b81526001600160a01b038316916323b872dd916102e1919030908790600401610f4b565b600060405180830381600087803b1580156102fb57600080fd5b505af115801561030f573d6000803e3d6000fd5b50506040516331a9108f60e11b8152600481018590523092506001600160a01b0384169150636352211e90602401602060405180830381865afa15801561035a573d6000803e3d6000fd5b505050506040513d601f19601f8201168201806040525081019061037e9190610f2e565b6001600160a01b0316146103d45760405162461bcd60e51b815260206004820181905260248201527f4e4654206e6f74207472616e7366657272656420746f20657874656e73696f6e60448201526064016101c1565b5050505050565b600282815481106103eb57600080fd5b90600052602060002001818154811061040357600080fd5b9060005260206000200160009150915050805461041f90610f6f565b80601f016020809104026020016040519081016040528092919081815260200182805461044b90610f6f565b80156104985780601f1061046d57610100808354040283529160200191610498565b820191906000526020600020905b81548152906001019060200180831161047b57829003601f168201915b505050505081565b6000546001600160a01b031633146104ca5760405162461bcd60e51b81526004016101c190610ed8565b60008083606001518060200190518101906104e59190610f00565b6040516323b872dd60e01b815291935091506001600160a01b038316906323b872dd9061051a90309087908690600401610f4b565b600060405180830381600087803b15801561053457600080fd5b505af1158015610548573d6000803e3d6000fd5b5050505050505050565b6000546001600160a01b0316331461057c5760405162461bcd60e51b81526004016101c190610ed8565b60ff8616156105c55760405162461bcd60e51b81526020600482015260156024820152740d2dcecc2d8d2c840e8cadae0d8c2e8ca92dcc8caf605b1b60448201526064016101c1565b6000856000815181106105da576105da610fa9565b60200260200101518060200190518101906105f59190610fbf565b905060008660018151811061060c5761060c610fa9565b60200260200101518060200190518101906106279190610fd8565b9050600060018260405161063b919061104f565b908152604051908190036020019020546001600160a01b03169050806106915760405162461bcd60e51b815260206004820152600b60248201526a1a5b9d985b1a590813919560aa1b60448201526064016101c1565b826000036106d35760405162461bcd60e51b815260206004820152600f60248201526e1a5b9d985b1a59081d1bdad95b9259608a1b60448201526064016101c1565b851561080b576040513060248201526044810184905260009060640160408051601f198184030181529181526020820180516001600160e01b031663095ea7b360e01b17905260005490516321d71c8f60e01b81529192506001600160a01b0316906321d71c8f9061074b908590859060040161106b565b600060405180830381600087803b15801561076557600080fd5b505af1158015610779573d6000803e3d6000fd5b5050604080516001600160a01b038681166020830152818301899052825180830384018152606083019384905260005463326bcfc760e21b909452945091909116915063c9af3f1c906107d2903090859060640161106b565b600060405180830381600087803b1580156107ec57600080fd5b505af1158015610800573d6000803e3d6000fd5b505050505050610908565b6001600160a01b0385166108615760405162461bcd60e51b815260206004820152601860248201527f696e76616c696420726563697069656e7445544841646472000000000000000060448201526064016101c1565b600087868560405160240161087893929190610f4b565b60408051601f198184030181529181526020820180516001600160e01b03166323b872dd60e01b17905260005490516321d71c8f60e01b81529192506001600160a01b0316906321d71c8f906108d4908590859060040161106b565b600060405180830381600087803b1580156108ee57600080fd5b505af1158015610902573d6000803e3d6000fd5b50505050505b505050505050505050565b6000546001600160a01b0316331461093d5760405162461bcd60e51b81526004016101c190610ed8565b60008082606001518060200190518101906109589190610f00565b91509150816001600160a01b03166323b872dd308560400151846040518463ffffffff1660e01b815260040161099093929190610f4b565b600060405180830381600087803b1580156109aa57600080fd5b505af11580156109be573d6000803e3d6000fd5b50505050505050565b6001600160a01b03811681146109dc57600080fd5b50565b80356109ea816109c7565b919050565b600080600080600060808688031215610a0757600080fd5b8535610a12816109c7565b94506020860135610a22816109c7565b935060408601359250606086013567ffffffffffffffff80821115610a4657600080fd5b818801915088601f830112610a5a57600080fd5b813581811115610a6957600080fd5b896020828501011115610a7b57600080fd5b9699959850939650602001949392505050565b634e487b7160e01b600052604160045260246000fd5b604051601f8201601f1916810167ffffffffffffffff81118282101715610acd57610acd610a8e565b604052919050565b600067ffffffffffffffff821115610aef57610aef610a8e565b50601f01601f191660200190565b6000610b10610b0b84610ad5565b610aa4565b9050828152838383011115610b2457600080fd5b828260208301376000602084830101529392505050565b600082601f830112610b4c57600080fd5b610b5b83833560208501610afd565b9392505050565b600060a08284031215610b7457600080fd5b60405160a0810167ffffffffffffffff8282108183111715610b9857610b98610a8e565b816040528293508435835260208501359150610bb3826109c7565b81602084015260408501359150610bc9826109c7565b8160408401526060850135915080821115610be357600080fd5b50610bf085828601610b3b565b606083015250608083013560808201525092915050565b803580151581146109ea57600080fd5b60008060408385031215610c2a57600080fd5b823567ffffffffffffffff811115610c4157600080fd5b610c4d85828601610b62565b925050610c5c60208401610c07565b90509250929050565b60008060408385031215610c7857600080fd5b50508035926020909101359150565b60005b83811015610ca2578181015183820152602001610c8a565b50506000910152565b60008151808452610cc3816020860160208601610c87565b601f01601f19169290920160200192915050565b602081526000610b5b6020830184610cab565b60008060408385031215610cfd57600080fd5b823567ffffffffffffffff811115610d1457600080fd5b610d2085828601610b62565b9250506020830135610d31816109c7565b809150509250929050565b60008060008060008060c08789031215610d5557600080fd5b863560ff81168114610d6657600080fd5b955060208781013567ffffffffffffffff80821115610d8457600080fd5b818a0191508a601f830112610d9857600080fd5b813581811115610daa57610daa610a8e565b8060051b610db9858201610aa4565b918252838101850191858101908e841115610dd357600080fd5b86860192505b83831015610e0d578483351115610def57600080fd5b610dfe8f888535890101610b3b565b82529186019190860190610dd9565b809b5050505050505050610e23604088016109df565b9350610e3160608801610c07565b9250610e3f608088016109df565b915060a087013590509295509295509295565b600060208284031215610e6457600080fd5b813567ffffffffffffffff811115610e7b57600080fd5b610e8784828501610b62565b949350505050565b600060208284031215610ea157600080fd5b813567ffffffffffffffff811115610eb857600080fd5b8201601f81018413610ec957600080fd5b610e8784823560208401610afd565b6020808252600e908201526d34b73b30b634b21039b2b73232b960911b604082015260600190565b60008060408385031215610f1357600080fd5b8251610f1e816109c7565b6020939093015192949293505050565b600060208284031215610f4057600080fd5b8151610b5b816109c7565b6001600160a01b039384168152919092166020820152604081019190915260600190565b600181811c90821680610f8357607f821691505b602082108103610fa357634e487b7160e01b600052602260045260246000fd5b50919050565b634e487b7160e01b600052603260045260246000fd5b600060208284031215610fd157600080fd5b5051919050565b600060208284031215610fea57600080fd5b815167ffffffffffffffff81111561100157600080fd5b8201601f8101841361101257600080fd5b8051611020610b0b82610ad5565b81815285602083850101111561103557600080fd5b611046826020830160208601610c87565b95945050505050565b60008251611061818460208701610c87565b9190910192915050565b6001600160a01b0383168152604060208201819052600090610e8790830184610cab56fea26469706673582212203592a81f935d797aae345c3577d0e696fc9582c91df3f170a0f4b37bb2abd24264736f6c6343000811003360806040523480156200001157600080fd5b506040518060400160405280600981526020016844756d6d794170657360b81b8152506040518060400160405280600381526020016241504560e81b81525081600090816200006191906200011e565b5060016200007082826200011e565b505050620001ea565b634e487b7160e01b600052604160045260246000fd5b600181811c90821680620000a457607f821691505b602082108103620000c557634e487b7160e01b600052602260045260246000fd5b50919050565b601f8211156200011957600081815260208120601f850160051c81016020861015620000f45750805b601f850160051c820191505b81811015620001155782815560010162000100565b5050505b505050565b81516001600160401b038111156200013a576200013a62000079565b62000152816200014b84546200008f565b84620000cb565b602080601f8311600181146200018a5760008415620001715750858301515b600019600386901b1c1916600185901b17855562000115565b600085815260208120601f198616915b82811015620001bb578886015182559484019460019091019084016200019a565b5085821015620001da5787850151600019600388901b60f8161c191681555b5050505050600190811b01905550565b6112b680620001fa6000396000f3fe608060405234801561001057600080fd5b50600436106100ea5760003560e01c806370a082311161008c578063a22cb46511610066578063a22cb465146101e1578063b88d4fde146101f4578063c87b56dd14610207578063e985e9c51461021a57600080fd5b806370a08231146101a557806395d89b41146101c65780639883566e146101ce57600080fd5b8063095ea7b3116100c8578063095ea7b31461015757806323b872dd1461016c57806342842e0e1461017f5780636352211e1461019257600080fd5b806301ffc9a7146100ef57806306fdde0314610117578063081812fc1461012c575b600080fd5b6101026100fd366004610e42565b610256565b60405190151581526020015b60405180910390f35b61011f6102a8565b60405161010e9190610eaf565b61013f61013a366004610ec2565b61033a565b6040516001600160a01b03909116815260200161010e565b61016a610165366004610ef7565b610361565b005b61016a61017a366004610f21565b61047b565b61016a61018d366004610f21565b6104ac565b61013f6101a0366004610ec2565b6104c7565b6101b86101b3366004610f5d565b610527565b60405190815260200161010e565b61011f6105ad565b61016a6101dc366004610ef7565b6105bc565b61016a6101ef366004610f78565b6105ca565b61016a610202366004610fca565b6105d5565b61011f610215366004610ec2565b61060d565b6101026102283660046110a6565b6001600160a01b03918216600090815260056020908152604080832093909416825291909152205460ff1690565b60006001600160e01b031982166380ac58cd60e01b148061028757506001600160e01b03198216635b5e139f60e01b145b806102a257506301ffc9a760e01b6001600160e01b03198316145b92915050565b6060600080546102b7906110d9565b80601f01602080910402602001604051908101604052809291908181526020018280546102e3906110d9565b80156103305780601f1061030557610100808354040283529160200191610330565b820191906000526020600020905b81548152906001019060200180831161031357829003601f168201915b5050505050905090565b600061034582610681565b506000908152600460205260409020546001600160a01b031690565b600061036c826104c7565b9050806001600160a01b0316836001600160a01b0316036103de5760405162461bcd60e51b815260206004820152602160248201527f4552433732313a20617070726f76616c20746f2063757272656e74206f776e656044820152603960f91b60648201526084015b60405180910390fd5b336001600160a01b03821614806103fa57506103fa8133610228565b61046c5760405162461bcd60e51b815260206004820152603d60248201527f4552433732313a20617070726f76652063616c6c6572206973206e6f7420746f60448201527f6b656e206f776e6572206f7220617070726f76656420666f7220616c6c00000060648201526084016103d5565b61047683836106e3565b505050565b6104853382610751565b6104a15760405162461bcd60e51b81526004016103d590611113565b6104768383836107d0565b610476838383604051806020016040528060008152506105d5565b6000818152600260205260408120546001600160a01b0316806102a25760405162461bcd60e51b8152602060048201526018602482015277115490cdcc8c4e881a5b9d985b1a59081d1bdad95b88125160421b60448201526064016103d5565b60006001600160a01b0382166105915760405162461bcd60e51b815260206004820152602960248201527f4552433732313a2061646472657373207a65726f206973206e6f7420612076616044820152683634b21037bbb732b960b91b60648201526084016103d5565b506001600160a01b031660009081526003602052604090205490565b6060600180546102b7906110d9565b6105c68282610934565b5050565b6105c6338383610abf565b6105df3383610751565b6105fb5760405162461bcd60e51b81526004016103d590611113565b61060784848484610b8d565b50505050565b606061061882610681565b600061062f60408051602081019091526000815290565b9050600081511161064f576040518060200160405280600081525061067a565b8061065984610bc0565b60405160200161066a929190611160565b6040516020818303038152906040525b9392505050565b6000818152600260205260409020546001600160a01b03166106e05760405162461bcd60e51b8152602060048201526018602482015277115490cdcc8c4e881a5b9d985b1a59081d1bdad95b88125160421b60448201526064016103d5565b50565b600081815260046020526040902080546001600160a01b0319166001600160a01b0384169081179091558190610718826104c7565b6001600160a01b03167f8c5be1e5ebec7d5bd14f71427d1e84f3dd0314c0f7b2291e5b200ac8c7c3b92560405160405180910390a45050565b60008061075d836104c7565b9050806001600160a01b0316846001600160a01b031614806107a457506001600160a01b0380821660009081526005602090815260408083209388168352929052205460ff165b806107c85750836001600160a01b03166107bd8461033a565b6001600160a01b0316145b949350505050565b826001600160a01b03166107e3826104c7565b6001600160a01b0316146108095760405162461bcd60e51b81526004016103d59061118f565b6001600160a01b03821661086b5760405162461bcd60e51b8152602060048201526024808201527f4552433732313a207472616e7366657220746f20746865207a65726f206164646044820152637265737360e01b60648201526084016103d5565b826001600160a01b031661087e826104c7565b6001600160a01b0316146108a45760405162461bcd60e51b81526004016103d59061118f565b600081815260046020908152604080832080546001600160a01b03199081169091556001600160a01b0387811680865260038552838620805460001901905590871680865283862080546001019055868652600290945282852080549092168417909155905184937fddf252ad1be2c89b69c2b068fc378daa952ba7f163c4a11628f55a4df523b3ef91a4505050565b6001600160a01b03821661098a5760405162461bcd60e51b815260206004820181905260248201527f4552433732313a206d696e7420746f20746865207a65726f206164647265737360448201526064016103d5565b6000818152600260205260409020546001600160a01b0316156109ef5760405162461bcd60e51b815260206004820152601c60248201527f4552433732313a20746f6b656e20616c7265616479206d696e7465640000000060448201526064016103d5565b6000818152600260205260409020546001600160a01b031615610a545760405162461bcd60e51b815260206004820152601c60248201527f4552433732313a20746f6b656e20616c7265616479206d696e7465640000000060448201526064016103d5565b6001600160a01b038216600081815260036020908152604080832080546001019055848352600290915280822080546001600160a01b0319168417905551839291907fddf252ad1be2c89b69c2b068fc378daa952ba7f163c4a11628f55a4df523b3ef908290a45050565b816001600160a01b0316836001600160a01b031603610b205760405162461bcd60e51b815260206004820152601960248201527f4552433732313a20617070726f766520746f2063616c6c65720000000000000060448201526064016103d5565b6001600160a01b03838116600081815260056020908152604080832094871680845294825291829020805460ff191686151590811790915591519182527f17307eab39ab6107e8899845ad3d59bd9653f200f220920489ca2b5937696c31910160405180910390a3505050565b610b988484846107d0565b610ba484848484610c53565b6106075760405162461bcd60e51b81526004016103d5906111d4565b60606000610bcd83610d54565b600101905060008167ffffffffffffffff811115610bed57610bed610fb4565b6040519080825280601f01601f191660200182016040528015610c17576020820181803683370190505b5090508181016020015b600019016f181899199a1a9b1b9c1cb0b131b232b360811b600a86061a8153600a8504945084610c2157509392505050565b60006001600160a01b0384163b15610d4957604051630a85bd0160e11b81526001600160a01b0385169063150b7a0290610c97903390899088908890600401611226565b6020604051808303816000875af1925050508015610cd2575060408051601f3d908101601f19168201909252610ccf91810190611263565b60015b610d2f573d808015610d00576040519150601f19603f3d011682016040523d82523d6000602084013e610d05565b606091505b508051600003610d275760405162461bcd60e51b81526004016103d5906111d4565b805181602001fd5b6001600160e01b031916630a85bd0160e11b1490506107c8565b506001949350505050565b60008072184f03e93ff9f4daa797ed6e38ed64bf6a1f0160401b8310610d935772184f03e93ff9f4daa797ed6e38ed64bf6a1f0160401b830492506040015b6d04ee2d6d415b85acef81000000008310610dbf576d04ee2d6d415b85acef8100000000830492506020015b662386f26fc100008310610ddd57662386f26fc10000830492506010015b6305f5e1008310610df5576305f5e100830492506008015b6127108310610e0957612710830492506004015b60648310610e1b576064830492506002015b600a83106102a25760010192915050565b6001600160e01b0319811681146106e057600080fd5b600060208284031215610e5457600080fd5b813561067a81610e2c565b60005b83811015610e7a578181015183820152602001610e62565b50506000910152565b60008151808452610e9b816020860160208601610e5f565b601f01601f19169290920160200192915050565b60208152600061067a6020830184610e83565b600060208284031215610ed457600080fd5b5035919050565b80356001600160a01b0381168114610ef257600080fd5b919050565b60008060408385031215610f0a57600080fd5b610f1383610edb565b946020939093013593505050565b600080600060608486031215610f3657600080fd5b610f3f84610edb565b9250610f4d60208501610edb565b9150604084013590509250925092565b600060208284031215610f6f57600080fd5b61067a82610edb565b60008060408385031215610f8b57600080fd5b610f9483610edb565b915060208301358015158114610fa957600080fd5b809150509250929050565b634e487b7160e01b600052604160045260246000fd5b60008060008060808587031215610fe057600080fd5b610fe985610edb565b9350610ff760208601610edb565b925060408501359150606085013567ffffffffffffffff8082111561101b57600080fd5b818701915087601f83011261102f57600080fd5b81358181111561104157611041610fb4565b604051601f8201601f19908116603f0116810190838211818310171561106957611069610fb4565b816040528281528a602084870101111561108257600080fd5b82602086016020830137600060208483010152809550505050505092959194509250565b600080604083850312156110b957600080fd5b6110c283610edb565b91506110d060208401610edb565b90509250929050565b600181811c908216806110ed57607f821691505b60208210810361110d57634e487b7160e01b600052602260045260246000fd5b50919050565b6020808252602d908201527f4552433732313a2063616c6c6572206973206e6f7420746f6b656e206f776e6560408201526c1c881bdc88185c1c1c9bdd9959609a1b606082015260800190565b60008351611172818460208801610e5f565b835190830190611186818360208801610e5f565b01949350505050565b60208082526025908201527f4552433732313a207472616e736665722066726f6d20696e636f72726563742060408201526437bbb732b960d91b606082015260800190565b60208082526032908201527f4552433732313a207472616e7366657220746f206e6f6e20455243373231526560408201527131b2b4bb32b91034b6b83632b6b2b73a32b960711b606082015260800190565b6001600160a01b038581168252841660208201526040810183905260806060820181905260009061125990830184610e83565b9695505050505050565b60006020828403121561127557600080fd5b815161067a81610e2c56fea2646970667358221220c4dd71cc65f3c11d4e92ec3c1a87ff24b27879e6a67266a7c5b022c106e3c6cf64736f6c63430008110033",
    "linkReferences": {}
  },
  "methodIdentifiers": {
    "addressOfNFTName(string)": "fd72aa30",
    "claimUnclaimedState((bytes32,address,address,bytes,uint256),address)": "e05df3ee",
    "core()": "f2f4eb26",
    "execute(uint8,bytes[],address,bool,address,bytes32)": "e93977e8",
    "onERC721Received(address,address,uint256,bytes)": "150b7a02",
    "registerUnclaimedState((bytes32,address,address,bytes,uint256),bool)": "534e4af7",
    "templates(uint256,uint256)": "d07e0189",
    "voidUnclaimedState((bytes32,address,address,bytes,uint256))": "eba8f5b4"
  },
  "id": 139
}