{
  "abi": [
    {
      "inputs": [
        {
          "internalType": "address",
          "name": "_relayerHandler",
          "type": "address"
        },
        {
          "internalType": "address",
          "name": "_defaultDkimRegistry",
          "type": "address"
        },
        {
          "internalType": "address",
          "name": "_verifier",
          "type": "address"
        },
        {
          "internalType": "address",
          "name": "_walletImplementation",
          "type": "address"
        },
        {
          "internalType": "uint256",
          "name": "_emailValidityDuration",
          "type": "uint256"
        }
      ],
      "stateMutability": "nonpayable",
      "type": "constructor"
    },
    {
      "anonymous": false,
      "inputs": [
        {
          "indexed": true,
          "internalType": "address",
          "name": "previousOwner",
          "type": "address"
        },
        {
          "indexed": true,
          "internalType": "address",
          "name": "newOwner",
          "type": "address"
        }
      ],
      "name": "OwnershipTransferred",
      "type": "event"
    },
    {
      "inputs": [
        {
          "internalType": "bytes32",
          "name": "",
          "type": "bytes32"
        }
      ],
      "name": "accountKeyCommitOfPointer",
      "outputs": [
        {
          "internalType": "bytes32",
          "name": "",
          "type": "bytes32"
        }
      ],
      "stateMutability": "view",
      "type": "function"
    },
    {
      "inputs": [
        {
          "internalType": "bytes32",
          "name": "emailAddrPointer",
          "type": "bytes32"
        },
        {
          "internalType": "bytes32",
          "name": "accountKeyCommit",
          "type": "bytes32"
        },
        {
          "internalType": "bytes32",
          "name": "walletSalt",
          "type": "bytes32"
        },
        {
          "internalType": "bytes",
          "name": "psiPoint",
          "type": "bytes"
        },
        {
          "internalType": "bytes",
          "name": "proof",
          "type": "bytes"
        }
      ],
      "name": "createAccount",
      "outputs": [
        {
          "internalType": "contract Wallet",
          "name": "wallet",
          "type": "address"
        }
      ],
      "stateMutability": "nonpayable",
      "type": "function"
    },
    {
      "inputs": [],
      "name": "defaultDkimRegistry",
      "outputs": [
        {
          "internalType": "contract IDKIMRegistry",
          "name": "",
          "type": "address"
        }
      ],
      "stateMutability": "view",
      "type": "function"
    },
    {
      "inputs": [
        {
          "internalType": "bytes32",
          "name": "",
          "type": "bytes32"
        }
      ],
      "name": "dkimRegistryOfWalletSalt",
      "outputs": [
        {
          "internalType": "address",
          "name": "",
          "type": "address"
        }
      ],
      "stateMutability": "view",
      "type": "function"
    },
    {
      "inputs": [
        {
          "internalType": "bytes32",
          "name": "",
          "type": "bytes32"
        }
      ],
      "name": "emailNullifiers",
      "outputs": [
        {
          "internalType": "bool",
          "name": "",
          "type": "bool"
        }
      ],
      "stateMutability": "view",
      "type": "function"
    },
    {
      "inputs": [],
      "name": "emailValidityDuration",
      "outputs": [
        {
          "internalType": "uint256",
          "name": "",
          "type": "uint256"
        }
      ],
      "stateMutability": "view",
      "type": "function"
    },
    {
      "inputs": [
        {
          "internalType": "bytes32",
          "name": "walletSalt",
          "type": "bytes32"
        },
        {
          "internalType": "string",
          "name": "emailDomain",
          "type": "string"
        }
      ],
      "name": "getDKIMPublicKeyHash",
      "outputs": [
        {
          "internalType": "bytes32",
          "name": "",
          "type": "bytes32"
        }
      ],
      "stateMutability": "view",
      "type": "function"
    },
    {
      "inputs": [
        {
          "internalType": "bytes32",
          "name": "accountKeyCommit",
          "type": "bytes32"
        }
      ],
      "name": "getInfoOfAccountKeyCommit",
      "outputs": [
        {
          "components": [
            {
              "internalType": "address",
              "name": "relayer",
              "type": "address"
            },
            {
              "internalType": "bool",
              "name": "initialized",
              "type": "bool"
            },
            {
              "internalType": "bytes32",
              "name": "walletSalt",
              "type": "bytes32"
            }
          ],
          "internalType": "struct AccountKeyInfo",
          "name": "",
          "type": "tuple"
        }
      ],
      "stateMutability": "view",
      "type": "function"
    },
    {
      "inputs": [
        {
          "internalType": "bytes32",
          "name": "emailAddrPointer",
          "type": "bytes32"
        }
      ],
      "name": "getWalletOfEmailAddrPointer",
      "outputs": [
        {
          "internalType": "address",
          "name": "",
          "type": "address"
        }
      ],
      "stateMutability": "view",
      "type": "function"
    },
    {
      "inputs": [
        {
          "internalType": "bytes32",
          "name": "salt",
          "type": "bytes32"
        }
      ],
      "name": "getWalletOfSalt",
      "outputs": [
        {
          "internalType": "address",
          "name": "",
          "type": "address"
        }
      ],
      "stateMutability": "view",
      "type": "function"
    },
    {
      "inputs": [
        {
          "internalType": "bytes32",
          "name": "",
          "type": "bytes32"
        }
      ],
      "name": "infoOfAccountKeyCommit",
      "outputs": [
        {
          "internalType": "address",
          "name": "relayer",
          "type": "address"
        },
        {
          "internalType": "bool",
          "name": "initialized",
          "type": "bool"
        },
        {
          "internalType": "bytes32",
          "name": "walletSalt",
          "type": "bytes32"
        }
      ],
      "stateMutability": "view",
      "type": "function"
    },
    {
      "inputs": [
        {
          "internalType": "bytes32",
          "name": "emailAddrPointer",
          "type": "bytes32"
        },
        {
          "internalType": "string",
          "name": "emailDomain",
          "type": "string"
        },
        {
          "internalType": "uint256",
          "name": "emailTimestamp",
          "type": "uint256"
        },
        {
          "internalType": "bytes32",
          "name": "emailNullifier",
          "type": "bytes32"
        },
        {
          "internalType": "bytes",
          "name": "proof",
          "type": "bytes"
        }
      ],
      "name": "initializeAccount",
      "outputs": [],
      "stateMutability": "nonpayable",
      "type": "function"
    },
    {
      "inputs": [],
      "name": "owner",
      "outputs": [
        {
          "internalType": "address",
          "name": "",
          "type": "address"
        }
      ],
      "stateMutability": "view",
      "type": "function"
    },
    {
      "inputs": [
        {
          "internalType": "bytes",
          "name": "",
          "type": "bytes"
        }
      ],
      "name": "pointerOfPSIPoint",
      "outputs": [
        {
          "internalType": "bytes32",
          "name": "",
          "type": "bytes32"
        }
      ],
      "stateMutability": "view",
      "type": "function"
    },
    {
      "inputs": [],
      "name": "relayerHandler",
      "outputs": [
        {
          "internalType": "contract RelayerHandler",
          "name": "",
          "type": "address"
        }
      ],
      "stateMutability": "view",
      "type": "function"
    },
    {
      "inputs": [],
      "name": "renounceOwnership",
      "outputs": [],
      "stateMutability": "nonpayable",
      "type": "function"
    },
    {
      "inputs": [
        {
          "internalType": "address",
          "name": "newOwner",
          "type": "address"
        }
      ],
      "name": "transferOwnership",
      "outputs": [],
      "stateMutability": "nonpayable",
      "type": "function"
    },
    {
      "inputs": [
        {
          "internalType": "bytes32",
          "name": "oldAccountKeyCommit",
          "type": "bytes32"
        },
        {
          "internalType": "bytes32",
          "name": "newEmailAddrPointer",
          "type": "bytes32"
        },
        {
          "internalType": "bytes32",
          "name": "newAccountKeyCommit",
          "type": "bytes32"
        },
        {
          "internalType": "bytes",
          "name": "newPSIPoint",
          "type": "bytes"
        },
        {
          "components": [
            {
              "internalType": "string",
              "name": "domain",
              "type": "string"
            },
            {
              "internalType": "uint256",
              "name": "timestamp",
              "type": "uint256"
            },
            {
              "internalType": "bytes32",
              "name": "nullifier",
              "type": "bytes32"
            },
            {
              "internalType": "bytes",
              "name": "proof",
              "type": "bytes"
            }
          ],
          "internalType": "struct EmailProof",
          "name": "transportEmailProof",
          "type": "tuple"
        },
        {
          "internalType": "bytes",
          "name": "accountCreationProof",
          "type": "bytes"
        }
      ],
      "name": "transportAccount",
      "outputs": [],
      "stateMutability": "nonpayable",
      "type": "function"
    },
    {
      "inputs": [
        {
          "internalType": "bytes32",
          "name": "walletSalt",
          "type": "bytes32"
        },
        {
          "internalType": "address",
          "name": "dkimRegistry",
          "type": "address"
        }
      ],
      "name": "updateDKIMRegistryOfWalletSalt",
      "outputs": [],
      "stateMutability": "nonpayable",
      "type": "function"
    },
    {
      "inputs": [],
      "name": "verifier",
      "outputs": [
        {
          "internalType": "contract IVerifier",
          "name": "",
          "type": "address"
        }
      ],
      "stateMutability": "view",
      "type": "function"
    },
    {
      "inputs": [],
      "name": "walletImplementation",
      "outputs": [
        {
          "internalType": "address",
          "name": "",
          "type": "address"
        }
      ],
      "stateMutability": "view",
      "type": "function"
    }
  ],
  "bytecode": {
    "object": "0x6101206040523480156200001257600080fd5b5060405162002b3338038062002b338339810160408190526200003591620000d4565b620000403362000067565b610100526001600160a01b03928316608052821660a05291811660c0521660e0526200013b565b600080546001600160a01b038381166001600160a01b0319831681178455604051919092169283917f8be0079c531659141344cd1fd0a4f28419497f9722a3daafe3b4186f6b6457e09190a35050565b80516001600160a01b0381168114620000cf57600080fd5b919050565b600080600080600060a08688031215620000ed57600080fd5b620000f886620000b7565b94506200010860208701620000b7565b93506200011860408701620000b7565b92506200012860608701620000b7565b9150608086015190509295509295909350565b60805160a05160c05160e05161010051612943620001f0600039600081816103ab015281816107cb01526110f801526000818161018f0152818161081301528181610c1b0152818161127901526113fa0152600081816101e7015281816105e401528181610a0a01528181610c4a01528181610f2f015281816112a80152818161146301526114f90152600081816102e201528181610556015261187701526000818161045c0152610e5201526129436000f3fe60806040523480156200001157600080fd5b50600436106200011e5760003560e01c806301262dd2146200012357806317ace6b514620001525780632b7ac3f3146200018957806340d2004114620001b15780635664c78e14620001ca5780635e5f261014620001e15780636366a90114620002095780636b0f047d14620002205780636dd50f8b14620002bb578063715018a614620002d25780638117abc114620002dc5780638da5cb5b1462000304578063a6b4871c146200030e578063a92014dd1462000334578063a99b6ac61462000362578063b37a7520146200038e578063b90d36f914620003a5578063ba591a3614620003cd578063bf68c30614620003f0578063d343d5ca1462000456578063f2fde38b146200047e575b600080fd5b6200013a62000134366004620019cc565b62000495565b604051620001499190620019e6565b60405180910390f35b6200017862000163366004620019cc565b60056020526000908152604090205460ff1681565b604051901515815260200162000149565b6200013a7f000000000000000000000000000000000000000000000000000000000000000081565b620001c8620001c236600462001a17565b620004c3565b005b6200013a620001db366004620019cc565b620004fb565b6200013a7f000000000000000000000000000000000000000000000000000000000000000081565b620001c86200021a36600462001a91565b620005bb565b6200028d62000231366004620019cc565b60408051606080820183526000808352602080840182905292840181905293845260038252928290208251938401835280546001600160a01b0381168552600160a01b900460ff16151591840191909152600101549082015290565b6040805182516001600160a01b03168152602080840151151590820152918101519082015260600162000149565b6200013a620002cc36600462001b24565b620009ee565b620001c862000e1a565b6200013a7f000000000000000000000000000000000000000000000000000000000000000081565b6200013a62000e32565b620003256200031f36600462001c6a565b62000e41565b60405190815260200162000149565b620003256200034536600462001cb4565b805160208183018101805160028252928201919093012091525481565b6200013a62000373366004620019cc565b6004602052600090815260409020546001600160a01b031681565b620001c86200039f36600462001cec565b62000f15565b620003257f000000000000000000000000000000000000000000000000000000000000000081565b62000325620003de366004620019cc565b60016020526000908152604090205481565b6200043062000401366004620019cc565b600360205260009081526040902080546001909101546001600160a01b03821691600160a01b900460ff169083565b604080516001600160a01b03909416845291151560208401529082015260600162000149565b6200013a7f000000000000000000000000000000000000000000000000000000000000000081565b620001c86200048f36600462001e06565b6200174e565b6000818152600160208181526040808420548452600390915282200154620004bd90620004fb565b92915050565b620004cd620017cd565b60009182526004602052604090912080546001600160a01b0319166001600160a01b03909216919091179055565b6000620004bd82604051806020016200051490620019be565b601f19828203810183526004601f90920116908152602481016040908152602082810180516001600160e01b031663204a7f0760e21b17905290516200057f927f00000000000000000000000000000000000000000000000000000000000000009290910162001e78565b60408051601f19818403018152908290526200059f929160200162001e9e565b6040516020818303038152906040528051906020012062001830565b600087815260016020526040808220549051630fd5856960e21b81529091906001600160a01b037f00000000000000000000000000000000000000000000000000000000000000001690633f5615a4906200061b903390600401620019e6565b602060405180830381865afa15801562000639573d6000803e3d6000fd5b505050506040513d601f19601f820116820180604052508101906200065f919062001ed1565b9050806200068a5760405162461bcd60e51b8152600401620006819062001eeb565b60405180910390fd5b81620006d25760405162461bcd60e51b81526020600482015260166024820152751858d8dbdd5b9d081b9bdd081c9959da5cdd195c995960521b604482015260640162000681565b6000828152600360205260409020546001600160a01b031633146200072c5760405162461bcd60e51b815260206004820152600f60248201526e34b73b30b634b2103932b630bcb2b960891b604482015260640162000681565b600082815260036020526040902054600160a01b900460ff1615620007925760405162461bcd60e51b815260206004820152601b60248201527a1858d8dbdd5b9d08185b1c9958591e481a5b9a5d1a585b1a5e9959602a1b604482015260640162000681565b60008581526005602052604090205460ff1615620007c45760405162461bcd60e51b8152600401620006819062001f1b565b42620007f17f00000000000000000000000000000000000000000000000000000000000000008862001f44565b11620008115760405162461bcd60e51b8152600401620006819062001f66565b7f00000000000000000000000000000000000000000000000000000000000000006001600160a01b031663ce2e9f0e89896200089a60036000888152602001908152602001600020600101548d8d8080601f01602080910402602001604051908101604052809392919081815260200183838082843760009201919091525062000e4192505050565b8a868f898d8d8d6040518b63ffffffff1660e01b8152600401620008c89a9998979695949392919062001fb6565b602060405180830381865afa158015620008e6573d6000803e3d6000fd5b505050506040513d601f19601f820116820180604052508101906200090c919062002019565b620009665760405162461bcd60e51b8152602060048201526024808201527f696e76616c6964206163636f756e7420696e697469616c697a6174696f6e20706044820152633937b7b360e11b606482015260840162000681565b6000828152600360208181526040808420805460ff60a01b1916600160a01b17815589855260058352818520805460ff1916600190811790915594879052928252929091015482518c8152918201859052917f1aba97024e57055419dd4e11361f9e76f2bcecf0e4d9a51de1c0e9df6641d8cf910160405180910390a2505050505050505050565b604051630fd5856960e21b815260009081906001600160a01b037f00000000000000000000000000000000000000000000000000000000000000001690633f5615a49062000a41903390600401620019e6565b602060405180830381865afa15801562000a5f573d6000803e3d6000fd5b505050506040513d601f19601f8201168201806040525081019062000a85919062001ed1565b0362000aa55760405162461bcd60e51b8152600401620006819062001eeb565b6000888152600160205260409020541562000af45760405162461bcd60e51b815260206004820152600e60248201526d706f696e7465722065786973747360901b604482015260640162000681565b6000801b6002868660405162000b0c9291906200203d565b9081526020016040518091039020541462000b5d5760405162461bcd60e51b815260206004820152601060248201526f50534920706f696e742065786973747360801b604482015260640162000681565b6000878152600360205260409020600101541562000bb25760405162461bcd60e51b815260206004820152601160248201527077616c6c657453616c742065786973747360781b604482015260640162000681565b62000bd062000bc187620004fb565b6001600160a01b03163b151590565b1562000c195760405162461bcd60e51b81526020600482015260176024820152761dd85b1b195d08185b1c9958591e4819195c1b1bde5959604a1b604482015260640162000681565b7f00000000000000000000000000000000000000000000000000000000000000006001600160a01b03166316999ab57f00000000000000000000000000000000000000000000000000000000000000006001600160a01b0316633f5615a4336040518263ffffffff1660e01b815260040162000c969190620019e6565b602060405180830381865afa15801562000cb4573d6000803e3d6000fd5b505050506040513d601f19601f8201168201806040525081019062000cda919062001ed1565b8a8a8a8a8a8a8a6040518963ffffffff1660e01b815260040162000d069897969594939291906200204d565b602060405180830381865afa15801562000d24573d6000803e3d6000fd5b505050506040513d601f19601f8201168201806040525081019062000d4a919062002019565b62000d695760405162461bcd60e51b815260040162000681906200209f565b60008881526001602081815260408084208b90558a845260039091529182902080546001600160a01b031916331781550187905551889060029062000db290889088906200203d565b9081526040519081900360200190205562000dcd8662001846565b9050857fa67edfb1574973cc13ebf7c178328ec2097c4c164d9595c006e65c0ff02fba668989888860405162000e079493929190620020d6565b60405180910390a2979650505050505050565b62000e24620017cd565b62000e30600062001944565b565b6000546001600160a01b031690565b6000828152600460205260408120547f0000000000000000000000000000000000000000000000000000000000000000906001600160a01b03161562000e9b57506000838152600460205260409020546001600160a01b03165b60405163cd61acb560e01b81526001600160a01b0382169063cd61acb59062000ec990869060040162002102565b602060405180830381865afa15801562000ee7573d6000803e3d6000fd5b505050506040513d601f19601f8201168201806040525081019062000f0d919062001ed1565b949350505050565b604051630fd5856960e21b81526000906001600160a01b037f00000000000000000000000000000000000000000000000000000000000000001690633f5615a49062000f66903390600401620019e6565b602060405180830381865afa15801562000f84573d6000803e3d6000fd5b505050506040513d601f19601f8201168201806040525081019062000faa919062001ed1565b0362000fca5760405162461bcd60e51b8152600401620006819062001eeb565b6000868152600360205260409020546001600160a01b03166200102d5760405162461bcd60e51b815260206004820152601a6024820152791bdb19081c995b185e595c881b9bdd081c9959da5cdd195c995960321b604482015260640162000681565b600086815260036020526040902054336001600160a01b0390911603620010945760405162461bcd60e51b815260206004820152601a6024820152796e65772072656c617965722063616e6e6f742062652073616d6560301b604482015260640162000681565b600086815260036020526040902054600160a01b900460ff16620010f55760405162461bcd60e51b81526020600482015260176024820152761858d8dbdd5b9d081b9bdd081a5b9a5d1a585b1a5e9959604a1b604482015260640162000681565b427f0000000000000000000000000000000000000000000000000000000000000000836020015162001128919062001f44565b11620011485760405162461bcd60e51b8152600401620006819062001f66565b60408083015160009081526005602052205460ff16156200117d5760405162461bcd60e51b8152600401620006819062001f1b565b6000858152600160205260409020546200127757600084815260036020526040902054600160a01b900460ff1615620012045760405162461bcd60e51b815260206004820152602260248201527f6e6577206163636f756e7420697320616c726561647920696e697469616c697a604482015261195960f21b606482015260840162000681565b6000801b6002846040516200121a919062002117565b90815260200160405180910390205414620012775760405162461bcd60e51b815260206004820152601c60248201527b6e65772050534920706f696e7420616c72656164792065786973747360201b604482015260640162000681565b7f00000000000000000000000000000000000000000000000000000000000000006001600160a01b03166316999ab57f00000000000000000000000000000000000000000000000000000000000000006001600160a01b0316633f5615a4336040518263ffffffff1660e01b8152600401620012f49190620019e6565b602060405180830381865afa15801562001312573d6000803e3d6000fd5b505050506040513d601f19601f8201168201806040525081019062001338919062001ed1565b600089815260036020526040908190206001015490516001600160e01b031960e085901b1681526200137792918a918a91908a90899060040162002135565b602060405180830381865afa15801562001395573d6000803e3d6000fd5b505050506040513d601f19601f82011682018060405250810190620013bb919062002019565b620013da5760405162461bcd60e51b815260040162000681906200209f565b815160008781526003602052604090206001015483516001600160a01b037f000000000000000000000000000000000000000000000000000000000000000016926387fac4ba9290916200142f919062000e41565b60208087015160408089015160008e8152600390945292819020549051630fd5856960e21b81529192916001600160a01b037f0000000000000000000000000000000000000000000000000000000000000000811692633f5615a4926200149e929190911690600401620019e6565b602060405180830381865afa158015620014bc573d6000803e3d6000fd5b505050506040513d601f19601f82011682018060405250810190620014e2919062001ed1565b604051630fd5856960e21b81526001600160a01b037f00000000000000000000000000000000000000000000000000000000000000001690633f5615a49062001530903390600401620019e6565b602060405180830381865afa1580156200154e573d6000803e3d6000fd5b505050506040513d601f19601f8201168201806040525081019062001574919062001ed1565b8d8c8b606001516040518a63ffffffff1660e01b8152600401620015a19998979695949392919062002183565b602060405180830381865afa158015620015bf573d6000803e3d6000fd5b505050506040513d601f19601f82011682018060405250810190620015e5919062002019565b620016335760405162461bcd60e51b815260206004820152601f60248201527f696e76616c6964206163636f756e74207472616e73706f72742070726f6f6600604482015260640162000681565b604080830151600090815260056020908152828220805460ff1916600190811790915588835290522054156200168f5760008581526001602081815260408084205484526003909152822080546001600160a81b031916815501555b60008581526001602052604090819020859055518590600290620016b590869062002117565b908152604080516020928190038301812093909355600089815260038352818120600190810180548a8452848420928301558154600160a01b6001600160a81b03199091163360ff60a01b191617179091558a82525588835290820187905281018590527f50b44caaee132d532cde08043c4612d78ee1dc857db15299556966f13796446e9060600160405180910390a1505050505050565b62001758620017cd565b6001600160a01b038116620017bf5760405162461bcd60e51b815260206004820152602660248201527f4f776e61626c653a206e6577206f776e657220697320746865207a65726f206160448201526564647265737360d01b606482015260840162000681565b620017ca8162001944565b50565b33620017d862000e32565b6001600160a01b03161462000e305760405162461bcd60e51b815260206004820181905260248201527f4f776e61626c653a2063616c6c6572206973206e6f7420746865206f776e6572604482015260640162000681565b60006200183f83833062001994565b9392505050565b60408051600481526024810182526020810180516001600160e01b031663204a7f0760e21b179052905160009183917f00000000000000000000000000000000000000000000000000000000000000009190620018a390620019be565b620018b092919062001e78565b8190604051809103906000f5905080158015620018d1573d6000803e3d6000fd5b509050806001600160a01b031663f2fde38b620018ed62000e32565b6040518263ffffffff1660e01b81526004016200190b9190620019e6565b600060405180830381600087803b1580156200192657600080fd5b505af11580156200193b573d6000803e3d6000fd5b50505050919050565b600080546001600160a01b038381166001600160a01b0319831681178455604051919092169283917f8be0079c531659141344cd1fd0a4f28419497f9722a3daafe3b4186f6b6457e09190a35050565b6000604051836040820152846020820152828152600b8101905060ff815360559020949350505050565b61072380620021eb83390190565b600060208284031215620019df57600080fd5b5035919050565b6001600160a01b0391909116815260200190565b80356001600160a01b038116811462001a1257600080fd5b919050565b6000806040838503121562001a2b57600080fd5b8235915062001a3d60208401620019fa565b90509250929050565b60008083601f84011262001a5957600080fd5b5081356001600160401b0381111562001a7157600080fd5b60208301915083602082850101111562001a8a57600080fd5b9250929050565b600080600080600080600060a0888a03121562001aad57600080fd5b8735965060208801356001600160401b038082111562001acc57600080fd5b62001ada8b838c0162001a46565b909850965060408a0135955060608a0135945060808a013591508082111562001b0257600080fd5b5062001b118a828b0162001a46565b989b979a50959850939692959293505050565b600080600080600080600060a0888a03121562001b4057600080fd5b87359650602088013595506040880135945060608801356001600160401b038082111562001b6d57600080fd5b62001b7b8b838c0162001a46565b909650945060808a013591508082111562001b0257600080fd5b634e487b7160e01b600052604160045260246000fd5b604051608081016001600160401b038111828210171562001bd05762001bd062001b95565b60405290565b600082601f83011262001be857600080fd5b81356001600160401b038082111562001c055762001c0562001b95565b604051601f8301601f19908116603f0116810190828211818310171562001c305762001c3062001b95565b8160405283815286602085880101111562001c4a57600080fd5b836020870160208301376000602085830101528094505050505092915050565b6000806040838503121562001c7e57600080fd5b8235915060208301356001600160401b0381111562001c9c57600080fd5b62001caa8582860162001bd6565b9150509250929050565b60006020828403121562001cc757600080fd5b81356001600160401b0381111562001cde57600080fd5b62000f0d8482850162001bd6565b60008060008060008060c0878903121562001d0657600080fd5b86359550602087013594506040870135935060608701356001600160401b038082111562001d3357600080fd5b62001d418a838b0162001bd6565b9450608089013591508082111562001d5857600080fd5b908801906080828b03121562001d6d57600080fd5b62001d7762001bab565b82358281111562001d8757600080fd5b62001d958c82860162001bd6565b825250602083013560208201526040830135604082015260608301358281111562001dbf57600080fd5b62001dcd8c82860162001bd6565b606083015250935060a089013591508082111562001dea57600080fd5b5062001df989828a0162001bd6565b9150509295509295509295565b60006020828403121562001e1957600080fd5b6200183f82620019fa565b60005b8381101562001e4157818101518382015260200162001e27565b50506000910152565b6000815180845262001e6481602086016020860162001e24565b601f01601f19169290920160200192915050565b6001600160a01b038316815260406020820181905260009062000f0d9083018462001e4a565b6000835162001eb281846020880162001e24565b83519083019062001ec881836020880162001e24565b01949350505050565b60006020828403121562001ee457600080fd5b5051919050565b6020808252601690820152751c995b185e595c881b9bdd081c9959da5cdd195c995960521b604082015260600190565b6020808252600f908201526e195b585a5b081b9d5b1b1a599a5959608a1b604082015260600190565b80820180821115620004bd57634e487b7160e01b600052601160045260246000fd5b6020808252600d908201526c195b585a5b08195e1c1a5c9959609a1b604082015260600190565b81835281816020850137506000828201602090810191909152601f909101601f19169091010190565b600061010080835262001fcd8184018d8f62001f8d565b90508a60208401528960408401528860608401528760808401528660a08401528560c084015282810360e08401526200200881858762001f8d565b9d9c50505050505050505050505050565b6000602082840312156200202c57600080fd5b815180151581146200183f57600080fd5b8183823760009101908152919050565b88815287602082015286604082015285606082015260c0608082015260006200207b60c08301868862001f8d565b82810360a08401526200209081858762001f8d565b9b9a5050505050505050505050565b6020808252601e908201527f696e76616c6964206163636f756e74206372656174696f6e2070726f6f660000604082015260600190565b848152836020820152606060408201526000620020f860608301848662001f8d565b9695505050505050565b6020815260006200183f602083018462001e4a565b600082516200212b81846020870162001e24565b9190910192915050565b86815285602082015284604082015283606082015260c0608082015260006200216260c083018562001e4a565b82810360a084015262002176818562001e4a565b9998505050505050505050565b6000610120808352620021998184018d62001e4a565b90508a60208401528960408401528860608401528760808401528660a08401528560c08401528460e0840152828103610100840152620021da818562001e4a565b9c9b50505050505050505050505056fe608060405260405161072338038061072383398101604081905261002291610317565b61002e82826000610035565b5050610434565b61003e8361006b565b60008251118061004b5750805b156100665761006483836100ab60201b6100291760201c565b505b505050565b610074816100d7565b6040516001600160a01b038216907fbc7cd75a20ee27fd9adebab32041f755214dbc6bffa90cc0225b39da2e5c2d3b90600090a250565b60606100d083836040518060600160405280602781526020016106fc602791396101a9565b9392505050565b6100ea8161022260201b6100551760201c565b6101515760405162461bcd60e51b815260206004820152602d60248201527f455243313936373a206e657720696d706c656d656e746174696f6e206973206e60448201526c1bdd08184818dbdb9d1c9858dd609a1b60648201526084015b60405180910390fd5b806101887f360894a13ba1a3210667c828492db98dca3e2076cc3735a920a3ca505d382bbc60001b61023160201b6100641760201c565b80546001600160a01b0319166001600160a01b039290921691909117905550565b6060600080856001600160a01b0316856040516101c691906103e5565b600060405180830381855af49150503d8060008114610201576040519150601f19603f3d011682016040523d82523d6000602084013e610206565b606091505b50909250905061021886838387610234565b9695505050505050565b6001600160a01b03163b151590565b90565b606083156102a157825160000361029a5761024e85610222565b61029a5760405162461bcd60e51b815260206004820152601d60248201527f416464726573733a2063616c6c20746f206e6f6e2d636f6e74726163740000006044820152606401610148565b50816102ab565b6102ab83836102b3565b949350505050565b8151156102c35781518083602001fd5b8060405162461bcd60e51b81526004016101489190610401565b634e487b7160e01b600052604160045260246000fd5b60005b8381101561030e5781810151838201526020016102f6565b50506000910152565b6000806040838503121561032a57600080fd5b82516001600160a01b038116811461034157600080fd5b60208401519092506001600160401b038082111561035e57600080fd5b818501915085601f83011261037257600080fd5b815181811115610384576103846102dd565b604051601f8201601f19908116603f011681019083821181831017156103ac576103ac6102dd565b816040528281528860208487010111156103c557600080fd5b6103d68360208301602088016102f3565b80955050505050509250929050565b600082516103f78184602087016102f3565b9190910192915050565b60208152600082518060208401526104208160408501602087016102f3565b601f01601f19169190910160400192915050565b6102b9806104436000396000f3fe60806040523661001357610011610017565b005b6100115b610027610022610067565b61009f565b565b606061004e838360405180606001604052806027815260200161025d602791396100c3565b9392505050565b6001600160a01b03163b151590565b90565b600061009a7f360894a13ba1a3210667c828492db98dca3e2076cc3735a920a3ca505d382bbc546001600160a01b031690565b905090565b3660008037600080366000845af43d6000803e8080156100be573d6000f35b3d6000fd5b6060600080856001600160a01b0316856040516100e0919061020d565b600060405180830381855af49150503d806000811461011b576040519150601f19603f3d011682016040523d82523d6000602084013e610120565b606091505b50915091506101318683838761013b565b9695505050505050565b606083156101ad5782516000036101a65761015585610055565b6101a65760405162461bcd60e51b815260206004820152601d60248201527f416464726573733a2063616c6c20746f206e6f6e2d636f6e747261637400000060448201526064015b60405180910390fd5b50816101b7565b6101b783836101bf565b949350505050565b8151156101cf5781518083602001fd5b8060405162461bcd60e51b815260040161019d9190610229565b60005b838110156102045781810151838201526020016101ec565b50506000910152565b6000825161021f8184602087016101e9565b9190910192915050565b60208152600082518060208401526102488160408501602087016101e9565b601f01601f1916919091016040019291505056fe416464726573733a206c6f772d6c6576656c2064656c65676174652063616c6c206661696c6564a26469706673582212204586e592570b2a2b7c9391e285fa8c8cd977f6dd51278d021b5d870f1d9dae3564736f6c63430008110033416464726573733a206c6f772d6c6576656c2064656c65676174652063616c6c206661696c6564a264697066735822122072f559c4678698d5a6dc9cc41b6ce0cb0a878ea18d43893355615f3d92c37a7664736f6c63430008110033",
    "linkReferences": {}
  },
  "methodIdentifiers": {
    "accountKeyCommitOfPointer(bytes32)": "ba591a36",
    "createAccount(bytes32,bytes32,bytes32,bytes,bytes)": "6dd50f8b",
    "defaultDkimRegistry()": "d343d5ca",
    "dkimRegistryOfWalletSalt(bytes32)": "a99b6ac6",
    "emailNullifiers(bytes32)": "17ace6b5",
    "emailValidityDuration()": "b90d36f9",
    "getDKIMPublicKeyHash(bytes32,string)": "a6b4871c",
    "getInfoOfAccountKeyCommit(bytes32)": "6b0f047d",
    "getWalletOfEmailAddrPointer(bytes32)": "01262dd2",
    "getWalletOfSalt(bytes32)": "5664c78e",
    "infoOfAccountKeyCommit(bytes32)": "bf68c306",
    "initializeAccount(bytes32,string,uint256,bytes32,bytes)": "6366a901",
    "owner()": "8da5cb5b",
    "pointerOfPSIPoint(bytes)": "a92014dd",
    "relayerHandler()": "5e5f2610",
    "renounceOwnership()": "715018a6",
    "transferOwnership(address)": "f2fde38b",
    "transportAccount(bytes32,bytes32,bytes32,bytes,(string,uint256,bytes32,bytes),bytes)": "b37a7520",
    "updateDKIMRegistryOfWalletSalt(bytes32,address)": "40d20041",
    "verifier()": "2b7ac3f3",
    "walletImplementation()": "8117abc1"
  },
  "id": 115
}