{
  "abi": [
    {
      "inputs": [],
      "stateMutability": "nonpayable",
      "type": "constructor"
    },
    {
      "anonymous": false,
      "inputs": [
        {
          "indexed": true,
          "internalType": "address",
          "name": "previousOwner",
          "type": "address"
        },
        {
          "indexed": true,
          "internalType": "address",
          "name": "newOwner",
          "type": "address"
        }
      ],
      "name": "OwnershipTransferred",
      "type": "event"
    },
    {
      "inputs": [
        {
          "internalType": "uint256",
          "name": "",
          "type": "uint256"
        },
        {
          "internalType": "string",
          "name": "",
          "type": "string"
        }
      ],
      "name": "addressOfTokenName",
      "outputs": [
        {
          "internalType": "address",
          "name": "",
          "type": "address"
        }
      ],
      "stateMutability": "view",
      "type": "function"
    },
    {
      "inputs": [
        {
          "internalType": "string",
          "name": "",
          "type": "string"
        }
      ],
      "name": "chainIdOfName",
      "outputs": [
        {
          "internalType": "uint256",
          "name": "",
          "type": "uint256"
        }
      ],
      "stateMutability": "view",
      "type": "function"
    },
    {
      "inputs": [
        {
          "internalType": "string",
          "name": "chainName",
          "type": "string"
        }
      ],
      "name": "getChainIdOfName",
      "outputs": [
        {
          "internalType": "uint256",
          "name": "",
          "type": "uint256"
        }
      ],
      "stateMutability": "view",
      "type": "function"
    },
    {
      "inputs": [
        {
          "internalType": "uint256",
          "name": "chainId",
          "type": "uint256"
        },
        {
          "internalType": "string",
          "name": "tokenName",
          "type": "string"
        }
      ],
      "name": "getTokenAddress",
      "outputs": [
        {
          "internalType": "address",
          "name": "",
          "type": "address"
        }
      ],
      "stateMutability": "view",
      "type": "function"
    },
    {
      "inputs": [
        {
          "internalType": "string",
          "name": "chainName",
          "type": "string"
        },
        {
          "internalType": "string",
          "name": "tokenName",
          "type": "string"
        }
      ],
      "name": "getTokenAddress",
      "outputs": [
        {
          "internalType": "address",
          "name": "",
          "type": "address"
        }
      ],
      "stateMutability": "view",
      "type": "function"
    },
    {
      "inputs": [
        {
          "internalType": "string",
          "name": "tokenName",
          "type": "string"
        }
      ],
      "name": "getTokenAddress",
      "outputs": [
        {
          "internalType": "address",
          "name": "",
          "type": "address"
        }
      ],
      "stateMutability": "view",
      "type": "function"
    },
    {
      "inputs": [
        {
          "internalType": "uint256",
          "name": "chainId",
          "type": "uint256"
        },
        {
          "internalType": "address",
          "name": "addr",
          "type": "address"
        }
      ],
      "name": "getTokenNameOfAddress",
      "outputs": [
        {
          "internalType": "string",
          "name": "",
          "type": "string"
        }
      ],
      "stateMutability": "view",
      "type": "function"
    },
    {
      "inputs": [
        {
          "internalType": "address",
          "name": "addr",
          "type": "address"
        }
      ],
      "name": "getTokenNameOfAddress",
      "outputs": [
        {
          "internalType": "string",
          "name": "",
          "type": "string"
        }
      ],
      "stateMutability": "view",
      "type": "function"
    },
    {
      "inputs": [],
      "name": "owner",
      "outputs": [
        {
          "internalType": "address",
          "name": "",
          "type": "address"
        }
      ],
      "stateMutability": "view",
      "type": "function"
    },
    {
      "inputs": [],
      "name": "renounceOwnership",
      "outputs": [],
      "stateMutability": "nonpayable",
      "type": "function"
    },
    {
      "inputs": [
        {
          "internalType": "string",
          "name": "chainName",
          "type": "string"
        },
        {
          "internalType": "uint256",
          "name": "chainId",
          "type": "uint256"
        }
      ],
      "name": "setChainId",
      "outputs": [],
      "stateMutability": "nonpayable",
      "type": "function"
    },
    {
      "inputs": [
        {
          "internalType": "string",
          "name": "tokenName",
          "type": "string"
        },
        {
          "internalType": "address",
          "name": "addr",
          "type": "address"
        }
      ],
      "name": "setTokenAddress",
      "outputs": [],
      "stateMutability": "nonpayable",
      "type": "function"
    },
    {
      "inputs": [
        {
          "internalType": "uint256",
          "name": "chainId",
          "type": "uint256"
        },
        {
          "internalType": "string",
          "name": "tokenName",
          "type": "string"
        },
        {
          "internalType": "address",
          "name": "addr",
          "type": "address"
        }
      ],
      "name": "setTokenAddress",
      "outputs": [],
      "stateMutability": "nonpayable",
      "type": "function"
    },
    {
      "inputs": [
        {
          "internalType": "uint256",
          "name": "",
          "type": "uint256"
        },
        {
          "internalType": "address",
          "name": "",
          "type": "address"
        }
      ],
      "name": "tokenNameOfAddress",
      "outputs": [
        {
          "internalType": "string",
          "name": "",
          "type": "string"
        }
      ],
      "stateMutability": "view",
      "type": "function"
    },
    {
      "inputs": [
        {
          "internalType": "address",
          "name": "newOwner",
          "type": "address"
        }
      ],
      "name": "transferOwnership",
      "outputs": [],
      "stateMutability": "nonpayable",
      "type": "function"
    }
  ],
  "bytecode": {
    "object": "0x608060405234801561001057600080fd5b5061001a336100a2565b6000600360405161003890661b585a5b9b995d60ca1b815260070190565b90815260405190819003602001812091909155676f7074696d69736d60c01b8152600a906003906008019081526040519081900360200181209190915567617262697472756d60c01b815261a4b190600390600801908152604051908190036020019020556100f2565b600080546001600160a01b038381166001600160a01b0319831681178455604051919092169283917f8be0079c531659141344cd1fd0a4f28419497f9722a3daafe3b4186f6b6457e09190a35050565b6110c5806101016000396000f3fe608060405234801561001057600080fd5b50600436106100c55760003560e01c806317456e56146100ca5780631bd5130f146100df5780632515d6601461011d578063304cd0401461013d57806367cbcb32146101505780636979e27b146101ad578063715018a6146101c05780638c7af080146101c85780638da5cb5b146101db578063a2a7862e146101e3578063b399de4e146101f6578063c35b754714610209578063c40912361461021c578063e5be9dec1461022f578063f2fde38b14610242575b600080fd5b6100dd6100d8366004610cd4565b610255565b005b61010a6100ed366004610d21565b805160208183018101805160038252928201919093012091525481565b6040519081526020015b60405180910390f35b61013061012b366004610d5d565b61026c565b6040516101149190610da4565b61010a61014b366004610d21565b61043d565b61019561015e366004610dd7565b600160209081526000928352604090922081518083018401805192815290840192909301919091209152546001600160a01b031681565b6040516001600160a01b039091168152602001610114565b6100dd6101bb366004610e1d565b610465565b6100dd6105b7565b6101956101d6366004610dd7565b6105cb565b610195610806565b6101306101f1366004610d5d565b610815565b610130610204366004610e61565b6108ba565b610195610217366004610e7c565b6108c6565b61019561022a366004610d21565b61095a565b6100dd61023d366004610ed5565b610966565b6100dd610250366004610e61565b610ad8565b61025d610b51565b610268468383610966565b5050565b606061029483604051806040016040528060048152602001630ae8aa8960e31b8152506105cb565b6001600160a01b0316826001600160a01b0316036102cd57506040805180820190915260048152630ae8aa8960e31b6020820152610437565b6102f2836040518060400160405280600381526020016244414960e81b8152506105cb565b6001600160a01b0316826001600160a01b03160361032a575060408051808201909152600381526244414960e81b6020820152610437565b61035083604051806040016040528060048152602001635553444360e01b8152506105cb565b6001600160a01b0316826001600160a01b03160361038957506040805180820190915260048152635553444360e01b6020820152610437565b60008381526002602090815260408083206001600160a01b0386168452909152902080546103b690610f2b565b80601f01602080910402602001604051908101604052809291908181526020018280546103e290610f2b565b801561042f5780601f106104045761010080835404028352916020019161042f565b820191906000526020600020905b81548152906001019060200180831161041257829003601f168201915b505050505090505b92915050565b600060038260405161044f9190610f65565b9081526020016040518091039020549050919050565b61046d610b51565b806000036104b95760405162461bcd60e51b81526020600482015260146024820152730636861696e2069642063616e6e6f7420626520360641b60448201526064015b60405180910390fd5b6104e282604051806040016040528060078152602001661b585a5b9b995d60ca1b815250610bb0565b1561052d5760405162461bcd60e51b815260206004820152601b60248201527a18d85b9b9bdd081cd95d081b585a5b9b995d0818da185a5b881a59602a1b60448201526064016104b0565b60038260405161053d9190610f65565b9081526020016040518091039020546000146105925760405162461bcd60e51b815260206004820152601460248201527318da185a5b881a5908185b1c9958591e481cd95d60621b60448201526064016104b0565b806003836040516105a39190610f65565b908152604051908190036020019020555050565b6105bf610b51565b6105c96000610bc6565b565b60006105f2826040518060400160405280600381526020016208aa8960eb1b815250610bb0565b1561061757604051806040016040528060048152602001630ae8aa8960e31b81525091505b61063d82604051806040016040528060048152602001630ae8aa8960e31b815250610bb0565b1561069f5782600003610665575073c02aaa39b223fe8d0a0e5c4f27ead9083c756cc2610437565b82600a0361067b57506006602160991b01610437565b8261a4b10361069f57507382af49447d8a07e3bd95bd0d56f35241523fbab1610437565b6106c4826040518060400160405280600381526020016244414960e81b815250610bb0565b1561073357826000036106ec5750736b175474e89094c44da98b954eedeac495271d0f610437565b82600a0361070f575073da10009cbd5d07dd0cecc66161fc93d7c9000da1610437565b8261a4b103610733575073da10009cbd5d07dd0cecc66161fc93d7c9000da1610437565b61075982604051806040016040528060048152602001635553444360e01b815250610bb0565b156107c85782600003610781575073a0b86991c6218b36c1d19d4a2e9eb0ce3606eb48610437565b82600a036107a45750737f5c764cbc14f9669b88837ca1490cca17c31607610437565b8261a4b1036107c8575073af88d065e77c8cc2239327c5edb3a432268e5831610437565b6000838152600160205260409081902090516107e5908490610f65565b908152604051908190036020019020546001600160a01b0316905092915050565b6000546001600160a01b031690565b60026020908152600092835260408084209091529082529020805461083990610f2b565b80601f016020809104026020016040519081016040528092919081815260200182805461086590610f2b565b80156108b25780601f10610887576101008083540402835291602001916108b2565b820191906000526020600020905b81548152906001019060200180831161089557829003601f168201915b505050505081565b6060610437468361026c565b60006003836040516108d89190610f65565b90815260200160405180910390205460000361092b5760405162461bcd60e51b8152602060048201526012602482015271756e6b6e6f776e20636861696e206e616d6560701b60448201526064016104b0565b61095360038460405161093e9190610f65565b908152602001604051809103902054836105cb565b9392505050565b600061043746836105cb565b61096e610b51565b600083815260016020526040808220905161098a908590610f65565b908152604051908190036020019020546001600160a01b0316146109eb5760405162461bcd60e51b8152602060048201526018602482015277151bdad95b88185b1c9958591e481c9959da5cdd195c995960421b60448201526064016104b0565b60008381526002602090815260408083206001600160a01b038516845290915290208054610a1890610f2b565b159050610a645760405162461bcd60e51b815260206004820152601a6024820152791059191c995cdcc8185b1c9958591e481c9959da5cdd195c995960321b60448201526064016104b0565b806001600085815260200190815260200160002083604051610a869190610f65565b908152604080516020928190038301902080546001600160a01b0319166001600160a01b039485161790556000868152600283528181209385168152929091529020610ad28382610fd0565b50505050565b610ae0610b51565b6001600160a01b038116610b455760405162461bcd60e51b815260206004820152602660248201527f4f776e61626c653a206e6577206f776e657220697320746865207a65726f206160448201526564647265737360d01b60648201526084016104b0565b610b4e81610bc6565b50565b33610b5a610806565b6001600160a01b0316146105c95760405162461bcd60e51b815260206004820181905260248201527f4f776e61626c653a2063616c6c6572206973206e6f7420746865206f776e657260448201526064016104b0565b8051602091820120825192909101919091201490565b600080546001600160a01b038381166001600160a01b0319831681178455604051919092169283917f8be0079c531659141344cd1fd0a4f28419497f9722a3daafe3b4186f6b6457e09190a35050565b634e487b7160e01b600052604160045260246000fd5b600082601f830112610c3d57600080fd5b81356001600160401b0380821115610c5757610c57610c16565b604051601f8301601f19908116603f01168101908282118183101715610c7f57610c7f610c16565b81604052838152866020858801011115610c9857600080fd5b836020870160208301376000602085830101528094505050505092915050565b80356001600160a01b0381168114610ccf57600080fd5b919050565b60008060408385031215610ce757600080fd5b82356001600160401b03811115610cfd57600080fd5b610d0985828601610c2c565b925050610d1860208401610cb8565b90509250929050565b600060208284031215610d3357600080fd5b81356001600160401b03811115610d4957600080fd5b610d5584828501610c2c565b949350505050565b60008060408385031215610d7057600080fd5b82359150610d1860208401610cb8565b60005b83811015610d9b578181015183820152602001610d83565b50506000910152565b6020815260008251806020840152610dc3816040850160208701610d80565b601f01601f19169190910160400192915050565b60008060408385031215610dea57600080fd5b8235915060208301356001600160401b03811115610e0757600080fd5b610e1385828601610c2c565b9150509250929050565b60008060408385031215610e3057600080fd5b82356001600160401b03811115610e4657600080fd5b610e5285828601610c2c565b95602094909401359450505050565b600060208284031215610e7357600080fd5b61095382610cb8565b60008060408385031215610e8f57600080fd5b82356001600160401b0380821115610ea657600080fd5b610eb286838701610c2c565b93506020850135915080821115610ec857600080fd5b50610e1385828601610c2c565b600080600060608486031215610eea57600080fd5b8335925060208401356001600160401b03811115610f0757600080fd5b610f1386828701610c2c565b925050610f2260408501610cb8565b90509250925092565b600181811c90821680610f3f57607f821691505b602082108103610f5f57634e487b7160e01b600052602260045260246000fd5b50919050565b60008251610f77818460208701610d80565b9190910192915050565b601f821115610fcb57600081815260208120601f850160051c81016020861015610fa85750805b601f850160051c820191505b81811015610fc757828155600101610fb4565b5050505b505050565b81516001600160401b03811115610fe957610fe9610c16565b610ffd81610ff78454610f2b565b84610f81565b602080601f831160018114611032576000841561101a5750858301515b600019600386901b1c1916600185901b178555610fc7565b600085815260208120601f198616915b8281101561106157888601518255948401946001909101908401611042565b508582101561107f5787850151600019600388901b60f8161c191681555b5050505050600190811b0190555056fea264697066735822122093c892e428f41c7af43a25efbf0d5ec01bd849d248b4a0e20e9ad8ac2dec1bd064736f6c63430008110033",
    "linkReferences": {}
  },
  "methodIdentifiers": {
    "addressOfTokenName(uint256,string)": "67cbcb32",
    "chainIdOfName(string)": "1bd5130f",
    "getChainIdOfName(string)": "304cd040",
    "getTokenAddress(string)": "c4091236",
    "getTokenAddress(string,string)": "c35b7547",
    "getTokenAddress(uint256,string)": "8c7af080",
    "getTokenNameOfAddress(address)": "b399de4e",
    "getTokenNameOfAddress(uint256,address)": "2515d660",
    "owner()": "8da5cb5b",
    "renounceOwnership()": "715018a6",
    "setChainId(string,uint256)": "6979e27b",
    "setTokenAddress(string,address)": "17456e56",
    "setTokenAddress(uint256,string,address)": "e5be9dec",
    "tokenNameOfAddress(uint256,address)": "a2a7862e",
    "transferOwnership(address)": "f2fde38b"
  },
  "id": 130
}