{
  "abi": [
    {
      "inputs": [
        {
          "internalType": "address",
          "name": "_relayerHandler",
          "type": "address"
        },
        {
          "internalType": "address",
          "name": "_accountHandler",
          "type": "address"
        },
        {
          "internalType": "address",
          "name": "_verifier",
          "type": "address"
        },
        {
          "internalType": "uint256",
          "name": "_unclaimedFundClaimGas",
          "type": "uint256"
        },
        {
          "internalType": "uint256",
          "name": "_unclaimedStateClaimGas",
          "type": "uint256"
        },
        {
          "internalType": "uint256",
          "name": "_unclaimsExpiryDuration",
          "type": "uint256"
        },
        {
          "internalType": "uint256",
          "name": "_maxFeePerGas",
          "type": "uint256"
        }
      ],
      "stateMutability": "nonpayable",
      "type": "constructor"
    },
    {
      "anonymous": false,
      "inputs": [
        {
          "indexed": true,
          "internalType": "address",
          "name": "previousOwner",
          "type": "address"
        },
        {
          "indexed": true,
          "internalType": "address",
          "name": "newOwner",
          "type": "address"
        }
      ],
      "name": "OwnershipTransferred",
      "type": "event"
    },
    {
      "inputs": [],
      "name": "accountHandler",
      "outputs": [
        {
          "internalType": "contract AccountHandler",
          "name": "",
          "type": "address"
        }
      ],
      "stateMutability": "view",
      "type": "function"
    },
    {
      "inputs": [
        {
          "internalType": "bytes32",
          "name": "emailAddrCommit",
          "type": "bytes32"
        },
        {
          "internalType": "bytes32",
          "name": "recipientEmailAddrPointer",
          "type": "bytes32"
        },
        {
          "internalType": "bytes",
          "name": "proof",
          "type": "bytes"
        }
      ],
      "name": "claimUnclaimedFund",
      "outputs": [],
      "stateMutability": "nonpayable",
      "type": "function"
    },
    {
      "inputs": [
        {
          "internalType": "bytes32",
          "name": "emailAddrCommit",
          "type": "bytes32"
        },
        {
          "internalType": "bytes32",
          "name": "recipientEmailAddrPointer",
          "type": "bytes32"
        },
        {
          "internalType": "bytes",
          "name": "proof",
          "type": "bytes"
        }
      ],
      "name": "claimUnclaimedState",
      "outputs": [
        {
          "internalType": "bool",
          "name": "success",
          "type": "bool"
        },
        {
          "internalType": "bytes",
          "name": "returnData",
          "type": "bytes"
        }
      ],
      "stateMutability": "nonpayable",
      "type": "function"
    },
    {
      "inputs": [
        {
          "internalType": "bytes32",
          "name": "emailAddrCommit",
          "type": "bytes32"
        }
      ],
      "name": "getSenderOfUnclaimedFund",
      "outputs": [
        {
          "internalType": "address",
          "name": "",
          "type": "address"
        }
      ],
      "stateMutability": "view",
      "type": "function"
    },
    {
      "inputs": [
        {
          "internalType": "bytes32",
          "name": "emailAddrCommit",
          "type": "bytes32"
        }
      ],
      "name": "getSenderOfUnclaimedState",
      "outputs": [
        {
          "internalType": "address",
          "name": "",
          "type": "address"
        }
      ],
      "stateMutability": "view",
      "type": "function"
    },
    {
      "inputs": [],
      "name": "maxFeePerGas",
      "outputs": [
        {
          "internalType": "uint256",
          "name": "",
          "type": "uint256"
        }
      ],
      "stateMutability": "view",
      "type": "function"
    },
    {
      "inputs": [],
      "name": "owner",
      "outputs": [
        {
          "internalType": "address",
          "name": "",
          "type": "address"
        }
      ],
      "stateMutability": "view",
      "type": "function"
    },
    {
      "inputs": [
        {
          "internalType": "bytes32",
          "name": "emailAddrCommit",
          "type": "bytes32"
        },
        {
          "internalType": "address",
          "name": "tokenAddr",
          "type": "address"
        },
        {
          "internalType": "uint256",
          "name": "amount",
          "type": "uint256"
        },
        {
          "internalType": "uint256",
          "name": "expiryTime",
          "type": "uint256"
        },
        {
          "internalType": "uint256",
          "name": "announceCommitRandomness",
          "type": "uint256"
        },
        {
          "internalType": "string",
          "name": "announceEmailAddr",
          "type": "string"
        }
      ],
      "name": "registerUnclaimedFund",
      "outputs": [],
      "stateMutability": "payable",
      "type": "function"
    },
    {
      "inputs": [
        {
          "internalType": "address",
          "name": "sender",
          "type": "address"
        },
        {
          "internalType": "bytes32",
          "name": "emailAddrCommit",
          "type": "bytes32"
        },
        {
          "internalType": "address",
          "name": "tokenAddr",
          "type": "address"
        },
        {
          "internalType": "uint256",
          "name": "amount",
          "type": "uint256"
        }
      ],
      "name": "registerUnclaimedFundInternal",
      "outputs": [],
      "stateMutability": "nonpayable",
      "type": "function"
    },
    {
      "inputs": [
        {
          "internalType": "bytes32",
          "name": "emailAddrCommit",
          "type": "bytes32"
        },
        {
          "internalType": "address",
          "name": "extensionAddr",
          "type": "address"
        },
        {
          "internalType": "bytes",
          "name": "state",
          "type": "bytes"
        },
        {
          "internalType": "uint256",
          "name": "expiryTime",
          "type": "uint256"
        },
        {
          "internalType": "uint256",
          "name": "announceCommitRandomness",
          "type": "uint256"
        },
        {
          "internalType": "string",
          "name": "announceEmailAddr",
          "type": "string"
        }
      ],
      "name": "registerUnclaimedState",
      "outputs": [],
      "stateMutability": "payable",
      "type": "function"
    },
    {
      "inputs": [
        {
          "internalType": "address",
          "name": "extensionAddr",
          "type": "address"
        },
        {
          "internalType": "address",
          "name": "sender",
          "type": "address"
        },
        {
          "internalType": "bytes32",
          "name": "recipientEmailAddrCommit",
          "type": "bytes32"
        },
        {
          "internalType": "bytes",
          "name": "state",
          "type": "bytes"
        }
      ],
      "name": "registerUnclaimedStateInternal",
      "outputs": [],
      "stateMutability": "nonpayable",
      "type": "function"
    },
    {
      "inputs": [],
      "name": "relayerHandler",
      "outputs": [
        {
          "internalType": "contract RelayerHandler",
          "name": "",
          "type": "address"
        }
      ],
      "stateMutability": "view",
      "type": "function"
    },
    {
      "inputs": [],
      "name": "renounceOwnership",
      "outputs": [],
      "stateMutability": "nonpayable",
      "type": "function"
    },
    {
      "inputs": [
        {
          "internalType": "address",
          "name": "newOwner",
          "type": "address"
        }
      ],
      "name": "transferOwnership",
      "outputs": [],
      "stateMutability": "nonpayable",
      "type": "function"
    },
    {
      "inputs": [],
      "name": "unclaimedFundClaimGas",
      "outputs": [
        {
          "internalType": "uint256",
          "name": "",
          "type": "uint256"
        }
      ],
      "stateMutability": "view",
      "type": "function"
    },
    {
      "inputs": [
        {
          "internalType": "bytes32",
          "name": "",
          "type": "bytes32"
        }
      ],
      "name": "unclaimedFundOfEmailAddrCommit",
      "outputs": [
        {
          "internalType": "bytes32",
          "name": "emailAddrCommit",
          "type": "bytes32"
        },
        {
          "internalType": "address",
          "name": "sender",
          "type": "address"
        },
        {
          "internalType": "address",
          "name": "tokenAddr",
          "type": "address"
        },
        {
          "internalType": "uint256",
          "name": "amount",
          "type": "uint256"
        },
        {
          "internalType": "uint256",
          "name": "expiryTime",
          "type": "uint256"
        }
      ],
      "stateMutability": "view",
      "type": "function"
    },
    {
      "inputs": [],
      "name": "unclaimedStateClaimGas",
      "outputs": [
        {
          "internalType": "uint256",
          "name": "",
          "type": "uint256"
        }
      ],
      "stateMutability": "view",
      "type": "function"
    },
    {
      "inputs": [
        {
          "internalType": "bytes32",
          "name": "",
          "type": "bytes32"
        }
      ],
      "name": "unclaimedStateOfEmailAddrCommit",
      "outputs": [
        {
          "internalType": "bytes32",
          "name": "emailAddrCommit",
          "type": "bytes32"
        },
        {
          "internalType": "address",
          "name": "extensionAddr",
          "type": "address"
        },
        {
          "internalType": "address",
          "name": "sender",
          "type": "address"
        },
        {
          "internalType": "bytes",
          "name": "state",
          "type": "bytes"
        },
        {
          "internalType": "uint256",
          "name": "expiryTime",
          "type": "uint256"
        }
      ],
      "stateMutability": "view",
      "type": "function"
    },
    {
      "inputs": [],
      "name": "unclaimsExpiryDuration",
      "outputs": [
        {
          "internalType": "uint256",
          "name": "",
          "type": "uint256"
        }
      ],
      "stateMutability": "view",
      "type": "function"
    },
    {
      "inputs": [],
      "name": "verifier",
      "outputs": [
        {
          "internalType": "contract IVerifier",
          "name": "",
          "type": "address"
        }
      ],
      "stateMutability": "view",
      "type": "function"
    },
    {
      "inputs": [
        {
          "internalType": "bytes32",
          "name": "emailAddrCommit",
          "type": "bytes32"
        }
      ],
      "name": "voidUnclaimedFund",
      "outputs": [],
      "stateMutability": "nonpayable",
      "type": "function"
    },
    {
      "inputs": [
        {
          "internalType": "bytes32",
          "name": "emailAddrCommit",
          "type": "bytes32"
        }
      ],
      "name": "voidUnclaimedState",
      "outputs": [
        {
          "internalType": "bool",
          "name": "success",
          "type": "bool"
        },
        {
          "internalType": "bytes",
          "name": "returnData",
          "type": "bytes"
        }
      ],
      "stateMutability": "nonpayable",
      "type": "function"
    },
    {
      "stateMutability": "payable",
      "type": "receive"
    }
  ],
  "bytecode": {
    "object": "0x6101606040523480156200001257600080fd5b5060405162003b0538038062003b058339810160408190526200003591620000ea565b600160005562000045336200007b565b6001600160a01b0396871660c05294861660a0529290941660805260e0526101009290925261012091909152610140526200015b565b600180546001600160a01b038381166001600160a01b0319831681179093556040519116919082907f8be0079c531659141344cd1fd0a4f28419497f9722a3daafe3b4186f6b6457e090600090a35050565b80516001600160a01b0381168114620000e557600080fd5b919050565b600080600080600080600060e0888a0312156200010657600080fd5b6200011188620000cd565b96506200012160208901620000cd565b95506200013160408901620000cd565b9450606088015193506080880151925060a0880151915060c0880151905092959891949750929550565b60805160a05160c05160e05161010051610120516101405161384c620002b96000396000818161023e015281816108770152818161096701528181610a3f0152818161167101528181611900015281816119fb0152818161234501526124b40152600081816104b101528181610a1201528181610d9401528181612487015261285a01526000818161045d015281816107660152818161089c01528181610a600152818161226b015261236601526000818161031c015281816116920152818161192201526124d50152600081816102e801528181610fc4015281816113a901528181611c4a01526120000152600081816102b401528181610f3d015281816110770152818161119201528181611238015281816112e4015281816114ce01528181611ba001528181611cfd01528181611e8f01528181611f3b01526121250152600081816102800152818161137a0152611fd1015261384c6000f3fe6080604052600436106101095760003560e01c806302a54bd51461017c57806306690908146101cb5780630e878b9b146101f95780631bae92f71461020c5780632728bf2c1461022c5780632b7ac3f31461026e57806333ddfb9a146102a25780635e5f2610146102d6578063662217341461030a578063715018a61461033e57806378be121c1461035357806385ff24b31461037357806387148fb5146103fd5780638da5cb5b14610436578063a87fedae1461044b578063c8a7e9e21461047f578063cdbe49f01461049f578063ef97e18b146104d3578063f2fde38b146104f3578063f9df978e14610513578063fc2d007514610526578063fe269cf81461054657600080fd5b3661017757610116610577565b6001600160a01b0316336001600160a01b0316146101755760405162461bcd60e51b81526020600482015260176024820152760dedcd8f240deeedccae440c6c2dc40e6cadcc8408aa89604b1b60448201526064015b60405180910390fd5b005b600080fd5b34801561018857600080fd5b506101b5610197366004612c11565b6000908152600260205260409020600101546001600160a01b031690565b6040516101c29190612c2a565b60405180910390f35b3480156101d757600080fd5b506101eb6101e6366004612c11565b610586565b6040516101c2929190612c8e565b610175610207366004612d0e565b610a05565b34801561021857600080fd5b50610175610227366004612dac565b610d85565b34801561023857600080fd5b506102607f000000000000000000000000000000000000000000000000000000000000000081565b6040519081526020016101c2565b34801561027a57600080fd5b506101b57f000000000000000000000000000000000000000000000000000000000000000081565b3480156102ae57600080fd5b506101b57f000000000000000000000000000000000000000000000000000000000000000081565b3480156102e257600080fd5b506101b57f000000000000000000000000000000000000000000000000000000000000000081565b34801561031657600080fd5b506102607f000000000000000000000000000000000000000000000000000000000000000081565b34801561034a57600080fd5b50610175610eb8565b34801561035f57600080fd5b5061017561036e366004612df4565b610ecc565b34801561037f57600080fd5b506103c961038e366004612c11565b60026020819052600091825260409091208054600182015492820154600383015460049093015491936001600160a01b039081169391169185565b604080519586526001600160a01b03948516602087015292909316918401919091526060830152608082015260a0016101c2565b34801561040957600080fd5b506101b5610418366004612c11565b6000908152600360205260409020600201546001600160a01b031690565b34801561044257600080fd5b506101b5610577565b34801561045757600080fd5b506102607f000000000000000000000000000000000000000000000000000000000000000081565b34801561048b57600080fd5b5061017561049a366004612c11565b611736565b3480156104ab57600080fd5b506102607f000000000000000000000000000000000000000000000000000000000000000081565b3480156104df57600080fd5b506101eb6104ee366004612df4565b611aa2565b3480156104ff57600080fd5b5061017561050e366004612e46565b612404565b610175610521366004612e6a565b61247a565b34801561053257600080fd5b50610175610541366004612ee6565b6127f6565b34801561055257600080fd5b50610566610561366004612c11565b6129f4565b6040516101c2959493929190612f58565b6001546001600160a01b031690565b60006060610592612ab9565b60005a6000858152600360208181526040808420815160a0810183528154815260018201546001600160a01b039081169482019490945260028201549093169183019190915291820180549495509293909260608401916105f290612f9c565b80601f016020809104026020016040519081016040528092919081815260200182805461061e90612f9c565b801561066b5780601f106106405761010080835404028352916020019161066b565b820191906000526020600020905b81548152906001019060200180831161064e57829003601f168201915b50505091835250506004919091015460209091015260408101519091506001600160a01b03166106ad5760405162461bcd60e51b815260040161016c90612fd6565b428160800151106106fe5760405162461bcd60e51b815260206004820152601b60248201527a1d5b98db185a5b5959081cdd185d19481b9bdd08195e1c1a5c9959602a1b604482015260640161016c565b600085815260036020819052604082208281556001810180546001600160a01b03199081169091556002820180549091169055919061073f90830182612bc3565b506000600491909101819055602082015190615208805a6107609087613023565b61078a907f0000000000000000000000000000000000000000000000000000000000000000613023565b6107949190613023565b61079e9190613023565b9050816001600160a01b031663eba8f5b482856040518363ffffffff1660e01b81526004016107cd9190613091565b600060405180830381600088803b1580156107e757600080fd5b5087f1935050505080156107f9575060015b61083a576108056130a4565b806308c379a00361082f5750610819613102565b806108245750610831565b60009650945061083f565b505b6000955061083f565b600195505b60005a61084c9086613023565b6108589061520861318b565b6108649061520861318b565b60408501519091506001600160a01b03167f00000000000000000000000000000000000000000000000000000000000000006108c0837f0000000000000000000000000000000000000000000000000000000000000000613023565b6108ca919061319e565b604051600081818185875af1925050503d8060008114610906576040519150601f19603f3d011682016040523d82523d6000602084013e61090b565b606091505b5050809750508661095e5760405162461bcd60e51b815260206004820181905260248201527f455448207472616e7366657220746f2075732e73656e646572206661696c6564604482015260640161016c565b336108fc61098c7f00000000000000000000000000000000000000000000000000000000000000008461319e565b6040518115909202916000818181858888f193505050501580156109b4573d6000803e3d6000fd5b50877fe4ffc4f86e4b49954e9bec2beba19f20b1f65cc90d9142a81a1dbb62fba52a8385604001516040516109e99190612c2a565b60405180910390a25050505050610a006001600055565b915091565b83600003610a3a57610a377f00000000000000000000000000000000000000000000000000000000000000004261318b565b93505b610a847f00000000000000000000000000000000000000000000000000000000000000007f000000000000000000000000000000000000000000000000000000000000000061319e565b3414610ad05760405162461bcd60e51b815260206004820152601b60248201527a696e76616c696420756e636c61696d65642073746174652066656560281b604482015260640161016c565b84610aed5760405162461bcd60e51b815260040161016c906131b5565b87610b0a5760405162461bcd60e51b815260040161016c906131e4565b428411610b295760405162461bcd60e51b815260040161016c90613215565b6000888152600360205260409020600201546001600160a01b031615610b615760405162461bcd60e51b815260040161016c90613242565b60006040518060a001604052808a8152602001896001600160a01b03168152602001336001600160a01b0316815260200188888080601f0160208091040260200160405190810160405280939291908181526020018383808284376000920182905250938552505050602090910187905260405163534e4af760e01b815291925089916001600160a01b0383169163534e4af791610c03918691600401613272565b600060405180830381600087803b158015610c1d57600080fd5b505af1925050508015610c2e575060015b610cd457610c3a6130a4565b806308c379a003610c905750610c4e613102565b80610c595750610c92565b80604051602001610c6a9190613296565b60408051601f198184030181529082905262461bcd60e51b825261016c916004016132d7565b505b60405162461bcd60e51b81526020600482015260176024820152763ab731b630b4b6b2b21039ba30ba32903932b39032b93960491b604482015260640161016c565b60008a81526003602081815260409283902085518155908501516001820180546001600160a01b03199081166001600160a01b0393841617909155938601516002830180549095169116179092556060840151849291820190610d379082613339565b5060808201518160040155905050896000805160206137d78339815191528a33898c8c8b8b8b604051610d71989796959493929190613421565b60405180910390a250505050505050505050565b610d8d612b12565b6000610db97f00000000000000000000000000000000000000000000000000000000000000004261318b565b6040805160a0810182528681526001600160a01b038089166020808401918252888316848601908152606085018981526080860188815260008d81526002948590528881208851815595516001870180549189166001600160a01b031992831617905593519486018054959097169490931693909317909455925160038301555160049091015591519293509186916000805160206137f783398151915291610ea891889188918c918991906001600160a01b03958616815260208101949094529190931660408301526060820192909252608081019190915260c060a0820181905260009082015260e00190565b60405180910390a2505050505050565b610ec0612b12565b610eca6000612b71565b565b610ed4612ab9565b6000848152600260208181526040808420815160a0810183528154815260018201546001600160a01b0390811682860152948201548516818401526003820154606082015260049182015460808201528251635d2c8d1b60e11b815291820189905291519194937f0000000000000000000000000000000000000000000000000000000000000000169263ba591a36926024808401938290030181865afa158015610f83573d6000803e3d6000fd5b505050506040513d601f19601f82011682018060405250810190610fa7919061347d565b604051630fd5856960e21b81529091506000906001600160a01b037f00000000000000000000000000000000000000000000000000000000000000001690633f5615a490610ff9903390600401612c2a565b602060405180830381865afa158015611016573d6000803e3d6000fd5b505050506040513d601f19601f8201168201806040525081019061103a919061347d565b036110575760405162461bcd60e51b815260040161016c90613496565b604051636b0f047d60e01b81526004810182905233906001600160a01b037f00000000000000000000000000000000000000000000000000000000000000001690636b0f047d90602401606060405180830381865afa1580156110be573d6000803e3d6000fd5b505050506040513d601f19601f820116820180604052508101906110e291906134d7565b516001600160a01b0316146111095760405162461bcd60e51b815260040161016c90613540565b600082606001511161112d5760405162461bcd60e51b815260040161016c90613575565b428260800151116111795760405162461bcd60e51b81526020600482015260166024820152751d5b98db185a5b595908199d5b9908195e1c1a5c995960521b604482015260640161016c565b604051635d2c8d1b60e11b8152600481018690526000907f00000000000000000000000000000000000000000000000000000000000000006001600160a01b03169063ba591a3690602401602060405180830381865afa1580156111e1573d6000803e3d6000fd5b505050506040513d601f19601f82011682018060405250810190611205919061347d565b036112225760405162461bcd60e51b815260040161016c906135ac565b604051636b0f047d60e01b8152600481018290527f00000000000000000000000000000000000000000000000000000000000000006001600160a01b031690636b0f047d90602401606060405180830381865afa158015611287573d6000803e3d6000fd5b505050506040513d601f19601f820116820180604052508101906112ab91906134d7565b602001516112cb5760405162461bcd60e51b815260040161016c906135e1565b604051636b0f047d60e01b8152600481018290526000907f00000000000000000000000000000000000000000000000000000000000000006001600160a01b031690636b0f047d90602401606060405180830381865afa158015611333573d6000803e3d6000fd5b505050506040513d601f19601f8201168201806040525081019061135791906134d7565b60400151036113785760405162461bcd60e51b815260040161016c90613612565b7f00000000000000000000000000000000000000000000000000000000000000006001600160a01b03166380dc37377f00000000000000000000000000000000000000000000000000000000000000006001600160a01b0316633f5615a4336040518263ffffffff1660e01b81526004016113f39190612c2a565b602060405180830381865afa158015611410573d6000803e3d6000fd5b505050506040513d601f19601f82011682018060405250810190611434919061347d565b878988886040518663ffffffff1660e01b815260040161145895949392919061363f565b602060405180830381865afa158015611475573d6000803e3d6000fd5b505050506040513d601f19601f820116820180604052508101906114999190613670565b6114b55760405162461bcd60e51b815260040161016c9061368b565b604051636b0f047d60e01b8152600481018290526000907f00000000000000000000000000000000000000000000000000000000000000006001600160a01b031690635664c78e908290636b0f047d90602401606060405180830381865afa158015611525573d6000803e3d6000fd5b505050506040513d601f19601f8201168201806040525081019061154991906134d7565b604001516040518263ffffffff1660e01b815260040161156b91815260200190565b602060405180830381865afa158015611588573d6000803e3d6000fd5b505050506040513d601f19601f820116820180604052508101906115ac91906136b2565b60008881526002602081905260408083208381556001810180546001600160a01b0319908116909155928101805490931690925560038201839055600491820192909255858201516060870151925163a9059cbb60e01b81529394506001600160a01b03169263a9059cbb92611624928692016136cf565b6020604051808303816000875af1158015611643573d6000803e3d6000fd5b505050506040513d601f19601f820116820180604052508101906116679190613670565b50336108fc6116b67f00000000000000000000000000000000000000000000000000000000000000007f000000000000000000000000000000000000000000000000000000000000000061319e565b6040518115909202916000818181858888f193505050501580156116de573d6000803e3d6000fd5b50867f4d49b0973eca03e310abc3a42010f7f4c8c0bd63eb8d278f34013b939e73a072846040015185606001518460405161171b939291906136e8565b60405180910390a25050506117306001600055565b50505050565b61173e612ab9565b60005a600083815260026020818152604092839020835160a0810185528154815260018201546001600160a01b0390811693820193909352928101549091169282019290925260038201546060820181905260049092015460808201529192506117ba5760405162461bcd60e51b815260040161016c90613575565b4281608001511061180a5760405162461bcd60e51b815260206004820152601a6024820152791d5b98db185a5b595908199d5b99081b9bdd08195e1c1a5c995960321b604482015260640161016c565b60008381526002602081815260408084208481556001810180546001600160a01b031990811690915593810180549094169093556003830184905560049283019390935583830151908401516060850151935163a9059cbb60e01b81526001600160a01b039092169363a9059cbb9361188393016136cf565b6020604051808303816000875af11580156118a2573d6000803e3d6000fd5b505050506040513d601f19601f820116820180604052508101906118c69190613670565b5060005a6118d49084613023565b6118e09061520861318b565b6118ec9061520861318b565b9050600082602001516001600160a01b03167f0000000000000000000000000000000000000000000000000000000000000000837f000000000000000000000000000000000000000000000000000000000000000061194b9190613023565b611955919061319e565b604051600081818185875af1925050503d8060008114611991576040519150601f19603f3d011682016040523d82523d6000602084013e611996565b606091505b50509050806119f25760405162461bcd60e51b815260206004820152602260248201527f455448207472616e7366657220746f2066756e642e73656e646572206661696c604482015261195960f21b606482015260840161016c565b336108fc611a207f00000000000000000000000000000000000000000000000000000000000000008561319e565b6040518115909202916000818181858888f19350505050158015611a48573d6000803e3d6000fd5b50847fa921aee48cf1b440c8385fd4f25fb32bf31b9debdb4975d32017d560d44df796846040015185606001518660200151604051611a89939291906136e8565b60405180910390a250505050611a9f6001600055565b50565b60006060611aae612ab9565b60005a6000888152600360208181526040808420815160a0810183528154815260018201546001600160a01b03908116948201949094526002820154909316918301919091529182018054949550929390926060840191611b0e90612f9c565b80601f0160208091040260200160405190810160405280929190818152602001828054611b3a90612f9c565b8015611b875780601f10611b5c57610100808354040283529160200191611b87565b820191906000526020600020905b815481529060010190602001808311611b6a57829003601f168201915b50505050508152602001600482015481525050905060007f00000000000000000000000000000000000000000000000000000000000000006001600160a01b031663ba591a36896040518263ffffffff1660e01b8152600401611bec91815260200190565b602060405180830381865afa158015611c09573d6000803e3d6000fd5b505050506040513d601f19601f82011682018060405250810190611c2d919061347d565b604051630fd5856960e21b81529091506000906001600160a01b037f00000000000000000000000000000000000000000000000000000000000000001690633f5615a490611c7f903390600401612c2a565b602060405180830381865afa158015611c9c573d6000803e3d6000fd5b505050506040513d601f19601f82011682018060405250810190611cc0919061347d565b03611cdd5760405162461bcd60e51b815260040161016c90613496565b604051636b0f047d60e01b81526004810182905233906001600160a01b037f00000000000000000000000000000000000000000000000000000000000000001690636b0f047d90602401606060405180830381865afa158015611d44573d6000803e3d6000fd5b505050506040513d601f19601f82011682018060405250810190611d6891906134d7565b516001600160a01b031614611d8f5760405162461bcd60e51b815260040161016c90613540565b60408201516001600160a01b0316611db95760405162461bcd60e51b815260040161016c90612fd6565b60208201516001600160a01b0316611e0f5760405162461bcd60e51b8152602060048201526019602482015278696e76616c696420657874656e73696f6e206164647265737360381b604482015260640161016c565b42826080015111611e5c5760405162461bcd60e51b81526020600482015260176024820152761d5b98db185a5b5959081cdd185d1948195e1c1a5c9959604a1b604482015260640161016c565b80611e795760405162461bcd60e51b815260040161016c906135ac565b604051636b0f047d60e01b8152600481018290527f00000000000000000000000000000000000000000000000000000000000000006001600160a01b031690636b0f047d90602401606060405180830381865afa158015611ede573d6000803e3d6000fd5b505050506040513d601f19601f82011682018060405250810190611f0291906134d7565b60200151611f225760405162461bcd60e51b815260040161016c906135e1565b604051636b0f047d60e01b8152600481018290526000907f00000000000000000000000000000000000000000000000000000000000000006001600160a01b031690636b0f047d90602401606060405180830381865afa158015611f8a573d6000803e3d6000fd5b505050506040513d601f19601f82011682018060405250810190611fae91906134d7565b6040015103611fcf5760405162461bcd60e51b815260040161016c90613612565b7f00000000000000000000000000000000000000000000000000000000000000006001600160a01b03166380dc37377f00000000000000000000000000000000000000000000000000000000000000006001600160a01b0316633f5615a4336040518263ffffffff1660e01b815260040161204a9190612c2a565b602060405180830381865afa158015612067573d6000803e3d6000fd5b505050506040513d601f19601f8201168201806040525081019061208b919061347d565b8a8c8b8b6040518663ffffffff1660e01b81526004016120af95949392919061363f565b602060405180830381865afa1580156120cc573d6000803e3d6000fd5b505050506040513d601f19601f820116820180604052508101906120f09190613670565b61210c5760405162461bcd60e51b815260040161016c9061368b565b604051636b0f047d60e01b8152600481018290526000907f00000000000000000000000000000000000000000000000000000000000000006001600160a01b031690635664c78e908290636b0f047d90602401606060405180830381865afa15801561217c573d6000803e3d6000fd5b505050506040513d601f19601f820116820180604052508101906121a091906134d7565b604001516040518263ffffffff1660e01b81526004016121c291815260200190565b602060405180830381865afa1580156121df573d6000803e3d6000fd5b505050506040513d601f19601f8201168201806040525081019061220391906136b2565b60008b815260036020819052604082208281556001810180546001600160a01b0319908116909155600282018054909116905592935061224590830182612bc3565b5060006004919091018190556020840151906152085a6122659088613023565b61228f907f0000000000000000000000000000000000000000000000000000000000000000613023565b6122999190613023565b9050816001600160a01b031663e05df3ee8287866040518463ffffffff1660e01b81526004016122ca92919061370b565b600060405180830381600088803b1580156122e457600080fd5b5087f1935050505080156122f6575060015b612337576123026130a4565b806308c379a00361232c5750612316613102565b80612321575061232e565b60009850965061233c565b505b6000975061233c565b600197505b336108fc61238a7f00000000000000000000000000000000000000000000000000000000000000007f000000000000000000000000000000000000000000000000000000000000000061319e565b6040518115909202916000818181858888f193505050501580156123b2573d6000803e3d6000fd5b508b7fc307908a13cf992ea1bcee744b3894c3e00a8afd8683920f5d32c111b81b9e3b846040516123e39190612c2a565b60405180910390a25050505050506123fb6001600055565b94509492505050565b61240c612b12565b6001600160a01b0381166124715760405162461bcd60e51b815260206004820152602660248201527f4f776e61626c653a206e6577206f776e657220697320746865207a65726f206160448201526564647265737360d01b606482015260840161016c565b611a9f81612b71565b836000036124af576124ac7f00000000000000000000000000000000000000000000000000000000000000004261318b565b93505b6124f97f00000000000000000000000000000000000000000000000000000000000000007f000000000000000000000000000000000000000000000000000000000000000061319e565b34146125445760405162461bcd60e51b815260206004820152601a602482015279696e76616c696420756e636c61696d65642066756e642066656560301b604482015260640161016c565b600085116125945760405162461bcd60e51b815260206004820152601f60248201527f616d6f756e742073686f756c642062652067726561746572207468616e203000604482015260640161016c565b6001600160a01b0386166125e35760405162461bcd60e51b81526020600482015260166024820152751a5b9d985b1a59081d1bdad95b8818dbdb9d1c9858dd60521b604482015260640161016c565b866126005760405162461bcd60e51b815260040161016c906131e4565b42841161261f5760405162461bcd60e51b815260040161016c90613215565b600087815260026020526040902060030154156126765760405162461bcd60e51b8152602060048201526015602482015274756e636c61696d65642066756e642065786973747360581b604482015260640161016c565b6040516323b872dd60e01b8152336004820152306024820152604481018690526001600160a01b038716906323b872dd906064016020604051808303816000875af11580156126c9573d6000803e3d6000fd5b505050506040513d601f19601f820116820180604052508101906126ed9190613670565b5060006040518060a00160405280898152602001336001600160a01b03168152602001886001600160a01b0316815260200187815260200186815250905080600260008a81526020019081526020016000206000820151816000015560208201518160010160006101000a8154816001600160a01b0302191690836001600160a01b0316021790555060408201518160020160006101000a8154816001600160a01b0302191690836001600160a01b031602179055506060820151816003015560808201518160040155905050876000805160206137f7833981519152888833898989896040516127e49796959493929190613735565b60405180910390a25050505050505050565b6127fe612b12565b6000838152600360205260409020600201546001600160a01b0316156128365760405162461bcd60e51b815260040161016c90613242565b806128535760405162461bcd60e51b815260040161016c906131b5565b600061287f7f00000000000000000000000000000000000000000000000000000000000000004261318b565b905060006040518060a00160405280868152602001886001600160a01b03168152602001876001600160a01b0316815260200185858080601f0160208091040260200160405190810160405280939291908181526020018383808284376000920182905250938552505050602090910184905260405163534e4af760e01b815291925088916001600160a01b0383169163534e4af791612923918691600401613272565b600060405180830381600087803b15801561293d57600080fd5b505af192505050801561294e575060015b61295a57610c3a6130a4565b60008681526003602081815260409283902085518155908501516001820180546001600160a01b03199081166001600160a01b03938416179091559386015160028301805490951691161790925560608401518492918201906129bd9082613339565b5060808201518160040155905050856000805160206137d7833981519152898986898960006040516127e496959493929190613780565b6003602081905260009182526040909120805460018201546002830154938301805492946001600160a01b0392831694921692612a3090612f9c565b80601f0160208091040260200160405190810160405280929190818152602001828054612a5c90612f9c565b8015612aa95780601f10612a7e57610100808354040283529160200191612aa9565b820191906000526020600020905b815481529060010190602001808311612a8c57829003601f168201915b5050505050908060040154905085565b600260005403612b0b5760405162461bcd60e51b815260206004820152601f60248201527f5265656e7472616e637947756172643a207265656e7472616e742063616c6c00604482015260640161016c565b6002600055565b33612b1b610577565b6001600160a01b031614610eca5760405162461bcd60e51b815260206004820181905260248201527f4f776e61626c653a2063616c6c6572206973206e6f7420746865206f776e6572604482015260640161016c565b600180546001600160a01b038381166001600160a01b0319831681179093556040519116919082907f8be0079c531659141344cd1fd0a4f28419497f9722a3daafe3b4186f6b6457e090600090a35050565b508054612bcf90612f9c565b6000825580601f10612bdf575050565b601f016020900490600052602060002090810190611a9f91905b80821115612c0d5760008155600101612bf9565b5090565b600060208284031215612c2357600080fd5b5035919050565b6001600160a01b0391909116815260200190565b60005b83811015612c59578181015183820152602001612c41565b50506000910152565b60008151808452612c7a816020860160208601612c3e565b601f01601f19169290920160200192915050565b8215158152604060208201526000612ca96040830184612c62565b949350505050565b6001600160a01b0381168114611a9f57600080fd5b60008083601f840112612cd857600080fd5b5081356001600160401b03811115612cef57600080fd5b602083019150836020828501011115612d0757600080fd5b9250929050565b60008060008060008060008060c0898b031215612d2a57600080fd5b883597506020890135612d3c81612cb1565b965060408901356001600160401b0380821115612d5857600080fd5b612d648c838d01612cc6565b909850965060608b0135955060808b0135945060a08b0135915080821115612d8b57600080fd5b50612d988b828c01612cc6565b999c989b5096995094979396929594505050565b60008060008060808587031215612dc257600080fd5b8435612dcd81612cb1565b9350602085013592506040850135612de481612cb1565b9396929550929360600135925050565b60008060008060608587031215612e0a57600080fd5b843593506020850135925060408501356001600160401b03811115612e2e57600080fd5b612e3a87828801612cc6565b95989497509550505050565b600060208284031215612e5857600080fd5b8135612e6381612cb1565b9392505050565b600080600080600080600060c0888a031215612e8557600080fd5b873596506020880135612e9781612cb1565b955060408801359450606088013593506080880135925060a08801356001600160401b03811115612ec757600080fd5b612ed38a828b01612cc6565b989b979a50959850939692959293505050565b600080600080600060808688031215612efe57600080fd5b8535612f0981612cb1565b94506020860135612f1981612cb1565b93506040860135925060608601356001600160401b03811115612f3b57600080fd5b612f4788828901612cc6565b969995985093965092949392505050565b8581526001600160a01b0385811660208301528416604082015260a060608201819052600090612f8a90830185612c62565b90508260808301529695505050505050565b600181811c90821680612fb057607f821691505b602082108103612fd057634e487b7160e01b600052602260045260246000fd5b50919050565b6020808252601e908201527f756e636c61696d6564207374617465206e6f7420726567697374657265640000604082015260600190565b634e487b7160e01b600052601160045260246000fd5b818103818111156130365761303661300d565b92915050565b805182526000602082015160018060a01b0380821660208601528060408501511660408601525050606082015160a0606085015261307d60a0850182612c62565b608093840151949093019390935250919050565b602081526000612e63602083018461303c565b600060033d11156130bd5760046000803e5060005160e01c5b90565b634e487b7160e01b600052604160045260246000fd5b601f8201601f191681016001600160401b03811182821017156130fb576130fb6130c0565b6040525050565b600060443d10156131105790565b6040516003193d81016004833e81513d6001600160401b03808311602484018310171561313f57505050505090565b82850191508151818111156131575750505050505090565b843d87010160208285010111156131715750505050505090565b613180602082860101876130d6565b509095945050505050565b808201808211156130365761303661300d565b80820281158282048414176130365761303661300d565b60208082526015908201527473746174652063616e6e6f7420626520656d70747960581b604082015260600190565b6020808252601790820152761a5b9d985b1a5908195b585a5b1059191c90dbdb5b5a5d604a1b604082015260600190565b602080825260139082015272696e76616c6964206578706972792074696d6560681b604082015260600190565b602080825260169082015275756e636c61696d65642073746174652065786973747360501b604082015260600190565b604081526000613285604083018561303c565b905082151560208301529392505050565b7803ab731b630b4b6b2b21039ba30ba32903932b39032b9391d1603d1b8152600082516132ca816019850160208701612c3e565b9190910160190192915050565b602081526000612e636020830184612c62565b601f82111561333457600081815260208120601f850160051c810160208610156133115750805b601f850160051c820191505b818110156133305782815560010161331d565b5050505b505050565b81516001600160401b03811115613352576133526130c0565b613366816133608454612f9c565b846132ea565b602080601f83116001811461339b57600084156133835750858301515b600019600386901b1c1916600185901b178555613330565b600085815260208120601f198616915b828110156133ca578886015182559484019460019091019084016133ab565b50858210156133e85787850151600019600388901b60f8161c191681555b5050505050600190811b01905550565b81835281816020850137506000828201602090810191909152601f909101601f19169091010190565b6001600160a01b038981168252881660208201526040810187905260c06060820181905260009061345590830187896133f8565b85608084015282810360a084015261346e8185876133f8565b9b9a5050505050505050505050565b60006020828403121561348f57600080fd5b5051919050565b60208082526012908201527131b0b63632b9103737ba103932b630bcb2b960711b604082015260600190565b805180151581146134d257600080fd5b919050565b6000606082840312156134e957600080fd5b604051606081016001600160401b038111828210171561350b5761350b6130c0565b604052825161351981612cb1565b8152613527602084016134c2565b6020820152604083015160408201528091505092915050565b6020808252601b908201527a1a5b9d985b1a59081c995b185e595c88199bdc881858d8dbdd5b9d602a1b604082015260600190565b6020808252601d908201527f756e636c61696d65642066756e64206e6f742072656769737465726564000000604082015260600190565b6020808252601b908201527a34b73b30b634b21030b1b1b7bab73a1035b2bc9031b7b6b6b4ba1760291b604082015260600190565b6020808252601790820152761858d8dbdd5b9d081b9bdd081a5b9a5d1a585b1a5e9959604a1b604082015260600190565b6020808252601390820152721a5b9d985b1a59081dd85b1b195d081cd85b1d606a1b604082015260600190565b8581528460208201528360408201526080606082015260006136656080830184866133f8565b979650505050505050565b60006020828403121561368257600080fd5b612e63826134c2565b6020808252600d908201526c34b73b30b634b210383937b7b360991b604082015260600190565b6000602082840312156136c457600080fd5b8151612e6381612cb1565b6001600160a01b03929092168252602082015260400190565b6001600160a01b0393841681526020810192909252909116604082015260600190565b60408152600061371e604083018561303c565b905060018060a01b03831660208301529392505050565b600060018060a01b03808a16835288602084015280881660408401525085606083015284608083015260c060a083015261377360c0830184866133f8565b9998505050505050505050565b6001600160a01b038781168252861660208201526040810185905260c0606082018190526000906137b490830185876133f8565b60808301939093525080820360a090910152600081526020019594505050505056fe071b1ab28deb9ddb8755dcb5cae9040570a5217de30d8a4071a0ffa4cb5a4fa9912982e961dea1d7e701e1582435b2699ff8079534dcca45d65a43a82b67a2dca26469706673582212207112e7c9768d81f278148e4e74d7a62c06a7a6ea7c92931aecb72035d2f005ec64736f6c63430008110033",
    "linkReferences": {}
  },
  "methodIdentifiers": {
    "accountHandler()": "33ddfb9a",
    "claimUnclaimedFund(bytes32,bytes32,bytes)": "78be121c",
    "claimUnclaimedState(bytes32,bytes32,bytes)": "ef97e18b",
    "getSenderOfUnclaimedFund(bytes32)": "02a54bd5",
    "getSenderOfUnclaimedState(bytes32)": "87148fb5",
    "maxFeePerGas()": "2728bf2c",
    "owner()": "8da5cb5b",
    "registerUnclaimedFund(bytes32,address,uint256,uint256,uint256,string)": "f9df978e",
    "registerUnclaimedFundInternal(address,bytes32,address,uint256)": "1bae92f7",
    "registerUnclaimedState(bytes32,address,bytes,uint256,uint256,string)": "0e878b9b",
    "registerUnclaimedStateInternal(address,address,bytes32,bytes)": "fc2d0075",
    "relayerHandler()": "5e5f2610",
    "renounceOwnership()": "715018a6",
    "transferOwnership(address)": "f2fde38b",
    "unclaimedFundClaimGas()": "66221734",
    "unclaimedFundOfEmailAddrCommit(bytes32)": "85ff24b3",
    "unclaimedStateClaimGas()": "a87fedae",
    "unclaimedStateOfEmailAddrCommit(bytes32)": "fe269cf8",
    "unclaimsExpiryDuration()": "cdbe49f0",
    "verifier()": "2b7ac3f3",
    "voidUnclaimedFund(bytes32)": "c8a7e9e2",
    "voidUnclaimedState(bytes32)": "06690908"
  },
  "id": 118
}