{"abi":[{"type":"constructor","inputs":[],"stateMutability":"nonpayable"},{"type":"function","name":"addressOfTokenName","inputs":[{"name":"","type":"uint256","internalType":"uint256"},{"name":"","type":"string","internalType":"string"}],"outputs":[{"name":"","type":"address","internalType":"address"}],"stateMutability":"view"},{"type":"function","name":"chainIdOfName","inputs":[{"name":"","type":"string","internalType":"string"}],"outputs":[{"name":"","type":"uint256","internalType":"uint256"}],"stateMutability":"view"},{"type":"function","name":"getChainIdOfName","inputs":[{"name":"chainName","type":"string","internalType":"string"}],"outputs":[{"name":"","type":"uint256","internalType":"uint256"}],"stateMutability":"view"},{"type":"function","name":"getTokenAddress","inputs":[{"name":"chainId","type":"uint256","internalType":"uint256"},{"name":"tokenName","type":"string","internalType":"string"}],"outputs":[{"name":"","type":"address","internalType":"address"}],"stateMutability":"view"},{"type":"function","name":"getTokenAddress","inputs":[{"name":"chainName","type":"string","internalType":"string"},{"name":"tokenName","type":"string","internalType":"string"}],"outputs":[{"name":"","type":"address","internalType":"address"}],"stateMutability":"view"},{"type":"function","name":"getTokenAddress","inputs":[{"name":"tokenName","type":"string","internalType":"string"}],"outputs":[{"name":"","type":"address","internalType":"address"}],"stateMutability":"view"},{"type":"function","name":"getTokenNameOfAddress","inputs":[{"name":"chainId","type":"uint256","internalType":"uint256"},{"name":"addr","type":"address","internalType":"address"}],"outputs":[{"name":"","type":"string","internalType":"string"}],"stateMutability":"view"},{"type":"function","name":"getTokenNameOfAddress","inputs":[{"name":"addr","type":"address","internalType":"address"}],"outputs":[{"name":"","type":"string","internalType":"string"}],"stateMutability":"view"},{"type":"function","name":"initialize","inputs":[],"outputs":[],"stateMutability":"nonpayable"},{"type":"function","name":"owner","inputs":[],"outputs":[{"name":"","type":"address","internalType":"address"}],"stateMutability":"view"},{"type":"function","name":"proxiableUUID","inputs":[],"outputs":[{"name":"","type":"bytes32","internalType":"bytes32"}],"stateMutability":"view"},{"type":"function","name":"renounceOwnership","inputs":[],"outputs":[],"stateMutability":"nonpayable"},{"type":"function","name":"setChainId","inputs":[{"name":"chainName","type":"string","internalType":"string"},{"name":"chainId","type":"uint256","internalType":"uint256"}],"outputs":[],"stateMutability":"nonpayable"},{"type":"function","name":"setTokenAddress","inputs":[{"name":"tokenName","type":"string","internalType":"string"},{"name":"addr","type":"address","internalType":"address"}],"outputs":[],"stateMutability":"nonpayable"},{"type":"function","name":"setTokenAddress","inputs":[{"name":"chainId","type":"uint256","internalType":"uint256"},{"name":"tokenName","type":"string","internalType":"string"},{"name":"addr","type":"address","internalType":"address"}],"outputs":[],"stateMutability":"nonpayable"},{"type":"function","name":"setTokenAddresses","inputs":[{"name":"chainId","type":"uint256","internalType":"uint256"},{"name":"tokenNames","type":"string[]","internalType":"string[]"},{"name":"addrs","type":"address[]","internalType":"address[]"}],"outputs":[],"stateMutability":"nonpayable"},{"type":"function","name":"tokenNameOfAddress","inputs":[{"name":"","type":"uint256","internalType":"uint256"},{"name":"","type":"address","internalType":"address"}],"outputs":[{"name":"","type":"string","internalType":"string"}],"stateMutability":"view"},{"type":"function","name":"transferOwnership","inputs":[{"name":"newOwner","type":"address","internalType":"address"}],"outputs":[],"stateMutability":"nonpayable"},{"type":"function","name":"upgradeTo","inputs":[{"name":"newImplementation","type":"address","internalType":"address"}],"outputs":[],"stateMutability":"nonpayable"},{"type":"function","name":"upgradeToAndCall","inputs":[{"name":"newImplementation","type":"address","internalType":"address"},{"name":"data","type":"bytes","internalType":"bytes"}],"outputs":[],"stateMutability":"payable"},{"type":"event","name":"AdminChanged","inputs":[{"name":"previousAdmin","type":"address","indexed":false,"internalType":"address"},{"name":"newAdmin","type":"address","indexed":false,"internalType":"address"}],"anonymous":false},{"type":"event","name":"BeaconUpgraded","inputs":[{"name":"beacon","type":"address","indexed":true,"internalType":"address"}],"anonymous":false},{"type":"event","name":"ChainRegistered","inputs":[{"name":"chainName","type":"string","indexed":true,"internalType":"string"},{"name":"chainId","type":"uint256","indexed":true,"internalType":"uint256"}],"anonymous":false},{"type":"event","name":"Initialized","inputs":[{"name":"version","type":"uint8","indexed":false,"internalType":"uint8"}],"anonymous":false},{"type":"event","name":"OwnershipTransferred","inputs":[{"name":"previousOwner","type":"address","indexed":true,"internalType":"address"},{"name":"newOwner","type":"address","indexed":true,"internalType":"address"}],"anonymous":false},{"type":"event","name":"TokenRegistered","inputs":[{"name":"chainId","type":"uint256","indexed":true,"internalType":"uint256"},{"name":"tokenName","type":"string","indexed":true,"internalType":"string"},{"name":"addr","type":"address","indexed":true,"internalType":"address"}],"anonymous":false},{"type":"event","name":"Upgraded","inputs":[{"name":"implementation","type":"address","indexed":true,"internalType":"address"}],"anonymous":false}],"bytecode":{"object":"0x60a0604052306080523480156200001557600080fd5b506200002062000026565b620000e7565b600054610100900460ff1615620000935760405162461bcd60e51b815260206004820152602760248201527f496e697469616c697a61626c653a20636f6e747261637420697320696e697469604482015266616c697a696e6760c81b606482015260840160405180910390fd5b60005460ff90811614620000e5576000805460ff191660ff9081179091556040519081527f7f26b83ff96e1f2b6a682f133852f6798a09c465da95921460cefb38474024989060200160405180910390a15b565b6080516128ca6200011f600039600081816107790152818161082e0152818161098301528181610a330152610b7801526128ca6000f3fe60806040526004361061015f5760003560e01c80638129fc1c116100c0578063c35b754711610074578063e0abd91b11610059578063e0abd91b146103ff578063e5be9dec1461041f578063f2fde38b1461043f57600080fd5b8063c35b7547146103bf578063c4091236146103df57600080fd5b80638da5cb5b116100a55780638da5cb5b14610354578063a2a7862e1461037f578063b399de4e1461039f57600080fd5b80638129fc1c1461031f5780638c7af0801461033457600080fd5b80634f1ef2861161011757806367cbcb32116100fc57806367cbcb32146102665780636979e27b146102ea578063715018a61461030a57600080fd5b80634f1ef2861461023e57806352d1902d1461025157600080fd5b80632515d660116101485780632515d660146101d1578063304cd040146101fe5780633659cfe61461021e57600080fd5b806317456e56146101645780631bd5130f14610186575b600080fd5b34801561017057600080fd5b5061018461017f366004612208565b61045f565b005b34801561019257600080fd5b506101be6101a1366004612256565b805160208183018101805160678252928201919093012091525481565b6040519081526020015b60405180910390f35b3480156101dd57600080fd5b506101f16101ec36600461228b565b610476565b6040516101c891906122d2565b34801561020a57600080fd5b506101be610219366004612256565b61073a565b34801561022a57600080fd5b50610184610239366004612323565b610762565b61018461024c36600461233e565b61096c565b34801561025d57600080fd5b506101be610b5e565b34801561027257600080fd5b506102c56102813660046123a0565b6065602090815260009283526040909220815180830184018051928152908401929093019190912091525473ffffffffffffffffffffffffffffffffffffffff1681565b60405173ffffffffffffffffffffffffffffffffffffffff90911681526020016101c8565b3480156102f657600080fd5b506101846103053660046123dd565b610c4a565b34801561031657600080fd5b50610184610e6d565b34801561032b57600080fd5b50610184610e81565b34801561034057600080fd5b506102c561034f3660046123a0565b6110d5565b34801561036057600080fd5b5060335473ffffffffffffffffffffffffffffffffffffffff166102c5565b34801561038b57600080fd5b506101f161039a36600461228b565b61141e565b3480156103ab57600080fd5b506101f16103ba366004612323565b6114c3565b3480156103cb57600080fd5b506102c56103da366004612422565b6114cf565b3480156103eb57600080fd5b506102c56103fa366004612256565b611588565b34801561040b57600080fd5b5061018461041a366004612516565b611594565b34801561042b57600080fd5b5061018461043a3660046125f5565b611683565b34801561044b57600080fd5b5061018461045a366004612323565b6118c7565b61046761197b565b610472468383611683565b5050565b60606104b7836040518060400160405280600481526020017f57455448000000000000000000000000000000000000000000000000000000008152506110d5565b73ffffffffffffffffffffffffffffffffffffffff168273ffffffffffffffffffffffffffffffffffffffff1603610523575060408051808201909152600481527f57455448000000000000000000000000000000000000000000000000000000006020820152610734565b610562836040518060400160405280600381526020017f44414900000000000000000000000000000000000000000000000000000000008152506110d5565b73ffffffffffffffffffffffffffffffffffffffff168273ffffffffffffffffffffffffffffffffffffffff16036105ce575060408051808201909152600381527f44414900000000000000000000000000000000000000000000000000000000006020820152610734565b61060d836040518060400160405280600481526020017f55534443000000000000000000000000000000000000000000000000000000008152506110d5565b73ffffffffffffffffffffffffffffffffffffffff168273ffffffffffffffffffffffffffffffffffffffff1603610679575060408051808201909152600481527f55534443000000000000000000000000000000000000000000000000000000006020820152610734565b600083815260666020908152604080832073ffffffffffffffffffffffffffffffffffffffff86168452909152902080546106b39061264c565b80601f01602080910402602001604051908101604052809291908181526020018280546106df9061264c565b801561072c5780601f106107015761010080835404028352916020019161072c565b820191906000526020600020905b81548152906001019060200180831161070f57829003601f168201915b505050505090505b92915050565b600060678260405161074c919061269f565b9081526020016040518091039020549050919050565b73ffffffffffffffffffffffffffffffffffffffff7f000000000000000000000000000000000000000000000000000000000000000016300361082c576040517f08c379a000000000000000000000000000000000000000000000000000000000815260206004820152602c60248201527f46756e6374696f6e206d7573742062652063616c6c6564207468726f7567682060448201527f64656c656761746563616c6c000000000000000000000000000000000000000060648201526084015b60405180910390fd5b7f000000000000000000000000000000000000000000000000000000000000000073ffffffffffffffffffffffffffffffffffffffff166108a17f360894a13ba1a3210667c828492db98dca3e2076cc3735a920a3ca505d382bbc5473ffffffffffffffffffffffffffffffffffffffff1690565b73ffffffffffffffffffffffffffffffffffffffff1614610944576040517f08c379a000000000000000000000000000000000000000000000000000000000815260206004820152602c60248201527f46756e6374696f6e206d7573742062652063616c6c6564207468726f7567682060448201527f6163746976652070726f787900000000000000000000000000000000000000006064820152608401610823565b61094d816119fc565b6040805160008082526020820190925261096991839190611a04565b50565b73ffffffffffffffffffffffffffffffffffffffff7f0000000000000000000000000000000000000000000000000000000000000000163003610a31576040517f08c379a000000000000000000000000000000000000000000000000000000000815260206004820152602c60248201527f46756e6374696f6e206d7573742062652063616c6c6564207468726f7567682060448201527f64656c656761746563616c6c00000000000000000000000000000000000000006064820152608401610823565b7f000000000000000000000000000000000000000000000000000000000000000073ffffffffffffffffffffffffffffffffffffffff16610aa67f360894a13ba1a3210667c828492db98dca3e2076cc3735a920a3ca505d382bbc5473ffffffffffffffffffffffffffffffffffffffff1690565b73ffffffffffffffffffffffffffffffffffffffff1614610b49576040517f08c379a000000000000000000000000000000000000000000000000000000000815260206004820152602c60248201527f46756e6374696f6e206d7573742062652063616c6c6564207468726f7567682060448201527f6163746976652070726f787900000000000000000000000000000000000000006064820152608401610823565b610b52826119fc565b61047282826001611a04565b60003073ffffffffffffffffffffffffffffffffffffffff7f00000000000000000000000000000000000000000000000000000000000000001614610c25576040517f08c379a000000000000000000000000000000000000000000000000000000000815260206004820152603860248201527f555550535570677261646561626c653a206d757374206e6f742062652063616c60448201527f6c6564207468726f7567682064656c656761746563616c6c00000000000000006064820152608401610823565b507f360894a13ba1a3210667c828492db98dca3e2076cc3735a920a3ca505d382bbc90565b610c5261197b565b80600003610cbc576040517f08c379a000000000000000000000000000000000000000000000000000000000815260206004820152601460248201527f636861696e2069642063616e6e6f7420626520300000000000000000000000006044820152606401610823565b60408051808201909152600781527f6d61696e6e6574000000000000000000000000000000000000000000000000006020918201528251908301207f7beafa94c8bfb8f1c1a43104a34f72c524268aafbfe83bff17485539345c66ff03610d7f576040517f08c379a000000000000000000000000000000000000000000000000000000000815260206004820152601b60248201527f63616e6e6f7420736574206d61696e6e657420636861696e20696400000000006044820152606401610823565b606782604051610d8f919061269f565b908152602001604051809103902054600014610e07576040517f08c379a000000000000000000000000000000000000000000000000000000000815260206004820152601460248201527f636861696e20696420616c7265616479207365740000000000000000000000006044820152606401610823565b80606783604051610e18919061269f565b9081526020016040518091039020819055508082604051610e39919061269f565b604051908190038120907f86a4286cd17e837705c9988b6242b5cdd720d832208dd885668ff00e514d28df90600090a35050565b610e7561197b565b610e7f6000611c08565b565b600054610100900460ff1615808015610ea15750600054600160ff909116105b80610ebb5750303b158015610ebb575060005460ff166001145b610f47576040517f08c379a000000000000000000000000000000000000000000000000000000000815260206004820152602e60248201527f496e697469616c697a61626c653a20636f6e747261637420697320616c72656160448201527f647920696e697469616c697a65640000000000000000000000000000000000006064820152608401610823565b600080547fffffffffffffffffffffffffffffffffffffffffffffffffffffffffffffff001660011790558015610fa557600080547fffffffffffffffffffffffffffffffffffffffffffffffffffffffffffff00ff166101001790555b610fad611c7f565b60006067604051610fe1907f6d61696e6e657400000000000000000000000000000000000000000000000000815260070190565b908152604051908190036020018120919091557f6f7074696d69736d0000000000000000000000000000000000000000000000008152600a90606790600801908152604051908190036020018120919091557f617262697472756d000000000000000000000000000000000000000000000000815261a4b19060679060080190815260405190819003602001902055801561096957600080547fffffffffffffffffffffffffffffffffffffffffffffffffffffffffffff00ff169055604051600181527f7f26b83ff96e1f2b6a682f133852f6798a09c465da95921460cefb38474024989060200160405180910390a150565b60408051808201909152600381527f45544800000000000000000000000000000000000000000000000000000000006020918201528151908201206000907faaaebeba3810b1e6b70781f14b2d72c1cb89c0b2b320c43bb67ff79f562f5ff403611172576040518060400160405280600481526020017f574554480000000000000000000000000000000000000000000000000000000081525091505b60408051808201909152600481527f57455448000000000000000000000000000000000000000000000000000000006020918201528251908301207f0f8a193ff464434486c0daf7db2a895884365d2bc84ba47a68fcf89c1b14b5b80361123d57826000036111f6575073c02aaa39b223fe8d0a0e5c4f27ead9083c756cc2610734565b82600a036112195750734200000000000000000000000000000000000006610734565b8261a4b10361123d57507382af49447d8a07e3bd95bd0d56f35241523fbab1610734565b60408051808201909152600381527f44414900000000000000000000000000000000000000000000000000000000006020918201528251908301207fa5e92f3efb6826155f1f728e162af9d7cda33a574a1153b58f03ea01cc37e5680361130857826000036112c15750736b175474e89094c44da98b954eedeac495271d0f610734565b82600a036112e4575073da10009cbd5d07dd0cecc66161fc93d7c9000da1610734565b8261a4b103611308575073da10009cbd5d07dd0cecc66161fc93d7c9000da1610734565b60408051808201909152600481527f55534443000000000000000000000000000000000000000000000000000000006020918201528251908301207fd6aca1be9729c13d677335161321649cccae6a591554772516700f986f942eaa036113d3578260000361138c575073a0b86991c6218b36c1d19d4a2e9eb0ce3606eb48610734565b82600a036113af5750737f5c764cbc14f9669b88837ca1490cca17c31607610734565b8261a4b1036113d3575073af88d065e77c8cc2239327c5edb3a432268e5831610734565b6000838152606560205260409081902090516113f090849061269f565b9081526040519081900360200190205473ffffffffffffffffffffffffffffffffffffffff16905092915050565b6066602090815260009283526040808420909152908252902080546114429061264c565b80601f016020809104026020016040519081016040528092919081815260200182805461146e9061264c565b80156114bb5780601f10611490576101008083540402835291602001916114bb565b820191906000526020600020905b81548152906001019060200180831161149e57829003601f168201915b505050505081565b60606107344683610476565b60006067836040516114e1919061269f565b908152602001604051809103902054600003611559576040517f08c379a000000000000000000000000000000000000000000000000000000000815260206004820152601260248201527f756e6b6e6f776e20636861696e206e616d6500000000000000000000000000006044820152606401610823565b61158160678460405161156c919061269f565b908152602001604051809103902054836110d5565b9392505050565b600061073446836110d5565b61159c61197b565b805182511461162c576040517f08c379a0000000000000000000000000000000000000000000000000000000008152602060048201526024808201527f746f6b656e4e616d657320616e64206164647273206c656e677468206d69736d60448201527f61746368000000000000000000000000000000000000000000000000000000006064820152608401610823565b60005b825181101561167d576116758484838151811061164e5761164e6126bb565b6020026020010151848481518110611668576116686126bb565b6020026020010151611683565b60010161162f565b50505050565b61168b61197b565b60008381526065602052604080822090516116a790859061269f565b9081526040519081900360200190205473ffffffffffffffffffffffffffffffffffffffff1614611734576040517f08c379a000000000000000000000000000000000000000000000000000000000815260206004820152601860248201527f546f6b656e20616c7265616479207265676973746572656400000000000000006044820152606401610823565b600083815260666020908152604080832073ffffffffffffffffffffffffffffffffffffffff851684529091529020805461176e9061264c565b1590506117d7576040517f08c379a000000000000000000000000000000000000000000000000000000000815260206004820152601a60248201527f4164647265737320616c726561647920726567697374657265640000000000006044820152606401610823565b8060656000858152602001908152602001600020836040516117f9919061269f565b908152604080516020928190038301902080547fffffffffffffffffffffffff00000000000000000000000000000000000000001673ffffffffffffffffffffffffffffffffffffffff948516179055600086815260668352818120938516815292909152902061186a838261273a565b508073ffffffffffffffffffffffffffffffffffffffff1682604051611890919061269f565b6040519081900381209085907f6924cd42ac8694ed5f41aa3239ee8ed59cdb393013c29775f1eff5f4e0a6bcf990600090a4505050565b6118cf61197b565b73ffffffffffffffffffffffffffffffffffffffff8116611972576040517f08c379a000000000000000000000000000000000000000000000000000000000815260206004820152602660248201527f4f776e61626c653a206e6577206f776e657220697320746865207a65726f206160448201527f64647265737300000000000000000000000000000000000000000000000000006064820152608401610823565b61096981611c08565b60335473ffffffffffffffffffffffffffffffffffffffff163314610e7f576040517f08c379a000000000000000000000000000000000000000000000000000000000815260206004820181905260248201527f4f776e61626c653a2063616c6c6572206973206e6f7420746865206f776e65726044820152606401610823565b61096961197b565b7f4910fdfa16fed3260ed0e7147f7cc6da11a60208b5b9406d12a635614ffd91435460ff1615611a3c57611a3783611d1e565b505050565b8273ffffffffffffffffffffffffffffffffffffffff166352d1902d6040518163ffffffff1660e01b8152600401602060405180830381865afa925050508015611ac1575060408051601f3d9081017fffffffffffffffffffffffffffffffffffffffffffffffffffffffffffffffe0168201909252611abe91810190612854565b60015b611b4d576040517f08c379a000000000000000000000000000000000000000000000000000000000815260206004820152602e60248201527f45524331393637557067726164653a206e657720696d706c656d656e7461746960448201527f6f6e206973206e6f7420555550530000000000000000000000000000000000006064820152608401610823565b7f360894a13ba1a3210667c828492db98dca3e2076cc3735a920a3ca505d382bbc8114611bfc576040517f08c379a000000000000000000000000000000000000000000000000000000000815260206004820152602960248201527f45524331393637557067726164653a20756e737570706f727465642070726f7860448201527f6961626c655555494400000000000000000000000000000000000000000000006064820152608401610823565b50611a37838383611e28565b6033805473ffffffffffffffffffffffffffffffffffffffff8381167fffffffffffffffffffffffff0000000000000000000000000000000000000000831681179093556040519116919082907f8be0079c531659141344cd1fd0a4f28419497f9722a3daafe3b4186f6b6457e090600090a35050565b600054610100900460ff16611d16576040517f08c379a000000000000000000000000000000000000000000000000000000000815260206004820152602b60248201527f496e697469616c697a61626c653a20636f6e7472616374206973206e6f74206960448201527f6e697469616c697a696e670000000000000000000000000000000000000000006064820152608401610823565b610e7f611e4d565b73ffffffffffffffffffffffffffffffffffffffff81163b611dc2576040517f08c379a000000000000000000000000000000000000000000000000000000000815260206004820152602d60248201527f455243313936373a206e657720696d706c656d656e746174696f6e206973206e60448201527f6f74206120636f6e7472616374000000000000000000000000000000000000006064820152608401610823565b7f360894a13ba1a3210667c828492db98dca3e2076cc3735a920a3ca505d382bbc80547fffffffffffffffffffffffff00000000000000000000000000000000000000001673ffffffffffffffffffffffffffffffffffffffff92909216919091179055565b611e3183611eed565b600082511180611e3e5750805b15611a375761167d8383611f3a565b600054610100900460ff16611ee4576040517f08c379a000000000000000000000000000000000000000000000000000000000815260206004820152602b60248201527f496e697469616c697a61626c653a20636f6e7472616374206973206e6f74206960448201527f6e697469616c697a696e670000000000000000000000000000000000000000006064820152608401610823565b610e7f33611c08565b611ef681611d1e565b60405173ffffffffffffffffffffffffffffffffffffffff8216907fbc7cd75a20ee27fd9adebab32041f755214dbc6bffa90cc0225b39da2e5c2d3b90600090a250565b6060611581838360405180606001604052806027815260200161286e6027913960606000808573ffffffffffffffffffffffffffffffffffffffff1685604051611f84919061269f565b600060405180830381855af49150503d8060008114611fbf576040519150601f19603f3d011682016040523d82523d6000602084013e611fc4565b606091505b5091509150611fd586838387611fdf565b9695505050505050565b6060831561207557825160000361206e5773ffffffffffffffffffffffffffffffffffffffff85163b61206e576040517f08c379a000000000000000000000000000000000000000000000000000000000815260206004820152601d60248201527f416464726573733a2063616c6c20746f206e6f6e2d636f6e74726163740000006044820152606401610823565b508161207f565b61207f8383612087565b949350505050565b8151156120975781518083602001fd5b806040517f08c379a000000000000000000000000000000000000000000000000000000000815260040161082391906122d2565b7f4e487b7100000000000000000000000000000000000000000000000000000000600052604160045260246000fd5b604051601f82017fffffffffffffffffffffffffffffffffffffffffffffffffffffffffffffffe016810167ffffffffffffffff81118282101715612141576121416120cb565b604052919050565b600067ffffffffffffffff831115612163576121636120cb565b61219460207fffffffffffffffffffffffffffffffffffffffffffffffffffffffffffffffe0601f860116016120fa565b90508281528383830111156121a857600080fd5b828260208301376000602084830101529392505050565b600082601f8301126121d057600080fd5b61158183833560208501612149565b803573ffffffffffffffffffffffffffffffffffffffff8116811461220357600080fd5b919050565b6000806040838503121561221b57600080fd5b823567ffffffffffffffff81111561223257600080fd5b61223e858286016121bf565b92505061224d602084016121df565b90509250929050565b60006020828403121561226857600080fd5b813567ffffffffffffffff81111561227f57600080fd5b61207f848285016121bf565b6000806040838503121561229e57600080fd5b8235915061224d602084016121df565b60005b838110156122c95781810151838201526020016122b1565b50506000910152565b60208152600082518060208401526122f18160408501602087016122ae565b601f017fffffffffffffffffffffffffffffffffffffffffffffffffffffffffffffffe0169190910160400192915050565b60006020828403121561233557600080fd5b611581826121df565b6000806040838503121561235157600080fd5b61235a836121df565b9150602083013567ffffffffffffffff81111561237657600080fd5b8301601f8101851361238757600080fd5b61239685823560208401612149565b9150509250929050565b600080604083850312156123b357600080fd5b82359150602083013567ffffffffffffffff8111156123d157600080fd5b612396858286016121bf565b600080604083850312156123f057600080fd5b823567ffffffffffffffff81111561240757600080fd5b612413858286016121bf565b95602094909401359450505050565b6000806040838503121561243557600080fd5b823567ffffffffffffffff8082111561244d57600080fd5b612459868387016121bf565b9350602085013591508082111561246f57600080fd5b50612396858286016121bf565b600067ffffffffffffffff821115612496576124966120cb565b5060051b60200190565b600082601f8301126124b157600080fd5b813560206124c66124c18361247c565b6120fa565b8083825260208201915060208460051b8701019350868411156124e857600080fd5b602086015b8481101561250b576124fe816121df565b83529183019183016124ed565b509695505050505050565b60008060006060848603121561252b57600080fd5b8335925060208085013567ffffffffffffffff8082111561254b57600080fd5b818701915087601f83011261255f57600080fd5b813561256d6124c18261247c565b81815260059190911b8301840190848101908a83111561258c57600080fd5b8585015b838110156125c4578035858111156125a85760008081fd5b6125b68d89838a01016121bf565b845250918601918601612590565b509650505060408701359250808311156125dd57600080fd5b50506125eb868287016124a0565b9150509250925092565b60008060006060848603121561260a57600080fd5b83359250602084013567ffffffffffffffff81111561262857600080fd5b612634868287016121bf565b925050612643604085016121df565b90509250925092565b600181811c9082168061266057607f821691505b602082108103612699577f4e487b7100000000000000000000000000000000000000000000000000000000600052602260045260246000fd5b50919050565b600082516126b18184602087016122ae565b9190910192915050565b7f4e487b7100000000000000000000000000000000000000000000000000000000600052603260045260246000fd5b601f821115611a37576000816000526020600020601f850160051c810160208610156127135750805b601f850160051c820191505b818110156127325782815560010161271f565b505050505050565b815167ffffffffffffffff811115612754576127546120cb565b61276881612762845461264c565b846126ea565b602080601f8311600181146127bb57600084156127855750858301515b7fffffffffffffffffffffffffffffffffffffffffffffffffffffffffffffffff600386901b1c1916600185901b178555612732565b6000858152602081207fffffffffffffffffffffffffffffffffffffffffffffffffffffffffffffffe08616915b82811015612808578886015182559484019460019091019084016127e9565b508582101561284457878501517fffffffffffffffffffffffffffffffffffffffffffffffffffffffffffffffff600388901b60f8161c191681555b5050505050600190811b01905550565b60006020828403121561286657600080fd5b505191905056fe416464726573733a206c6f772d6c6576656c2064656c65676174652063616c6c206661696c6564a26469706673582212201aad6f27342862921e114674875350453c7e80de4b3aeb5be32374cbcb53fdaf64736f6c63430008170033","linkReferences":{}},"methodIdentifiers":{"addressOfTokenName(uint256,string)":"67cbcb32","chainIdOfName(string)":"1bd5130f","getChainIdOfName(string)":"304cd040","getTokenAddress(string)":"c4091236","getTokenAddress(string,string)":"c35b7547","getTokenAddress(uint256,string)":"8c7af080","getTokenNameOfAddress(address)":"b399de4e","getTokenNameOfAddress(uint256,address)":"2515d660","initialize()":"8129fc1c","owner()":"8da5cb5b","proxiableUUID()":"52d1902d","renounceOwnership()":"715018a6","setChainId(string,uint256)":"6979e27b","setTokenAddress(string,address)":"17456e56","setTokenAddress(uint256,string,address)":"e5be9dec","setTokenAddresses(uint256,string[],address[])":"e0abd91b","tokenNameOfAddress(uint256,address)":"a2a7862e","transferOwnership(address)":"f2fde38b","upgradeTo(address)":"3659cfe6","upgradeToAndCall(address,bytes)":"4f1ef286"},"storageLayout":{"storage":[{"astId":138,"contract":"src/utils/TokenRegistry.sol:TokenRegistry","label":"_initialized","offset":0,"slot":"0","type":"t_uint8"},{"astId":141,"contract":"src/utils/TokenRegistry.sol:TokenRegistry","label":"_initializing","offset":1,"slot":"0","type":"t_bool"},{"astId":68175,"contract":"src/utils/TokenRegistry.sol:TokenRegistry","label":"__gap","offset":0,"slot":"1","type":"t_array(t_uint256)50_storage"},{"astId":10,"contract":"src/utils/TokenRegistry.sol:TokenRegistry","label":"_owner","offset":0,"slot":"51","type":"t_address"},{"astId":130,"contract":"src/utils/TokenRegistry.sol:TokenRegistry","label":"__gap","offset":0,"slot":"52","type":"t_array(t_uint256)49_storage"},{"astId":65663,"contract":"src/utils/TokenRegistry.sol:TokenRegistry","label":"addressOfTokenName","offset":0,"slot":"101","type":"t_mapping(t_uint256,t_mapping(t_string_memory_ptr,t_address))"},{"astId":65669,"contract":"src/utils/TokenRegistry.sol:TokenRegistry","label":"tokenNameOfAddress","offset":0,"slot":"102","type":"t_mapping(t_uint256,t_mapping(t_address,t_string_storage))"},{"astId":65673,"contract":"src/utils/TokenRegistry.sol:TokenRegistry","label":"chainIdOfName","offset":0,"slot":"103","type":"t_mapping(t_string_memory_ptr,t_uint256)"}],"types":{"t_address":{"encoding":"inplace","label":"address","numberOfBytes":"20"},"t_array(t_uint256)49_storage":{"encoding":"inplace","label":"uint256[49]","numberOfBytes":"1568","base":"t_uint256"},"t_array(t_uint256)50_storage":{"encoding":"inplace","label":"uint256[50]","numberOfBytes":"1600","base":"t_uint256"},"t_bool":{"encoding":"inplace","label":"bool","numberOfBytes":"1"},"t_mapping(t_address,t_string_storage)":{"encoding":"mapping","key":"t_address","label":"mapping(address => string)","numberOfBytes":"32","value":"t_string_storage"},"t_mapping(t_string_memory_ptr,t_address)":{"encoding":"mapping","key":"t_string_memory_ptr","label":"mapping(string => address)","numberOfBytes":"32","value":"t_address"},"t_mapping(t_string_memory_ptr,t_uint256)":{"encoding":"mapping","key":"t_string_memory_ptr","label":"mapping(string => uint256)","numberOfBytes":"32","value":"t_uint256"},"t_mapping(t_uint256,t_mapping(t_address,t_string_storage))":{"encoding":"mapping","key":"t_uint256","label":"mapping(uint256 => mapping(address => string))","numberOfBytes":"32","value":"t_mapping(t_address,t_string_storage)"},"t_mapping(t_uint256,t_mapping(t_string_memory_ptr,t_address))":{"encoding":"mapping","key":"t_uint256","label":"mapping(uint256 => mapping(string => address))","numberOfBytes":"32","value":"t_mapping(t_string_memory_ptr,t_address)"},"t_string_memory_ptr":{"encoding":"bytes","label":"string","numberOfBytes":"32"},"t_string_storage":{"encoding":"bytes","label":"string","numberOfBytes":"32"},"t_uint256":{"encoding":"inplace","label":"uint256","numberOfBytes":"32"},"t_uint8":{"encoding":"inplace","label":"uint8","numberOfBytes":"1"}}},"id":136}