{
  "abi": [
    {
      "inputs": [],
      "stateMutability": "nonpayable",
      "type": "constructor"
    },
    {
      "anonymous": false,
      "inputs": [
        {
          "indexed": true,
          "internalType": "string",
          "name": "chainName",
          "type": "string"
        },
        {
          "indexed": true,
          "internalType": "uint256",
          "name": "chainId",
          "type": "uint256"
        }
      ],
      "name": "ChainRegistered",
      "type": "event"
    },
    {
      "anonymous": false,
      "inputs": [
        {
          "indexed": true,
          "internalType": "address",
          "name": "previousOwner",
          "type": "address"
        },
        {
          "indexed": true,
          "internalType": "address",
          "name": "newOwner",
          "type": "address"
        }
      ],
      "name": "OwnershipTransferred",
      "type": "event"
    },
    {
      "anonymous": false,
      "inputs": [
        {
          "indexed": true,
          "internalType": "uint256",
          "name": "chainId",
          "type": "uint256"
        },
        {
          "indexed": true,
          "internalType": "string",
          "name": "tokenName",
          "type": "string"
        },
        {
          "indexed": true,
          "internalType": "address",
          "name": "addr",
          "type": "address"
        }
      ],
      "name": "TokenRegistered",
      "type": "event"
    },
    {
      "inputs": [
        {
          "internalType": "uint256",
          "name": "",
          "type": "uint256"
        },
        {
          "internalType": "string",
          "name": "",
          "type": "string"
        }
      ],
      "name": "addressOfTokenName",
      "outputs": [
        {
          "internalType": "address",
          "name": "",
          "type": "address"
        }
      ],
      "stateMutability": "view",
      "type": "function"
    },
    {
      "inputs": [
        {
          "internalType": "string",
          "name": "",
          "type": "string"
        }
      ],
      "name": "chainIdOfName",
      "outputs": [
        {
          "internalType": "uint256",
          "name": "",
          "type": "uint256"
        }
      ],
      "stateMutability": "view",
      "type": "function"
    },
    {
      "inputs": [
        {
          "internalType": "string",
          "name": "chainName",
          "type": "string"
        }
      ],
      "name": "getChainIdOfName",
      "outputs": [
        {
          "internalType": "uint256",
          "name": "",
          "type": "uint256"
        }
      ],
      "stateMutability": "view",
      "type": "function"
    },
    {
      "inputs": [
        {
          "internalType": "uint256",
          "name": "chainId",
          "type": "uint256"
        },
        {
          "internalType": "string",
          "name": "tokenName",
          "type": "string"
        }
      ],
      "name": "getTokenAddress",
      "outputs": [
        {
          "internalType": "address",
          "name": "",
          "type": "address"
        }
      ],
      "stateMutability": "view",
      "type": "function"
    },
    {
      "inputs": [
        {
          "internalType": "string",
          "name": "chainName",
          "type": "string"
        },
        {
          "internalType": "string",
          "name": "tokenName",
          "type": "string"
        }
      ],
      "name": "getTokenAddress",
      "outputs": [
        {
          "internalType": "address",
          "name": "",
          "type": "address"
        }
      ],
      "stateMutability": "view",
      "type": "function"
    },
    {
      "inputs": [
        {
          "internalType": "string",
          "name": "tokenName",
          "type": "string"
        }
      ],
      "name": "getTokenAddress",
      "outputs": [
        {
          "internalType": "address",
          "name": "",
          "type": "address"
        }
      ],
      "stateMutability": "view",
      "type": "function"
    },
    {
      "inputs": [
        {
          "internalType": "uint256",
          "name": "chainId",
          "type": "uint256"
        },
        {
          "internalType": "address",
          "name": "addr",
          "type": "address"
        }
      ],
      "name": "getTokenNameOfAddress",
      "outputs": [
        {
          "internalType": "string",
          "name": "",
          "type": "string"
        }
      ],
      "stateMutability": "view",
      "type": "function"
    },
    {
      "inputs": [
        {
          "internalType": "address",
          "name": "addr",
          "type": "address"
        }
      ],
      "name": "getTokenNameOfAddress",
      "outputs": [
        {
          "internalType": "string",
          "name": "",
          "type": "string"
        }
      ],
      "stateMutability": "view",
      "type": "function"
    },
    {
      "inputs": [],
      "name": "owner",
      "outputs": [
        {
          "internalType": "address",
          "name": "",
          "type": "address"
        }
      ],
      "stateMutability": "view",
      "type": "function"
    },
    {
      "inputs": [],
      "name": "renounceOwnership",
      "outputs": [],
      "stateMutability": "nonpayable",
      "type": "function"
    },
    {
      "inputs": [
        {
          "internalType": "string",
          "name": "chainName",
          "type": "string"
        },
        {
          "internalType": "uint256",
          "name": "chainId",
          "type": "uint256"
        }
      ],
      "name": "setChainId",
      "outputs": [],
      "stateMutability": "nonpayable",
      "type": "function"
    },
    {
      "inputs": [
        {
          "internalType": "string",
          "name": "tokenName",
          "type": "string"
        },
        {
          "internalType": "address",
          "name": "addr",
          "type": "address"
        }
      ],
      "name": "setTokenAddress",
      "outputs": [],
      "stateMutability": "nonpayable",
      "type": "function"
    },
    {
      "inputs": [
        {
          "internalType": "uint256",
          "name": "chainId",
          "type": "uint256"
        },
        {
          "internalType": "string",
          "name": "tokenName",
          "type": "string"
        },
        {
          "internalType": "address",
          "name": "addr",
          "type": "address"
        }
      ],
      "name": "setTokenAddress",
      "outputs": [],
      "stateMutability": "nonpayable",
      "type": "function"
    },
    {
      "inputs": [
        {
          "internalType": "uint256",
          "name": "chainId",
          "type": "uint256"
        },
        {
          "internalType": "string[]",
          "name": "tokenNames",
          "type": "string[]"
        },
        {
          "internalType": "address[]",
          "name": "addrs",
          "type": "address[]"
        }
      ],
      "name": "setTokenAddresses",
      "outputs": [],
      "stateMutability": "nonpayable",
      "type": "function"
    },
    {
      "inputs": [
        {
          "internalType": "uint256",
          "name": "",
          "type": "uint256"
        },
        {
          "internalType": "address",
          "name": "",
          "type": "address"
        }
      ],
      "name": "tokenNameOfAddress",
      "outputs": [
        {
          "internalType": "string",
          "name": "",
          "type": "string"
        }
      ],
      "stateMutability": "view",
      "type": "function"
    },
    {
      "inputs": [
        {
          "internalType": "address",
          "name": "newOwner",
          "type": "address"
        }
      ],
      "name": "transferOwnership",
      "outputs": [],
      "stateMutability": "nonpayable",
      "type": "function"
    }
  ],
  "bytecode": {
    "object": "0x608060405234801561001057600080fd5b5061001a336100a2565b6000600360405161003890661b585a5b9b995d60ca1b815260070190565b90815260405190819003602001812091909155676f7074696d69736d60c01b8152600a906003906008019081526040519081900360200181209190915567617262697472756d60c01b815261a4b190600390600801908152604051908190036020019020556100f2565b600080546001600160a01b038381166001600160a01b0319831681178455604051919092169283917f8be0079c531659141344cd1fd0a4f28419497f9722a3daafe3b4186f6b6457e09190a35050565b6113f7806101016000396000f3fe608060405234801561001057600080fd5b50600436106100d05760003560e01c806317456e56146100d55780631bd5130f146100ea5780632515d66014610128578063304cd0401461014857806367cbcb321461015b5780636979e27b146101b8578063715018a6146101cb5780638c7af080146101d35780638da5cb5b146101e6578063a2a7862e146101ee578063b399de4e14610201578063c35b754714610214578063c409123614610227578063e0abd91b1461023a578063e5be9dec1461024d578063f2fde38b14610260575b600080fd5b6100e86100e3366004610e56565b610273565b005b6101156100f8366004610ea3565b805160208183018101805160038252928201919093012091525481565b6040519081526020015b60405180910390f35b61013b610136366004610edf565b61028a565b60405161011f9190610f26565b610115610156366004610ea3565b61045b565b6101a0610169366004610f59565b600160209081526000928352604090922081518083018401805192815290840192909301919091209152546001600160a01b031681565b6040516001600160a01b03909116815260200161011f565b6100e86101c6366004610f9f565b610483565b6100e8610616565b6101a06101e1366004610f59565b61062a565b6101a0610865565b61013b6101fc366004610edf565b610874565b61013b61020f366004610fe3565b610919565b6101a0610222366004610ffe565b610925565b6101a0610235366004610ea3565b6109b9565b6100e86102483660046110ec565b6109c5565b6100e861025b3660046111ca565b610a8b565b6100e861026e366004610fe3565b610c47565b61027b610cc0565b610286468383610a8b565b5050565b60606102b283604051806040016040528060048152602001630ae8aa8960e31b81525061062a565b6001600160a01b0316826001600160a01b0316036102eb57506040805180820190915260048152630ae8aa8960e31b6020820152610455565b610310836040518060400160405280600381526020016244414960e81b81525061062a565b6001600160a01b0316826001600160a01b031603610348575060408051808201909152600381526244414960e81b6020820152610455565b61036e83604051806040016040528060048152602001635553444360e01b81525061062a565b6001600160a01b0316826001600160a01b0316036103a757506040805180820190915260048152635553444360e01b6020820152610455565b60008381526002602090815260408083206001600160a01b0386168452909152902080546103d490611220565b80601f016020809104026020016040519081016040528092919081815260200182805461040090611220565b801561044d5780601f106104225761010080835404028352916020019161044d565b820191906000526020600020905b81548152906001019060200180831161043057829003601f168201915b505050505090505b92915050565b600060038260405161046d919061125a565b9081526020016040518091039020549050919050565b61048b610cc0565b806000036104d75760405162461bcd60e51b81526020600482015260146024820152730636861696e2069642063616e6e6f7420626520360641b60448201526064015b60405180910390fd5b61050082604051806040016040528060078152602001661b585a5b9b995d60ca1b815250610d1f565b1561054b5760405162461bcd60e51b815260206004820152601b60248201527a18d85b9b9bdd081cd95d081b585a5b9b995d0818da185a5b881a59602a1b60448201526064016104ce565b60038260405161055b919061125a565b9081526020016040518091039020546000146105b05760405162461bcd60e51b815260206004820152601460248201527318da185a5b881a5908185b1c9958591e481cd95d60621b60448201526064016104ce565b806003836040516105c1919061125a565b90815260200160405180910390208190555080826040516105e2919061125a565b604051908190038120907f86a4286cd17e837705c9988b6242b5cdd720d832208dd885668ff00e514d28df90600090a35050565b61061e610cc0565b6106286000610d35565b565b6000610651826040518060400160405280600381526020016208aa8960eb1b815250610d1f565b1561067657604051806040016040528060048152602001630ae8aa8960e31b81525091505b61069c82604051806040016040528060048152602001630ae8aa8960e31b815250610d1f565b156106fe57826000036106c4575073c02aaa39b223fe8d0a0e5c4f27ead9083c756cc2610455565b82600a036106da57506006602160991b01610455565b8261a4b1036106fe57507382af49447d8a07e3bd95bd0d56f35241523fbab1610455565b610723826040518060400160405280600381526020016244414960e81b815250610d1f565b15610792578260000361074b5750736b175474e89094c44da98b954eedeac495271d0f610455565b82600a0361076e575073da10009cbd5d07dd0cecc66161fc93d7c9000da1610455565b8261a4b103610792575073da10009cbd5d07dd0cecc66161fc93d7c9000da1610455565b6107b882604051806040016040528060048152602001635553444360e01b815250610d1f565b1561082757826000036107e0575073a0b86991c6218b36c1d19d4a2e9eb0ce3606eb48610455565b82600a036108035750737f5c764cbc14f9669b88837ca1490cca17c31607610455565b8261a4b103610827575073af88d065e77c8cc2239327c5edb3a432268e5831610455565b60008381526001602052604090819020905161084490849061125a565b908152604051908190036020019020546001600160a01b0316905092915050565b6000546001600160a01b031690565b60026020908152600092835260408084209091529082529020805461089890611220565b80601f01602080910402602001604051908101604052809291908181526020018280546108c490611220565b80156109115780601f106108e657610100808354040283529160200191610911565b820191906000526020600020905b8154815290600101906020018083116108f457829003601f168201915b505050505081565b6060610455468361028a565b6000600383604051610937919061125a565b90815260200160405180910390205460000361098a5760405162461bcd60e51b8152602060048201526012602482015271756e6b6e6f776e20636861696e206e616d6560701b60448201526064016104ce565b6109b260038460405161099d919061125a565b9081526020016040518091039020548361062a565b9392505050565b6000610455468361062a565b6109cd610cc0565b8051825114610a2a5760405162461bcd60e51b8152602060048201526024808201527f746f6b656e4e616d657320616e64206164647273206c656e677468206d69736d6044820152630c2e8c6d60e31b60648201526084016104ce565b60005b8251811015610a8557610a7384848381518110610a4c57610a4c611276565b6020026020010151848481518110610a6657610a66611276565b6020026020010151610a8b565b80610a7d8161128c565b915050610a2d565b50505050565b610a93610cc0565b6000838152600160205260408082209051610aaf90859061125a565b908152604051908190036020019020546001600160a01b031614610b105760405162461bcd60e51b8152602060048201526018602482015277151bdad95b88185b1c9958591e481c9959da5cdd195c995960421b60448201526064016104ce565b60008381526002602090815260408083206001600160a01b038516845290915290208054610b3d90611220565b159050610b895760405162461bcd60e51b815260206004820152601a6024820152791059191c995cdcc8185b1c9958591e481c9959da5cdd195c995960321b60448201526064016104ce565b806001600085815260200190815260200160002083604051610bab919061125a565b908152604080516020928190038301902080546001600160a01b0319166001600160a01b039485161790556000868152600283528181209385168152929091529020610bf78382611302565b50806001600160a01b031682604051610c10919061125a565b6040519081900381209085907f6924cd42ac8694ed5f41aa3239ee8ed59cdb393013c29775f1eff5f4e0a6bcf990600090a4505050565b610c4f610cc0565b6001600160a01b038116610cb45760405162461bcd60e51b815260206004820152602660248201527f4f776e61626c653a206e6577206f776e657220697320746865207a65726f206160448201526564647265737360d01b60648201526084016104ce565b610cbd81610d35565b50565b33610cc9610865565b6001600160a01b0316146106285760405162461bcd60e51b815260206004820181905260248201527f4f776e61626c653a2063616c6c6572206973206e6f7420746865206f776e657260448201526064016104ce565b8051602091820120825192909101919091201490565b600080546001600160a01b038381166001600160a01b0319831681178455604051919092169283917f8be0079c531659141344cd1fd0a4f28419497f9722a3daafe3b4186f6b6457e09190a35050565b634e487b7160e01b600052604160045260246000fd5b604051601f8201601f191681016001600160401b0381118282101715610dc357610dc3610d85565b604052919050565b600082601f830112610ddc57600080fd5b81356001600160401b03811115610df557610df5610d85565b610e08601f8201601f1916602001610d9b565b818152846020838601011115610e1d57600080fd5b816020850160208301376000918101602001919091529392505050565b80356001600160a01b0381168114610e5157600080fd5b919050565b60008060408385031215610e6957600080fd5b82356001600160401b03811115610e7f57600080fd5b610e8b85828601610dcb565b925050610e9a60208401610e3a565b90509250929050565b600060208284031215610eb557600080fd5b81356001600160401b03811115610ecb57600080fd5b610ed784828501610dcb565b949350505050565b60008060408385031215610ef257600080fd5b82359150610e9a60208401610e3a565b60005b83811015610f1d578181015183820152602001610f05565b50506000910152565b6020815260008251806020840152610f45816040850160208701610f02565b601f01601f19169190910160400192915050565b60008060408385031215610f6c57600080fd5b8235915060208301356001600160401b03811115610f8957600080fd5b610f9585828601610dcb565b9150509250929050565b60008060408385031215610fb257600080fd5b82356001600160401b03811115610fc857600080fd5b610fd485828601610dcb565b95602094909401359450505050565b600060208284031215610ff557600080fd5b6109b282610e3a565b6000806040838503121561101157600080fd5b82356001600160401b038082111561102857600080fd5b61103486838701610dcb565b9350602085013591508082111561104a57600080fd5b50610f9585828601610dcb565b60006001600160401b0382111561107057611070610d85565b5060051b60200190565b600082601f83011261108b57600080fd5b813560206110a061109b83611057565b610d9b565b82815260059290921b840181019181810190868411156110bf57600080fd5b8286015b848110156110e1576110d481610e3a565b83529183019183016110c3565b509695505050505050565b60008060006060848603121561110157600080fd5b833592506020808501356001600160401b038082111561112057600080fd5b818701915087601f83011261113457600080fd5b813561114261109b82611057565b81815260059190911b8301840190848101908a83111561116157600080fd5b8585015b838110156111995780358581111561117d5760008081fd5b61118b8d89838a0101610dcb565b845250918601918601611165565b509650505060408701359250808311156111b257600080fd5b50506111c08682870161107a565b9150509250925092565b6000806000606084860312156111df57600080fd5b8335925060208401356001600160401b038111156111fc57600080fd5b61120886828701610dcb565b92505061121760408501610e3a565b90509250925092565b600181811c9082168061123457607f821691505b60208210810361125457634e487b7160e01b600052602260045260246000fd5b50919050565b6000825161126c818460208701610f02565b9190910192915050565b634e487b7160e01b600052603260045260246000fd5b6000600182016112ac57634e487b7160e01b600052601160045260246000fd5b5060010190565b601f8211156112fd57600081815260208120601f850160051c810160208610156112da5750805b601f850160051c820191505b818110156112f9578281556001016112e6565b5050505b505050565b81516001600160401b0381111561131b5761131b610d85565b61132f816113298454611220565b846112b3565b602080601f831160018114611364576000841561134c5750858301515b600019600386901b1c1916600185901b1785556112f9565b600085815260208120601f198616915b8281101561139357888601518255948401946001909101908401611374565b50858210156113b15787850151600019600388901b60f8161c191681555b5050505050600190811b0190555056fea264697066735822122015db47f1e7ca9ab333084896d9f8f722fa176ea06f4f51de960a76183505fbb964736f6c63430008110033",
    "linkReferences": {}
  },
  "methodIdentifiers": {
    "addressOfTokenName(uint256,string)": "67cbcb32",
    "chainIdOfName(string)": "1bd5130f",
    "getChainIdOfName(string)": "304cd040",
    "getTokenAddress(string)": "c4091236",
    "getTokenAddress(string,string)": "c35b7547",
    "getTokenAddress(uint256,string)": "8c7af080",
    "getTokenNameOfAddress(address)": "b399de4e",
    "getTokenNameOfAddress(uint256,address)": "2515d660",
    "owner()": "8da5cb5b",
    "renounceOwnership()": "715018a6",
    "setChainId(string,uint256)": "6979e27b",
    "setTokenAddress(string,address)": "17456e56",
    "setTokenAddress(uint256,string,address)": "e5be9dec",
    "setTokenAddresses(uint256,string[],address[])": "e0abd91b",
    "tokenNameOfAddress(uint256,address)": "a2a7862e",
    "transferOwnership(address)": "f2fde38b"
  },
  "id": 145
}