{
  "abi": [
    {
      "inputs": [
        {
          "internalType": "address",
          "name": "wethAddress",
          "type": "address"
        }
      ],
      "stateMutability": "nonpayable",
      "type": "constructor"
    },
    {
      "anonymous": false,
      "inputs": [
        {
          "indexed": false,
          "internalType": "address",
          "name": "previousAdmin",
          "type": "address"
        },
        {
          "indexed": false,
          "internalType": "address",
          "name": "newAdmin",
          "type": "address"
        }
      ],
      "name": "AdminChanged",
      "type": "event"
    },
    {
      "anonymous": false,
      "inputs": [
        {
          "indexed": true,
          "internalType": "address",
          "name": "beacon",
          "type": "address"
        }
      ],
      "name": "BeaconUpgraded",
      "type": "event"
    },
    {
      "anonymous": false,
      "inputs": [
        {
          "indexed": false,
          "internalType": "uint8",
          "name": "version",
          "type": "uint8"
        }
      ],
      "name": "Initialized",
      "type": "event"
    },
    {
      "anonymous": false,
      "inputs": [
        {
          "indexed": true,
          "internalType": "address",
          "name": "previousOwner",
          "type": "address"
        },
        {
          "indexed": true,
          "internalType": "address",
          "name": "newOwner",
          "type": "address"
        }
      ],
      "name": "OwnershipTransferred",
      "type": "event"
    },
    {
      "anonymous": false,
      "inputs": [
        {
          "indexed": true,
          "internalType": "address",
          "name": "implementation",
          "type": "address"
        }
      ],
      "name": "Upgraded",
      "type": "event"
    },
    {
      "stateMutability": "payable",
      "type": "fallback"
    },
    {
      "inputs": [
        {
          "internalType": "address",
          "name": "target",
          "type": "address"
        },
        {
          "internalType": "uint256",
          "name": "value",
          "type": "uint256"
        },
        {
          "internalType": "bytes",
          "name": "data",
          "type": "bytes"
        }
      ],
      "name": "execute",
      "outputs": [],
      "stateMutability": "nonpayable",
      "type": "function"
    },
    {
      "inputs": [],
      "name": "getName",
      "outputs": [
        {
          "internalType": "string",
          "name": "",
          "type": "string"
        }
      ],
      "stateMutability": "pure",
      "type": "function"
    },
    {
      "inputs": [],
      "name": "initialize",
      "outputs": [],
      "stateMutability": "nonpayable",
      "type": "function"
    },
    {
      "inputs": [],
      "name": "owner",
      "outputs": [
        {
          "internalType": "address",
          "name": "",
          "type": "address"
        }
      ],
      "stateMutability": "view",
      "type": "function"
    },
    {
      "inputs": [],
      "name": "proxiableUUID",
      "outputs": [
        {
          "internalType": "bytes32",
          "name": "",
          "type": "bytes32"
        }
      ],
      "stateMutability": "view",
      "type": "function"
    },
    {
      "inputs": [],
      "name": "renounceOwnership",
      "outputs": [],
      "stateMutability": "nonpayable",
      "type": "function"
    },
    {
      "inputs": [
        {
          "internalType": "address",
          "name": "newOwner",
          "type": "address"
        }
      ],
      "name": "transferOwnership",
      "outputs": [],
      "stateMutability": "nonpayable",
      "type": "function"
    },
    {
      "inputs": [
        {
          "internalType": "address",
          "name": "newImplementation",
          "type": "address"
        }
      ],
      "name": "upgradeTo",
      "outputs": [],
      "stateMutability": "nonpayable",
      "type": "function"
    },
    {
      "inputs": [
        {
          "internalType": "address",
          "name": "newImplementation",
          "type": "address"
        },
        {
          "internalType": "bytes",
          "name": "data",
          "type": "bytes"
        }
      ],
      "name": "upgradeToAndCall",
      "outputs": [],
      "stateMutability": "payable",
      "type": "function"
    },
    {
      "stateMutability": "payable",
      "type": "receive"
    }
  ],
  "bytecode": {
    "object": "0x60c06040523060805234801561001457600080fd5b506040516110fb3803806110fb83398101604081905261003391610044565b6001600160a01b031660a052610074565b60006020828403121561005657600080fd5b81516001600160a01b038116811461006d57600080fd5b9392505050565b60805160a0516110466100b560003960006101fe0152600081816102c901528181610309015281816103a8015281816103e8015261047701526110466000f3fe60806040526004361061008a5760003560e01c8063715018a611610059578063715018a6146101355780638129fc1c1461014a5780638da5cb5b1461015f578063b61d27f614610187578063f2fde38b146101a75761009a565b806317d7de7c146100a35780633659cfe6146100df5780634f1ef286146100ff57806352d1902d146101125761009a565b3661009a57610098346101c7565b005b610098346101c7565b3480156100af57600080fd5b50604080518082018252600481526315195cdd60e21b602082015290516100d69190610cd8565b60405180910390f35b3480156100eb57600080fd5b506100986100fa366004610d27565b6102bf565b61009861010d366004610d58565b61039e565b34801561011e57600080fd5b5061012761046a565b6040519081526020016100d6565b34801561014157600080fd5b5061009861051d565b34801561015657600080fd5b50610098610531565b34801561016b57600080fd5b506033546040516001600160a01b0390911681526020016100d6565b34801561019357600080fd5b506100986101a2366004610e1a565b610641565b3480156101b357600080fd5b506100986101c2366004610d27565b610714565b60408051600481526024810182526020810180516001600160e01b0316630d0e30db60e41b17905290516000916001600160a01b037f00000000000000000000000000000000000000000000000000000000000000001691849161022a91610ea1565b60006040518083038185875af1925050503d8060008114610267576040519150601f19603f3d011682016040523d82523d6000602084013e61026c565b606091505b50509050806102bb5760405162461bcd60e51b815260206004820152601660248201527518dbdb9d995c9d081d1bc81dd95d1a0819985a5b195960521b60448201526064015b60405180910390fd5b5050565b6001600160a01b037f00000000000000000000000000000000000000000000000000000000000000001630036103075760405162461bcd60e51b81526004016102b290610ebd565b7f00000000000000000000000000000000000000000000000000000000000000006001600160a01b0316610350600080516020610fca833981519152546001600160a01b031690565b6001600160a01b0316146103765760405162461bcd60e51b81526004016102b290610f09565b61037f8161078a565b6040805160008082526020820190925261039b918391906107e3565b50565b6001600160a01b037f00000000000000000000000000000000000000000000000000000000000000001630036103e65760405162461bcd60e51b81526004016102b290610ebd565b7f00000000000000000000000000000000000000000000000000000000000000006001600160a01b031661042f600080516020610fca833981519152546001600160a01b031690565b6001600160a01b0316146104555760405162461bcd60e51b81526004016102b290610f09565b61045e8261078a565b6102bb828260016107e3565b6000306001600160a01b037f0000000000000000000000000000000000000000000000000000000000000000161461050a5760405162461bcd60e51b815260206004820152603860248201527f555550535570677261646561626c653a206d757374206e6f742062652063616c60448201527f6c6564207468726f7567682064656c656761746563616c6c000000000000000060648201526084016102b2565b50600080516020610fca83398151915290565b610525610953565b61052f60006109ad565b565b600054610100900460ff16158080156105515750600054600160ff909116105b8061056b5750303b15801561056b575060005460ff166001145b6105ce5760405162461bcd60e51b815260206004820152602e60248201527f496e697469616c697a61626c653a20636f6e747261637420697320616c72656160448201526d191e481a5b9a5d1a585b1a5e995960921b60648201526084016102b2565b6000805460ff1916600117905580156105f1576000805461ff0019166101001790555b6105f96109ff565b801561039b576000805461ff0019169055604051600181527f7f26b83ff96e1f2b6a682f133852f6798a09c465da95921460cefb38474024989060200160405180910390a150565b6033546001600160a01b031633148061065957503330145b61069a5760405162461bcd60e51b815260206004820152601260248201527137b7363c9037bbb732b91037b91039b2b63360711b60448201526064016102b2565b600080856001600160a01b03168585856040516106b8929190610f55565b60006040518083038185875af1925050503d80600081146106f5576040519150601f19603f3d011682016040523d82523d6000602084013e6106fa565b606091505b50915091508161070c57805160208201fd5b505050505050565b61071c610953565b6001600160a01b0381166107815760405162461bcd60e51b815260206004820152602660248201527f4f776e61626c653a206e6577206f776e657220697320746865207a65726f206160448201526564647265737360d01b60648201526084016102b2565b61039b816109ad565b6033546001600160a01b03163314806107a257503330145b61039b5760405162461bcd60e51b815260206004820152601260248201527137b7363c9037bbb732b91037b91039b2b63360711b60448201526064016102b2565b7f4910fdfa16fed3260ed0e7147f7cc6da11a60208b5b9406d12a635614ffd91435460ff161561081b5761081683610a2e565b505050565b826001600160a01b03166352d1902d6040518163ffffffff1660e01b8152600401602060405180830381865afa925050508015610875575060408051601f3d908101601f1916820190925261087291810190610f65565b60015b6108d85760405162461bcd60e51b815260206004820152602e60248201527f45524331393637557067726164653a206e657720696d706c656d656e7461746960448201526d6f6e206973206e6f74205555505360901b60648201526084016102b2565b600080516020610fca83398151915281146109475760405162461bcd60e51b815260206004820152602960248201527f45524331393637557067726164653a20756e737570706f727465642070726f786044820152681a58589b195555525160ba1b60648201526084016102b2565b50610816838383610aca565b6033546001600160a01b0316331461052f5760405162461bcd60e51b815260206004820181905260248201527f4f776e61626c653a2063616c6c6572206973206e6f7420746865206f776e657260448201526064016102b2565b603380546001600160a01b038381166001600160a01b0319831681179093556040519116919082907f8be0079c531659141344cd1fd0a4f28419497f9722a3daafe3b4186f6b6457e090600090a35050565b600054610100900460ff16610a265760405162461bcd60e51b81526004016102b290610f7e565b61052f610af5565b6001600160a01b0381163b610a9b5760405162461bcd60e51b815260206004820152602d60248201527f455243313936373a206e657720696d706c656d656e746174696f6e206973206e60448201526c1bdd08184818dbdb9d1c9858dd609a1b60648201526084016102b2565b600080516020610fca83398151915280546001600160a01b0319166001600160a01b0392909216919091179055565b610ad383610b25565b600082511180610ae05750805b1561081657610aef8383610b65565b50505050565b600054610100900460ff16610b1c5760405162461bcd60e51b81526004016102b290610f7e565b61052f336109ad565b610b2e81610a2e565b6040516001600160a01b038216907fbc7cd75a20ee27fd9adebab32041f755214dbc6bffa90cc0225b39da2e5c2d3b90600090a250565b6060610b8a8383604051806060016040528060278152602001610fea60279139610b91565b9392505050565b6060600080856001600160a01b031685604051610bae9190610ea1565b600060405180830381855af49150503d8060008114610be9576040519150601f19603f3d011682016040523d82523d6000602084013e610bee565b606091505b5091509150610bff86838387610c09565b9695505050505050565b60608315610c78578251600003610c71576001600160a01b0385163b610c715760405162461bcd60e51b815260206004820152601d60248201527f416464726573733a2063616c6c20746f206e6f6e2d636f6e747261637400000060448201526064016102b2565b5081610c82565b610c828383610c8a565b949350505050565b815115610c9a5781518083602001fd5b8060405162461bcd60e51b81526004016102b29190610cd8565b60005b83811015610ccf578181015183820152602001610cb7565b50506000910152565b6020815260008251806020840152610cf7816040850160208701610cb4565b601f01601f19169190910160400192915050565b80356001600160a01b0381168114610d2257600080fd5b919050565b600060208284031215610d3957600080fd5b610b8a82610d0b565b634e487b7160e01b600052604160045260246000fd5b60008060408385031215610d6b57600080fd5b610d7483610d0b565b9150602083013567ffffffffffffffff80821115610d9157600080fd5b818501915085601f830112610da557600080fd5b813581811115610db757610db7610d42565b604051601f8201601f19908116603f01168101908382118183101715610ddf57610ddf610d42565b81604052828152886020848701011115610df857600080fd5b8260208601602083013760006020848301015280955050505050509250929050565b60008060008060608587031215610e3057600080fd5b610e3985610d0b565b935060208501359250604085013567ffffffffffffffff80821115610e5d57600080fd5b818701915087601f830112610e7157600080fd5b813581811115610e8057600080fd5b886020828501011115610e9257600080fd5b95989497505060200194505050565b60008251610eb3818460208701610cb4565b9190910192915050565b6020808252602c908201527f46756e6374696f6e206d7573742062652063616c6c6564207468726f7567682060408201526b19195b1959d85d1958d85b1b60a21b606082015260800190565b6020808252602c908201527f46756e6374696f6e206d7573742062652063616c6c6564207468726f7567682060408201526b6163746976652070726f787960a01b606082015260800190565b8183823760009101908152919050565b600060208284031215610f7757600080fd5b5051919050565b6020808252602b908201527f496e697469616c697a61626c653a20636f6e7472616374206973206e6f74206960408201526a6e697469616c697a696e6760a81b60608201526080019056fe360894a13ba1a3210667c828492db98dca3e2076cc3735a920a3ca505d382bbc416464726573733a206c6f772d6c6576656c2064656c65676174652063616c6c206661696c6564a264697066735822122060b37c81fac37868d185353603fe8b4e9864d93abd3b8ccc6f098b14121fd54364736f6c63430008110033",
    "linkReferences": {}
  },
  "methodIdentifiers": {
    "execute(address,uint256,bytes)": "b61d27f6",
    "getName()": "17d7de7c",
    "initialize()": "8129fc1c",
    "owner()": "8da5cb5b",
    "proxiableUUID()": "52d1902d",
    "renounceOwnership()": "715018a6",
    "transferOwnership(address)": "f2fde38b",
    "upgradeTo(address)": "3659cfe6",
    "upgradeToAndCall(address,bytes)": "4f1ef286"
  },
  "id": 121
}