{
  "abi": [
    {
      "inputs": [
        {
          "internalType": "uint256[2]",
          "name": "_pA",
          "type": "uint256[2]"
        },
        {
          "internalType": "uint256[2][2]",
          "name": "_pB",
          "type": "uint256[2][2]"
        },
        {
          "internalType": "uint256[2]",
          "name": "_pC",
          "type": "uint256[2]"
        },
        {
          "internalType": "uint256[11]",
          "name": "_pubSignals",
          "type": "uint256[11]"
        }
      ],
      "name": "verifyProof",
      "outputs": [
        {
          "internalType": "bool",
          "name": "",
          "type": "bool"
        }
      ],
      "stateMutability": "view",
      "type": "function"
    }
  ],
  "bytecode": {
    "object": "0x608060405234801561001057600080fd5b50610914806100206000396000f3fe608060405234801561001057600080fd5b506004361061002b5760003560e01c8063b9c6ea8714610030575b600080fd5b61004361003e366004610878565b610057565b604051901515815260200160405180910390f35b600061079d565b7f30644e72e131a029b85045b68181585d97816a916871ca8d3c208c16d87cfd47811061008f576000805260206000f35b50565b600060405183815284602082015285604082015260408160608360076107d05a03fa9150816100c5576000805260206000f35b825160408201526020830151606082015260408360808360066107d05a03fa915050806100f6576000805260206000f35b5050505050565b7f198429247f4eebafa4b54851b0f560de8cbe70d49bbec7795e9155002be7fe9885527f0adc6edde7ade6f9b4c0fda0d887d197290652eb97512c55fc360604f37d278460208601526000608086018661019a87357f19b14e69471c7b537b862b74bdcec21a162783f6f8c29424be48c1d6a98d37d77f2cf5b518f6adbd1ef9695137f44f331e26c420e26ce34272a7538da859d4cfb884610092565b6101ea60208801357f22b91e419372e5946958a471c497a9a12f2934d53c6663ca78ac3eb832932ff47f2933775a286b4999ab05400d5a4609f5478c26207e2b7a709ca76b71d7dcbf8f84610092565b61023a60408801357f105882b2ce0435d01186d56f24dc46e256b917bf7e8007b9e871070271dcc3ee7f2849f7dd23ca8c5a14072d05c261b1ead8db8d0b8a14de9399ca9ff76c3a394e84610092565b61028a60608801357f250db8732325c2944ba94de74ab8875014bdfa016483f10249e78cfbbf7e36ad7f2d56fe9d639e753c7787887eb3c5be0b5479245162f67ca71e9b51c321517e0c84610092565b6102da60808801357f27f5cece50f2a0386e9a21556ed3b4ef88a8491f793cb784c0bab0e239c7ec397f2f2e57b341a59aa8aef204df6c495f2dc0e935d195cbd427692e054fb7a6516884610092565b61032a60a08801357f1616312b819d3451f07c0662b6971c0ea884ed0a3100442056f6f74fe6bcd3b37f24ee5a1407d7617e0c24663c79a441186bf107159f1ce8c549c11eb6863e6ff984610092565b61037a60c08801357f1c75ffccb71b16acc12c9a0be717c1d6ca1afb01908312d8a6234cd7fff9b67a7f27d1b01d055167ab6360d8b390a1e8ab0cae66b71be05f4a490412ebf1ee532984610092565b6103ca60e08801357f2539465ee99d5e226b7abf7686549ab90712fe40e3d585806b385b6ea3e0b3107f1ae239260748a8f3d3dbef88edf7da9dc5c38ea53a11bf0534c7f27577415d1b84610092565b61041b6101008801357f20664bee6a294af2ec364e09d770e91a13e8f3ac1581665c8afbed46379ee0827f08b24f9a9bd48c63474a9a4fd6a84a41606835c0743278f2d8d8a36abf62f0cd84610092565b61046c6101208801357f2dd53f4b672c89782d9338a07412356356133bad6452096e40a0c3ea57a18b6d7f2fd539da20156f5963f259613bdae6a643f71aa831c8dc12ac705c67667fdac284610092565b6104bd6101408801357f2e51815ff0879150ab18bc21355a0c6344b5a227cea1b8c28909328790c79f037f27dcb1c1dd1fbcb04381d5f9a1a11569acb6c87b0360b33100d8095a006c65b684610092565b50823581527f30644e72e131a029b85045b68181585d97816a916871ca8d3c208c16d87cfd4760208401357f30644e72e131a029b85045b68181585d97816a916871ca8d3c208c16d87cfd4703066020820152833560408201526020840135606082015260408401356080820152606084013560a08201527f2d4d9aa7e302d9df41749d5507949d05dbea33fbb16c643b22f599a2be6df2e260c08201527f14bedd503c37ceb061d8ec60209fe345ce89830a19230301f076caff004d192660e08201527f0967032fcbf776d1afc985f88877f182d38480a653f2decaa9794cbc3bf3060c6101008201527f0e187847ad4c798374d0d6732bf501847dd68bc0e071241e0213bc7fc13db7ab6101208201527f304cfbd1e08a704a99f5e847d93f8c3caafddec46b7a0d379da69a4d112346a76101408201527f1739c1b1a457a8c7313123d24d2f9192f896b7c63eea05a9d57f06547ad0cec8610160820152600087015161018082015260206000018701516101a08201527f198e9393920d483a7260bfb731fb5d25f1aa493335a9e71297e485b7aef312c26101c08201527f1800deef121f1e76426a00665e5c4479674322d4f75edadd46debd5cd992f6ed6101e08201527f090689d0585ff075ec9e99ad690c3395bc4b313370b38ef355acdadcd122975b6102008201527f12c85ea5db8c6deb4aab71808dcb408fe3d1e7690c43d37b4ce6cc0166fa7daa610220820152843561024082015260208501356102608201527f1cbdcc353fe25977e533fca041bd7c3e67a4b0cc6fdaee98aebcfad9a5b127c06102808201527f1db760ced39250226766bcb3a2b9cca8cadbb0eabef00d3f91a710405997bd966102a08201527f21dd23007d952b070ffcbc54f0a9460aaa7b65de943ce08a61b8f70a07d1a51f6102c08201527f29e74cd07046e3be7a0b6b06815da66f8230b8c1b0315b28f4362c7797adb3856102e08201526020816103008360086107d05a03fa9051169695505050505050565b60405161038081016040526107b5600084013561005e565b6107c2602084013561005e565b6107cf604084013561005e565b6107dc606084013561005e565b6107e9608084013561005e565b6107f660a084013561005e565b61080360c084013561005e565b61081060e084013561005e565b61081e61010084013561005e565b61082c61012084013561005e565b61083a61014084013561005e565b61084861016084013561005e565b610855818486888a6100fd565b90508060005260206000f35b806040810183101561087257600080fd5b92915050565b60008060008061026080868803121561089057600080fd5b61089a8787610861565b945060c08601878111156108ad57600080fd5b6040870194506108bd8882610861565b9350508681870111156108cf57600080fd5b5092959194509261010001915056fea2646970667358221220e7a0183b3684be35d2efe9e6bf8a63a2ce9d783644e81093a1f1eca7ff3a6e1464736f6c63430008150033",
    "linkReferences": {}
  },
  "methodIdentifiers": {
    "verifyProof(uint256[2],uint256[2][2],uint256[2],uint256[11])": "b9c6ea87"
  },
  "storageLayout": {
    "storage": [],
    "types": {}
  },
  "id": 144
}