{
  "abi": [
    {
      "inputs": [
        {
          "internalType": "uint256",
          "name": "_unclaimsExpiryDuration",
          "type": "uint256"
        }
      ],
      "stateMutability": "nonpayable",
      "type": "constructor"
    },
    {
      "anonymous": false,
      "inputs": [
        {
          "indexed": true,
          "internalType": "address",
          "name": "previousOwner",
          "type": "address"
        },
        {
          "indexed": true,
          "internalType": "address",
          "name": "newOwner",
          "type": "address"
        }
      ],
      "name": "OwnershipTransferred",
      "type": "event"
    },
    {
      "inputs": [
        {
          "internalType": "bytes32",
          "name": "emailAddrCommit",
          "type": "bytes32"
        },
        {
          "internalType": "bytes32",
          "name": "recipientEmailAddrPointer",
          "type": "bytes32"
        },
        {
          "internalType": "bytes32",
          "name": "relayerRandHash",
          "type": "bytes32"
        },
        {
          "internalType": "address",
          "name": "recipientAddr",
          "type": "address"
        },
        {
          "internalType": "contract IVerifier",
          "name": "verifier",
          "type": "address"
        },
        {
          "internalType": "bytes",
          "name": "proof",
          "type": "bytes"
        }
      ],
      "name": "claimUnclaimedFundInternal",
      "outputs": [],
      "stateMutability": "nonpayable",
      "type": "function"
    },
    {
      "inputs": [
        {
          "internalType": "bytes32",
          "name": "emailAddrCommit",
          "type": "bytes32"
        },
        {
          "internalType": "bytes32",
          "name": "recipientEmailAddrPointer",
          "type": "bytes32"
        },
        {
          "internalType": "bytes32",
          "name": "relayerRandHash",
          "type": "bytes32"
        },
        {
          "internalType": "contract IVerifier",
          "name": "verifier",
          "type": "address"
        },
        {
          "internalType": "bytes",
          "name": "proof",
          "type": "bytes"
        }
      ],
      "name": "claimUnclaimedStateInternal",
      "outputs": [],
      "stateMutability": "nonpayable",
      "type": "function"
    },
    {
      "inputs": [
        {
          "internalType": "bytes32",
          "name": "emailAddrCommit",
          "type": "bytes32"
        }
      ],
      "name": "getUnclaimedFundOfEmailAddrCommit",
      "outputs": [
        {
          "components": [
            {
              "internalType": "bytes32",
              "name": "emailAddrCommit",
              "type": "bytes32"
            },
            {
              "internalType": "address",
              "name": "sender",
              "type": "address"
            },
            {
              "internalType": "address",
              "name": "tokenAddr",
              "type": "address"
            },
            {
              "internalType": "uint256",
              "name": "amount",
              "type": "uint256"
            },
            {
              "internalType": "uint256",
              "name": "expiryTime",
              "type": "uint256"
            }
          ],
          "internalType": "struct UnclaimedFund",
          "name": "",
          "type": "tuple"
        }
      ],
      "stateMutability": "view",
      "type": "function"
    },
    {
      "inputs": [
        {
          "internalType": "bytes32",
          "name": "emailAddrCommit",
          "type": "bytes32"
        }
      ],
      "name": "getUnclaimedStateOfEmailAddrCommit",
      "outputs": [
        {
          "components": [
            {
              "internalType": "bytes32",
              "name": "emailAddrCommit",
              "type": "bytes32"
            },
            {
              "internalType": "address",
              "name": "extensionAddr",
              "type": "address"
            },
            {
              "internalType": "address",
              "name": "sender",
              "type": "address"
            },
            {
              "internalType": "bytes",
              "name": "state",
              "type": "bytes"
            },
            {
              "internalType": "uint256",
              "name": "expiryTime",
              "type": "uint256"
            }
          ],
          "internalType": "struct UnclaimedState",
          "name": "",
          "type": "tuple"
        }
      ],
      "stateMutability": "view",
      "type": "function"
    },
    {
      "inputs": [],
      "name": "owner",
      "outputs": [
        {
          "internalType": "address",
          "name": "",
          "type": "address"
        }
      ],
      "stateMutability": "view",
      "type": "function"
    },
    {
      "inputs": [
        {
          "internalType": "address",
          "name": "msgSender",
          "type": "address"
        },
        {
          "internalType": "bytes32",
          "name": "emailAddrCommit",
          "type": "bytes32"
        },
        {
          "internalType": "address",
          "name": "tokenAddr",
          "type": "address"
        },
        {
          "internalType": "uint256",
          "name": "amount",
          "type": "uint256"
        },
        {
          "internalType": "uint256",
          "name": "expiryTime",
          "type": "uint256"
        }
      ],
      "name": "registerUnclaimedFundInternal",
      "outputs": [],
      "stateMutability": "nonpayable",
      "type": "function"
    },
    {
      "inputs": [
        {
          "internalType": "address",
          "name": "extensionAddr",
          "type": "address"
        },
        {
          "internalType": "bytes",
          "name": "state",
          "type": "bytes"
        },
        {
          "internalType": "bytes32",
          "name": "recipientEmailAddrCommit",
          "type": "bytes32"
        },
        {
          "internalType": "uint256",
          "name": "expiryTime",
          "type": "uint256"
        },
        {
          "internalType": "address",
          "name": "walletAddr",
          "type": "address"
        }
      ],
      "name": "registerUnclaimedStateAsExtensionInternal",
      "outputs": [],
      "stateMutability": "nonpayable",
      "type": "function"
    },
    {
      "inputs": [
        {
          "internalType": "address",
          "name": "msgSender",
          "type": "address"
        },
        {
          "internalType": "bytes32",
          "name": "emailAddrCommit",
          "type": "bytes32"
        },
        {
          "internalType": "address",
          "name": "extensionAddr",
          "type": "address"
        },
        {
          "internalType": "bytes",
          "name": "state",
          "type": "bytes"
        },
        {
          "internalType": "uint256",
          "name": "expiryTime",
          "type": "uint256"
        }
      ],
      "name": "registerUnclaimedStateInternal",
      "outputs": [],
      "stateMutability": "nonpayable",
      "type": "function"
    },
    {
      "inputs": [],
      "name": "renounceOwnership",
      "outputs": [],
      "stateMutability": "nonpayable",
      "type": "function"
    },
    {
      "inputs": [
        {
          "internalType": "address",
          "name": "newOwner",
          "type": "address"
        }
      ],
      "name": "transferOwnership",
      "outputs": [],
      "stateMutability": "nonpayable",
      "type": "function"
    },
    {
      "inputs": [
        {
          "internalType": "bytes32",
          "name": "",
          "type": "bytes32"
        }
      ],
      "name": "unclaimedFundOfEmailAddrCommit",
      "outputs": [
        {
          "internalType": "bytes32",
          "name": "emailAddrCommit",
          "type": "bytes32"
        },
        {
          "internalType": "address",
          "name": "sender",
          "type": "address"
        },
        {
          "internalType": "address",
          "name": "tokenAddr",
          "type": "address"
        },
        {
          "internalType": "uint256",
          "name": "amount",
          "type": "uint256"
        },
        {
          "internalType": "uint256",
          "name": "expiryTime",
          "type": "uint256"
        }
      ],
      "stateMutability": "view",
      "type": "function"
    },
    {
      "inputs": [
        {
          "internalType": "bytes32",
          "name": "",
          "type": "bytes32"
        }
      ],
      "name": "unclaimedStateOfEmailAddrCommit",
      "outputs": [
        {
          "internalType": "bytes32",
          "name": "emailAddrCommit",
          "type": "bytes32"
        },
        {
          "internalType": "address",
          "name": "extensionAddr",
          "type": "address"
        },
        {
          "internalType": "address",
          "name": "sender",
          "type": "address"
        },
        {
          "internalType": "bytes",
          "name": "state",
          "type": "bytes"
        },
        {
          "internalType": "uint256",
          "name": "expiryTime",
          "type": "uint256"
        }
      ],
      "stateMutability": "view",
      "type": "function"
    },
    {
      "inputs": [],
      "name": "unclaimsExpiryDuration",
      "outputs": [
        {
          "internalType": "uint256",
          "name": "",
          "type": "uint256"
        }
      ],
      "stateMutability": "view",
      "type": "function"
    },
    {
      "inputs": [
        {
          "internalType": "bytes32",
          "name": "emailAddrCommit",
          "type": "bytes32"
        },
        {
          "components": [
            {
              "internalType": "bytes32",
              "name": "emailAddrCommit",
              "type": "bytes32"
            },
            {
              "internalType": "address",
              "name": "sender",
              "type": "address"
            },
            {
              "internalType": "address",
              "name": "tokenAddr",
              "type": "address"
            },
            {
              "internalType": "uint256",
              "name": "amount",
              "type": "uint256"
            },
            {
              "internalType": "uint256",
              "name": "expiryTime",
              "type": "uint256"
            }
          ],
          "internalType": "struct UnclaimedFund",
          "name": "fund",
          "type": "tuple"
        }
      ],
      "name": "updateUnclaimFund",
      "outputs": [],
      "stateMutability": "nonpayable",
      "type": "function"
    },
    {
      "inputs": [
        {
          "internalType": "bytes32",
          "name": "emailAddrCommit",
          "type": "bytes32"
        }
      ],
      "name": "voidUnclaimedFundInternal",
      "outputs": [],
      "stateMutability": "nonpayable",
      "type": "function"
    },
    {
      "inputs": [
        {
          "internalType": "bytes32",
          "name": "emailAddrCommit",
          "type": "bytes32"
        }
      ],
      "name": "voidUnclaimedStateInternal",
      "outputs": [],
      "stateMutability": "nonpayable",
      "type": "function"
    }
  ],
  "bytecode": {
    "object": "0x60a060405234801561001057600080fd5b5060405162001e4038038062001e4083398101604081905261003191610092565b61003a33610042565b6080526100ab565b600080546001600160a01b038381166001600160a01b0319831681178455604051919092169283917f8be0079c531659141344cd1fd0a4f28419497f9722a3daafe3b4186f6b6457e09190a35050565b6000602082840312156100a457600080fd5b5051919050565b608051611d79620000c760003960006102eb0152611d796000f3fe608060405234801561001057600080fd5b50600436106100d05760003560e01c806328b698b3146100d5578063715018a6146100ea5780637283e01a146100f257806385ff24b3146101055780638a6f0470146101875780638da5cb5b1461019a57806393b048b6146101ba57806396aca6881461029a5780639d796b6e146102ad5780639d9234a7146102c0578063b4eca1cd146102d3578063cdbe49f0146102e6578063df1451c51461031b578063f2fde38b1461033b578063fadce8191461034e578063fe269cf814610361575b600080fd5b6100e86100e336600461157b565b610385565b005b6100e8610664565b6100e86101003660046115f5565b610678565b61014e61011336600461167a565b6001602081905260009182526040909120805491810154600282015460038301546004909301546001600160a01b0392831693919092169185565b604080519586526001600160a01b03948516602087015292909316918401919091526060830152608082015260a0015b60405180910390f35b6100e86101953660046116d5565b6107f4565b6101a2610862565b6040516001600160a01b03909116815260200161017e565b61024f6101c836600461167a565b6040805160a08101825260008082526020820181905291810182905260608101829052608081019190915250600090815260016020818152604092839020835160a08101855281548152928101546001600160a01b039081169284019290925260028101549091169282019290925260038201546060820152600490910154608082015290565b60408051825181526020808401516001600160a01b0390811691830191909152838301511691810191909152606080830151908201526080918201519181019190915260a00161017e565b6100e86102a8366004611771565b610871565b6100e86102bb3660046117ec565b610aa1565b6100e86102ce36600461183e565b610cd4565b6100e86102e136600461167a565b610f42565b61030d7f000000000000000000000000000000000000000000000000000000000000000081565b60405190815260200161017e565b61032e61032936600461167a565b611024565b60405161017e9190611955565b6100e861034936600461196f565b61113c565b6100e861035c36600461167a565b6111b5565b61037461036f36600461167a565b61135c565b60405161017e95949392919061198c565b61038d611421565b816103c75760405162461bcd60e51b81526020600482015260056024820152644557352e3160d81b60448201526064015b60405180910390fd5b846103fc5760405162461bcd60e51b815260206004820152600560248201526422ab9a971960d91b60448201526064016103be565b4281116104335760405162461bcd60e51b81526020600482015260056024820152644557352e3360d81b60448201526064016103be565b600085815260026020819052604090912001546001600160a01b0316156104845760405162461bcd60e51b81526020600482015260056024820152641155cd4b8d60da1b60448201526064016103be565b60006040518060a00160405280878152602001866001600160a01b03168152602001886001600160a01b0316815260200185858080601f0160208091040260200160405190810160405280939291908181526020018383808284376000920182905250938552505050602090910184905260405163534e4af760e01b815291925086916001600160a01b0383169163534e4af7916105269186916004016119d0565b600060405180830381600087803b15801561054057600080fd5b505af1925050508015610551575060015b6105e55761055d6119f4565b806308c379a0036105b35750610571611a10565b8061057c57506105b5565b8060405160200161058d9190611a99565b60408051601f198184030181529082905262461bcd60e51b82526103be91600401611ac8565b505b60405162461bcd60e51b815260206004820152600560248201526422ab9a971b60d91b60448201526064016103be565b60008781526002602081815260409283902085518155908501516001820180546001600160a01b03199081166001600160a01b03938416179091559386015192820180549094169216919091179091556060830151839190600382019061064c9082611b64565b50608082015181600401559050505050505050505050565b61066c611421565b6106766000611480565b565b610680611421565b600087815260016020818152604092839020835160a08101855281548152928101546001600160a01b03908116928401929092526002810154909116928201929092526003820154606082018190526004909201546080820152906106f75760405162461bcd60e51b81526004016103be90611c23565b4281608001511161071a5760405162461bcd60e51b81526004016103be90611c48565b6040516380dc373760e01b81526001600160a01b038516906380dc37379061074e9089908b908d9089908990600401611c69565b602060405180830381865afa15801561076b573d6000803e3d6000fd5b505050506040513d601f19601f8201168201806040525081019061078f9190611cad565b6107ab5760405162461bcd60e51b81526004016103be90611ccf565b50505060009485525050600160208190526040842084815590810180546001600160a01b0319908116909155600282018054909116905560038101849055600401929092555050565b6107fc611421565b600091825260016020818152604093849020835181559083015191810180546001600160a01b039384166001600160a01b031991821617909155938301516002820180549190931694169390931790556060810151600383015560800151600490910155565b6000546001600160a01b031690565b610879611421565b600083815260026020819052604090912001546001600160a01b0316156108ca5760405162461bcd60e51b81526020600482015260056024820152644557382e3160d81b60448201526064016103be565b836108ff5760405162461bcd60e51b81526020600482015260056024820152644557382e3360d81b60448201526064016103be565b60006040518060a00160405280858152602001886001600160a01b03168152602001836001600160a01b0316815260200187878080601f0160208091040260200160405190810160405280939291908181526020018383808284376000920182905250938552505050602090910185905260405163534e4af760e01b815291925088916001600160a01b0383169163534e4af7916109a19186916004016119d0565b600060405180830381600087803b1580156109bb57600080fd5b505af19250505080156109cc575060015b610a3a576109d86119f4565b806308c379a003610a0857506109ec611a10565b806109f75750610a0a565b8060405160200161058d9190611cfc565b505b60405162461bcd60e51b815260206004820152600560248201526422ab9c171b60d91b60448201526064016103be565b60008581526002602081815260409283902085518155908501516001820180546001600160a01b03199081166001600160a01b03938416179091559386015192820180549094169216919091179091556060830151839190600382019061064c9082611b64565b610aa9611421565b60008211610ae15760405162461bcd60e51b81526020600482015260056024820152644557322e3160d81b60448201526064016103be565b6001600160a01b038316610b1f5760405162461bcd60e51b815260206004820152600560248201526422ab99171960d91b60448201526064016103be565b83610b545760405162461bcd60e51b81526020600482015260056024820152644557322e3360d81b60448201526064016103be565b428111610b8b5760405162461bcd60e51b81526020600482015260056024820152641155cc8b8d60da1b60448201526064016103be565b60008481526001602052604090206003015415610bd25760405162461bcd60e51b81526020600482015260056024820152644557322e3560d81b60448201526064016103be565b6040516323b872dd60e01b81526001600160a01b038681166004830152306024830152604482018490528416906323b872dd906064016020604051808303816000875af1158015610c27573d6000803e3d6000fd5b505050506040513d601f19601f82011682018060405250810190610c4b9190611cad565b506040805160a0810182528581526001600160a01b039687166020808301918252958816828401908152606083019586526080830194855260009788526001968790529290962090518155945193850180549487166001600160a01b03199586161790555160028501805491909616931692909217909355915160038201559051600490910155565b610cdc611421565b6000868152600260208181526040808420815160a0810183528154815260018201546001600160a01b03908116948201949094529381015490921690830152600381018054606084019190610d3090611adb565b80601f0160208091040260200160405190810160405280929190818152602001828054610d5c90611adb565b8015610da95780601f10610d7e57610100808354040283529160200191610da9565b820191906000526020600020905b815481529060010190602001808311610d8c57829003601f168201915b50505091835250506004919091015460209091015260408101519091506001600160a01b0316610deb5760405162461bcd60e51b81526004016103be90611d1e565b60208101516001600160a01b0316610e3a5760405162461bcd60e51b81526020600482015260126024820152710657874656e73696f6e4164647220697320360741b60448201526064016103be565b42816080015111610e5d5760405162461bcd60e51b81526004016103be90611c48565b6040516380dc373760e01b81526001600160a01b038516906380dc373790610e919088908a908c9089908990600401611c69565b602060405180830381865afa158015610eae573d6000803e3d6000fd5b505050506040513d601f19601f82011682018060405250810190610ed29190611cad565b610eee5760405162461bcd60e51b81526004016103be90611ccf565b600087815260026020819052604082208281556001810180546001600160a01b0319908116909155918101805490921690915590610f2f60038301826114d0565b6004820160009055505050505050505050565b610f4a611421565b600081815260016020818152604092839020835160a08101855281548152928101546001600160a01b0390811692840192909252600281015490911692820192909252600382015460608201819052600490920154608082015290610fc15760405162461bcd60e51b81526004016103be90611c23565b42816080015111610fe45760405162461bcd60e51b81526004016103be90611c48565b506000908152600160208190526040822082815590810180546001600160a01b031990811690915560028201805490911690556003810182905560040155565b6040805160a0810182526000808252602082018190529181018290526060808201526080810191909152600082815260026020818152604092839020835160a0810185528154815260018201546001600160a01b039081169382019390935292810154909116928201929092526003820180549192916060840191906110a990611adb565b80601f01602080910402602001604051908101604052809291908181526020018280546110d590611adb565b80156111225780601f106110f757610100808354040283529160200191611122565b820191906000526020600020905b81548152906001019060200180831161110557829003601f168201915b505050505081526020016004820154815250509050919050565b611144611421565b6001600160a01b0381166111a95760405162461bcd60e51b815260206004820152602660248201527f4f776e61626c653a206e6577206f776e657220697320746865207a65726f206160448201526564647265737360d01b60648201526084016103be565b6111b281611480565b50565b6111bd611421565b6000818152600260208181526040808420815160a0810183528154815260018201546001600160a01b0390811694820194909452938101549092169083015260038101805460608401919061121190611adb565b80601f016020809104026020016040519081016040528092919081815260200182805461123d90611adb565b801561128a5780601f1061125f5761010080835404028352916020019161128a565b820191906000526020600020905b81548152906001019060200180831161126d57829003601f168201915b50505091835250506004919091015460209091015260408101519091506001600160a01b03166112cc5760405162461bcd60e51b81526004016103be90611d1e565b4281608001511061130d5760405162461bcd60e51b815260206004820152600b60248201526a1b9bdd08195e1c1a5c995960aa1b60448201526064016103be565b600082815260026020819052604082208281556001810180546001600160a01b031990811690915591810180549092169091559061134e60038301826114d0565b600482016000905550505050565b6002602081905260009182526040909120805460018201549282015460038301805492946001600160a01b039081169492169261139890611adb565b80601f01602080910402602001604051908101604052809291908181526020018280546113c490611adb565b80156114115780601f106113e657610100808354040283529160200191611411565b820191906000526020600020905b8154815290600101906020018083116113f457829003601f168201915b5050505050908060040154905085565b3361142a610862565b6001600160a01b0316146106765760405162461bcd60e51b815260206004820181905260248201527f4f776e61626c653a2063616c6c6572206973206e6f7420746865206f776e657260448201526064016103be565b600080546001600160a01b038381166001600160a01b0319831681178455604051919092169283917f8be0079c531659141344cd1fd0a4f28419497f9722a3daafe3b4186f6b6457e09190a35050565b5080546114dc90611adb565b6000825580601f106114ec575050565b601f0160209004906000526020600020908101906111b291905b8082111561151a5760008155600101611506565b5090565b6001600160a01b03811681146111b257600080fd5b60008083601f84011261154557600080fd5b5081356001600160401b0381111561155c57600080fd5b60208301915083602082850101111561157457600080fd5b9250929050565b60008060008060008060a0878903121561159457600080fd5b863561159f8161151e565b95506020870135945060408701356115b68161151e565b935060608701356001600160401b038111156115d157600080fd5b6115dd89828a01611533565b979a9699509497949695608090950135949350505050565b600080600080600080600060c0888a03121561161057600080fd5b87359650602088013595506040880135945060608801356116308161151e565b935060808801356116408161151e565b925060a08801356001600160401b0381111561165b57600080fd5b6116678a828b01611533565b989b979a50959850939692959293505050565b60006020828403121561168c57600080fd5b5035919050565b634e487b7160e01b600052604160045260246000fd5b601f8201601f191681016001600160401b03811182821017156116ce576116ce611693565b6040525050565b60008082840360c08112156116e957600080fd5b8335925060a0601f19820112156116ff57600080fd5b5060405160a081016001600160401b038111828210171561172257611722611693565b60409081526020850135825284013561173a8161151e565b6020820152606084013561174d8161151e565b6040820152608084810135606083015260a090940135938101939093525092909150565b60008060008060008060a0878903121561178a57600080fd5b86356117958161151e565b955060208701356001600160401b038111156117b057600080fd5b6117bc89828a01611533565b909650945050604087013592506060870135915060808701356117de8161151e565b809150509295509295509295565b600080600080600060a0868803121561180457600080fd5b853561180f8161151e565b94506020860135935060408601356118268161151e565b94979396509394606081013594506080013592915050565b60008060008060008060a0878903121561185757600080fd5b86359550602087013594506040870135935060608701356118778161151e565b925060808701356001600160401b0381111561189257600080fd5b61189e89828a01611533565b979a9699509497509295939492505050565b60005b838110156118cb5781810151838201526020016118b3565b50506000910152565b600081518084526118ec8160208601602086016118b0565b601f01601f19169290920160200192915050565b805182526000602082015160018060a01b0380821660208601528060408501511660408601525050606082015160a0606085015261194160a08501826118d4565b608093840151949093019390935250919050565b6020815260006119686020830184611900565b9392505050565b60006020828403121561198157600080fd5b81356119688161151e565b8581526001600160a01b0385811660208301528416604082015260a0606082018190526000906119be908301856118d4565b90508260808301529695505050505050565b6040815260006119e36040830185611900565b905082151560208301529392505050565b600060033d1115611a0d5760046000803e5060005160e01c5b90565b600060443d1015611a1e5790565b6040516003193d81016004833e81513d6001600160401b038083116024840183101715611a4d57505050505090565b8285019150815181811115611a655750505050505090565b843d8701016020828501011115611a7f5750505050505090565b611a8e602082860101876116a9565b509095945050505050565b66022ab9a971a9d160cd1b815260008251611abb8160078501602087016118b0565b9190910160070192915050565b60208152600061196860208301846118d4565b600181811c90821680611aef57607f821691505b602082108103611b0f57634e487b7160e01b600052602260045260246000fd5b50919050565b601f821115611b5f57600081815260208120601f850160051c81016020861015611b3c5750805b601f850160051c820191505b81811015611b5b57828155600101611b48565b5050505b505050565b81516001600160401b03811115611b7d57611b7d611693565b611b9181611b8b8454611adb565b84611b15565b602080601f831160018114611bc65760008415611bae5750858301515b600019600386901b1c1916600185901b178555611b5b565b600085815260208120601f198616915b82811015611bf557888601518255948401946001909101908401611bd6565b5085821015611c135787850151600019600388901b60f8161c191681555b5050505050600190811b01905550565b6020808252600b908201526a0616d6f756e7420697320360ac1b604082015260600190565b602080825260079082015266195e1c1a5c995960ca1b604082015260600190565b85815284602082015283604082015260806060820152816080820152818360a0830137600081830160a090810191909152601f909201601f19160101949350505050565b600060208284031215611cbf57600080fd5b8151801515811461196857600080fd5b60208082526013908201527234b73b30b634b21031b630b4b690383937b7b360691b604082015260600190565b66022ab9c171a9d160cd1b815260008251611abb8160078501602087016118b0565b6020808252600b908201526a073656e64657220697320360ac1b60408201526060019056fea26469706673582212203d486fe2cec43a183c8b9e88feaf261fc0fce10c839cbed1ffa16e273e5d55c564736f6c63430008110033",
    "linkReferences": {}
  },
  "methodIdentifiers": {
    "claimUnclaimedFundInternal(bytes32,bytes32,bytes32,address,address,bytes)": "7283e01a",
    "claimUnclaimedStateInternal(bytes32,bytes32,bytes32,address,bytes)": "9d9234a7",
    "getUnclaimedFundOfEmailAddrCommit(bytes32)": "93b048b6",
    "getUnclaimedStateOfEmailAddrCommit(bytes32)": "df1451c5",
    "owner()": "8da5cb5b",
    "registerUnclaimedFundInternal(address,bytes32,address,uint256,uint256)": "9d796b6e",
    "registerUnclaimedStateAsExtensionInternal(address,bytes,bytes32,uint256,address)": "96aca688",
    "registerUnclaimedStateInternal(address,bytes32,address,bytes,uint256)": "28b698b3",
    "renounceOwnership()": "715018a6",
    "transferOwnership(address)": "f2fde38b",
    "unclaimedFundOfEmailAddrCommit(bytes32)": "85ff24b3",
    "unclaimedStateOfEmailAddrCommit(bytes32)": "fe269cf8",
    "unclaimsExpiryDuration()": "cdbe49f0",
    "updateUnclaimFund(bytes32,(bytes32,address,address,uint256,uint256))": "8a6f0470",
    "voidUnclaimedFundInternal(bytes32)": "b4eca1cd",
    "voidUnclaimedStateInternal(bytes32)": "fadce819"
  },
  "id": 119
}