{
  "abi": [
    {
      "inputs": [],
      "name": "ADDRESS_TEMPLATE",
      "outputs": [
        {
          "internalType": "string",
          "name": "",
          "type": "string"
        }
      ],
      "stateMutability": "view",
      "type": "function"
    },
    {
      "inputs": [],
      "name": "AMOUNT_TEMPLATE",
      "outputs": [
        {
          "internalType": "string",
          "name": "",
          "type": "string"
        }
      ],
      "stateMutability": "view",
      "type": "function"
    },
    {
      "inputs": [],
      "name": "DKIM",
      "outputs": [
        {
          "internalType": "string",
          "name": "",
          "type": "string"
        }
      ],
      "stateMutability": "view",
      "type": "function"
    },
    {
      "inputs": [],
      "name": "EXECUTE",
      "outputs": [
        {
          "internalType": "string",
          "name": "",
          "type": "string"
        }
      ],
      "stateMutability": "view",
      "type": "function"
    },
    {
      "inputs": [],
      "name": "EXIT_EMAIL_WALLET",
      "outputs": [
        {
          "internalType": "string",
          "name": "",
          "type": "string"
        }
      ],
      "stateMutability": "view",
      "type": "function"
    },
    {
      "inputs": [],
      "name": "INSTALL_EXTENSION",
      "outputs": [
        {
          "internalType": "string",
          "name": "",
          "type": "string"
        }
      ],
      "stateMutability": "view",
      "type": "function"
    },
    {
      "inputs": [],
      "name": "INT_TEMPLATE",
      "outputs": [
        {
          "internalType": "string",
          "name": "",
          "type": "string"
        }
      ],
      "stateMutability": "view",
      "type": "function"
    },
    {
      "inputs": [],
      "name": "RECIPIENT_TEMPLATE",
      "outputs": [
        {
          "internalType": "string",
          "name": "",
          "type": "string"
        }
      ],
      "stateMutability": "view",
      "type": "function"
    },
    {
      "inputs": [],
      "name": "SEND",
      "outputs": [
        {
          "internalType": "string",
          "name": "",
          "type": "string"
        }
      ],
      "stateMutability": "view",
      "type": "function"
    },
    {
      "inputs": [],
      "name": "STRING_TEMPLATE",
      "outputs": [
        {
          "internalType": "string",
          "name": "",
          "type": "string"
        }
      ],
      "stateMutability": "view",
      "type": "function"
    },
    {
      "inputs": [],
      "name": "TOKEN_AMOUNT_TEMPLATE",
      "outputs": [
        {
          "internalType": "string",
          "name": "",
          "type": "string"
        }
      ],
      "stateMutability": "view",
      "type": "function"
    },
    {
      "inputs": [],
      "name": "UINT_TEMPLATE",
      "outputs": [
        {
          "internalType": "string",
          "name": "",
          "type": "string"
        }
      ],
      "stateMutability": "view",
      "type": "function"
    },
    {
      "inputs": [],
      "name": "UNINSTALL_EXTENSION",
      "outputs": [
        {
          "internalType": "string",
          "name": "",
          "type": "string"
        }
      ],
      "stateMutability": "view",
      "type": "function"
    }
  ],
  "bytecode": {
    "object": "0x61034b61003a600b82828239805160001a60731461002d57634e487b7160e01b600052600060045260246000fd5b30600052607381538281f3fe73000000000000000000000000000000000000000030146080604052600436106100b95760003560e01c806307e6fcd0146100be5780630e6db37b146100f95780630ec07449146101205780631f5e13341461014a5780632564f64a1461016d578063328b77701461019557806335c8b1ec146101bb57806382a576cb146101e257806386eae84b146102055780638c2150361461022b578063a14b1f8514610257578063d95dcc351461027a578063e30f17cd146102a2575b600080fd5b6100e3604051806040016040528060068152602001657b75696e747d60d01b81525081565b6040516100f091906102c6565b60405180910390f35b6100e3604051806040016040528060088152602001677b616d6f756e747d60c01b81525081565b6100e36040518060400160405280600b81526020016a7b726563697069656e747d60a81b81525081565b6100e36040518060400160405280600481526020016314d95b9960e21b81525081565b6100e360405180604001604052806009815260200168155b9a5b9cdd185b1b60ba1b81525081565b6100e3604051806040016040528060078152602001664578656375746560c81b81525081565b6100e3604051806040016040528060088152602001677b737472696e677d60c01b81525081565b6100e360405180604001604052806004815260200163115e1a5d60e21b81525081565b6100e360405180604001604052806007815260200166125b9cdd185b1b60ca1b81525081565b6100e36040518060400160405280600d81526020016c7b746f6b656e416d6f756e747d60981b81525081565b6100e360405180604001604052806004815260200163444b494d60e01b81525081565b6100e3604051806040016040528060098152602001687b616464726573737d60b81b81525081565b6100e3604051806040016040528060058152602001647b696e747d60d81b81525081565b60006020808352835180602085015260005b818110156102f4578581018301518582016040015282016102d8565b506000604082860101526040601f19601f830116850101925050509291505056fea26469706673582212200af2a22564b39c209583e2e1f15067bc2c4c0462592ef21736153fede6fa6c3d64736f6c63430008170033",
    "linkReferences": {}
  },
  "methodIdentifiers": {
    "ADDRESS_TEMPLATE()": "d95dcc35",
    "AMOUNT_TEMPLATE()": "0e6db37b",
    "DKIM()": "a14b1f85",
    "EXECUTE()": "328b7770",
    "EXIT_EMAIL_WALLET()": "82a576cb",
    "INSTALL_EXTENSION()": "86eae84b",
    "INT_TEMPLATE()": "e30f17cd",
    "RECIPIENT_TEMPLATE()": "0ec07449",
    "SEND()": "1f5e1334",
    "STRING_TEMPLATE()": "35c8b1ec",
    "TOKEN_AMOUNT_TEMPLATE()": "8c215036",
    "UINT_TEMPLATE()": "07e6fcd0",
    "UNINSTALL_EXTENSION()": "2564f64a"
  },
  "id": 139
}