{
  "abi": [
    {
      "inputs": [],
      "name": "ADDRESS_TEMPLATE",
      "outputs": [
        {
          "internalType": "string",
          "name": "",
          "type": "string"
        }
      ],
      "stateMutability": "view",
      "type": "function"
    },
    {
      "inputs": [],
      "name": "AMOUNT_TEMPLATE",
      "outputs": [
        {
          "internalType": "string",
          "name": "",
          "type": "string"
        }
      ],
      "stateMutability": "view",
      "type": "function"
    },
    {
      "inputs": [],
      "name": "DKIM",
      "outputs": [
        {
          "internalType": "string",
          "name": "",
          "type": "string"
        }
      ],
      "stateMutability": "view",
      "type": "function"
    },
    {
      "inputs": [],
      "name": "EXECUTE",
      "outputs": [
        {
          "internalType": "string",
          "name": "",
          "type": "string"
        }
      ],
      "stateMutability": "view",
      "type": "function"
    },
    {
      "inputs": [],
      "name": "EXIT_EMAIL_WALLET",
      "outputs": [
        {
          "internalType": "string",
          "name": "",
          "type": "string"
        }
      ],
      "stateMutability": "view",
      "type": "function"
    },
    {
      "inputs": [],
      "name": "INSTALL_EXTENSION",
      "outputs": [
        {
          "internalType": "string",
          "name": "",
          "type": "string"
        }
      ],
      "stateMutability": "view",
      "type": "function"
    },
    {
      "inputs": [],
      "name": "INT_TEMPLATE",
      "outputs": [
        {
          "internalType": "string",
          "name": "",
          "type": "string"
        }
      ],
      "stateMutability": "view",
      "type": "function"
    },
    {
      "inputs": [],
      "name": "RECIPIENT_TEMPLATE",
      "outputs": [
        {
          "internalType": "string",
          "name": "",
          "type": "string"
        }
      ],
      "stateMutability": "view",
      "type": "function"
    },
    {
      "inputs": [],
      "name": "SEND",
      "outputs": [
        {
          "internalType": "string",
          "name": "",
          "type": "string"
        }
      ],
      "stateMutability": "view",
      "type": "function"
    },
    {
      "inputs": [],
      "name": "STRING_TEMPLATE",
      "outputs": [
        {
          "internalType": "string",
          "name": "",
          "type": "string"
        }
      ],
      "stateMutability": "view",
      "type": "function"
    },
    {
      "inputs": [],
      "name": "TOKEN_AMOUNT_TEMPLATE",
      "outputs": [
        {
          "internalType": "string",
          "name": "",
          "type": "string"
        }
      ],
      "stateMutability": "view",
      "type": "function"
    },
    {
      "inputs": [],
      "name": "UINT_TEMPLATE",
      "outputs": [
        {
          "internalType": "string",
          "name": "",
          "type": "string"
        }
      ],
      "stateMutability": "view",
      "type": "function"
    },
    {
      "inputs": [],
      "name": "UNINSTALL_EXTENSION",
      "outputs": [
        {
          "internalType": "string",
          "name": "",
          "type": "string"
        }
      ],
      "stateMutability": "view",
      "type": "function"
    }
  ],
  "bytecode": {
    "object": "0x6104b261003a600b82828239805160001a60731461002d57634e487b7160e01b600052600060045260246000fd5b30600052607381538281f3fe73000000000000000000000000000000000000000030146080604052600436106100e95760003560e01c806335c8b1ec116100965780638c215036116100705780638c21503614610320578063a14b1f851461035c578063d95dcc3514610398578063e30f17cd146103d457600080fd5b806335c8b1ec1461026c57806382a576cb146102a857806386eae84b146102e457600080fd5b80631f5e1334116100c75780631f5e1334146101b85780632564f64a146101f4578063328b77701461023057600080fd5b806307e6fcd0146100ee5780630e6db37b146101405780630ec074491461017c575b600080fd5b61012a6040518060400160405280600681526020017f7b75696e747d000000000000000000000000000000000000000000000000000081525081565b6040516101379190610410565b60405180910390f35b61012a6040518060400160405280600881526020017f7b616d6f756e747d00000000000000000000000000000000000000000000000081525081565b61012a6040518060400160405280600b81526020017f7b726563697069656e747d00000000000000000000000000000000000000000081525081565b61012a6040518060400160405280600481526020017f53656e640000000000000000000000000000000000000000000000000000000081525081565b61012a6040518060400160405280600981526020017f556e696e7374616c6c000000000000000000000000000000000000000000000081525081565b61012a6040518060400160405280600781526020017f457865637574650000000000000000000000000000000000000000000000000081525081565b61012a6040518060400160405280600881526020017f7b737472696e677d00000000000000000000000000000000000000000000000081525081565b61012a6040518060400160405280600481526020017f457869740000000000000000000000000000000000000000000000000000000081525081565b61012a6040518060400160405280600781526020017f496e7374616c6c0000000000000000000000000000000000000000000000000081525081565b61012a6040518060400160405280600d81526020017f7b746f6b656e416d6f756e747d0000000000000000000000000000000000000081525081565b61012a6040518060400160405280600481526020017f444b494d0000000000000000000000000000000000000000000000000000000081525081565b61012a6040518060400160405280600981526020017f7b616464726573737d000000000000000000000000000000000000000000000081525081565b61012a6040518060400160405280600581526020017f7b696e747d00000000000000000000000000000000000000000000000000000081525081565b600060208083528351808285015260005b8181101561043d57858101830151858201604001528201610421565b5060006040828601015260407fffffffffffffffffffffffffffffffffffffffffffffffffffffffffffffffe0601f830116850101925050509291505056fea2646970667358221220b11a75b0cf17ec0023882b113b5a1f61dea868f1157e44904602e5a5f18d976f64736f6c63430008150033",
    "linkReferences": {}
  },
  "methodIdentifiers": {
    "ADDRESS_TEMPLATE()": "d95dcc35",
    "AMOUNT_TEMPLATE()": "0e6db37b",
    "DKIM()": "a14b1f85",
    "EXECUTE()": "328b7770",
    "EXIT_EMAIL_WALLET()": "82a576cb",
    "INSTALL_EXTENSION()": "86eae84b",
    "INT_TEMPLATE()": "e30f17cd",
    "RECIPIENT_TEMPLATE()": "0ec07449",
    "SEND()": "1f5e1334",
    "STRING_TEMPLATE()": "35c8b1ec",
    "TOKEN_AMOUNT_TEMPLATE()": "8c215036",
    "UINT_TEMPLATE()": "07e6fcd0",
    "UNINSTALL_EXTENSION()": "2564f64a"
  },
  "storageLayout": {
    "storage": [],
    "types": {}
  },
  "id": 143
}