{
  "abi": [
    {
      "inputs": [],
      "stateMutability": "nonpayable",
      "type": "constructor"
    },
    {
      "anonymous": false,
      "inputs": [
        {
          "indexed": true,
          "internalType": "address",
          "name": "owner",
          "type": "address"
        },
        {
          "indexed": true,
          "internalType": "address",
          "name": "approved",
          "type": "address"
        },
        {
          "indexed": true,
          "internalType": "uint256",
          "name": "tokenId",
          "type": "uint256"
        }
      ],
      "name": "Approval",
      "type": "event"
    },
    {
      "anonymous": false,
      "inputs": [
        {
          "indexed": true,
          "internalType": "address",
          "name": "owner",
          "type": "address"
        },
        {
          "indexed": true,
          "internalType": "address",
          "name": "operator",
          "type": "address"
        },
        {
          "indexed": false,
          "internalType": "bool",
          "name": "approved",
          "type": "bool"
        }
      ],
      "name": "ApprovalForAll",
      "type": "event"
    },
    {
      "anonymous": false,
      "inputs": [
        {
          "indexed": true,
          "internalType": "address",
          "name": "from",
          "type": "address"
        },
        {
          "indexed": true,
          "internalType": "address",
          "name": "to",
          "type": "address"
        },
        {
          "indexed": true,
          "internalType": "uint256",
          "name": "tokenId",
          "type": "uint256"
        }
      ],
      "name": "Transfer",
      "type": "event"
    },
    {
      "inputs": [
        {
          "internalType": "address",
          "name": "to",
          "type": "address"
        },
        {
          "internalType": "uint256",
          "name": "tokenId",
          "type": "uint256"
        }
      ],
      "name": "approve",
      "outputs": [],
      "stateMutability": "nonpayable",
      "type": "function"
    },
    {
      "inputs": [
        {
          "internalType": "address",
          "name": "owner",
          "type": "address"
        }
      ],
      "name": "balanceOf",
      "outputs": [
        {
          "internalType": "uint256",
          "name": "",
          "type": "uint256"
        }
      ],
      "stateMutability": "view",
      "type": "function"
    },
    {
      "inputs": [
        {
          "internalType": "address",
          "name": "to",
          "type": "address"
        },
        {
          "internalType": "uint256",
          "name": "tokenId",
          "type": "uint256"
        }
      ],
      "name": "freeMint",
      "outputs": [],
      "stateMutability": "nonpayable",
      "type": "function"
    },
    {
      "inputs": [
        {
          "internalType": "uint256",
          "name": "tokenId",
          "type": "uint256"
        }
      ],
      "name": "getApproved",
      "outputs": [
        {
          "internalType": "address",
          "name": "",
          "type": "address"
        }
      ],
      "stateMutability": "view",
      "type": "function"
    },
    {
      "inputs": [
        {
          "internalType": "address",
          "name": "owner",
          "type": "address"
        },
        {
          "internalType": "address",
          "name": "operator",
          "type": "address"
        }
      ],
      "name": "isApprovedForAll",
      "outputs": [
        {
          "internalType": "bool",
          "name": "",
          "type": "bool"
        }
      ],
      "stateMutability": "view",
      "type": "function"
    },
    {
      "inputs": [],
      "name": "name",
      "outputs": [
        {
          "internalType": "string",
          "name": "",
          "type": "string"
        }
      ],
      "stateMutability": "view",
      "type": "function"
    },
    {
      "inputs": [
        {
          "internalType": "uint256",
          "name": "tokenId",
          "type": "uint256"
        }
      ],
      "name": "ownerOf",
      "outputs": [
        {
          "internalType": "address",
          "name": "",
          "type": "address"
        }
      ],
      "stateMutability": "view",
      "type": "function"
    },
    {
      "inputs": [
        {
          "internalType": "address",
          "name": "from",
          "type": "address"
        },
        {
          "internalType": "address",
          "name": "to",
          "type": "address"
        },
        {
          "internalType": "uint256",
          "name": "tokenId",
          "type": "uint256"
        }
      ],
      "name": "safeTransferFrom",
      "outputs": [],
      "stateMutability": "nonpayable",
      "type": "function"
    },
    {
      "inputs": [
        {
          "internalType": "address",
          "name": "from",
          "type": "address"
        },
        {
          "internalType": "address",
          "name": "to",
          "type": "address"
        },
        {
          "internalType": "uint256",
          "name": "tokenId",
          "type": "uint256"
        },
        {
          "internalType": "bytes",
          "name": "data",
          "type": "bytes"
        }
      ],
      "name": "safeTransferFrom",
      "outputs": [],
      "stateMutability": "nonpayable",
      "type": "function"
    },
    {
      "inputs": [
        {
          "internalType": "address",
          "name": "operator",
          "type": "address"
        },
        {
          "internalType": "bool",
          "name": "approved",
          "type": "bool"
        }
      ],
      "name": "setApprovalForAll",
      "outputs": [],
      "stateMutability": "nonpayable",
      "type": "function"
    },
    {
      "inputs": [
        {
          "internalType": "bytes4",
          "name": "interfaceId",
          "type": "bytes4"
        }
      ],
      "name": "supportsInterface",
      "outputs": [
        {
          "internalType": "bool",
          "name": "",
          "type": "bool"
        }
      ],
      "stateMutability": "view",
      "type": "function"
    },
    {
      "inputs": [],
      "name": "symbol",
      "outputs": [
        {
          "internalType": "string",
          "name": "",
          "type": "string"
        }
      ],
      "stateMutability": "view",
      "type": "function"
    },
    {
      "inputs": [
        {
          "internalType": "uint256",
          "name": "tokenId",
          "type": "uint256"
        }
      ],
      "name": "tokenURI",
      "outputs": [
        {
          "internalType": "string",
          "name": "",
          "type": "string"
        }
      ],
      "stateMutability": "view",
      "type": "function"
    },
    {
      "inputs": [
        {
          "internalType": "address",
          "name": "from",
          "type": "address"
        },
        {
          "internalType": "address",
          "name": "to",
          "type": "address"
        },
        {
          "internalType": "uint256",
          "name": "tokenId",
          "type": "uint256"
        }
      ],
      "name": "transferFrom",
      "outputs": [],
      "stateMutability": "nonpayable",
      "type": "function"
    }
  ],
  "bytecode": {
    "object": "0x60806040523480156200001157600080fd5b506040518060400160405280600981526020016844756d6d794170657360b81b8152506040518060400160405280600381526020016241504560e81b815250816000908162000061919062000120565b50600162000070828262000120565b505050620001ec565b634e487b7160e01b600052604160045260246000fd5b600181811c90821680620000a457607f821691505b602082108103620000c557634e487b7160e01b600052602260045260246000fd5b50919050565b601f8211156200011b576000816000526020600020601f850160051c81016020861015620000f65750805b601f850160051c820191505b81811015620001175782815560010162000102565b5050505b505050565b81516001600160401b038111156200013c576200013c62000079565b62000154816200014d84546200008f565b84620000cb565b602080601f8311600181146200018c5760008415620001735750858301515b600019600386901b1c1916600185901b17855562000117565b600085815260208120601f198616915b82811015620001bd578886015182559484019460019091019084016200019c565b5085821015620001dc5787850151600019600388901b60f8161c191681555b5050505050600190811b01905550565b61121b80620001fc6000396000f3fe608060405234801561001057600080fd5b50600436106100ba5760003560e01c806301ffc9a7146100bf57806306fdde03146100e7578063081812fc146100fc578063095ea7b31461012757806323b872dd1461013c57806342842e0e1461014f5780636352211e1461016257806370a082311461017557806395d89b41146101965780639883566e1461019e578063a22cb465146101b1578063b88d4fde146101c4578063c87b56dd146101d7578063e985e9c5146101ea575b600080fd5b6100d26100cd366004610d20565b6101fd565b60405190151581526020015b60405180910390f35b6100ef61024f565b6040516100de9190610d8d565b61010f61010a366004610da0565b6102e1565b6040516001600160a01b0390911681526020016100de565b61013a610135366004610dd5565b610308565b005b61013a61014a366004610dff565b610422565b61013a61015d366004610dff565b610453565b61010f610170366004610da0565b61046e565b610188610183366004610e3b565b6104a2565b6040519081526020016100de565b6100ef610528565b61013a6101ac366004610dd5565b610537565b61013a6101bf366004610e56565b610545565b61013a6101d2366004610ea8565b610550565b6100ef6101e5366004610da0565b610588565b6100d26101f8366004610f83565b6105fc565b60006001600160e01b031982166380ac58cd60e01b148061022e57506001600160e01b03198216635b5e139f60e01b145b8061024957506301ffc9a760e01b6001600160e01b03198316145b92915050565b60606000805461025e90610fb6565b80601f016020809104026020016040519081016040528092919081815260200182805461028a90610fb6565b80156102d75780601f106102ac576101008083540402835291602001916102d7565b820191906000526020600020905b8154815290600101906020018083116102ba57829003601f168201915b5050505050905090565b60006102ec8261062a565b506000908152600460205260409020546001600160a01b031690565b60006103138261046e565b9050806001600160a01b0316836001600160a01b0316036103855760405162461bcd60e51b815260206004820152602160248201527f4552433732313a20617070726f76616c20746f2063757272656e74206f776e656044820152603960f91b60648201526084015b60405180910390fd5b336001600160a01b03821614806103a157506103a181336105fc565b6104135760405162461bcd60e51b815260206004820152603d60248201527f4552433732313a20617070726f76652063616c6c6572206973206e6f7420746f60448201527f6b656e206f776e6572206f7220617070726f76656420666f7220616c6c000000606482015260840161037c565b61041d8383610652565b505050565b61042c33826106c0565b6104485760405162461bcd60e51b815260040161037c90610ff0565b61041d83838361071f565b61041d83838360405180602001604052806000815250610550565b60008061047a83610871565b90506001600160a01b0381166102495760405162461bcd60e51b815260040161037c9061103d565b60006001600160a01b03821661050c5760405162461bcd60e51b815260206004820152602960248201527f4552433732313a2061646472657373207a65726f206973206e6f7420612076616044820152683634b21037bbb732b960b91b606482015260840161037c565b506001600160a01b031660009081526003602052604090205490565b60606001805461025e90610fb6565b610541828261088c565b5050565b610541338383610987565b61055a33836106c0565b6105765760405162461bcd60e51b815260040161037c90610ff0565b61058284848484610a51565b50505050565b60606105938261062a565b60006105aa60408051602081019091526000815290565b905060008151116105ca57604051806020016040528060008152506105f5565b806105d484610a84565b6040516020016105e592919061106f565b6040516020818303038152906040525b9392505050565b6001600160a01b03918216600090815260056020908152604080832093909416825291909152205460ff1690565b61063381610b16565b61064f5760405162461bcd60e51b815260040161037c9061103d565b50565b600081815260046020526040902080546001600160a01b0319166001600160a01b03841690811790915581906106878261046e565b6001600160a01b03167f8c5be1e5ebec7d5bd14f71427d1e84f3dd0314c0f7b2291e5b200ac8c7c3b92560405160405180910390a45050565b6000806106cc8361046e565b9050806001600160a01b0316846001600160a01b031614806106f357506106f381856105fc565b806107175750836001600160a01b031661070c846102e1565b6001600160a01b0316145b949350505050565b826001600160a01b03166107328261046e565b6001600160a01b0316146107585760405162461bcd60e51b815260040161037c9061109e565b6001600160a01b0382166107ba5760405162461bcd60e51b8152602060048201526024808201527f4552433732313a207472616e7366657220746f20746865207a65726f206164646044820152637265737360e01b606482015260840161037c565b826001600160a01b03166107cd8261046e565b6001600160a01b0316146107f35760405162461bcd60e51b815260040161037c9061109e565b600081815260046020908152604080832080546001600160a01b03199081169091556001600160a01b0387811680865260038552838620805460001901905590871680865283862080546001019055868652600290945282852080549092168417909155905184936000805160206111c683398151915291a4505050565b6000908152600260205260409020546001600160a01b031690565b6001600160a01b0382166108e25760405162461bcd60e51b815260206004820181905260248201527f4552433732313a206d696e7420746f20746865207a65726f2061646472657373604482015260640161037c565b6108eb81610b16565b156109085760405162461bcd60e51b815260040161037c906110e3565b61091181610b16565b1561092e5760405162461bcd60e51b815260040161037c906110e3565b6001600160a01b038216600081815260036020908152604080832080546001019055848352600290915280822080546001600160a01b0319168417905551839291906000805160206111c6833981519152908290a45050565b816001600160a01b0316836001600160a01b0316036109e45760405162461bcd60e51b815260206004820152601960248201527822a9219b99189d1030b8383937bb32903a379031b0b63632b960391b604482015260640161037c565b6001600160a01b03838116600081815260056020908152604080832094871680845294825291829020805460ff191686151590811790915591519182527f17307eab39ab6107e8899845ad3d59bd9653f200f220920489ca2b5937696c31910160405180910390a3505050565b610a5c84848461071f565b610a6884848484610b33565b6105825760405162461bcd60e51b815260040161037c90611119565b60606000610a9183610c34565b60010190506000816001600160401b03811115610ab057610ab0610e92565b6040519080825280601f01601f191660200182016040528015610ada576020820181803683370190505b5090508181016020015b600019016f181899199a1a9b1b9c1cb0b131b232b360811b600a86061a8153600a8504945084610ae457509392505050565b600080610b2283610871565b6001600160a01b0316141592915050565b60006001600160a01b0384163b15610c2957604051630a85bd0160e11b81526001600160a01b0385169063150b7a0290610b7790339089908890889060040161116b565b6020604051808303816000875af1925050508015610bb2575060408051601f3d908101601f19168201909252610baf918101906111a8565b60015b610c0f573d808015610be0576040519150601f19603f3d011682016040523d82523d6000602084013e610be5565b606091505b508051600003610c075760405162461bcd60e51b815260040161037c90611119565b805181602001fd5b6001600160e01b031916630a85bd0160e11b149050610717565b506001949350505050565b60008072184f03e93ff9f4daa797ed6e38ed64bf6a1f0160401b8310610c735772184f03e93ff9f4daa797ed6e38ed64bf6a1f0160401b830492506040015b6904ee2d6d415b85acef8160201b8310610c9d576904ee2d6d415b85acef8160201b830492506020015b662386f26fc100008310610cbb57662386f26fc10000830492506010015b6305f5e1008310610cd3576305f5e100830492506008015b6127108310610ce757612710830492506004015b60648310610cf9576064830492506002015b600a83106102495760010192915050565b6001600160e01b03198116811461064f57600080fd5b600060208284031215610d3257600080fd5b81356105f581610d0a565b60005b83811015610d58578181015183820152602001610d40565b50506000910152565b60008151808452610d79816020860160208601610d3d565b601f01601f19169290920160200192915050565b6020815260006105f56020830184610d61565b600060208284031215610db257600080fd5b5035919050565b80356001600160a01b0381168114610dd057600080fd5b919050565b60008060408385031215610de857600080fd5b610df183610db9565b946020939093013593505050565b600080600060608486031215610e1457600080fd5b610e1d84610db9565b9250610e2b60208501610db9565b9150604084013590509250925092565b600060208284031215610e4d57600080fd5b6105f582610db9565b60008060408385031215610e6957600080fd5b610e7283610db9565b915060208301358015158114610e8757600080fd5b809150509250929050565b634e487b7160e01b600052604160045260246000fd5b60008060008060808587031215610ebe57600080fd5b610ec785610db9565b9350610ed560208601610db9565b92506040850135915060608501356001600160401b0380821115610ef857600080fd5b818701915087601f830112610f0c57600080fd5b813581811115610f1e57610f1e610e92565b604051601f8201601f19908116603f01168101908382118183101715610f4657610f46610e92565b816040528281528a6020848701011115610f5f57600080fd5b82602086016020830137600060208483010152809550505050505092959194509250565b60008060408385031215610f9657600080fd5b610f9f83610db9565b9150610fad60208401610db9565b90509250929050565b600181811c90821680610fca57607f821691505b602082108103610fea57634e487b7160e01b600052602260045260246000fd5b50919050565b6020808252602d908201527f4552433732313a2063616c6c6572206973206e6f7420746f6b656e206f776e6560408201526c1c881bdc88185c1c1c9bdd9959609a1b606082015260800190565b602080825260189082015277115490cdcc8c4e881a5b9d985b1a59081d1bdad95b88125160421b604082015260600190565b60008351611081818460208801610d3d565b835190830190611095818360208801610d3d565b01949350505050565b60208082526025908201527f4552433732313a207472616e736665722066726f6d20696e636f72726563742060408201526437bbb732b960d91b606082015260800190565b6020808252601c908201527b115490cdcc8c4e881d1bdad95b88185b1c9958591e481b5a5b9d195960221b604082015260600190565b60208082526032908201527f4552433732313a207472616e7366657220746f206e6f6e20455243373231526560408201527131b2b4bb32b91034b6b83632b6b2b73a32b960711b606082015260800190565b6001600160a01b038581168252841660208201526040810183905260806060820181905260009061119e90830184610d61565b9695505050505050565b6000602082840312156111ba57600080fd5b81516105f581610d0a56feddf252ad1be2c89b69c2b068fc378daa952ba7f163c4a11628f55a4df523b3efa2646970667358221220c2544330702613c74d577678a5a702706bca36e7b392eaca753810c2deab42eb64736f6c63430008170033",
    "linkReferences": {}
  },
  "methodIdentifiers": {
    "approve(address,uint256)": "095ea7b3",
    "balanceOf(address)": "70a08231",
    "freeMint(address,uint256)": "9883566e",
    "getApproved(uint256)": "081812fc",
    "isApprovedForAll(address,address)": "e985e9c5",
    "name()": "06fdde03",
    "ownerOf(uint256)": "6352211e",
    "safeTransferFrom(address,address,uint256)": "42842e0e",
    "safeTransferFrom(address,address,uint256,bytes)": "b88d4fde",
    "setApprovalForAll(address,bool)": "a22cb465",
    "supportsInterface(bytes4)": "01ffc9a7",
    "symbol()": "95d89b41",
    "tokenURI(uint256)": "c87b56dd",
    "transferFrom(address,address,uint256)": "23b872dd"
  },
  "id": 177
}