{
  "abi": [
    {
      "inputs": [
        {
          "internalType": "uint256",
          "name": "num",
          "type": "uint256"
        }
      ],
      "name": "process",
      "outputs": [
        {
          "internalType": "uint256",
          "name": "",
          "type": "uint256"
        }
      ],
      "stateMutability": "nonpayable",
      "type": "function"
    }
  ],
  "bytecode": {
    "object": "0x608060405234801561001057600080fd5b5060cd8061001f6000396000f3fe6080604052348015600f57600080fd5b506004361060285760003560e01c8063ffb2c47914602d575b600080fd5b603c6038366004605f565b604e565b60405190815260200160405180910390f35b600060598260016077565b92915050565b600060208284031215607057600080fd5b5035919050565b80820180821115605957634e487b7160e01b600052601160045260246000fdfea2646970667358221220f29f6cf0e9d780a635bfd0298cae254d761cf88efbf3f0069a3cf011bf82b82664736f6c63430008110033",
    "linkReferences": {}
  },
  "methodIdentifiers": {
    "process(uint256)": "ffb2c479"
  },
  "id": 113
}