{"abi":[{"type":"constructor","inputs":[],"stateMutability":"nonpayable"},{"type":"function","name":"accountKeyCommitOfPointer","inputs":[{"name":"","type":"bytes32","internalType":"bytes32"}],"outputs":[{"name":"","type":"bytes32","internalType":"bytes32"}],"stateMutability":"view"},{"type":"function","name":"createAccount","inputs":[{"name":"emailAddrPointer","type":"bytes32","internalType":"bytes32"},{"name":"accountKeyCommit","type":"bytes32","internalType":"bytes32"},{"name":"walletSalt","type":"bytes32","internalType":"bytes32"},{"name":"psiPoint","type":"bytes","internalType":"bytes"},{"name":"proof","type":"bytes","internalType":"bytes"}],"outputs":[{"name":"wallet","type":"address","internalType":"contract Wallet"}],"stateMutability":"nonpayable"},{"type":"function","name":"defaultDkimRegistry","inputs":[],"outputs":[{"name":"","type":"address","internalType":"contract IDKIMRegistry"}],"stateMutability":"view"},{"type":"function","name":"dkimRegistryOfWalletSalt","inputs":[{"name":"","type":"bytes32","internalType":"bytes32"}],"outputs":[{"name":"","type":"address","internalType":"address"}],"stateMutability":"view"},{"type":"function","name":"emailNullifiers","inputs":[{"name":"","type":"bytes32","internalType":"bytes32"}],"outputs":[{"name":"","type":"bool","internalType":"bool"}],"stateMutability":"view"},{"type":"function","name":"emailValidityDuration","inputs":[],"outputs":[{"name":"","type":"uint256","internalType":"uint256"}],"stateMutability":"view"},{"type":"function","name":"getInfoOfAccountKeyCommit","inputs":[{"name":"accountKeyCommit","type":"bytes32","internalType":"bytes32"}],"outputs":[{"name":"","type":"tuple","internalType":"struct AccountKeyInfo","components":[{"name":"relayer","type":"address","internalType":"address"},{"name":"initialized","type":"bool","internalType":"bool"},{"name":"walletSalt","type":"bytes32","internalType":"bytes32"}]}],"stateMutability":"view"},{"type":"function","name":"getWalletOfEmailAddrPointer","inputs":[{"name":"emailAddrPointer","type":"bytes32","internalType":"bytes32"}],"outputs":[{"name":"","type":"address","internalType":"address"}],"stateMutability":"view"},{"type":"function","name":"getWalletOfSalt","inputs":[{"name":"salt","type":"bytes32","internalType":"bytes32"}],"outputs":[{"name":"","type":"address","internalType":"address"}],"stateMutability":"view"},{"type":"function","name":"infoOfAccountKeyCommit","inputs":[{"name":"","type":"bytes32","internalType":"bytes32"}],"outputs":[{"name":"relayer","type":"address","internalType":"address"},{"name":"initialized","type":"bool","internalType":"bool"},{"name":"walletSalt","type":"bytes32","internalType":"bytes32"}],"stateMutability":"view"},{"type":"function","name":"initialize","inputs":[{"name":"_relayerHandler","type":"address","internalType":"address"},{"name":"_defaultDkimRegistry","type":"address","internalType":"address"},{"name":"_verifier","type":"address","internalType":"address"},{"name":"_walletImplementation","type":"address","internalType":"address"},{"name":"_emailValidityDuration","type":"uint256","internalType":"uint256"}],"outputs":[],"stateMutability":"nonpayable"},{"type":"function","name":"initializeAccount","inputs":[{"name":"emailAddrPointer","type":"bytes32","internalType":"bytes32"},{"name":"emailDomain","type":"string","internalType":"string"},{"name":"emailTimestamp","type":"uint256","internalType":"uint256"},{"name":"emailNullifier","type":"bytes32","internalType":"bytes32"},{"name":"dkimPublicKeyHash","type":"bytes32","internalType":"bytes32"},{"name":"proof","type":"bytes","internalType":"bytes"}],"outputs":[],"stateMutability":"nonpayable"},{"type":"function","name":"isDKIMPublicKeyHashValid","inputs":[{"name":"walletSalt","type":"bytes32","internalType":"bytes32"},{"name":"emailDomain","type":"string","internalType":"string"},{"name":"publicKeyHash","type":"bytes32","internalType":"bytes32"}],"outputs":[{"name":"","type":"bool","internalType":"bool"}],"stateMutability":"view"},{"type":"function","name":"owner","inputs":[],"outputs":[{"name":"","type":"address","internalType":"address"}],"stateMutability":"view"},{"type":"function","name":"pointerOfPSIPoint","inputs":[{"name":"","type":"bytes","internalType":"bytes"}],"outputs":[{"name":"","type":"bytes32","internalType":"bytes32"}],"stateMutability":"view"},{"type":"function","name":"proxiableUUID","inputs":[],"outputs":[{"name":"","type":"bytes32","internalType":"bytes32"}],"stateMutability":"view"},{"type":"function","name":"relayerHandler","inputs":[],"outputs":[{"name":"","type":"address","internalType":"contract RelayerHandler"}],"stateMutability":"view"},{"type":"function","name":"renounceOwnership","inputs":[],"outputs":[],"stateMutability":"nonpayable"},{"type":"function","name":"transferOwnership","inputs":[{"name":"newOwner","type":"address","internalType":"address"}],"outputs":[],"stateMutability":"nonpayable"},{"type":"function","name":"updateDKIMRegistryOfWalletSalt","inputs":[{"name":"walletSalt","type":"bytes32","internalType":"bytes32"},{"name":"dkimRegistry","type":"address","internalType":"address"}],"outputs":[],"stateMutability":"nonpayable"},{"type":"function","name":"upgradeTo","inputs":[{"name":"newImplementation","type":"address","internalType":"address"}],"outputs":[],"stateMutability":"nonpayable"},{"type":"function","name":"upgradeToAndCall","inputs":[{"name":"newImplementation","type":"address","internalType":"address"},{"name":"data","type":"bytes","internalType":"bytes"}],"outputs":[],"stateMutability":"payable"},{"type":"function","name":"verifier","inputs":[],"outputs":[{"name":"","type":"address","internalType":"contract IVerifier"}],"stateMutability":"view"},{"type":"function","name":"walletImplementation","inputs":[],"outputs":[{"name":"","type":"address","internalType":"address"}],"stateMutability":"view"},{"type":"event","name":"AccountCreated","inputs":[{"name":"emailAddrPointer","type":"bytes32","indexed":false,"internalType":"bytes32"},{"name":"accountKeyCommit","type":"bytes32","indexed":false,"internalType":"bytes32"},{"name":"walletSalt","type":"bytes32","indexed":true,"internalType":"bytes32"},{"name":"psiPoint","type":"bytes","indexed":false,"internalType":"bytes"}],"anonymous":false},{"type":"event","name":"AccountInitialized","inputs":[{"name":"emailAddrPointer","type":"bytes32","indexed":false,"internalType":"bytes32"},{"name":"accountKeyCommit","type":"bytes32","indexed":false,"internalType":"bytes32"},{"name":"walletSalt","type":"bytes32","indexed":true,"internalType":"bytes32"}],"anonymous":false},{"type":"event","name":"AdminChanged","inputs":[{"name":"previousAdmin","type":"address","indexed":false,"internalType":"address"},{"name":"newAdmin","type":"address","indexed":false,"internalType":"address"}],"anonymous":false},{"type":"event","name":"BeaconUpgraded","inputs":[{"name":"beacon","type":"address","indexed":true,"internalType":"address"}],"anonymous":false},{"type":"event","name":"Initialized","inputs":[{"name":"version","type":"uint8","indexed":false,"internalType":"uint8"}],"anonymous":false},{"type":"event","name":"OwnershipTransferred","inputs":[{"name":"previousOwner","type":"address","indexed":true,"internalType":"address"},{"name":"newOwner","type":"address","indexed":true,"internalType":"address"}],"anonymous":false},{"type":"event","name":"Upgraded","inputs":[{"name":"implementation","type":"address","indexed":true,"internalType":"address"}],"anonymous":false}],"bytecode":{"object":"0x60a0604052306080523480156200001557600080fd5b506200002062000026565b620000e7565b600054610100900460ff1615620000935760405162461bcd60e51b815260206004820152602760248201527f496e697469616c697a61626c653a20636f6e747261637420697320696e697469604482015266616c697a696e6760c81b606482015260840160405180910390fd5b60005460ff90811614620000e5576000805460ff191660ff9081179091556040519081527f7f26b83ff96e1f2b6a682f133852f6798a09c465da95921460cefb38474024989060200160405180910390a15b565b608051612e1e6200011f60003960008181610733015281816107cf0152818161096e01528181610a060152610b3c0152612e1e6000f3fe608060405260043610620001ab5760003560e01c80638117abc111620000e7578063ba591a361162000089578063d842484e1162000060578063d842484e146200067d578063f2fde38b14620006a2578063f7013ef614620006c757600080fd5b8063ba591a36146200057e578063bf68c30614620005af578063d343d5ca146200064e57600080fd5b8063a99b6ac611620000be578063a99b6ac614620004fa578063acae05fe1462000541578063b90d36f9146200056657600080fd5b80638117abc114620004625780638da5cb5b1462000491578063a92014dd14620004be57600080fd5b806352d1902d11620001515780636b0f047d11620001285780636b0f047d14620003515780636dd50f8b1462000425578063715018a6146200044a57600080fd5b806352d1902d14620002d65780635664c78e14620002fd5780635e5f2610146200032257600080fd5b80633659cfe611620001865780633659cfe6146200027357806340d20041146200029a5780634f1ef28614620002bf57600080fd5b806301262dd214620001b057806317ace6b514620001ff5780632b7ac3f31462000244575b600080fd5b348015620001bd57600080fd5b50620001d5620001cf366004620021b8565b620006ec565b60405173ffffffffffffffffffffffffffffffffffffffff90911681526020015b60405180910390f35b3480156200020c57600080fd5b50620002336200021e366004620021b8565b606e6020526000908152604090205460ff1681565b6040519015158152602001620001f6565b3480156200025157600080fd5b50606854620001d59073ffffffffffffffffffffffffffffffffffffffff1681565b3480156200028057600080fd5b506200029862000292366004620021fc565b6200071c565b005b348015620002a757600080fd5b5062000298620002b93660046200221a565b620008fa565b62000298620002d036600462002336565b62000957565b348015620002e357600080fd5b50620002ee62000b22565b604051908152602001620001f6565b3480156200030a57600080fd5b50620001d56200031c366004620021b8565b62000bf6565b3480156200032f57600080fd5b50606754620001d59073ffffffffffffffffffffffffffffffffffffffff1681565b3480156200035e57600080fd5b50620003ea62000370366004620021b8565b604080516060808201835260008083526020808401829052928401819052938452606c82529282902082519384018352805473ffffffffffffffffffffffffffffffffffffffff8116855274010000000000000000000000000000000000000000900460ff16151591840191909152600101549082015290565b60408051825173ffffffffffffffffffffffffffffffffffffffff1681526020808401511515908201529181015190820152606001620001f6565b3480156200043257600080fd5b50620001d562000444366004620023d6565b62000d1b565b3480156200045757600080fd5b50620002986200108b565b3480156200046f57600080fd5b50606654620001d59073ffffffffffffffffffffffffffffffffffffffff1681565b3480156200049e57600080fd5b5060335473ffffffffffffffffffffffffffffffffffffffff16620001d5565b348015620004cb57600080fd5b50620002ee620004dd3660046200246a565b8051602081830181018051606b8252928201919093012091525481565b3480156200050757600080fd5b50620001d562000519366004620021b8565b606d6020526000908152604090205473ffffffffffffffffffffffffffffffffffffffff1681565b3480156200054e57600080fd5b506200029862000560366004620024a3565b620010a3565b3480156200057357600080fd5b50620002ee606f5481565b3480156200058b57600080fd5b50620002ee6200059d366004620021b8565b606a6020526000908152604090205481565b348015620005bc57600080fd5b506200061b620005ce366004620021b8565b606c602052600090815260409020805460019091015473ffffffffffffffffffffffffffffffffffffffff82169174010000000000000000000000000000000000000000900460ff169083565b6040805173ffffffffffffffffffffffffffffffffffffffff9094168452911515602084015290820152606001620001f6565b3480156200065b57600080fd5b50606554620001d59073ffffffffffffffffffffffffffffffffffffffff1681565b3480156200068a57600080fd5b50620002336200069c36600462002540565b6200154e565b348015620006af57600080fd5b5062000298620006c1366004620021fc565b62001637565b348015620006d457600080fd5b5062000298620006e6366004620025a9565b620016d7565b6000818152606a60209081526040808320548352606c909152812060010154620007169062000bf6565b92915050565b73ffffffffffffffffffffffffffffffffffffffff7f0000000000000000000000000000000000000000000000000000000000000000163003620007cd5760405162461bcd60e51b815260206004820152602c60248201527f46756e6374696f6e206d7573742062652063616c6c6564207468726f7567682060448201527f64656c656761746563616c6c000000000000000000000000000000000000000060648201526084015b60405180910390fd5b7f000000000000000000000000000000000000000000000000000000000000000073ffffffffffffffffffffffffffffffffffffffff16620008437f360894a13ba1a3210667c828492db98dca3e2076cc3735a920a3ca505d382bbc5473ffffffffffffffffffffffffffffffffffffffff1690565b73ffffffffffffffffffffffffffffffffffffffff1614620008ce5760405162461bcd60e51b815260206004820152602c60248201527f46756e6374696f6e206d7573742062652063616c6c6564207468726f7567682060448201527f6163746976652070726f787900000000000000000000000000000000000000006064820152608401620007c4565b620008d981620018db565b60408051600080825260208201909252620008f79183919062001944565b50565b6200090462001b20565b6000918252606d602052604090912080547fffffffffffffffffffffffff00000000000000000000000000000000000000001673ffffffffffffffffffffffffffffffffffffffff909216919091179055565b73ffffffffffffffffffffffffffffffffffffffff7f000000000000000000000000000000000000000000000000000000000000000016300362000a045760405162461bcd60e51b815260206004820152602c60248201527f46756e6374696f6e206d7573742062652063616c6c6564207468726f7567682060448201527f64656c656761746563616c6c00000000000000000000000000000000000000006064820152608401620007c4565b7f000000000000000000000000000000000000000000000000000000000000000073ffffffffffffffffffffffffffffffffffffffff1662000a7a7f360894a13ba1a3210667c828492db98dca3e2076cc3735a920a3ca505d382bbc5473ffffffffffffffffffffffffffffffffffffffff1690565b73ffffffffffffffffffffffffffffffffffffffff161462000b055760405162461bcd60e51b815260206004820152602c60248201527f46756e6374696f6e206d7573742062652063616c6c6564207468726f7567682060448201527f6163746976652070726f787900000000000000000000000000000000000000006064820152608401620007c4565b62000b1082620018db565b62000b1e8282600162001944565b5050565b60003073ffffffffffffffffffffffffffffffffffffffff7f0000000000000000000000000000000000000000000000000000000000000000161462000bd15760405162461bcd60e51b815260206004820152603860248201527f555550535570677261646561626c653a206d757374206e6f742062652063616c60448201527f6c6564207468726f7567682064656c656761746563616c6c00000000000000006064820152608401620007c4565b507f360894a13ba1a3210667c828492db98dca3e2076cc3735a920a3ca505d382bbc90565b600062000716826040518060200162000c0f90620021aa565b7fffffffffffffffffffffffffffffffffffffffffffffffffffffffffffffffe0828203810183526066546004601f909301909116918252602482016040908152602083810180517bffffffffffffffffffffffffffffffffffffffffffffffffffffffff167f8129fc1c00000000000000000000000000000000000000000000000000000000179052905162000cc19373ffffffffffffffffffffffffffffffffffffffff90931692910162002680565b604080517fffffffffffffffffffffffffffffffffffffffffffffffffffffffffffffffe08184030181529082905262000cff9291602001620026b1565b6040516020818303038152906040528051906020012062001b89565b6000878152606a60205260408120541562000d795760405162461bcd60e51b815260206004820152600e60248201527f706f696e746572206578697374730000000000000000000000000000000000006044820152606401620007c4565b6000801b606b868660405162000d91929190620026e4565b9081526020016040518091039020541462000def5760405162461bcd60e51b815260206004820152601060248201527f50534920706f696e7420657869737473000000000000000000000000000000006044820152606401620007c4565b6000878152606c60205260409020600101541562000e505760405162461bcd60e51b815260206004820152601160248201527f77616c6c657453616c74206578697374730000000000000000000000000000006044820152606401620007c4565b62000e7b62000e5f8762000bf6565b73ffffffffffffffffffffffffffffffffffffffff163b151590565b1562000eca5760405162461bcd60e51b815260206004820152601760248201527f77616c6c657420616c7265616479206465706c6f7965640000000000000000006044820152606401620007c4565b6068546040517f3529e46d00000000000000000000000000000000000000000000000000000000815273ffffffffffffffffffffffffffffffffffffffff90911690633529e46d9062000f2e908b908b908b908b908b908b908b906004016200273d565b602060405180830381865afa15801562000f4c573d6000803e3d6000fd5b505050506040513d601f19601f8201168201806040525081019062000f72919062002788565b62000fc05760405162461bcd60e51b815260206004820152601e60248201527f696e76616c6964206163636f756e74206372656174696f6e2070726f6f6600006044820152606401620007c4565b6000888152606a602090815260408083208a9055898352606c9091529081902080547fffffffffffffffffffffffff00000000000000000000000000000000000000001633178155600101879055518890606b90620010239088908890620026e4565b908152604051908190036020019020556200103e8662001b9f565b9050857fa67edfb1574973cc13ebf7c178328ec2097c4c164d9595c006e65c0ff02fba6689898888604051620010789493929190620027ac565b60405180910390a2979650505050505050565b6200109562001b20565b620010a1600062001d15565b565b6000888152606a602052604090205480620011015760405162461bcd60e51b815260206004820152601660248201527f6163636f756e74206e6f742072656769737465726564000000000000000000006044820152606401620007c4565b6000818152606c602052604090205473ffffffffffffffffffffffffffffffffffffffff163314620011765760405162461bcd60e51b815260206004820152600f60248201527f696e76616c69642072656c6179657200000000000000000000000000000000006044820152606401620007c4565b6000818152606c602052604090205474010000000000000000000000000000000000000000900460ff1615620011ef5760405162461bcd60e51b815260206004820152601b60248201527f6163636f756e7420616c726561647920696e697469616c697a656400000000006044820152606401620007c4565b6000858152606e602052604090205460ff1615620012505760405162461bcd60e51b815260206004820152600f60248201527f656d61696c206e756c6c696669656400000000000000000000000000000000006044820152606401620007c4565b42606f5487620012619190620027ce565b11620012b05760405162461bcd60e51b815260206004820152600d60248201527f656d61696c2065787069726564000000000000000000000000000000000000006044820152606401620007c4565b6200130a606c60008381526020019081526020016000206001015489898080601f0160208091040260200160405190810160405280939291908181526020018383808284376000920191909152508992506200154e915050565b620013585760405162461bcd60e51b815260206004820152601c60248201527f696e76616c696420444b494d207075626c6963206b65792068617368000000006044820152606401620007c4565b606860009054906101000a900473ffffffffffffffffffffffffffffffffffffffff1673ffffffffffffffffffffffffffffffffffffffff16634471241c8989878a8e878c8b8b6040518a63ffffffff1660e01b8152600401620013c59998979695949392919062002809565b602060405180830381865afa158015620013e3573d6000803e3d6000fd5b505050506040513d601f19601f8201168201806040525081019062001409919062002788565b6200147c5760405162461bcd60e51b8152602060048201526024808201527f696e76616c6964206163636f756e7420696e697469616c697a6174696f6e207060448201527f726f6f66000000000000000000000000000000000000000000000000000000006064820152608401620007c4565b6000818152606c6020818152604080842080547fffffffffffffffffffffff00ffffffffffffffffffffffffffffffffffffffff1674010000000000000000000000000000000000000000178155898552606e835281852080547fffffffffffffffffffffffffffffffffffffffffffffffffffffffffffffff0016600190811790915594869052928252929091015482518c8152918201849052917f1aba97024e57055419dd4e11361f9e76f2bcecf0e4d9a51de1c0e9df6641d8cf910160405180910390a2505050505050505050565b6000838152606d602052604081205473ffffffffffffffffffffffffffffffffffffffff168062001594575060655473ffffffffffffffffffffffffffffffffffffffff165b6040517fe7a7977a00000000000000000000000000000000000000000000000000000000815273ffffffffffffffffffffffffffffffffffffffff82169063e7a7977a90620015ea908790879060040162002862565b602060405180830381865afa15801562001608573d6000803e3d6000fd5b505050506040513d601f19601f820116820180604052508101906200162e919062002788565b95945050505050565b6200164162001b20565b73ffffffffffffffffffffffffffffffffffffffff8116620016cc5760405162461bcd60e51b815260206004820152602660248201527f4f776e61626c653a206e6577206f776e657220697320746865207a65726f206160448201527f64647265737300000000000000000000000000000000000000000000000000006064820152608401620007c4565b620008f78162001d15565b600054610100900460ff1615808015620016f85750600054600160ff909116105b80620017145750303b15801562001714575060005460ff166001145b620017885760405162461bcd60e51b815260206004820152602e60248201527f496e697469616c697a61626c653a20636f6e747261637420697320616c72656160448201527f647920696e697469616c697a65640000000000000000000000000000000000006064820152608401620007c4565b600080547fffffffffffffffffffffffffffffffffffffffffffffffffffffffffffffff001660011790558015620017e757600080547fffffffffffffffffffffffffffffffffffffffffffffffffffffffffffff00ff166101001790555b620017f162001d8c565b33606980547fffffffffffffffffffffffff000000000000000000000000000000000000000090811673ffffffffffffffffffffffffffffffffffffffff93841617909155606f849055606580548216888416179055606680548216868416179055606780548216898416179055606880549091169186169190911790558015620018d357600080547fffffffffffffffffffffffffffffffffffffffffffffffffffffffffffff00ff169055604051600181527f7f26b83ff96e1f2b6a682f133852f6798a09c465da95921460cefb38474024989060200160405180910390a15b505050505050565b60695473ffffffffffffffffffffffffffffffffffffffff163314620008f75760405162461bcd60e51b815260206004820152601860248201527f63616c6c6572206973206e6f742061206465706c6f79657200000000000000006044820152606401620007c4565b7f4910fdfa16fed3260ed0e7147f7cc6da11a60208b5b9406d12a635614ffd91435460ff16156200197f576200197a8362001e15565b505050565b8273ffffffffffffffffffffffffffffffffffffffff166352d1902d6040518163ffffffff1660e01b8152600401602060405180830381865afa92505050801562001a07575060408051601f3d9081017fffffffffffffffffffffffffffffffffffffffffffffffffffffffffffffffe016820190925262001a049181019062002886565b60015b62001a7b5760405162461bcd60e51b815260206004820152602e60248201527f45524331393637557067726164653a206e657720696d706c656d656e7461746960448201527f6f6e206973206e6f7420555550530000000000000000000000000000000000006064820152608401620007c4565b7f360894a13ba1a3210667c828492db98dca3e2076cc3735a920a3ca505d382bbc811462001b125760405162461bcd60e51b815260206004820152602960248201527f45524331393637557067726164653a20756e737570706f727465642070726f7860448201527f6961626c655555494400000000000000000000000000000000000000000000006064820152608401620007c4565b506200197a83838362001f07565b60335473ffffffffffffffffffffffffffffffffffffffff163314620010a15760405162461bcd60e51b815260206004820181905260248201527f4f776e61626c653a2063616c6c6572206973206e6f7420746865206f776e65726044820152606401620007c4565b600062001b9883833062001f38565b9392505050565b60665460408051600481526024810182526020810180517bffffffffffffffffffffffffffffffffffffffffffffffffffffffff167f8129fc1c000000000000000000000000000000000000000000000000000000001790529051600092849273ffffffffffffffffffffffffffffffffffffffff9091169162001c2390620021aa565b62001c3092919062002680565b8190604051809103906000f590508015801562001c51573d6000803e3d6000fd5b5090508073ffffffffffffffffffffffffffffffffffffffff1663f2fde38b62001c9060335473ffffffffffffffffffffffffffffffffffffffff1690565b6040517fffffffff0000000000000000000000000000000000000000000000000000000060e084901b16815273ffffffffffffffffffffffffffffffffffffffff9091166004820152602401600060405180830381600087803b15801562001cf757600080fd5b505af115801562001d0c573d6000803e3d6000fd5b50505050919050565b6033805473ffffffffffffffffffffffffffffffffffffffff8381167fffffffffffffffffffffffff0000000000000000000000000000000000000000831681179093556040519116919082907f8be0079c531659141344cd1fd0a4f28419497f9722a3daafe3b4186f6b6457e090600090a35050565b600054610100900460ff1662001e0b5760405162461bcd60e51b815260206004820152602b60248201527f496e697469616c697a61626c653a20636f6e7472616374206973206e6f74206960448201527f6e697469616c697a696e670000000000000000000000000000000000000000006064820152608401620007c4565b620010a162001f62565b73ffffffffffffffffffffffffffffffffffffffff81163b62001ea15760405162461bcd60e51b815260206004820152602d60248201527f455243313936373a206e657720696d706c656d656e746174696f6e206973206e60448201527f6f74206120636f6e7472616374000000000000000000000000000000000000006064820152608401620007c4565b7f360894a13ba1a3210667c828492db98dca3e2076cc3735a920a3ca505d382bbc80547fffffffffffffffffffffffff00000000000000000000000000000000000000001673ffffffffffffffffffffffffffffffffffffffff92909216919091179055565b62001f128362001fec565b60008251118062001f205750805b156200197a5762001f3283836200203b565b50505050565b6000604051836040820152846020820152828152600b8101905060ff815360559020949350505050565b600054610100900460ff1662001fe15760405162461bcd60e51b815260206004820152602b60248201527f496e697469616c697a61626c653a20636f6e7472616374206973206e6f74206960448201527f6e697469616c697a696e670000000000000000000000000000000000000000006064820152608401620007c4565b620010a13362001d15565b62001ff78162001e15565b60405173ffffffffffffffffffffffffffffffffffffffff8216907fbc7cd75a20ee27fd9adebab32041f755214dbc6bffa90cc0225b39da2e5c2d3b90600090a250565b606062001b98838360405180606001604052806027815260200162002dc26027913960606000808573ffffffffffffffffffffffffffffffffffffffff1685604051620020899190620028a0565b600060405180830381855af49150503d8060008114620020c6576040519150601f19603f3d011682016040523d82523d6000602084013e620020cb565b606091505b5091509150620020de86838387620020e8565b9695505050505050565b6060831562002169578251600003620021615773ffffffffffffffffffffffffffffffffffffffff85163b620021615760405162461bcd60e51b815260206004820152601d60248201527f416464726573733a2063616c6c20746f206e6f6e2d636f6e74726163740000006044820152606401620007c4565b508162002175565b6200217583836200217d565b949350505050565b8151156200218e5781518083602001fd5b8060405162461bcd60e51b8152600401620007c49190620028be565b6104ee80620028d483390190565b600060208284031215620021cb57600080fd5b5035919050565b803573ffffffffffffffffffffffffffffffffffffffff81168114620021f757600080fd5b919050565b6000602082840312156200220f57600080fd5b62001b9882620021d2565b600080604083850312156200222e57600080fd5b823591506200224060208401620021d2565b90509250929050565b7f4e487b7100000000000000000000000000000000000000000000000000000000600052604160045260246000fd5b600067ffffffffffffffff8084111562002296576200229662002249565b604051601f85017fffffffffffffffffffffffffffffffffffffffffffffffffffffffffffffffe0908116603f01168101908282118183101715620022df57620022df62002249565b81604052809350858152868686011115620022f957600080fd5b858560208301376000602087830101525050509392505050565b600082601f8301126200232557600080fd5b62001b988383356020850162002278565b600080604083850312156200234a57600080fd5b6200235583620021d2565b9150602083013567ffffffffffffffff8111156200237257600080fd5b620023808582860162002313565b9150509250929050565b60008083601f8401126200239d57600080fd5b50813567ffffffffffffffff811115620023b657600080fd5b602083019150836020828501011115620023cf57600080fd5b9250929050565b600080600080600080600060a0888a031215620023f257600080fd5b873596506020880135955060408801359450606088013567ffffffffffffffff808211156200242057600080fd5b6200242e8b838c016200238a565b909650945060808a01359150808211156200244857600080fd5b50620024578a828b016200238a565b989b979a50959850939692959293505050565b6000602082840312156200247d57600080fd5b813567ffffffffffffffff8111156200249557600080fd5b620021758482850162002313565b60008060008060008060008060c0898b031215620024c057600080fd5b88359750602089013567ffffffffffffffff80821115620024e057600080fd5b620024ee8c838d016200238a565b909950975060408b0135965060608b0135955060808b0135945060a08b01359150808211156200251d57600080fd5b506200252c8b828c016200238a565b999c989b5096995094979396929594505050565b6000806000606084860312156200255657600080fd5b83359250602084013567ffffffffffffffff8111156200257557600080fd5b8401601f810186136200258757600080fd5b620025988682356020840162002278565b925050604084013590509250925092565b600080600080600060a08688031215620025c257600080fd5b620025cd86620021d2565b9450620025dd60208701620021d2565b9350620025ed60408701620021d2565b9250620025fd60608701620021d2565b949793965091946080013592915050565b60005b838110156200262b57818101518382015260200162002611565b50506000910152565b600081518084526200264e8160208601602086016200260e565b601f017fffffffffffffffffffffffffffffffffffffffffffffffffffffffffffffffe0169290920160200192915050565b73ffffffffffffffffffffffffffffffffffffffff8316815260406020820152600062002175604083018462002634565b60008351620026c58184602088016200260e565b835190830190620026db8183602088016200260e565b01949350505050565b8183823760009101908152919050565b8183528181602085013750600060208284010152600060207fffffffffffffffffffffffffffffffffffffffffffffffffffffffffffffffe0601f840116840101905092915050565b87815286602082015285604082015260a0606082015260006200276560a083018688620026f4565b82810360808401526200277a818587620026f4565b9a9950505050505050505050565b6000602082840312156200279b57600080fd5b8151801515811462001b9857600080fd5b848152836020820152606060408201526000620020de606083018486620026f4565b8082018082111562000716577f4e487b7100000000000000000000000000000000000000000000000000000000600052601160045260246000fd5b60e0815260006200281f60e083018b8d620026f4565b8960208401528860408401528760608401528660808401528560a084015282810360c084015262002852818587620026f4565b9c9b505050505050505050505050565b60408152600062002877604083018562002634565b90508260208301529392505050565b6000602082840312156200289957600080fd5b5051919050565b60008251620028b48184602087016200260e565b9190910192915050565b60208152600062001b9860208301846200263456fe60806040526040516104ee3803806104ee833981016040819052610022916102de565b61002e82826000610035565b50506103fb565b61003e83610061565b60008251118061004b5750805b1561005c5761005a83836100a1565b505b505050565b61006a816100cd565b6040516001600160a01b038216907fbc7cd75a20ee27fd9adebab32041f755214dbc6bffa90cc0225b39da2e5c2d3b90600090a250565b60606100c683836040518060600160405280602781526020016104c760279139610180565b9392505050565b6001600160a01b0381163b61013f5760405162461bcd60e51b815260206004820152602d60248201527f455243313936373a206e657720696d706c656d656e746174696f6e206973206e60448201526c1bdd08184818dbdb9d1c9858dd609a1b60648201526084015b60405180910390fd5b7f360894a13ba1a3210667c828492db98dca3e2076cc3735a920a3ca505d382bbc80546001600160a01b0319166001600160a01b0392909216919091179055565b6060600080856001600160a01b03168560405161019d91906103ac565b600060405180830381855af49150503d80600081146101d8576040519150601f19603f3d011682016040523d82523d6000602084013e6101dd565b606091505b5090925090506101ef868383876101f9565b9695505050505050565b60608315610268578251600003610261576001600160a01b0385163b6102615760405162461bcd60e51b815260206004820152601d60248201527f416464726573733a2063616c6c20746f206e6f6e2d636f6e74726163740000006044820152606401610136565b5081610272565b610272838361027a565b949350505050565b81511561028a5781518083602001fd5b8060405162461bcd60e51b815260040161013691906103c8565b634e487b7160e01b600052604160045260246000fd5b60005b838110156102d55781810151838201526020016102bd565b50506000910152565b600080604083850312156102f157600080fd5b82516001600160a01b038116811461030857600080fd5b60208401519092506001600160401b038082111561032557600080fd5b818501915085601f83011261033957600080fd5b81518181111561034b5761034b6102a4565b604051601f8201601f19908116603f01168101908382118183101715610373576103736102a4565b8160405282815288602084870101111561038c57600080fd5b61039d8360208301602088016102ba565b80955050505050509250929050565b600082516103be8184602087016102ba565b9190910192915050565b60208152600082518060208401526103e78160408501602087016102ba565b601f01601f19169190910160400192915050565b60be806104096000396000f3fe608060405236601057600e6013565b005b600e5b601f601b6021565b6065565b565b600060607f360894a13ba1a3210667c828492db98dca3e2076cc3735a920a3ca505d382bbc5473ffffffffffffffffffffffffffffffffffffffff1690565b905090565b3660008037600080366000845af43d6000803e8080156083573d6000f35b3d6000fdfea26469706673582212201447f76c70f58501fb04671b9e2bfbc3ace7649b711a3af0b968d33ca4dea4b464736f6c63430008170033416464726573733a206c6f772d6c6576656c2064656c65676174652063616c6c206661696c6564416464726573733a206c6f772d6c6576656c2064656c65676174652063616c6c206661696c6564a264697066735822122027b263ac92e18ddddc7ea19487f210d11e727deae01491d2dfbd709c2d4d27a464736f6c63430008170033","linkReferences":{}},"methodIdentifiers":{"accountKeyCommitOfPointer(bytes32)":"ba591a36","createAccount(bytes32,bytes32,bytes32,bytes,bytes)":"6dd50f8b","defaultDkimRegistry()":"d343d5ca","dkimRegistryOfWalletSalt(bytes32)":"a99b6ac6","emailNullifiers(bytes32)":"17ace6b5","emailValidityDuration()":"b90d36f9","getInfoOfAccountKeyCommit(bytes32)":"6b0f047d","getWalletOfEmailAddrPointer(bytes32)":"01262dd2","getWalletOfSalt(bytes32)":"5664c78e","infoOfAccountKeyCommit(bytes32)":"bf68c306","initialize(address,address,address,address,uint256)":"f7013ef6","initializeAccount(bytes32,string,uint256,bytes32,bytes32,bytes)":"acae05fe","isDKIMPublicKeyHashValid(bytes32,string,bytes32)":"d842484e","owner()":"8da5cb5b","pointerOfPSIPoint(bytes)":"a92014dd","proxiableUUID()":"52d1902d","relayerHandler()":"5e5f2610","renounceOwnership()":"715018a6","transferOwnership(address)":"f2fde38b","updateDKIMRegistryOfWalletSalt(bytes32,address)":"40d20041","upgradeTo(address)":"3659cfe6","upgradeToAndCall(address,bytes)":"4f1ef286","verifier()":"2b7ac3f3","walletImplementation()":"8117abc1"},"storageLayout":{"storage":[{"astId":138,"contract":"src/handlers/AccountHandler.sol:AccountHandler","label":"_initialized","offset":0,"slot":"0","type":"t_uint8"},{"astId":141,"contract":"src/handlers/AccountHandler.sol:AccountHandler","label":"_initializing","offset":1,"slot":"0","type":"t_bool"},{"astId":68175,"contract":"src/handlers/AccountHandler.sol:AccountHandler","label":"__gap","offset":0,"slot":"1","type":"t_array(t_uint256)50_storage"},{"astId":10,"contract":"src/handlers/AccountHandler.sol:AccountHandler","label":"_owner","offset":0,"slot":"51","type":"t_address"},{"astId":130,"contract":"src/handlers/AccountHandler.sol:AccountHandler","label":"__gap","offset":0,"slot":"52","type":"t_array(t_uint256)49_storage"},{"astId":60817,"contract":"src/handlers/AccountHandler.sol:AccountHandler","label":"defaultDkimRegistry","offset":0,"slot":"101","type":"t_contract(IDKIMRegistry)4021"},{"astId":60819,"contract":"src/handlers/AccountHandler.sol:AccountHandler","label":"walletImplementation","offset":0,"slot":"102","type":"t_address"},{"astId":60822,"contract":"src/handlers/AccountHandler.sol:AccountHandler","label":"relayerHandler","offset":0,"slot":"103","type":"t_contract(RelayerHandler)62136"},{"astId":60825,"contract":"src/handlers/AccountHandler.sol:AccountHandler","label":"verifier","offset":0,"slot":"104","type":"t_contract(IVerifier)63906"},{"astId":60827,"contract":"src/handlers/AccountHandler.sol:AccountHandler","label":"deployer","offset":0,"slot":"105","type":"t_address"},{"astId":60831,"contract":"src/handlers/AccountHandler.sol:AccountHandler","label":"accountKeyCommitOfPointer","offset":0,"slot":"106","type":"t_mapping(t_bytes32,t_bytes32)"},{"astId":60835,"contract":"src/handlers/AccountHandler.sol:AccountHandler","label":"pointerOfPSIPoint","offset":0,"slot":"107","type":"t_mapping(t_bytes_memory_ptr,t_bytes32)"},{"astId":60840,"contract":"src/handlers/AccountHandler.sol:AccountHandler","label":"infoOfAccountKeyCommit","offset":0,"slot":"108","type":"t_mapping(t_bytes32,t_struct(AccountKeyInfo)64000_storage)"},{"astId":60844,"contract":"src/handlers/AccountHandler.sol:AccountHandler","label":"dkimRegistryOfWalletSalt","offset":0,"slot":"109","type":"t_mapping(t_bytes32,t_address)"},{"astId":60848,"contract":"src/handlers/AccountHandler.sol:AccountHandler","label":"emailNullifiers","offset":0,"slot":"110","type":"t_mapping(t_bytes32,t_bool)"},{"astId":60850,"contract":"src/handlers/AccountHandler.sol:AccountHandler","label":"emailValidityDuration","offset":0,"slot":"111","type":"t_uint256"}],"types":{"t_address":{"encoding":"inplace","label":"address","numberOfBytes":"20"},"t_array(t_uint256)49_storage":{"encoding":"inplace","label":"uint256[49]","numberOfBytes":"1568","base":"t_uint256"},"t_array(t_uint256)50_storage":{"encoding":"inplace","label":"uint256[50]","numberOfBytes":"1600","base":"t_uint256"},"t_bool":{"encoding":"inplace","label":"bool","numberOfBytes":"1"},"t_bytes32":{"encoding":"inplace","label":"bytes32","numberOfBytes":"32"},"t_bytes_memory_ptr":{"encoding":"bytes","label":"bytes","numberOfBytes":"32"},"t_contract(IDKIMRegistry)4021":{"encoding":"inplace","label":"contract IDKIMRegistry","numberOfBytes":"20"},"t_contract(IVerifier)63906":{"encoding":"inplace","label":"contract IVerifier","numberOfBytes":"20"},"t_contract(RelayerHandler)62136":{"encoding":"inplace","label":"contract RelayerHandler","numberOfBytes":"20"},"t_mapping(t_bytes32,t_address)":{"encoding":"mapping","key":"t_bytes32","label":"mapping(bytes32 => address)","numberOfBytes":"32","value":"t_address"},"t_mapping(t_bytes32,t_bool)":{"encoding":"mapping","key":"t_bytes32","label":"mapping(bytes32 => bool)","numberOfBytes":"32","value":"t_bool"},"t_mapping(t_bytes32,t_bytes32)":{"encoding":"mapping","key":"t_bytes32","label":"mapping(bytes32 => bytes32)","numberOfBytes":"32","value":"t_bytes32"},"t_mapping(t_bytes32,t_struct(AccountKeyInfo)64000_storage)":{"encoding":"mapping","key":"t_bytes32","label":"mapping(bytes32 => struct AccountKeyInfo)","numberOfBytes":"32","value":"t_struct(AccountKeyInfo)64000_storage"},"t_mapping(t_bytes_memory_ptr,t_bytes32)":{"encoding":"mapping","key":"t_bytes_memory_ptr","label":"mapping(bytes => bytes32)","numberOfBytes":"32","value":"t_bytes32"},"t_struct(AccountKeyInfo)64000_storage":{"encoding":"inplace","label":"struct AccountKeyInfo","numberOfBytes":"64","members":[{"astId":63995,"contract":"src/handlers/AccountHandler.sol:AccountHandler","label":"relayer","offset":0,"slot":"0","type":"t_address"},{"astId":63997,"contract":"src/handlers/AccountHandler.sol:AccountHandler","label":"initialized","offset":20,"slot":"0","type":"t_bool"},{"astId":63999,"contract":"src/handlers/AccountHandler.sol:AccountHandler","label":"walletSalt","offset":0,"slot":"1","type":"t_bytes32"}]},"t_uint256":{"encoding":"inplace","label":"uint256","numberOfBytes":"32"},"t_uint8":{"encoding":"inplace","label":"uint8","numberOfBytes":"1"}}},"id":123}