{
  "abi": [
    {
      "inputs": [],
      "stateMutability": "nonpayable",
      "type": "constructor"
    },
    {
      "anonymous": false,
      "inputs": [
        {
          "indexed": true,
          "internalType": "bytes32",
          "name": "walletSalt",
          "type": "bytes32"
        },
        {
          "indexed": false,
          "internalType": "bytes",
          "name": "psiPoint",
          "type": "bytes"
        }
      ],
      "name": "AccountCreated",
      "type": "event"
    },
    {
      "anonymous": false,
      "inputs": [
        {
          "indexed": false,
          "internalType": "address",
          "name": "previousAdmin",
          "type": "address"
        },
        {
          "indexed": false,
          "internalType": "address",
          "name": "newAdmin",
          "type": "address"
        }
      ],
      "name": "AdminChanged",
      "type": "event"
    },
    {
      "anonymous": false,
      "inputs": [
        {
          "indexed": true,
          "internalType": "address",
          "name": "beacon",
          "type": "address"
        }
      ],
      "name": "BeaconUpgraded",
      "type": "event"
    },
    {
      "anonymous": false,
      "inputs": [
        {
          "indexed": false,
          "internalType": "uint8",
          "name": "version",
          "type": "uint8"
        }
      ],
      "name": "Initialized",
      "type": "event"
    },
    {
      "anonymous": false,
      "inputs": [
        {
          "indexed": true,
          "internalType": "address",
          "name": "previousOwner",
          "type": "address"
        },
        {
          "indexed": true,
          "internalType": "address",
          "name": "newOwner",
          "type": "address"
        }
      ],
      "name": "OwnershipTransferred",
      "type": "event"
    },
    {
      "anonymous": false,
      "inputs": [
        {
          "indexed": true,
          "internalType": "address",
          "name": "implementation",
          "type": "address"
        }
      ],
      "name": "Upgraded",
      "type": "event"
    },
    {
      "inputs": [
        {
          "internalType": "bytes32",
          "name": "walletSalt",
          "type": "bytes32"
        },
        {
          "internalType": "bytes",
          "name": "psiPoint",
          "type": "bytes"
        },
        {
          "components": [
            {
              "internalType": "string",
              "name": "domain",
              "type": "string"
            },
            {
              "internalType": "uint256",
              "name": "timestamp",
              "type": "uint256"
            },
            {
              "internalType": "bytes32",
              "name": "nullifier",
              "type": "bytes32"
            },
            {
              "internalType": "bytes32",
              "name": "dkimPublicKeyHash",
              "type": "bytes32"
            },
            {
              "internalType": "bytes",
              "name": "proof",
              "type": "bytes"
            }
          ],
          "internalType": "struct EmailProof",
          "name": "emailProof",
          "type": "tuple"
        }
      ],
      "name": "createAccount",
      "outputs": [
        {
          "internalType": "contract Wallet",
          "name": "wallet",
          "type": "address"
        }
      ],
      "stateMutability": "nonpayable",
      "type": "function"
    },
    {
      "inputs": [],
      "name": "defaultDkimRegistry",
      "outputs": [
        {
          "internalType": "contract IDKIMRegistry",
          "name": "",
          "type": "address"
        }
      ],
      "stateMutability": "view",
      "type": "function"
    },
    {
      "inputs": [
        {
          "internalType": "bytes32",
          "name": "",
          "type": "bytes32"
        }
      ],
      "name": "dkimRegistryOfWalletSalt",
      "outputs": [
        {
          "internalType": "address",
          "name": "",
          "type": "address"
        }
      ],
      "stateMutability": "view",
      "type": "function"
    },
    {
      "inputs": [
        {
          "internalType": "bytes32",
          "name": "",
          "type": "bytes32"
        }
      ],
      "name": "emailNullifiers",
      "outputs": [
        {
          "internalType": "bool",
          "name": "",
          "type": "bool"
        }
      ],
      "stateMutability": "view",
      "type": "function"
    },
    {
      "inputs": [],
      "name": "emailValidityDuration",
      "outputs": [
        {
          "internalType": "uint256",
          "name": "",
          "type": "uint256"
        }
      ],
      "stateMutability": "view",
      "type": "function"
    },
    {
      "inputs": [
        {
          "internalType": "bytes32",
          "name": "salt",
          "type": "bytes32"
        }
      ],
      "name": "getWalletOfSalt",
      "outputs": [
        {
          "internalType": "address",
          "name": "",
          "type": "address"
        }
      ],
      "stateMutability": "view",
      "type": "function"
    },
    {
      "inputs": [
        {
          "internalType": "address",
          "name": "_relayerHandler",
          "type": "address"
        },
        {
          "internalType": "address",
          "name": "_defaultDkimRegistry",
          "type": "address"
        },
        {
          "internalType": "address",
          "name": "_verifier",
          "type": "address"
        },
        {
          "internalType": "address",
          "name": "_walletImplementation",
          "type": "address"
        },
        {
          "internalType": "uint256",
          "name": "_emailValidityDuration",
          "type": "uint256"
        }
      ],
      "name": "initialize",
      "outputs": [],
      "stateMutability": "nonpayable",
      "type": "function"
    },
    {
      "inputs": [
        {
          "internalType": "bytes32",
          "name": "walletSalt",
          "type": "bytes32"
        },
        {
          "internalType": "string",
          "name": "emailDomain",
          "type": "string"
        },
        {
          "internalType": "bytes32",
          "name": "publicKeyHash",
          "type": "bytes32"
        }
      ],
      "name": "isDKIMPublicKeyHashValid",
      "outputs": [
        {
          "internalType": "bool",
          "name": "",
          "type": "bool"
        }
      ],
      "stateMutability": "view",
      "type": "function"
    },
    {
      "inputs": [],
      "name": "owner",
      "outputs": [
        {
          "internalType": "address",
          "name": "",
          "type": "address"
        }
      ],
      "stateMutability": "view",
      "type": "function"
    },
    {
      "inputs": [],
      "name": "proxiableUUID",
      "outputs": [
        {
          "internalType": "bytes32",
          "name": "",
          "type": "bytes32"
        }
      ],
      "stateMutability": "view",
      "type": "function"
    },
    {
      "inputs": [],
      "name": "relayerHandler",
      "outputs": [
        {
          "internalType": "contract RelayerHandler",
          "name": "",
          "type": "address"
        }
      ],
      "stateMutability": "view",
      "type": "function"
    },
    {
      "inputs": [],
      "name": "renounceOwnership",
      "outputs": [],
      "stateMutability": "nonpayable",
      "type": "function"
    },
    {
      "inputs": [
        {
          "internalType": "address",
          "name": "newOwner",
          "type": "address"
        }
      ],
      "name": "transferOwnership",
      "outputs": [],
      "stateMutability": "nonpayable",
      "type": "function"
    },
    {
      "inputs": [
        {
          "internalType": "bytes32",
          "name": "walletSalt",
          "type": "bytes32"
        },
        {
          "internalType": "address",
          "name": "dkimRegistry",
          "type": "address"
        }
      ],
      "name": "updateDKIMRegistryOfWalletSalt",
      "outputs": [],
      "stateMutability": "nonpayable",
      "type": "function"
    },
    {
      "inputs": [
        {
          "internalType": "address",
          "name": "newImplementation",
          "type": "address"
        }
      ],
      "name": "upgradeTo",
      "outputs": [],
      "stateMutability": "nonpayable",
      "type": "function"
    },
    {
      "inputs": [
        {
          "internalType": "address",
          "name": "newImplementation",
          "type": "address"
        },
        {
          "internalType": "bytes",
          "name": "data",
          "type": "bytes"
        }
      ],
      "name": "upgradeToAndCall",
      "outputs": [],
      "stateMutability": "payable",
      "type": "function"
    },
    {
      "inputs": [],
      "name": "verifier",
      "outputs": [
        {
          "internalType": "contract IVerifier",
          "name": "",
          "type": "address"
        }
      ],
      "stateMutability": "view",
      "type": "function"
    },
    {
      "inputs": [],
      "name": "walletImplementation",
      "outputs": [
        {
          "internalType": "address",
          "name": "",
          "type": "address"
        }
      ],
      "stateMutability": "view",
      "type": "function"
    },
    {
      "inputs": [
        {
          "internalType": "bytes",
          "name": "",
          "type": "bytes"
        }
      ],
      "name": "walletSaltOfPSIPoint",
      "outputs": [
        {
          "internalType": "bytes32",
          "name": "",
          "type": "bytes32"
        }
      ],
      "stateMutability": "view",
      "type": "function"
    }
  ],
  "bytecode": {
    "object": "0x60a06040523060805234801561001457600080fd5b5061001d610022565b6100e1565b600054610100900460ff161561008e5760405162461bcd60e51b815260206004820152602760248201527f496e697469616c697a61626c653a20636f6e747261637420697320696e697469604482015266616c697a696e6760c81b606482015260840160405180910390fd5b60005460ff908116146100df576000805460ff191660ff9081179091556040519081527f7f26b83ff96e1f2b6a682f133852f6798a09c465da95921460cefb38474024989060200160405180910390a15b565b60805161296262000119600039600081816104c80152818161056401528181610c7d01528181610d150152610e4b01526129626000f3fe6080604052600436106200015e5760003560e01c8063715018a611620000cf578063c43e3996116200007d578063d842484e1162000060578063d842484e1462000442578063f2fde38b1462000467578063f7013ef6146200048c57600080fd5b8063c43e399614620003d7578063d343d5ca146200041357600080fd5b80638da5cb5b11620000b25780638da5cb5b146200034b578063a99b6ac61462000378578063b90d36f914620003bf57600080fd5b8063715018a614620003045780638117abc1146200031c57600080fd5b80634ce263af116200012d57806352d1902d116200011057806352d1902d14620002895780635664c78e14620002b05780635e5f261014620002d557600080fd5b80634ce263af146200024d5780634f1ef286146200027257600080fd5b806317ace6b514620001635780632b7ac3f314620001ac5780633659cfe6146200020157806340d200411462000228575b600080fd5b3480156200017057600080fd5b50620001976200018236600462001cb2565b606c6020526000908152604090205460ff1681565b60405190151581526020015b60405180910390f35b348015620001b957600080fd5b50606854620001db9073ffffffffffffffffffffffffffffffffffffffff1681565b60405173ffffffffffffffffffffffffffffffffffffffff9091168152602001620001a3565b3480156200020e57600080fd5b50620002266200022036600462001cf6565b620004b1565b005b3480156200023557600080fd5b50620002266200024736600462001d14565b6200068f565b3480156200025a57600080fd5b50620001db6200026c36600462001d43565b620006ec565b620002266200028336600462001f20565b62000c66565b3480156200029657600080fd5b50620002a162000e31565b604051908152602001620001a3565b348015620002bd57600080fd5b50620001db620002cf36600462001cb2565b62000f05565b348015620002e257600080fd5b50606754620001db9073ffffffffffffffffffffffffffffffffffffffff1681565b3480156200031157600080fd5b506200022662001030565b3480156200032957600080fd5b50606654620001db9073ffffffffffffffffffffffffffffffffffffffff1681565b3480156200035857600080fd5b5060335473ffffffffffffffffffffffffffffffffffffffff16620001db565b3480156200038557600080fd5b50620001db6200039736600462001cb2565b606b6020526000908152604090205473ffffffffffffffffffffffffffffffffffffffff1681565b348015620003cc57600080fd5b50620002a1606d5481565b348015620003e457600080fd5b50620002a1620003f636600462001f74565b8051602081830181018051606a8252928201919093012091525481565b3480156200042057600080fd5b50606554620001db9073ffffffffffffffffffffffffffffffffffffffff1681565b3480156200044f57600080fd5b50620001976200046136600462001fad565b62001048565b3480156200047457600080fd5b50620002266200048636600462001cf6565b62001131565b3480156200049957600080fd5b5062000226620004ab36600462002016565b620011d1565b73ffffffffffffffffffffffffffffffffffffffff7f0000000000000000000000000000000000000000000000000000000000000000163003620005625760405162461bcd60e51b815260206004820152602c60248201527f46756e6374696f6e206d7573742062652063616c6c6564207468726f7567682060448201527f64656c656761746563616c6c000000000000000000000000000000000000000060648201526084015b60405180910390fd5b7f000000000000000000000000000000000000000000000000000000000000000073ffffffffffffffffffffffffffffffffffffffff16620005d87f360894a13ba1a3210667c828492db98dca3e2076cc3735a920a3ca505d382bbc5473ffffffffffffffffffffffffffffffffffffffff1690565b73ffffffffffffffffffffffffffffffffffffffff1614620006635760405162461bcd60e51b815260206004820152602c60248201527f46756e6374696f6e206d7573742062652063616c6c6564207468726f7567682060448201527f6163746976652070726f78790000000000000000000000000000000000000000606482015260840162000559565b6200066e81620013d5565b604080516000808252602082019092526200068c918391906200143e565b50565b620006996200161a565b6000918252606b602052604090912080547fffffffffffffffffffffffff00000000000000000000000000000000000000001673ffffffffffffffffffffffffffffffffffffffff909216919091179055565b6000846200073d5760405162461bcd60e51b815260206004820152601360248201527f696e76616c69642077616c6c65742073616c7400000000000000000000000000604482015260640162000559565b6000801b606a8585604051620007559291906200207b565b90815260200160405180910390205414620007b35760405162461bcd60e51b815260206004820152601060248201527f50534920706f696e742065786973747300000000000000000000000000000000604482015260640162000559565b620007de620007c28662000f05565b73ffffffffffffffffffffffffffffffffffffffff163b151590565b156200082d5760405162461bcd60e51b815260206004820152601760248201527f77616c6c657420616c7265616479206465706c6f796564000000000000000000604482015260640162000559565b6040808301356000908152606c602052205460ff1615620008915760405162461bcd60e51b815260206004820152601760248201527f656d61696c20616c7265616479206e756c6c6966696564000000000000000000604482015260640162000559565b620008e185620008a284806200208b565b8080601f016020809104026020016040519081016040528093929190818152602001838380828437600092019190915250505050606085013562001048565b6200092f5760405162461bcd60e51b815260206004820152601c60248201527f696e76616c696420444b494d207075626c6963206b6579206861736800000000604482015260640162000559565b6067546040517f5300f84100000000000000000000000000000000000000000000000000000000815233600482015260009173ffffffffffffffffffffffffffffffffffffffff1690635300f84190602401600060405180830381865afa1580156200099f573d6000803e3d6000fd5b505050506040513d6000823e601f3d9081017fffffffffffffffffffffffffffffffffffffffffffffffffffffffffffffffe0168201604052620009e791908101906200216c565b509050805160000362000a3d5760405162461bcd60e51b815260206004820152601760248201527f63616c6c6572206973206e6f7420612072656c61796572000000000000000000604482015260640162000559565b60208301351562000aac5742606d54846020013562000a5d9190620021cd565b1162000aac5760405162461bcd60e51b815260206004820152600d60248201527f656d61696c206578706972656400000000000000000000000000000000000000604482015260640162000559565b60685473ffffffffffffffffffffffffffffffffffffffff1663ac4b1afe62000ad685806200208b565b6060870135604088013560208901358c8c8c62000af760808e018e6200208b565b6040518b63ffffffff1660e01b815260040162000b1e9a9998979695949392919062002251565b602060405180830381865afa15801562000b3c573d6000803e3d6000fd5b505050506040513d601f19601f8201168201806040525081019062000b629190620022bc565b62000bb05760405162461bcd60e51b815260206004820152601e60248201527f696e76616c6964206163636f756e74206372656174696f6e2070726f6f660000604482015260640162000559565b85606a868660405162000bc59291906200207b565b9081526040805191829003602090810190922092909255848201356000908152606c9091522080547fffffffffffffffffffffffffffffffffffffffffffffffffffffffffffffff0016600117905562000c1f8662001683565b9150857f7573426c653db7cbd771b04cb51f85c6a9202a87c05d4f7072f24022648b3a67868660405162000c55929190620022e0565b60405180910390a250949350505050565b73ffffffffffffffffffffffffffffffffffffffff7f000000000000000000000000000000000000000000000000000000000000000016300362000d135760405162461bcd60e51b815260206004820152602c60248201527f46756e6374696f6e206d7573742062652063616c6c6564207468726f7567682060448201527f64656c656761746563616c6c0000000000000000000000000000000000000000606482015260840162000559565b7f000000000000000000000000000000000000000000000000000000000000000073ffffffffffffffffffffffffffffffffffffffff1662000d897f360894a13ba1a3210667c828492db98dca3e2076cc3735a920a3ca505d382bbc5473ffffffffffffffffffffffffffffffffffffffff1690565b73ffffffffffffffffffffffffffffffffffffffff161462000e145760405162461bcd60e51b815260206004820152602c60248201527f46756e6374696f6e206d7573742062652063616c6c6564207468726f7567682060448201527f6163746976652070726f78790000000000000000000000000000000000000000606482015260840162000559565b62000e1f82620013d5565b62000e2d828260016200143e565b5050565b60003073ffffffffffffffffffffffffffffffffffffffff7f0000000000000000000000000000000000000000000000000000000000000000161462000ee05760405162461bcd60e51b815260206004820152603860248201527f555550535570677261646561626c653a206d757374206e6f742062652063616c60448201527f6c6564207468726f7567682064656c656761746563616c6c0000000000000000606482015260840162000559565b507f360894a13ba1a3210667c828492db98dca3e2076cc3735a920a3ca505d382bbc90565b60006200102a826040518060200162000f1e9062001ca4565b7fffffffffffffffffffffffffffffffffffffffffffffffffffffffffffffffe0828203810183526066546004601f909301909116918252602482016040908152602083810180517bffffffffffffffffffffffffffffffffffffffffffffffffffffffff167f8129fc1c00000000000000000000000000000000000000000000000000000000179052905162000fd09373ffffffffffffffffffffffffffffffffffffffff90931692910162002342565b604080517fffffffffffffffffffffffffffffffffffffffffffffffffffffffffffffffe0818403018152908290526200100e929160200162002373565b60405160208183030381529060405280519060200120620017f9565b92915050565b6200103a6200161a565b6200104660006200180f565b565b6000838152606b602052604081205473ffffffffffffffffffffffffffffffffffffffff16806200108e575060655473ffffffffffffffffffffffffffffffffffffffff165b6040517fe7a7977a00000000000000000000000000000000000000000000000000000000815273ffffffffffffffffffffffffffffffffffffffff82169063e7a7977a90620010e49087908790600401620023a6565b602060405180830381865afa15801562001102573d6000803e3d6000fd5b505050506040513d601f19601f82011682018060405250810190620011289190620022bc565b95945050505050565b6200113b6200161a565b73ffffffffffffffffffffffffffffffffffffffff8116620011c65760405162461bcd60e51b815260206004820152602660248201527f4f776e61626c653a206e6577206f776e657220697320746865207a65726f206160448201527f6464726573730000000000000000000000000000000000000000000000000000606482015260840162000559565b6200068c816200180f565b600054610100900460ff1615808015620011f25750600054600160ff909116105b806200120e5750303b1580156200120e575060005460ff166001145b620012825760405162461bcd60e51b815260206004820152602e60248201527f496e697469616c697a61626c653a20636f6e747261637420697320616c72656160448201527f647920696e697469616c697a6564000000000000000000000000000000000000606482015260840162000559565b600080547fffffffffffffffffffffffffffffffffffffffffffffffffffffffffffffff001660011790558015620012e157600080547fffffffffffffffffffffffffffffffffffffffffffffffffffffffffffff00ff166101001790555b620012eb62001886565b33606980547fffffffffffffffffffffffff000000000000000000000000000000000000000090811673ffffffffffffffffffffffffffffffffffffffff93841617909155606d849055606580548216888416179055606680548216868416179055606780548216898416179055606880549091169186169190911790558015620013cd57600080547fffffffffffffffffffffffffffffffffffffffffffffffffffffffffffff00ff169055604051600181527f7f26b83ff96e1f2b6a682f133852f6798a09c465da95921460cefb38474024989060200160405180910390a15b505050505050565b60695473ffffffffffffffffffffffffffffffffffffffff1633146200068c5760405162461bcd60e51b815260206004820152601860248201527f63616c6c6572206973206e6f742061206465706c6f7965720000000000000000604482015260640162000559565b7f4910fdfa16fed3260ed0e7147f7cc6da11a60208b5b9406d12a635614ffd91435460ff1615620014795762001474836200190f565b505050565b8273ffffffffffffffffffffffffffffffffffffffff166352d1902d6040518163ffffffff1660e01b8152600401602060405180830381865afa92505050801562001501575060408051601f3d9081017fffffffffffffffffffffffffffffffffffffffffffffffffffffffffffffffe0168201909252620014fe91810190620023ca565b60015b620015755760405162461bcd60e51b815260206004820152602e60248201527f45524331393637557067726164653a206e657720696d706c656d656e7461746960448201527f6f6e206973206e6f742055555053000000000000000000000000000000000000606482015260840162000559565b7f360894a13ba1a3210667c828492db98dca3e2076cc3735a920a3ca505d382bbc81146200160c5760405162461bcd60e51b815260206004820152602960248201527f45524331393637557067726164653a20756e737570706f727465642070726f7860448201527f6961626c65555549440000000000000000000000000000000000000000000000606482015260840162000559565b506200147483838362001a01565b60335473ffffffffffffffffffffffffffffffffffffffff163314620010465760405162461bcd60e51b815260206004820181905260248201527f4f776e61626c653a2063616c6c6572206973206e6f7420746865206f776e6572604482015260640162000559565b60665460408051600481526024810182526020810180517bffffffffffffffffffffffffffffffffffffffffffffffffffffffff167f8129fc1c000000000000000000000000000000000000000000000000000000001790529051600092849273ffffffffffffffffffffffffffffffffffffffff90911691620017079062001ca4565b6200171492919062002342565b8190604051809103906000f590508015801562001735573d6000803e3d6000fd5b5090508073ffffffffffffffffffffffffffffffffffffffff1663f2fde38b6200177460335473ffffffffffffffffffffffffffffffffffffffff1690565b6040517fffffffff0000000000000000000000000000000000000000000000000000000060e084901b16815273ffffffffffffffffffffffffffffffffffffffff9091166004820152602401600060405180830381600087803b158015620017db57600080fd5b505af1158015620017f0573d6000803e3d6000fd5b50505050919050565b60006200180883833062001a32565b9392505050565b6033805473ffffffffffffffffffffffffffffffffffffffff8381167fffffffffffffffffffffffff0000000000000000000000000000000000000000831681179093556040519116919082907f8be0079c531659141344cd1fd0a4f28419497f9722a3daafe3b4186f6b6457e090600090a35050565b600054610100900460ff16620019055760405162461bcd60e51b815260206004820152602b60248201527f496e697469616c697a61626c653a20636f6e7472616374206973206e6f74206960448201527f6e697469616c697a696e67000000000000000000000000000000000000000000606482015260840162000559565b6200104662001a5c565b73ffffffffffffffffffffffffffffffffffffffff81163b6200199b5760405162461bcd60e51b815260206004820152602d60248201527f455243313936373a206e657720696d706c656d656e746174696f6e206973206e60448201527f6f74206120636f6e747261637400000000000000000000000000000000000000606482015260840162000559565b7f360894a13ba1a3210667c828492db98dca3e2076cc3735a920a3ca505d382bbc80547fffffffffffffffffffffffff00000000000000000000000000000000000000001673ffffffffffffffffffffffffffffffffffffffff92909216919091179055565b62001a0c8362001ae6565b60008251118062001a1a5750805b15620014745762001a2c838362001b35565b50505050565b6000604051836040820152846020820152828152600b8101905060ff815360559020949350505050565b600054610100900460ff1662001adb5760405162461bcd60e51b815260206004820152602b60248201527f496e697469616c697a61626c653a20636f6e7472616374206973206e6f74206960448201527f6e697469616c697a696e67000000000000000000000000000000000000000000606482015260840162000559565b62001046336200180f565b62001af1816200190f565b60405173ffffffffffffffffffffffffffffffffffffffff8216907fbc7cd75a20ee27fd9adebab32041f755214dbc6bffa90cc0225b39da2e5c2d3b90600090a250565b6060620018088383604051806060016040528060278152602001620029066027913960606000808573ffffffffffffffffffffffffffffffffffffffff168560405162001b839190620023e4565b600060405180830381855af49150503d806000811462001bc0576040519150601f19603f3d011682016040523d82523d6000602084013e62001bc5565b606091505b509150915062001bd88683838762001be2565b9695505050505050565b6060831562001c6357825160000362001c5b5773ffffffffffffffffffffffffffffffffffffffff85163b62001c5b5760405162461bcd60e51b815260206004820152601d60248201527f416464726573733a2063616c6c20746f206e6f6e2d636f6e7472616374000000604482015260640162000559565b508162001c6f565b62001c6f838362001c77565b949350505050565b81511562001c885781518083602001fd5b8060405162461bcd60e51b815260040162000559919062002402565b6104ee806200241883390190565b60006020828403121562001cc557600080fd5b5035919050565b803573ffffffffffffffffffffffffffffffffffffffff8116811462001cf157600080fd5b919050565b60006020828403121562001d0957600080fd5b620018088262001ccc565b6000806040838503121562001d2857600080fd5b8235915062001d3a6020840162001ccc565b90509250929050565b6000806000806060858703121562001d5a57600080fd5b84359350602085013567ffffffffffffffff8082111562001d7a57600080fd5b818701915087601f83011262001d8f57600080fd5b81358181111562001d9f57600080fd5b88602082850101111562001db257600080fd5b60208301955080945050604087013591508082111562001dd157600080fd5b50850160a0818803121562001de557600080fd5b939692955090935050565b7f4e487b7100000000000000000000000000000000000000000000000000000000600052604160045260246000fd5b604051601f82017fffffffffffffffffffffffffffffffffffffffffffffffffffffffffffffffe016810167ffffffffffffffff8111828210171562001e695762001e6962001df0565b604052919050565b600067ffffffffffffffff82111562001e8e5762001e8e62001df0565b50601f017fffffffffffffffffffffffffffffffffffffffffffffffffffffffffffffffe01660200190565b600062001ed162001ecb8462001e71565b62001e1f565b905082815283838301111562001ee657600080fd5b828260208301376000602084830101529392505050565b600082601f83011262001f0f57600080fd5b620018088383356020850162001eba565b6000806040838503121562001f3457600080fd5b62001f3f8362001ccc565b9150602083013567ffffffffffffffff81111562001f5c57600080fd5b62001f6a8582860162001efd565b9150509250929050565b60006020828403121562001f8757600080fd5b813567ffffffffffffffff81111562001f9f57600080fd5b62001c6f8482850162001efd565b60008060006060848603121562001fc357600080fd5b83359250602084013567ffffffffffffffff81111562001fe257600080fd5b8401601f8101861362001ff457600080fd5b620020058682356020840162001eba565b925050604084013590509250925092565b600080600080600060a086880312156200202f57600080fd5b6200203a8662001ccc565b94506200204a6020870162001ccc565b93506200205a6040870162001ccc565b92506200206a6060870162001ccc565b949793965091946080013592915050565b8183823760009101908152919050565b60008083357fffffffffffffffffffffffffffffffffffffffffffffffffffffffffffffffe1843603018112620020c157600080fd5b83018035915067ffffffffffffffff821115620020dd57600080fd5b602001915036819003821315620020f357600080fd5b9250929050565b60005b8381101562002117578181015183820152602001620020fd565b50506000910152565b600082601f8301126200213257600080fd5b81516200214362001ecb8262001e71565b8181528460208386010111156200215957600080fd5b62001c6f826020830160208701620020fa565b600080604083850312156200218057600080fd5b825167ffffffffffffffff808211156200219957600080fd5b620021a78683870162002120565b93506020850151915080821115620021be57600080fd5b5062001f6a8582860162002120565b808201808211156200102a577f4e487b7100000000000000000000000000000000000000000000000000000000600052601160045260246000fd5b8183528181602085013750600060208284010152600060207fffffffffffffffffffffffffffffffffffffffffffffffffffffffffffffffe0601f840116840101905092915050565b60e0815260006200226760e083018c8e62002208565b8a602084015289604084015288606084015287608084015282810360a08401526200229481878962002208565b905082810360c0840152620022ab81858762002208565b9d9c50505050505050505050505050565b600060208284031215620022cf57600080fd5b815180151581146200180857600080fd5b60208152600062001c6f60208301848662002208565b6000815180845262002310816020860160208601620020fa565b601f017fffffffffffffffffffffffffffffffffffffffffffffffffffffffffffffffe0169290920160200192915050565b73ffffffffffffffffffffffffffffffffffffffff8316815260406020820152600062001c6f6040830184620022f6565b6000835162002387818460208801620020fa565b8351908301906200239d818360208801620020fa565b01949350505050565b604081526000620023bb6040830185620022f6565b90508260208301529392505050565b600060208284031215620023dd57600080fd5b5051919050565b60008251620023f8818460208701620020fa565b9190910192915050565b602081526000620018086020830184620022f656fe60806040526040516104ee3803806104ee833981016040819052610022916102de565b61002e82826000610035565b50506103fb565b61003e83610061565b60008251118061004b5750805b1561005c5761005a83836100a1565b505b505050565b61006a816100cd565b6040516001600160a01b038216907fbc7cd75a20ee27fd9adebab32041f755214dbc6bffa90cc0225b39da2e5c2d3b90600090a250565b60606100c683836040518060600160405280602781526020016104c760279139610180565b9392505050565b6001600160a01b0381163b61013f5760405162461bcd60e51b815260206004820152602d60248201527f455243313936373a206e657720696d706c656d656e746174696f6e206973206e60448201526c1bdd08184818dbdb9d1c9858dd609a1b60648201526084015b60405180910390fd5b7f360894a13ba1a3210667c828492db98dca3e2076cc3735a920a3ca505d382bbc80546001600160a01b0319166001600160a01b0392909216919091179055565b6060600080856001600160a01b03168560405161019d91906103ac565b600060405180830381855af49150503d80600081146101d8576040519150601f19603f3d011682016040523d82523d6000602084013e6101dd565b606091505b5090925090506101ef868383876101f9565b9695505050505050565b60608315610268578251600003610261576001600160a01b0385163b6102615760405162461bcd60e51b815260206004820152601d60248201527f416464726573733a2063616c6c20746f206e6f6e2d636f6e74726163740000006044820152606401610136565b5081610272565b610272838361027a565b949350505050565b81511561028a5781518083602001fd5b8060405162461bcd60e51b815260040161013691906103c8565b634e487b7160e01b600052604160045260246000fd5b60005b838110156102d55781810151838201526020016102bd565b50506000910152565b600080604083850312156102f157600080fd5b82516001600160a01b038116811461030857600080fd5b60208401519092506001600160401b038082111561032557600080fd5b818501915085601f83011261033957600080fd5b81518181111561034b5761034b6102a4565b604051601f8201601f19908116603f01168101908382118183101715610373576103736102a4565b8160405282815288602084870101111561038c57600080fd5b61039d8360208301602088016102ba565b80955050505050509250929050565b600082516103be8184602087016102ba565b9190910192915050565b60208152600082518060208401526103e78160408501602087016102ba565b601f01601f19169190910160400192915050565b60be806104096000396000f3fe608060405236601057600e6013565b005b600e5b601f601b6021565b6065565b565b600060607f360894a13ba1a3210667c828492db98dca3e2076cc3735a920a3ca505d382bbc5473ffffffffffffffffffffffffffffffffffffffff1690565b905090565b3660008037600080366000845af43d6000803e8080156083573d6000f35b3d6000fdfea2646970667358221220bd3af9fcba3c3d28d2aedda9b4d21b357b0dba956778f1f18aefbe5479bf202664736f6c63430008150033416464726573733a206c6f772d6c6576656c2064656c65676174652063616c6c206661696c6564416464726573733a206c6f772d6c6576656c2064656c65676174652063616c6c206661696c6564a2646970667358221220e0de93bea5cde3f34a23820707302afc8e2f8a6dab1c6a9edf6381836004b61e64736f6c63430008150033",
    "linkReferences": {}
  },
  "methodIdentifiers": {
    "createAccount(bytes32,bytes,(string,uint256,bytes32,bytes32,bytes))": "4ce263af",
    "defaultDkimRegistry()": "d343d5ca",
    "dkimRegistryOfWalletSalt(bytes32)": "a99b6ac6",
    "emailNullifiers(bytes32)": "17ace6b5",
    "emailValidityDuration()": "b90d36f9",
    "getWalletOfSalt(bytes32)": "5664c78e",
    "initialize(address,address,address,address,uint256)": "f7013ef6",
    "isDKIMPublicKeyHashValid(bytes32,string,bytes32)": "d842484e",
    "owner()": "8da5cb5b",
    "proxiableUUID()": "52d1902d",
    "relayerHandler()": "5e5f2610",
    "renounceOwnership()": "715018a6",
    "transferOwnership(address)": "f2fde38b",
    "updateDKIMRegistryOfWalletSalt(bytes32,address)": "40d20041",
    "upgradeTo(address)": "3659cfe6",
    "upgradeToAndCall(address,bytes)": "4f1ef286",
    "verifier()": "2b7ac3f3",
    "walletImplementation()": "8117abc1",
    "walletSaltOfPSIPoint(bytes)": "c43e3996"
  },
  "storageLayout": {
    "storage": [
      {
        "astId": 138,
        "contract": "src/handlers/AccountHandler.sol:AccountHandler",
        "label": "_initialized",
        "offset": 0,
        "slot": "0",
        "type": "t_uint8"
      },
      {
        "astId": 141,
        "contract": "src/handlers/AccountHandler.sol:AccountHandler",
        "label": "_initializing",
        "offset": 1,
        "slot": "0",
        "type": "t_bool"
      },
      {
        "astId": 94896,
        "contract": "src/handlers/AccountHandler.sol:AccountHandler",
        "label": "__gap",
        "offset": 0,
        "slot": "1",
        "type": "t_array(t_uint256)50_storage"
      },
      {
        "astId": 10,
        "contract": "src/handlers/AccountHandler.sol:AccountHandler",
        "label": "_owner",
        "offset": 0,
        "slot": "51",
        "type": "t_address"
      },
      {
        "astId": 130,
        "contract": "src/handlers/AccountHandler.sol:AccountHandler",
        "label": "__gap",
        "offset": 0,
        "slot": "52",
        "type": "t_array(t_uint256)49_storage"
      },
      {
        "astId": 67373,
        "contract": "src/handlers/AccountHandler.sol:AccountHandler",
        "label": "defaultDkimRegistry",
        "offset": 0,
        "slot": "101",
        "type": "t_contract(IDKIMRegistry)4948"
      },
      {
        "astId": 67375,
        "contract": "src/handlers/AccountHandler.sol:AccountHandler",
        "label": "walletImplementation",
        "offset": 0,
        "slot": "102",
        "type": "t_address"
      },
      {
        "astId": 67378,
        "contract": "src/handlers/AccountHandler.sol:AccountHandler",
        "label": "relayerHandler",
        "offset": 0,
        "slot": "103",
        "type": "t_contract(RelayerHandler)68543"
      },
      {
        "astId": 67381,
        "contract": "src/handlers/AccountHandler.sol:AccountHandler",
        "label": "verifier",
        "offset": 0,
        "slot": "104",
        "type": "t_contract(IVerifier)70194"
      },
      {
        "astId": 67383,
        "contract": "src/handlers/AccountHandler.sol:AccountHandler",
        "label": "deployer",
        "offset": 0,
        "slot": "105",
        "type": "t_address"
      },
      {
        "astId": 67387,
        "contract": "src/handlers/AccountHandler.sol:AccountHandler",
        "label": "walletSaltOfPSIPoint",
        "offset": 0,
        "slot": "106",
        "type": "t_mapping(t_bytes_memory_ptr,t_bytes32)"
      },
      {
        "astId": 67391,
        "contract": "src/handlers/AccountHandler.sol:AccountHandler",
        "label": "dkimRegistryOfWalletSalt",
        "offset": 0,
        "slot": "107",
        "type": "t_mapping(t_bytes32,t_address)"
      },
      {
        "astId": 67395,
        "contract": "src/handlers/AccountHandler.sol:AccountHandler",
        "label": "emailNullifiers",
        "offset": 0,
        "slot": "108",
        "type": "t_mapping(t_bytes32,t_bool)"
      },
      {
        "astId": 67397,
        "contract": "src/handlers/AccountHandler.sol:AccountHandler",
        "label": "emailValidityDuration",
        "offset": 0,
        "slot": "109",
        "type": "t_uint256"
      }
    ],
    "types": {
      "t_address": {
        "encoding": "inplace",
        "label": "address",
        "numberOfBytes": "20"
      },
      "t_array(t_uint256)49_storage": {
        "encoding": "inplace",
        "label": "uint256[49]",
        "numberOfBytes": "1568",
        "base": "t_uint256"
      },
      "t_array(t_uint256)50_storage": {
        "encoding": "inplace",
        "label": "uint256[50]",
        "numberOfBytes": "1600",
        "base": "t_uint256"
      },
      "t_bool": {
        "encoding": "inplace",
        "label": "bool",
        "numberOfBytes": "1"
      },
      "t_bytes32": {
        "encoding": "inplace",
        "label": "bytes32",
        "numberOfBytes": "32"
      },
      "t_bytes_memory_ptr": {
        "encoding": "bytes",
        "label": "bytes",
        "numberOfBytes": "32"
      },
      "t_contract(IDKIMRegistry)4948": {
        "encoding": "inplace",
        "label": "contract IDKIMRegistry",
        "numberOfBytes": "20"
      },
      "t_contract(IVerifier)70194": {
        "encoding": "inplace",
        "label": "contract IVerifier",
        "numberOfBytes": "20"
      },
      "t_contract(RelayerHandler)68543": {
        "encoding": "inplace",
        "label": "contract RelayerHandler",
        "numberOfBytes": "20"
      },
      "t_mapping(t_bytes32,t_address)": {
        "encoding": "mapping",
        "key": "t_bytes32",
        "label": "mapping(bytes32 => address)",
        "numberOfBytes": "32",
        "value": "t_address"
      },
      "t_mapping(t_bytes32,t_bool)": {
        "encoding": "mapping",
        "key": "t_bytes32",
        "label": "mapping(bytes32 => bool)",
        "numberOfBytes": "32",
        "value": "t_bool"
      },
      "t_mapping(t_bytes_memory_ptr,t_bytes32)": {
        "encoding": "mapping",
        "key": "t_bytes_memory_ptr",
        "label": "mapping(bytes => bytes32)",
        "numberOfBytes": "32",
        "value": "t_bytes32"
      },
      "t_uint256": {
        "encoding": "inplace",
        "label": "uint256",
        "numberOfBytes": "32"
      },
      "t_uint8": {
        "encoding": "inplace",
        "label": "uint8",
        "numberOfBytes": "1"
      }
    }
  },
  "id": 128
}