{
  "abi": [
    {
      "inputs": [
        {
          "internalType": "address",
          "name": "_relayerHandler",
          "type": "address"
        },
        {
          "internalType": "address",
          "name": "_defaultDkimRegistry",
          "type": "address"
        },
        {
          "internalType": "address",
          "name": "_verifier",
          "type": "address"
        },
        {
          "internalType": "address",
          "name": "_walletImplementation",
          "type": "address"
        },
        {
          "internalType": "uint256",
          "name": "_emailValidityDuration",
          "type": "uint256"
        }
      ],
      "stateMutability": "nonpayable",
      "type": "constructor"
    },
    {
      "anonymous": false,
      "inputs": [
        {
          "indexed": false,
          "internalType": "bytes32",
          "name": "emailAddrPointer",
          "type": "bytes32"
        },
        {
          "indexed": false,
          "internalType": "bytes32",
          "name": "accountKeyCommit",
          "type": "bytes32"
        },
        {
          "indexed": true,
          "internalType": "bytes32",
          "name": "walletSalt",
          "type": "bytes32"
        },
        {
          "indexed": false,
          "internalType": "bytes",
          "name": "psiPoint",
          "type": "bytes"
        }
      ],
      "name": "AccountCreated",
      "type": "event"
    },
    {
      "anonymous": false,
      "inputs": [
        {
          "indexed": false,
          "internalType": "bytes32",
          "name": "emailAddrPointer",
          "type": "bytes32"
        },
        {
          "indexed": false,
          "internalType": "bytes32",
          "name": "accountKeyCommit",
          "type": "bytes32"
        },
        {
          "indexed": true,
          "internalType": "bytes32",
          "name": "walletSalt",
          "type": "bytes32"
        }
      ],
      "name": "AccountInitialized",
      "type": "event"
    },
    {
      "anonymous": false,
      "inputs": [
        {
          "indexed": false,
          "internalType": "bytes32",
          "name": "oldAccountKeyCommit",
          "type": "bytes32"
        },
        {
          "indexed": false,
          "internalType": "bytes32",
          "name": "newEmailAddrPointer",
          "type": "bytes32"
        },
        {
          "indexed": false,
          "internalType": "bytes32",
          "name": "newAccountKeyCommit",
          "type": "bytes32"
        },
        {
          "indexed": false,
          "internalType": "bytes",
          "name": "newPSIPoint",
          "type": "bytes"
        }
      ],
      "name": "AccountTransported",
      "type": "event"
    },
    {
      "anonymous": false,
      "inputs": [
        {
          "indexed": true,
          "internalType": "address",
          "name": "previousOwner",
          "type": "address"
        },
        {
          "indexed": true,
          "internalType": "address",
          "name": "newOwner",
          "type": "address"
        }
      ],
      "name": "OwnershipTransferred",
      "type": "event"
    },
    {
      "inputs": [
        {
          "internalType": "bytes32",
          "name": "",
          "type": "bytes32"
        }
      ],
      "name": "accountKeyCommitOfPointer",
      "outputs": [
        {
          "internalType": "bytes32",
          "name": "",
          "type": "bytes32"
        }
      ],
      "stateMutability": "view",
      "type": "function"
    },
    {
      "inputs": [
        {
          "internalType": "bytes32",
          "name": "emailAddrPointer",
          "type": "bytes32"
        },
        {
          "internalType": "bytes32",
          "name": "accountKeyCommit",
          "type": "bytes32"
        },
        {
          "internalType": "bytes32",
          "name": "walletSalt",
          "type": "bytes32"
        },
        {
          "internalType": "bytes",
          "name": "psiPoint",
          "type": "bytes"
        },
        {
          "internalType": "bytes",
          "name": "proof",
          "type": "bytes"
        }
      ],
      "name": "createAccount",
      "outputs": [
        {
          "internalType": "contract Wallet",
          "name": "wallet",
          "type": "address"
        }
      ],
      "stateMutability": "nonpayable",
      "type": "function"
    },
    {
      "inputs": [],
      "name": "defaultDkimRegistry",
      "outputs": [
        {
          "internalType": "contract IDKIMRegistry",
          "name": "",
          "type": "address"
        }
      ],
      "stateMutability": "view",
      "type": "function"
    },
    {
      "inputs": [
        {
          "internalType": "bytes32",
          "name": "",
          "type": "bytes32"
        }
      ],
      "name": "dkimRegistryOfWalletSalt",
      "outputs": [
        {
          "internalType": "address",
          "name": "",
          "type": "address"
        }
      ],
      "stateMutability": "view",
      "type": "function"
    },
    {
      "inputs": [
        {
          "internalType": "bytes32",
          "name": "",
          "type": "bytes32"
        }
      ],
      "name": "emailNullifiers",
      "outputs": [
        {
          "internalType": "bool",
          "name": "",
          "type": "bool"
        }
      ],
      "stateMutability": "view",
      "type": "function"
    },
    {
      "inputs": [],
      "name": "emailValidityDuration",
      "outputs": [
        {
          "internalType": "uint256",
          "name": "",
          "type": "uint256"
        }
      ],
      "stateMutability": "view",
      "type": "function"
    },
    {
      "inputs": [
        {
          "internalType": "bytes32",
          "name": "accountKeyCommit",
          "type": "bytes32"
        }
      ],
      "name": "getInfoOfAccountKeyCommit",
      "outputs": [
        {
          "components": [
            {
              "internalType": "address",
              "name": "relayer",
              "type": "address"
            },
            {
              "internalType": "bool",
              "name": "initialized",
              "type": "bool"
            },
            {
              "internalType": "bytes32",
              "name": "walletSalt",
              "type": "bytes32"
            }
          ],
          "internalType": "struct AccountKeyInfo",
          "name": "",
          "type": "tuple"
        }
      ],
      "stateMutability": "view",
      "type": "function"
    },
    {
      "inputs": [
        {
          "internalType": "bytes32",
          "name": "emailAddrPointer",
          "type": "bytes32"
        }
      ],
      "name": "getWalletOfEmailAddrPointer",
      "outputs": [
        {
          "internalType": "address",
          "name": "",
          "type": "address"
        }
      ],
      "stateMutability": "view",
      "type": "function"
    },
    {
      "inputs": [
        {
          "internalType": "bytes32",
          "name": "salt",
          "type": "bytes32"
        }
      ],
      "name": "getWalletOfSalt",
      "outputs": [
        {
          "internalType": "address",
          "name": "",
          "type": "address"
        }
      ],
      "stateMutability": "view",
      "type": "function"
    },
    {
      "inputs": [
        {
          "internalType": "bytes32",
          "name": "",
          "type": "bytes32"
        }
      ],
      "name": "infoOfAccountKeyCommit",
      "outputs": [
        {
          "internalType": "address",
          "name": "relayer",
          "type": "address"
        },
        {
          "internalType": "bool",
          "name": "initialized",
          "type": "bool"
        },
        {
          "internalType": "bytes32",
          "name": "walletSalt",
          "type": "bytes32"
        }
      ],
      "stateMutability": "view",
      "type": "function"
    },
    {
      "inputs": [
        {
          "internalType": "bytes32",
          "name": "emailAddrPointer",
          "type": "bytes32"
        },
        {
          "internalType": "string",
          "name": "emailDomain",
          "type": "string"
        },
        {
          "internalType": "uint256",
          "name": "emailTimestamp",
          "type": "uint256"
        },
        {
          "internalType": "bytes32",
          "name": "emailNullifier",
          "type": "bytes32"
        },
        {
          "internalType": "bytes32",
          "name": "dkimPublicKeyHash",
          "type": "bytes32"
        },
        {
          "internalType": "bytes",
          "name": "proof",
          "type": "bytes"
        }
      ],
      "name": "initializeAccount",
      "outputs": [],
      "stateMutability": "nonpayable",
      "type": "function"
    },
    {
      "inputs": [
        {
          "internalType": "bytes32",
          "name": "walletSalt",
          "type": "bytes32"
        },
        {
          "internalType": "string",
          "name": "emailDomain",
          "type": "string"
        },
        {
          "internalType": "bytes32",
          "name": "publicKeyHash",
          "type": "bytes32"
        }
      ],
      "name": "isDKIMPublicKeyHashValid",
      "outputs": [
        {
          "internalType": "bool",
          "name": "",
          "type": "bool"
        }
      ],
      "stateMutability": "view",
      "type": "function"
    },
    {
      "inputs": [],
      "name": "owner",
      "outputs": [
        {
          "internalType": "address",
          "name": "",
          "type": "address"
        }
      ],
      "stateMutability": "view",
      "type": "function"
    },
    {
      "inputs": [
        {
          "internalType": "bytes",
          "name": "",
          "type": "bytes"
        }
      ],
      "name": "pointerOfPSIPoint",
      "outputs": [
        {
          "internalType": "bytes32",
          "name": "",
          "type": "bytes32"
        }
      ],
      "stateMutability": "view",
      "type": "function"
    },
    {
      "inputs": [],
      "name": "relayerHandler",
      "outputs": [
        {
          "internalType": "contract RelayerHandler",
          "name": "",
          "type": "address"
        }
      ],
      "stateMutability": "view",
      "type": "function"
    },
    {
      "inputs": [],
      "name": "renounceOwnership",
      "outputs": [],
      "stateMutability": "nonpayable",
      "type": "function"
    },
    {
      "inputs": [
        {
          "internalType": "address",
          "name": "newOwner",
          "type": "address"
        }
      ],
      "name": "transferOwnership",
      "outputs": [],
      "stateMutability": "nonpayable",
      "type": "function"
    },
    {
      "inputs": [
        {
          "internalType": "bytes32",
          "name": "oldAccountKeyCommit",
          "type": "bytes32"
        },
        {
          "internalType": "bytes32",
          "name": "newEmailAddrPointer",
          "type": "bytes32"
        },
        {
          "internalType": "bytes32",
          "name": "newAccountKeyCommit",
          "type": "bytes32"
        },
        {
          "internalType": "bytes",
          "name": "newPSIPoint",
          "type": "bytes"
        },
        {
          "components": [
            {
              "internalType": "string",
              "name": "domain",
              "type": "string"
            },
            {
              "internalType": "uint256",
              "name": "timestamp",
              "type": "uint256"
            },
            {
              "internalType": "bytes32",
              "name": "nullifier",
              "type": "bytes32"
            },
            {
              "internalType": "bytes32",
              "name": "dkimPublicKeyHash",
              "type": "bytes32"
            },
            {
              "internalType": "bytes",
              "name": "proof",
              "type": "bytes"
            }
          ],
          "internalType": "struct EmailProof",
          "name": "transportEmailProof",
          "type": "tuple"
        },
        {
          "internalType": "bytes",
          "name": "accountCreationProof",
          "type": "bytes"
        }
      ],
      "name": "transportAccount",
      "outputs": [],
      "stateMutability": "nonpayable",
      "type": "function"
    },
    {
      "inputs": [
        {
          "internalType": "bytes32",
          "name": "walletSalt",
          "type": "bytes32"
        },
        {
          "internalType": "address",
          "name": "dkimRegistry",
          "type": "address"
        }
      ],
      "name": "updateDKIMRegistryOfWalletSalt",
      "outputs": [],
      "stateMutability": "nonpayable",
      "type": "function"
    },
    {
      "inputs": [],
      "name": "verifier",
      "outputs": [
        {
          "internalType": "contract IVerifier",
          "name": "",
          "type": "address"
        }
      ],
      "stateMutability": "view",
      "type": "function"
    },
    {
      "inputs": [],
      "name": "walletImplementation",
      "outputs": [
        {
          "internalType": "address",
          "name": "",
          "type": "address"
        }
      ],
      "stateMutability": "view",
      "type": "function"
    }
  ],
  "bytecode": {
    "object": "0x6101206040523480156200001257600080fd5b5060405162002ac338038062002ac38339810160408190526200003591620000d4565b620000403362000067565b610100526001600160a01b03928316608052821660a05291811660c0521660e0526200013b565b600080546001600160a01b038381166001600160a01b0319831681178455604051919092169283917f8be0079c531659141344cd1fd0a4f28419497f9722a3daafe3b4186f6b6457e09190a35050565b80516001600160a01b0381168114620000cf57600080fd5b919050565b600080600080600060a08688031215620000ed57600080fd5b620000f886620000b7565b94506200010860208701620000b7565b93506200011860408701620000b7565b92506200012860608701620000b7565b9150608086015190509295509295909350565b60805160a05160c05160e051610100516128cc620001f76000396000818161039401528181610c11015261148401526000818161018f0152818161081701528181610d9901528181610f3201526115730152600081816101e7015281816106060152818161084601528181610a4801528181610dc801528181610f6301528181610ff7015281816112a801526115a60152600081816102e201528181610556015261196f01526000818161044501526117a901526128cc6000f3fe60806040523480156200001157600080fd5b50600436106200011e5760003560e01c806301262dd2146200012357806317ace6b514620001525780632b7ac3f3146200018957806340d2004114620001b15780635664c78e14620001ca5780635e5f261014620001e15780636b0f047d14620002095780636dd50f8b14620002a4578063715018a614620002bb578063721c499614620002c55780638117abc114620002dc5780638da5cb5b1462000304578063a92014dd146200030e578063a99b6ac6146200034b578063acae05fe1462000377578063b90d36f9146200038e578063ba591a3614620003b6578063bf68c30614620003d9578063d343d5ca146200043f578063d842484e1462000467578063f2fde38b146200047e575b600080fd5b6200013a6200013436600462001ac4565b62000495565b60405162000149919062001ade565b60405180910390f35b620001786200016336600462001ac4565b60056020526000908152604090205460ff1681565b604051901515815260200162000149565b6200013a7f000000000000000000000000000000000000000000000000000000000000000081565b620001c8620001c236600462001b0f565b620004c3565b005b6200013a620001db36600462001ac4565b620004fb565b6200013a7f000000000000000000000000000000000000000000000000000000000000000081565b620002766200021a36600462001ac4565b60408051606080820183526000808352602080840182905292840181905293845260038252928290208251938401835280546001600160a01b0381168552600160a01b900460ff16151591840191909152600101549082015290565b6040805182516001600160a01b03168152602080840151151590820152918101519082015260600162000149565b6200013a620002b536600462001b89565b620005bb565b620001c862000a16565b620001c8620002d636600462001cf1565b62000a2e565b6200013a7f000000000000000000000000000000000000000000000000000000000000000081565b6200013a6200124a565b6200033c6200031f36600462001e15565b805160208183018101805160028252928201919093012091525481565b60405190815260200162000149565b6200013a6200035c36600462001ac4565b6004602052600090815260409020546001600160a01b031681565b620001c86200038836600462001e55565b62001259565b6200033c7f000000000000000000000000000000000000000000000000000000000000000081565b6200033c620003c736600462001ac4565b60016020526000908152604090205481565b62000419620003ea36600462001ac4565b600360205260009081526040902080546001909101546001600160a01b03821691600160a01b900460ff169083565b604080516001600160a01b03909416845291151560208401529082015260600162000149565b6200013a7f000000000000000000000000000000000000000000000000000000000000000081565b620001786200047836600462001ef1565b62001788565b620001c86200048f36600462001f44565b62001846565b6000818152600160208181526040808420548452600390915282200154620004bd90620004fb565b92915050565b620004cd620018c5565b60009182526004602052604090912080546001600160a01b0319166001600160a01b03909216919091179055565b6000620004bd8260405180602001620005149062001ab6565b601f19828203810183526004601f90920116908152602481016040908152602082810180516001600160e01b031663204a7f0760e21b17905290516200057f927f00000000000000000000000000000000000000000000000000000000000000009290910162001fb6565b60408051601f19818403018152908290526200059f929160200162001fdc565b6040516020818303038152906040528051906020012062001928565b600063656921ff4210620005ec5760405162461bcd60e51b8152600401620005e3906200200f565b60405180910390fd5b604051630fd5856960e21b81526000906001600160a01b037f00000000000000000000000000000000000000000000000000000000000000001690633f5615a4906200063d90339060040162001ade565b602060405180830381865afa1580156200065b573d6000803e3d6000fd5b505050506040513d601f19601f820116820180604052508101906200068191906200205b565b03620006a15760405162461bcd60e51b8152600401620005e39062002075565b60008881526001602052604090205415620006f05760405162461bcd60e51b815260206004820152600e60248201526d706f696e7465722065786973747360901b6044820152606401620005e3565b6000801b6002868660405162000708929190620020a5565b90815260200160405180910390205414620007595760405162461bcd60e51b815260206004820152601060248201526f50534920706f696e742065786973747360801b6044820152606401620005e3565b60008781526003602052604090206001015415620007ae5760405162461bcd60e51b815260206004820152601160248201527077616c6c657453616c742065786973747360781b6044820152606401620005e3565b620007cc620007bd87620004fb565b6001600160a01b03163b151590565b15620008155760405162461bcd60e51b81526020600482015260176024820152761dd85b1b195d08185b1c9958591e4819195c1b1bde5959604a1b6044820152606401620005e3565b7f00000000000000000000000000000000000000000000000000000000000000006001600160a01b03166316999ab57f00000000000000000000000000000000000000000000000000000000000000006001600160a01b0316633f5615a4336040518263ffffffff1660e01b815260040162000892919062001ade565b602060405180830381865afa158015620008b0573d6000803e3d6000fd5b505050506040513d601f19601f82011682018060405250810190620008d691906200205b565b8a8a8a8a8a8a8a6040518963ffffffff1660e01b815260040162000902989796959493929190620020de565b602060405180830381865afa15801562000920573d6000803e3d6000fd5b505050506040513d601f19601f8201168201806040525081019062000946919062002130565b620009655760405162461bcd60e51b8152600401620005e39062002154565b60008881526001602081815260408084208b90558a845260039091529182902080546001600160a01b0319163317815501879055518890600290620009ae9088908890620020a5565b90815260405190819003602001902055620009c9866200193e565b9050857fa67edfb1574973cc13ebf7c178328ec2097c4c164d9595c006e65c0ff02fba668989888860405162000a0394939291906200218b565b60405180910390a2979650505050505050565b62000a20620018c5565b62000a2c600062001a3c565b565b604051630fd5856960e21b81526000906001600160a01b037f00000000000000000000000000000000000000000000000000000000000000001690633f5615a49062000a7f90339060040162001ade565b602060405180830381865afa15801562000a9d573d6000803e3d6000fd5b505050506040513d601f19601f8201168201806040525081019062000ac391906200205b565b0362000ae35760405162461bcd60e51b8152600401620005e39062002075565b6000868152600360205260409020546001600160a01b031662000b465760405162461bcd60e51b815260206004820152601a6024820152791bdb19081c995b185e595c881b9bdd081c9959da5cdd195c995960321b6044820152606401620005e3565b600086815260036020526040902054336001600160a01b039091160362000bad5760405162461bcd60e51b815260206004820152601a6024820152796e65772072656c617965722063616e6e6f742062652073616d6560301b6044820152606401620005e3565b600086815260036020526040902054600160a01b900460ff1662000c0e5760405162461bcd60e51b81526020600482015260176024820152761858d8dbdd5b9d081b9bdd081a5b9a5d1a585b1a5e9959604a1b6044820152606401620005e3565b427f0000000000000000000000000000000000000000000000000000000000000000836020015162000c419190620021b7565b1162000c615760405162461bcd60e51b8152600401620005e390620021d9565b60408083015160009081526005602052205460ff161562000c965760405162461bcd60e51b8152600401620005e39062002200565b6000858152600160205260409020541562000d2457600084815260036020526040902054600160a01b900460ff161562000d1e5760405162461bcd60e51b815260206004820152602260248201527f6e6577206163636f756e7420697320616c726561647920696e697469616c697a604482015261195960f21b6064820152608401620005e3565b62000d97565b6000801b60028460405162000d3a919062002229565b9081526020016040518091039020541462000d975760405162461bcd60e51b815260206004820152601c60248201527b6e65772050534920706f696e7420616c72656164792065786973747360201b6044820152606401620005e3565b7f00000000000000000000000000000000000000000000000000000000000000006001600160a01b03166316999ab57f00000000000000000000000000000000000000000000000000000000000000006001600160a01b0316633f5615a4336040518263ffffffff1660e01b815260040162000e14919062001ade565b602060405180830381865afa15801562000e32573d6000803e3d6000fd5b505050506040513d601f19601f8201168201806040525081019062000e5891906200205b565b600089815260036020526040908190206001015490516001600160e01b031960e085901b16815262000e9792918a918a91908a90899060040162002247565b602060405180830381865afa15801562000eb5573d6000803e3d6000fd5b505050506040513d601f19601f8201168201806040525081019062000edb919062002130565b62000efa5760405162461bcd60e51b8152600401620005e39062002154565b8151606083015160208085015160408087015160008c8152600390945292819020549051630fd5856960e21b81526001600160a01b037f00000000000000000000000000000000000000000000000000000000000000008116966387fac4ba96909590949390927f0000000000000000000000000000000000000000000000000000000000000000831692633f5615a49262000f9c9291169060040162001ade565b602060405180830381865afa15801562000fba573d6000803e3d6000fd5b505050506040513d601f19601f8201168201806040525081019062000fe091906200205b565b604051630fd5856960e21b81526001600160a01b037f00000000000000000000000000000000000000000000000000000000000000001690633f5615a4906200102e90339060040162001ade565b602060405180830381865afa1580156200104c573d6000803e3d6000fd5b505050506040513d601f19601f820116820180604052508101906200107291906200205b565b8d8c8b608001516040518a63ffffffff1660e01b81526004016200109f9998979695949392919062002295565b602060405180830381865afa158015620010bd573d6000803e3d6000fd5b505050506040513d601f19601f82011682018060405250810190620010e3919062002130565b620011315760405162461bcd60e51b815260206004820152601f60248201527f696e76616c6964206163636f756e74207472616e73706f72742070726f6f66006044820152606401620005e3565b604080830151600090815260056020908152828220805460ff1916600190811790915588835290522054156200118d5760008581526001602081815260408084205484526003909152822080546001600160a81b031916815501555b60008581526001602052604090819020859055518590600290620011b390869062002229565b9081526040805160209281900383018120939093556000898152600390925280822060019081015488845291909220918201558054600160a01b6001600160a81b03199091163360ff60a01b1916171790557fb0b7c34a3cd83afc3cd4bcb5fdaf6e9f6c94a5a5cc675689ed1447b2aea9ac0e906200123a908890889088908890620022fc565b60405180910390a1505050505050565b6000546001600160a01b031690565b63656921ff42106200127f5760405162461bcd60e51b8152600401620005e3906200200f565b600088815260016020526040808220549051630fd5856960e21b81529091906001600160a01b037f00000000000000000000000000000000000000000000000000000000000000001690633f5615a490620012df90339060040162001ade565b602060405180830381865afa158015620012fd573d6000803e3d6000fd5b505050506040513d601f19601f820116820180604052508101906200132391906200205b565b03620013435760405162461bcd60e51b8152600401620005e39062002075565b806200138b5760405162461bcd60e51b81526020600482015260166024820152751858d8dbdd5b9d081b9bdd081c9959da5cdd195c995960521b6044820152606401620005e3565b6000818152600360205260409020546001600160a01b03163314620013e55760405162461bcd60e51b815260206004820152600f60248201526e34b73b30b634b2103932b630bcb2b960891b6044820152606401620005e3565b600081815260036020526040902054600160a01b900460ff16156200144b5760405162461bcd60e51b815260206004820152601b60248201527a1858d8dbdd5b9d08185b1c9958591e481a5b9a5d1a585b1a5e9959602a1b6044820152606401620005e3565b60008581526005602052604090205460ff16156200147d5760405162461bcd60e51b8152600401620005e39062002200565b42620014aa7f000000000000000000000000000000000000000000000000000000000000000088620021b7565b11620014ca5760405162461bcd60e51b8152600401620005e390620021d9565b62001524600360008381526020019081526020016000206001015489898080601f01602080910402602001604051908101604052809392919081815260200183838082843760009201919091525089925062001788915050565b620015715760405162461bcd60e51b815260206004820152601c60248201527b0d2dcecc2d8d2c8408896929a40e0eac4d8d2c640d6caf240d0c2e6d60231b6044820152606401620005e3565b7f00000000000000000000000000000000000000000000000000000000000000006001600160a01b031663ce2e9f0e8989878a7f00000000000000000000000000000000000000000000000000000000000000006001600160a01b0316633f5615a4336040518263ffffffff1660e01b8152600401620015f2919062001ade565b602060405180830381865afa15801562001610573d6000803e3d6000fd5b505050506040513d601f19601f820116820180604052508101906200163691906200205b565b8f888d8c8c6040518b63ffffffff1660e01b8152600401620016629a9998979695949392919062002323565b602060405180830381865afa15801562001680573d6000803e3d6000fd5b505050506040513d601f19601f82011682018060405250810190620016a6919062002130565b620017005760405162461bcd60e51b8152602060048201526024808201527f696e76616c6964206163636f756e7420696e697469616c697a6174696f6e20706044820152633937b7b360e11b6064820152608401620005e3565b6000818152600360208181526040808420805460ff60a01b1916600160a01b17815589855260058352818520805460ff1916600190811790915594869052928252929091015482518c8152918201849052917f1aba97024e57055419dd4e11361f9e76f2bcecf0e4d9a51de1c0e9df6641d8cf910160405180910390a2505050505050505050565b6000838152600460205260408120546001600160a01b031680620017c957507f00000000000000000000000000000000000000000000000000000000000000005b6040516373d3cbbd60e11b81526001600160a01b0382169063e7a7977a90620017f9908790879060040162002386565b602060405180830381865afa15801562001817573d6000803e3d6000fd5b505050506040513d601f19601f820116820180604052508101906200183d919062002130565b95945050505050565b62001850620018c5565b6001600160a01b038116620018b75760405162461bcd60e51b815260206004820152602660248201527f4f776e61626c653a206e6577206f776e657220697320746865207a65726f206160448201526564647265737360d01b6064820152608401620005e3565b620018c28162001a3c565b50565b33620018d06200124a565b6001600160a01b03161462000a2c5760405162461bcd60e51b815260206004820181905260248201527f4f776e61626c653a2063616c6c6572206973206e6f7420746865206f776e65726044820152606401620005e3565b60006200193783833062001a8c565b9392505050565b60408051600481526024810182526020810180516001600160e01b031663204a7f0760e21b179052905160009183917f000000000000000000000000000000000000000000000000000000000000000091906200199b9062001ab6565b620019a892919062001fb6565b8190604051809103906000f5905080158015620019c9573d6000803e3d6000fd5b509050806001600160a01b031663f2fde38b620019e56200124a565b6040518263ffffffff1660e01b815260040162001a03919062001ade565b600060405180830381600087803b15801562001a1e57600080fd5b505af115801562001a33573d6000803e3d6000fd5b50505050919050565b600080546001600160a01b038381166001600160a01b0319831681178455604051919092169283917f8be0079c531659141344cd1fd0a4f28419497f9722a3daafe3b4186f6b6457e09190a35050565b6000604051836040820152846020820152828152600b8101905060ff815360559020949350505050565b6104ec80620023ab83390190565b60006020828403121562001ad757600080fd5b5035919050565b6001600160a01b0391909116815260200190565b80356001600160a01b038116811462001b0a57600080fd5b919050565b6000806040838503121562001b2357600080fd5b8235915062001b356020840162001af2565b90509250929050565b60008083601f84011262001b5157600080fd5b5081356001600160401b0381111562001b6957600080fd5b60208301915083602082850101111562001b8257600080fd5b9250929050565b600080600080600080600060a0888a03121562001ba557600080fd5b87359650602088013595506040880135945060608801356001600160401b038082111562001bd257600080fd5b62001be08b838c0162001b3e565b909650945060808a013591508082111562001bfa57600080fd5b5062001c098a828b0162001b3e565b989b979a50959850939692959293505050565b634e487b7160e01b600052604160045260246000fd5b60405160a081016001600160401b038111828210171562001c575762001c5762001c1c565b60405290565b600082601f83011262001c6f57600080fd5b81356001600160401b038082111562001c8c5762001c8c62001c1c565b604051601f8301601f19908116603f0116810190828211818310171562001cb75762001cb762001c1c565b8160405283815286602085880101111562001cd157600080fd5b836020870160208301376000602085830101528094505050505092915050565b60008060008060008060c0878903121562001d0b57600080fd5b86359550602087013594506040870135935060608701356001600160401b038082111562001d3857600080fd5b62001d468a838b0162001c5d565b9450608089013591508082111562001d5d57600080fd5b9088019060a0828b03121562001d7257600080fd5b62001d7c62001c32565b82358281111562001d8c57600080fd5b62001d9a8c82860162001c5d565b82525060208301356020820152604083013560408201526060830135606082015260808301358281111562001dce57600080fd5b62001ddc8c82860162001c5d565b608083015250935060a089013591508082111562001df957600080fd5b5062001e0889828a0162001c5d565b9150509295509295509295565b60006020828403121562001e2857600080fd5b81356001600160401b0381111562001e3f57600080fd5b62001e4d8482850162001c5d565b949350505050565b60008060008060008060008060c0898b03121562001e7257600080fd5b8835975060208901356001600160401b038082111562001e9157600080fd5b62001e9f8c838d0162001b3e565b909950975060408b0135965060608b0135955060808b0135945060a08b013591508082111562001ece57600080fd5b5062001edd8b828c0162001b3e565b999c989b5096995094979396929594505050565b60008060006060848603121562001f0757600080fd5b8335925060208401356001600160401b0381111562001f2557600080fd5b62001f338682870162001c5d565b925050604084013590509250925092565b60006020828403121562001f5757600080fd5b620019378262001af2565b60005b8381101562001f7f57818101518382015260200162001f65565b50506000910152565b6000815180845262001fa281602086016020860162001f62565b601f01601f19169290920160200192915050565b6001600160a01b038316815260406020820181905260009062001e4d9083018462001f88565b6000835162001ff081846020880162001f62565b8351908301906200200681836020880162001f62565b01949350505050565b6020808252602c908201527f746869732066756e6374696f6e206973206e6f7420616c6c6f7765642066726f60408201526b6d20323032332d31322d303160a01b606082015260800190565b6000602082840312156200206e57600080fd5b5051919050565b6020808252601690820152751c995b185e595c881b9bdd081c9959da5cdd195c995960521b604082015260600190565b8183823760009101908152919050565b81835281816020850137506000828201602090810191909152601f909101601f19169091010190565b88815287602082015286604082015285606082015260c0608082015260006200210c60c083018688620020b5565b82810360a084015262002121818587620020b5565b9b9a5050505050505050505050565b6000602082840312156200214357600080fd5b815180151581146200193757600080fd5b6020808252601e908201527f696e76616c6964206163636f756e74206372656174696f6e2070726f6f660000604082015260600190565b848152836020820152606060408201526000620021ad606083018486620020b5565b9695505050505050565b80820180821115620004bd57634e487b7160e01b600052601160045260246000fd5b6020808252600d908201526c195b585a5b08195e1c1a5c9959609a1b604082015260600190565b6020808252600f908201526e195b585a5b081b9d5b1b1a599a5959608a1b604082015260600190565b600082516200223d81846020870162001f62565b9190910192915050565b86815285602082015284604082015283606082015260c0608082015260006200227460c083018562001f88565b82810360a084015262002288818562001f88565b9998505050505050505050565b6000610120808352620022ab8184018d62001f88565b90508a60208401528960408401528860608401528760808401528660a08401528560c08401528460e0840152828103610100840152620022ec818562001f88565b9c9b505050505050505050505050565b848152836020820152826040820152608060608201526000620021ad608083018462001f88565b60006101008083526200233a8184018d8f620020b5565b90508a60208401528960408401528860608401528760808401528660a08401528560c084015282810360e084015262002375818587620020b5565b9d9c50505050505050505050505050565b6040815260006200239b604083018562001f88565b9050826020830152939250505056fe60806040526040516104ec3803806104ec833981016040819052610022916102e9565b61002e82826000610035565b5050610406565b61003e83610061565b60008251118061004b5750805b1561005c5761005a83836100a1565b505b505050565b61006a816100cd565b6040516001600160a01b038216907fbc7cd75a20ee27fd9adebab32041f755214dbc6bffa90cc0225b39da2e5c2d3b90600090a250565b60606100c683836040518060600160405280602781526020016104c56027913961017e565b9392505050565b6100d6816101f7565b61013d5760405162461bcd60e51b815260206004820152602d60248201527f455243313936373a206e657720696d706c656d656e746174696f6e206973206e60448201526c1bdd08184818dbdb9d1c9858dd609a1b60648201526084015b60405180910390fd5b7f360894a13ba1a3210667c828492db98dca3e2076cc3735a920a3ca505d382bbc80546001600160a01b0319166001600160a01b0392909216919091179055565b6060600080856001600160a01b03168560405161019b91906103b7565b600060405180830381855af49150503d80600081146101d6576040519150601f19603f3d011682016040523d82523d6000602084013e6101db565b606091505b5090925090506101ed86838387610206565b9695505050505050565b6001600160a01b03163b151590565b6060831561027357825160000361026c57610220856101f7565b61026c5760405162461bcd60e51b815260206004820152601d60248201527f416464726573733a2063616c6c20746f206e6f6e2d636f6e74726163740000006044820152606401610134565b508161027d565b61027d8383610285565b949350505050565b8151156102955781518083602001fd5b8060405162461bcd60e51b815260040161013491906103d3565b634e487b7160e01b600052604160045260246000fd5b60005b838110156102e05781810151838201526020016102c8565b50506000910152565b600080604083850312156102fc57600080fd5b82516001600160a01b038116811461031357600080fd5b60208401519092506001600160401b038082111561033057600080fd5b818501915085601f83011261034457600080fd5b815181811115610356576103566102af565b604051601f8201601f19908116603f0116810190838211818310171561037e5761037e6102af565b8160405282815288602084870101111561039757600080fd5b6103a88360208301602088016102c5565b80955050505050509250929050565b600082516103c98184602087016102c5565b9190910192915050565b60208152600082518060208401526103f28160408501602087016102c5565b601f01601f19169190910160400192915050565b60b1806104146000396000f3fe608060405236601057600e6013565b005b600e5b601f601b6021565b6058565b565b600060537f360894a13ba1a3210667c828492db98dca3e2076cc3735a920a3ca505d382bbc546001600160a01b031690565b905090565b3660008037600080366000845af43d6000803e8080156076573d6000f35b3d6000fdfea2646970667358221220a73168b96ff9f08d66c75a8791da808541560823cefca714f1c788a235a3656464736f6c63430008150033416464726573733a206c6f772d6c6576656c2064656c65676174652063616c6c206661696c6564a2646970667358221220fa0b850beb9e43b9669747a4a3aa6840bdcc19a6dd25c95a0612c205448e462264736f6c63430008150033",
    "linkReferences": {}
  },
  "methodIdentifiers": {
    "accountKeyCommitOfPointer(bytes32)": "ba591a36",
    "createAccount(bytes32,bytes32,bytes32,bytes,bytes)": "6dd50f8b",
    "defaultDkimRegistry()": "d343d5ca",
    "dkimRegistryOfWalletSalt(bytes32)": "a99b6ac6",
    "emailNullifiers(bytes32)": "17ace6b5",
    "emailValidityDuration()": "b90d36f9",
    "getInfoOfAccountKeyCommit(bytes32)": "6b0f047d",
    "getWalletOfEmailAddrPointer(bytes32)": "01262dd2",
    "getWalletOfSalt(bytes32)": "5664c78e",
    "infoOfAccountKeyCommit(bytes32)": "bf68c306",
    "initializeAccount(bytes32,string,uint256,bytes32,bytes32,bytes)": "acae05fe",
    "isDKIMPublicKeyHashValid(bytes32,string,bytes32)": "d842484e",
    "owner()": "8da5cb5b",
    "pointerOfPSIPoint(bytes)": "a92014dd",
    "relayerHandler()": "5e5f2610",
    "renounceOwnership()": "715018a6",
    "transferOwnership(address)": "f2fde38b",
    "transportAccount(bytes32,bytes32,bytes32,bytes,(string,uint256,bytes32,bytes32,bytes),bytes)": "721c4996",
    "updateDKIMRegistryOfWalletSalt(bytes32,address)": "40d20041",
    "verifier()": "2b7ac3f3",
    "walletImplementation()": "8117abc1"
  },
  "id": 125
}