{
  "abi": [
    {
      "anonymous": false,
      "inputs": [
        {
          "indexed": false,
          "internalType": "string",
          "name": "domainName",
          "type": "string"
        },
        {
          "indexed": false,
          "internalType": "bytes32",
          "name": "publicKeyHash",
          "type": "bytes32"
        }
      ],
      "name": "DKIMPublicKeyHashRegistered",
      "type": "event"
    },
    {
      "anonymous": false,
      "inputs": [
        {
          "indexed": false,
          "internalType": "bytes32",
          "name": "publicKeyHash",
          "type": "bytes32"
        }
      ],
      "name": "DKIMPublicKeyHashRevoked",
      "type": "event"
    },
    {
      "anonymous": false,
      "inputs": [
        {
          "indexed": true,
          "internalType": "address",
          "name": "previousOwner",
          "type": "address"
        },
        {
          "indexed": true,
          "internalType": "address",
          "name": "newOwner",
          "type": "address"
        }
      ],
      "name": "OwnershipTransferred",
      "type": "event"
    },
    {
      "inputs": [
        {
          "internalType": "string",
          "name": "",
          "type": "string"
        },
        {
          "internalType": "bytes32",
          "name": "",
          "type": "bytes32"
        }
      ],
      "name": "dkimPublicKeyHashes",
      "outputs": [
        {
          "internalType": "bool",
          "name": "",
          "type": "bool"
        }
      ],
      "stateMutability": "view",
      "type": "function"
    },
    {
      "inputs": [
        {
          "internalType": "string",
          "name": "domainName",
          "type": "string"
        },
        {
          "internalType": "bytes32",
          "name": "publicKeyHash",
          "type": "bytes32"
        }
      ],
      "name": "isDKIMPublicKeyHashValid",
      "outputs": [
        {
          "internalType": "bool",
          "name": "",
          "type": "bool"
        }
      ],
      "stateMutability": "view",
      "type": "function"
    },
    {
      "inputs": [],
      "name": "owner",
      "outputs": [
        {
          "internalType": "address",
          "name": "",
          "type": "address"
        }
      ],
      "stateMutability": "view",
      "type": "function"
    },
    {
      "inputs": [],
      "name": "renounceOwnership",
      "outputs": [],
      "stateMutability": "nonpayable",
      "type": "function"
    },
    {
      "inputs": [
        {
          "internalType": "bytes32",
          "name": "publicKeyHash",
          "type": "bytes32"
        }
      ],
      "name": "revokeDKIMPublicKeyHash",
      "outputs": [],
      "stateMutability": "nonpayable",
      "type": "function"
    },
    {
      "inputs": [
        {
          "internalType": "bytes32",
          "name": "",
          "type": "bytes32"
        }
      ],
      "name": "revokedDKIMPublicKeyHashes",
      "outputs": [
        {
          "internalType": "bool",
          "name": "",
          "type": "bool"
        }
      ],
      "stateMutability": "view",
      "type": "function"
    },
    {
      "inputs": [
        {
          "internalType": "string",
          "name": "domainName",
          "type": "string"
        },
        {
          "internalType": "bytes32",
          "name": "publicKeyHash",
          "type": "bytes32"
        }
      ],
      "name": "setDKIMPublicKeyHash",
      "outputs": [],
      "stateMutability": "nonpayable",
      "type": "function"
    },
    {
      "inputs": [
        {
          "internalType": "string",
          "name": "domainName",
          "type": "string"
        },
        {
          "internalType": "bytes32[]",
          "name": "publicKeyHashes",
          "type": "bytes32[]"
        }
      ],
      "name": "setDKIMPublicKeyHashes",
      "outputs": [],
      "stateMutability": "nonpayable",
      "type": "function"
    },
    {
      "inputs": [
        {
          "internalType": "address",
          "name": "newOwner",
          "type": "address"
        }
      ],
      "name": "transferOwnership",
      "outputs": [],
      "stateMutability": "nonpayable",
      "type": "function"
    }
  ],
  "bytecode": {
    "object": "0x608060405234801561001057600080fd5b5061001a3361001f565b61006f565b600080546001600160a01b038381166001600160a01b0319831681178455604051919092169283917f8be0079c531659141344cd1fd0a4f28419497f9722a3daafe3b4186f6b6457e09190a35050565b6107888061007e6000396000f3fe608060405234801561001057600080fd5b50600436106100835760003560e01c80630690bd381461008857806315d2512e146100db57806342d7cb98146100f0578063715018a6146101135780638da5cb5b1461011b578063c15cffab1461013b578063e7a7977a1461014e578063f2fde38b14610161578063f49eb16414610174575b600080fd5b6100c661009636600461056b565b81516020818401810180516001825292820194820194909420919093529091526000908152604090205460ff1681565b60405190151581526020015b60405180910390f35b6100ee6100e93660046105af565b610187565b005b6100c66100fe3660046105af565b60026020526000908152604090205460ff1681565b6100ee6101e5565b6101236101f9565b6040516001600160a01b0390911681526020016100d2565b6100ee61014936600461056b565b610208565b6100c661015c36600461056b565b6102e6565b6100ee61016f3660046105c8565b61034a565b6100ee6101823660046105f8565b6103c3565b61018f610407565b60008181526002602052604090819020805460ff19166001179055517fb80fff2b4c6f3ddf804877927c77b2fe1871cecaa5ad43d2c7c42f417331f865906101da9083815260200190565b60405180910390a150565b6101ed610407565b6101f76000610466565b565b6000546001600160a01b031690565b610210610407565b60008181526002602052604090205460ff16156102705760405162461bcd60e51b815260206004820152601960248201527863616e6e6f7420736574207265766f6b6564207075626b657960381b60448201526064015b60405180910390fd5b6001808360405161028191906106e5565b9081526040805160209281900383018120600086815293529120805460ff1916921515929092179091557f510dac88eaf2dfbd53904241fc199ad46b2063e6bf6c3fb291f8ce8643663419906102da9084908490610701565b60405180910390a15050565b60008181526002602052604081205460ff161561030557506000610344565b60018360405161031591906106e5565b90815260408051602092819003830190206000858152925290205460ff161561034057506001610344565b5060005b92915050565b610352610407565b6001600160a01b0381166103b75760405162461bcd60e51b815260206004820152602660248201527f4f776e61626c653a206e6577206f776e657220697320746865207a65726f206160448201526564647265737360d01b6064820152608401610267565b6103c081610466565b50565b6103cb610407565b60005b8151811015610402576103fa838383815181106103ed576103ed61073c565b6020026020010151610208565b6001016103ce565b505050565b336104106101f9565b6001600160a01b0316146101f75760405162461bcd60e51b815260206004820181905260248201527f4f776e61626c653a2063616c6c6572206973206e6f7420746865206f776e65726044820152606401610267565b600080546001600160a01b038381166001600160a01b0319831681178455604051919092169283917f8be0079c531659141344cd1fd0a4f28419497f9722a3daafe3b4186f6b6457e09190a35050565b634e487b7160e01b600052604160045260246000fd5b604051601f8201601f191681016001600160401b03811182821017156104f4576104f46104b6565b604052919050565b600082601f83011261050d57600080fd5b81356001600160401b03811115610526576105266104b6565b610539601f8201601f19166020016104cc565b81815284602083860101111561054e57600080fd5b816020850160208301376000918101602001919091529392505050565b6000806040838503121561057e57600080fd5b82356001600160401b0381111561059457600080fd5b6105a0858286016104fc565b95602094909401359450505050565b6000602082840312156105c157600080fd5b5035919050565b6000602082840312156105da57600080fd5b81356001600160a01b03811681146105f157600080fd5b9392505050565b6000806040838503121561060b57600080fd5b82356001600160401b038082111561062257600080fd5b61062e868387016104fc565b935060209150818501358181111561064557600080fd5b8501601f8101871361065657600080fd5b803582811115610668576106686104b6565b8060051b92506106798484016104cc565b818152928201840192848101908985111561069357600080fd5b928501925b848410156106b157833582529285019290850190610698565b8096505050505050509250929050565b60005b838110156106dc5781810151838201526020016106c4565b50506000910152565b600082516106f78184602087016106c1565b9190910192915050565b60408152600083518060408401526107208160608501602088016106c1565b602083019390935250601f91909101601f191601606001919050565b634e487b7160e01b600052603260045260246000fdfea2646970667358221220b17e5b1eeb819162ef6d75ebc7d15dac01d70d86c23e3b32b8df38cc033089b064736f6c63430008170033",
    "linkReferences": {}
  },
  "methodIdentifiers": {
    "dkimPublicKeyHashes(string,bytes32)": "0690bd38",
    "isDKIMPublicKeyHashValid(string,bytes32)": "e7a7977a",
    "owner()": "8da5cb5b",
    "renounceOwnership()": "715018a6",
    "revokeDKIMPublicKeyHash(bytes32)": "15d2512e",
    "revokedDKIMPublicKeyHashes(bytes32)": "42d7cb98",
    "setDKIMPublicKeyHash(string,bytes32)": "c15cffab",
    "setDKIMPublicKeyHashes(string,bytes32[])": "f49eb164",
    "transferOwnership(address)": "f2fde38b"
  },
  "id": 48
}