{
  "abi": [
    {
      "inputs": [],
      "stateMutability": "nonpayable",
      "type": "constructor"
    },
    {
      "anonymous": false,
      "inputs": [
        {
          "indexed": false,
          "internalType": "string",
          "name": "domainName",
          "type": "string"
        },
        {
          "indexed": false,
          "internalType": "bytes32",
          "name": "publicKeyHash",
          "type": "bytes32"
        }
      ],
      "name": "DKIMPublicKeyHashRegistered",
      "type": "event"
    },
    {
      "anonymous": false,
      "inputs": [
        {
          "indexed": false,
          "internalType": "bytes32",
          "name": "publicKeyHash",
          "type": "bytes32"
        }
      ],
      "name": "DKIMPublicKeyHashRevoked",
      "type": "event"
    },
    {
      "anonymous": false,
      "inputs": [
        {
          "indexed": true,
          "internalType": "address",
          "name": "previousOwner",
          "type": "address"
        },
        {
          "indexed": true,
          "internalType": "address",
          "name": "newOwner",
          "type": "address"
        }
      ],
      "name": "OwnershipTransferred",
      "type": "event"
    },
    {
      "inputs": [
        {
          "internalType": "string",
          "name": "",
          "type": "string"
        },
        {
          "internalType": "bytes32",
          "name": "",
          "type": "bytes32"
        }
      ],
      "name": "dkimPublicKeyHashes",
      "outputs": [
        {
          "internalType": "bool",
          "name": "",
          "type": "bool"
        }
      ],
      "stateMutability": "view",
      "type": "function"
    },
    {
      "inputs": [
        {
          "internalType": "string",
          "name": "domainName",
          "type": "string"
        },
        {
          "internalType": "bytes32",
          "name": "publicKeyHash",
          "type": "bytes32"
        }
      ],
      "name": "isDKIMPublicKeyHashValid",
      "outputs": [
        {
          "internalType": "bool",
          "name": "",
          "type": "bool"
        }
      ],
      "stateMutability": "view",
      "type": "function"
    },
    {
      "inputs": [],
      "name": "owner",
      "outputs": [
        {
          "internalType": "address",
          "name": "",
          "type": "address"
        }
      ],
      "stateMutability": "view",
      "type": "function"
    },
    {
      "inputs": [],
      "name": "renounceOwnership",
      "outputs": [],
      "stateMutability": "nonpayable",
      "type": "function"
    },
    {
      "inputs": [
        {
          "internalType": "bytes32",
          "name": "publicKeyHash",
          "type": "bytes32"
        }
      ],
      "name": "revokeDKIMPublicKeyHash",
      "outputs": [],
      "stateMutability": "nonpayable",
      "type": "function"
    },
    {
      "inputs": [
        {
          "internalType": "bytes32",
          "name": "",
          "type": "bytes32"
        }
      ],
      "name": "revokedDKIMPublicKeyHashes",
      "outputs": [
        {
          "internalType": "bool",
          "name": "",
          "type": "bool"
        }
      ],
      "stateMutability": "view",
      "type": "function"
    },
    {
      "inputs": [
        {
          "internalType": "string",
          "name": "domainName",
          "type": "string"
        },
        {
          "internalType": "bytes32",
          "name": "publicKeyHash",
          "type": "bytes32"
        }
      ],
      "name": "setDKIMPublicKeyHash",
      "outputs": [],
      "stateMutability": "nonpayable",
      "type": "function"
    },
    {
      "inputs": [
        {
          "internalType": "address",
          "name": "newOwner",
          "type": "address"
        }
      ],
      "name": "transferOwnership",
      "outputs": [],
      "stateMutability": "nonpayable",
      "type": "function"
    }
  ],
  "bytecode": {
    "object": "0x608060405234801561001057600080fd5b5061001a336101da565b6001806040516100399068676d61696c2e636f6d60b81b815260090190565b90815260408051602092819003830181207f2ef45a8e725fffd5039b300a4226888c8f0406b25e0474c8839ecdad30908f606000908152908452828120805460ff199081169615159690961790556a686f746d61696c2e636f6d60a81b82526001600b808401829052845193849003602b90810185207f05600a9308de2b1f42919b35d70ccc19f3b0add15c1f394a0dc161868b6cc71a8552875285842080548916841790556a747769747465722e636f6d60a81b85529084018290528451938490030183207f0cf32ca8893a759ac8fb2422624e8a1bfe659a3c434a355093825daaaca5b5ec8352855283822080548716821790556b657468657265756d2e6f726760a01b8352600c8301819052835192839003602c0183207f025a9bd3430a9f496ad710ac825eee0a38f832d6cbcdea84cba9fc9915e0891b83528552838220805487168217905568736b6966662e636f6d60b81b8352600983018190528351928390036029019092207f11784d96e2722c0e1aef263d97ed0e730594c923f73094ae3bad62fc864ab83682529093529120805490921617905561022a565b600080546001600160a01b038381166001600160a01b0319831681178455604051919092169283917f8be0079c531659141344cd1fd0a4f28419497f9722a3daafe3b4186f6b6457e09190a35050565b610618806102396000396000f3fe608060405234801561001057600080fd5b50600436106100785760003560e01c80630690bd381461007d57806315d2512e146100d057806342d7cb98146100e5578063715018a6146101085780638da5cb5b14610110578063c15cffab14610130578063e7a7977a14610143578063f2fde38b14610156575b600080fd5b6100bb61008b36600461046a565b81516020818401810180516001825292820194820194909420919093529091526000908152604090205460ff1681565b60405190151581526020015b60405180910390f35b6100e36100de36600461051e565b610169565b005b6100bb6100f336600461051e565b60026020526000908152604090205460ff1681565b6100e36101c7565b6101186101db565b6040516001600160a01b0390911681526020016100c7565b6100e361013e36600461046a565b6101ea565b6100bb61015136600461046a565b6102c8565b6100e3610164366004610537565b61032c565b6101716103a5565b60008181526002602052604090819020805460ff19166001179055517fb80fff2b4c6f3ddf804877927c77b2fe1871cecaa5ad43d2c7c42f417331f865906101bc9083815260200190565b60405180910390a150565b6101cf6103a5565b6101d96000610404565b565b6000546001600160a01b031690565b6101f26103a5565b60008181526002602052604090205460ff16156102525760405162461bcd60e51b815260206004820152601960248201527863616e6e6f7420736574207265766f6b6564207075626b657960381b60448201526064015b60405180910390fd5b60018083604051610263919061058b565b9081526040805160209281900383018120600086815293529120805460ff1916921515929092179091557f510dac88eaf2dfbd53904241fc199ad46b2063e6bf6c3fb291f8ce8643663419906102bc90849084906105a7565b60405180910390a15050565b60008181526002602052604081205460ff16156102e757506000610326565b6001836040516102f7919061058b565b90815260408051602092819003830190206000858152925290205460ff161561032257506001610326565b5060005b92915050565b6103346103a5565b6001600160a01b0381166103995760405162461bcd60e51b815260206004820152602660248201527f4f776e61626c653a206e6577206f776e657220697320746865207a65726f206160448201526564647265737360d01b6064820152608401610249565b6103a281610404565b50565b336103ae6101db565b6001600160a01b0316146101d95760405162461bcd60e51b815260206004820181905260248201527f4f776e61626c653a2063616c6c6572206973206e6f7420746865206f776e65726044820152606401610249565b600080546001600160a01b038381166001600160a01b0319831681178455604051919092169283917f8be0079c531659141344cd1fd0a4f28419497f9722a3daafe3b4186f6b6457e09190a35050565b634e487b7160e01b600052604160045260246000fd5b6000806040838503121561047d57600080fd5b82356001600160401b038082111561049457600080fd5b818501915085601f8301126104a857600080fd5b8135818111156104ba576104ba610454565b604051601f8201601f19908116603f011681019083821181831017156104e2576104e2610454565b816040528281528860208487010111156104fb57600080fd5b826020860160208301376000602093820184015298969091013596505050505050565b60006020828403121561053057600080fd5b5035919050565b60006020828403121561054957600080fd5b81356001600160a01b038116811461056057600080fd5b9392505050565b60005b8381101561058257818101518382015260200161056a565b50506000910152565b6000825161059d818460208701610567565b9190910192915050565b60408152600083518060408401526105c6816060850160208801610567565b602083019390935250601f91909101601f19160160600191905056fea2646970667358221220528e997ba1ba6de7b9783523a530bf136631f54a1b0c6d0b85804c7716f45cd264736f6c63430008150033",
    "linkReferences": {}
  },
  "methodIdentifiers": {
    "dkimPublicKeyHashes(string,bytes32)": "0690bd38",
    "isDKIMPublicKeyHashValid(string,bytes32)": "e7a7977a",
    "owner()": "8da5cb5b",
    "renounceOwnership()": "715018a6",
    "revokeDKIMPublicKeyHash(bytes32)": "15d2512e",
    "revokedDKIMPublicKeyHashes(bytes32)": "42d7cb98",
    "setDKIMPublicKeyHash(string,bytes32)": "c15cffab",
    "transferOwnership(address)": "f2fde38b"
  },
  "id": 48
}