{
  "abi": [
    {
      "anonymous": false,
      "inputs": [
        {
          "indexed": false,
          "internalType": "string",
          "name": "domainName",
          "type": "string"
        },
        {
          "indexed": false,
          "internalType": "bytes32",
          "name": "publicKeyHash",
          "type": "bytes32"
        }
      ],
      "name": "DKIMPublicKeyHashRegistered",
      "type": "event"
    },
    {
      "anonymous": false,
      "inputs": [
        {
          "indexed": false,
          "internalType": "bytes32",
          "name": "publicKeyHash",
          "type": "bytes32"
        }
      ],
      "name": "DKIMPublicKeyHashRevoked",
      "type": "event"
    },
    {
      "anonymous": false,
      "inputs": [
        {
          "indexed": true,
          "internalType": "address",
          "name": "previousOwner",
          "type": "address"
        },
        {
          "indexed": true,
          "internalType": "address",
          "name": "newOwner",
          "type": "address"
        }
      ],
      "name": "OwnershipTransferred",
      "type": "event"
    },
    {
      "inputs": [
        {
          "internalType": "string",
          "name": "",
          "type": "string"
        },
        {
          "internalType": "bytes32",
          "name": "",
          "type": "bytes32"
        }
      ],
      "name": "dkimPublicKeyHashes",
      "outputs": [
        {
          "internalType": "bool",
          "name": "",
          "type": "bool"
        }
      ],
      "stateMutability": "view",
      "type": "function"
    },
    {
      "inputs": [
        {
          "internalType": "string",
          "name": "domainName",
          "type": "string"
        },
        {
          "internalType": "bytes32",
          "name": "publicKeyHash",
          "type": "bytes32"
        }
      ],
      "name": "isDKIMPublicKeyHashValid",
      "outputs": [
        {
          "internalType": "bool",
          "name": "",
          "type": "bool"
        }
      ],
      "stateMutability": "view",
      "type": "function"
    },
    {
      "inputs": [],
      "name": "owner",
      "outputs": [
        {
          "internalType": "address",
          "name": "",
          "type": "address"
        }
      ],
      "stateMutability": "view",
      "type": "function"
    },
    {
      "inputs": [],
      "name": "renounceOwnership",
      "outputs": [],
      "stateMutability": "nonpayable",
      "type": "function"
    },
    {
      "inputs": [
        {
          "internalType": "bytes32",
          "name": "publicKeyHash",
          "type": "bytes32"
        }
      ],
      "name": "revokeDKIMPublicKeyHash",
      "outputs": [],
      "stateMutability": "nonpayable",
      "type": "function"
    },
    {
      "inputs": [
        {
          "internalType": "bytes32",
          "name": "",
          "type": "bytes32"
        }
      ],
      "name": "revokedDKIMPublicKeyHashes",
      "outputs": [
        {
          "internalType": "bool",
          "name": "",
          "type": "bool"
        }
      ],
      "stateMutability": "view",
      "type": "function"
    },
    {
      "inputs": [
        {
          "internalType": "string",
          "name": "domainName",
          "type": "string"
        },
        {
          "internalType": "bytes32",
          "name": "publicKeyHash",
          "type": "bytes32"
        }
      ],
      "name": "setDKIMPublicKeyHash",
      "outputs": [],
      "stateMutability": "nonpayable",
      "type": "function"
    },
    {
      "inputs": [
        {
          "internalType": "string",
          "name": "domainName",
          "type": "string"
        },
        {
          "internalType": "bytes32[]",
          "name": "publicKeyHashes",
          "type": "bytes32[]"
        }
      ],
      "name": "setDKIMPublicKeyHashes",
      "outputs": [],
      "stateMutability": "nonpayable",
      "type": "function"
    },
    {
      "inputs": [
        {
          "internalType": "address",
          "name": "newOwner",
          "type": "address"
        }
      ],
      "name": "transferOwnership",
      "outputs": [],
      "stateMutability": "nonpayable",
      "type": "function"
    }
  ],
  "bytecode": {
    "object": "0x608060405234801561001057600080fd5b5061001a3361001f565b61006f565b600080546001600160a01b038381166001600160a01b0319831681178455604051919092169283917f8be0079c531659141344cd1fd0a4f28419497f9722a3daafe3b4186f6b6457e09190a35050565b6109868061007e6000396000f3fe608060405234801561001057600080fd5b50600436106100a35760003560e01c80638da5cb5b11610076578063e7a7977a1161005b578063e7a7977a14610176578063f2fde38b14610189578063f49eb1641461019c57600080fd5b80638da5cb5b1461013b578063c15cffab1461016357600080fd5b80630690bd38146100a857806315d2512e146100fb57806342d7cb9814610110578063715018a614610133575b600080fd5b6100e66100b63660046106c4565b81516020818401810180516001825292820194820194909420919093529091526000908152604090205460ff1681565b60405190151581526020015b60405180910390f35b61010e610109366004610709565b6101af565b005b6100e661011e366004610709565b60026020526000908152604090205460ff1681565b61010e61022b565b60005460405173ffffffffffffffffffffffffffffffffffffffff90911681526020016100f2565b61010e6101713660046106c4565b61023f565b6100e66101843660046106c4565b610359565b61010e610197366004610722565b6103bd565b61010e6101aa36600461075f565b610474565b6101b76104c2565b6000818152600260205260409081902080547fffffffffffffffffffffffffffffffffffffffffffffffffffffffffffffff00166001179055517fb80fff2b4c6f3ddf804877927c77b2fe1871cecaa5ad43d2c7c42f417331f865906102209083815260200190565b60405180910390a150565b6102336104c2565b61023d6000610543565b565b6102476104c2565b60008181526002602052604090205460ff16156102c5576040517f08c379a000000000000000000000000000000000000000000000000000000000815260206004820152601960248201527f63616e6e6f7420736574207265766f6b6564207075626b65790000000000000060448201526064015b60405180910390fd5b600180836040516102d6919061084d565b908152604080516020928190038301812060008681529352912080547fffffffffffffffffffffffffffffffffffffffffffffffffffffffffffffff0016921515929092179091557f510dac88eaf2dfbd53904241fc199ad46b2063e6bf6c3fb291f8ce86436634199061034d9084908490610869565b60405180910390a15050565b60008181526002602052604081205460ff1615610378575060006103b7565b600183604051610388919061084d565b90815260408051602092819003830190206000858152925290205460ff16156103b3575060016103b7565b5060005b92915050565b6103c56104c2565b73ffffffffffffffffffffffffffffffffffffffff8116610468576040517f08c379a000000000000000000000000000000000000000000000000000000000815260206004820152602660248201527f4f776e61626c653a206e6577206f776e657220697320746865207a65726f206160448201527f646472657373000000000000000000000000000000000000000000000000000060648201526084016102bc565b61047181610543565b50565b61047c6104c2565b60005b81518110156104bd576104ab8383838151811061049e5761049e6108c2565b602002602001015161023f565b806104b5816108f1565b91505061047f565b505050565b60005473ffffffffffffffffffffffffffffffffffffffff16331461023d576040517f08c379a000000000000000000000000000000000000000000000000000000000815260206004820181905260248201527f4f776e61626c653a2063616c6c6572206973206e6f7420746865206f776e657260448201526064016102bc565b6000805473ffffffffffffffffffffffffffffffffffffffff8381167fffffffffffffffffffffffff0000000000000000000000000000000000000000831681178455604051919092169283917f8be0079c531659141344cd1fd0a4f28419497f9722a3daafe3b4186f6b6457e09190a35050565b7f4e487b7100000000000000000000000000000000000000000000000000000000600052604160045260246000fd5b604051601f82017fffffffffffffffffffffffffffffffffffffffffffffffffffffffffffffffe016810167ffffffffffffffff8111828210171561062e5761062e6105b8565b604052919050565b600082601f83011261064757600080fd5b813567ffffffffffffffff811115610661576106616105b8565b61069260207fffffffffffffffffffffffffffffffffffffffffffffffffffffffffffffffe0601f840116016105e7565b8181528460208386010111156106a757600080fd5b816020850160208301376000918101602001919091529392505050565b600080604083850312156106d757600080fd5b823567ffffffffffffffff8111156106ee57600080fd5b6106fa85828601610636565b95602094909401359450505050565b60006020828403121561071b57600080fd5b5035919050565b60006020828403121561073457600080fd5b813573ffffffffffffffffffffffffffffffffffffffff8116811461075857600080fd5b9392505050565b6000806040838503121561077257600080fd5b823567ffffffffffffffff8082111561078a57600080fd5b61079686838701610636565b93506020915081850135818111156107ad57600080fd5b8501601f810187136107be57600080fd5b8035828111156107d0576107d06105b8565b8060051b92506107e18484016105e7565b81815292820184019284810190898511156107fb57600080fd5b928501925b8484101561081957833582529285019290850190610800565b8096505050505050509250929050565b60005b8381101561084457818101518382015260200161082c565b50506000910152565b6000825161085f818460208701610829565b9190910192915050565b6040815260008351806040840152610888816060850160208801610829565b602083019390935250601f919091017fffffffffffffffffffffffffffffffffffffffffffffffffffffffffffffffe01601606001919050565b7f4e487b7100000000000000000000000000000000000000000000000000000000600052603260045260246000fd5b60007fffffffffffffffffffffffffffffffffffffffffffffffffffffffffffffffff8203610949577f4e487b7100000000000000000000000000000000000000000000000000000000600052601160045260246000fd5b506001019056fea26469706673582212200d5b1dcde08abd61fa4eee2321cf6af8703914cb6f7fd4a99fd58de5aba21a7564736f6c63430008150033",
    "linkReferences": {}
  },
  "methodIdentifiers": {
    "dkimPublicKeyHashes(string,bytes32)": "0690bd38",
    "isDKIMPublicKeyHashValid(string,bytes32)": "e7a7977a",
    "owner()": "8da5cb5b",
    "renounceOwnership()": "715018a6",
    "revokeDKIMPublicKeyHash(bytes32)": "15d2512e",
    "revokedDKIMPublicKeyHashes(bytes32)": "42d7cb98",
    "setDKIMPublicKeyHash(string,bytes32)": "c15cffab",
    "setDKIMPublicKeyHashes(string,bytes32[])": "f49eb164",
    "transferOwnership(address)": "f2fde38b"
  },
  "storageLayout": {
    "storage": [
      {
        "astId": 389,
        "contract": "../../node_modules/@zk-email/contracts/DKIMRegistry.sol:DKIMRegistry",
        "label": "_owner",
        "offset": 0,
        "slot": "0",
        "type": "t_address"
      },
      {
        "astId": 4799,
        "contract": "../../node_modules/@zk-email/contracts/DKIMRegistry.sol:DKIMRegistry",
        "label": "dkimPublicKeyHashes",
        "offset": 0,
        "slot": "1",
        "type": "t_mapping(t_string_memory_ptr,t_mapping(t_bytes32,t_bool))"
      },
      {
        "astId": 4803,
        "contract": "../../node_modules/@zk-email/contracts/DKIMRegistry.sol:DKIMRegistry",
        "label": "revokedDKIMPublicKeyHashes",
        "offset": 0,
        "slot": "2",
        "type": "t_mapping(t_bytes32,t_bool)"
      }
    ],
    "types": {
      "t_address": {
        "encoding": "inplace",
        "label": "address",
        "numberOfBytes": "20"
      },
      "t_bool": {
        "encoding": "inplace",
        "label": "bool",
        "numberOfBytes": "1"
      },
      "t_bytes32": {
        "encoding": "inplace",
        "label": "bytes32",
        "numberOfBytes": "32"
      },
      "t_mapping(t_bytes32,t_bool)": {
        "encoding": "mapping",
        "key": "t_bytes32",
        "label": "mapping(bytes32 => bool)",
        "numberOfBytes": "32",
        "value": "t_bool"
      },
      "t_mapping(t_string_memory_ptr,t_mapping(t_bytes32,t_bool))": {
        "encoding": "mapping",
        "key": "t_string_memory_ptr",
        "label": "mapping(string => mapping(bytes32 => bool))",
        "numberOfBytes": "32",
        "value": "t_mapping(t_bytes32,t_bool)"
      },
      "t_string_memory_ptr": {
        "encoding": "bytes",
        "label": "string",
        "numberOfBytes": "32"
      }
    }
  },
  "id": 48
}