{
  "abi": [
    {
      "inputs": [
        {
          "internalType": "uint256[2]",
          "name": "_pA",
          "type": "uint256[2]"
        },
        {
          "internalType": "uint256[2][2]",
          "name": "_pB",
          "type": "uint256[2][2]"
        },
        {
          "internalType": "uint256[2]",
          "name": "_pC",
          "type": "uint256[2]"
        },
        {
          "internalType": "uint256[16]",
          "name": "_pubSignals",
          "type": "uint256[16]"
        }
      ],
      "name": "verifyProof",
      "outputs": [
        {
          "internalType": "bool",
          "name": "",
          "type": "bool"
        }
      ],
      "stateMutability": "view",
      "type": "function"
    }
  ],
  "bytecode": {
    "object": "0x608060405234801561001057600080fd5b50610ad9806100206000396000f3fe608060405234801561001057600080fd5b506004361061002b5760003560e01c8063c82febf514610030575b600080fd5b61004361003e366004610a1d565b610057565b604051901515815260200160405180910390f35b60006108fc565b600080516020610a84833981519152811061007d576000805260206000f35b50565b600060405183815284602082015285604082015260408160608360076107d05a03fa9150816100b3576000805260206000f35b825160408201526020830151606082015260408360808360066107d05a03fa915050806100e4576000805260206000f35b5050505050565b7f09fa061ded7b028d493ced2f3129135535c3ccad4a0c52ff156c832fbe99629d85527f29cb31bfd5c9f1f5c813152bbccec60777ea640c293f83cccd3604e7f15ffbe560208601526000608086018661018887357f1091ebde5938e9cb789f480e58f8fbfd8405350f68766e64e6dd1ce42a1a38897f0bfe79fd567ed8292689fde7c099194475c7611092e032e2e6d848d051f6db2884610080565b6101d860208801357f13935628dc05860ef75f72a0ccf3e80e8f3c0e03ac412e243ae73985d9ef2d137f2805cf7cc28faa5621b301744ae0eac0d67dcab242b6856821e66ed5cf5c7e1684610080565b61022860408801357f1a715f9ad5ff7874a33068027b7faf3e2b80d22359d034641f9be6bc5488984a7f12939f44f6beac6c306f4909baf6209b772acf0d20ac85c6afcb1d52412288e584610080565b61027860608801357f0223e76fbac11521a43c5716fdc0ae722bb36824aeae6d2f849906464edf2e437f15391d157e7d2761e13163287da85050c8046df1529be47eb6e7f0ef8f32db1784610080565b6102c860808801357f0c1697e4cd5943b6b306de51df7b7755f5914591b633b547f9aa228b49b9a0607f20d999804c6a6f78e7ffacb6d7c75c1ce90f14f142e902831532305f2af54b6184610080565b61031860a08801357f04df976eaa15271ac3fc63b147f0eb479dc46f48f5cf4e3bbf40a11bcd43f42e7f039e4f640a8837ebe9e7c2fc978855ad511a7fd92966e20181f1d8d42a9d8e1a84610080565b61036860c08801357f26f2857b328e90b65c129b3a480f67beda8f5d1d8d7cf5018c0dde5ea897c7497f1a3d8002668254712aff14d1fe46c4c152af76b81abaa24ee47dd1cb5ddecdad84610080565b6103b860e08801357f2ab92bd799fa9c9c91605f7e3ec2a1f5bb8fd1dbafb3fab6726b994ee48e98537f1def990076a4e63dc10858a7a6b210b73ab283f659c8e4093ca87808812c088484610080565b6104096101008801357f0568179bab4836550143e4fa9b87c5cc75baae61e7f98612f7028ba3fd709a167f08db7fc3d103c6bbde780897ba8c2b1d44be39f5cad9ee0dfdf54830b1dcdf6584610080565b61045a6101208801357f1d30e2133fa9c970f410c93f129762fd7842e444b7cc620e9ffcac027845a6027f15bd92f858ed9554a88d1f9407780ca9e3a3c8bdac4309bf9077b313c07241b184610080565b6104ab6101408801357f226fd0949a1abeb2bdf6743609a1f28a0e5d15d22a3aa846f41cf8a18615bfc67f2e6b97f58e10365ba95f764b8a480632496f556c2a6a79d7c52e7ef99eda610484610080565b6104fc6101608801357f16a8bb187ccaf31ba368a1cef89107b72065ff6bbd89d78c313aae4a1915e1407f2d793f3cf8319a959fe78779767d5a10b3efcbf8b2cde312f981bc43544a457784610080565b61054d6101808801357f12f82ada533e0c6c81cf2dcc4de48e05d3765509f9a1d5f68a85c35ef578ca537f11cefa3f7db6ccb438d6a9a02cadf8070515a8385c2996b94d386105c29bc06284610080565b61059e6101a08801357f067e91658a599c28433ba5d07bedca04a100e0f85b11a0adb077cda607501d487f1fc71e3b1a9cf0f267144960965b640d78f8b2aeb134d0befaf6ba51e7cb6f9f84610080565b6105ef6101c08801357f0120e15d11eb7f1b4319a7f6647e32e08ff32335054a19d99e924c00cd2562f87f1375aa602332c78a939c733d05bac72de2bd96f261bda48486a4f82fcb0ee12184610080565b6106406101e08801357f1fb73fd9efccc045198cda1ee139b7f6fcac9e655ad35b35d203163bb03361217f10e5018b654f98a80330e81ac56b3102ad9e70a5e9c99c0d3eb2821779eee99f84610080565b5082358152600080516020610a848339815191526020840135600080516020610a8483398151915203066020820152833560408201526020840135606082015260408401356080820152606084013560a08201527f2d4d9aa7e302d9df41749d5507949d05dbea33fbb16c643b22f599a2be6df2e260c08201527f14bedd503c37ceb061d8ec60209fe345ce89830a19230301f076caff004d192660e08201527f0967032fcbf776d1afc985f88877f182d38480a653f2decaa9794cbc3bf3060c6101008201527f0e187847ad4c798374d0d6732bf501847dd68bc0e071241e0213bc7fc13db7ab6101208201527f304cfbd1e08a704a99f5e847d93f8c3caafddec46b7a0d379da69a4d112346a76101408201527f1739c1b1a457a8c7313123d24d2f9192f896b7c63eea05a9d57f06547ad0cec8610160820152600087015161018082015260206000018701516101a08201527f198e9393920d483a7260bfb731fb5d25f1aa493335a9e71297e485b7aef312c26101c08201527f1800deef121f1e76426a00665e5c4479674322d4f75edadd46debd5cd992f6ed6101e08201527f090689d0585ff075ec9e99ad690c3395bc4b313370b38ef355acdadcd122975b6102008201527f12c85ea5db8c6deb4aab71808dcb408fe3d1e7690c43d37b4ce6cc0166fa7daa610220820152843561024082015260208501356102608201527f0179b12d7e5a7b5754f657f25cca0404a18794332fdff2b791b77eec8a983a7b6102808201527f13c5125983b6d7034005560e102dfde2adceba500cc9ef15bd25704d2eaa35c56102a08201527f1378c88ae2772e7cd7d4cf871058f977086f7f5b176cfa140b19e261bcda9c186102c08201527f2072394867b5cac26a2a95529af402c8a317908ea91c2ba2b84acac8b68d2c916102e08201526020816103008360086107d05a03fa9051169695505050505050565b6040516103808101604052610914600084013561005e565b610921602084013561005e565b61092e604084013561005e565b61093b606084013561005e565b610948608084013561005e565b61095560a084013561005e565b61096260c084013561005e565b61096f60e084013561005e565b61097d61010084013561005e565b61098b61012084013561005e565b61099961014084013561005e565b6109a761016084013561005e565b6109b561018084013561005e565b6109c36101a084013561005e565b6109d16101c084013561005e565b6109df6101e084013561005e565b6109ed61020084013561005e565b6109fa818486888a6100eb565b90508060005260206000f35b8060408101831015610a1757600080fd5b92915050565b600080600080610300808688031215610a3557600080fd5b610a3f8787610a06565b945060c0860187811115610a5257600080fd5b604087019450610a628882610a06565b935050868187011115610a7457600080fd5b5092959194509261010001915056fe30644e72e131a029b85045b68181585d97816a916871ca8d3c208c16d87cfd47a2646970667358221220d811d1a20c1ed5640961efd4ef481d2d14dcc969e38a76e1e73dc59bcff57bc264736f6c63430008150033",
    "linkReferences": {}
  },
  "methodIdentifiers": {
    "verifyProof(uint256[2],uint256[2][2],uint256[2],uint256[16])": "c82febf5"
  },
  "id": 148
}