{
  "abi": [
    {
      "inputs": [
        {
          "internalType": "uint256[2]",
          "name": "_pA",
          "type": "uint256[2]"
        },
        {
          "internalType": "uint256[2][2]",
          "name": "_pB",
          "type": "uint256[2][2]"
        },
        {
          "internalType": "uint256[2]",
          "name": "_pC",
          "type": "uint256[2]"
        },
        {
          "internalType": "uint256[16]",
          "name": "_pubSignals",
          "type": "uint256[16]"
        }
      ],
      "name": "verifyProof",
      "outputs": [
        {
          "internalType": "bool",
          "name": "",
          "type": "bool"
        }
      ],
      "stateMutability": "view",
      "type": "function"
    }
  ],
  "bytecode": {
    "object": "0x608060405234801561001057600080fd5b50610ad9806100206000396000f3fe608060405234801561001057600080fd5b506004361061002b5760003560e01c8063c82febf514610030575b600080fd5b61004361003e366004610a1d565b610057565b604051901515815260200160405180910390f35b60006108fc565b600080516020610a84833981519152811061007d576000805260206000f35b50565b600060405183815284602082015285604082015260408160608360076107d05a03fa9150816100b3576000805260206000f35b825160408201526020830151606082015260408360808360066107d05a03fa915050806100e4576000805260206000f35b5050505050565b7f2dc2554f42fe4a71509c3a047c77ecf4ff6decf1b52fb605050de9cdf6a558e085527f224ba05c8d965702ed182807f3579c88938f618fa8b935a82e57701bc371611d60208601526000608086018661018887357f092ca1fb2a762b1adfbd3e9b7c8b54cc1ebf0b6c512d954ac1a1c187cf964b987f1d94e966bcb53acfd15fc4f659a84dc8452e693cb3d18984c822ed428a5fe8e484610080565b6101d860208801357f2809598f0cccd9cb63ee19f4b8609890bdb8e13c4c683dced83d7ad0600db35d7f10b9402a5f35d3c9e5aaabf79f50a8dcfc846624ec016c2b1ff8e3d6b0b28b4d84610080565b61022860408801357f2c7b6defd9eaae081c14a62451add6c2c893ab51bcf0597b0988ed78635b46e17f0dff0c93b9500afb69bef0586832b47e5c06c84f2457e061aa6bd33e19c9cee084610080565b61027860608801357f0d7d175032472fd1b91fa457d0e91b9ea047ea7c8d9e67e27063577c9de85c047f2a2614eea716a6081a217c881a9d133951f94773e23ef110faff4a977652c62584610080565b6102c860808801357f0c20803597cbe0978915f024685c524a7955f8b131392d1e424c3dafdee203777f2191df99b8e81db286b4af80de4f94f6286211e037c086614419c10483a0ccc884610080565b61031860a08801357f2d5e1c49d261a9c947635dc398174048f98d1a9573d00116506f6cf26cd1aeb27f2f8c26dde0dd1e834b38820fc4b6209cce9aa0f97c2428280f29077aa417d7f784610080565b61036860c08801357f2240d183d9b9cb94506b9354dca366ec2bc09b996899c25a39188bbb9bf1c01e7f132855d49c964b515c7fafcfd897a2e07337b16f99ad2d6d29e151a6fa72c02984610080565b6103b860e08801357f29634a17a3d18e8fb1bcdcef58131958e8ba13568dc12c643f8f92daf29b64a57f179fd9f6cb167e7abeccfc9fe6eafd13dd6d732b81653be8e723b9fb76f299ff84610080565b6104096101008801357f04c9bf71ee76a2a02dddc0ff403cfb4d1b0d5a06f5ed297481b581438784fce27f1faa7c618c4517d62414d5ca48c47e314d0d355db130631f3f425d980e14bb4884610080565b61045a6101208801357f0129bfc07378b9d50123d846e751fe5933a4b5115e2c6dfbac3ff7731e7223907f2778b6394ceaa57270f3643ab8ed34a0aab4fa1c9d0c8e94a98a818f8cf73d2884610080565b6104ab6101408801357f186e57fda3a8edabe68fe49b66a79830423ceac19b75e78a8ccb4ef6e1c4bf767f20138df6374d785a9247794e7bf036ee354d421d7829c75f7682671f3c97a89a84610080565b6104fc6101608801357f0de42c1ffeef447077e9447f99b072cfe8b22ba1e4cddb943e1182f8d7493d237f26f1b7d297b642be620e52104fc7b369bb2d746e36c8aec7ac478d65807af32784610080565b61054d6101808801357f1565b856b07f4555c4b307c760fcb10452a5cc7389255e7d32dc9b5bd51df0d57f109905b875b85aac69ae44dca37e533ddeffe04130a8d142a4af0f37a14e7b0c84610080565b61059e6101a08801357f0f56b557e066f1ce87cf1a49409842398b7c4ae79bb803c74f8be9361e40704a7f15568d04d5176d22032afe6f556ae7881a8c533acf18e6d375a7e2daa958049484610080565b6105ef6101c08801357f265d1cf3f01efbaff33da2057f9e5a739cfba7ece3f2b8535cd30dedafb0612b7f0a4b4f7b8dd050b3bd35a63edc6df471d7811dc4e502955d125a89f540a6584b84610080565b6106406101e08801357f0d85c76b301bce4e1dfb15523bbae531bfb76a1bcc46e854c214fa346727087f7f1f319e758b54e2da20cfae53b740a676af730c41a8a06cbe9ac7c18e61232e3984610080565b5082358152600080516020610a848339815191526020840135600080516020610a8483398151915203066020820152833560408201526020840135606082015260408401356080820152606084013560a08201527f2d4d9aa7e302d9df41749d5507949d05dbea33fbb16c643b22f599a2be6df2e260c08201527f14bedd503c37ceb061d8ec60209fe345ce89830a19230301f076caff004d192660e08201527f0967032fcbf776d1afc985f88877f182d38480a653f2decaa9794cbc3bf3060c6101008201527f0e187847ad4c798374d0d6732bf501847dd68bc0e071241e0213bc7fc13db7ab6101208201527f304cfbd1e08a704a99f5e847d93f8c3caafddec46b7a0d379da69a4d112346a76101408201527f1739c1b1a457a8c7313123d24d2f9192f896b7c63eea05a9d57f06547ad0cec8610160820152600087015161018082015260206000018701516101a08201527f198e9393920d483a7260bfb731fb5d25f1aa493335a9e71297e485b7aef312c26101c08201527f1800deef121f1e76426a00665e5c4479674322d4f75edadd46debd5cd992f6ed6101e08201527f090689d0585ff075ec9e99ad690c3395bc4b313370b38ef355acdadcd122975b6102008201527f12c85ea5db8c6deb4aab71808dcb408fe3d1e7690c43d37b4ce6cc0166fa7daa610220820152843561024082015260208501356102608201527f305f82fb7e663d26e49d2d8b7875a15855b4c570bb742f411ae2dbb3419a49ae6102808201527f150a4a2eb5c001b984398333e140136739e2b2947bed6f6fff7a998f0ebc25236102a08201527f24d52ed5eae0e056c2d1d9f4ac3bd2a6c602c06d2784431ef28df572e5351aac6102c08201527f0d779f3f38dd1ad24896f27f05b77f878920b910175839dccc537eefa002d8ab6102e08201526020816103008360086107d05a03fa9051169695505050505050565b6040516103808101604052610914600084013561005e565b610921602084013561005e565b61092e604084013561005e565b61093b606084013561005e565b610948608084013561005e565b61095560a084013561005e565b61096260c084013561005e565b61096f60e084013561005e565b61097d61010084013561005e565b61098b61012084013561005e565b61099961014084013561005e565b6109a761016084013561005e565b6109b561018084013561005e565b6109c36101a084013561005e565b6109d16101c084013561005e565b6109df6101e084013561005e565b6109ed61020084013561005e565b6109fa818486888a6100eb565b90508060005260206000f35b8060408101831015610a1757600080fd5b92915050565b600080600080610300808688031215610a3557600080fd5b610a3f8787610a06565b945060c0860187811115610a5257600080fd5b604087019450610a628882610a06565b935050868187011115610a7457600080fd5b5092959194509261010001915056fe30644e72e131a029b85045b68181585d97816a916871ca8d3c208c16d87cfd47a26469706673582212207844e0321ffd73f89be4705572e4f188098a0f01274f4436938ebae57d8c567464736f6c63430008150033",
    "linkReferences": {}
  },
  "methodIdentifiers": {
    "verifyProof(uint256[2],uint256[2][2],uint256[2],uint256[16])": "c82febf5"
  },
  "id": 2
}