{
  "abi": [
    {
      "inputs": [
        {
          "internalType": "address",
          "name": "_signer",
          "type": "address"
        }
      ],
      "stateMutability": "nonpayable",
      "type": "constructor"
    },
    {
      "inputs": [],
      "name": "dkimRegistry",
      "outputs": [
        {
          "internalType": "contract DKIMRegistry",
          "name": "",
          "type": "address"
        }
      ],
      "stateMutability": "view",
      "type": "function"
    },
    {
      "inputs": [
        {
          "internalType": "string",
          "name": "domainName",
          "type": "string"
        }
      ],
      "name": "getDKIMPublicKeyHash",
      "outputs": [
        {
          "internalType": "uint256",
          "name": "",
          "type": "uint256"
        }
      ],
      "stateMutability": "view",
      "type": "function"
    },
    {
      "inputs": [],
      "name": "nonce",
      "outputs": [
        {
          "internalType": "uint256",
          "name": "",
          "type": "uint256"
        }
      ],
      "stateMutability": "view",
      "type": "function"
    },
    {
      "inputs": [
        {
          "internalType": "string",
          "name": "selector",
          "type": "string"
        },
        {
          "internalType": "string",
          "name": "domainName",
          "type": "string"
        },
        {
          "internalType": "uint256",
          "name": "publicKeyHash",
          "type": "uint256"
        },
        {
          "internalType": "bytes",
          "name": "signature",
          "type": "bytes"
        }
      ],
      "name": "setDKIMPublicKeyHash",
      "outputs": [],
      "stateMutability": "nonpayable",
      "type": "function"
    },
    {
      "inputs": [],
      "name": "signer",
      "outputs": [
        {
          "internalType": "address",
          "name": "",
          "type": "address"
        }
      ],
      "stateMutability": "view",
      "type": "function"
    }
  ],
  "bytecode": {
    "object": "0x608060405234801561001057600080fd5b506040516114af3803806114af83398101604081905261002f91610099565b60405161003b9061008c565b604051809103906000f080158015610057573d6000803e3d6000fd5b50600180546001600160a01b039283166001600160a01b031991821617909155600280549390921692169190911790556100c9565b61063680610e7983390190565b6000602082840312156100ab57600080fd5b81516001600160a01b03811681146100c257600080fd5b9392505050565b610da1806100d86000396000f3fe608060405234801561001057600080fd5b50600436106100575760003560e01c8063238ac9331461005c5780636423f1e21461008c578063a094a5451461009f578063affed0e0146100b4578063cd61acb5146100cb575b600080fd5b60025461006f906001600160a01b031681565b6040516001600160a01b0390911681526020015b60405180910390f35b60015461006f906001600160a01b031681565b6100b26100ad3660046109c3565b6100de565b005b6100bd60005481565b604051908152602001610083565b6100bd6100d9366004610a69565b610249565b60006100e9306102c1565b6000546100f79060206102d3565b604051602001610108929190610ae6565b6040516020818303038152906040529050600061012446610476565b86868461013088610509565b604051602001610144959493929190610b15565b6040516020818303038152906040529050600061016082610520565b9050600061016e828661055b565b6002549091506001600160a01b038083169116146101c75760405162461bcd60e51b8152602060048201526011602482015270496e76616c6964207369676e617475726560781b60448201526064015b60405180910390fd5b6000805490806101d683610c10565b90915550506001546040516370e4682960e11b81526001600160a01b039091169063e1c8d0529061020d908a908a90600401610c55565b600060405180830381600087803b15801561022757600080fd5b505af115801561023b573d6000803e3d6000fd5b505050505050505050505050565b60015460405163cd61acb560e01b81526000916001600160a01b03169063cd61acb59061027a908590600401610c77565b602060405180830381865afa158015610297573d6000803e3d6000fd5b505050506040513d601f19601f820116820180604052508101906102bb9190610c8a565b92915050565b60606102bb6001600160a01b03831660145b606060006102e2836002610ca3565b6102ed906002610cba565b67ffffffffffffffff81111561030557610305610917565b6040519080825280601f01601f19166020018201604052801561032f576020820181803683370190505b509050600360fc1b8160008151811061034a5761034a610ccd565b60200101906001600160f81b031916908160001a905350600f60fb1b8160018151811061037957610379610ccd565b60200101906001600160f81b031916908160001a905350600061039d846002610ca3565b6103a8906001610cba565b90505b6001811115610420576f181899199a1a9b1b9c1cb0b131b232b360811b85600f16601081106103dc576103dc610ccd565b1a60f81b8282815181106103f2576103f2610ccd565b60200101906001600160f81b031916908160001a90535060049490941c9361041981610ce3565b90506103ab565b50831561046f5760405162461bcd60e51b815260206004820181905260248201527f537472696e67733a20686578206c656e67746820696e73756666696369656e7460448201526064016101be565b9392505050565b606060006104838361057f565b600101905060008167ffffffffffffffff8111156104a3576104a3610917565b6040519080825280601f01601f1916602001820160405280156104cd576020820181803683370190505b5090508181016020015b600019016f181899199a1a9b1b9c1cb0b131b232b360811b600a86061a8153600a85049450846104d757509392505050565b60606102bb8261051884610657565b6001016102d3565b600061052c8251610476565b8260405160200161053e929190610cfa565b604051602081830303815290604052805190602001209050919050565b600080600061056a85856106c1565b9150915061057781610706565b509392505050565b60008072184f03e93ff9f4daa797ed6e38ed64bf6a1f0160401b83106105be5772184f03e93ff9f4daa797ed6e38ed64bf6a1f0160401b830492506040015b6d04ee2d6d415b85acef810000000083106105ea576d04ee2d6d415b85acef8100000000830492506020015b662386f26fc10000831061060857662386f26fc10000830492506010015b6305f5e1008310610620576305f5e100830492506008015b612710831061063457612710830492506004015b60648310610646576064830492506002015b600a83106102bb5760010192915050565b600080608083901c1561066f5760809290921c916010015b604083901c156106845760409290921c916008015b602083901c156106995760209290921c916004015b601083901c156106ae5760109290921c916002015b600883901c156102bb5760010192915050565b60008082516041036106f75760208301516040840151606085015160001a6106eb87828585610853565b945094505050506106ff565b506000905060025b9250929050565b600081600481111561071a5761071a610d55565b036107225750565b600181600481111561073657610736610d55565b036107835760405162461bcd60e51b815260206004820152601860248201527f45434453413a20696e76616c6964207369676e6174757265000000000000000060448201526064016101be565b600281600481111561079757610797610d55565b036107e45760405162461bcd60e51b815260206004820152601f60248201527f45434453413a20696e76616c6964207369676e6174757265206c656e6774680060448201526064016101be565b60038160048111156107f8576107f8610d55565b036108505760405162461bcd60e51b815260206004820152602260248201527f45434453413a20696e76616c6964207369676e6174757265202773272076616c604482015261756560f01b60648201526084016101be565b50565b6000807f7fffffffffffffffffffffffffffffff5d576e7357a4501ddfe92f46681b20a083111561088a575060009050600361090e565b6040805160008082526020820180845289905260ff881692820192909252606081018690526080810185905260019060a0016020604051602081039080840390855afa1580156108de573d6000803e3d6000fd5b5050604051601f1901519150506001600160a01b0381166109075760006001925092505061090e565b9150600090505b94509492505050565b634e487b7160e01b600052604160045260246000fd5b600067ffffffffffffffff8084111561094857610948610917565b604051601f8501601f19908116603f0116810190828211818310171561097057610970610917565b8160405280935085815286868601111561098957600080fd5b858560208301376000602087830101525050509392505050565b600082601f8301126109b457600080fd5b61046f8383356020850161092d565b600080600080608085870312156109d957600080fd5b843567ffffffffffffffff808211156109f157600080fd5b6109fd888389016109a3565b95506020870135915080821115610a1357600080fd5b610a1f888389016109a3565b9450604087013593506060870135915080821115610a3c57600080fd5b508501601f81018713610a4e57600080fd5b610a5d8782356020840161092d565b91505092959194509250565b600060208284031215610a7b57600080fd5b813567ffffffffffffffff811115610a9257600080fd5b610a9e848285016109a3565b949350505050565b60005b83811015610ac1578181015183820152602001610aa9565b50506000910152565b60008151610adc818560208601610aa6565b9290920192915050565b60008351610af8818460208801610aa6565b835190830190610b0c818360208801610aa6565b01949350505050565b68636861696e5f69643d60b81b815260008651610b39816009850160208b01610aa6565b693b73656c6563746f723d60b01b6009918401918201528651610b63816013840160208b01610aa6565b673b646f6d61696e3d60c01b601392909101918201528551610b8c81601b840160208a01610aa6565b600981830101915050643b7461673d60d81b60128201528451610bb6816017840160208901610aa6565b01601701610bd781703b7075626c69635f6b65795f686173683d60781b9052565b610be46011820185610aca565b603b60f81b815260010198975050505050505050565b634e487b7160e01b600052601160045260246000fd5b600060018201610c2257610c22610bfa565b5060010190565b60008151808452610c41816020860160208601610aa6565b601f01601f19169290920160200192915050565b604081526000610c686040830185610c29565b90508260208301529392505050565b60208152600061046f6020830184610c29565b600060208284031215610c9c57600080fd5b5051919050565b80820281158282048414176102bb576102bb610bfa565b808201808211156102bb576102bb610bfa565b634e487b7160e01b600052603260045260246000fd5b600081610cf257610cf2610bfa565b506000190190565b7f19457468657265756d205369676e6564204d6573736167653a0a000000000000815260008351610d3281601a850160208801610aa6565b835190830190610d4981601a840160208801610aa6565b01601a01949350505050565b634e487b7160e01b600052602160045260246000fdfea264697066735822122064152b1baaa0b40eb7c56274ea613fddd9005c72c3724f6f146eda137bd8052564736f6c63430008110033608060405234801561001057600080fd5b5061001a33610189565b7f2d7fbd7fb55c9468f64c40abaad7df66509cfaa2eaaba7855f146ce02c79762560016040516100599068676d61696c2e636f6d60b81b815260090190565b90815260408051918290036020018220929092556a686f746d61696c2e636f6d60a81b81526001600b808301829052835192839003602b90810184207f061495e4be5399685bc8df271ac155b07e58a9467e75f08048c72b87d9b0bcb690556a747769747465722e636f6d60a81b84529083018290528351928390030182207f1b7c1c708a988a8caba5f8f1e4f0b8cb744fc07a3a758725690d3969e76c26f690556b657468657265756d2e6f726760a01b8252600c8201819052825191829003602c0182207f1e65eccfd6fd29c50fe91f101178189473c9d95ca96b31547c32789b97cc6a5e905568736b6966662e636f6d60b81b8252600982015290519081900360290190207f1a408aa5bfb41d295d304376285bcf22968313c84c8c3219eba5012bc34c70d890556101d9565b600080546001600160a01b038381166001600160a01b0319831681178455604051919092169283917f8be0079c531659141344cd1fd0a4f28419497f9722a3daafe3b4186f6b6457e09190a35050565b61044e806101e86000396000f3fe608060405234801561001057600080fd5b50600436106100625760003560e01c80634a1e86a414610067578063715018a6146100a55780638da5cb5b146100af578063cd61acb5146100ca578063e1c8d052146100dd578063f2fde38b146100f0575b600080fd5b610092610075366004610337565b805160208183018101805160018252928201919093012091525481565b6040519081526020015b60405180910390f35b6100ad610103565b005b6000546040516001600160a01b03909116815260200161009c565b6100926100d8366004610337565b610117565b6100ad6100eb366004610374565b61013f565b6100ad6100fe3660046103b9565b61016c565b61010b6101ea565b6101156000610244565b565b600060018260405161012991906103e9565b9081526020016040518091039020549050919050565b6101476101ea565b8060018360405161015891906103e9565b908152604051908190036020019020555050565b6101746101ea565b6001600160a01b0381166101de5760405162461bcd60e51b815260206004820152602660248201527f4f776e61626c653a206e6577206f776e657220697320746865207a65726f206160448201526564647265737360d01b60648201526084015b60405180910390fd5b6101e781610244565b50565b6000546001600160a01b031633146101155760405162461bcd60e51b815260206004820181905260248201527f4f776e61626c653a2063616c6c6572206973206e6f7420746865206f776e657260448201526064016101d5565b600080546001600160a01b038381166001600160a01b0319831681178455604051919092169283917f8be0079c531659141344cd1fd0a4f28419497f9722a3daafe3b4186f6b6457e09190a35050565b634e487b7160e01b600052604160045260246000fd5b600082601f8301126102bb57600080fd5b813567ffffffffffffffff808211156102d6576102d6610294565b604051601f8301601f19908116603f011681019082821181831017156102fe576102fe610294565b8160405283815286602085880101111561031757600080fd5b836020870160208301376000602085830101528094505050505092915050565b60006020828403121561034957600080fd5b813567ffffffffffffffff81111561036057600080fd5b61036c848285016102aa565b949350505050565b6000806040838503121561038757600080fd5b823567ffffffffffffffff81111561039e57600080fd5b6103aa858286016102aa565b95602094909401359450505050565b6000602082840312156103cb57600080fd5b81356001600160a01b03811681146103e257600080fd5b9392505050565b6000825160005b8181101561040a57602081860181015185830152016103f0565b50600092019182525091905056fea2646970667358221220ee871491608eaa1f7759ac61979dd1f72f2226d8ee36664cb42d8c2728a5785864736f6c63430008110033",
    "linkReferences": {}
  },
  "methodIdentifiers": {
    "dkimRegistry()": "6423f1e2",
    "getDKIMPublicKeyHash(string)": "cd61acb5",
    "nonce()": "affed0e0",
    "setDKIMPublicKeyHash(string,string,uint256,bytes)": "a094a545",
    "signer()": "238ac933"
  },
  "id": 45
}