{
  "abi": [
    {
      "inputs": [
        {
          "internalType": "address",
          "name": "_signer",
          "type": "address"
        }
      ],
      "stateMutability": "nonpayable",
      "type": "constructor"
    },
    {
      "inputs": [],
      "name": "REVOKE_PREFIX",
      "outputs": [
        {
          "internalType": "string",
          "name": "",
          "type": "string"
        }
      ],
      "stateMutability": "view",
      "type": "function"
    },
    {
      "inputs": [],
      "name": "SET_PREFIX",
      "outputs": [
        {
          "internalType": "string",
          "name": "",
          "type": "string"
        }
      ],
      "stateMutability": "view",
      "type": "function"
    },
    {
      "inputs": [
        {
          "internalType": "string",
          "name": "prefix",
          "type": "string"
        },
        {
          "internalType": "string",
          "name": "selector",
          "type": "string"
        },
        {
          "internalType": "string",
          "name": "domainName",
          "type": "string"
        },
        {
          "internalType": "bytes32",
          "name": "publicKeyHash",
          "type": "bytes32"
        }
      ],
      "name": "computeSignedMsg",
      "outputs": [
        {
          "internalType": "string",
          "name": "",
          "type": "string"
        }
      ],
      "stateMutability": "view",
      "type": "function"
    },
    {
      "inputs": [],
      "name": "dkimRegistry",
      "outputs": [
        {
          "internalType": "contract DKIMRegistry",
          "name": "",
          "type": "address"
        }
      ],
      "stateMutability": "view",
      "type": "function"
    },
    {
      "inputs": [
        {
          "internalType": "string",
          "name": "domainName",
          "type": "string"
        },
        {
          "internalType": "bytes32",
          "name": "publicKeyHash",
          "type": "bytes32"
        }
      ],
      "name": "isDKIMPublicKeyHashValid",
      "outputs": [
        {
          "internalType": "bool",
          "name": "",
          "type": "bool"
        }
      ],
      "stateMutability": "view",
      "type": "function"
    },
    {
      "inputs": [
        {
          "internalType": "string",
          "name": "selector",
          "type": "string"
        },
        {
          "internalType": "string",
          "name": "domainName",
          "type": "string"
        },
        {
          "internalType": "bytes32",
          "name": "publicKeyHash",
          "type": "bytes32"
        },
        {
          "internalType": "bytes",
          "name": "signature",
          "type": "bytes"
        }
      ],
      "name": "revokeDKIMPublicKeyHash",
      "outputs": [],
      "stateMutability": "nonpayable",
      "type": "function"
    },
    {
      "inputs": [
        {
          "internalType": "string",
          "name": "selector",
          "type": "string"
        },
        {
          "internalType": "string",
          "name": "domainName",
          "type": "string"
        },
        {
          "internalType": "bytes32",
          "name": "publicKeyHash",
          "type": "bytes32"
        },
        {
          "internalType": "bytes",
          "name": "signature",
          "type": "bytes"
        }
      ],
      "name": "setDKIMPublicKeyHash",
      "outputs": [],
      "stateMutability": "nonpayable",
      "type": "function"
    },
    {
      "inputs": [],
      "name": "signer",
      "outputs": [
        {
          "internalType": "address",
          "name": "",
          "type": "address"
        }
      ],
      "stateMutability": "view",
      "type": "function"
    }
  ],
  "bytecode": {
    "object": "0x60806040523480156200001157600080fd5b5060405162002347380380620023478339810160408190526200003491620000a3565b604051620000429062000095565b604051809103906000f0801580156200005f573d6000803e3d6000fd5b50600080546001600160a01b039283166001600160a01b03199182161790915560018054939092169216919091179055620000d5565b610a04806200194383390190565b600060208284031215620000b657600080fd5b81516001600160a01b0381168114620000ce57600080fd5b9392505050565b61185e80620000e56000396000f3fe608060405234801561001057600080fd5b50600436106100885760003560e01c8063aec793611161005b578063aec7936114610159578063d507c3201461016c578063e7a7977a146101a8578063f6b49344146101cb57600080fd5b806307f1eaf51461008d578063238ac933146100df5780636423f1e21461012457806397170f2b14610144575b600080fd5b6100c96040518060400160405280600481526020017f5345543a0000000000000000000000000000000000000000000000000000000081525081565b6040516100d691906112ed565b60405180910390f35b6001546100ff9073ffffffffffffffffffffffffffffffffffffffff1681565b60405173ffffffffffffffffffffffffffffffffffffffff90911681526020016100d6565b6000546100ff9073ffffffffffffffffffffffffffffffffffffffff1681565b6101576101523660046113e3565b6101de565b005b6100c9610167366004611489565b610603565b6100c96040518060400160405280600781526020017f5245564f4b453a0000000000000000000000000000000000000000000000000081525081565b6101bb6101b6366004611519565b610647565b60405190151581526020016100d6565b6101576101d93660046113e3565b6106ea565b835160000361024e576040517f08c379a000000000000000000000000000000000000000000000000000000000815260206004820152601060248201527f496e76616c69642073656c6563746f720000000000000000000000000000000060448201526064015b60405180910390fd5b82516000036102b9576040517f08c379a000000000000000000000000000000000000000000000000000000000815260206004820152601360248201527f496e76616c696420646f6d61696e206e616d65000000000000000000000000006044820152606401610245565b81610320576040517f08c379a000000000000000000000000000000000000000000000000000000000815260206004820152601760248201527f496e76616c6964207075626c6963206b657920686173680000000000000000006044820152606401610245565b61032a8383610647565b15610391576040517f08c379a000000000000000000000000000000000000000000000000000000000815260206004820152601c60248201527f7075626c69634b65794861736820697320616c726561647920736574000000006044820152606401610245565b6000546040517f42d7cb980000000000000000000000000000000000000000000000000000000081526004810184905273ffffffffffffffffffffffffffffffffffffffff909116906342d7cb9890602401602060405180830381865afa158015610400573d6000803e3d6000fd5b505050506040513d601f19601f82011682018060405250810190610424919061155e565b1561048b576040517f08c379a000000000000000000000000000000000000000000000000000000000815260206004820152601860248201527f7075626c69634b657948617368206973207265766f6b656400000000000000006044820152606401610245565b60006104ce6040518060400160405280600481526020017f5345543a00000000000000000000000000000000000000000000000000000000815250868686610603565b905060006104db82610ad2565b905060006104e98285610b0d565b60015490915073ffffffffffffffffffffffffffffffffffffffff808316911614610570576040517f08c379a000000000000000000000000000000000000000000000000000000000815260206004820152601160248201527f496e76616c6964207369676e61747572650000000000000000000000000000006044820152606401610245565b6000546040517fc15cffab00000000000000000000000000000000000000000000000000000000815273ffffffffffffffffffffffffffffffffffffffff9091169063c15cffab906105c89089908990600401611580565b600060405180830381600087803b1580156105e257600080fd5b505af11580156105f6573d6000803e3d6000fd5b5050505050505050505050565b60608461060f46610b31565b858561061a86610bef565b60405160200161062e9594939291906115a2565b6040516020818303038152906040529050949350505050565b600080546040517fe7a7977a00000000000000000000000000000000000000000000000000000000815273ffffffffffffffffffffffffffffffffffffffff9091169063e7a7977a906106a09086908690600401611580565b602060405180830381865afa1580156106bd573d6000803e3d6000fd5b505050506040513d601f19601f820116820180604052508101906106e1919061155e565b90505b92915050565b8351600003610755576040517f08c379a000000000000000000000000000000000000000000000000000000000815260206004820152601060248201527f496e76616c69642073656c6563746f72000000000000000000000000000000006044820152606401610245565b82516000036107c0576040517f08c379a000000000000000000000000000000000000000000000000000000000815260206004820152601360248201527f496e76616c696420646f6d61696e206e616d65000000000000000000000000006044820152606401610245565b81610827576040517f08c379a000000000000000000000000000000000000000000000000000000000815260206004820152601760248201527f496e76616c6964207075626c6963206b657920686173680000000000000000006044820152606401610245565b6108318383610647565b151560011461089c576040517f08c379a000000000000000000000000000000000000000000000000000000000815260206004820152601860248201527f7075626c69634b657948617368206973206e6f742073657400000000000000006044820152606401610245565b6000546040517f42d7cb980000000000000000000000000000000000000000000000000000000081526004810184905273ffffffffffffffffffffffffffffffffffffffff909116906342d7cb9890602401602060405180830381865afa15801561090b573d6000803e3d6000fd5b505050506040513d601f19601f8201168201806040525081019061092f919061155e565b15610996576040517f08c379a000000000000000000000000000000000000000000000000000000000815260206004820181905260248201527f7075626c69634b65794861736820697320616c7265616479207265766f6b65646044820152606401610245565b60006109d96040518060400160405280600781526020017f5245564f4b453a00000000000000000000000000000000000000000000000000815250868686610603565b905060006109e682610ad2565b905060006109f48285610b0d565b60015490915073ffffffffffffffffffffffffffffffffffffffff808316911614610a7b576040517f08c379a000000000000000000000000000000000000000000000000000000000815260206004820152601160248201527f496e76616c6964207369676e61747572650000000000000000000000000000006044820152606401610245565b6000546040517f15d2512e0000000000000000000000000000000000000000000000000000000081526004810187905273ffffffffffffffffffffffffffffffffffffffff909116906315d2512e906024016105c8565b6000610ade8251610b31565b82604051602001610af09291906116e1565b604051602081830303815290604052805190602001209050919050565b6000806000610b1c8585610c06565b91509150610b2981610c4b565b509392505050565b60606000610b3e83610e01565b600101905060008167ffffffffffffffff811115610b5e57610b5e611300565b6040519080825280601f01601f191660200182016040528015610b88576020820181803683370190505b5090508181016020015b7fffffffffffffffffffffffffffffffffffffffffffffffffffffffffffffffff017f3031323334353637383961626364656600000000000000000000000000000000600a86061a8153600a8504945084610b9257509392505050565b60606106e482610bfe84610ee3565b600101610f4d565b6000808251604103610c3c5760208301516040840151606085015160001a610c3087828585611190565b94509450505050610c44565b506000905060025b9250929050565b6000816004811115610c5f57610c5f61173c565b03610c675750565b6001816004811115610c7b57610c7b61173c565b03610ce2576040517f08c379a000000000000000000000000000000000000000000000000000000000815260206004820152601860248201527f45434453413a20696e76616c6964207369676e617475726500000000000000006044820152606401610245565b6002816004811115610cf657610cf661173c565b03610d5d576040517f08c379a000000000000000000000000000000000000000000000000000000000815260206004820152601f60248201527f45434453413a20696e76616c6964207369676e6174757265206c656e677468006044820152606401610245565b6003816004811115610d7157610d7161173c565b03610dfe576040517f08c379a000000000000000000000000000000000000000000000000000000000815260206004820152602260248201527f45434453413a20696e76616c6964207369676e6174757265202773272076616c60448201527f75650000000000000000000000000000000000000000000000000000000000006064820152608401610245565b50565b6000807a184f03e93ff9f4daa797ed6e38ed64bf6a1f0100000000000000008310610e4a577a184f03e93ff9f4daa797ed6e38ed64bf6a1f010000000000000000830492506040015b6d04ee2d6d415b85acef81000000008310610e76576d04ee2d6d415b85acef8100000000830492506020015b662386f26fc100008310610e9457662386f26fc10000830492506010015b6305f5e1008310610eac576305f5e100830492506008015b6127108310610ec057612710830492506004015b60648310610ed2576064830492506002015b600a83106106e45760010192915050565b600080608083901c15610efb5760809290921c916010015b604083901c15610f105760409290921c916008015b602083901c15610f255760209290921c916004015b601083901c15610f3a5760109290921c916002015b600883901c156106e45760010192915050565b60606000610f5c83600261179a565b610f679060026117b1565b67ffffffffffffffff811115610f7f57610f7f611300565b6040519080825280601f01601f191660200182016040528015610fa9576020820181803683370190505b5090507f300000000000000000000000000000000000000000000000000000000000000081600081518110610fe057610fe06117c4565b60200101907effffffffffffffffffffffffffffffffffffffffffffffffffffffffffffff1916908160001a9053507f780000000000000000000000000000000000000000000000000000000000000081600181518110611043576110436117c4565b60200101907effffffffffffffffffffffffffffffffffffffffffffffffffffffffffffff1916908160001a905350600061107f84600261179a565b61108a9060016117b1565b90505b6001811115611127577f303132333435363738396162636465660000000000000000000000000000000085600f16601081106110cb576110cb6117c4565b1a60f81b8282815181106110e1576110e16117c4565b60200101907effffffffffffffffffffffffffffffffffffffffffffffffffffffffffffff1916908160001a90535060049490941c93611120816117f3565b905061108d565b5083156106e1576040517f08c379a000000000000000000000000000000000000000000000000000000000815260206004820181905260248201527f537472696e67733a20686578206c656e67746820696e73756666696369656e746044820152606401610245565b6000807f7fffffffffffffffffffffffffffffff5d576e7357a4501ddfe92f46681b20a08311156111c75750600090506003611276565b6040805160008082526020820180845289905260ff881692820192909252606081018690526080810185905260019060a0016020604051602081039080840390855afa15801561121b573d6000803e3d6000fd5b50506040517fffffffffffffffffffffffffffffffffffffffffffffffffffffffffffffffe0015191505073ffffffffffffffffffffffffffffffffffffffff811661126f57600060019250925050611276565b9150600090505b94509492505050565b60005b8381101561129a578181015183820152602001611282565b50506000910152565b600081518084526112bb81602086016020860161127f565b601f017fffffffffffffffffffffffffffffffffffffffffffffffffffffffffffffffe0169290920160200192915050565b6020815260006106e160208301846112a3565b7f4e487b7100000000000000000000000000000000000000000000000000000000600052604160045260246000fd5b600067ffffffffffffffff8084111561134a5761134a611300565b604051601f85017fffffffffffffffffffffffffffffffffffffffffffffffffffffffffffffffe0908116603f0116810190828211818310171561139057611390611300565b816040528093508581528686860111156113a957600080fd5b858560208301376000602087830101525050509392505050565b600082601f8301126113d457600080fd5b6106e18383356020850161132f565b600080600080608085870312156113f957600080fd5b843567ffffffffffffffff8082111561141157600080fd5b61141d888389016113c3565b9550602087013591508082111561143357600080fd5b61143f888389016113c3565b945060408701359350606087013591508082111561145c57600080fd5b508501601f8101871361146e57600080fd5b61147d8782356020840161132f565b91505092959194509250565b6000806000806080858703121561149f57600080fd5b843567ffffffffffffffff808211156114b757600080fd5b6114c3888389016113c3565b955060208701359150808211156114d957600080fd5b6114e5888389016113c3565b945060408701359150808211156114fb57600080fd5b50611508878288016113c3565b949793965093946060013593505050565b6000806040838503121561152c57600080fd5b823567ffffffffffffffff81111561154357600080fd5b61154f858286016113c3565b95602094909401359450505050565b60006020828403121561157057600080fd5b815180151581146106e157600080fd5b60408152600061159360408301856112a3565b90508260208301529392505050565b600086516115b4818460208b0161127f565b7f636861696e5f69643d000000000000000000000000000000000000000000000090830190815286516115ee816009840160208b0161127f565b7f3b73656c6563746f723d0000000000000000000000000000000000000000000060099290910191820152855161162c816013840160208a0161127f565b7f3b646f6d61696e3d00000000000000000000000000000000000000000000000060139290910191820152845161166a81601b84016020890161127f565b7f3b7075626c69635f6b65795f686173683d000000000000000000000000000000601b929091019182015283516116a881602c84016020880161127f565b7f3b00000000000000000000000000000000000000000000000000000000000000602c9290910191820152602d01979650505050505050565b7f19457468657265756d205369676e6564204d6573736167653a0a00000000000081526000835161171981601a85016020880161127f565b83519083019061173081601a84016020880161127f565b01601a01949350505050565b7f4e487b7100000000000000000000000000000000000000000000000000000000600052602160045260246000fd5b7f4e487b7100000000000000000000000000000000000000000000000000000000600052601160045260246000fd5b80820281158282048414176106e4576106e461176b565b808201808211156106e4576106e461176b565b7f4e487b7100000000000000000000000000000000000000000000000000000000600052603260045260246000fd5b6000816118025761180261176b565b507fffffffffffffffffffffffffffffffffffffffffffffffffffffffffffffffff019056fea26469706673582212204bc9935df0d2162863e6c6d42dcbbd71e0d78ef8de810558ddeb15a0352b1d2d64736f6c63430008150033608060405234801561001057600080fd5b5061001a3361001f565b61006f565b600080546001600160a01b038381166001600160a01b0319831681178455604051919092169283917f8be0079c531659141344cd1fd0a4f28419497f9722a3daafe3b4186f6b6457e09190a35050565b6109868061007e6000396000f3fe608060405234801561001057600080fd5b50600436106100a35760003560e01c80638da5cb5b11610076578063e7a7977a1161005b578063e7a7977a14610176578063f2fde38b14610189578063f49eb1641461019c57600080fd5b80638da5cb5b1461013b578063c15cffab1461016357600080fd5b80630690bd38146100a857806315d2512e146100fb57806342d7cb9814610110578063715018a614610133575b600080fd5b6100e66100b63660046106c4565b81516020818401810180516001825292820194820194909420919093529091526000908152604090205460ff1681565b60405190151581526020015b60405180910390f35b61010e610109366004610709565b6101af565b005b6100e661011e366004610709565b60026020526000908152604090205460ff1681565b61010e61022b565b60005460405173ffffffffffffffffffffffffffffffffffffffff90911681526020016100f2565b61010e6101713660046106c4565b61023f565b6100e66101843660046106c4565b610359565b61010e610197366004610722565b6103bd565b61010e6101aa36600461075f565b610474565b6101b76104c2565b6000818152600260205260409081902080547fffffffffffffffffffffffffffffffffffffffffffffffffffffffffffffff00166001179055517fb80fff2b4c6f3ddf804877927c77b2fe1871cecaa5ad43d2c7c42f417331f865906102209083815260200190565b60405180910390a150565b6102336104c2565b61023d6000610543565b565b6102476104c2565b60008181526002602052604090205460ff16156102c5576040517f08c379a000000000000000000000000000000000000000000000000000000000815260206004820152601960248201527f63616e6e6f7420736574207265766f6b6564207075626b65790000000000000060448201526064015b60405180910390fd5b600180836040516102d6919061084d565b908152604080516020928190038301812060008681529352912080547fffffffffffffffffffffffffffffffffffffffffffffffffffffffffffffff0016921515929092179091557f510dac88eaf2dfbd53904241fc199ad46b2063e6bf6c3fb291f8ce86436634199061034d9084908490610869565b60405180910390a15050565b60008181526002602052604081205460ff1615610378575060006103b7565b600183604051610388919061084d565b90815260408051602092819003830190206000858152925290205460ff16156103b3575060016103b7565b5060005b92915050565b6103c56104c2565b73ffffffffffffffffffffffffffffffffffffffff8116610468576040517f08c379a000000000000000000000000000000000000000000000000000000000815260206004820152602660248201527f4f776e61626c653a206e6577206f776e657220697320746865207a65726f206160448201527f646472657373000000000000000000000000000000000000000000000000000060648201526084016102bc565b61047181610543565b50565b61047c6104c2565b60005b81518110156104bd576104ab8383838151811061049e5761049e6108c2565b602002602001015161023f565b806104b5816108f1565b91505061047f565b505050565b60005473ffffffffffffffffffffffffffffffffffffffff16331461023d576040517f08c379a000000000000000000000000000000000000000000000000000000000815260206004820181905260248201527f4f776e61626c653a2063616c6c6572206973206e6f7420746865206f776e657260448201526064016102bc565b6000805473ffffffffffffffffffffffffffffffffffffffff8381167fffffffffffffffffffffffff0000000000000000000000000000000000000000831681178455604051919092169283917f8be0079c531659141344cd1fd0a4f28419497f9722a3daafe3b4186f6b6457e09190a35050565b7f4e487b7100000000000000000000000000000000000000000000000000000000600052604160045260246000fd5b604051601f82017fffffffffffffffffffffffffffffffffffffffffffffffffffffffffffffffe016810167ffffffffffffffff8111828210171561062e5761062e6105b8565b604052919050565b600082601f83011261064757600080fd5b813567ffffffffffffffff811115610661576106616105b8565b61069260207fffffffffffffffffffffffffffffffffffffffffffffffffffffffffffffffe0601f840116016105e7565b8181528460208386010111156106a757600080fd5b816020850160208301376000918101602001919091529392505050565b600080604083850312156106d757600080fd5b823567ffffffffffffffff8111156106ee57600080fd5b6106fa85828601610636565b95602094909401359450505050565b60006020828403121561071b57600080fd5b5035919050565b60006020828403121561073457600080fd5b813573ffffffffffffffffffffffffffffffffffffffff8116811461075857600080fd5b9392505050565b6000806040838503121561077257600080fd5b823567ffffffffffffffff8082111561078a57600080fd5b61079686838701610636565b93506020915081850135818111156107ad57600080fd5b8501601f810187136107be57600080fd5b8035828111156107d0576107d06105b8565b8060051b92506107e18484016105e7565b81815292820184019284810190898511156107fb57600080fd5b928501925b8484101561081957833582529285019290850190610800565b8096505050505050509250929050565b60005b8381101561084457818101518382015260200161082c565b50506000910152565b6000825161085f818460208701610829565b9190910192915050565b6040815260008351806040840152610888816060850160208801610829565b602083019390935250601f919091017fffffffffffffffffffffffffffffffffffffffffffffffffffffffffffffffe01601606001919050565b7f4e487b7100000000000000000000000000000000000000000000000000000000600052603260045260246000fd5b60007fffffffffffffffffffffffffffffffffffffffffffffffffffffffffffffffff8203610949577f4e487b7100000000000000000000000000000000000000000000000000000000600052601160045260246000fd5b506001019056fea26469706673582212200d5b1dcde08abd61fa4eee2321cf6af8703914cb6f7fd4a99fd58de5aba21a7564736f6c63430008150033",
    "linkReferences": {}
  },
  "methodIdentifiers": {
    "REVOKE_PREFIX()": "d507c320",
    "SET_PREFIX()": "07f1eaf5",
    "computeSignedMsg(string,string,string,bytes32)": "aec79361",
    "dkimRegistry()": "6423f1e2",
    "isDKIMPublicKeyHashValid(string,bytes32)": "e7a7977a",
    "revokeDKIMPublicKeyHash(string,string,bytes32,bytes)": "f6b49344",
    "setDKIMPublicKeyHash(string,string,bytes32,bytes)": "97170f2b",
    "signer()": "238ac933"
  },
  "storageLayout": {
    "storage": [
      {
        "astId": 71848,
        "contract": "src/utils/ECDSAOwnedDKIMRegistry.sol:ECDSAOwnedDKIMRegistry",
        "label": "dkimRegistry",
        "offset": 0,
        "slot": "0",
        "type": "t_contract(DKIMRegistry)4936"
      },
      {
        "astId": 71850,
        "contract": "src/utils/ECDSAOwnedDKIMRegistry.sol:ECDSAOwnedDKIMRegistry",
        "label": "signer",
        "offset": 0,
        "slot": "1",
        "type": "t_address"
      }
    ],
    "types": {
      "t_address": {
        "encoding": "inplace",
        "label": "address",
        "numberOfBytes": "20"
      },
      "t_contract(DKIMRegistry)4936": {
        "encoding": "inplace",
        "label": "contract DKIMRegistry",
        "numberOfBytes": "20"
      }
    }
  },
  "id": 150
}