{
  "abi": [
    {
      "inputs": [
        {
          "internalType": "address",
          "name": "_signer",
          "type": "address"
        }
      ],
      "stateMutability": "nonpayable",
      "type": "constructor"
    },
    {
      "inputs": [],
      "name": "REVOKE_PREFIX",
      "outputs": [
        {
          "internalType": "string",
          "name": "",
          "type": "string"
        }
      ],
      "stateMutability": "view",
      "type": "function"
    },
    {
      "inputs": [],
      "name": "SET_PREFIX",
      "outputs": [
        {
          "internalType": "string",
          "name": "",
          "type": "string"
        }
      ],
      "stateMutability": "view",
      "type": "function"
    },
    {
      "inputs": [
        {
          "internalType": "string",
          "name": "prefix",
          "type": "string"
        },
        {
          "internalType": "string",
          "name": "selector",
          "type": "string"
        },
        {
          "internalType": "string",
          "name": "domainName",
          "type": "string"
        },
        {
          "internalType": "bytes32",
          "name": "publicKeyHash",
          "type": "bytes32"
        }
      ],
      "name": "computeSignedMsg",
      "outputs": [
        {
          "internalType": "string",
          "name": "",
          "type": "string"
        }
      ],
      "stateMutability": "view",
      "type": "function"
    },
    {
      "inputs": [],
      "name": "dkimRegistry",
      "outputs": [
        {
          "internalType": "contract DKIMRegistry",
          "name": "",
          "type": "address"
        }
      ],
      "stateMutability": "view",
      "type": "function"
    },
    {
      "inputs": [
        {
          "internalType": "string",
          "name": "domainName",
          "type": "string"
        },
        {
          "internalType": "bytes32",
          "name": "publicKeyHash",
          "type": "bytes32"
        }
      ],
      "name": "isDKIMPublicKeyHashValid",
      "outputs": [
        {
          "internalType": "bool",
          "name": "",
          "type": "bool"
        }
      ],
      "stateMutability": "view",
      "type": "function"
    },
    {
      "inputs": [
        {
          "internalType": "string",
          "name": "selector",
          "type": "string"
        },
        {
          "internalType": "string",
          "name": "domainName",
          "type": "string"
        },
        {
          "internalType": "bytes32",
          "name": "publicKeyHash",
          "type": "bytes32"
        },
        {
          "internalType": "bytes",
          "name": "signature",
          "type": "bytes"
        }
      ],
      "name": "revokeDKIMPublicKeyHash",
      "outputs": [],
      "stateMutability": "nonpayable",
      "type": "function"
    },
    {
      "inputs": [
        {
          "internalType": "string",
          "name": "selector",
          "type": "string"
        },
        {
          "internalType": "string",
          "name": "domainName",
          "type": "string"
        },
        {
          "internalType": "bytes32",
          "name": "publicKeyHash",
          "type": "bytes32"
        },
        {
          "internalType": "bytes",
          "name": "signature",
          "type": "bytes"
        }
      ],
      "name": "setDKIMPublicKeyHash",
      "outputs": [],
      "stateMutability": "nonpayable",
      "type": "function"
    },
    {
      "inputs": [],
      "name": "signer",
      "outputs": [
        {
          "internalType": "address",
          "name": "",
          "type": "address"
        }
      ],
      "stateMutability": "view",
      "type": "function"
    }
  ],
  "bytecode": {
    "object": "0x608060405234801561001057600080fd5b50604051611b49380380611b4983398101604081905261002f91610099565b60405161003b9061008c565b604051809103906000f080158015610057573d6000803e3d6000fd5b50600080546001600160a01b039283166001600160a01b031991821617909155600180549390921692169190911790556100c9565b6108378061131283390190565b6000602082840312156100ab57600080fd5b81516001600160a01b03811681146100c257600080fd5b9392505050565b61123a806100d86000396000f3fe608060405234801561001057600080fd5b50600436106100785760003560e01c806307f1eaf51461007d578063238ac933146100b65780636423f1e2146100e157806397170f2b146100f4578063aec7936114610109578063d507c3201461011c578063e7a7977a14610142578063f6b4934414610165575b600080fd5b6100a06040518060400160405280600481526020016329a2aa1d60e11b81525081565b6040516100ad9190610d20565b60405180910390f35b6001546100c9906001600160a01b031681565b6040516001600160a01b0390911681526020016100ad565b6000546100c9906001600160a01b031681565b610107610102366004610dde565b610178565b005b6100a0610117366004610e83565b6103cd565b6100a0604051806040016040528060078152602001662922ab27a5a29d60c91b81525081565b610155610150366004610f12565b610411565b60405190151581526020016100ad565b610107610173366004610dde565b61048e565b83516000036101a25760405162461bcd60e51b815260040161019990610f56565b60405180910390fd5b82516000036101c35760405162461bcd60e51b815260040161019990610f80565b816101e05760405162461bcd60e51b815260040161019990610fad565b6101ea8383610411565b156102365760405162461bcd60e51b815260206004820152601c60248201527b1c1d589b1a58d2d95e52185cda081a5cc8185b1c9958591e481cd95d60221b6044820152606401610199565b60005460405163085af97360e31b8152600481018490526001600160a01b03909116906342d7cb9890602401602060405180830381865afa15801561027f573d6000803e3d6000fd5b505050506040513d601f19601f820116820180604052508101906102a39190610fde565b156102eb5760405162461bcd60e51b81526020600482015260186024820152771c1d589b1a58d2d95e52185cda081a5cc81c995d9bdad95960421b6044820152606401610199565b60006103156040518060400160405280600481526020016329a2aa1d60e11b8152508686866103cd565b90506000610322826106a6565b9050600061033082856106e1565b6001549091506001600160a01b038083169116146103605760405162461bcd60e51b815260040161019990611000565b60005460405163c15cffab60e01b81526001600160a01b039091169063c15cffab90610392908990899060040161102b565b600060405180830381600087803b1580156103ac57600080fd5b505af11580156103c0573d6000803e3d6000fd5b5050505050505050505050565b6060846103d946610705565b85856103e486610797565b6040516020016103f895949392919061104d565b6040516020818303038152906040529050949350505050565b600080546040516373d3cbbd60e11b81526001600160a01b039091169063e7a7977a90610444908690869060040161102b565b602060405180830381865afa158015610461573d6000803e3d6000fd5b505050506040513d601f19601f820116820180604052508101906104859190610fde565b90505b92915050565b83516000036104af5760405162461bcd60e51b815260040161019990610f56565b82516000036104d05760405162461bcd60e51b815260040161019990610f80565b816104ed5760405162461bcd60e51b815260040161019990610fad565b6104f78383610411565b15156001146105435760405162461bcd60e51b81526020600482015260186024820152771c1d589b1a58d2d95e52185cda081a5cc81b9bdd081cd95d60421b6044820152606401610199565b60005460405163085af97360e31b8152600481018490526001600160a01b03909116906342d7cb9890602401602060405180830381865afa15801561058c573d6000803e3d6000fd5b505050506040513d601f19601f820116820180604052508101906105b09190610fde565b156105fd5760405162461bcd60e51b815260206004820181905260248201527f7075626c69634b65794861736820697320616c7265616479207265766f6b65646044820152606401610199565b600061062a604051806040016040528060078152602001662922ab27a5a29d60c91b8152508686866103cd565b90506000610637826106a6565b9050600061064582856106e1565b6001549091506001600160a01b038083169116146106755760405162461bcd60e51b815260040161019990611000565b600054604051630ae9289760e11b8152600481018790526001600160a01b03909116906315d2512e90602401610392565b60006106b28251610705565b826040516020016106c4929190611128565b604051602081830303815290604052805190602001209050919050565b60008060006106f085856107ae565b915091506106fd816107f3565b509392505050565b606060006107128361093b565b60010190506000816001600160401b0381111561073157610731610d33565b6040519080825280601f01601f19166020018201604052801561075b576020820181803683370190505b5090508181016020015b600019016f181899199a1a9b1b9c1cb0b131b232b360811b600a86061a8153600a850494508461076557509392505050565b6060610488826107a684610a11565b600101610a7b565b60008082516041036107e45760208301516040840151606085015160001a6107d887828585610c16565b945094505050506107ec565b506000905060025b9250929050565b600081600481111561080757610807611181565b0361080f5750565b600181600481111561082357610823611181565b0361086b5760405162461bcd60e51b815260206004820152601860248201527745434453413a20696e76616c6964207369676e617475726560401b6044820152606401610199565b600281600481111561087f5761087f611181565b036108cc5760405162461bcd60e51b815260206004820152601f60248201527f45434453413a20696e76616c6964207369676e6174757265206c656e677468006044820152606401610199565b60038160048111156108e0576108e0611181565b036109385760405162461bcd60e51b815260206004820152602260248201527f45434453413a20696e76616c6964207369676e6174757265202773272076616c604482015261756560f01b6064820152608401610199565b50565b60008072184f03e93ff9f4daa797ed6e38ed64bf6a1f0160401b831061097a5772184f03e93ff9f4daa797ed6e38ed64bf6a1f0160401b830492506040015b6904ee2d6d415b85acef8160201b83106109a4576904ee2d6d415b85acef8160201b830492506020015b662386f26fc1000083106109c257662386f26fc10000830492506010015b6305f5e10083106109da576305f5e100830492506008015b61271083106109ee57612710830492506004015b60648310610a00576064830492506002015b600a83106104885760010192915050565b600080608083901c15610a295760809290921c916010015b604083901c15610a3e5760409290921c916008015b602083901c15610a535760209290921c916004015b601083901c15610a685760109290921c916002015b600883901c156104885760010192915050565b60606000610a8a8360026111ad565b610a959060026111c4565b6001600160401b03811115610aac57610aac610d33565b6040519080825280601f01601f191660200182016040528015610ad6576020820181803683370190505b509050600360fc1b81600081518110610af157610af16111d7565b60200101906001600160f81b031916908160001a905350600f60fb1b81600181518110610b2057610b206111d7565b60200101906001600160f81b031916908160001a9053506000610b448460026111ad565b610b4f9060016111c4565b90505b6001811115610bc7576f181899199a1a9b1b9c1cb0b131b232b360811b85600f1660108110610b8357610b836111d7565b1a60f81b828281518110610b9957610b996111d7565b60200101906001600160f81b031916908160001a90535060049490941c93610bc0816111ed565b9050610b52565b5083156104855760405162461bcd60e51b815260206004820181905260248201527f537472696e67733a20686578206c656e67746820696e73756666696369656e746044820152606401610199565b6000806fa2a8918ca85bafe22016d0b997e4df60600160ff1b03831115610c435750600090506003610cc7565b6040805160008082526020820180845289905260ff881692820192909252606081018690526080810185905260019060a0016020604051602081039080840390855afa158015610c97573d6000803e3d6000fd5b5050604051601f1901519150506001600160a01b038116610cc057600060019250925050610cc7565b9150600090505b94509492505050565b60005b83811015610ceb578181015183820152602001610cd3565b50506000910152565b60008151808452610d0c816020860160208601610cd0565b601f01601f19169290920160200192915050565b6020815260006104856020830184610cf4565b634e487b7160e01b600052604160045260246000fd5b60006001600160401b0380841115610d6357610d63610d33565b604051601f8501601f19908116603f01168101908282118183101715610d8b57610d8b610d33565b81604052809350858152868686011115610da457600080fd5b858560208301376000602087830101525050509392505050565b600082601f830112610dcf57600080fd5b61048583833560208501610d49565b60008060008060808587031215610df457600080fd5b84356001600160401b0380821115610e0b57600080fd5b610e1788838901610dbe565b95506020870135915080821115610e2d57600080fd5b610e3988838901610dbe565b9450604087013593506060870135915080821115610e5657600080fd5b508501601f81018713610e6857600080fd5b610e7787823560208401610d49565b91505092959194509250565b60008060008060808587031215610e9957600080fd5b84356001600160401b0380821115610eb057600080fd5b610ebc88838901610dbe565b95506020870135915080821115610ed257600080fd5b610ede88838901610dbe565b94506040870135915080821115610ef457600080fd5b50610f0187828801610dbe565b949793965093946060013593505050565b60008060408385031215610f2557600080fd5b82356001600160401b03811115610f3b57600080fd5b610f4785828601610dbe565b95602094909401359450505050565b60208082526010908201526f24b73b30b634b21039b2b632b1ba37b960811b604082015260600190565b602080825260139082015272496e76616c696420646f6d61696e206e616d6560681b604082015260600190565b602080825260179082015276092dcecc2d8d2c840e0eac4d8d2c640d6caf240d0c2e6d604b1b604082015260600190565b600060208284031215610ff057600080fd5b8151801515811461048557600080fd5b602080825260119082015270496e76616c6964207369676e617475726560781b604082015260600190565b60408152600061103e6040830185610cf4565b90508260208301529392505050565b6000865161105f818460208b01610cd0565b68636861696e5f69643d60b81b9083019081528651611085816009840160208b01610cd0565b693b73656c6563746f723d60b01b6009929091019182015285516110b0816013840160208a01610cd0565b673b646f6d61696e3d60c01b6013929091019182015284516110d981601b840160208901610cd0565b703b7075626c69635f6b65795f686173683d60781b601b9290910191820152835161110b81602c840160208801610cd0565b603b60f81b602c9290910191820152602d01979650505050505050565b790ca2ba3432b932bab69029b4b3b732b21026b2b9b9b0b3b29d0560311b8152825160009061115e81601a850160208801610cd0565b83519083019061117581601a840160208801610cd0565b01601a01949350505050565b634e487b7160e01b600052602160045260246000fd5b634e487b7160e01b600052601160045260246000fd5b808202811582820484141761048857610488611197565b8082018082111561048857610488611197565b634e487b7160e01b600052603260045260246000fd5b6000816111fc576111fc611197565b50600019019056fea2646970667358221220947b53adf538f6f65eeef762ef0c2763bc4291e24a801fc2b9f3a0373632ede464736f6c63430008150033608060405234801561001057600080fd5b5061001a3361001f565b61006f565b600080546001600160a01b038381166001600160a01b0319831681178455604051919092169283917f8be0079c531659141344cd1fd0a4f28419497f9722a3daafe3b4186f6b6457e09190a35050565b6107b98061007e6000396000f3fe608060405234801561001057600080fd5b50600436106100835760003560e01c80630690bd381461008857806315d2512e146100db57806342d7cb98146100f0578063715018a6146101135780638da5cb5b1461011b578063c15cffab1461013b578063e7a7977a1461014e578063f2fde38b14610161578063f49eb16414610174575b600080fd5b6100c6610096366004610575565b81516020818401810180516001825292820194820194909420919093529091526000908152604090205460ff1681565b60405190151581526020015b60405180910390f35b6100ee6100e93660046105b9565b610187565b005b6100c66100fe3660046105b9565b60026020526000908152604090205460ff1681565b6100ee6101e5565b6101236101f9565b6040516001600160a01b0390911681526020016100d2565b6100ee610149366004610575565b610208565b6100c661015c366004610575565b6102e6565b6100ee61016f3660046105d2565b61034a565b6100ee610182366004610602565b6103c3565b61018f610411565b60008181526002602052604090819020805460ff19166001179055517fb80fff2b4c6f3ddf804877927c77b2fe1871cecaa5ad43d2c7c42f417331f865906101da9083815260200190565b60405180910390a150565b6101ed610411565b6101f76000610470565b565b6000546001600160a01b031690565b610210610411565b60008181526002602052604090205460ff16156102705760405162461bcd60e51b815260206004820152601960248201527863616e6e6f7420736574207265766f6b6564207075626b657960381b60448201526064015b60405180910390fd5b6001808360405161028191906106ef565b9081526040805160209281900383018120600086815293529120805460ff1916921515929092179091557f510dac88eaf2dfbd53904241fc199ad46b2063e6bf6c3fb291f8ce8643663419906102da908490849061070b565b60405180910390a15050565b60008181526002602052604081205460ff161561030557506000610344565b60018360405161031591906106ef565b90815260408051602092819003830190206000858152925290205460ff161561034057506001610344565b5060005b92915050565b610352610411565b6001600160a01b0381166103b75760405162461bcd60e51b815260206004820152602660248201527f4f776e61626c653a206e6577206f776e657220697320746865207a65726f206160448201526564647265737360d01b6064820152608401610267565b6103c081610470565b50565b6103cb610411565b60005b815181101561040c576103fa838383815181106103ed576103ed610746565b6020026020010151610208565b806104048161075c565b9150506103ce565b505050565b3361041a6101f9565b6001600160a01b0316146101f75760405162461bcd60e51b815260206004820181905260248201527f4f776e61626c653a2063616c6c6572206973206e6f7420746865206f776e65726044820152606401610267565b600080546001600160a01b038381166001600160a01b0319831681178455604051919092169283917f8be0079c531659141344cd1fd0a4f28419497f9722a3daafe3b4186f6b6457e09190a35050565b634e487b7160e01b600052604160045260246000fd5b604051601f8201601f191681016001600160401b03811182821017156104fe576104fe6104c0565b604052919050565b600082601f83011261051757600080fd5b81356001600160401b03811115610530576105306104c0565b610543601f8201601f19166020016104d6565b81815284602083860101111561055857600080fd5b816020850160208301376000918101602001919091529392505050565b6000806040838503121561058857600080fd5b82356001600160401b0381111561059e57600080fd5b6105aa85828601610506565b95602094909401359450505050565b6000602082840312156105cb57600080fd5b5035919050565b6000602082840312156105e457600080fd5b81356001600160a01b03811681146105fb57600080fd5b9392505050565b6000806040838503121561061557600080fd5b82356001600160401b038082111561062c57600080fd5b61063886838701610506565b935060209150818501358181111561064f57600080fd5b8501601f8101871361066057600080fd5b803582811115610672576106726104c0565b8060051b92506106838484016104d6565b818152928201840192848101908985111561069d57600080fd5b928501925b848410156106bb578335825292850192908501906106a2565b8096505050505050509250929050565b60005b838110156106e65781810151838201526020016106ce565b50506000910152565b600082516107018184602087016106cb565b9190910192915050565b604081526000835180604084015261072a8160608501602088016106cb565b602083019390935250601f91909101601f191601606001919050565b634e487b7160e01b600052603260045260246000fd5b60006001820161077c57634e487b7160e01b600052601160045260246000fd5b506001019056fea2646970667358221220f334b44234d0587db719e329ad92c9d331090eb21ba4c1190317b1e0d7cfccc864736f6c63430008150033",
    "linkReferences": {}
  },
  "methodIdentifiers": {
    "REVOKE_PREFIX()": "d507c320",
    "SET_PREFIX()": "07f1eaf5",
    "computeSignedMsg(string,string,string,bytes32)": "aec79361",
    "dkimRegistry()": "6423f1e2",
    "isDKIMPublicKeyHashValid(string,bytes32)": "e7a7977a",
    "revokeDKIMPublicKeyHash(string,string,bytes32,bytes)": "f6b49344",
    "setDKIMPublicKeyHash(string,string,bytes32,bytes)": "97170f2b",
    "signer()": "238ac933"
  },
  "id": 143
}