{
  "abi": [
    {
      "inputs": [
        {
          "internalType": "address",
          "name": "_signer",
          "type": "address"
        },
        {
          "internalType": "uint256",
          "name": "_signValidityDuration",
          "type": "uint256"
        }
      ],
      "stateMutability": "nonpayable",
      "type": "constructor"
    },
    {
      "inputs": [
        {
          "internalType": "string",
          "name": "selector",
          "type": "string"
        },
        {
          "internalType": "string",
          "name": "domainName",
          "type": "string"
        },
        {
          "internalType": "bytes32",
          "name": "publicKeyHash",
          "type": "bytes32"
        },
        {
          "internalType": "uint256",
          "name": "timestamp",
          "type": "uint256"
        }
      ],
      "name": "computeSignedMsg",
      "outputs": [
        {
          "internalType": "string",
          "name": "",
          "type": "string"
        }
      ],
      "stateMutability": "view",
      "type": "function"
    },
    {
      "inputs": [],
      "name": "dkimRegistry",
      "outputs": [
        {
          "internalType": "contract DKIMRegistry",
          "name": "",
          "type": "address"
        }
      ],
      "stateMutability": "view",
      "type": "function"
    },
    {
      "inputs": [
        {
          "internalType": "string",
          "name": "domainName",
          "type": "string"
        },
        {
          "internalType": "bytes32",
          "name": "publicKeyHash",
          "type": "bytes32"
        }
      ],
      "name": "isDKIMPublicKeyHashValid",
      "outputs": [
        {
          "internalType": "bool",
          "name": "",
          "type": "bool"
        }
      ],
      "stateMutability": "view",
      "type": "function"
    },
    {
      "inputs": [
        {
          "internalType": "string",
          "name": "domainName",
          "type": "string"
        },
        {
          "internalType": "bytes32",
          "name": "publicKeyHash",
          "type": "bytes32"
        },
        {
          "internalType": "bytes",
          "name": "signature",
          "type": "bytes"
        }
      ],
      "name": "revokeDKIMPublicKeyHash",
      "outputs": [],
      "stateMutability": "nonpayable",
      "type": "function"
    },
    {
      "inputs": [
        {
          "internalType": "string",
          "name": "selector",
          "type": "string"
        },
        {
          "internalType": "string",
          "name": "domainName",
          "type": "string"
        },
        {
          "internalType": "uint256",
          "name": "timestamp",
          "type": "uint256"
        },
        {
          "internalType": "bytes32",
          "name": "publicKeyHash",
          "type": "bytes32"
        },
        {
          "internalType": "bytes",
          "name": "signature",
          "type": "bytes"
        }
      ],
      "name": "setDKIMPublicKeyHash",
      "outputs": [],
      "stateMutability": "nonpayable",
      "type": "function"
    },
    {
      "inputs": [],
      "name": "signer",
      "outputs": [
        {
          "internalType": "address",
          "name": "",
          "type": "address"
        }
      ],
      "stateMutability": "view",
      "type": "function"
    }
  ],
  "bytecode": {
    "object": "0x608060405234801561001057600080fd5b5060405161199c38038061199c83398101604081905261002f9161009d565b60405161003b90610090565b604051809103906000f080158015610057573d6000803e3d6000fd5b50600180546001600160a01b039283166001600160a01b03199182161790915560028054949092169316929092179091556000556100d7565b6108518061114b83390190565b600080604083850312156100b057600080fd5b82516001600160a01b03811681146100c757600080fd5b6020939093015192949293505050565b611065806100e66000396000f3fe608060405234801561001057600080fd5b50600436106100625760003560e01c80630237379414610067578063238ac9331461007c5780636423f1e2146100ac578063e7a7977a146100bf578063ed221c42146100e2578063f3f3737b14610102575b600080fd5b61007a610075366004610b78565b610115565b005b60025461008f906001600160a01b031681565b6040516001600160a01b0390911681526020015b60405180910390f35b60015461008f906001600160a01b031681565b6100d26100cd366004610be4565b6101fb565b60405190151581526020016100a3565b6100f56100f0366004610c28565b610278565b6040516100a39190610ceb565b61007a610110366004610cfe565b6102c4565b600083610121846104ac565b604051602001610132929190610d99565b6040516020818303038152906040529050600061014e8261053e565b9050600061015c8285610579565b6002549091506001600160a01b038083169116146101955760405162461bcd60e51b815260040161018c90610ddd565b60405180910390fd5b600154604051630ae9289760e11b8152600481018790526001600160a01b03909116906315d2512e90602401600060405180830381600087803b1580156101db57600080fd5b505af11580156101ef573d6000803e3d6000fd5b50505050505050505050565b6001546040516373d3cbbd60e11b81526000916001600160a01b03169063e7a7977a9061022e9086908690600401610e08565b602060405180830381865afa15801561024b573d6000803e3d6000fd5b505050506040513d601f19601f8201168201806040525081019061026f9190610e2a565b90505b92915050565b6060610283466104ac565b858561028e856104ac565b6102978761059d565b6040516020016102ab959493929190610e4c565b6040516020818303038152906040529050949350505050565b84516000036103085760405162461bcd60e51b815260206004820152601060248201526f24b73b30b634b21039b2b632b1ba37b960811b604482015260640161018c565b835160000361034f5760405162461bcd60e51b8152602060048201526013602482015272496e76616c696420646f6d61696e206e616d6560681b604482015260640161018c565b816103965760405162461bcd60e51b8152602060048201526017602482015276092dcecc2d8d2c840e0eac4d8d2c640d6caf240d0c2e6d604b1b604482015260640161018c565b6000546103a38442610f56565b11156103e55760405162461bcd60e51b815260206004820152601160248201527014da59db985d1d5c9948195e1c1a5c9959607a1b604482015260640161018c565b60006103f386868587610278565b905060006104008261053e565b9050600061040e8285610579565b6002549091506001600160a01b0380831691161461043e5760405162461bcd60e51b815260040161018c90610ddd565b60015460405163c15cffab60e01b81526001600160a01b039091169063c15cffab90610470908a908990600401610e08565b600060405180830381600087803b15801561048a57600080fd5b505af115801561049e573d6000803e3d6000fd5b505050505050505050505050565b606060006104b9836105b4565b60010190506000816001600160401b038111156104d8576104d8610ad6565b6040519080825280601f01601f191660200182016040528015610502576020820181803683370190505b5090508181016020015b600019016f181899199a1a9b1b9c1cb0b131b232b360811b600a86061a8153600a850494508461050c57509392505050565b600061054a82516104ac565b8260405160200161055c929190610f69565b604051602081830303815290604052805190602001209050919050565b6000806000610588858561068a565b91509150610595816106cf565b509392505050565b6060610272826105ac84610817565b600101610881565b60008072184f03e93ff9f4daa797ed6e38ed64bf6a1f0160401b83106105f35772184f03e93ff9f4daa797ed6e38ed64bf6a1f0160401b830492506040015b6904ee2d6d415b85acef8160201b831061061d576904ee2d6d415b85acef8160201b830492506020015b662386f26fc10000831061063b57662386f26fc10000830492506010015b6305f5e1008310610653576305f5e100830492506008015b612710831061066757612710830492506004015b60648310610679576064830492506002015b600a83106102725760010192915050565b60008082516041036106c05760208301516040840151606085015160001a6106b487828585610a1c565b945094505050506106c8565b506000905060025b9250929050565b60008160048111156106e3576106e3610fc2565b036106eb5750565b60018160048111156106ff576106ff610fc2565b036107475760405162461bcd60e51b815260206004820152601860248201527745434453413a20696e76616c6964207369676e617475726560401b604482015260640161018c565b600281600481111561075b5761075b610fc2565b036107a85760405162461bcd60e51b815260206004820152601f60248201527f45434453413a20696e76616c6964207369676e6174757265206c656e67746800604482015260640161018c565b60038160048111156107bc576107bc610fc2565b036108145760405162461bcd60e51b815260206004820152602260248201527f45434453413a20696e76616c6964207369676e6174757265202773272076616c604482015261756560f01b606482015260840161018c565b50565b600080608083901c1561082f5760809290921c916010015b604083901c156108445760409290921c916008015b602083901c156108595760209290921c916004015b601083901c1561086e5760109290921c916002015b600883901c156102725760010192915050565b60606000610890836002610fd8565b61089b906002610fef565b6001600160401b038111156108b2576108b2610ad6565b6040519080825280601f01601f1916602001820160405280156108dc576020820181803683370190505b509050600360fc1b816000815181106108f7576108f7611002565b60200101906001600160f81b031916908160001a905350600f60fb1b8160018151811061092657610926611002565b60200101906001600160f81b031916908160001a905350600061094a846002610fd8565b610955906001610fef565b90505b60018111156109cd576f181899199a1a9b1b9c1cb0b131b232b360811b85600f166010811061098957610989611002565b1a60f81b82828151811061099f5761099f611002565b60200101906001600160f81b031916908160001a90535060049490941c936109c681611018565b9050610958565b50831561026f5760405162461bcd60e51b815260206004820181905260248201527f537472696e67733a20686578206c656e67746820696e73756666696369656e74604482015260640161018c565b6000806fa2a8918ca85bafe22016d0b997e4df60600160ff1b03831115610a495750600090506003610acd565b6040805160008082526020820180845289905260ff881692820192909252606081018690526080810185905260019060a0016020604051602081039080840390855afa158015610a9d573d6000803e3d6000fd5b5050604051601f1901519150506001600160a01b038116610ac657600060019250925050610acd565b9150600090505b94509492505050565b634e487b7160e01b600052604160045260246000fd5b600082601f830112610afd57600080fd5b81356001600160401b0380821115610b1757610b17610ad6565b604051601f8301601f19908116603f01168101908282118183101715610b3f57610b3f610ad6565b81604052838152866020858801011115610b5857600080fd5b836020870160208301376000602085830101528094505050505092915050565b600080600060608486031215610b8d57600080fd5b83356001600160401b0380821115610ba457600080fd5b610bb087838801610aec565b9450602086013593506040860135915080821115610bcd57600080fd5b50610bda86828701610aec565b9150509250925092565b60008060408385031215610bf757600080fd5b82356001600160401b03811115610c0d57600080fd5b610c1985828601610aec565b95602094909401359450505050565b60008060008060808587031215610c3e57600080fd5b84356001600160401b0380821115610c5557600080fd5b610c6188838901610aec565b95506020870135915080821115610c7757600080fd5b50610c8487828801610aec565b949794965050505060408301359260600135919050565b60005b83811015610cb6578181015183820152602001610c9e565b50506000910152565b60008151808452610cd7816020860160208601610c9b565b601f01601f19169290920160200192915050565b60208152600061026f6020830184610cbf565b600080600080600060a08688031215610d1657600080fd5b85356001600160401b0380821115610d2d57600080fd5b610d3989838a01610aec565b96506020880135915080821115610d4f57600080fd5b610d5b89838a01610aec565b955060408801359450606088013593506080880135915080821115610d7f57600080fd5b50610d8c88828901610aec565b9150509295509295909350565b655245564f4b4560d01b815260008351610dba816006850160208801610c9b565b835190830190610dd1816006840160208801610c9b565b01600601949350505050565b602080825260119082015270496e76616c6964207369676e617475726560781b604082015260600190565b604081526000610e1b6040830185610cbf565b90508260208301529392505050565b600060208284031215610e3c57600080fd5b8151801515811461026f57600080fd5b68636861696e5f69643d60b81b815260008651610e70816009850160208b01610c9b565b693b73656c6563746f723d60b01b6009918401918201528651610e9a816013840160208b01610c9b565b673b646f6d61696e3d60c01b601392909101918201528551610ec381601b840160208a01610c9b565b6a3b74696d657374616d703d60a81b601b92909101918201528451610eef816026840160208901610c9b565b703b7075626c69635f6b65795f686173683d60781b602692909101918201528351610f21816037840160208801610c9b565b01610f3260378201603b60f81b9052565b603801979650505050505050565b634e487b7160e01b600052601160045260246000fd5b8181038181111561027257610272610f40565b790ca2ba3432b932bab69029b4b3b732b21026b2b9b9b0b3b29d0560311b81528251600090610f9f81601a850160208801610c9b565b835190830190610fb681601a840160208801610c9b565b01601a01949350505050565b634e487b7160e01b600052602160045260246000fd5b808202811582820484141761027257610272610f40565b8082018082111561027257610272610f40565b634e487b7160e01b600052603260045260246000fd5b60008161102757611027610f40565b50600019019056fea2646970667358221220c33438f29dd53a5b04d95f479667d42215f0d3e01a350a1e3d951695c372589c64736f6c63430008150033608060405234801561001057600080fd5b5061001a336101da565b6001806040516100399068676d61696c2e636f6d60b81b815260090190565b90815260408051602092819003830181207f2ef45a8e725fffd5039b300a4226888c8f0406b25e0474c8839ecdad30908f606000908152908452828120805460ff199081169615159690961790556a686f746d61696c2e636f6d60a81b82526001600b808401829052845193849003602b90810185207f05600a9308de2b1f42919b35d70ccc19f3b0add15c1f394a0dc161868b6cc71a8552875285842080548916841790556a747769747465722e636f6d60a81b85529084018290528451938490030183207f0cf32ca8893a759ac8fb2422624e8a1bfe659a3c434a355093825daaaca5b5ec8352855283822080548716821790556b657468657265756d2e6f726760a01b8352600c8301819052835192839003602c0183207f025a9bd3430a9f496ad710ac825eee0a38f832d6cbcdea84cba9fc9915e0891b83528552838220805487168217905568736b6966662e636f6d60b81b8352600983018190528351928390036029019092207f11784d96e2722c0e1aef263d97ed0e730594c923f73094ae3bad62fc864ab83682529093529120805490921617905561022a565b600080546001600160a01b038381166001600160a01b0319831681178455604051919092169283917f8be0079c531659141344cd1fd0a4f28419497f9722a3daafe3b4186f6b6457e09190a35050565b610618806102396000396000f3fe608060405234801561001057600080fd5b50600436106100785760003560e01c80630690bd381461007d57806315d2512e146100d057806342d7cb98146100e5578063715018a6146101085780638da5cb5b14610110578063c15cffab14610130578063e7a7977a14610143578063f2fde38b14610156575b600080fd5b6100bb61008b36600461046a565b81516020818401810180516001825292820194820194909420919093529091526000908152604090205460ff1681565b60405190151581526020015b60405180910390f35b6100e36100de36600461051e565b610169565b005b6100bb6100f336600461051e565b60026020526000908152604090205460ff1681565b6100e36101c7565b6101186101db565b6040516001600160a01b0390911681526020016100c7565b6100e361013e36600461046a565b6101ea565b6100bb61015136600461046a565b6102c8565b6100e3610164366004610537565b61032c565b6101716103a5565b60008181526002602052604090819020805460ff19166001179055517fb80fff2b4c6f3ddf804877927c77b2fe1871cecaa5ad43d2c7c42f417331f865906101bc9083815260200190565b60405180910390a150565b6101cf6103a5565b6101d96000610404565b565b6000546001600160a01b031690565b6101f26103a5565b60008181526002602052604090205460ff16156102525760405162461bcd60e51b815260206004820152601960248201527863616e6e6f7420736574207265766f6b6564207075626b657960381b60448201526064015b60405180910390fd5b60018083604051610263919061058b565b9081526040805160209281900383018120600086815293529120805460ff1916921515929092179091557f510dac88eaf2dfbd53904241fc199ad46b2063e6bf6c3fb291f8ce8643663419906102bc90849084906105a7565b60405180910390a15050565b60008181526002602052604081205460ff16156102e757506000610326565b6001836040516102f7919061058b565b90815260408051602092819003830190206000858152925290205460ff161561032257506001610326565b5060005b92915050565b6103346103a5565b6001600160a01b0381166103995760405162461bcd60e51b815260206004820152602660248201527f4f776e61626c653a206e6577206f776e657220697320746865207a65726f206160448201526564647265737360d01b6064820152608401610249565b6103a281610404565b50565b336103ae6101db565b6001600160a01b0316146101d95760405162461bcd60e51b815260206004820181905260248201527f4f776e61626c653a2063616c6c6572206973206e6f7420746865206f776e65726044820152606401610249565b600080546001600160a01b038381166001600160a01b0319831681178455604051919092169283917f8be0079c531659141344cd1fd0a4f28419497f9722a3daafe3b4186f6b6457e09190a35050565b634e487b7160e01b600052604160045260246000fd5b6000806040838503121561047d57600080fd5b82356001600160401b038082111561049457600080fd5b818501915085601f8301126104a857600080fd5b8135818111156104ba576104ba610454565b604051601f8201601f19908116603f011681019083821181831017156104e2576104e2610454565b816040528281528860208487010111156104fb57600080fd5b826020860160208301376000602093820184015298969091013596505050505050565b60006020828403121561053057600080fd5b5035919050565b60006020828403121561054957600080fd5b81356001600160a01b038116811461056057600080fd5b9392505050565b60005b8381101561058257818101518382015260200161056a565b50506000910152565b6000825161059d818460208701610567565b9190910192915050565b60408152600083518060408401526105c6816060850160208801610567565b602083019390935250601f91909101601f19160160600191905056fea2646970667358221220528e997ba1ba6de7b9783523a530bf136631f54a1b0c6d0b85804c7716f45cd264736f6c63430008150033",
    "linkReferences": {}
  },
  "methodIdentifiers": {
    "computeSignedMsg(string,string,bytes32,uint256)": "ed221c42",
    "dkimRegistry()": "6423f1e2",
    "isDKIMPublicKeyHashValid(string,bytes32)": "e7a7977a",
    "revokeDKIMPublicKeyHash(string,bytes32,bytes)": "02373794",
    "setDKIMPublicKeyHash(string,string,uint256,bytes32,bytes)": "f3f3737b",
    "signer()": "238ac933"
  },
  "id": 143
}