{
  "abi": [
    {
      "inputs": [
        {
          "internalType": "address",
          "name": "coreAddr",
          "type": "address"
        },
        {
          "internalType": "address",
          "name": "tokenAddr",
          "type": "address"
        },
        {
          "internalType": "address",
          "name": "tokenRegistryAddr",
          "type": "address"
        }
      ],
      "stateMutability": "nonpayable",
      "type": "constructor"
    },
    {
      "inputs": [
        {
          "components": [
            {
              "internalType": "uint256",
              "name": "id",
              "type": "uint256"
            },
            {
              "internalType": "bytes32",
              "name": "emailAddrCommit",
              "type": "bytes32"
            },
            {
              "internalType": "address",
              "name": "extensionAddr",
              "type": "address"
            },
            {
              "internalType": "address",
              "name": "sender",
              "type": "address"
            },
            {
              "internalType": "bytes",
              "name": "state",
              "type": "bytes"
            },
            {
              "internalType": "uint256",
              "name": "expiryTime",
              "type": "uint256"
            }
          ],
          "internalType": "struct UnclaimedState",
          "name": "unclaimedState",
          "type": "tuple"
        },
        {
          "internalType": "address",
          "name": "wallet",
          "type": "address"
        }
      ],
      "name": "claimUnclaimedState",
      "outputs": [],
      "stateMutability": "pure",
      "type": "function"
    },
    {
      "inputs": [
        {
          "internalType": "uint8",
          "name": "templateIndex",
          "type": "uint8"
        },
        {
          "internalType": "bytes[]",
          "name": "subjectParams",
          "type": "bytes[]"
        },
        {
          "internalType": "address",
          "name": "wallet",
          "type": "address"
        },
        {
          "internalType": "bool",
          "name": "hasEmailRecipient",
          "type": "bool"
        },
        {
          "internalType": "address",
          "name": "recipientETHAddr",
          "type": "address"
        },
        {
          "internalType": "bytes32",
          "name": "emailNullifier",
          "type": "bytes32"
        }
      ],
      "name": "execute",
      "outputs": [],
      "stateMutability": "nonpayable",
      "type": "function"
    },
    {
      "inputs": [
        {
          "components": [
            {
              "internalType": "uint256",
              "name": "id",
              "type": "uint256"
            },
            {
              "internalType": "bytes32",
              "name": "emailAddrCommit",
              "type": "bytes32"
            },
            {
              "internalType": "address",
              "name": "extensionAddr",
              "type": "address"
            },
            {
              "internalType": "address",
              "name": "sender",
              "type": "address"
            },
            {
              "internalType": "bytes",
              "name": "state",
              "type": "bytes"
            },
            {
              "internalType": "uint256",
              "name": "expiryTime",
              "type": "uint256"
            }
          ],
          "internalType": "struct UnclaimedState",
          "name": "unclaimedState",
          "type": "tuple"
        },
        {
          "internalType": "bool",
          "name": "",
          "type": "bool"
        }
      ],
      "name": "registerUnclaimedState",
      "outputs": [],
      "stateMutability": "pure",
      "type": "function"
    },
    {
      "inputs": [
        {
          "components": [
            {
              "internalType": "uint256",
              "name": "id",
              "type": "uint256"
            },
            {
              "internalType": "bytes32",
              "name": "emailAddrCommit",
              "type": "bytes32"
            },
            {
              "internalType": "address",
              "name": "extensionAddr",
              "type": "address"
            },
            {
              "internalType": "address",
              "name": "sender",
              "type": "address"
            },
            {
              "internalType": "bytes",
              "name": "state",
              "type": "bytes"
            },
            {
              "internalType": "uint256",
              "name": "expiryTime",
              "type": "uint256"
            }
          ],
          "internalType": "struct UnclaimedState",
          "name": "unclaimedState",
          "type": "tuple"
        }
      ],
      "name": "voidUnclaimedState",
      "outputs": [],
      "stateMutability": "pure",
      "type": "function"
    }
  ],
  "bytecode": {
    "object": "0x608060405234801561001057600080fd5b50604051610e30380380610e3083398101604081905261002f9161008d565b600080546001600160a01b039485166001600160a01b0319918216179091556001805493851693821693909317909255600280549190931691161790556100d0565b80516001600160a01b038116811461008857600080fd5b919050565b6000806000606084860312156100a257600080fd5b6100ab84610071565b92506100b960208501610071565b91506100c760408501610071565b90509250925092565b610d51806100df6000396000f3fe608060405234801561001057600080fd5b506004361061004c5760003560e01c80633ed4f16a146100515780638eb0930c14610065578063b91ad65114610073578063e93977e814610084575b600080fd5b61006361005f3660046109b1565b5050565b005b61006361005f3660046109fe565b610063610081366004610a4f565b50565b610063610092366004610a8b565b8560ff16600003610122576000546040516001600160a01b039091169063c9af3f1c9030906100c390602001610ba0565b6040516020818303038152906040526040518363ffffffff1660e01b81526004016100ef929190610c0e565b600060405180830381600087803b15801561010957600080fd5b505af115801561011d573d6000803e3d6000fd5b505050505b8560ff16600103610250576000546040516001600160a01b039091169063c9af3f1c90309061015390602001610ba0565b6040516020818303038152906040526040518363ffffffff1660e01b815260040161017f929190610c0e565b600060405180830381600087803b15801561019957600080fd5b505af11580156101ad573d6000803e3d6000fd5b50506000546040516001600160a01b03909116925063c9af3f1c915030906101f1906020016020808252600590820152643a32b9ba1960d91b604082015260600190565b6040516020818303038152906040526040518363ffffffff1660e01b815260040161021d929190610c0e565b600060405180830381600087803b15801561023757600080fd5b505af115801561024b573d6000803e3d6000fd5b505050505b8560ff166002036102c25760005460405163326bcfc760e21b81526060916001600160a01b03169063c9af3f1c9061028e9030908590600401610c0e565b600060405180830381600087803b1580156102a857600080fd5b505af11580156102bc573d6000803e3d6000fd5b50505050505b8560ff16600303610384576000856000815181106102e2576102e2610c32565b60200260200101518060200190518101906102fd9190610c48565b6000546040519192506001600160a01b03169063c9af3f1c90839061032490602001610ba0565b6040516020818303038152906040526040518363ffffffff1660e01b8152600401610350929190610c0e565b600060405180830381600087803b15801561036a57600080fd5b505af115801561037e573d6000803e3d6000fd5b50505050505b8560ff166004036104a357600080866000815181106103a5576103a5610c32565b60200260200101518060200190518101906103c09190610c6c565b600254604051636204891b60e11b81529294509092506000916001600160a01b039091169063c4091236906103f9908590600401610cef565b602060405180830381865afa158015610416573d6000803e3d6000fd5b505050506040513d601f19601f8201168201806040525081019061043a9190610c48565b600054604051631968d16b60e21b81529192506001600160a01b0316906365a345ac9061046d9084908790600401610d02565b600060405180830381600087803b15801561048757600080fd5b505af115801561049b573d6000803e3d6000fd5b505050505050505b8560ff1660050361062657600080866000815181106104c4576104c4610c32565b60200260200101518060200190518101906104df9190610c6c565b600254604051636204891b60e11b81529294509092506000916001600160a01b039091169063c409123690610518908590600401610cef565b602060405180830381865afa158015610535573d6000803e3d6000fd5b505050506040513d601f19601f820116820180604052508101906105599190610c48565b600054604051631968d16b60e21b81529192506001600160a01b0316906365a345ac9061058c9084908790600401610d02565b600060405180830381600087803b1580156105a657600080fd5b505af11580156105ba573d6000803e3d6000fd5b5050600054604051631968d16b60e21b81526001600160a01b0390911692506365a345ac91506105f09084908790600401610d02565b600060405180830381600087803b15801561060a57600080fd5b505af115801561061e573d6000803e3d6000fd5b505050505050505b8560ff16600603610745576000808660008151811061064757610647610c32565b60200260200101518060200190518101906106629190610c6c565b600254604051636204891b60e11b81529294509092506000916001600160a01b039091169063c40912369061069b908590600401610cef565b602060405180830381865afa1580156106b8573d6000803e3d6000fd5b505050506040513d601f19601f820116820180604052508101906106dc9190610c48565b6000546040516375af321760e01b81529192506001600160a01b0316906375af32179061070f9084908790600401610d02565b600060405180830381600087803b15801561072957600080fd5b505af115801561073d573d6000803e3d6000fd5b505050505050505b8560ff166007036108035760008560008151811061076557610765610c32565b60200260200101518060200190518101906107809190610c48565b6000546040516321d71c8f60e01b81529192506001600160a01b0316906321d71c8f906107cf9084906004016001600160a01b0391909116815260406020820181905260009082015260600190565b600060405180830381600087803b1580156107e957600080fd5b505af11580156107fd573d6000803e3d6000fd5b50505050505b505050505050565b634e487b7160e01b600052604160045260246000fd5b604051601f8201601f191681016001600160401b03811182821017156108495761084961080b565b604052919050565b6001600160a01b038116811461008157600080fd5b803561087181610851565b919050565b60006001600160401b0382111561088f5761088f61080b565b50601f01601f191660200190565b600082601f8301126108ae57600080fd5b81356108c16108bc82610876565b610821565b8181528460208386010111156108d657600080fd5b816020850160208301376000918101602001919091529392505050565b600060c0828403121561090557600080fd5b60405160c081016001600160401b0380821183831017156109285761092861080b565b8160405282935084358352602085013560208401526040850135915061094d82610851565b8160408401526060850135915061096382610851565b816060840152608085013591508082111561097d57600080fd5b5061098a8582860161089d565b60808301525060a083013560a08201525092915050565b8035801515811461087157600080fd5b600080604083850312156109c457600080fd5b82356001600160401b038111156109da57600080fd5b6109e6858286016108f3565b9250506109f5602084016109a1565b90509250929050565b60008060408385031215610a1157600080fd5b82356001600160401b03811115610a2757600080fd5b610a33858286016108f3565b9250506020830135610a4481610851565b809150509250929050565b600060208284031215610a6157600080fd5b81356001600160401b03811115610a7757600080fd5b610a83848285016108f3565b949350505050565b60008060008060008060c08789031215610aa457600080fd5b863560ff81168114610ab557600080fd5b95506020878101356001600160401b0380821115610ad257600080fd5b818a0191508a601f830112610ae657600080fd5b813581811115610af857610af861080b565b8060051b610b07858201610821565b918252838101850191858101908e841115610b2157600080fd5b86860192505b83831015610b5b578483351115610b3d57600080fd5b610b4c8f88853589010161089d565b82529186019190860190610b27565b809b5050505050505050610b7160408801610866565b9350610b7f606088016109a1565b9250610b8d60808801610866565b915060a087013590509295509295509295565b6020808252600490820152631d195cdd60e21b604082015260600190565b60005b83811015610bd9578181015183820152602001610bc1565b50506000910152565b60008151808452610bfa816020860160208601610bbe565b601f01601f19169290920160200192915050565b6001600160a01b0383168152604060208201819052600090610a8390830184610be2565b634e487b7160e01b600052603260045260246000fd5b600060208284031215610c5a57600080fd5b8151610c6581610851565b9392505050565b60008060408385031215610c7f57600080fd5b825160208401519092506001600160401b03811115610c9d57600080fd5b8301601f81018513610cae57600080fd5b8051610cbc6108bc82610876565b818152866020838501011115610cd157600080fd5b610ce2826020830160208601610bbe565b8093505050509250929050565b602081526000610c656020830184610be2565b6001600160a01b0392909216825260208201526040019056fea2646970667358221220f6d342a537cfedf93e7eaa9268126571e53e4319ac6ef44a4e53cb9968e476b364736f6c63430008170033",
    "linkReferences": {}
  },
  "methodIdentifiers": {
    "claimUnclaimedState((uint256,bytes32,address,address,bytes,uint256),address)": "8eb0930c",
    "execute(uint8,bytes[],address,bool,address,bytes32)": "e93977e8",
    "registerUnclaimedState((uint256,bytes32,address,address,bytes,uint256),bool)": "3ed4f16a",
    "voidUnclaimedState((uint256,bytes32,address,address,bytes,uint256))": "b91ad651"
  },
  "id": 180
}