{
  "abi": [
    {
      "inputs": [
        {
          "components": [
            {
              "internalType": "bytes32",
              "name": "emailAddrCommit",
              "type": "bytes32"
            },
            {
              "internalType": "address",
              "name": "extensionAddr",
              "type": "address"
            },
            {
              "internalType": "address",
              "name": "sender",
              "type": "address"
            },
            {
              "internalType": "bytes",
              "name": "state",
              "type": "bytes"
            },
            {
              "internalType": "uint256",
              "name": "expiryTime",
              "type": "uint256"
            }
          ],
          "internalType": "struct UnclaimedState",
          "name": "unclaimedState",
          "type": "tuple"
        },
        {
          "internalType": "address",
          "name": "wallet",
          "type": "address"
        }
      ],
      "name": "claimUnclaimedState",
      "outputs": [],
      "stateMutability": "pure",
      "type": "function"
    },
    {
      "inputs": [
        {
          "internalType": "uint8",
          "name": "templateIndex",
          "type": "uint8"
        },
        {
          "internalType": "bytes[]",
          "name": "subjectParams",
          "type": "bytes[]"
        },
        {
          "internalType": "address",
          "name": "wallet",
          "type": "address"
        },
        {
          "internalType": "bool",
          "name": "hasEmailRecipient",
          "type": "bool"
        },
        {
          "internalType": "address",
          "name": "recipientETHAddr",
          "type": "address"
        },
        {
          "internalType": "bytes32",
          "name": "emailNullifier",
          "type": "bytes32"
        }
      ],
      "name": "execute",
      "outputs": [],
      "stateMutability": "pure",
      "type": "function"
    },
    {
      "inputs": [
        {
          "components": [
            {
              "internalType": "bytes32",
              "name": "emailAddrCommit",
              "type": "bytes32"
            },
            {
              "internalType": "address",
              "name": "extensionAddr",
              "type": "address"
            },
            {
              "internalType": "address",
              "name": "sender",
              "type": "address"
            },
            {
              "internalType": "bytes",
              "name": "state",
              "type": "bytes"
            },
            {
              "internalType": "uint256",
              "name": "expiryTime",
              "type": "uint256"
            }
          ],
          "internalType": "struct UnclaimedState",
          "name": "unclaimedState",
          "type": "tuple"
        },
        {
          "internalType": "bool",
          "name": "isInternal",
          "type": "bool"
        }
      ],
      "name": "registerUnclaimedState",
      "outputs": [
        {
          "internalType": "bool",
          "name": "",
          "type": "bool"
        }
      ],
      "stateMutability": "pure",
      "type": "function"
    },
    {
      "inputs": [
        {
          "components": [
            {
              "internalType": "bytes32",
              "name": "emailAddrCommit",
              "type": "bytes32"
            },
            {
              "internalType": "address",
              "name": "extensionAddr",
              "type": "address"
            },
            {
              "internalType": "address",
              "name": "sender",
              "type": "address"
            },
            {
              "internalType": "bytes",
              "name": "state",
              "type": "bytes"
            },
            {
              "internalType": "uint256",
              "name": "expiryTime",
              "type": "uint256"
            }
          ],
          "internalType": "struct UnclaimedState",
          "name": "unclaimedState",
          "type": "tuple"
        }
      ],
      "name": "voidUnclaimedState",
      "outputs": [],
      "stateMutability": "pure",
      "type": "function"
    }
  ],
  "bytecode": {
    "object": "0x608060405234801561001057600080fd5b50610450806100206000396000f3fe608060405234801561001057600080fd5b506004361061004c5760003560e01c8063534e4af714610051578063e05df3ee1461007b578063e93977e81461008f578063eba8f5b4146100a5575b600080fd5b61006761005f366004610234565b600192915050565b604051901515815260200160405180910390f35b61008d610089366004610282565b5050565b005b61008d61009d3660046102c7565b505050505050565b61008d6100b33660046103dd565b50565b634e487b7160e01b600052604160045260246000fd5b604051601f8201601f1916810167ffffffffffffffff811182821017156100f5576100f56100b6565b604052919050565b80356001600160a01b038116811461011457600080fd5b919050565b600082601f83011261012a57600080fd5b813567ffffffffffffffff811115610144576101446100b6565b610157601f8201601f19166020016100cc565b81815284602083860101111561016c57600080fd5b816020850160208301376000918101602001919091529392505050565b600060a0828403121561019b57600080fd5b60405160a0810167ffffffffffffffff82821081831117156101bf576101bf6100b6565b81604052829350843583526101d6602086016100fd565b60208401526101e7604086016100fd565b6040840152606085013591508082111561020057600080fd5b5061020d85828601610119565b606083015250608083013560808201525092915050565b8035801515811461011457600080fd5b6000806040838503121561024757600080fd5b823567ffffffffffffffff81111561025e57600080fd5b61026a85828601610189565b92505061027960208401610224565b90509250929050565b6000806040838503121561029557600080fd5b823567ffffffffffffffff8111156102ac57600080fd5b6102b885828601610189565b925050610279602084016100fd565b60008060008060008060c087890312156102e057600080fd5b863560ff811681146102f157600080fd5b955060208781013567ffffffffffffffff8082111561030f57600080fd5b818a0191508a601f83011261032357600080fd5b813581811115610335576103356100b6565b8060051b6103448582016100cc565b918252838101850191858101908e84111561035e57600080fd5b86860192505b8383101561039857848335111561037a57600080fd5b6103898f888535890101610119565b82529186019190860190610364565b809b50505050505050506103ae604088016100fd565b93506103bc60608801610224565b92506103ca608088016100fd565b915060a087013590509295509295509295565b6000602082840312156103ef57600080fd5b813567ffffffffffffffff81111561040657600080fd5b61041284828501610189565b94935050505056fea2646970667358221220c07faf7e05a2d945f45468a8664a674415c93266eb1dc140a06ec9034125556a64736f6c63430008110033",
    "linkReferences": {}
  },
  "methodIdentifiers": {
    "claimUnclaimedState((bytes32,address,address,bytes,uint256),address)": "e05df3ee",
    "execute(uint8,bytes[],address,bool,address,bytes32)": "e93977e8",
    "registerUnclaimedState((bytes32,address,address,bytes,uint256),bool)": "534e4af7",
    "voidUnclaimedState((bytes32,address,address,bytes,uint256))": "eba8f5b4"
  },
  "id": 138
}