{"abi":[{"type":"constructor","inputs":[],"stateMutability":"nonpayable"},{"type":"fallback","stateMutability":"payable"},{"type":"receive","stateMutability":"payable"},{"type":"function","name":"accountHandler","inputs":[],"outputs":[{"name":"","type":"address","internalType":"contract AccountHandler"}],"stateMutability":"view"},{"type":"function","name":"depositTokenAsExtension","inputs":[{"name":"tokenAddr","type":"address","internalType":"address"},{"name":"amount","type":"uint256","internalType":"uint256"}],"outputs":[],"stateMutability":"nonpayable"},{"type":"function","name":"emailNullifiers","inputs":[{"name":"","type":"bytes32","internalType":"bytes32"}],"outputs":[{"name":"","type":"bool","internalType":"bool"}],"stateMutability":"view"},{"type":"function","name":"emailValidityDuration","inputs":[],"outputs":[{"name":"","type":"uint256","internalType":"uint256"}],"stateMutability":"view"},{"type":"function","name":"executeAsExtension","inputs":[{"name":"target","type":"address","internalType":"address"},{"name":"data","type":"bytes","internalType":"bytes"}],"outputs":[],"stateMutability":"nonpayable"},{"type":"function","name":"extensionHandler","inputs":[],"outputs":[{"name":"","type":"address","internalType":"contract ExtensionHandler"}],"stateMutability":"view"},{"type":"function","name":"handleEmailOp","inputs":[{"name":"emailOp","type":"tuple","internalType":"struct EmailOp","components":[{"name":"emailAddrPointer","type":"bytes32","internalType":"bytes32"},{"name":"hasEmailRecipient","type":"bool","internalType":"bool"},{"name":"recipientEmailAddrCommit","type":"bytes32","internalType":"bytes32"},{"name":"numRecipientEmailAddrBytes","type":"uint256","internalType":"uint256"},{"name":"recipientETHAddr","type":"address","internalType":"address"},{"name":"command","type":"string","internalType":"string"},{"name":"emailNullifier","type":"bytes32","internalType":"bytes32"},{"name":"emailDomain","type":"string","internalType":"string"},{"name":"dkimPublicKeyHash","type":"bytes32","internalType":"bytes32"},{"name":"timestamp","type":"uint256","internalType":"uint256"},{"name":"maskedSubject","type":"string","internalType":"string"},{"name":"feeTokenName","type":"string","internalType":"string"},{"name":"feePerGas","type":"uint256","internalType":"uint256"},{"name":"executeCallData","type":"bytes","internalType":"bytes"},{"name":"extensionName","type":"string","internalType":"string"},{"name":"newWalletOwner","type":"address","internalType":"address"},{"name":"newDkimRegistry","type":"address","internalType":"address"},{"name":"walletParams","type":"tuple","internalType":"struct WalletParams","components":[{"name":"tokenName","type":"string","internalType":"string"},{"name":"amount","type":"uint256","internalType":"uint256"}]},{"name":"extensionParams","type":"tuple","internalType":"struct ExtensionParams","components":[{"name":"subjectTemplateIndex","type":"uint8","internalType":"uint8"},{"name":"subjectParams","type":"bytes[]","internalType":"bytes[]"}]},{"name":"emailProof","type":"bytes","internalType":"bytes"}]}],"outputs":[{"name":"success","type":"bool","internalType":"bool"},{"name":"err","type":"bytes","internalType":"bytes"},{"name":"totalFeeInETH","type":"uint256","internalType":"uint256"},{"name":"registeredUnclaimId","type":"uint256","internalType":"uint256"}],"stateMutability":"payable"},{"type":"function","name":"initialize","inputs":[{"name":"_relayerHandler","type":"address","internalType":"address"},{"name":"_accountHandler","type":"address","internalType":"address"},{"name":"_unclaimsHandler","type":"address","internalType":"address"},{"name":"_extensionHandler","type":"address","internalType":"address"},{"name":"_verifier","type":"address","internalType":"address"},{"name":"_tokenRegistry","type":"address","internalType":"address"},{"name":"_priceOracle","type":"address","internalType":"address"},{"name":"_wethContract","type":"address","internalType":"address"},{"name":"_maxFeePerGas","type":"uint256","internalType":"uint256"},{"name":"_emailValidityDuration","type":"uint256","internalType":"uint256"},{"name":"_unclaimedFundClaimGas","type":"uint256","internalType":"uint256"},{"name":"_unclaimedStateClaimGas","type":"uint256","internalType":"uint256"}],"outputs":[],"stateMutability":"nonpayable"},{"type":"function","name":"initializeExtension","inputs":[{"name":"defaultExtensions","type":"bytes[]","internalType":"bytes[]"}],"outputs":[],"stateMutability":"nonpayable"},{"type":"function","name":"maxFeePerGas","inputs":[],"outputs":[{"name":"","type":"uint256","internalType":"uint256"}],"stateMutability":"view"},{"type":"function","name":"owner","inputs":[],"outputs":[{"name":"","type":"address","internalType":"address"}],"stateMutability":"view"},{"type":"function","name":"priceOracle","inputs":[],"outputs":[{"name":"","type":"address","internalType":"contract IPriceOracle"}],"stateMutability":"view"},{"type":"function","name":"proxiableUUID","inputs":[],"outputs":[{"name":"","type":"bytes32","internalType":"bytes32"}],"stateMutability":"view"},{"type":"function","name":"registerUnclaimedStateAsExtension","inputs":[{"name":"extensionAddr","type":"address","internalType":"address"},{"name":"state","type":"bytes","internalType":"bytes"}],"outputs":[],"stateMutability":"nonpayable"},{"type":"function","name":"relayerHandler","inputs":[],"outputs":[{"name":"","type":"address","internalType":"contract RelayerHandler"}],"stateMutability":"view"},{"type":"function","name":"renounceOwnership","inputs":[],"outputs":[],"stateMutability":"nonpayable"},{"type":"function","name":"requestTokenAsExtension","inputs":[{"name":"tokenAddr","type":"address","internalType":"address"},{"name":"amount","type":"uint256","internalType":"uint256"}],"outputs":[],"stateMutability":"nonpayable"},{"type":"function","name":"tokenRegistry","inputs":[],"outputs":[{"name":"","type":"address","internalType":"contract TokenRegistry"}],"stateMutability":"view"},{"type":"function","name":"transferOwnership","inputs":[{"name":"newOwner","type":"address","internalType":"address"}],"outputs":[],"stateMutability":"nonpayable"},{"type":"function","name":"unclaimedFundClaimGas","inputs":[],"outputs":[{"name":"","type":"uint256","internalType":"uint256"}],"stateMutability":"view"},{"type":"function","name":"unclaimedStateClaimGas","inputs":[],"outputs":[{"name":"","type":"uint256","internalType":"uint256"}],"stateMutability":"view"},{"type":"function","name":"unclaimsHandler","inputs":[],"outputs":[{"name":"","type":"address","internalType":"contract UnclaimsHandler"}],"stateMutability":"view"},{"type":"function","name":"upgradeTo","inputs":[{"name":"newImplementation","type":"address","internalType":"address"}],"outputs":[],"stateMutability":"nonpayable"},{"type":"function","name":"upgradeToAndCall","inputs":[{"name":"newImplementation","type":"address","internalType":"address"},{"name":"data","type":"bytes","internalType":"bytes"}],"outputs":[],"stateMutability":"payable"},{"type":"function","name":"validateEmailOp","inputs":[{"name":"emailOp","type":"tuple","internalType":"struct EmailOp","components":[{"name":"emailAddrPointer","type":"bytes32","internalType":"bytes32"},{"name":"hasEmailRecipient","type":"bool","internalType":"bool"},{"name":"recipientEmailAddrCommit","type":"bytes32","internalType":"bytes32"},{"name":"numRecipientEmailAddrBytes","type":"uint256","internalType":"uint256"},{"name":"recipientETHAddr","type":"address","internalType":"address"},{"name":"command","type":"string","internalType":"string"},{"name":"emailNullifier","type":"bytes32","internalType":"bytes32"},{"name":"emailDomain","type":"string","internalType":"string"},{"name":"dkimPublicKeyHash","type":"bytes32","internalType":"bytes32"},{"name":"timestamp","type":"uint256","internalType":"uint256"},{"name":"maskedSubject","type":"string","internalType":"string"},{"name":"feeTokenName","type":"string","internalType":"string"},{"name":"feePerGas","type":"uint256","internalType":"uint256"},{"name":"executeCallData","type":"bytes","internalType":"bytes"},{"name":"extensionName","type":"string","internalType":"string"},{"name":"newWalletOwner","type":"address","internalType":"address"},{"name":"newDkimRegistry","type":"address","internalType":"address"},{"name":"walletParams","type":"tuple","internalType":"struct WalletParams","components":[{"name":"tokenName","type":"string","internalType":"string"},{"name":"amount","type":"uint256","internalType":"uint256"}]},{"name":"extensionParams","type":"tuple","internalType":"struct ExtensionParams","components":[{"name":"subjectTemplateIndex","type":"uint8","internalType":"uint8"},{"name":"subjectParams","type":"bytes[]","internalType":"bytes[]"}]},{"name":"emailProof","type":"bytes","internalType":"bytes"}]}],"outputs":[],"stateMutability":"view"},{"type":"function","name":"verifier","inputs":[],"outputs":[{"name":"","type":"address","internalType":"contract IVerifier"}],"stateMutability":"view"},{"type":"function","name":"wethContract","inputs":[],"outputs":[{"name":"","type":"address","internalType":"address"}],"stateMutability":"view"},{"type":"event","name":"AdminChanged","inputs":[{"name":"previousAdmin","type":"address","indexed":false,"internalType":"address"},{"name":"newAdmin","type":"address","indexed":false,"internalType":"address"}],"anonymous":false},{"type":"event","name":"BeaconUpgraded","inputs":[{"name":"beacon","type":"address","indexed":true,"internalType":"address"}],"anonymous":false},{"type":"event","name":"EmailOpHandled","inputs":[{"name":"success","type":"bool","indexed":true,"internalType":"bool"},{"name":"registeredUnclaimId","type":"uint256","indexed":true,"internalType":"uint256"},{"name":"emailNullifier","type":"bytes32","indexed":true,"internalType":"bytes32"},{"name":"emailAddrPointer","type":"bytes32","indexed":false,"internalType":"bytes32"},{"name":"recipientEmailAddrCommit","type":"bytes32","indexed":false,"internalType":"bytes32"},{"name":"recipientETHAddr","type":"address","indexed":false,"internalType":"address"},{"name":"err","type":"bytes","indexed":false,"internalType":"bytes"}],"anonymous":false},{"type":"event","name":"Initialized","inputs":[{"name":"version","type":"uint8","indexed":false,"internalType":"uint8"}],"anonymous":false},{"type":"event","name":"OwnershipTransferred","inputs":[{"name":"previousOwner","type":"address","indexed":true,"internalType":"address"},{"name":"newOwner","type":"address","indexed":true,"internalType":"address"}],"anonymous":false},{"type":"event","name":"Upgraded","inputs":[{"name":"implementation","type":"address","indexed":true,"internalType":"address"}],"anonymous":false}],"bytecode":{"object":"0x60a0604052306080523480156200001557600080fd5b506200002062000026565b620000e7565b600054610100900460ff1615620000935760405162461bcd60e51b815260206004820152602760248201527f496e697469616c697a61626c653a20636f6e747261637420697320696e697469604482015266616c697a696e6760c81b606482015260840160405180910390fd5b60005460ff90811614620000e5576000805460ff191660ff9081179091556040519081527f7f26b83ff96e1f2b6a682f133852f6798a09c465da95921460cefb38474024989060200160405180910390a15b565b608051615fa06200011f600039600081816113d40152818161146a015281816115710152818161160701526117020152615fa06000f3fe6080604052600436106101af5760003560e01c806365a345ac116100ec578063a39644751161008a578063c9af3f1c11610064578063c9af3f1c146104a8578063d5e5c1c8146104c8578063f2fde38b146104e8578063fea1c89b14610508576101b9565b8063a39644751461045c578063a87fedae1461047c578063b90d36f914610492576101b9565b806375af3217116100c657806375af3217146103de5780638da5cb5b146103fe5780639d23c4c71461041c5780639f6d1d831461043c576101b9565b806365a345ac1461039357806366221734146103b3578063715018a6146103c9576101b9565b80632b7ac3f3116101595780634780eac1116101335780634780eac11461032b5780634f1ef2861461034b57806352d1902d1461035e5780635e5f261014610373576101b9565b80632b7ac3f3146102cb57806333ddfb9a146102eb5780633659cfe61461030b576101b9565b806321d71c8f1161018a57806321d71c8f1461024f5780632630c12f1461026f5780632728bf2c146102a7576101b9565b80629d93ca146101c35780631377df44146101e357806317ace6b51461020f576101b9565b366101b957600080fd5b6101c1610528565b005b3480156101cf57600080fd5b506101c16101de366004614967565b61061a565b6101f66101f1366004614a33565b6108f7565b6040516102069493929190614abf565b60405180910390f35b34801561021b57600080fd5b5061023f61022a366004614aed565b60716020526000908152604090205460ff1681565b6040519015158152602001610206565b34801561025b57600080fd5b506101c161026a366004614b06565b611074565b34801561027b57600080fd5b50606b5461028f906001600160a01b031681565b6040516001600160a01b039091168152602001610206565b3480156102b357600080fd5b506102bd606d5481565b604051908152602001610206565b3480156102d757600080fd5b5060655461028f906001600160a01b031681565b3480156102f757600080fd5b5060675461028f906001600160a01b031681565b34801561031757600080fd5b506101c1610326366004614b8b565b6113ca565b34801561033757600080fd5b50606c5461028f906001600160a01b031681565b6101c1610359366004614cd8565b611567565b34801561036a57600080fd5b506102bd6116f5565b34801561037f57600080fd5b5060665461028f906001600160a01b031681565b34801561039f57600080fd5b506101c16103ae366004614d28565b6117bb565b3480156103bf57600080fd5b506102bd606f5481565b3480156103d557600080fd5b506101c16119d3565b3480156103ea57600080fd5b506101c16103f9366004614d28565b6119e7565b34801561040a57600080fd5b506033546001600160a01b031661028f565b34801561042857600080fd5b50606a5461028f906001600160a01b031681565b34801561044857600080fd5b5060695461028f906001600160a01b031681565b34801561046857600080fd5b506101c16104773660046150e6565b611a5d565b34801561048857600080fd5b506102bd60705481565b34801561049e57600080fd5b506102bd606e5481565b3480156104b457600080fd5b506101c16104c3366004614b06565b612491565b3480156104d457600080fd5b5060685461028f906001600160a01b031681565b3480156104f457600080fd5b506101c1610503366004614b8b565b61271b565b34801561051457600080fd5b506101c161052336600461511b565b6127a8565b36610531573636f35b6000805b8036821061054357506105f9565b81357ffffffffffffffffffffffffffffffffffffffffffffffffffffffffffffffffc83011860001a60018084019350816105e9577fffffffffffffffffffffffffffffffffffffffffffffffffffffffffffffffff85526002830193357ffffffffffffffffffffffffffffffffffffffffffffffffffffffffffffffffd84011860001a607f8082116105d8578282013888395b169490940190930192506105359050565b8185538085019450505050610535565b50600080826000305af490503d6000803e80610614573d6000fd5b503d6000f35b600054610100900460ff161580801561063a5750600054600160ff909116105b806106545750303b158015610654575060005460ff166001145b6106cb5760405162461bcd60e51b815260206004820152602e60248201527f496e697469616c697a61626c653a20636f6e747261637420697320616c72656160448201527f647920696e697469616c697a656400000000000000000000000000000000000060648201526084015b60405180910390fd5b600080547fffffffffffffffffffffffffffffffffffffffffffffffffffffffffffffff00166001179055801561072957600080547fffffffffffffffffffffffffffffffffffffffffffffffffffffffffffff00ff166101001790555b610731612821565b8c606660006101000a8154816001600160a01b0302191690836001600160a01b031602179055508b606760006101000a8154816001600160a01b0302191690836001600160a01b031602179055508a606860006101000a8154816001600160a01b0302191690836001600160a01b0316021790555089606960006101000a8154816001600160a01b0302191690836001600160a01b0316021790555088606560006101000a8154816001600160a01b0302191690836001600160a01b0316021790555087606a60006101000a8154816001600160a01b0302191690836001600160a01b0316021790555086606b60006101000a8154816001600160a01b0302191690836001600160a01b0316021790555085606c60006101000a8154816001600160a01b0302191690836001600160a01b0316021790555084606d8190555083606e8190555082606f819055508160708190555080156108e857600080547fffffffffffffffffffffffffffffffffffffffffffffffffffffffffffff00ff169055604051600181527f7f26b83ff96e1f2b6a682f133852f6798a09c465da95921460cefb38474024989060200160405180910390a15b50505050505050505050505050565b607254600090606090829081906001600160a01b03161561095a5760405162461bcd60e51b815260206004820152601360248201527f636f6e7465787420616c7265616479207365740000000000000000000000000060448201526064016106c2565b60005a60408781013560755560675490517f01262dd2000000000000000000000000000000000000000000000000000000008152883560048201529192506001600160a01b0316906301262dd290602401602060405180830381865afa1580156109c8573d6000803e3d6000fd5b505050506040513d601f19601f820116820180604052508101906109ec9190615190565b607280547fffffffffffffffffffffffff0000000000000000000000000000000000000000166001600160a01b0392909216919091179055610a30610477876151ad565b60c0860135600090815260716020526040902080547fffffffffffffffffffffffffffffffffffffffffffffffffffffffffffffff00166001179055610a7d610a78876151ad565b6128a6565b607354919650945074010000000000000000000000000000000000000000900460ff168015610ac757506073547501000000000000000000000000000000000000000000900460ff165b15610b3a5760405162461bcd60e51b815260206004820152602d60248201527f63616e6e6f7420726567697374657220626f746820756e636c61696d6564206660448201527f756e6420616e642073746174650000000000000000000000000000000000000060648201526084016106c2565b60735474010000000000000000000000000000000000000000900460ff1615610c5157606d54606f54610b6d91906151e8565b3414610be15760405162461bcd60e51b815260206004820152602560248201527f696e636f7272656374204554482073656e7420666f7220756e636c61696d656460448201527f2066756e6400000000000000000000000000000000000000000000000000000060648201526084016106c2565b856101800135606f54610bf491906151e8565b610bfe90846151ff565b606854606d54606f549295506001600160a01b03909116916108fc91610c23916151e8565b6040518115909202916000818181858888f19350505050158015610c4b573d6000803e3d6000fd5b50610e05565b6073547501000000000000000000000000000000000000000000900460ff1615610d3b57606d54607054610c8591906151e8565b3414610cf95760405162461bcd60e51b815260206004820152602660248201527f696e636f7272656374204554482073656e7420666f7220756e636c61696d656460448201527f207374617465000000000000000000000000000000000000000000000000000060648201526084016106c2565b856101800135607054610d0c91906151e8565b610d1690846151ff565b606854606d546070549295506001600160a01b03909116916108fc91610c23916151e8565b60745415610dd75760405162461bcd60e51b815260206004820152604960248201527f72656769737465726564556e636c61696d4964206d757374206265207a65726f60448201527f206966206e6f20756e636c61696d65642066756e642f7374617465206973207260648201527f6567697374657265640000000000000000000000000000000000000000000000608482015260a4016106c2565b60405133903480156108fc02916000818181858888f19350505050158015610e03573d6000803e3d6000fd5b505b607454915061d6d86000815a610e1b9085615212565b610e2591906151ff565b9050610e36610180890135826151e8565b610e4090866151ff565b94506000610e8f610e556101608b018b615225565b8080601f016020809104026020016040519081016040528093929190818152602001838380828437600092019190915250613bbf92505050565b90506000670de0b6b3a7640000610ea683896151e8565b610eb09190615291565b90508015610fa057606a546000906001600160a01b031663c4091236610eda6101608e018e615225565b6040518363ffffffff1660e01b8152600401610ef79291906152f7565b602060405180830381865afa158015610f14573d6000803e3d6000fd5b505050506040513d601f19601f82011682018060405250810190610f389190615190565b6072549091506000908190610f58906001600160a01b0316338587613e23565b915091508181604051602001610f6e919061530b565b60405160208183030381529060405290610f9b5760405162461bcd60e51b81526004016106c29190615350565b505050505b607280547fffffffffffffffffffffffff000000000000000000000000000000000000000016905560006075819055607380547fffffffffffffffffffff000000000000000000000000000000000000000000001690556074819055611008906076906148e4565b8960c00135868a15157fb5144465dc165f0fdb939cd27dbf83aac1199241a737482d2fc25624328c7a188d600001358e604001358f608001602081019061104f9190614b8b565b8e6040516110609493929190615363565b60405180910390a450505050509193509193565b6073546001600160a01b031633146110ce5760405162461bcd60e51b815260206004820152601f60248201527f63616c6c6572206e6f7420657874656e73696f6e20696e20636f6e746578740060448201526064016106c2565b6001600160a01b03831630148015906110f557506068546001600160a01b03848116911614155b801561110f57506067546001600160a01b03848116911614155b801561112957506066546001600160a01b03848116911614155b801561114357506069546001600160a01b03848116911614155b6111b55760405162461bcd60e51b815260206004820152602160248201527f7461726765742063616e6e6f7420626520636f7265206f722068616e646c657260448201527f730000000000000000000000000000000000000000000000000000000000000060648201526084016106c2565b6001600160a01b0383163b61120c5760405162461bcd60e51b815260206004820152601860248201527f746172676574206973206e6f74206120636f6e7472616374000000000000000060448201526064016106c2565b6072546001600160a01b039081169084160361126a5760405162461bcd60e51b815260206004820152601760248201527f7461726765742063616e6e6f742062652077616c6c657400000000000000000060448201526064016106c2565b606a546040517fb399de4e0000000000000000000000000000000000000000000000000000000081526001600160a01b0385811660048301529091169063b399de4e90602401600060405180830381865afa1580156112cd573d6000803e3d6000fd5b505050506040513d6000823e601f3d908101601f191682016040526112f591908101906153f5565b51156113435760405162461bcd60e51b815260206004820152601860248201527f7461726765742063616e6e6f74206265206120746f6b656e000000000000000060448201526064016106c2565b6072546040517fb61d27f60000000000000000000000000000000000000000000000000000000081526001600160a01b039091169063b61d27f6906113939086906000908790879060040161542a565b600060405180830381600087803b1580156113ad57600080fd5b505af11580156113c1573d6000803e3d6000fd5b50505050505050565b6001600160a01b037f00000000000000000000000000000000000000000000000000000000000000001630036114685760405162461bcd60e51b815260206004820152602c60248201527f46756e6374696f6e206d7573742062652063616c6c6564207468726f7567682060448201527f64656c656761746563616c6c000000000000000000000000000000000000000060648201526084016106c2565b7f00000000000000000000000000000000000000000000000000000000000000006001600160a01b03166114c37f360894a13ba1a3210667c828492db98dca3e2076cc3735a920a3ca505d382bbc546001600160a01b031690565b6001600160a01b03161461153f5760405162461bcd60e51b815260206004820152602c60248201527f46756e6374696f6e206d7573742062652063616c6c6564207468726f7567682060448201527f6163746976652070726f7879000000000000000000000000000000000000000060648201526084016106c2565b611548816140e3565b60408051600080825260208201909252611564918391906140eb565b50565b6001600160a01b037f00000000000000000000000000000000000000000000000000000000000000001630036116055760405162461bcd60e51b815260206004820152602c60248201527f46756e6374696f6e206d7573742062652063616c6c6564207468726f7567682060448201527f64656c656761746563616c6c000000000000000000000000000000000000000060648201526084016106c2565b7f00000000000000000000000000000000000000000000000000000000000000006001600160a01b03166116607f360894a13ba1a3210667c828492db98dca3e2076cc3735a920a3ca505d382bbc546001600160a01b031690565b6001600160a01b0316146116dc5760405162461bcd60e51b815260206004820152602c60248201527f46756e6374696f6e206d7573742062652063616c6c6564207468726f7567682060448201527f6163746976652070726f7879000000000000000000000000000000000000000060648201526084016106c2565b6116e5826140e3565b6116f1828260016140eb565b5050565b6000306001600160a01b037f000000000000000000000000000000000000000000000000000000000000000016146117955760405162461bcd60e51b815260206004820152603860248201527f555550535570677261646561626c653a206d757374206e6f742062652063616c60448201527f6c6564207468726f7567682064656c656761746563616c6c000000000000000060648201526084016106c2565b507f360894a13ba1a3210667c828492db98dca3e2076cc3735a920a3ca505d382bbc5b90565b6073546001600160a01b031633146118155760405162461bcd60e51b815260206004820152601f60248201527f63616c6c6572206e6f7420657874656e73696f6e20696e20636f6e746578740060448201526064016106c2565b60005b60765481101561198a57826001600160a01b03166072600401828154811061184257611842615453565b60009182526020909120600290910201546001600160a01b03160361198257816072600401828154811061187857611878615453565b90600052602060002090600202016001015410156118d85760405162461bcd60e51b815260206004820152601660248201527f696e73756666696369656e7420616c6c6f77616e63650000000000000000000060448201526064016106c2565b81607260040182815481106118ef576118ef615453565b9060005260206000209060020201600101600082825461190f9190615212565b90915550506072546073546000918291611937916001600160a01b0390811691168787613e23565b91509150818160405160200161194d9190615482565b6040516020818303038152906040529061197a5760405162461bcd60e51b81526004016106c29190615350565b505050505050565b600101611818565b5060405162461bcd60e51b815260206004820181905260248201527f6e6f20616c6c6f77616e636520666f722072657175657374656420746f6b656e60448201526064016106c2565b6119db614290565b6119e560006142ea565b565b6073546001600160a01b03163314611a415760405162461bcd60e51b815260206004820152601f60248201527f63616c6c6572206e6f7420657874656e73696f6e20696e20636f6e746578740060448201526064016106c2565b6072546116f1906001600160a01b038481169133911684614354565b60675481516040517fba591a3600000000000000000000000000000000000000000000000000000000815260048101919091526000916001600160a01b031690636b0f047d90829063ba591a3690602401602060405180830381865afa158015611acb573d6000803e3d6000fd5b505050506040513d601f19601f82011682018060405250810190611aef91906154c7565b6040518263ffffffff1660e01b8152600401611b0d91815260200190565b606060405180830381865afa158015611b2a573d6000803e3d6000fd5b505050506040513d601f19601f82011682018060405250810190611b4e91906154e0565b80519091506001600160a01b03163314611baa5760405162461bcd60e51b815260206004820152600f60248201527f696e76616c69642072656c61796572000000000000000000000000000000000060448201526064016106c2565b8060200151611bfb5760405162461bcd60e51b815260206004820152601760248201527f6163636f756e74206e6f7420696e697469616c697a656400000000000000000060448201526064016106c2565b6040810151611c4c5760405162461bcd60e51b815260206004820152601360248201527f77616c6c65742073616c74206e6f74207365740000000000000000000000000060448201526064016106c2565b42606e54836101200151611c6091906151ff565b11611cad5760405162461bcd60e51b815260206004820152600d60248201527f656d61696c20657870697265640000000000000000000000000000000000000060448201526064016106c2565b6066546040517f5300f8410000000000000000000000000000000000000000000000000000000081523360048201526000916001600160a01b031690635300f84190602401600060405180830381865afa158015611d0f573d6000803e3d6000fd5b505050506040513d6000823e601f3d908101601f19168201604052611d37919081019061554b565b5090508051600003611d8b5760405162461bcd60e51b815260206004820152601660248201527f72656c61796572206e6f7420726567697374657265640000000000000000000060448201526064016106c2565b8260a0015151600003611de05760405162461bcd60e51b815260206004820152601760248201527f636f6d6d616e642063616e6e6f7420626520656d70747900000000000000000060448201526064016106c2565b611dee836101600151613bbf565b600003611e3d5760405162461bcd60e51b815260206004820152601560248201527f756e737570706f727465642066656520746f6b656e000000000000000000000060448201526064016106c2565b606d548361018001511115611e945760405162461bcd60e51b815260206004820152601460248201527f666565207065722067617320746f6f206869676800000000000000000000000060448201526064016106c2565b60c083015160009081526071602052604090205460ff1615611ef85760405162461bcd60e51b815260206004820152600f60248201527f656d61696c206e756c6c6966696564000000000000000000000000000000000060448201526064016106c2565b60675460c08401516040517f17ace6b50000000000000000000000000000000000000000000000000000000081526001600160a01b03909216916317ace6b591611f489160040190815260200190565b602060405180830381865afa158015611f65573d6000803e3d6000fd5b505050506040513d601f19601f82011682018060405250810190611f8991906155a5565b15611fd65760405162461bcd60e51b815260206004820152600f60248201527f656d61696c206e756c6c6966696564000000000000000000000000000000000060448201526064016106c2565b60675460408084015160e086015161010087015192517fd842484e0000000000000000000000000000000000000000000000000000000081526001600160a01b039094169363d842484e9361202f9392916004016155c2565b602060405180830381865afa15801561204c573d6000803e3d6000fd5b505050506040513d601f19601f8201168201806040525081019061207091906155a5565b6120bc5760405162461bcd60e51b815260206004820152601760248201527f696e76616c696420444b494d207075626c6963206b657900000000000000000060448201526064016106c2565b82602001511561219d5760808301516001600160a01b0316156121215760405162461bcd60e51b815260206004820181905260248201527f63616e6e6f74206861766520626f746820726563697069656e7420747970657360448201526064016106c2565b60408301516121985760405162461bcd60e51b815260206004820152602260248201527f726563697069656e74456d61696c41646472436f6d6d6974206e6f7420666f7560448201527f6e6400000000000000000000000000000000000000000000000000000000000060648201526084016106c2565b612214565b6040830151156122145760405162461bcd60e51b8152602060048201526024808201527f726563697069656e74456d61696c41646472436f6d6d6974206e6f7420616c6c60448201527f6f7765640000000000000000000000000000000000000000000000000000000060648201526084016106c2565b60675460408084015190517f5664c78e00000000000000000000000000000000000000000000000000000000815260009273__$a4c672e1ff4582c439378a74443bfb54da$__926330a2cc129288926001600160a01b031691635664c78e91612284919060040190815260200190565b602060405180830381865afa1580156122a1573d6000803e3d6000fd5b505050506040513d601f19601f820116820180604052508101906122c59190615190565b306040518463ffffffff1660e01b81526004016122e4939291906156a7565b600060405180830381865af4158015612301573d6000803e3d6000fd5b505050506040513d6000823e601f3d908101601f1916820160405261232991908101906158cc565b50905061233b818561014001516143dc565b8160405160200161234c919061591e565b604051602081830303815290604052906123795760405162461bcd60e51b81526004016106c29190615350565b5060655460e085015161010086015161012087015161014088015160c0890151895160208b01516040808d01516102608e015191517f67f6bc6f0000000000000000000000000000000000000000000000000000000081526001600160a01b03909a16996367f6bc6f996123fe99909890979096909590949093909291600401615963565b602060405180830381865afa15801561241b573d6000803e3d6000fd5b505050506040513d601f19601f8201168201806040525081019061243f91906155a5565b61248b5760405162461bcd60e51b815260206004820152601360248201527f696e76616c696420656d61696c2070726f6f660000000000000000000000000060448201526064016106c2565b50505050565b6069546040517f2f1d7ddc0000000000000000000000000000000000000000000000000000000081526001600160a01b03858116600483015290911690632f1d7ddc90602401602060405180830381865afa1580156124f4573d6000803e3d6000fd5b505050506040513d601f19601f8201168201806040525081019061251891906154c7565b6000036125675760405162461bcd60e51b815260206004820152601160248201527f696e76616c696420657874656e73696f6e00000000000000000000000000000060448201526064016106c2565b6073546001600160a01b031633146125c15760405162461bcd60e51b815260206004820152601460248201527f63616c6c6572206e6f7420657874656e73696f6e00000000000000000000000060448201526064016106c2565b6073547501000000000000000000000000000000000000000000900460ff161561262d5760405162461bcd60e51b815260206004820152601660248201527f756e636c61696d6564207374617465206578697374730000000000000000000060448201526064016106c2565b6073805475010000000000000000000000000000000000000000007fffffffffffffffffffff00ffffffffffffffffffffffffffffffffffffffffff8216179091556068546072546075546040517fdef27db70000000000000000000000000000000000000000000000000000000081526001600160a01b039384169463def27db7946126d0948a949082169390928a928a9291811690871614906004016159d6565b6020604051808303816000875af11580156126ef573d6000803e3d6000fd5b505050506040513d601f19601f8201168201806040525081019061271391906154c7565b607455505050565b612723614290565b6001600160a01b03811661279f5760405162461bcd60e51b815260206004820152602660248201527f4f776e61626c653a206e6577206f776e657220697320746865207a65726f206160448201527f646472657373000000000000000000000000000000000000000000000000000060648201526084016106c2565b611564816142ea565b6069546040517ff884630b0000000000000000000000000000000000000000000000000000000081526001600160a01b039091169063f884630b906127f39085908590600401615a1e565b600060405180830381600087803b15801561280d57600080fd5b505af115801561197a573d6000803e3d6000fd5b600054610100900460ff1661289e5760405162461bcd60e51b815260206004820152602b60248201527f496e697469616c697a61626c653a20636f6e7472616374206973206e6f74206960448201527f6e697469616c697a696e6700000000000000000000000000000000000000000060648201526084016106c2565b6119e56143f8565b600060606128ed8360a001516040518060400160405280600481526020017f53656e64000000000000000000000000000000000000000000000000000000008152506143dc565b15612d4857610220830151606a5481516040517fc40912360000000000000000000000000000000000000000000000000000000081526000926001600160a01b03169163c4091236916129439190600401615350565b602060405180830381865afa158015612960573d6000803e3d6000fd5b505050506040513d601f19601f820116820180604052508101906129849190615190565b9050846020015115612ab55760725460685460208401516129b4926001600160a01b039081169216908490613e23565b9094509250836129c5575050915091565b607380547fffffffffffffffffffffff00ffffffffffffffffffffffffffffffffffffffff1674010000000000000000000000000000000000000000179055606854607254604087810151602086015191517f1bae92f70000000000000000000000000000000000000000000000000000000081526001600160a01b039384166004820152602481019190915284831660448201526064810191909152911690631bae92f7906084016020604051808303816000875af1158015612a8d573d6000803e3d6000fd5b505050506040513d601f19601f82011682018060405250810190612ab191906154c7565b6074555b8460200151612d4157612b06856102200151600001516040518060400160405280600381526020017f45544800000000000000000000000000000000000000000000000000000000008152506143dc565b15612d1857607254606c5460208401516040516001600160a01b0393841693849363b61d27f693911691600091612b439160240190815260200190565b60408051601f198184030181529181526020820180517bffffffffffffffffffffffffffffffffffffffffffffffffffffffff167f2e1a7d4d000000000000000000000000000000000000000000000000000000001790525160e085901b7fffffffff00000000000000000000000000000000000000000000000000000000168152612bd493929190600401615af5565b600060405180830381600087803b158015612bee57600080fd5b505af1925050508015612bff575060015b612c7857612c0b615b26565b806308c379a003612c355750612c1f615b41565b80612c2a5750612c37565b600095509350612d12565b505b600094506040518060400160405280601a81526020017f65727220636f6e76657274696e67205745544820746f204554480000000000008152509350612d12565b608086015160208401516040517fb61d27f60000000000000000000000000000000000000000000000000000000081526001600160a01b039283166004820152602481019190915260606044820152600060648201529082169063b61d27f690608401600060405180830381600087803b158015612cf557600080fd5b505af1158015612d09573d6000803e3d6000fd5b50505050600194505b50612d41565b60725460808601516020840151612d3b926001600160a01b031691908490613e23565b90945092505b5050915091565b612d8b8360a001516040518060400160405280600781526020017f45786563757465000000000000000000000000000000000000000000000000008152506143dc565b15612eb2576000806000856101a00151806020019051810190612dae9190615be9565b6072546040517fb61d27f600000000000000000000000000000000000000000000000000000000815293965091945092506001600160a01b03169063b61d27f690612e0190869086908690600401615af5565b600060405180830381600087803b158015612e1b57600080fd5b505af1925050508015612e2c575060015b612ea557612e38615b26565b806308c379a003612e625750612e4c615b41565b80612e575750612e64565b600095509350612eaa565b505b600094506040518060400160405280602081526020017f65727220657865637574696e672063616c6c64617461206f6e2077616c6c65748152509350612eaa565b600194505b505050915091565b612ef58360a001516040518060400160405280600781526020017f496e7374616c6c000000000000000000000000000000000000000000000000008152506143dc565b156130b8576069546101c08401516040517f93f878420000000000000000000000000000000000000000000000000000000081526000926001600160a01b0316916393f8784291612f499190600401615350565b602060405180830381865afa158015612f66573d6000803e3d6000fd5b505050506040513d601f19601f82011682018060405250810190612f8a9190615190565b6069546040517f93ec49710000000000000000000000000000000000000000000000000000000081526001600160a01b03808416600483015260006024830181905260448301819052939450909116906393ec497190606401600060405180830381865afa158015613000573d6000803e3d6000fd5b505050506040513d6000823e601f3d908101601f1916820160405261302891908101906153f5565b6069546072546040517ff1fbbba10000000000000000000000000000000000000000000000000000000081529293506001600160a01b039182169263f1fbbba19261307b92169085908790600401615c57565b600060405180830381600087803b15801561309557600080fd5b505af11580156130a9573d6000803e3d6000fd5b50505050600193505050915091565b6130fb8360a001516040518060400160405280600981526020017f556e696e7374616c6c00000000000000000000000000000000000000000000008152506143dc565b15613282576069546101c08401516040517f93f878420000000000000000000000000000000000000000000000000000000081526000926001600160a01b0316916393f878429161314f9190600401615350565b602060405180830381865afa15801561316c573d6000803e3d6000fd5b505050506040513d601f19601f820116820180604052508101906131909190615190565b6069546040517f93ec49710000000000000000000000000000000000000000000000000000000081526001600160a01b03808416600483015260006024830181905260448301819052939450909116906393ec497190606401600060405180830381865afa158015613206573d6000803e3d6000fd5b505050506040513d6000823e601f3d908101601f1916820160405261322e91908101906153f5565b6069546072546040517ff1fbbba10000000000000000000000000000000000000000000000000000000081529293506001600160a01b039182169263f1fbbba19261307b9216908590600090600401615c57565b6132c58360a001516040518060400160405280600481526020017f45786974000000000000000000000000000000000000000000000000000000008152506143dc565b156133a5576072546101e08401516040517ff2fde38b0000000000000000000000000000000000000000000000000000000081526001600160a01b03918216600482015291169063f2fde38b90602401600060405180830381600087803b15801561332f57600080fd5b505af1925050508015613340575060015b61339c5761334c615b26565b806308c379a0036133765750613360615b41565b8061336b5750613378565b600092509050915091565b505b60009150604051806060016040528060298152602001615f1b602991399050915091565b60019150915091565b6133e88360a001516040518060400160405280600481526020017f444b494d000000000000000000000000000000000000000000000000000000008152506143dc565b1561357b5760675483516040517fba591a3600000000000000000000000000000000000000000000000000000000815260048101919091526000916001600160a01b03169063ba591a3690602401602060405180830381865afa158015613453573d6000803e3d6000fd5b505050506040513d601f19601f8201168201806040525081019061347791906154c7565b6067546040517f6b0f047d000000000000000000000000000000000000000000000000000000008152600481018390529192506001600160a01b0316906340d20041908290636b0f047d90602401606060405180830381865afa1580156134e2573d6000803e3d6000fd5b505050506040513d601f19601f8201168201806040525081019061350691906154e0565b604001518661020001516040518363ffffffff1660e01b815260040161353f9291909182526001600160a01b0316602082015260400190565b600060405180830381600087803b15801561355957600080fd5b505af115801561356d573d6000803e3d6000fd5b505050506001925050915091565b60695460725460a08501516040517fe086a8220000000000000000000000000000000000000000000000000000000081526000936001600160a01b039081169363e086a822936135d2939290911691600401615c8d565b602060405180830381865afa1580156135ef573d6000803e3d6000fd5b505050506040513d601f19601f820116820180604052508101906136139190615190565b607380547fffffffffffffffffffffffff0000000000000000000000000000000000000000166001600160a01b038381169182179092556069546040517f6dfbe35e000000000000000000000000000000000000000000000000000000008152600481019290925292935060009283921690636dfbe35e90602401600060405180830381865afa1580156136ab573d6000803e3d6000fd5b505050506040513d6000823e601f3d908101601f191682016040526136d39190810190615caf565b8661024001516000015160ff16815181106136f0576136f0615453565b6020026020010151905060005b81518160ff161015613a31576000828260ff168151811061372057613720615453565b60200260200101519050613769816040518060400160405280600d81526020017f7b746f6b656e416d6f756e747d000000000000000000000000000000000000008152506143dc565b156138b857600080896102400151602001518660ff168151811061378f5761378f615453565b60200260200101518060200190518101906137aa9190615def565b6040805180820191829052606a547fc4091236000000000000000000000000000000000000000000000000000000009092529294509092506076919081906001600160a01b031663c40912366138038660448501615350565b602060405180830381865afa158015613820573d6000803e3d6000fd5b505050506040513d601f19601f820116820180604052508101906138449190615190565b6001600160a01b0390811682526020918201869052835460018082018655600095865294839020845160029092020180547fffffffffffffffffffffffff00000000000000000000000000000000000000001691909216178155910151910155856138ae81615e2c565b9650505050613a1e565b6138f7816040518060400160405280600881526020017f7b616d6f756e747d0000000000000000000000000000000000000000000000008152506143dc565b8061393c575061393c816040518060400160405280600881526020017f7b737472696e677d0000000000000000000000000000000000000000000000008152506143dc565b806139815750613981816040518060400160405280600681526020017f7b75696e747d00000000000000000000000000000000000000000000000000008152506143dc565b806139c657506139c6816040518060400160405280600581526020017f7b696e747d0000000000000000000000000000000000000000000000000000008152506143dc565b80613a0b5750613a0b816040518060400160405280600981526020017f7b616464726573737d00000000000000000000000000000000000000000000008152506143dc565b15613a1e5783613a1a81615e2c565b9450505b5080613a2981615e2c565b9150506136fd565b506069546040517f2f1d7ddc0000000000000000000000000000000000000000000000000000000081526001600160a01b03858116600483018190529263e93977e892911690632f1d7ddc90602401602060405180830381865afa158015613a9d573d6000803e3d6000fd5b505050506040513d601f19601f82011682018060405250810190613ac191906154c7565b6102408901518051602091820151607254928c015160808d015160c08e01516040517fffffffff0000000000000000000000000000000000000000000000000000000060e08a901b168152613b25966001600160a01b031693929190600401615e4b565b600060405180830381600088803b158015613b3f57600080fd5b5087f193505050508015613b51575060015b612ea557613b5d615b26565b806308c379a003613b7c5750613b71615b41565b80612e575750613b7e565b505b600094506040518060400160405280601781526020017f65727220657865637574696e6720657874656e73696f6e0000000000000000008152509350612eaa565b6000613c00826040518060400160405280600381526020017f45544800000000000000000000000000000000000000000000000000000000008152506143dc565b80613c455750613c45826040518060400160405280600481526020017f57455448000000000000000000000000000000000000000000000000000000008152506143dc565b15613c595750670de0b6b3a7640000919050565b6000613c9a836040518060400160405280600381526020017f44414900000000000000000000000000000000000000000000000000000000008152506143dc565b80613cdf5750613cdf836040518060400160405280600481526020017f55534443000000000000000000000000000000000000000000000000000000008152506143dc565b905080613cef5750600092915050565b606a546040517fc40912360000000000000000000000000000000000000000000000000000000081526000916001600160a01b03169063c409123690613d39908790600401615350565b602060405180830381865afa158015613d56573d6000803e3d6000fd5b505050506040513d601f19601f82011682018060405250810190613d7a9190615190565b90506001600160a01b038116613d94575060009392505050565b606b546040517f01857da80000000000000000000000000000000000000000000000000000000081526001600160a01b038381166004830152909116906301857da890602401602060405180830381865afa158015613df7573d6000803e3d6000fd5b505050506040513d601f19601f82011682018060405250810190613e1b91906154c7565b949350505050565b600060606001600160a01b038416613e7d5760405162461bcd60e51b815260206004820152601560248201527f696e76616c696420746f6b656e2061646472657373000000000000000000000060448201526064016106c2565b60008311613ecd5760405162461bcd60e51b815260206004820152600e60248201527f696e76616c696420616d6f756e7400000000000000000000000000000000000060448201526064016106c2565b6001600160a01b038616613f235760405162461bcd60e51b815260206004820152601660248201527f696e76616c69642073656e64657220616464726573730000000000000000000060448201526064016106c2565b6001600160a01b038516613f795760405162461bcd60e51b815260206004820152601960248201527f696e76616c696420726563697069656e7420616464726573730000000000000060448201526064016106c2565b604080516001600160a01b038781166024830152604480830187905283518084039091018152606490920183526020820180517bffffffffffffffffffffffffffffffffffffffffffffffffffffffff167fa9059cbb0000000000000000000000000000000000000000000000000000000017905291517fb61d27f6000000000000000000000000000000000000000000000000000000008152889283169163b61d27f69161403091899160009190600401615af5565b600060405180830381600087803b15801561404a57600080fd5b505af192505050801561405b575060015b6140d457614067615b26565b806308c379a003614093575061407b615b41565b806140865750614095565b6000935091506140da9050565b505b505060408051808201909152601981527f756e6b6e6f776e2077616c6c65742065786563206572726f72000000000000006020820152600091506140da565b60019250505b94509492505050565b611564614290565b7f4910fdfa16fed3260ed0e7147f7cc6da11a60208b5b9406d12a635614ffd91435460ff16156141235761411e8361447e565b505050565b826001600160a01b03166352d1902d6040518163ffffffff1660e01b8152600401602060405180830381865afa92505050801561417d575060408051601f3d908101601f1916820190925261417a918101906154c7565b60015b6141ef5760405162461bcd60e51b815260206004820152602e60248201527f45524331393637557067726164653a206e657720696d706c656d656e7461746960448201527f6f6e206973206e6f74205555505300000000000000000000000000000000000060648201526084016106c2565b7f360894a13ba1a3210667c828492db98dca3e2076cc3735a920a3ca505d382bbc81146142845760405162461bcd60e51b815260206004820152602960248201527f45524331393637557067726164653a20756e737570706f727465642070726f7860448201527f6961626c6555554944000000000000000000000000000000000000000000000060648201526084016106c2565b5061411e838383614554565b6033546001600160a01b031633146119e55760405162461bcd60e51b815260206004820181905260248201527f4f776e61626c653a2063616c6c6572206973206e6f7420746865206f776e657260448201526064016106c2565b603380546001600160a01b038381167fffffffffffffffffffffffff0000000000000000000000000000000000000000831681179093556040519116919082907f8be0079c531659141344cd1fd0a4f28419497f9722a3daafe3b4186f6b6457e090600090a35050565b604080516001600160a01b0385811660248301528416604482015260648082018490528251808303909101815260849091019091526020810180517bffffffffffffffffffffffffffffffffffffffffffffffffffffffff167f23b872dd0000000000000000000000000000000000000000000000000000000017905261248b908590614579565b6000818051906020012083805190602001201490505b92915050565b600054610100900460ff166144755760405162461bcd60e51b815260206004820152602b60248201527f496e697469616c697a61626c653a20636f6e7472616374206973206e6f74206960448201527f6e697469616c697a696e6700000000000000000000000000000000000000000060648201526084016106c2565b6119e5336142ea565b6001600160a01b0381163b6144fb5760405162461bcd60e51b815260206004820152602d60248201527f455243313936373a206e657720696d706c656d656e746174696f6e206973206e60448201527f6f74206120636f6e74726163740000000000000000000000000000000000000060648201526084016106c2565b7f360894a13ba1a3210667c828492db98dca3e2076cc3735a920a3ca505d382bbc80547fffffffffffffffffffffffff0000000000000000000000000000000000000000166001600160a01b0392909216919091179055565b61455d83614661565b60008251118061456a5750805b1561411e5761248b83836146a1565b60006145ce826040518060400160405280602081526020017f5361666545524332303a206c6f772d6c6576656c2063616c6c206661696c6564815250856001600160a01b03166146cd9092919063ffffffff16565b90508051600014806145ef5750808060200190518101906145ef91906155a5565b61411e5760405162461bcd60e51b815260206004820152602a60248201527f5361666545524332303a204552433230206f7065726174696f6e20646964206e60448201527f6f7420737563636565640000000000000000000000000000000000000000000060648201526084016106c2565b61466a8161447e565b6040516001600160a01b038216907fbc7cd75a20ee27fd9adebab32041f755214dbc6bffa90cc0225b39da2e5c2d3b90600090a250565b60606146c68383604051806060016040528060278152602001615f44602791396146dc565b9392505050565b6060613e1b8484600085614754565b6060600080856001600160a01b0316856040516146f99190615efe565b600060405180830381855af49150503d8060008114614734576040519150601f19603f3d011682016040523d82523d6000602084013e614739565b606091505b509150915061474a86838387614846565b9695505050505050565b6060824710156147cc5760405162461bcd60e51b815260206004820152602660248201527f416464726573733a20696e73756666696369656e742062616c616e636520666f60448201527f722063616c6c000000000000000000000000000000000000000000000000000060648201526084016106c2565b600080866001600160a01b031685876040516147e89190615efe565b60006040518083038185875af1925050503d8060008114614825576040519150601f19603f3d011682016040523d82523d6000602084013e61482a565b606091505b509150915061483b87838387614846565b979650505050505050565b606083156148b55782516000036148ae576001600160a01b0385163b6148ae5760405162461bcd60e51b815260206004820152601d60248201527f416464726573733a2063616c6c20746f206e6f6e2d636f6e747261637400000060448201526064016106c2565b5081613e1b565b613e1b83838151156148ca5781518083602001fd5b8060405162461bcd60e51b81526004016106c29190615350565b508054600082556002029060005260206000209081019061156491905b8082111561493e5780547fffffffffffffffffffffffff000000000000000000000000000000000000000016815560006001820155600201614901565b5090565b6001600160a01b038116811461156457600080fd5b803561496281614942565b919050565b6000806000806000806000806000806000806101808d8f03121561498a57600080fd5b8c3561499581614942565b9b5060208d01356149a581614942565b9a5060408d01356149b581614942565b995060608d01356149c581614942565b985060808d01356149d581614942565b975060a08d01356149e581614942565b96506149f360c08e01614957565b9550614a0160e08e01614957565b94506101008d013593506101208d013592506101408d013591506101608d013590509295989b509295989b509295989b565b600060208284031215614a4557600080fd5b813567ffffffffffffffff811115614a5c57600080fd5b820161028081850312156146c657600080fd5b60005b83811015614a8a578181015183820152602001614a72565b50506000910152565b60008151808452614aab816020860160208601614a6f565b601f01601f19169290920160200192915050565b8415158152608060208201526000614ada6080830186614a93565b6040830194909452506060015292915050565b600060208284031215614aff57600080fd5b5035919050565b600080600060408486031215614b1b57600080fd5b8335614b2681614942565b9250602084013567ffffffffffffffff80821115614b4357600080fd5b818601915086601f830112614b5757600080fd5b813581811115614b6657600080fd5b876020828501011115614b7857600080fd5b6020830194508093505050509250925092565b600060208284031215614b9d57600080fd5b81356146c681614942565b7f4e487b7100000000000000000000000000000000000000000000000000000000600052604160045260246000fd5b6040810181811067ffffffffffffffff82111715614bf757614bf7614ba8565b60405250565b601f19601f830116810181811067ffffffffffffffff82111715614c2357614c23614ba8565b6040525050565b604051610280810167ffffffffffffffff81118282101715614c4e57614c4e614ba8565b60405290565b600067ffffffffffffffff821115614c6e57614c6e614ba8565b50601f01601f191660200190565b600082601f830112614c8d57600080fd5b8135614c9881614c54565b604051614ca58282614bfd565b828152856020848701011115614cba57600080fd5b82602086016020830137600092810160200192909252509392505050565b60008060408385031215614ceb57600080fd5b8235614cf681614942565b9150602083013567ffffffffffffffff811115614d1257600080fd5b614d1e85828601614c7c565b9150509250929050565b60008060408385031215614d3b57600080fd5b8235614d4681614942565b946020939093013593505050565b801515811461156457600080fd5b803561496281614d54565b600060408284031215614d7f57600080fd5b604051614d8b81614bd7565b809150823567ffffffffffffffff811115614da557600080fd5b614db185828601614c7c565b825250602083013560208201525092915050565b600067ffffffffffffffff821115614ddf57614ddf614ba8565b5060051b60200190565b600060408284031215614dfb57600080fd5b604051614e0781614bd7565b809150823560ff81168114614e1b57600080fd5b815260208381013567ffffffffffffffff80821115614e3957600080fd5b818601915086601f830112614e4d57600080fd5b8135614e5881614dc5565b604051614e658282614bfd565b82815260059290921b8401850191858101915089831115614e8557600080fd5b8585015b83811015614ebd57803585811115614ea15760008081fd5b614eaf8c89838a0101614c7c565b845250918601918601614e89565b5080868801525050505050505092915050565b60006102808284031215614ee357600080fd5b614eeb614c2a565b905081358152614efd60208301614d62565b60208201526040820135604082015260608201356060820152614f2260808301614957565b608082015260a082013567ffffffffffffffff80821115614f4257600080fd5b614f4e85838601614c7c565b60a084015260c084013560c084015260e0840135915080821115614f7157600080fd5b614f7d85838601614c7c565b60e08401526101008481013590840152610120808501359084015261014091508184013581811115614fae57600080fd5b614fba86828701614c7c565b838501525061016091508184013581811115614fd557600080fd5b614fe186828701614c7c565b8385015250610180915081840135828401526101a09150818401358181111561500957600080fd5b61501586828701614c7c565b83850152506101c09150818401358181111561503057600080fd5b61503c86828701614c7c565b83850152506101e09150615051828501614957565b828401526102009150615065828501614957565b828401526102209150818401358181111561507f57600080fd5b61508b86828701614d6d565b8385015250610240915081840135818111156150a657600080fd5b6150b286828701614de9565b8385015250610260915081840135818111156150cd57600080fd5b6150d986828701614c7c565b8385015250505092915050565b6000602082840312156150f857600080fd5b813567ffffffffffffffff81111561510f57600080fd5b613e1b84828501614ed0565b6000806020838503121561512e57600080fd5b823567ffffffffffffffff8082111561514657600080fd5b818501915085601f83011261515a57600080fd5b81358181111561516957600080fd5b8660208260051b850101111561517e57600080fd5b60209290920196919550909350505050565b6000602082840312156151a257600080fd5b81516146c681614942565b60006143f23683614ed0565b7f4e487b7100000000000000000000000000000000000000000000000000000000600052601160045260246000fd5b80820281158282048414176143f2576143f26151b9565b808201808211156143f2576143f26151b9565b818103818111156143f2576143f26151b9565b60008083357fffffffffffffffffffffffffffffffffffffffffffffffffffffffffffffffe184360301811261525a57600080fd5b83018035915067ffffffffffffffff82111561527557600080fd5b60200191503681900382131561528a57600080fd5b9250929050565b6000826152c7577f4e487b7100000000000000000000000000000000000000000000000000000000600052601260045260246000fd5b500490565b818352818160208501375060006020828401015260006020601f19601f840116840101905092915050565b602081526000613e1b6020830184866152cc565b7f666565207265696d62757273656d656e74206661696c65643a2000000000000081526000825161534381601a850160208701614a6f565b91909101601a0192915050565b6020815260006146c66020830184614a93565b8481528360208201526001600160a01b038316604082015260806060820152600061474a6080830184614a93565b600061539c83614c54565b6040516153a98282614bfd565b8092508481528585850111156153be57600080fd5b6153cc856020830186614a6f565b50509392505050565b600082601f8301126153e657600080fd5b6146c683835160208501615391565b60006020828403121561540757600080fd5b815167ffffffffffffffff81111561541e57600080fd5b613e1b848285016153d5565b6001600160a01b038516815283602082015260606040820152600061474a6060830184866152cc565b7f4e487b7100000000000000000000000000000000000000000000000000000000600052603260045260246000fd5b7f7265717565737420746f6b656e206661696c65643a20000000000000000000008152600082516154ba816016850160208701614a6f565b9190910160160192915050565b6000602082840312156154d957600080fd5b5051919050565b6000606082840312156154f257600080fd5b6040516060810181811067ffffffffffffffff8211171561551557615515614ba8565b604052825161552381614942565b8152602083015161553381614d54565b60208201526040928301519281019290925250919050565b6000806040838503121561555e57600080fd5b825167ffffffffffffffff8082111561557657600080fd5b615582868387016153d5565b9350602085015191508082111561559857600080fd5b50614d1e858286016153d5565b6000602082840312156155b757600080fd5b81516146c681614d54565b8381526060602082015260006155db6060830185614a93565b9050826040830152949350505050565b60008151604084526156006040850182614a93565b602093840151949093019390935250919050565b60006040830160ff83511684526020808401516040602087015282815180855260608801915060608160051b890101945060208301925060005b8181101561569a577fffffffffffffffffffffffffffffffffffffffffffffffffffffffffffffffa0898703018352615688868551614a93565b9550928401929184019160010161564e565b5093979650505050505050565b6060815283516060820152600060208501516156c7608084018215159052565b50604085015160a0830152606085015160c083015260808501516001600160a01b03811660e08401525060a0850151610280610100818186015261570f6102e0860184614a93565b925060c0880151610120818188015260e08a015191507fffffffffffffffffffffffffffffffffffffffffffffffffffffffffffffffa06101408189880301818a015261575c8785614a93565b9650848c01519450610160935084848a0152828c01519450610180925084838a0152808c01519450506101a08189880301818a015261579b8786614a93565b9650838c015194506101c093508189880301848a01526157bb8786614a93565b9650828c015194506101e0925084838a0152808c01519450506102008189880301818a01526157ea8786614a93565b9650838c0151945061022093508189880301848a015261580a8786614a93565b9650828c01519450610240925061582b838a01866001600160a01b03169052565b8b01519350610260615847898201866001600160a01b03169052565b838c015194508189880301868a015261586087866155eb565b9650828c0151955081898803016102a08a015261587d8787615614565b9650808c015195505080888703016102c08901525050505061589f8282614a93565b925050506158b860208301856001600160a01b03169052565b6001600160a01b0383166040830152613e1b565b600080604083850312156158df57600080fd5b825167ffffffffffffffff8111156158f657600080fd5b615902858286016153d5565b925050602083015161591381614d54565b809150509250929050565b7f7375626a65637420213d2000000000000000000000000000000000000000000081526000825161595681600b850160208701614a6f565b91909101600b0192915050565b60006101208083526159778184018d614a93565b90508a60208401528960408401528281036060840152615997818a614a93565b90508760808401528660a084015285151560c08401528460e08401528281036101008401526159c68185614a93565b9c9b505050505050505050505050565b60006001600160a01b03808916835280881660208401525085604083015260a06060830152615a0960a0830185876152cc565b90508215156080830152979650505050505050565b60208082528181018390526000906040600585901b8401810190840186845b87811015615ae8577fffffffffffffffffffffffffffffffffffffffffffffffffffffffffffffffc087850301835281357fffffffffffffffffffffffffffffffffffffffffffffffffffffffffffffffe18a3603018112615a9e57600080fd5b8901858101903567ffffffffffffffff811115615aba57600080fd5b803603821315615ac957600080fd5b615ad48682846152cc565b955050509184019190840190600101615a3d565b5091979650505050505050565b6001600160a01b0384168152826020820152606060408201526000615b1d6060830184614a93565b95945050505050565b600060033d11156117b85760046000803e5060005160e01c90565b600060443d1015615b4f5790565b6040517ffffffffffffffffffffffffffffffffffffffffffffffffffffffffffffffffc803d016004833e81513d67ffffffffffffffff8160248401118184111715615b9d57505050505090565b8285019150815181811115615bb55750505050505090565b843d8701016020828501011115615bcf5750505050505090565b615bde60208286010187614bfd565b509095945050505050565b600080600060608486031215615bfe57600080fd5b8351615c0981614942565b60208501516040860151919450925067ffffffffffffffff811115615c2d57600080fd5b8401601f81018613615c3e57600080fd5b615c4d86825160208401615391565b9150509250925092565b60006001600160a01b03808616835260606020840152615c7a6060840186614a93565b9150808416604084015250949350505050565b6001600160a01b0383168152604060208201526000613e1b6040830184614a93565b600060208284031215615cc157600080fd5b815167ffffffffffffffff80821115615cd957600080fd5b818401915084601f830112615ced57600080fd5b8151615cf881614dc5565b604051615d058282614bfd565b80915082815260208101915060208360051b860101925087831115615d2957600080fd5b602085015b83811015615de357805185811115615d4557600080fd5b8601603f81018a13615d5657600080fd5b6020810151615d6481614dc5565b604051615d718282614bfd565b82815260059290921b8301604001916020810191508c831115615d9357600080fd5b604084015b83811015615dcd5780518a811115615daf57600080fd5b615dbe8f6040838901016153d5565b84525060209283019201615d98565b5086525050602093840193919091019050615d2e565b50979650505050505050565b60008060408385031215615e0257600080fd5b82519150602083015167ffffffffffffffff811115615e2057600080fd5b614d1e858286016153d5565b600060ff821660ff8103615e4257615e426151b9565b60010192915050565b600060c0820160ff89168352602060c0602085015281895180845260e08601915060e08160051b870101935060208b0160005b82811015615eca577fffffffffffffffffffffffffffffffffffffffffffffffffffffffffffffff20888703018452615eb8868351614a93565b95509284019290840190600101615e7e565b505050506001600160a01b0397881660408501525094151560608301525091909316608082015260a0019190915292915050565b60008251615f10818460208701614a6f565b919091019291505056fe65727220657865637574696e67207472616e736665724f776e657273686970206f6e2077616c6c6574416464726573733a206c6f772d6c6576656c2064656c65676174652063616c6c206661696c6564a264697066735822122056d48e3f14b7f3316d4df279a9d292743593ca51580975f45730f1be9bf3a62a64736f6c63430008170033","linkReferences":{"src/libraries/SubjectUtils.sol":{"SubjectUtils":[{"start":9062,"length":20}]}}},"methodIdentifiers":{"accountHandler()":"33ddfb9a","depositTokenAsExtension(address,uint256)":"75af3217","emailNullifiers(bytes32)":"17ace6b5","emailValidityDuration()":"b90d36f9","executeAsExtension(address,bytes)":"21d71c8f","extensionHandler()":"9f6d1d83","handleEmailOp((bytes32,bool,bytes32,uint256,address,string,bytes32,string,bytes32,uint256,string,string,uint256,bytes,string,address,address,(string,uint256),(uint8,bytes[]),bytes))":"1377df44","initialize(address,address,address,address,address,address,address,address,uint256,uint256,uint256,uint256)":"009d93ca","initializeExtension(bytes[])":"fea1c89b","maxFeePerGas()":"2728bf2c","owner()":"8da5cb5b","priceOracle()":"2630c12f","proxiableUUID()":"52d1902d","registerUnclaimedStateAsExtension(address,bytes)":"c9af3f1c","relayerHandler()":"5e5f2610","renounceOwnership()":"715018a6","requestTokenAsExtension(address,uint256)":"65a345ac","tokenRegistry()":"9d23c4c7","transferOwnership(address)":"f2fde38b","unclaimedFundClaimGas()":"66221734","unclaimedStateClaimGas()":"a87fedae","unclaimsHandler()":"d5e5c1c8","upgradeTo(address)":"3659cfe6","upgradeToAndCall(address,bytes)":"4f1ef286","validateEmailOp((bytes32,bool,bytes32,uint256,address,string,bytes32,string,bytes32,uint256,string,string,uint256,bytes,string,address,address,(string,uint256),(uint8,bytes[]),bytes))":"a3964475","verifier()":"2b7ac3f3","wethContract()":"4780eac1"},"storageLayout":{"storage":[{"astId":138,"contract":"src/EmailWalletCore.sol:EmailWalletCore","label":"_initialized","offset":0,"slot":"0","type":"t_uint8"},{"astId":141,"contract":"src/EmailWalletCore.sol:EmailWalletCore","label":"_initializing","offset":1,"slot":"0","type":"t_bool"},{"astId":68175,"contract":"src/EmailWalletCore.sol:EmailWalletCore","label":"__gap","offset":0,"slot":"1","type":"t_array(t_uint256)50_storage"},{"astId":10,"contract":"src/EmailWalletCore.sol:EmailWalletCore","label":"_owner","offset":0,"slot":"51","type":"t_address"},{"astId":130,"contract":"src/EmailWalletCore.sol:EmailWalletCore","label":"__gap","offset":0,"slot":"52","type":"t_array(t_uint256)49_storage"},{"astId":57446,"contract":"src/EmailWalletCore.sol:EmailWalletCore","label":"verifier","offset":0,"slot":"101","type":"t_contract(IVerifier)63906"},{"astId":57449,"contract":"src/EmailWalletCore.sol:EmailWalletCore","label":"relayerHandler","offset":0,"slot":"102","type":"t_contract(RelayerHandler)62136"},{"astId":57452,"contract":"src/EmailWalletCore.sol:EmailWalletCore","label":"accountHandler","offset":0,"slot":"103","type":"t_contract(AccountHandler)61344"},{"astId":57455,"contract":"src/EmailWalletCore.sol:EmailWalletCore","label":"unclaimsHandler","offset":0,"slot":"104","type":"t_contract(UnclaimsHandler)63562"},{"astId":57458,"contract":"src/EmailWalletCore.sol:EmailWalletCore","label":"extensionHandler","offset":0,"slot":"105","type":"t_contract(ExtensionHandler)61933"},{"astId":57461,"contract":"src/EmailWalletCore.sol:EmailWalletCore","label":"tokenRegistry","offset":0,"slot":"106","type":"t_contract(TokenRegistry)66112"},{"astId":57464,"contract":"src/EmailWalletCore.sol:EmailWalletCore","label":"priceOracle","offset":0,"slot":"107","type":"t_contract(IPriceOracle)63831"},{"astId":57466,"contract":"src/EmailWalletCore.sol:EmailWalletCore","label":"wethContract","offset":0,"slot":"108","type":"t_address"},{"astId":57468,"contract":"src/EmailWalletCore.sol:EmailWalletCore","label":"maxFeePerGas","offset":0,"slot":"109","type":"t_uint256"},{"astId":57470,"contract":"src/EmailWalletCore.sol:EmailWalletCore","label":"emailValidityDuration","offset":0,"slot":"110","type":"t_uint256"},{"astId":57472,"contract":"src/EmailWalletCore.sol:EmailWalletCore","label":"unclaimedFundClaimGas","offset":0,"slot":"111","type":"t_uint256"},{"astId":57474,"contract":"src/EmailWalletCore.sol:EmailWalletCore","label":"unclaimedStateClaimGas","offset":0,"slot":"112","type":"t_uint256"},{"astId":57478,"contract":"src/EmailWalletCore.sol:EmailWalletCore","label":"emailNullifiers","offset":0,"slot":"113","type":"t_mapping(t_bytes32,t_bool)"},{"astId":57481,"contract":"src/EmailWalletCore.sol:EmailWalletCore","label":"currContext","offset":0,"slot":"114","type":"t_struct(ExecutionContext)64033_storage"}],"types":{"t_address":{"encoding":"inplace","label":"address","numberOfBytes":"20"},"t_array(t_struct(TokenAllowance)64016_storage)dyn_storage":{"encoding":"dynamic_array","label":"struct TokenAllowance[]","numberOfBytes":"32","base":"t_struct(TokenAllowance)64016_storage"},"t_array(t_uint256)49_storage":{"encoding":"inplace","label":"uint256[49]","numberOfBytes":"1568","base":"t_uint256"},"t_array(t_uint256)50_storage":{"encoding":"inplace","label":"uint256[50]","numberOfBytes":"1600","base":"t_uint256"},"t_bool":{"encoding":"inplace","label":"bool","numberOfBytes":"1"},"t_bytes32":{"encoding":"inplace","label":"bytes32","numberOfBytes":"32"},"t_contract(AccountHandler)61344":{"encoding":"inplace","label":"contract AccountHandler","numberOfBytes":"20"},"t_contract(ExtensionHandler)61933":{"encoding":"inplace","label":"contract ExtensionHandler","numberOfBytes":"20"},"t_contract(IPriceOracle)63831":{"encoding":"inplace","label":"contract IPriceOracle","numberOfBytes":"20"},"t_contract(IVerifier)63906":{"encoding":"inplace","label":"contract IVerifier","numberOfBytes":"20"},"t_contract(RelayerHandler)62136":{"encoding":"inplace","label":"contract RelayerHandler","numberOfBytes":"20"},"t_contract(TokenRegistry)66112":{"encoding":"inplace","label":"contract TokenRegistry","numberOfBytes":"20"},"t_contract(UnclaimsHandler)63562":{"encoding":"inplace","label":"contract UnclaimsHandler","numberOfBytes":"20"},"t_mapping(t_bytes32,t_bool)":{"encoding":"mapping","key":"t_bytes32","label":"mapping(bytes32 => bool)","numberOfBytes":"32","value":"t_bool"},"t_struct(ExecutionContext)64033_storage":{"encoding":"inplace","label":"struct ExecutionContext","numberOfBytes":"160","members":[{"astId":64018,"contract":"src/EmailWalletCore.sol:EmailWalletCore","label":"walletAddr","offset":0,"slot":"0","type":"t_address"},{"astId":64020,"contract":"src/EmailWalletCore.sol:EmailWalletCore","label":"extensionAddr","offset":0,"slot":"1","type":"t_address"},{"astId":64022,"contract":"src/EmailWalletCore.sol:EmailWalletCore","label":"unclaimedFundRegistered","offset":20,"slot":"1","type":"t_bool"},{"astId":64024,"contract":"src/EmailWalletCore.sol:EmailWalletCore","label":"unclaimedStateRegistered","offset":21,"slot":"1","type":"t_bool"},{"astId":64026,"contract":"src/EmailWalletCore.sol:EmailWalletCore","label":"registeredUnclaimId","offset":0,"slot":"2","type":"t_uint256"},{"astId":64028,"contract":"src/EmailWalletCore.sol:EmailWalletCore","label":"recipientEmailAddrCommit","offset":0,"slot":"3","type":"t_bytes32"},{"astId":64032,"contract":"src/EmailWalletCore.sol:EmailWalletCore","label":"tokenAllowances","offset":0,"slot":"4","type":"t_array(t_struct(TokenAllowance)64016_storage)dyn_storage"}]},"t_struct(TokenAllowance)64016_storage":{"encoding":"inplace","label":"struct TokenAllowance","numberOfBytes":"64","members":[{"astId":64013,"contract":"src/EmailWalletCore.sol:EmailWalletCore","label":"tokenAddr","offset":0,"slot":"0","type":"t_address"},{"astId":64015,"contract":"src/EmailWalletCore.sol:EmailWalletCore","label":"amount","offset":0,"slot":"1","type":"t_uint256"}]},"t_uint256":{"encoding":"inplace","label":"uint256","numberOfBytes":"32"},"t_uint8":{"encoding":"inplace","label":"uint8","numberOfBytes":"1"}}},"id":118}