{
  "abi": [
    {
      "inputs": [],
      "stateMutability": "nonpayable",
      "type": "constructor"
    },
    {
      "anonymous": false,
      "inputs": [
        {
          "indexed": false,
          "internalType": "address",
          "name": "previousAdmin",
          "type": "address"
        },
        {
          "indexed": false,
          "internalType": "address",
          "name": "newAdmin",
          "type": "address"
        }
      ],
      "name": "AdminChanged",
      "type": "event"
    },
    {
      "anonymous": false,
      "inputs": [
        {
          "indexed": true,
          "internalType": "address",
          "name": "beacon",
          "type": "address"
        }
      ],
      "name": "BeaconUpgraded",
      "type": "event"
    },
    {
      "anonymous": false,
      "inputs": [
        {
          "indexed": true,
          "internalType": "bool",
          "name": "success",
          "type": "bool"
        },
        {
          "indexed": true,
          "internalType": "uint256",
          "name": "registeredUnclaimId",
          "type": "uint256"
        },
        {
          "indexed": true,
          "internalType": "bytes32",
          "name": "emailNullifier",
          "type": "bytes32"
        },
        {
          "indexed": false,
          "internalType": "bytes32",
          "name": "walletSalt",
          "type": "bytes32"
        },
        {
          "indexed": false,
          "internalType": "bytes32",
          "name": "recipientEmailAddrCommit",
          "type": "bytes32"
        },
        {
          "indexed": false,
          "internalType": "address",
          "name": "recipientETHAddr",
          "type": "address"
        },
        {
          "indexed": false,
          "internalType": "bytes",
          "name": "err",
          "type": "bytes"
        }
      ],
      "name": "EmailOpHandled",
      "type": "event"
    },
    {
      "anonymous": false,
      "inputs": [
        {
          "indexed": false,
          "internalType": "uint8",
          "name": "version",
          "type": "uint8"
        }
      ],
      "name": "Initialized",
      "type": "event"
    },
    {
      "anonymous": false,
      "inputs": [
        {
          "indexed": true,
          "internalType": "address",
          "name": "previousOwner",
          "type": "address"
        },
        {
          "indexed": true,
          "internalType": "address",
          "name": "newOwner",
          "type": "address"
        }
      ],
      "name": "OwnershipTransferred",
      "type": "event"
    },
    {
      "anonymous": false,
      "inputs": [
        {
          "indexed": true,
          "internalType": "address",
          "name": "implementation",
          "type": "address"
        }
      ],
      "name": "Upgraded",
      "type": "event"
    },
    {
      "stateMutability": "payable",
      "type": "fallback"
    },
    {
      "inputs": [],
      "name": "accountHandler",
      "outputs": [
        {
          "internalType": "contract AccountHandler",
          "name": "",
          "type": "address"
        }
      ],
      "stateMutability": "view",
      "type": "function"
    },
    {
      "inputs": [
        {
          "internalType": "address",
          "name": "tokenAddr",
          "type": "address"
        },
        {
          "internalType": "uint256",
          "name": "amount",
          "type": "uint256"
        }
      ],
      "name": "depositTokenAsExtension",
      "outputs": [],
      "stateMutability": "nonpayable",
      "type": "function"
    },
    {
      "inputs": [
        {
          "internalType": "bytes32",
          "name": "",
          "type": "bytes32"
        }
      ],
      "name": "emailNullifiers",
      "outputs": [
        {
          "internalType": "bool",
          "name": "",
          "type": "bool"
        }
      ],
      "stateMutability": "view",
      "type": "function"
    },
    {
      "inputs": [],
      "name": "emailValidityDuration",
      "outputs": [
        {
          "internalType": "uint256",
          "name": "",
          "type": "uint256"
        }
      ],
      "stateMutability": "view",
      "type": "function"
    },
    {
      "inputs": [
        {
          "internalType": "address",
          "name": "target",
          "type": "address"
        },
        {
          "internalType": "bytes",
          "name": "data",
          "type": "bytes"
        }
      ],
      "name": "executeAsExtension",
      "outputs": [],
      "stateMutability": "nonpayable",
      "type": "function"
    },
    {
      "inputs": [],
      "name": "extensionHandler",
      "outputs": [
        {
          "internalType": "contract ExtensionHandler",
          "name": "",
          "type": "address"
        }
      ],
      "stateMutability": "view",
      "type": "function"
    },
    {
      "inputs": [
        {
          "components": [
            {
              "internalType": "bytes32",
              "name": "walletSalt",
              "type": "bytes32"
            },
            {
              "internalType": "string",
              "name": "command",
              "type": "string"
            },
            {
              "internalType": "bytes32",
              "name": "emailNullifier",
              "type": "bytes32"
            },
            {
              "internalType": "string",
              "name": "emailDomain",
              "type": "string"
            },
            {
              "internalType": "bytes32",
              "name": "dkimPublicKeyHash",
              "type": "bytes32"
            },
            {
              "internalType": "string",
              "name": "maskedSubject",
              "type": "string"
            },
            {
              "internalType": "uint256",
              "name": "timestamp",
              "type": "uint256"
            },
            {
              "internalType": "bool",
              "name": "hasEmailRecipient",
              "type": "bool"
            },
            {
              "internalType": "bytes32",
              "name": "recipientEmailAddrCommit",
              "type": "bytes32"
            },
            {
              "internalType": "uint256",
              "name": "numRecipientEmailAddrBytes",
              "type": "uint256"
            },
            {
              "internalType": "address",
              "name": "recipientETHAddr",
              "type": "address"
            },
            {
              "internalType": "string",
              "name": "feeTokenName",
              "type": "string"
            },
            {
              "internalType": "uint256",
              "name": "feePerGas",
              "type": "uint256"
            },
            {
              "internalType": "bytes",
              "name": "executeCallData",
              "type": "bytes"
            },
            {
              "internalType": "string",
              "name": "extensionName",
              "type": "string"
            },
            {
              "internalType": "address",
              "name": "newWalletOwner",
              "type": "address"
            },
            {
              "internalType": "address",
              "name": "newDkimRegistry",
              "type": "address"
            },
            {
              "components": [
                {
                  "internalType": "string",
                  "name": "tokenName",
                  "type": "string"
                },
                {
                  "internalType": "uint256",
                  "name": "amount",
                  "type": "uint256"
                }
              ],
              "internalType": "struct WalletParams",
              "name": "walletParams",
              "type": "tuple"
            },
            {
              "components": [
                {
                  "internalType": "uint8",
                  "name": "subjectTemplateIndex",
                  "type": "uint8"
                },
                {
                  "internalType": "bytes[]",
                  "name": "subjectParams",
                  "type": "bytes[]"
                }
              ],
              "internalType": "struct ExtensionParams",
              "name": "extensionParams",
              "type": "tuple"
            },
            {
              "internalType": "bytes",
              "name": "emailProof",
              "type": "bytes"
            }
          ],
          "internalType": "struct EmailOp",
          "name": "emailOp",
          "type": "tuple"
        }
      ],
      "name": "handleEmailOp",
      "outputs": [
        {
          "internalType": "bool",
          "name": "success",
          "type": "bool"
        },
        {
          "internalType": "bytes",
          "name": "err",
          "type": "bytes"
        },
        {
          "internalType": "uint256",
          "name": "totalFeeInETH",
          "type": "uint256"
        },
        {
          "internalType": "uint256",
          "name": "registeredUnclaimId",
          "type": "uint256"
        }
      ],
      "stateMutability": "payable",
      "type": "function"
    },
    {
      "inputs": [
        {
          "internalType": "address",
          "name": "_relayerHandler",
          "type": "address"
        },
        {
          "internalType": "address",
          "name": "_accountHandler",
          "type": "address"
        },
        {
          "internalType": "address",
          "name": "_unclaimsHandler",
          "type": "address"
        },
        {
          "internalType": "address",
          "name": "_extensionHandler",
          "type": "address"
        },
        {
          "internalType": "address",
          "name": "_verifier",
          "type": "address"
        },
        {
          "internalType": "address",
          "name": "_tokenRegistry",
          "type": "address"
        },
        {
          "internalType": "address",
          "name": "_priceOracle",
          "type": "address"
        },
        {
          "internalType": "address",
          "name": "_wethContract",
          "type": "address"
        },
        {
          "internalType": "uint256",
          "name": "_maxFeePerGas",
          "type": "uint256"
        },
        {
          "internalType": "uint256",
          "name": "_emailValidityDuration",
          "type": "uint256"
        },
        {
          "internalType": "uint256",
          "name": "_unclaimedFundClaimGas",
          "type": "uint256"
        },
        {
          "internalType": "uint256",
          "name": "_unclaimedStateClaimGas",
          "type": "uint256"
        }
      ],
      "name": "initialize",
      "outputs": [],
      "stateMutability": "nonpayable",
      "type": "function"
    },
    {
      "inputs": [
        {
          "internalType": "bytes[]",
          "name": "defaultExtensions",
          "type": "bytes[]"
        }
      ],
      "name": "initializeExtension",
      "outputs": [],
      "stateMutability": "nonpayable",
      "type": "function"
    },
    {
      "inputs": [],
      "name": "maxFeePerGas",
      "outputs": [
        {
          "internalType": "uint256",
          "name": "",
          "type": "uint256"
        }
      ],
      "stateMutability": "view",
      "type": "function"
    },
    {
      "inputs": [],
      "name": "owner",
      "outputs": [
        {
          "internalType": "address",
          "name": "",
          "type": "address"
        }
      ],
      "stateMutability": "view",
      "type": "function"
    },
    {
      "inputs": [],
      "name": "priceOracle",
      "outputs": [
        {
          "internalType": "contract IPriceOracle",
          "name": "",
          "type": "address"
        }
      ],
      "stateMutability": "view",
      "type": "function"
    },
    {
      "inputs": [],
      "name": "proxiableUUID",
      "outputs": [
        {
          "internalType": "bytes32",
          "name": "",
          "type": "bytes32"
        }
      ],
      "stateMutability": "view",
      "type": "function"
    },
    {
      "inputs": [
        {
          "internalType": "address",
          "name": "extensionAddr",
          "type": "address"
        },
        {
          "internalType": "bytes",
          "name": "state",
          "type": "bytes"
        }
      ],
      "name": "registerUnclaimedStateAsExtension",
      "outputs": [],
      "stateMutability": "nonpayable",
      "type": "function"
    },
    {
      "inputs": [],
      "name": "relayerHandler",
      "outputs": [
        {
          "internalType": "contract RelayerHandler",
          "name": "",
          "type": "address"
        }
      ],
      "stateMutability": "view",
      "type": "function"
    },
    {
      "inputs": [],
      "name": "renounceOwnership",
      "outputs": [],
      "stateMutability": "nonpayable",
      "type": "function"
    },
    {
      "inputs": [
        {
          "internalType": "address",
          "name": "tokenAddr",
          "type": "address"
        },
        {
          "internalType": "uint256",
          "name": "amount",
          "type": "uint256"
        }
      ],
      "name": "requestTokenAsExtension",
      "outputs": [],
      "stateMutability": "nonpayable",
      "type": "function"
    },
    {
      "inputs": [],
      "name": "tokenRegistry",
      "outputs": [
        {
          "internalType": "contract TokenRegistry",
          "name": "",
          "type": "address"
        }
      ],
      "stateMutability": "view",
      "type": "function"
    },
    {
      "inputs": [
        {
          "internalType": "address",
          "name": "newOwner",
          "type": "address"
        }
      ],
      "name": "transferOwnership",
      "outputs": [],
      "stateMutability": "nonpayable",
      "type": "function"
    },
    {
      "inputs": [],
      "name": "unclaimedFundClaimGas",
      "outputs": [
        {
          "internalType": "uint256",
          "name": "",
          "type": "uint256"
        }
      ],
      "stateMutability": "view",
      "type": "function"
    },
    {
      "inputs": [],
      "name": "unclaimedStateClaimGas",
      "outputs": [
        {
          "internalType": "uint256",
          "name": "",
          "type": "uint256"
        }
      ],
      "stateMutability": "view",
      "type": "function"
    },
    {
      "inputs": [],
      "name": "unclaimsHandler",
      "outputs": [
        {
          "internalType": "contract UnclaimsHandler",
          "name": "",
          "type": "address"
        }
      ],
      "stateMutability": "view",
      "type": "function"
    },
    {
      "inputs": [
        {
          "internalType": "address",
          "name": "newImplementation",
          "type": "address"
        }
      ],
      "name": "upgradeTo",
      "outputs": [],
      "stateMutability": "nonpayable",
      "type": "function"
    },
    {
      "inputs": [
        {
          "internalType": "address",
          "name": "newImplementation",
          "type": "address"
        },
        {
          "internalType": "bytes",
          "name": "data",
          "type": "bytes"
        }
      ],
      "name": "upgradeToAndCall",
      "outputs": [],
      "stateMutability": "payable",
      "type": "function"
    },
    {
      "inputs": [
        {
          "components": [
            {
              "internalType": "bytes32",
              "name": "walletSalt",
              "type": "bytes32"
            },
            {
              "internalType": "string",
              "name": "command",
              "type": "string"
            },
            {
              "internalType": "bytes32",
              "name": "emailNullifier",
              "type": "bytes32"
            },
            {
              "internalType": "string",
              "name": "emailDomain",
              "type": "string"
            },
            {
              "internalType": "bytes32",
              "name": "dkimPublicKeyHash",
              "type": "bytes32"
            },
            {
              "internalType": "string",
              "name": "maskedSubject",
              "type": "string"
            },
            {
              "internalType": "uint256",
              "name": "timestamp",
              "type": "uint256"
            },
            {
              "internalType": "bool",
              "name": "hasEmailRecipient",
              "type": "bool"
            },
            {
              "internalType": "bytes32",
              "name": "recipientEmailAddrCommit",
              "type": "bytes32"
            },
            {
              "internalType": "uint256",
              "name": "numRecipientEmailAddrBytes",
              "type": "uint256"
            },
            {
              "internalType": "address",
              "name": "recipientETHAddr",
              "type": "address"
            },
            {
              "internalType": "string",
              "name": "feeTokenName",
              "type": "string"
            },
            {
              "internalType": "uint256",
              "name": "feePerGas",
              "type": "uint256"
            },
            {
              "internalType": "bytes",
              "name": "executeCallData",
              "type": "bytes"
            },
            {
              "internalType": "string",
              "name": "extensionName",
              "type": "string"
            },
            {
              "internalType": "address",
              "name": "newWalletOwner",
              "type": "address"
            },
            {
              "internalType": "address",
              "name": "newDkimRegistry",
              "type": "address"
            },
            {
              "components": [
                {
                  "internalType": "string",
                  "name": "tokenName",
                  "type": "string"
                },
                {
                  "internalType": "uint256",
                  "name": "amount",
                  "type": "uint256"
                }
              ],
              "internalType": "struct WalletParams",
              "name": "walletParams",
              "type": "tuple"
            },
            {
              "components": [
                {
                  "internalType": "uint8",
                  "name": "subjectTemplateIndex",
                  "type": "uint8"
                },
                {
                  "internalType": "bytes[]",
                  "name": "subjectParams",
                  "type": "bytes[]"
                }
              ],
              "internalType": "struct ExtensionParams",
              "name": "extensionParams",
              "type": "tuple"
            },
            {
              "internalType": "bytes",
              "name": "emailProof",
              "type": "bytes"
            }
          ],
          "internalType": "struct EmailOp",
          "name": "emailOp",
          "type": "tuple"
        }
      ],
      "name": "validateEmailOp",
      "outputs": [],
      "stateMutability": "view",
      "type": "function"
    },
    {
      "inputs": [],
      "name": "verifier",
      "outputs": [
        {
          "internalType": "contract IVerifier",
          "name": "",
          "type": "address"
        }
      ],
      "stateMutability": "view",
      "type": "function"
    },
    {
      "inputs": [],
      "name": "wethContract",
      "outputs": [
        {
          "internalType": "address",
          "name": "",
          "type": "address"
        }
      ],
      "stateMutability": "view",
      "type": "function"
    },
    {
      "stateMutability": "payable",
      "type": "receive"
    }
  ],
  "bytecode": {
    "object": "0x60a0604052306080523480156200001557600080fd5b506200002062000026565b620000e7565b600054610100900460ff1615620000935760405162461bcd60e51b815260206004820152602760248201527f496e697469616c697a61626c653a20636f6e747261637420697320696e697469604482015266616c697a696e6760c81b606482015260840160405180910390fd5b60005460ff90811614620000e5576000805460ff191660ff9081179091556040519081527f7f26b83ff96e1f2b6a682f133852f6798a09c465da95921460cefb38474024989060200160405180910390a15b565b608051615e3e6200011f60003960008181610c5301528181610ce901528181610df001528181610e860152610f810152615e3e6000f3fe6080604052600436106101af5760003560e01c806366221734116100ec578063a87fedae1161008a578063d5e5c1c811610064578063d5e5c1c8146104a4578063dd0c2927146104c4578063f2fde38b146104e4578063fea1c89b14610504576101b9565b8063a87fedae14610458578063b90d36f91461046e578063c9af3f1c14610484576101b9565b806375af3217116100c657806375af3217146103da5780638da5cb5b146103fa5780639d23c4c7146104185780639f6d1d8314610438576101b9565b8063662217341461038c5780636cb28745146103a2578063715018a6146103c5576101b9565b806333ddfb9a116101595780634f1ef286116101335780634f1ef2861461032457806352d1902d146103375780635e5f26101461034c57806365a345ac1461036c576101b9565b806333ddfb9a146102c45780633659cfe6146102e45780634780eac114610304576101b9565b80632630c12f1161018a5780632630c12f146102485780632728bf2c146102805780632b7ac3f3146102a4576101b9565b80629d93ca146101c357806317ace6b5146101e357806321d71c8f14610228576101b9565b366101b957600080fd5b6101c1610524565b005b3480156101cf57600080fd5b506101c16101de36600461481d565b610616565b3480156101ef57600080fd5b506102136101fe3660046148e9565b60716020526000908152604090205460ff1681565b60405190151581526020015b60405180910390f35b34801561023457600080fd5b506101c1610243366004614902565b6108f3565b34801561025457600080fd5b50606b54610268906001600160a01b031681565b6040516001600160a01b03909116815260200161021f565b34801561028c57600080fd5b50610296606d5481565b60405190815260200161021f565b3480156102b057600080fd5b50606554610268906001600160a01b031681565b3480156102d057600080fd5b50606754610268906001600160a01b031681565b3480156102f057600080fd5b506101c16102ff366004614987565b610c49565b34801561031057600080fd5b50606c54610268906001600160a01b031681565b6101c1610332366004614ad4565b610de6565b34801561034357600080fd5b50610296610f74565b34801561035857600080fd5b50606654610268906001600160a01b031681565b34801561037857600080fd5b506101c1610387366004614b24565b61103a565b34801561039857600080fd5b50610296606f5481565b6103b56103b0366004614b50565b61125c565b60405161021f9493929190614bdc565b3480156103d157600080fd5b506101c16119da565b3480156103e657600080fd5b506101c16103f5366004614b24565b6119ee565b34801561040657600080fd5b506033546001600160a01b0316610268565b34801561042457600080fd5b50606a54610268906001600160a01b031681565b34801561044457600080fd5b50606954610268906001600160a01b031681565b34801561046457600080fd5b5061029660705481565b34801561047a57600080fd5b50610296606e5481565b34801561049057600080fd5b506101c161049f366004614902565b611a64565b3480156104b057600080fd5b50606854610268906001600160a01b031681565b3480156104d057600080fd5b506101c16104df366004614f9d565b611cee565b3480156104f057600080fd5b506101c16104ff366004614987565b61257e565b34801561051057600080fd5b506101c161051f366004614fd2565b61260b565b3661052d573636f35b6000805b8036821061053f57506105f5565b81357ffffffffffffffffffffffffffffffffffffffffffffffffffffffffffffffffc83011860001a60018084019350816105e5577fffffffffffffffffffffffffffffffffffffffffffffffffffffffffffffffff85526002830193357ffffffffffffffffffffffffffffffffffffffffffffffffffffffffffffffffd84011860001a607f8082116105d4578282013888395b169490940190930192506105319050565b8185538085019450505050610531565b50600080826000305af490503d6000803e80610610573d6000fd5b503d6000f35b600054610100900460ff16158080156106365750600054600160ff909116105b806106505750303b158015610650575060005460ff166001145b6106c75760405162461bcd60e51b815260206004820152602e60248201527f496e697469616c697a61626c653a20636f6e747261637420697320616c72656160448201527f647920696e697469616c697a656400000000000000000000000000000000000060648201526084015b60405180910390fd5b600080547fffffffffffffffffffffffffffffffffffffffffffffffffffffffffffffff00166001179055801561072557600080547fffffffffffffffffffffffffffffffffffffffffffffffffffffffffffff00ff166101001790555b61072d612684565b8c606660006101000a8154816001600160a01b0302191690836001600160a01b031602179055508b606760006101000a8154816001600160a01b0302191690836001600160a01b031602179055508a606860006101000a8154816001600160a01b0302191690836001600160a01b0316021790555089606960006101000a8154816001600160a01b0302191690836001600160a01b0316021790555088606560006101000a8154816001600160a01b0302191690836001600160a01b0316021790555087606a60006101000a8154816001600160a01b0302191690836001600160a01b0316021790555086606b60006101000a8154816001600160a01b0302191690836001600160a01b0316021790555085606c60006101000a8154816001600160a01b0302191690836001600160a01b0316021790555084606d8190555083606e8190555082606f819055508160708190555080156108e457600080547fffffffffffffffffffffffffffffffffffffffffffffffffffffffffffff00ff169055604051600181527f7f26b83ff96e1f2b6a682f133852f6798a09c465da95921460cefb38474024989060200160405180910390a15b50505050505050505050505050565b6073546001600160a01b0316331461094d5760405162461bcd60e51b815260206004820152601f60248201527f63616c6c6572206e6f7420657874656e73696f6e20696e20636f6e746578740060448201526064016106be565b6001600160a01b038316301480159061097457506068546001600160a01b03848116911614155b801561098e57506067546001600160a01b03848116911614155b80156109a857506066546001600160a01b03848116911614155b80156109c257506069546001600160a01b03848116911614155b610a345760405162461bcd60e51b815260206004820152602160248201527f7461726765742063616e6e6f7420626520636f7265206f722068616e646c657260448201527f730000000000000000000000000000000000000000000000000000000000000060648201526084016106be565b6001600160a01b0383163b610a8b5760405162461bcd60e51b815260206004820152601860248201527f746172676574206973206e6f74206120636f6e7472616374000000000000000060448201526064016106be565b6072546001600160a01b0390811690841603610ae95760405162461bcd60e51b815260206004820152601760248201527f7461726765742063616e6e6f742062652077616c6c657400000000000000000060448201526064016106be565b606a546040517fb399de4e0000000000000000000000000000000000000000000000000000000081526001600160a01b0385811660048301529091169063b399de4e90602401600060405180830381865afa158015610b4c573d6000803e3d6000fd5b505050506040513d6000823e601f3d908101601f19168201604052610b7491908101906150ab565b5115610bc25760405162461bcd60e51b815260206004820152601860248201527f7461726765742063616e6e6f74206265206120746f6b656e000000000000000060448201526064016106be565b6072546040517fb61d27f60000000000000000000000000000000000000000000000000000000081526001600160a01b039091169063b61d27f690610c129086906000908790879060040161510b565b600060405180830381600087803b158015610c2c57600080fd5b505af1158015610c40573d6000803e3d6000fd5b50505050505050565b6001600160a01b037f0000000000000000000000000000000000000000000000000000000000000000163003610ce75760405162461bcd60e51b815260206004820152602c60248201527f46756e6374696f6e206d7573742062652063616c6c6564207468726f7567682060448201527f64656c656761746563616c6c000000000000000000000000000000000000000060648201526084016106be565b7f00000000000000000000000000000000000000000000000000000000000000006001600160a01b0316610d427f360894a13ba1a3210667c828492db98dca3e2076cc3735a920a3ca505d382bbc546001600160a01b031690565b6001600160a01b031614610dbe5760405162461bcd60e51b815260206004820152602c60248201527f46756e6374696f6e206d7573742062652063616c6c6564207468726f7567682060448201527f6163746976652070726f7879000000000000000000000000000000000000000060648201526084016106be565b610dc781612709565b60408051600080825260208201909252610de391839190612711565b50565b6001600160a01b037f0000000000000000000000000000000000000000000000000000000000000000163003610e845760405162461bcd60e51b815260206004820152602c60248201527f46756e6374696f6e206d7573742062652063616c6c6564207468726f7567682060448201527f64656c656761746563616c6c000000000000000000000000000000000000000060648201526084016106be565b7f00000000000000000000000000000000000000000000000000000000000000006001600160a01b0316610edf7f360894a13ba1a3210667c828492db98dca3e2076cc3735a920a3ca505d382bbc546001600160a01b031690565b6001600160a01b031614610f5b5760405162461bcd60e51b815260206004820152602c60248201527f46756e6374696f6e206d7573742062652063616c6c6564207468726f7567682060448201527f6163746976652070726f7879000000000000000000000000000000000000000060648201526084016106be565b610f6482612709565b610f7082826001612711565b5050565b6000306001600160a01b037f000000000000000000000000000000000000000000000000000000000000000016146110145760405162461bcd60e51b815260206004820152603860248201527f555550535570677261646561626c653a206d757374206e6f742062652063616c60448201527f6c6564207468726f7567682064656c656761746563616c6c000000000000000060648201526084016106be565b507f360894a13ba1a3210667c828492db98dca3e2076cc3735a920a3ca505d382bbc5b90565b6073546001600160a01b031633146110945760405162461bcd60e51b815260206004820152601f60248201527f63616c6c6572206e6f7420657874656e73696f6e20696e20636f6e746578740060448201526064016106be565b60005b60765481101561121357826001600160a01b0316607260040182815481106110c1576110c1615134565b60009182526020909120600290910201546001600160a01b0316036112015781607260040182815481106110f7576110f7615134565b90600052602060002090600202016001015410156111575760405162461bcd60e51b815260206004820152601660248201527f696e73756666696369656e7420616c6c6f77616e63650000000000000000000060448201526064016106be565b816072600401828154811061116e5761116e615134565b9060005260206000209060020201600101600082825461118e9190615192565b909155505060725460735460009182916111b6916001600160a01b03908116911687876128b1565b9150915081816040516020016111cc91906151a5565b604051602081830303815290604052906111f95760405162461bcd60e51b81526004016106be91906151ea565b505050505050565b8061120b816151fd565b915050611097565b5060405162461bcd60e51b815260206004820181905260248201527f6e6f20616c6c6f77616e636520666f722072657175657374656420746f6b656e60448201526064016106be565b607254600090606090829081906001600160a01b0316156112bf5760405162461bcd60e51b815260206004820152601360248201527f636f6e7465787420616c7265616479207365740000000000000000000000000060448201526064016106be565b60005a6101008701356075556067546040517f5664c78e000000000000000000000000000000000000000000000000000000008152883560048201529192506001600160a01b031690635664c78e90602401602060405180830381865afa15801561132e573d6000803e3d6000fd5b505050506040513d601f19601f820116820180604052508101906113529190615235565b607280547fffffffffffffffffffffffff0000000000000000000000000000000000000000166001600160a01b03929092169190911790556113966104df87615252565b604080870135600090815260716020522080547fffffffffffffffffffffffffffffffffffffffffffffffffffffffffffffff001660011790556113e16113dc87615252565b612b71565b607354919650945074010000000000000000000000000000000000000000900460ff16801561142b57506073547501000000000000000000000000000000000000000000900460ff165b1561149e5760405162461bcd60e51b815260206004820152602d60248201527f63616e6e6f7420726567697374657220626f746820756e636c61696d6564206660448201527f756e6420616e642073746174650000000000000000000000000000000000000060648201526084016106be565b60735474010000000000000000000000000000000000000000900460ff16156115b557606d54606f546114d1919061525e565b34146115455760405162461bcd60e51b815260206004820152602560248201527f696e636f7272656374204554482073656e7420666f7220756e636c61696d656460448201527f2066756e6400000000000000000000000000000000000000000000000000000060648201526084016106be565b856101800135606f54611558919061525e565b6115629084615275565b606854606d54606f549295506001600160a01b03909116916108fc916115879161525e565b6040518115909202916000818181858888f193505050501580156115af573d6000803e3d6000fd5b50611769565b6073547501000000000000000000000000000000000000000000900460ff161561169f57606d546070546115e9919061525e565b341461165d5760405162461bcd60e51b815260206004820152602660248201527f696e636f7272656374204554482073656e7420666f7220756e636c61696d656460448201527f207374617465000000000000000000000000000000000000000000000000000060648201526084016106be565b856101800135607054611670919061525e565b61167a9084615275565b606854606d546070549295506001600160a01b03909116916108fc916115879161525e565b6074541561173b5760405162461bcd60e51b815260206004820152604960248201527f72656769737465726564556e636c61696d4964206d757374206265207a65726f60448201527f206966206e6f20756e636c61696d65642066756e642f7374617465206973207260648201527f6567697374657265640000000000000000000000000000000000000000000000608482015260a4016106be565b60405133903480156108fc02916000818181858888f19350505050158015611767573d6000803e3d6000fd5b505b607454915061d6d86000815a61177f9085615192565b6117899190615275565b905061179a6101808901358261525e565b6117a49086615275565b945060006117f36117b96101608b018b615288565b8080601f016020809104026020016040519081016040528093929190818152602001838380828437600092019190915250613edc92505050565b90506000670de0b6b3a764000061180a838961525e565b61181491906152f4565b9050801561190457606a546000906001600160a01b031663c409123661183e6101608e018e615288565b6040518363ffffffff1660e01b815260040161185b92919061532f565b602060405180830381865afa158015611878573d6000803e3d6000fd5b505050506040513d601f19601f8201168201806040525081019061189c9190615235565b60725490915060009081906118bc906001600160a01b03163385876128b1565b9150915081816040516020016118d29190615343565b604051602081830303815290604052906118ff5760405162461bcd60e51b81526004016106be91906151ea565b505050505b607280547fffffffffffffffffffffffff000000000000000000000000000000000000000016905560006075819055607380547fffffffffffffffffffff00000000000000000000000000000000000000000000169055607481905561196c9060769061479a565b8960400135868a15157fb5144465dc165f0fdb939cd27dbf83aac1199241a737482d2fc25624328c7a188d600001358e61010001358f6101400160208101906119b59190614987565b8e6040516119c69493929190615388565b60405180910390a450505050509193509193565b6119e2614140565b6119ec600061419a565b565b6073546001600160a01b03163314611a485760405162461bcd60e51b815260206004820152601f60248201527f63616c6c6572206e6f7420657874656e73696f6e20696e20636f6e746578740060448201526064016106be565b607254610f70906001600160a01b038481169133911684614204565b6069546040517f2f1d7ddc0000000000000000000000000000000000000000000000000000000081526001600160a01b03858116600483015290911690632f1d7ddc90602401602060405180830381865afa158015611ac7573d6000803e3d6000fd5b505050506040513d601f19601f82011682018060405250810190611aeb91906153b6565b600003611b3a5760405162461bcd60e51b815260206004820152601160248201527f696e76616c696420657874656e73696f6e00000000000000000000000000000060448201526064016106be565b6073546001600160a01b03163314611b945760405162461bcd60e51b815260206004820152601460248201527f63616c6c6572206e6f7420657874656e73696f6e00000000000000000000000060448201526064016106be565b6073547501000000000000000000000000000000000000000000900460ff1615611c005760405162461bcd60e51b815260206004820152601660248201527f756e636c61696d6564207374617465206578697374730000000000000000000060448201526064016106be565b6073805475010000000000000000000000000000000000000000007fffffffffffffffffffff00ffffffffffffffffffffffffffffffffffffffffff8216179091556068546072546075546040517fdef27db70000000000000000000000000000000000000000000000000000000081526001600160a01b039384169463def27db794611ca3948a949082169390928a928a9291811690871614906004016153cf565b6020604051808303816000875af1158015611cc2573d6000803e3d6000fd5b505050506040513d601f19601f82011682018060405250810190611ce691906153b6565b607455505050565b6066546040517f5300f8410000000000000000000000000000000000000000000000000000000081523360048201526000916001600160a01b031690635300f84190602401600060405180830381865afa158015611d50573d6000803e3d6000fd5b505050506040513d6000823e601f3d908101601f19168201604052611d789190810190615417565b5090508051600003611dcc5760405162461bcd60e51b815260206004820152601660248201527f72656c61796572206e6f7420726567697374657265640000000000000000000060448201526064016106be565b8151611e1a5760405162461bcd60e51b815260206004820152601360248201527f77616c6c65742073616c74206e6f74207365740000000000000000000000000060448201526064016106be565b816020015151600003611e6f5760405162461bcd60e51b815260206004820152601760248201527f636f6d6d616e642063616e6e6f7420626520656d70747900000000000000000060448201526064016106be565b611e7d826101600151613edc565b600003611ecc5760405162461bcd60e51b815260206004820152601560248201527f756e737570706f727465642066656520746f6b656e000000000000000000000060448201526064016106be565b606d548261018001511115611f235760405162461bcd60e51b815260206004820152601460248201527f666565207065722067617320746f6f206869676800000000000000000000000060448201526064016106be565b60408083015160009081526071602052205460ff1615611f855760405162461bcd60e51b815260206004820152600f60248201527f656d61696c206e756c6c6966696564000000000000000000000000000000000060448201526064016106be565b60675460408084015190517f17ace6b50000000000000000000000000000000000000000000000000000000081526001600160a01b03909216916317ace6b591611fd59160040190815260200190565b602060405180830381865afa158015611ff2573d6000803e3d6000fd5b505050506040513d601f19601f820116820180604052508101906120169190615471565b156120635760405162461bcd60e51b815260206004820152600f60248201527f656d61696c206e756c6c6966696564000000000000000000000000000000000060448201526064016106be565b6067548251606084015160808501516040517fd842484e0000000000000000000000000000000000000000000000000000000081526001600160a01b039094169363d842484e936120ba939092909160040161548e565b602060405180830381865afa1580156120d7573d6000803e3d6000fd5b505050506040513d601f19601f820116820180604052508101906120fb9190615471565b6121475760405162461bcd60e51b815260206004820152601760248201527f696e76616c696420444b494d207075626c6963206b657900000000000000000060448201526064016106be565b60c0820151156121b15742606e548360c001516121649190615275565b116121b15760405162461bcd60e51b815260206004820152600d60248201527f656d61696c20657870697265640000000000000000000000000000000000000060448201526064016106be565b8160e0015115612294576101408201516001600160a01b0316156122175760405162461bcd60e51b815260206004820181905260248201527f63616e6e6f74206861766520626f746820726563697069656e7420747970657360448201526064016106be565b61010082015161228f5760405162461bcd60e51b815260206004820152602260248201527f726563697069656e74456d61696c41646472436f6d6d6974206e6f7420666f7560448201527f6e6400000000000000000000000000000000000000000000000000000000000060648201526084016106be565b61230c565b6101008201511561230c5760405162461bcd60e51b8152602060048201526024808201527f726563697069656e74456d61696c41646472436f6d6d6974206e6f7420616c6c60448201527f6f7765640000000000000000000000000000000000000000000000000000000060648201526084016106be565b60675482516040517f5664c78e00000000000000000000000000000000000000000000000000000000815260009273__$a4c672e1ff4582c439378a74443bfb54da$__926330a2cc129287926001600160a01b031691635664c78e91612379919060040190815260200190565b602060405180830381865afa158015612396573d6000803e3d6000fd5b505050506040513d601f19601f820116820180604052508101906123ba9190615235565b306040518463ffffffff1660e01b81526004016123d993929190615571565b600060405180830381865af41580156123f6573d6000803e3d6000fd5b505050506040513d6000823e601f3d908101601f1916820160405261241e919081019061579a565b50905061242f818460a00151614292565b8160405160200161244091906157ec565b6040516020818303038152906040529061246d5760405162461bcd60e51b81526004016106be91906151ea565b506065546060840151608085015160c086015160408088015160a0890151895160e08b01516101008c01516102608d015195517fd649c2000000000000000000000000000000000000000000000000000000000081526001600160a01b03909a169963d649c200996124ec999098909790969594939291600401615831565b602060405180830381865afa158015612509573d6000803e3d6000fd5b505050506040513d601f19601f8201168201806040525081019061252d9190615471565b6125795760405162461bcd60e51b815260206004820152601360248201527f696e76616c696420656d61696c2070726f6f660000000000000000000000000060448201526064016106be565b505050565b612586614140565b6001600160a01b0381166126025760405162461bcd60e51b815260206004820152602660248201527f4f776e61626c653a206e6577206f776e657220697320746865207a65726f206160448201527f646472657373000000000000000000000000000000000000000000000000000060648201526084016106be565b610de38161419a565b6069546040517ff884630b0000000000000000000000000000000000000000000000000000000081526001600160a01b039091169063f884630b9061265690859085906004016158a4565b600060405180830381600087803b15801561267057600080fd5b505af11580156111f9573d6000803e3d6000fd5b600054610100900460ff166127015760405162461bcd60e51b815260206004820152602b60248201527f496e697469616c697a61626c653a20636f6e7472616374206973206e6f74206960448201527f6e697469616c697a696e6700000000000000000000000000000000000000000060648201526084016106be565b6119ec6142ae565b610de3614140565b7f4910fdfa16fed3260ed0e7147f7cc6da11a60208b5b9406d12a635614ffd91435460ff16156127445761257983614334565b826001600160a01b03166352d1902d6040518163ffffffff1660e01b8152600401602060405180830381865afa92505050801561279e575060408051601f3d908101601f1916820190925261279b918101906153b6565b60015b6128105760405162461bcd60e51b815260206004820152602e60248201527f45524331393637557067726164653a206e657720696d706c656d656e7461746960448201527f6f6e206973206e6f74205555505300000000000000000000000000000000000060648201526084016106be565b7f360894a13ba1a3210667c828492db98dca3e2076cc3735a920a3ca505d382bbc81146128a55760405162461bcd60e51b815260206004820152602960248201527f45524331393637557067726164653a20756e737570706f727465642070726f7860448201527f6961626c6555554944000000000000000000000000000000000000000000000060648201526084016106be565b5061257983838361440a565b600060606001600160a01b03841661290b5760405162461bcd60e51b815260206004820152601560248201527f696e76616c696420746f6b656e2061646472657373000000000000000000000060448201526064016106be565b6000831161295b5760405162461bcd60e51b815260206004820152600e60248201527f696e76616c696420616d6f756e7400000000000000000000000000000000000060448201526064016106be565b6001600160a01b0386166129b15760405162461bcd60e51b815260206004820152601660248201527f696e76616c69642073656e64657220616464726573730000000000000000000060448201526064016106be565b6001600160a01b038516612a075760405162461bcd60e51b815260206004820152601960248201527f696e76616c696420726563697069656e7420616464726573730000000000000060448201526064016106be565b604080516001600160a01b038781166024830152604480830187905283518084039091018152606490920183526020820180517bffffffffffffffffffffffffffffffffffffffffffffffffffffffff167fa9059cbb0000000000000000000000000000000000000000000000000000000017905291517fb61d27f6000000000000000000000000000000000000000000000000000000008152889283169163b61d27f691612abe9189916000919060040161597b565b600060405180830381600087803b158015612ad857600080fd5b505af1925050508015612ae9575060015b612b6257612af56159ac565b806308c379a003612b215750612b096159c7565b80612b145750612b23565b600093509150612b689050565b505b505060408051808201909152601981527f756e6b6e6f776e2077616c6c65742065786563206572726f7200000000000000602082015260009150612b68565b60019250505b94509492505050565b60006060612bb883602001516040518060400160405280600481526020017f53656e6400000000000000000000000000000000000000000000000000000000815250614292565b1561301357610220830151606a5481516040517fc40912360000000000000000000000000000000000000000000000000000000081526000926001600160a01b03169163c409123691612c0e91906004016151ea565b602060405180830381865afa158015612c2b573d6000803e3d6000fd5b505050506040513d601f19601f82011682018060405250810190612c4f9190615235565b90508460e0015115612d7e576072546068546020840151612c7f926001600160a01b0390811692169084906128b1565b909450925083612c90575050915091565b607380547fffffffffffffffffffffff00ffffffffffffffffffffffffffffffffffffffff167401000000000000000000000000000000000000000017905560685460725461010087015160208501516040517f1bae92f70000000000000000000000000000000000000000000000000000000081526001600160a01b039384166004820152602481019290925284831660448301526064820152911690631bae92f7906084016020604051808303816000875af1158015612d56573d6000803e3d6000fd5b505050506040513d601f19601f82011682018060405250810190612d7a91906153b6565b6074555b8460e0015161300c57612dcf856102200151600001516040518060400160405280600381526020017f4554480000000000000000000000000000000000000000000000000000000000815250614292565b15612fe257607254606c5460208401516040516001600160a01b0393841693849363b61d27f693911691600091612e0c9160240190815260200190565b60408051601f198184030181529181526020820180517bffffffffffffffffffffffffffffffffffffffffffffffffffffffff167f2e1a7d4d000000000000000000000000000000000000000000000000000000001790525160e085901b7fffffffff00000000000000000000000000000000000000000000000000000000168152612e9d9392919060040161597b565b600060405180830381600087803b158015612eb757600080fd5b505af1925050508015612ec8575060015b612f4157612ed46159ac565b806308c379a003612efe5750612ee86159c7565b80612ef35750612f00565b600095509350612fdc565b505b600094506040518060400160405280601a81526020017f65727220636f6e76657274696e67205745544820746f204554480000000000008152509350612fdc565b61014086015160208401516040517fb61d27f60000000000000000000000000000000000000000000000000000000081526001600160a01b039283166004820152602481019190915260606044820152600060648201529082169063b61d27f690608401600060405180830381600087803b158015612fbf57600080fd5b505af1158015612fd3573d6000803e3d6000fd5b50505050600194505b5061300c565b6072546101408601516020840151613006926001600160a01b0316919084906128b1565b90945092505b5050915091565b61305683602001516040518060400160405280600781526020017f4578656375746500000000000000000000000000000000000000000000000000815250614292565b1561317d576000806000856101a001518060200190518101906130799190615a6f565b6072546040517fb61d27f600000000000000000000000000000000000000000000000000000000815293965091945092506001600160a01b03169063b61d27f6906130cc9086908690869060040161597b565b600060405180830381600087803b1580156130e657600080fd5b505af19250505080156130f7575060015b613170576131036159ac565b806308c379a00361312d57506131176159c7565b80613122575061312f565b600095509350613175565b505b600094506040518060400160405280602081526020017f65727220657865637574696e672063616c6c64617461206f6e2077616c6c65748152509350613175565b600194505b505050915091565b6131c083602001516040518060400160405280600781526020017f496e7374616c6c00000000000000000000000000000000000000000000000000815250614292565b15613383576069546101c08401516040517f93f878420000000000000000000000000000000000000000000000000000000081526000926001600160a01b0316916393f878429161321491906004016151ea565b602060405180830381865afa158015613231573d6000803e3d6000fd5b505050506040513d601f19601f820116820180604052508101906132559190615235565b6069546040517f93ec49710000000000000000000000000000000000000000000000000000000081526001600160a01b03808416600483015260006024830181905260448301819052939450909116906393ec497190606401600060405180830381865afa1580156132cb573d6000803e3d6000fd5b505050506040513d6000823e601f3d908101601f191682016040526132f391908101906150ab565b6069546072546040517ff1fbbba10000000000000000000000000000000000000000000000000000000081529293506001600160a01b039182169263f1fbbba19261334692169085908790600401615add565b600060405180830381600087803b15801561336057600080fd5b505af1158015613374573d6000803e3d6000fd5b50505050600193505050915091565b6133c683602001516040518060400160405280600981526020017f556e696e7374616c6c0000000000000000000000000000000000000000000000815250614292565b1561354d576069546101c08401516040517f93f878420000000000000000000000000000000000000000000000000000000081526000926001600160a01b0316916393f878429161341a91906004016151ea565b602060405180830381865afa158015613437573d6000803e3d6000fd5b505050506040513d601f19601f8201168201806040525081019061345b9190615235565b6069546040517f93ec49710000000000000000000000000000000000000000000000000000000081526001600160a01b03808416600483015260006024830181905260448301819052939450909116906393ec497190606401600060405180830381865afa1580156134d1573d6000803e3d6000fd5b505050506040513d6000823e601f3d908101601f191682016040526134f991908101906150ab565b6069546072546040517ff1fbbba10000000000000000000000000000000000000000000000000000000081529293506001600160a01b039182169263f1fbbba1926133469216908590600090600401615add565b61359083602001516040518060400160405280600481526020017f4578697400000000000000000000000000000000000000000000000000000000815250614292565b15613670576072546101e08401516040517ff2fde38b0000000000000000000000000000000000000000000000000000000081526001600160a01b03918216600482015291169063f2fde38b90602401600060405180830381600087803b1580156135fa57600080fd5b505af192505050801561360b575060015b613667576136176159ac565b806308c379a003613641575061362b6159c7565b806136365750613643565b600092509050915091565b505b60009150604051806060016040528060298152602001615db9602991399050915091565b60019150915091565b6136b383602001516040518060400160405280600481526020017f444b494d00000000000000000000000000000000000000000000000000000000815250614292565b1561374a5760675483516102008501516040517f40d2004100000000000000000000000000000000000000000000000000000000815260048101929092526001600160a01b039081166024830152909116906340d20041906044015b600060405180830381600087803b15801561372957600080fd5b505af115801561373d573d6000803e3d6000fd5b5050505060019150915091565b61378d83602001516040518060400160405280600581526020017f4775617264000000000000000000000000000000000000000000000000000000815250614292565b156137e9576072546101408401516040517f227773ee0000000000000000000000000000000000000000000000000000000081526001600160a01b0391821660048201529116602482018190529063227773ee9060440161370f565b613806836020015160405180602001604052806000815250614292565b1561389e57610140830151610240840151805160209091015160725460408088015190517fadea0a530000000000000000000000000000000000000000000000000000000081526001600160a01b039586169563adea0a53956138729590949093911691600401615b5b565b60006040518083038186803b15801561388a57600080fd5b505afa15801561373d573d6000803e3d6000fd5b60695460725460208501516040517fe086a8220000000000000000000000000000000000000000000000000000000081526000936001600160a01b039081169363e086a822936138f5939290911691600401615b93565b602060405180830381865afa158015613912573d6000803e3d6000fd5b505050506040513d601f19601f820116820180604052508101906139369190615235565b607380547fffffffffffffffffffffffff0000000000000000000000000000000000000000166001600160a01b038381169182179092556069546040517f6dfbe35e000000000000000000000000000000000000000000000000000000008152600481019290925292935060009283921690636dfbe35e90602401600060405180830381865afa1580156139ce573d6000803e3d6000fd5b505050506040513d6000823e601f3d908101601f191682016040526139f69190810190615bb5565b8661024001516000015160ff1681518110613a1357613a13615134565b6020026020010151905060005b81518160ff161015613d54576000828260ff1681518110613a4357613a43615134565b60200260200101519050613a8c816040518060400160405280600d81526020017f7b746f6b656e416d6f756e747d00000000000000000000000000000000000000815250614292565b15613bdb57600080896102400151602001518660ff1681518110613ab257613ab2615134565b6020026020010151806020019051810190613acd9190615cf5565b6040805180820191829052606a547fc4091236000000000000000000000000000000000000000000000000000000009092529294509092506076919081906001600160a01b031663c4091236613b2686604485016151ea565b602060405180830381865afa158015613b43573d6000803e3d6000fd5b505050506040513d601f19601f82011682018060405250810190613b679190615235565b6001600160a01b0390811682526020918201869052835460018082018655600095865294839020845160029092020180547fffffffffffffffffffffffff0000000000000000000000000000000000000000169190921617815591015191015585613bd181615d32565b9650505050613d41565b613c1a816040518060400160405280600881526020017f7b616d6f756e747d000000000000000000000000000000000000000000000000815250614292565b80613c5f5750613c5f816040518060400160405280600881526020017f7b737472696e677d000000000000000000000000000000000000000000000000815250614292565b80613ca45750613ca4816040518060400160405280600681526020017f7b75696e747d0000000000000000000000000000000000000000000000000000815250614292565b80613ce95750613ce9816040518060400160405280600581526020017f7b696e747d000000000000000000000000000000000000000000000000000000815250614292565b80613d2e5750613d2e816040518060400160405280600981526020017f7b616464726573737d0000000000000000000000000000000000000000000000815250614292565b15613d415783613d3d81615d32565b9450505b5080613d4c81615d32565b915050613a20565b506069546040517f2f1d7ddc0000000000000000000000000000000000000000000000000000000081526001600160a01b03858116600483018190529263e93977e892911690632f1d7ddc90602401602060405180830381865afa158015613dc0573d6000803e3d6000fd5b505050506040513d601f19601f82011682018060405250810190613de491906153b6565b8861024001516000015189610240015160200151607260000160009054906101000a90046001600160a01b03168b60e001518c61014001518d604001516040518863ffffffff1660e01b8152600401613e4296959493929190615d51565b600060405180830381600088803b158015613e5c57600080fd5b5087f193505050508015613e6e575060015b61317057613e7a6159ac565b806308c379a003613e995750613e8e6159c7565b806131225750613e9b565b505b600094506040518060400160405280601781526020017f65727220657865637574696e6720657874656e73696f6e0000000000000000008152509350613175565b6000613f1d826040518060400160405280600381526020017f4554480000000000000000000000000000000000000000000000000000000000815250614292565b80613f625750613f62826040518060400160405280600481526020017f5745544800000000000000000000000000000000000000000000000000000000815250614292565b15613f765750670de0b6b3a7640000919050565b6000613fb7836040518060400160405280600381526020017f4441490000000000000000000000000000000000000000000000000000000000815250614292565b80613ffc5750613ffc836040518060400160405280600481526020017f5553444300000000000000000000000000000000000000000000000000000000815250614292565b90508061400c5750600092915050565b606a546040517fc40912360000000000000000000000000000000000000000000000000000000081526000916001600160a01b03169063c4091236906140569087906004016151ea565b602060405180830381865afa158015614073573d6000803e3d6000fd5b505050506040513d601f19601f820116820180604052508101906140979190615235565b90506001600160a01b0381166140b1575060009392505050565b606b546040517f01857da80000000000000000000000000000000000000000000000000000000081526001600160a01b038381166004830152909116906301857da890602401602060405180830381865afa158015614114573d6000803e3d6000fd5b505050506040513d601f19601f8201168201806040525081019061413891906153b6565b949350505050565b6033546001600160a01b031633146119ec5760405162461bcd60e51b815260206004820181905260248201527f4f776e61626c653a2063616c6c6572206973206e6f7420746865206f776e657260448201526064016106be565b603380546001600160a01b038381167fffffffffffffffffffffffff0000000000000000000000000000000000000000831681179093556040519116919082907f8be0079c531659141344cd1fd0a4f28419497f9722a3daafe3b4186f6b6457e090600090a35050565b604080516001600160a01b0385811660248301528416604482015260648082018490528251808303909101815260849091019091526020810180517bffffffffffffffffffffffffffffffffffffffffffffffffffffffff167f23b872dd0000000000000000000000000000000000000000000000000000000017905261428c90859061442f565b50505050565b6000818051906020012083805190602001201490505b92915050565b600054610100900460ff1661432b5760405162461bcd60e51b815260206004820152602b60248201527f496e697469616c697a61626c653a20636f6e7472616374206973206e6f74206960448201527f6e697469616c697a696e6700000000000000000000000000000000000000000060648201526084016106be565b6119ec3361419a565b6001600160a01b0381163b6143b15760405162461bcd60e51b815260206004820152602d60248201527f455243313936373a206e657720696d706c656d656e746174696f6e206973206e60448201527f6f74206120636f6e74726163740000000000000000000000000000000000000060648201526084016106be565b7f360894a13ba1a3210667c828492db98dca3e2076cc3735a920a3ca505d382bbc80547fffffffffffffffffffffffff0000000000000000000000000000000000000000166001600160a01b0392909216919091179055565b61441383614517565b6000825111806144205750805b156125795761428c8383614557565b6000614484826040518060400160405280602081526020017f5361666545524332303a206c6f772d6c6576656c2063616c6c206661696c6564815250856001600160a01b03166145839092919063ffffffff16565b90508051600014806144a55750808060200190518101906144a59190615471565b6125795760405162461bcd60e51b815260206004820152602a60248201527f5361666545524332303a204552433230206f7065726174696f6e20646964206e60448201527f6f7420737563636565640000000000000000000000000000000000000000000060648201526084016106be565b61452081614334565b6040516001600160a01b038216907fbc7cd75a20ee27fd9adebab32041f755214dbc6bffa90cc0225b39da2e5c2d3b90600090a250565b606061457c8383604051806060016040528060278152602001615de260279139614592565b9392505050565b6060614138848460008561460a565b6060600080856001600160a01b0316856040516145af9190615d9c565b600060405180830381855af49150503d80600081146145ea576040519150601f19603f3d011682016040523d82523d6000602084013e6145ef565b606091505b5091509150614600868383876146fc565b9695505050505050565b6060824710156146825760405162461bcd60e51b815260206004820152602660248201527f416464726573733a20696e73756666696369656e742062616c616e636520666f60448201527f722063616c6c000000000000000000000000000000000000000000000000000060648201526084016106be565b600080866001600160a01b0316858760405161469e9190615d9c565b60006040518083038185875af1925050503d80600081146146db576040519150601f19603f3d011682016040523d82523d6000602084013e6146e0565b606091505b50915091506146f1878383876146fc565b979650505050505050565b6060831561476b578251600003614764576001600160a01b0385163b6147645760405162461bcd60e51b815260206004820152601d60248201527f416464726573733a2063616c6c20746f206e6f6e2d636f6e747261637400000060448201526064016106be565b5081614138565b61413883838151156147805781518083602001fd5b8060405162461bcd60e51b81526004016106be91906151ea565b5080546000825560020290600052602060002090810190610de391905b808211156147f45780547fffffffffffffffffffffffff0000000000000000000000000000000000000000168155600060018201556002016147b7565b5090565b6001600160a01b0381168114610de357600080fd5b8035614818816147f8565b919050565b6000806000806000806000806000806000806101808d8f03121561484057600080fd5b8c3561484b816147f8565b9b5060208d013561485b816147f8565b9a5060408d013561486b816147f8565b995060608d013561487b816147f8565b985060808d013561488b816147f8565b975060a08d013561489b816147f8565b96506148a960c08e0161480d565b95506148b760e08e0161480d565b94506101008d013593506101208d013592506101408d013591506101608d013590509295989b509295989b509295989b565b6000602082840312156148fb57600080fd5b5035919050565b60008060006040848603121561491757600080fd5b8335614922816147f8565b9250602084013567ffffffffffffffff8082111561493f57600080fd5b818601915086601f83011261495357600080fd5b81358181111561496257600080fd5b87602082850101111561497457600080fd5b6020830194508093505050509250925092565b60006020828403121561499957600080fd5b813561457c816147f8565b7f4e487b7100000000000000000000000000000000000000000000000000000000600052604160045260246000fd5b6040810181811067ffffffffffffffff821117156149f3576149f36149a4565b60405250565b601f19601f830116810181811067ffffffffffffffff82111715614a1f57614a1f6149a4565b6040525050565b604051610280810167ffffffffffffffff81118282101715614a4a57614a4a6149a4565b60405290565b600067ffffffffffffffff821115614a6a57614a6a6149a4565b50601f01601f191660200190565b600082601f830112614a8957600080fd5b8135614a9481614a50565b604051614aa182826149f9565b828152856020848701011115614ab657600080fd5b82602086016020830137600092810160200192909252509392505050565b60008060408385031215614ae757600080fd5b8235614af2816147f8565b9150602083013567ffffffffffffffff811115614b0e57600080fd5b614b1a85828601614a78565b9150509250929050565b60008060408385031215614b3757600080fd5b8235614b42816147f8565b946020939093013593505050565b600060208284031215614b6257600080fd5b813567ffffffffffffffff811115614b7957600080fd5b8201610280818503121561457c57600080fd5b60005b83811015614ba7578181015183820152602001614b8f565b50506000910152565b60008151808452614bc8816020860160208601614b8c565b601f01601f19169290920160200192915050565b8415158152608060208201526000614bf76080830186614bb0565b6040830194909452506060015292915050565b8015158114610de357600080fd5b803561481881614c0a565b600060408284031215614c3557600080fd5b604051614c41816149d3565b809150823567ffffffffffffffff811115614c5b57600080fd5b614c6785828601614a78565b825250602083013560208201525092915050565b600067ffffffffffffffff821115614c9557614c956149a4565b5060051b60200190565b600060408284031215614cb157600080fd5b604051614cbd816149d3565b809150823560ff81168114614cd157600080fd5b815260208381013567ffffffffffffffff80821115614cef57600080fd5b818601915086601f830112614d0357600080fd5b8135614d0e81614c7b565b604051614d1b82826149f9565b82815260059290921b8401850191858101915089831115614d3b57600080fd5b8585015b83811015614d7357803585811115614d575760008081fd5b614d658c89838a0101614a78565b845250918601918601614d3f565b5080868801525050505050505092915050565b60006102808284031215614d9957600080fd5b614da1614a26565b905081358152602082013567ffffffffffffffff80821115614dc257600080fd5b614dce85838601614a78565b6020840152604084013560408401526060840135915080821115614df157600080fd5b614dfd85838601614a78565b60608401526080840135608084015260a0840135915080821115614e2057600080fd5b614e2c85838601614a78565b60a084015260c084013560c0840152614e4760e08501614c18565b60e0840152610100848101359084015261012080850135908401526101409150614e7282850161480d565b8284015261016091508184013581811115614e8c57600080fd5b614e9886828701614a78565b8385015250610180915081840135828401526101a091508184013581811115614ec057600080fd5b614ecc86828701614a78565b83850152506101c091508184013581811115614ee757600080fd5b614ef386828701614a78565b83850152506101e09150614f0882850161480d565b828401526102009150614f1c82850161480d565b8284015261022091508184013581811115614f3657600080fd5b614f4286828701614c23565b838501525061024091508184013581811115614f5d57600080fd5b614f6986828701614c9f565b838501525061026091508184013581811115614f8457600080fd5b614f9086828701614a78565b8385015250505092915050565b600060208284031215614faf57600080fd5b813567ffffffffffffffff811115614fc657600080fd5b61413884828501614d86565b60008060208385031215614fe557600080fd5b823567ffffffffffffffff80821115614ffd57600080fd5b818501915085601f83011261501157600080fd5b81358181111561502057600080fd5b8660208260051b850101111561503557600080fd5b60209290920196919550909350505050565b600061505283614a50565b60405161505f82826149f9565b80925084815285858501111561507457600080fd5b615082856020830186614b8c565b50509392505050565b600082601f83011261509c57600080fd5b61457c83835160208501615047565b6000602082840312156150bd57600080fd5b815167ffffffffffffffff8111156150d457600080fd5b6141388482850161508b565b818352818160208501375060006020828401015260006020601f19601f840116840101905092915050565b6001600160a01b03851681528360208201526060604082015260006146006060830184866150e0565b7f4e487b7100000000000000000000000000000000000000000000000000000000600052603260045260246000fd5b7f4e487b7100000000000000000000000000000000000000000000000000000000600052601160045260246000fd5b818103818111156142a8576142a8615163565b7f7265717565737420746f6b656e206661696c65643a20000000000000000000008152600082516151dd816016850160208701614b8c565b9190910160160192915050565b60208152600061457c6020830184614bb0565b60007fffffffffffffffffffffffffffffffffffffffffffffffffffffffffffffffff820361522e5761522e615163565b5060010190565b60006020828403121561524757600080fd5b815161457c816147f8565b60006142a83683614d86565b80820281158282048414176142a8576142a8615163565b808201808211156142a8576142a8615163565b60008083357fffffffffffffffffffffffffffffffffffffffffffffffffffffffffffffffe18436030181126152bd57600080fd5b83018035915067ffffffffffffffff8211156152d857600080fd5b6020019150368190038213156152ed57600080fd5b9250929050565b60008261532a577f4e487b7100000000000000000000000000000000000000000000000000000000600052601260045260246000fd5b500490565b6020815260006141386020830184866150e0565b7f666565207265696d62757273656d656e74206661696c65643a2000000000000081526000825161537b81601a850160208701614b8c565b91909101601a0192915050565b8481528360208201526001600160a01b03831660408201526080606082015260006146006080830184614bb0565b6000602082840312156153c857600080fd5b5051919050565b60006001600160a01b03808916835280881660208401525085604083015260a0606083015261540260a0830185876150e0565b90508215156080830152979650505050505050565b6000806040838503121561542a57600080fd5b825167ffffffffffffffff8082111561544257600080fd5b61544e8683870161508b565b9350602085015191508082111561546457600080fd5b50614b1a8582860161508b565b60006020828403121561548357600080fd5b815161457c81614c0a565b8381526060602082015260006154a76060830185614bb0565b9050826040830152949350505050565b60008151604084526154cc6040850182614bb0565b602093840151949093019390935250919050565b60006040830160ff835116845260208084015160408287015282815180855260608801915060608160051b8901019450838301925060005b81811015615564577fffffffffffffffffffffffffffffffffffffffffffffffffffffffffffffffa0898703018352615552868551614bb0565b95509284019291840191600101615518565b5093979650505050505050565b60608152835160608201526000602085015161028080608085015261559a6102e0850183614bb0565b9150604087015160a085015260608701517fffffffffffffffffffffffffffffffffffffffffffffffffffffffffffffffa0808685030160c08701526155e08483614bb0565b9350608089015160e087015260a089015191506101008187860301818801526156098584614bb0565b945060c08a01519250610120838189015260e08b01519350610140615631818a018615159052565b918b015161016089810191909152908b0151610180808a0191909152918b01519350906101a061566b818a01866001600160a01b03169052565b828c015194506101c092508389880301838a01526156898786614bb0565b9650818c015194506101e0915084828a0152808c01519450506102008389880301818a01526156b88786614bb0565b9650828c0151945061022092508389880301838a01526156d88786614bb0565b9650818c0151945061024091506156f9828a01866001600160a01b03169052565b8b01519350610260615715898201866001600160a01b03169052565b828c015194508389880301868a015261572e87866154b7565b9650818c0151955083898803016102a08a015261574b87876154e0565b9650808c0151955050505080868503016102c0870152505061576d8282614bb0565b9250505061578660208301856001600160a01b03169052565b6001600160a01b0383166040830152614138565b600080604083850312156157ad57600080fd5b825167ffffffffffffffff8111156157c457600080fd5b6157d08582860161508b565b92505060208301516157e181614c0a565b809150509250929050565b7f7375626a65637420213d2000000000000000000000000000000000000000000081526000825161582481600b850160208701614b8c565b91909101600b0192915050565b60006101208083526158458184018d614bb0565b90508a6020840152896040840152886060840152828103608084015261586b8189614bb0565b90508660a084015285151560c08401528460e08401528281036101008401526158948185614bb0565b9c9b505050505050505050505050565b60208082528181018390526000906040600585901b8401810190840186845b8781101561596e577fffffffffffffffffffffffffffffffffffffffffffffffffffffffffffffffc087850301835281357fffffffffffffffffffffffffffffffffffffffffffffffffffffffffffffffe18a360301811261592457600080fd5b8901858101903567ffffffffffffffff81111561594057600080fd5b80360382131561594f57600080fd5b61595a8682846150e0565b9550505091840191908401906001016158c3565b5091979650505050505050565b6001600160a01b03841681528260208201526060604082015260006159a36060830184614bb0565b95945050505050565b600060033d11156110375760046000803e5060005160e01c90565b600060443d10156159d55790565b6040517ffffffffffffffffffffffffffffffffffffffffffffffffffffffffffffffffc803d016004833e81513d67ffffffffffffffff8160248401118184111715615a2357505050505090565b8285019150815181811115615a3b5750505050505090565b843d8701016020828501011115615a555750505050505090565b615a64602082860101876149f9565b509095945050505050565b600080600060608486031215615a8457600080fd5b8351615a8f816147f8565b60208501516040860151919450925067ffffffffffffffff811115615ab357600080fd5b8401601f81018613615ac457600080fd5b615ad386825160208401615047565b9150509250925092565b60006001600160a01b03808616835260606020840152615b006060840186614bb0565b9150808416604084015250949350505050565b600081518084526020808501808196508360051b8101915082860160005b8581101561596e578284038952615b49848351614bb0565b98850198935090840190600101615b31565b60ff85168152608060208201526000615b776080830186615b13565b6001600160a01b03949094166040830152506060015292915050565b6001600160a01b03831681526040602082015260006141386040830184614bb0565b600060208284031215615bc757600080fd5b815167ffffffffffffffff80821115615bdf57600080fd5b818401915084601f830112615bf357600080fd5b8151615bfe81614c7b565b604051615c0b82826149f9565b80915082815260208101915060208360051b860101925087831115615c2f57600080fd5b602085015b83811015615ce957805185811115615c4b57600080fd5b8601603f81018a13615c5c57600080fd5b6020810151615c6a81614c7b565b604051615c7782826149f9565b82815260059290921b8301604001916020810191508c831115615c9957600080fd5b604084015b83811015615cd35780518a811115615cb557600080fd5b615cc48f60408389010161508b565b84525060209283019201615c9e565b5086525050602093840193919091019050615c34565b50979650505050505050565b60008060408385031215615d0857600080fd5b82519150602083015167ffffffffffffffff811115615d2657600080fd5b614b1a8582860161508b565b600060ff821660ff8103615d4857615d48615163565b60010192915050565b60ff8716815260c060208201526000615d6d60c0830188615b13565b6001600160a01b03968716604084015294151560608301525091909316608082015260a0019190915292915050565b60008251615dae818460208701614b8c565b919091019291505056fe65727220657865637574696e67207472616e736665724f776e657273686970206f6e2077616c6c6574416464726573733a206c6f772d6c6576656c2064656c65676174652063616c6c206661696c6564a2646970667358221220e9fc6baef7f0a39284cbf5bcc07f508654010122f40ca7a7d891b44f7044b91564736f6c63430008150033",
    "linkReferences": {
      "src/libraries/SubjectUtils.sol": {
        "SubjectUtils": [
          {
            "start": 9307,
            "length": 20
          }
        ]
      }
    }
  },
  "methodIdentifiers": {
    "accountHandler()": "33ddfb9a",
    "depositTokenAsExtension(address,uint256)": "75af3217",
    "emailNullifiers(bytes32)": "17ace6b5",
    "emailValidityDuration()": "b90d36f9",
    "executeAsExtension(address,bytes)": "21d71c8f",
    "extensionHandler()": "9f6d1d83",
    "handleEmailOp((bytes32,string,bytes32,string,bytes32,string,uint256,bool,bytes32,uint256,address,string,uint256,bytes,string,address,address,(string,uint256),(uint8,bytes[]),bytes))": "6cb28745",
    "initialize(address,address,address,address,address,address,address,address,uint256,uint256,uint256,uint256)": "009d93ca",
    "initializeExtension(bytes[])": "fea1c89b",
    "maxFeePerGas()": "2728bf2c",
    "owner()": "8da5cb5b",
    "priceOracle()": "2630c12f",
    "proxiableUUID()": "52d1902d",
    "registerUnclaimedStateAsExtension(address,bytes)": "c9af3f1c",
    "relayerHandler()": "5e5f2610",
    "renounceOwnership()": "715018a6",
    "requestTokenAsExtension(address,uint256)": "65a345ac",
    "tokenRegistry()": "9d23c4c7",
    "transferOwnership(address)": "f2fde38b",
    "unclaimedFundClaimGas()": "66221734",
    "unclaimedStateClaimGas()": "a87fedae",
    "unclaimsHandler()": "d5e5c1c8",
    "upgradeTo(address)": "3659cfe6",
    "upgradeToAndCall(address,bytes)": "4f1ef286",
    "validateEmailOp((bytes32,string,bytes32,string,bytes32,string,uint256,bool,bytes32,uint256,address,string,uint256,bytes,string,address,address,(string,uint256),(uint8,bytes[]),bytes))": "dd0c2927",
    "verifier()": "2b7ac3f3",
    "wethContract()": "4780eac1"
  },
  "storageLayout": {
    "storage": [
      {
        "astId": 138,
        "contract": "src/EmailWalletCore.sol:EmailWalletCore",
        "label": "_initialized",
        "offset": 0,
        "slot": "0",
        "type": "t_uint8"
      },
      {
        "astId": 141,
        "contract": "src/EmailWalletCore.sol:EmailWalletCore",
        "label": "_initializing",
        "offset": 1,
        "slot": "0",
        "type": "t_bool"
      },
      {
        "astId": 62819,
        "contract": "src/EmailWalletCore.sol:EmailWalletCore",
        "label": "__gap",
        "offset": 0,
        "slot": "1",
        "type": "t_array(t_uint256)50_storage"
      },
      {
        "astId": 10,
        "contract": "src/EmailWalletCore.sol:EmailWalletCore",
        "label": "_owner",
        "offset": 0,
        "slot": "51",
        "type": "t_address"
      },
      {
        "astId": 130,
        "contract": "src/EmailWalletCore.sol:EmailWalletCore",
        "label": "__gap",
        "offset": 0,
        "slot": "52",
        "type": "t_array(t_uint256)49_storage"
      },
      {
        "astId": 54591,
        "contract": "src/EmailWalletCore.sol:EmailWalletCore",
        "label": "verifier",
        "offset": 0,
        "slot": "101",
        "type": "t_contract(IVerifier)60878"
      },
      {
        "astId": 54594,
        "contract": "src/EmailWalletCore.sol:EmailWalletCore",
        "label": "relayerHandler",
        "offset": 0,
        "slot": "102",
        "type": "t_contract(RelayerHandler)59262"
      },
      {
        "astId": 54597,
        "contract": "src/EmailWalletCore.sol:EmailWalletCore",
        "label": "accountHandler",
        "offset": 0,
        "slot": "103",
        "type": "t_contract(AccountHandler)58485"
      },
      {
        "astId": 54600,
        "contract": "src/EmailWalletCore.sol:EmailWalletCore",
        "label": "unclaimsHandler",
        "offset": 0,
        "slot": "104",
        "type": "t_contract(UnclaimsHandler)60555"
      },
      {
        "astId": 54603,
        "contract": "src/EmailWalletCore.sol:EmailWalletCore",
        "label": "extensionHandler",
        "offset": 0,
        "slot": "105",
        "type": "t_contract(ExtensionHandler)59074"
      },
      {
        "astId": 54606,
        "contract": "src/EmailWalletCore.sol:EmailWalletCore",
        "label": "tokenRegistry",
        "offset": 0,
        "slot": "106",
        "type": "t_contract(TokenRegistry)62778"
      },
      {
        "astId": 54609,
        "contract": "src/EmailWalletCore.sol:EmailWalletCore",
        "label": "priceOracle",
        "offset": 0,
        "slot": "107",
        "type": "t_contract(IPriceOracle)60805"
      },
      {
        "astId": 54611,
        "contract": "src/EmailWalletCore.sol:EmailWalletCore",
        "label": "wethContract",
        "offset": 0,
        "slot": "108",
        "type": "t_address"
      },
      {
        "astId": 54613,
        "contract": "src/EmailWalletCore.sol:EmailWalletCore",
        "label": "maxFeePerGas",
        "offset": 0,
        "slot": "109",
        "type": "t_uint256"
      },
      {
        "astId": 54615,
        "contract": "src/EmailWalletCore.sol:EmailWalletCore",
        "label": "emailValidityDuration",
        "offset": 0,
        "slot": "110",
        "type": "t_uint256"
      },
      {
        "astId": 54617,
        "contract": "src/EmailWalletCore.sol:EmailWalletCore",
        "label": "unclaimedFundClaimGas",
        "offset": 0,
        "slot": "111",
        "type": "t_uint256"
      },
      {
        "astId": 54619,
        "contract": "src/EmailWalletCore.sol:EmailWalletCore",
        "label": "unclaimedStateClaimGas",
        "offset": 0,
        "slot": "112",
        "type": "t_uint256"
      },
      {
        "astId": 54623,
        "contract": "src/EmailWalletCore.sol:EmailWalletCore",
        "label": "emailNullifiers",
        "offset": 0,
        "slot": "113",
        "type": "t_mapping(t_bytes32,t_bool)"
      },
      {
        "astId": 54626,
        "contract": "src/EmailWalletCore.sol:EmailWalletCore",
        "label": "currContext",
        "offset": 0,
        "slot": "114",
        "type": "t_struct(ExecutionContext)60998_storage"
      }
    ],
    "types": {
      "t_address": {
        "encoding": "inplace",
        "label": "address",
        "numberOfBytes": "20"
      },
      "t_array(t_struct(TokenAllowance)60981_storage)dyn_storage": {
        "encoding": "dynamic_array",
        "label": "struct TokenAllowance[]",
        "numberOfBytes": "32",
        "base": "t_struct(TokenAllowance)60981_storage"
      },
      "t_array(t_uint256)49_storage": {
        "encoding": "inplace",
        "label": "uint256[49]",
        "numberOfBytes": "1568",
        "base": "t_uint256"
      },
      "t_array(t_uint256)50_storage": {
        "encoding": "inplace",
        "label": "uint256[50]",
        "numberOfBytes": "1600",
        "base": "t_uint256"
      },
      "t_bool": {
        "encoding": "inplace",
        "label": "bool",
        "numberOfBytes": "1"
      },
      "t_bytes32": {
        "encoding": "inplace",
        "label": "bytes32",
        "numberOfBytes": "32"
      },
      "t_contract(AccountHandler)58485": {
        "encoding": "inplace",
        "label": "contract AccountHandler",
        "numberOfBytes": "20"
      },
      "t_contract(ExtensionHandler)59074": {
        "encoding": "inplace",
        "label": "contract ExtensionHandler",
        "numberOfBytes": "20"
      },
      "t_contract(IPriceOracle)60805": {
        "encoding": "inplace",
        "label": "contract IPriceOracle",
        "numberOfBytes": "20"
      },
      "t_contract(IVerifier)60878": {
        "encoding": "inplace",
        "label": "contract IVerifier",
        "numberOfBytes": "20"
      },
      "t_contract(RelayerHandler)59262": {
        "encoding": "inplace",
        "label": "contract RelayerHandler",
        "numberOfBytes": "20"
      },
      "t_contract(TokenRegistry)62778": {
        "encoding": "inplace",
        "label": "contract TokenRegistry",
        "numberOfBytes": "20"
      },
      "t_contract(UnclaimsHandler)60555": {
        "encoding": "inplace",
        "label": "contract UnclaimsHandler",
        "numberOfBytes": "20"
      },
      "t_mapping(t_bytes32,t_bool)": {
        "encoding": "mapping",
        "key": "t_bytes32",
        "label": "mapping(bytes32 => bool)",
        "numberOfBytes": "32",
        "value": "t_bool"
      },
      "t_struct(ExecutionContext)60998_storage": {
        "encoding": "inplace",
        "label": "struct ExecutionContext",
        "numberOfBytes": "160",
        "members": [
          {
            "astId": 60983,
            "contract": "src/EmailWalletCore.sol:EmailWalletCore",
            "label": "walletAddr",
            "offset": 0,
            "slot": "0",
            "type": "t_address"
          },
          {
            "astId": 60985,
            "contract": "src/EmailWalletCore.sol:EmailWalletCore",
            "label": "extensionAddr",
            "offset": 0,
            "slot": "1",
            "type": "t_address"
          },
          {
            "astId": 60987,
            "contract": "src/EmailWalletCore.sol:EmailWalletCore",
            "label": "unclaimedFundRegistered",
            "offset": 20,
            "slot": "1",
            "type": "t_bool"
          },
          {
            "astId": 60989,
            "contract": "src/EmailWalletCore.sol:EmailWalletCore",
            "label": "unclaimedStateRegistered",
            "offset": 21,
            "slot": "1",
            "type": "t_bool"
          },
          {
            "astId": 60991,
            "contract": "src/EmailWalletCore.sol:EmailWalletCore",
            "label": "registeredUnclaimId",
            "offset": 0,
            "slot": "2",
            "type": "t_uint256"
          },
          {
            "astId": 60993,
            "contract": "src/EmailWalletCore.sol:EmailWalletCore",
            "label": "recipientEmailAddrCommit",
            "offset": 0,
            "slot": "3",
            "type": "t_bytes32"
          },
          {
            "astId": 60997,
            "contract": "src/EmailWalletCore.sol:EmailWalletCore",
            "label": "tokenAllowances",
            "offset": 0,
            "slot": "4",
            "type": "t_array(t_struct(TokenAllowance)60981_storage)dyn_storage"
          }
        ]
      },
      "t_struct(TokenAllowance)60981_storage": {
        "encoding": "inplace",
        "label": "struct TokenAllowance",
        "numberOfBytes": "64",
        "members": [
          {
            "astId": 60978,
            "contract": "src/EmailWalletCore.sol:EmailWalletCore",
            "label": "tokenAddr",
            "offset": 0,
            "slot": "0",
            "type": "t_address"
          },
          {
            "astId": 60980,
            "contract": "src/EmailWalletCore.sol:EmailWalletCore",
            "label": "amount",
            "offset": 0,
            "slot": "1",
            "type": "t_uint256"
          }
        ]
      },
      "t_uint256": {
        "encoding": "inplace",
        "label": "uint256",
        "numberOfBytes": "32"
      },
      "t_uint8": {
        "encoding": "inplace",
        "label": "uint8",
        "numberOfBytes": "1"
      }
    }
  },
  "id": 98
}