{
  "abi": [
    {
      "inputs": [
        {
          "internalType": "address",
          "name": "_relayerHandler",
          "type": "address"
        },
        {
          "internalType": "address",
          "name": "_accountHandler",
          "type": "address"
        },
        {
          "internalType": "address",
          "name": "_unclaimsHandler",
          "type": "address"
        },
        {
          "internalType": "address",
          "name": "_extensionHandler",
          "type": "address"
        },
        {
          "internalType": "address",
          "name": "_verifier",
          "type": "address"
        },
        {
          "internalType": "address",
          "name": "_tokenRegistry",
          "type": "address"
        },
        {
          "internalType": "address",
          "name": "_priceOracle",
          "type": "address"
        },
        {
          "internalType": "address",
          "name": "_wethContract",
          "type": "address"
        },
        {
          "internalType": "uint256",
          "name": "_maxFeePerGas",
          "type": "uint256"
        },
        {
          "internalType": "uint256",
          "name": "_emailValidityDuration",
          "type": "uint256"
        },
        {
          "internalType": "uint256",
          "name": "_unclaimedFundClaimGas",
          "type": "uint256"
        },
        {
          "internalType": "uint256",
          "name": "_unclaimedStateClaimGas",
          "type": "uint256"
        }
      ],
      "stateMutability": "nonpayable",
      "type": "constructor"
    },
    {
      "anonymous": false,
      "inputs": [
        {
          "indexed": true,
          "internalType": "bool",
          "name": "success",
          "type": "bool"
        },
        {
          "indexed": true,
          "internalType": "uint256",
          "name": "registeredUnclaimId",
          "type": "uint256"
        },
        {
          "indexed": true,
          "internalType": "bytes32",
          "name": "emailNullifier",
          "type": "bytes32"
        },
        {
          "indexed": false,
          "internalType": "bytes32",
          "name": "emailAddrPointer",
          "type": "bytes32"
        },
        {
          "indexed": false,
          "internalType": "bytes32",
          "name": "recipientEmailAddrCommit",
          "type": "bytes32"
        },
        {
          "indexed": false,
          "internalType": "address",
          "name": "recipientETHAddr",
          "type": "address"
        },
        {
          "indexed": false,
          "internalType": "bytes",
          "name": "err",
          "type": "bytes"
        }
      ],
      "name": "EmailOpHandled",
      "type": "event"
    },
    {
      "stateMutability": "payable",
      "type": "fallback"
    },
    {
      "inputs": [],
      "name": "accountHandler",
      "outputs": [
        {
          "internalType": "contract AccountHandler",
          "name": "",
          "type": "address"
        }
      ],
      "stateMutability": "view",
      "type": "function"
    },
    {
      "inputs": [
        {
          "internalType": "address",
          "name": "tokenAddr",
          "type": "address"
        },
        {
          "internalType": "uint256",
          "name": "amount",
          "type": "uint256"
        }
      ],
      "name": "depositTokenAsExtension",
      "outputs": [],
      "stateMutability": "nonpayable",
      "type": "function"
    },
    {
      "inputs": [
        {
          "internalType": "bytes32",
          "name": "",
          "type": "bytes32"
        }
      ],
      "name": "emailNullifiers",
      "outputs": [
        {
          "internalType": "bool",
          "name": "",
          "type": "bool"
        }
      ],
      "stateMutability": "view",
      "type": "function"
    },
    {
      "inputs": [],
      "name": "emailValidityDuration",
      "outputs": [
        {
          "internalType": "uint256",
          "name": "",
          "type": "uint256"
        }
      ],
      "stateMutability": "view",
      "type": "function"
    },
    {
      "inputs": [
        {
          "internalType": "address",
          "name": "target",
          "type": "address"
        },
        {
          "internalType": "bytes",
          "name": "data",
          "type": "bytes"
        }
      ],
      "name": "executeAsExtension",
      "outputs": [],
      "stateMutability": "nonpayable",
      "type": "function"
    },
    {
      "inputs": [],
      "name": "extensionHandler",
      "outputs": [
        {
          "internalType": "contract ExtensionHandler",
          "name": "",
          "type": "address"
        }
      ],
      "stateMutability": "view",
      "type": "function"
    },
    {
      "inputs": [
        {
          "components": [
            {
              "internalType": "bytes32",
              "name": "emailAddrPointer",
              "type": "bytes32"
            },
            {
              "internalType": "bool",
              "name": "hasEmailRecipient",
              "type": "bool"
            },
            {
              "internalType": "bytes32",
              "name": "recipientEmailAddrCommit",
              "type": "bytes32"
            },
            {
              "internalType": "uint256",
              "name": "numRecipientEmailAddrBytes",
              "type": "uint256"
            },
            {
              "internalType": "address",
              "name": "recipientETHAddr",
              "type": "address"
            },
            {
              "internalType": "string",
              "name": "command",
              "type": "string"
            },
            {
              "internalType": "bytes32",
              "name": "emailNullifier",
              "type": "bytes32"
            },
            {
              "internalType": "string",
              "name": "emailDomain",
              "type": "string"
            },
            {
              "internalType": "bytes32",
              "name": "dkimPublicKeyHash",
              "type": "bytes32"
            },
            {
              "internalType": "uint256",
              "name": "timestamp",
              "type": "uint256"
            },
            {
              "internalType": "string",
              "name": "maskedSubject",
              "type": "string"
            },
            {
              "internalType": "string",
              "name": "feeTokenName",
              "type": "string"
            },
            {
              "internalType": "uint256",
              "name": "feePerGas",
              "type": "uint256"
            },
            {
              "internalType": "bytes",
              "name": "executeCallData",
              "type": "bytes"
            },
            {
              "internalType": "string",
              "name": "extensionName",
              "type": "string"
            },
            {
              "internalType": "address",
              "name": "newWalletOwner",
              "type": "address"
            },
            {
              "internalType": "address",
              "name": "newDkimRegistry",
              "type": "address"
            },
            {
              "components": [
                {
                  "internalType": "string",
                  "name": "tokenName",
                  "type": "string"
                },
                {
                  "internalType": "uint256",
                  "name": "amount",
                  "type": "uint256"
                }
              ],
              "internalType": "struct WalletParams",
              "name": "walletParams",
              "type": "tuple"
            },
            {
              "components": [
                {
                  "internalType": "uint8",
                  "name": "subjectTemplateIndex",
                  "type": "uint8"
                },
                {
                  "internalType": "bytes[]",
                  "name": "subjectParams",
                  "type": "bytes[]"
                }
              ],
              "internalType": "struct ExtensionParams",
              "name": "extensionParams",
              "type": "tuple"
            },
            {
              "internalType": "bytes",
              "name": "emailProof",
              "type": "bytes"
            }
          ],
          "internalType": "struct EmailOp",
          "name": "emailOp",
          "type": "tuple"
        }
      ],
      "name": "handleEmailOp",
      "outputs": [
        {
          "internalType": "bool",
          "name": "success",
          "type": "bool"
        },
        {
          "internalType": "bytes",
          "name": "err",
          "type": "bytes"
        },
        {
          "internalType": "uint256",
          "name": "totalFeeInETH",
          "type": "uint256"
        },
        {
          "internalType": "uint256",
          "name": "registeredUnclaimId",
          "type": "uint256"
        }
      ],
      "stateMutability": "payable",
      "type": "function"
    },
    {
      "inputs": [
        {
          "internalType": "bytes[]",
          "name": "defaultExtensions",
          "type": "bytes[]"
        }
      ],
      "name": "initialize",
      "outputs": [],
      "stateMutability": "nonpayable",
      "type": "function"
    },
    {
      "inputs": [],
      "name": "maxFeePerGas",
      "outputs": [
        {
          "internalType": "uint256",
          "name": "",
          "type": "uint256"
        }
      ],
      "stateMutability": "view",
      "type": "function"
    },
    {
      "inputs": [],
      "name": "priceOracle",
      "outputs": [
        {
          "internalType": "contract IPriceOracle",
          "name": "",
          "type": "address"
        }
      ],
      "stateMutability": "view",
      "type": "function"
    },
    {
      "inputs": [
        {
          "internalType": "address",
          "name": "extensionAddr",
          "type": "address"
        },
        {
          "internalType": "bytes",
          "name": "state",
          "type": "bytes"
        }
      ],
      "name": "registerUnclaimedStateAsExtension",
      "outputs": [],
      "stateMutability": "nonpayable",
      "type": "function"
    },
    {
      "inputs": [],
      "name": "relayerHandler",
      "outputs": [
        {
          "internalType": "contract RelayerHandler",
          "name": "",
          "type": "address"
        }
      ],
      "stateMutability": "view",
      "type": "function"
    },
    {
      "inputs": [
        {
          "internalType": "address",
          "name": "tokenAddr",
          "type": "address"
        },
        {
          "internalType": "uint256",
          "name": "amount",
          "type": "uint256"
        }
      ],
      "name": "requestTokenAsExtension",
      "outputs": [],
      "stateMutability": "nonpayable",
      "type": "function"
    },
    {
      "inputs": [],
      "name": "tokenRegistry",
      "outputs": [
        {
          "internalType": "contract TokenRegistry",
          "name": "",
          "type": "address"
        }
      ],
      "stateMutability": "view",
      "type": "function"
    },
    {
      "inputs": [],
      "name": "unclaimedFundClaimGas",
      "outputs": [
        {
          "internalType": "uint256",
          "name": "",
          "type": "uint256"
        }
      ],
      "stateMutability": "view",
      "type": "function"
    },
    {
      "inputs": [],
      "name": "unclaimedStateClaimGas",
      "outputs": [
        {
          "internalType": "uint256",
          "name": "",
          "type": "uint256"
        }
      ],
      "stateMutability": "view",
      "type": "function"
    },
    {
      "inputs": [],
      "name": "unclaimsHandler",
      "outputs": [
        {
          "internalType": "contract UnclaimsHandler",
          "name": "",
          "type": "address"
        }
      ],
      "stateMutability": "view",
      "type": "function"
    },
    {
      "inputs": [
        {
          "components": [
            {
              "internalType": "bytes32",
              "name": "emailAddrPointer",
              "type": "bytes32"
            },
            {
              "internalType": "bool",
              "name": "hasEmailRecipient",
              "type": "bool"
            },
            {
              "internalType": "bytes32",
              "name": "recipientEmailAddrCommit",
              "type": "bytes32"
            },
            {
              "internalType": "uint256",
              "name": "numRecipientEmailAddrBytes",
              "type": "uint256"
            },
            {
              "internalType": "address",
              "name": "recipientETHAddr",
              "type": "address"
            },
            {
              "internalType": "string",
              "name": "command",
              "type": "string"
            },
            {
              "internalType": "bytes32",
              "name": "emailNullifier",
              "type": "bytes32"
            },
            {
              "internalType": "string",
              "name": "emailDomain",
              "type": "string"
            },
            {
              "internalType": "bytes32",
              "name": "dkimPublicKeyHash",
              "type": "bytes32"
            },
            {
              "internalType": "uint256",
              "name": "timestamp",
              "type": "uint256"
            },
            {
              "internalType": "string",
              "name": "maskedSubject",
              "type": "string"
            },
            {
              "internalType": "string",
              "name": "feeTokenName",
              "type": "string"
            },
            {
              "internalType": "uint256",
              "name": "feePerGas",
              "type": "uint256"
            },
            {
              "internalType": "bytes",
              "name": "executeCallData",
              "type": "bytes"
            },
            {
              "internalType": "string",
              "name": "extensionName",
              "type": "string"
            },
            {
              "internalType": "address",
              "name": "newWalletOwner",
              "type": "address"
            },
            {
              "internalType": "address",
              "name": "newDkimRegistry",
              "type": "address"
            },
            {
              "components": [
                {
                  "internalType": "string",
                  "name": "tokenName",
                  "type": "string"
                },
                {
                  "internalType": "uint256",
                  "name": "amount",
                  "type": "uint256"
                }
              ],
              "internalType": "struct WalletParams",
              "name": "walletParams",
              "type": "tuple"
            },
            {
              "components": [
                {
                  "internalType": "uint8",
                  "name": "subjectTemplateIndex",
                  "type": "uint8"
                },
                {
                  "internalType": "bytes[]",
                  "name": "subjectParams",
                  "type": "bytes[]"
                }
              ],
              "internalType": "struct ExtensionParams",
              "name": "extensionParams",
              "type": "tuple"
            },
            {
              "internalType": "bytes",
              "name": "emailProof",
              "type": "bytes"
            }
          ],
          "internalType": "struct EmailOp",
          "name": "emailOp",
          "type": "tuple"
        }
      ],
      "name": "validateEmailOp",
      "outputs": [],
      "stateMutability": "view",
      "type": "function"
    },
    {
      "inputs": [],
      "name": "verifier",
      "outputs": [
        {
          "internalType": "contract IVerifier",
          "name": "",
          "type": "address"
        }
      ],
      "stateMutability": "view",
      "type": "function"
    },
    {
      "inputs": [],
      "name": "wethContract",
      "outputs": [
        {
          "internalType": "address",
          "name": "",
          "type": "address"
        }
      ],
      "stateMutability": "view",
      "type": "function"
    },
    {
      "stateMutability": "payable",
      "type": "receive"
    }
  ],
  "bytecode": {
    "object": "0x6101806040523480156200001257600080fd5b5060405162004b8538038062004b858339810160408190526200003591620000d8565b600080546001600160a01b03199081166001600160a01b039e8f16179091556001805482169c8e169c909c17909b55600280548c169a8d169a909a1790995560038054909a16978b169790971790985593881660805291871660a052861660c05290941660e05261010093909352610120919091526101409190915261016052620001a9565b80516001600160a01b0381168114620000d357600080fd5b919050565b6000806000806000806000806000806000806101808d8f031215620000fc57600080fd5b620001078d620000bb565b9b506200011760208e01620000bb565b9a506200012760408e01620000bb565b99506200013760608e01620000bb565b98506200014760808e01620000bb565b97506200015760a08e01620000bb565b96506200016760c08e01620000bb565b95506200017760e08e01620000bb565b94506101008d015193506101208d015192506101408d015191506101608d015190509295989b509295989b509295989b565b60805160a05160c05160e051610100516101205161014051610160516148dc620002a9600039600081816103d80152818161087d0152818161091201526109780152600081816102f0015281816106f90152818161078d01526107f301526000818161040c01526113e30152600081816101e6015281816106d80152818161076c015281816107d20152818161085c015281816108f10152818161095701526115ad01526000818161027c0152611ffb0152600081816101a50152612f0101526000818161036401528181610b1101528181610e6201528181611dfb01528181612a410152612e5b0152600081816102280152611a1a01526148dc6000f3fe6080604052600436106100f35760003560e01c80631377df441461010757806317ace6b51461013357806321d71c8f146101735780632630c12f146101935780632728bf2c146101d45780632b7ac3f31461021657806333ddfb9a1461024a5780634780eac11461026a5780635e5f26101461029e57806365a345ac146102be57806366221734146102de5780636f2de70e1461031257806375af3217146103325780639d23c4c7146103525780639f6d1d8314610386578063a3964475146103a6578063a87fedae146103c6578063b90d36f9146103fa578063c9af3f1c1461042e578063d5e5c1c81461044e576100fd565b366100fd57600080fd5b61010561046e565b005b61011a6101153660046134a1565b610506565b60405161012a9493929190613533565b60405180910390f35b34801561013f57600080fd5b5061016361014e366004613561565b60046020526000908152604090205460ff1681565b604051901515815260200161012a565b34801561017f57600080fd5b5061010561018e36600461359f565b610cae565b34801561019f57600080fd5b506101c77f000000000000000000000000000000000000000000000000000000000000000081565b60405161012a9190613630565b3480156101e057600080fd5b506102087f000000000000000000000000000000000000000000000000000000000000000081565b60405190815260200161012a565b34801561022257600080fd5b506101c77f000000000000000000000000000000000000000000000000000000000000000081565b34801561025657600080fd5b506001546101c7906001600160a01b031681565b34801561027657600080fd5b506101c77f000000000000000000000000000000000000000000000000000000000000000081565b3480156102aa57600080fd5b506000546101c7906001600160a01b031681565b3480156102ca57600080fd5b506101056102d9366004613644565b610f93565b3480156102ea57600080fd5b506102087f000000000000000000000000000000000000000000000000000000000000000081565b34801561031e57600080fd5b5061010561032d366004613670565b611182565b34801561033e57600080fd5b5061010561034d366004613644565b6111e2565b34801561035e57600080fd5b506101c77f000000000000000000000000000000000000000000000000000000000000000081565b34801561039257600080fd5b506003546101c7906001600160a01b031681565b3480156103b257600080fd5b506101056103c1366004613b85565b611228565b3480156103d257600080fd5b506102087f000000000000000000000000000000000000000000000000000000000000000081565b34801561040657600080fd5b506102087f000000000000000000000000000000000000000000000000000000000000000081565b34801561043a57600080fd5b5061010561044936600461359f565b611ba6565b34801561045a57600080fd5b506002546101c7906001600160a01b031681565b36610477573636f35b6000805b8036821061048957506104e5565b600180830192600319810190351860001a90816104d557600019855260028301933560021984011860001a607f8082116104c4578282013888395b1694909401909301925061047b9050565b818553808501945050505061047b565b50600080826000305af490503d6000803e80610500573d6000fd5b503d6000f35b600554600090606090829081906001600160a01b0316156105645760405162461bcd60e51b815260206004820152601360248201527218dbdb9d195e1d08185b1c9958591e481cd95d606a1b60448201526064015b60405180910390fd5b60005a6040878101356008556001549051629316e960e11b8152883560048201529192506001600160a01b0316906301262dd290602401602060405180830381865afa1580156105b8573d6000803e3d6000fd5b505050506040513d601f19601f820116820180604052508101906105dc9190613bb9565b600580546001600160a01b0319166001600160a01b03929092169190911790556106086103c187613bd6565b60c08601356000908152600460205260409020805460ff1916600117905561063761063287613bd6565b611da6565b6006549196509450600160a01b900460ff16801561065e5750600654600160a81b900460ff165b156106c15760405162461bcd60e51b815260206004820152602d60248201527f63616e6e6f7420726567697374657220626f746820756e636c61696d6564206660448201526c756e6420616e6420737461746560981b606482015260840161055b565b600654600160a01b900460ff16156108455761071d7f00000000000000000000000000000000000000000000000000000000000000007f0000000000000000000000000000000000000000000000000000000000000000613bf8565b34146107675760405162461bcd60e51b8152602060048201526025602482015260008051602061488783398151915260448201526408199d5b9960da1b606482015260840161055b565b6107b17f00000000000000000000000000000000000000000000000000000000000000007f0000000000000000000000000000000000000000000000000000000000000000613bf8565b6107bb9084613c0f565b6002549093506001600160a01b03166108fc6108177f00000000000000000000000000000000000000000000000000000000000000007f0000000000000000000000000000000000000000000000000000000000000000613bf8565b6040518115909202916000818181858888f1935050505015801561083f573d6000803e3d6000fd5b50610a52565b600654600160a81b900460ff161561099c576108a17f00000000000000000000000000000000000000000000000000000000000000007f0000000000000000000000000000000000000000000000000000000000000000613bf8565b34146108ec5760405162461bcd60e51b8152602060048201526026602482015260008051602061488783398151915260448201526520737461746560d01b606482015260840161055b565b6109367f00000000000000000000000000000000000000000000000000000000000000007f0000000000000000000000000000000000000000000000000000000000000000613bf8565b6109409084613c0f565b6002549093506001600160a01b03166108fc6108177f00000000000000000000000000000000000000000000000000000000000000007f0000000000000000000000000000000000000000000000000000000000000000613bf8565b60075415610a245760405162461bcd60e51b815260206004820152604960248201527f72656769737465726564556e636c61696d4964206d757374206265207a65726f60448201527f206966206e6f20756e636c61696d65642066756e642f737461746520697320726064820152681959da5cdd195c995960ba1b608482015260a40161055b565b60405133903480156108fc02916000818181858888f19350505050158015610a50573d6000803e3d6000fd5b505b600754915061d6d86000815a610a689085613c22565b610a729190613c0f565b9050610a8361018089013582613bf8565b610a8d9086613c0f565b94506000610adc610aa26101608b018b613c35565b8080601f016020809104026020016040519081016040528093929190818152602001838380828437600092019190915250612d7792505050565b90506000670de0b6b3a7640000610af38389613bf8565b610afd9190613c82565b90508015610c0a5760006001600160a01b037f00000000000000000000000000000000000000000000000000000000000000001663c4091236610b446101608e018e613c35565b6040518363ffffffff1660e01b8152600401610b61929190613ccd565b602060405180830381865afa158015610b7e573d6000803e3d6000fd5b505050506040513d601f19601f82011682018060405250810190610ba29190613bb9565b6005549091506000908190610bc2906001600160a01b0316338587612f7f565b915091508181604051602001610bd89190613ce1565b60405160208183030381529060405290610c055760405162461bcd60e51b815260040161055b9190613d23565b505050505b600580546001600160a01b031916905560006008819055600680546001600160b01b03191690556007819055610c4290600990613453565b8960c00135868a15157fb5144465dc165f0fdb939cd27dbf83aac1199241a737482d2fc25624328c7a188d600001358e604001358f6080016020810190610c899190613d36565b8e604051610c9a9493929190613d53565b60405180910390a450505050509193509193565b6006546001600160a01b03163314610cd85760405162461bcd60e51b815260040161055b90613d8a565b6001600160a01b0383163014801590610cff57506002546001600160a01b03848116911614155b8015610d1957506001546001600160a01b03848116911614155b8015610d3357506000546001600160a01b03848116911614155b8015610d4d57506003546001600160a01b03848116911614155b610da35760405162461bcd60e51b815260206004820152602160248201527f7461726765742063616e6e6f7420626520636f7265206f722068616e646c65726044820152607360f81b606482015260840161055b565b610dac836131d2565b610df35760405162461bcd60e51b81526020600482015260186024820152771d185c99d95d081a5cc81b9bdd08184818dbdb9d1c9858dd60421b604482015260640161055b565b6005546001600160a01b0390811690841603610e4b5760405162461bcd60e51b81526020600482015260176024820152761d185c99d95d0818d85b9b9bdd081899481dd85b1b195d604a1b604482015260640161055b565b6040516359ccef2760e11b81526001600160a01b037f0000000000000000000000000000000000000000000000000000000000000000169063b399de4e90610e97908690600401613630565b600060405180830381865afa158015610eb4573d6000803e3d6000fd5b505050506040513d6000823e601f3d908101601f19168201604052610edc9190810190613e25565b5115610f255760405162461bcd60e51b81526020600482015260186024820152773a30b933b2ba1031b0b73737ba1031329030903a37b5b2b760411b604482015260640161055b565b600554604051635b0e93fb60e11b81526001600160a01b039091169063b61d27f690610f5c90869060009087908790600401613e59565b600060405180830381600087803b158015610f7657600080fd5b505af1158015610f8a573d6000803e3d6000fd5b50505050505050565b6006546001600160a01b03163314610fbd5760405162461bcd60e51b815260040161055b90613d8a565b60005b60095481101561113557826001600160a01b031660056004018281548110610fea57610fea613e81565b60009182526020909120600290910201546001600160a01b03160361112357816005600401828154811061102057611020613e81565b90600052602060002090600202016001015410156110795760405162461bcd60e51b8152602060048201526016602482015275696e73756666696369656e7420616c6c6f77616e636560501b604482015260640161055b565b816005600401828154811061109057611090613e81565b906000526020600020906002020160010160008282546110b09190613c22565b909155505060055460065460009182916110d8916001600160a01b0390811691168787612f7f565b9150915081816040516020016110ee9190613e97565b6040516020818303038152906040529061111b5760405162461bcd60e51b815260040161055b9190613d23565b505050505050565b8061112d81613ed5565b915050610fc0565b5060405162461bcd60e51b815260206004820181905260248201527f6e6f20616c6c6f77616e636520666f722072657175657374656420746f6b656e604482015260640161055b565b5050565b60035460405163f884630b60e01b81526001600160a01b039091169063f884630b906111b49085908590600401613eee565b600060405180830381600087803b1580156111ce57600080fd5b505af115801561111b573d6000803e3d6000fd5b6006546001600160a01b0316331461120c5760405162461bcd60e51b815260040161055b90613d8a565b60055461117e906001600160a01b0384811691339116846131e1565b6001548151604051635d2c8d1b60e11b815260048101919091526000916001600160a01b031690636b0f047d90829063ba591a3690602401602060405180830381865afa15801561127d573d6000803e3d6000fd5b505050506040513d601f19601f820116820180604052508101906112a19190613f89565b6040518263ffffffff1660e01b81526004016112bf91815260200190565b606060405180830381865afa1580156112dc573d6000803e3d6000fd5b505050506040513d601f19601f820116820180604052508101906113009190613fa2565b80519091506001600160a01b0316331461134e5760405162461bcd60e51b815260206004820152600f60248201526e34b73b30b634b2103932b630bcb2b960891b604482015260640161055b565b80602001516113995760405162461bcd60e51b81526020600482015260176024820152761858d8dbdd5b9d081b9bdd081a5b9a5d1a585b1a5e9959604a1b604482015260640161055b565b60408101516113e05760405162461bcd60e51b81526020600482015260136024820152721dd85b1b195d081cd85b1d081b9bdd081cd95d606a1b604482015260640161055b565b427f00000000000000000000000000000000000000000000000000000000000000008361012001516114129190613c0f565b1161144f5760405162461bcd60e51b815260206004820152600d60248201526c195b585a5b08195e1c1a5c9959609a1b604482015260640161055b565b60008054604051630fd5856960e21b81526001600160a01b0390911690633f5615a490611480903390600401613630565b602060405180830381865afa15801561149d573d6000803e3d6000fd5b505050506040513d601f19601f820116820180604052508101906114c19190613f89565b036115075760405162461bcd60e51b81526020600482015260166024820152751c995b185e595c881b9bdd081c9959da5cdd195c995960521b604482015260640161055b565b8160a00151516000036115565760405162461bcd60e51b8152602060048201526017602482015276636f6d6d616e642063616e6e6f7420626520656d70747960481b604482015260640161055b565b611564826101600151612d77565b6000036115ab5760405162461bcd60e51b81526020600482015260156024820152743ab739bab83837b93a32b2103332b2903a37b5b2b760591b604482015260640161055b565b7f000000000000000000000000000000000000000000000000000000000000000082610180015111156116175760405162461bcd60e51b81526020600482015260146024820152730cccaca40e0cae440cec2e640e8dede40d0d2ced60631b604482015260640161055b565b60c082015160009081526004602052604090205460ff161561164b5760405162461bcd60e51b815260040161055b9061400c565b60015460c08301516040516317ace6b560e01b81526001600160a01b03909216916317ace6b5916116829160040190815260200190565b602060405180830381865afa15801561169f573d6000803e3d6000fd5b505050506040513d601f19601f820116820180604052508101906116c39190614035565b156116e05760405162461bcd60e51b815260040161055b9061400c565b60015460408083015160e08501516101008601519251636c21242760e11b81526001600160a01b039094169363d842484e93611720939291600401614052565b602060405180830381865afa15801561173d573d6000803e3d6000fd5b505050506040513d601f19601f820116820180604052508101906117619190614035565b6117a75760405162461bcd60e51b8152602060048201526017602482015276696e76616c696420444b494d207075626c6963206b657960481b604482015260640161055b565b81602001511561186d5760808201516001600160a01b03161561180c5760405162461bcd60e51b815260206004820181905260248201527f63616e6e6f74206861766520626f746820726563697069656e74207479706573604482015260640161055b565b60408201516118685760405162461bcd60e51b815260206004820152602260248201527f726563697069656e74456d61696c41646472436f6d6d6974206e6f7420666f756044820152611b9960f21b606482015260840161055b565b6118cb565b6040820151156118cb5760405162461bcd60e51b8152602060048201526024808201527f726563697069656e74456d61696c41646472436f6d6d6974206e6f7420616c6c6044820152631bddd95960e21b606482015260840161055b565b6001546040808301519051632b3263c760e11b815260009273__$a4c672e1ff4582c439378a74443bfb54da$__926330a2cc129287926001600160a01b031691635664c78e91611922919060040190815260200190565b602060405180830381865afa15801561193f573d6000803e3d6000fd5b505050506040513d601f19601f820116820180604052508101906119639190613bb9565b306040518463ffffffff1660e01b815260040161198293929190614117565b600060405180830381865af415801561199f573d6000803e3d6000fd5b505050506040513d6000823e601f3d908101601f191682016040526119c791908101906142fd565b5090506119d981846101400151613241565b816040516020016119ea919061434e565b60405160208183030381529060405290611a175760405162461bcd60e51b815260040161055b9190613d23565b507f00000000000000000000000000000000000000000000000000000000000000006001600160a01b031663b4fe57928460e001518561010001518661012001518761014001518860c0015160008054906101000a90046001600160a01b03166001600160a01b0316633f5615a4336040518263ffffffff1660e01b8152600401611aa29190613630565b602060405180830381865afa158015611abf573d6000803e3d6000fd5b505050506040513d601f19601f82011682018060405250810190611ae39190613f89565b8a5160208c01516040808e01516102608f015191516001600160e01b031960e08d901b168152611b1e9a999897969594939290600401614381565b602060405180830381865afa158015611b3b573d6000803e3d6000fd5b505050506040513d601f19601f82011682018060405250810190611b5f9190614035565b611ba15760405162461bcd60e51b815260206004820152601360248201527234b73b30b634b21032b6b0b4b610383937b7b360691b604482015260640161055b565b505050565b600354604051630bc75f7760e21b81526001600160a01b0390911690632f1d7ddc90611bd6908690600401613630565b602060405180830381865afa158015611bf3573d6000803e3d6000fd5b505050506040513d601f19601f82011682018060405250810190611c179190613f89565b600003611c5a5760405162461bcd60e51b815260206004820152601160248201527034b73b30b634b21032bc3a32b739b4b7b760791b604482015260640161055b565b6006546001600160a01b03163314611cab5760405162461bcd60e51b815260206004820152601460248201527331b0b63632b9103737ba1032bc3a32b739b4b7b760611b604482015260640161055b565b600654600160a81b900460ff1615611cfe5760405162461bcd60e51b8152602060048201526016602482015275756e636c61696d65642073746174652065786973747360501b604482015260640161055b565b60068054600160a81b60ff60a81b1982161790915560025460055460085460405163def27db760e01b81526001600160a01b039384169463def27db794611d5b948a949082169390928a928a9291811690871614906004016143fc565b6020604051808303816000875af1158015611d7a573d6000803e3d6000fd5b505050506040513d601f19601f82011682018060405250810190611d9e9190613f89565b600755505050565b60006060611dd48360a001516040518060400160405280600481526020016314d95b9960e21b815250613241565b1561217f576102208301518051604051636204891b60e11b81526000916001600160a01b037f0000000000000000000000000000000000000000000000000000000000000000169163c409123691611e2e91600401613d23565b602060405180830381865afa158015611e4b573d6000803e3d6000fd5b505050506040513d601f19601f82011682018060405250810190611e6f9190613bb9565b9050846020015115611f5b576005546002546020840151611e9f926001600160a01b039081169216908490612f7f565b909450925083611eb0575050915091565b6006805460ff60a01b1916600160a01b17905560025460055460408781015160208601519151631bae92f760e01b81526001600160a01b039384166004820152602481019190915284831660448201526064810191909152911690631bae92f7906084016020604051808303816000875af1158015611f33573d6000803e3d6000fd5b505050506040513d601f19601f82011682018060405250810190611f579190613f89565b6007555b846020015161217857611f92856102200151600001516040518060400160405280600381526020016208aa8960eb1b815250613241565b1561214f576005546020838101516040805160248082019390935281518082039093018352604401815291810180516001600160e01b0316632e1a7d4d60e01b1790529051635b0e93fb60e11b81526001600160a01b0390921691829163b61d27f691612027917f00000000000000000000000000000000000000000000000000000000000000009160009190600401614445565b600060405180830381600087803b15801561204157600080fd5b505af1925050508015612052575060015b6120c85761205e614475565b806308c379a0036120885750612072614491565b8061207d575061208a565b600095509350612149565b505b600094506040518060400160405280601a8152602001790cae4e440c6dedceccae4e8d2dcce40ae8aa89040e8de408aa8960331b8152509350612149565b60808601516020840151604051635b0e93fb60e11b81526001600160a01b039283166004820152602481019190915260606044820152600060648201529082169063b61d27f690608401600060405180830381600087803b15801561212c57600080fd5b505af1158015612140573d6000803e3d6000fd5b50505050600194505b50612178565b60055460808601516020840151612172926001600160a01b031691908490612f7f565b90945092505b5050915091565b6121ac8360a00151604051806040016040528060078152602001664578656375746560c81b815250613241565b156122ba576000806000856101a001518060200190518101906121cf919061451a565b600554604051635b0e93fb60e11b815293965091945092506001600160a01b03169063b61d27f69061220990869086908690600401614445565b600060405180830381600087803b15801561222357600080fd5b505af1925050508015612234575060015b6122ad57612240614475565b806308c379a00361226a5750612254614491565b8061225f575061226c565b6000955093506122b2565b505b600094506040518060400160405280602081526020017f65727220657865637574696e672063616c6c64617461206f6e2077616c6c657481525093506122b2565b600194505b505050915091565b6122e78360a0015160405180604001604052806007815260200166125b9cdd185b1b60ca1b815250613241565b15612459576003546101c08401516040516349fc3c2160e11b81526000926001600160a01b0316916393f87842916123229190600401613d23565b602060405180830381865afa15801561233f573d6000803e3d6000fd5b505050506040513d601f19601f820116820180604052508101906123639190613bb9565b6003546040516393ec497160e01b81529192506000916001600160a01b03909116906393ec49719061239d90859085908190600401614587565b600060405180830381865afa1580156123ba573d6000803e3d6000fd5b505050506040513d6000823e601f3d908101601f191682016040526123e29190810190613e25565b60035460055460405163f1fbbba160e01b81529293506001600160a01b039182169263f1fbbba19261241c921690859087906004016145a8565b600060405180830381600087803b15801561243657600080fd5b505af115801561244a573d6000803e3d6000fd5b50505050600193505050915091565b6124888360a0015160405180604001604052806009815260200168155b9a5b9cdd185b1b60ba1b815250613241565b156125be576003546101c08401516040516349fc3c2160e11b81526000926001600160a01b0316916393f87842916124c39190600401613d23565b602060405180830381865afa1580156124e0573d6000803e3d6000fd5b505050506040513d601f19601f820116820180604052508101906125049190613bb9565b6003546040516393ec497160e01b81529192506000916001600160a01b03909116906393ec49719061253e90859085908190600401614587565b600060405180830381865afa15801561255b573d6000803e3d6000fd5b505050506040513d6000823e601f3d908101601f191682016040526125839190810190613e25565b60035460055460405163f1fbbba160e01b81529293506001600160a01b039182169263f1fbbba19261241c92169085906000906004016145a8565b6125e88360a0015160405180604001604052806004815260200163115e1a5d60e21b815250613241565b156126b1576005546101e084015160405163f2fde38b60e01b81526001600160a01b039092169163f2fde38b9161262191600401613630565b600060405180830381600087803b15801561263b57600080fd5b505af192505050801561264c575060015b6126a857612658614475565b806308c379a003612682575061266c614491565b806126775750612684565b600092509050915091565b505b6000915060405180606001604052806029815260200161485e602991399050915091565b60019150915091565b6126db8360a0015160405180604001604052806004815260200163444b494d60e01b815250613241565b1561283c576001548351604051635d2c8d1b60e11b815260048101919091526000916001600160a01b03169063ba591a3690602401602060405180830381865afa15801561272d573d6000803e3d6000fd5b505050506040513d601f19601f820116820180604052508101906127519190613f89565b600154604051636b0f047d60e01b8152600481018390529192506001600160a01b0316906340d20041908290636b0f047d90602401606060405180830381865afa1580156127a3573d6000803e3d6000fd5b505050506040513d601f19601f820116820180604052508101906127c79190613fa2565b604001518661020001516040518363ffffffff1660e01b81526004016128009291909182526001600160a01b0316602082015260400190565b600060405180830381600087803b15801561281a57600080fd5b505af115801561282e573d6000803e3d6000fd5b505050506001925050915091565b60035460055460a0850151604051637043541160e11b81526000936001600160a01b039081169363e086a8229361287a9392909116916004016145dd565b602060405180830381865afa158015612897573d6000803e3d6000fd5b505050506040513d601f19601f820116820180604052508101906128bb9190613bb9565b600680546001600160a01b0319166001600160a01b03838116919091179091556003546040516336fdf1af60e11b815292935060009283929190911690636dfbe35e9061290c908690600401613630565b600060405180830381865afa158015612929573d6000803e3d6000fd5b505050506040513d6000823e601f3d908101601f191682016040526129519190810190614601565b8661024001516000015160ff168151811061296e5761296e613e81565b6020026020010151905060005b81518160ff161015612c1c576000828260ff168151811061299e5761299e613e81565b602002602001015190506129d7816040518060400160405280600d81526020016c7b746f6b656e416d6f756e747d60981b815250613241565b15612b1057600080896102400151602001518660ff16815181106129fd576129fd613e81565b6020026020010151806020019051810190612a189190614740565b6040805180820191829052636204891b60e11b9091529193509150600990806001600160a01b037f00000000000000000000000000000000000000000000000000000000000000001663c4091236612a738660448501613d23565b602060405180830381865afa158015612a90573d6000803e3d6000fd5b505050506040513d601f19601f82011682018060405250810190612ab49190613bb9565b6001600160a01b0390811682526020918201869052835460018082018655600095865294839020845160029092020180546001600160a01b0319169190921617815591015191015585612b0681614787565b9650505050612c09565b612b3a81604051806040016040528060088152602001677b616d6f756e747d60c01b815250613241565b80612b6a5750612b6a81604051806040016040528060088152602001677b737472696e677d60c01b815250613241565b80612b985750612b9881604051806040016040528060068152602001657b75696e747d60d01b815250613241565b80612bc55750612bc581604051806040016040528060058152602001647b696e747d60d81b815250613241565b80612bf65750612bf681604051806040016040528060098152602001687b616464726573737d60b81b815250613241565b15612c095783612c0581614787565b9450505b5080612c1481614787565b91505061297b565b50600354604051630bc75f7760e21b81526001600160a01b038086169263e93977e892911690632f1d7ddc90612c56908890600401613630565b602060405180830381865afa158015612c73573d6000803e3d6000fd5b505050506040513d601f19601f82011682018060405250810190612c979190613f89565b6102408901518051602091820151600554928c015160808d015160c08e01516040516001600160e01b031960e08a901b168152612ce3966001600160a01b0316939291906004016147a6565b600060405180830381600088803b158015612cfd57600080fd5b5087f193505050508015612d0f575060015b6122ad57612d1b614475565b806308c379a003612d3a5750612d2f614491565b8061225f5750612d3c565b505b600094506040518060400160405280601781526020017632b9391032bc32b1baba34b7339032bc3a32b739b4b7b760491b81525093506122b2565b6000612d9e826040518060400160405280600381526020016208aa8960eb1b815250613241565b80612dca5750612dca82604051806040016040528060048152602001630ae8aa8960e31b815250613241565b15612dde5750670de0b6b3a7640000919050565b6000612e05836040518060400160405280600381526020016244414960e81b815250613241565b80612e315750612e3183604051806040016040528060048152602001635553444360e01b815250613241565b905080612e415750600092915050565b604051636204891b60e11b81526000906001600160a01b037f0000000000000000000000000000000000000000000000000000000000000000169063c409123690612e90908790600401613d23565b602060405180830381865afa158015612ead573d6000803e3d6000fd5b505050506040513d601f19601f82011682018060405250810190612ed19190613bb9565b90506001600160a01b038116612eeb575060009392505050565b6040516230afb560e31b81526001600160a01b037f000000000000000000000000000000000000000000000000000000000000000016906301857da890612f36908490600401613630565b602060405180830381865afa158015612f53573d6000803e3d6000fd5b505050506040513d601f19601f82011682018060405250810190612f779190613f89565b949350505050565b600060606001600160a01b038416612fd15760405162461bcd60e51b8152602060048201526015602482015274696e76616c696420746f6b656e206164647265737360581b604482015260640161055b565b600083116130125760405162461bcd60e51b815260206004820152600e60248201526d1a5b9d985b1a5908185b5bdd5b9d60921b604482015260640161055b565b6001600160a01b0386166130615760405162461bcd60e51b8152602060048201526016602482015275696e76616c69642073656e646572206164647265737360501b604482015260640161055b565b6001600160a01b0385166130b35760405162461bcd60e51b8152602060048201526019602482015278696e76616c696420726563697069656e74206164647265737360381b604482015260640161055b565b604080516001600160a01b038781166024830152604480830187905283518084039091018152606490920183526020820180516001600160e01b031663a9059cbb60e01b1790529151635b0e93fb60e11b8152889283169163b61d27f69161312391899160009190600401614445565b600060405180830381600087803b15801561313d57600080fd5b505af192505050801561314e575060015b6131c35761315a614475565b806308c379a003613186575061316e614491565b806131795750613188565b6000935091506131c99050565b505b50506040805180820190915260198152783ab735b737bbb7103bb0b63632ba1032bc32b19032b93937b960391b6020820152600091506131c9565b60019250505b94509492505050565b6001600160a01b03163b151590565b604080516001600160a01b0385811660248301528416604482015260648082018490528251808303909101815260849091019091526020810180516001600160e01b03166323b872dd60e01b17905261323b90859061325d565b50505050565b6000818051906020012083805190602001201490505b92915050565b60006132b2826040518060400160405280602081526020017f5361666545524332303a206c6f772d6c6576656c2063616c6c206661696c6564815250856001600160a01b03166133329092919063ffffffff16565b90508051600014806132d35750808060200190518101906132d39190614035565b611ba15760405162461bcd60e51b815260206004820152602a60248201527f5361666545524332303a204552433230206f7065726174696f6e20646964206e6044820152691bdd081cdd58d8d9595960b21b606482015260840161055b565b6060612f77848460008585600080866001600160a01b031685876040516133599190614841565b60006040518083038185875af1925050503d8060008114613396576040519150601f19603f3d011682016040523d82523d6000602084013e61339b565b606091505b50915091506133ac878383876133b7565b979650505050505050565b6060831561342457825160000361341d576133d1856131d2565b61341d5760405162461bcd60e51b815260206004820152601d60248201527f416464726573733a2063616c6c20746f206e6f6e2d636f6e7472616374000000604482015260640161055b565b5081612f77565b612f7783838151156134395781518083602001fd5b8060405162461bcd60e51b815260040161055b9190613d23565b50805460008255600202906000526020600020908101906134749190613477565b50565b5b8082111561349d5780546001600160a01b031916815560006001820155600201613478565b5090565b6000602082840312156134b357600080fd5b81356001600160401b038111156134c957600080fd5b820161028081850312156134dc57600080fd5b9392505050565b60005b838110156134fe5781810151838201526020016134e6565b50506000910152565b6000815180845261351f8160208601602086016134e3565b601f01601f19169290920160200192915050565b841515815260806020820152600061354e6080830186613507565b6040830194909452506060015292915050565b60006020828403121561357357600080fd5b5035919050565b6001600160a01b038116811461347457600080fd5b803561359a8161357a565b919050565b6000806000604084860312156135b457600080fd5b83356135bf8161357a565b925060208401356001600160401b03808211156135db57600080fd5b818601915086601f8301126135ef57600080fd5b8135818111156135fe57600080fd5b87602082850101111561361057600080fd5b6020830194508093505050509250925092565b6001600160a01b03169052565b6001600160a01b0391909116815260200190565b6000806040838503121561365757600080fd5b82356136628161357a565b946020939093013593505050565b6000806020838503121561368357600080fd5b82356001600160401b038082111561369a57600080fd5b818501915085601f8301126136ae57600080fd5b8135818111156136bd57600080fd5b8660208260051b85010111156136d257600080fd5b60209290920196919550909350505050565b634e487b7160e01b600052604160045260246000fd5b604081016001600160401b0381118282101715613719576137196136e4565b60405250565b601f8201601f191681016001600160401b0381118282101715613744576137446136e4565b6040525050565b60405161028081016001600160401b038111828210171561376e5761376e6136e4565b60405290565b801515811461347457600080fd5b803561359a81613774565b60006001600160401b038211156137a6576137a66136e4565b50601f01601f191660200190565b600082601f8301126137c557600080fd5b81356137d08161378d565b6040516137dd828261371f565b8281528560208487010111156137f257600080fd5b82602086016020830137600092810160200192909252509392505050565b60006040828403121561382257600080fd5b60405161382e816136fa565b90508082356001600160401b0381111561384757600080fd5b613853858286016137b4565b825250602083013560208201525092915050565b60006001600160401b03821115613880576138806136e4565b5060051b60200190565b60006040828403121561389c57600080fd5b6040516138a8816136fa565b809150823560ff811681146138bc57600080fd5b81526020838101356001600160401b03808211156138d957600080fd5b818601915086601f8301126138ed57600080fd5b81356138f881613867565b604051613905828261371f565b82815260059290921b840185019185810191508983111561392557600080fd5b8585015b8381101561395d578035858111156139415760008081fd5b61394f8c89838a01016137b4565b845250918601918601613929565b5080868801525050505050505092915050565b6000610280828403121561398357600080fd5b61398b61374b565b90508135815261399d60208301613782565b602082015260408201356040820152606082013560608201526139c26080830161358f565b608082015260a08201356001600160401b03808211156139e157600080fd5b6139ed858386016137b4565b60a084015260c084013560c084015260e0840135915080821115613a1057600080fd5b613a1c858386016137b4565b60e08401526101008481013590840152610120808501359084015261014091508184013581811115613a4d57600080fd5b613a59868287016137b4565b838501525061016091508184013581811115613a7457600080fd5b613a80868287016137b4565b8385015250610180915081840135828401526101a091508184013581811115613aa857600080fd5b613ab4868287016137b4565b83850152506101c091508184013581811115613acf57600080fd5b613adb868287016137b4565b83850152506101e09150613af082850161358f565b828401526102009150613b0482850161358f565b8284015261022091508184013581811115613b1e57600080fd5b613b2a86828701613810565b838501525061024091508184013581811115613b4557600080fd5b613b518682870161388a565b838501525061026091508184013581811115613b6c57600080fd5b613b78868287016137b4565b8385015250505092915050565b600060208284031215613b9757600080fd5b81356001600160401b03811115613bad57600080fd5b612f7784828501613970565b600060208284031215613bcb57600080fd5b81516134dc8161357a565b60006132573683613970565b634e487b7160e01b600052601160045260246000fd5b808202811582820484141761325757613257613be2565b8082018082111561325757613257613be2565b8181038181111561325757613257613be2565b6000808335601e19843603018112613c4c57600080fd5b8301803591506001600160401b03821115613c6657600080fd5b602001915036819003821315613c7b57600080fd5b9250929050565b600082613c9f57634e487b7160e01b600052601260045260246000fd5b500490565b81835281816020850137506000828201602090810191909152601f909101601f19169091010190565b602081526000612f77602083018486613ca4565b7903332b2903932b4b6b13ab939b2b6b2b73a103330b4b632b21d160351b815260008251613d1681601a8501602087016134e3565b91909101601a0192915050565b6020815260006134dc6020830184613507565b600060208284031215613d4857600080fd5b81356134dc8161357a565b84815283602082015260018060a01b0383166040820152608060608201526000613d806080830184613507565b9695505050505050565b6020808252601f908201527f63616c6c6572206e6f7420657874656e73696f6e20696e20636f6e7465787400604082015260600190565b6000613dcc8361378d565b604051613dd9828261371f565b809250848152858585011115613dee57600080fd5b613dfc8560208301866134e3565b50509392505050565b600082601f830112613e1657600080fd5b6134dc83835160208501613dc1565b600060208284031215613e3757600080fd5b81516001600160401b03811115613e4d57600080fd5b612f7784828501613e05565b60018060a01b0385168152836020820152606060408201526000613d80606083018486613ca4565b634e487b7160e01b600052603260045260246000fd5b7503932b8bab2b9ba103a37b5b2b7103330b4b632b21d160551b815260008251613ec88160168501602087016134e3565b9190910160160192915050565b600060018201613ee757613ee7613be2565b5060010190565b60208082528181018390526000906040600585901b8401810190840186845b87811015613f7c57868403603f190183528135368a9003601e19018112613f3357600080fd5b890185810190356001600160401b03811115613f4e57600080fd5b803603821315613f5d57600080fd5b613f68868284613ca4565b955050509184019190840190600101613f0d565b5091979650505050505050565b600060208284031215613f9b57600080fd5b5051919050565b600060608284031215613fb457600080fd5b604051606081016001600160401b0381118282101715613fd657613fd66136e4565b6040528251613fe48161357a565b81526020830151613ff481613774565b60208201526040928301519281019290925250919050565b6020808252600f908201526e195b585a5b081b9d5b1b1a599a5959608a1b604082015260600190565b60006020828403121561404757600080fd5b81516134dc81613774565b83815260606020820152600061406b6060830185613507565b9050826040830152949350505050565b60008151604084526140906040850182613507565b602093840151949093019390935250919050565b60006040830160ff835116845260208084015160408287015282815180855260608801915060608160051b8901019450838301925060005b8181101561410a57605f198987030183526140f8868551613507565b955092840192918401916001016140dc565b5093979650505050505050565b606081528351606082015260006020850151614137608084018215159052565b50604085015160a0830152606085015160c0830152608085015161415e60e0840182613623565b5060a0850151610280610100818186015261417d6102e0860184613507565b925060c0880151610120818188015260e08a01519150605f196101408189880301818a01526141ac8785613507565b9650848c01519450610160935084848a0152828c01519450610180925084838a0152808c01519450506101a08189880301818a01526141eb8786613507565b9650838c015194506101c093508189880301848a015261420b8786613507565b9650828c015194506101e0925084838a0152808c01519450506102008189880301818a015261423a8786613507565b9650838c0151945061022093508189880301848a015261425a8786613507565b9650828c015194506102409250614273838a0186613623565b8b0151935061026061428789820186613623565b838c015194508189880301868a01526142a0878661407b565b9650828c0151955081898803016102a08a01526142bd87876140a4565b9650808c015195505080888703016102c0890152505050506142df8282613507565b925050506142f06020830185613623565b612f776040830184613623565b6000806040838503121561431057600080fd5b82516001600160401b0381111561432657600080fd5b61433285828601613e05565b925050602083015161434381613774565b809150509250929050565b6a039bab13532b1ba10109e960ad1b81526000825161437481600b8501602087016134e3565b91909101600b0192915050565b60006101408083526143958184018e613507565b90508b60208401528a604084015282810360608401526143b5818b613507565b90508860808401528760a08401528660c084015285151560e0840152846101008401528281036101208401526143eb8185613507565b9d9c50505050505050505050505050565b6001600160a01b038781168252861660208201526040810185905260a0606082018190526000906144309083018587613ca4565b90508215156080830152979650505050505050565b60018060a01b038416815282602082015260606040820152600061446c6060830184613507565b95945050505050565b600060033d111561448e5760046000803e5060005160e01c5b90565b600060443d101561449f5790565b6040516003193d81016004833e81513d6001600160401b0380831160248401831017156144ce57505050505090565b82850191508151818111156144e65750505050505090565b843d87010160208285010111156145005750505050505090565b61450f6020828601018761371f565b509095945050505050565b60008060006060848603121561452f57600080fd5b835161453a8161357a565b6020850151604086015191945092506001600160401b0381111561455d57600080fd5b8401601f8101861361456e57600080fd5b61457d86825160208401613dc1565b9150509250925092565b6001600160a01b039390931683526020830191909152604082015260600190565b600060018060a01b038086168352606060208401526145ca6060840186613507565b9150808416604084015250949350505050565b6001600160a01b0383168152604060208201819052600090612f7790830184613507565b60006020828403121561461357600080fd5b81516001600160401b038082111561462a57600080fd5b818401915084601f83011261463e57600080fd5b815161464981613867565b604051614656828261371f565b80915082815260208101915060208360051b86010192508783111561467a57600080fd5b602085015b838110156147345780518581111561469657600080fd5b8601603f81018a136146a757600080fd5b60208101516146b581613867565b6040516146c2828261371f565b82815260059290921b8301604001916020810191508c8311156146e457600080fd5b604084015b8381101561471e5780518a81111561470057600080fd5b61470f8f604083890101613e05565b845250602092830192016146e9565b508652505060209384019391909101905061467f565b50979650505050505050565b6000806040838503121561475357600080fd5b825160208401519092506001600160401b0381111561477157600080fd5b61477d85828601613e05565b9150509250929050565b600060ff821660ff810361479d5761479d613be2565b60010192915050565b600060c0820160ff89168352602060c08185015281895180845260e08601915060e08160051b8701019350828b0160005b828110156148055760df198887030184526147f3868351613507565b955092840192908401906001016147d7565b50505050508091505061481b6040830187613623565b84151560608301526148306080830185613623565b8260a0830152979650505050505050565b600082516148538184602087016134e3565b919091019291505056fe65727220657865637574696e67207472616e736665724f776e657273686970206f6e2077616c6c6574696e636f7272656374204554482073656e7420666f7220756e636c61696d6564a2646970667358221220871cdb9b79d430f94a40501d9d08dbf861a8a6200818808508edb381fdda7c6a64736f6c63430008150033",
    "linkReferences": {
      "src/libraries/SubjectUtils.sol": {
        "SubjectUtils": [
          {
            "start": 7054,
            "length": 20
          }
        ]
      }
    }
  },
  "methodIdentifiers": {
    "accountHandler()": "33ddfb9a",
    "depositTokenAsExtension(address,uint256)": "75af3217",
    "emailNullifiers(bytes32)": "17ace6b5",
    "emailValidityDuration()": "b90d36f9",
    "executeAsExtension(address,bytes)": "21d71c8f",
    "extensionHandler()": "9f6d1d83",
    "handleEmailOp((bytes32,bool,bytes32,uint256,address,string,bytes32,string,bytes32,uint256,string,string,uint256,bytes,string,address,address,(string,uint256),(uint8,bytes[]),bytes))": "1377df44",
    "initialize(bytes[])": "6f2de70e",
    "maxFeePerGas()": "2728bf2c",
    "priceOracle()": "2630c12f",
    "registerUnclaimedStateAsExtension(address,bytes)": "c9af3f1c",
    "relayerHandler()": "5e5f2610",
    "requestTokenAsExtension(address,uint256)": "65a345ac",
    "tokenRegistry()": "9d23c4c7",
    "unclaimedFundClaimGas()": "66221734",
    "unclaimedStateClaimGas()": "a87fedae",
    "unclaimsHandler()": "d5e5c1c8",
    "validateEmailOp((bytes32,bool,bytes32,uint256,address,string,bytes32,string,bytes32,uint256,string,string,uint256,bytes,string,address,address,(string,uint256),(uint8,bytes[]),bytes))": "a3964475",
    "verifier()": "2b7ac3f3",
    "wethContract()": "4780eac1"
  },
  "id": 124
}