{
  "abi": [
    {
      "inputs": [
        {
          "internalType": "address",
          "name": "_relayerHandler",
          "type": "address"
        },
        {
          "internalType": "address",
          "name": "_accountHandler",
          "type": "address"
        },
        {
          "internalType": "address",
          "name": "_unclaimsHandler",
          "type": "address"
        },
        {
          "internalType": "address",
          "name": "_extensionHandler",
          "type": "address"
        },
        {
          "internalType": "address",
          "name": "_verifier",
          "type": "address"
        },
        {
          "internalType": "address",
          "name": "_tokenRegistry",
          "type": "address"
        },
        {
          "internalType": "address",
          "name": "_priceOracle",
          "type": "address"
        },
        {
          "internalType": "address",
          "name": "_wethContract",
          "type": "address"
        },
        {
          "internalType": "uint256",
          "name": "_maxFeePerGas",
          "type": "uint256"
        },
        {
          "internalType": "uint256",
          "name": "_emailValidityDuration",
          "type": "uint256"
        },
        {
          "internalType": "uint256",
          "name": "_unclaimedFundClaimGas",
          "type": "uint256"
        },
        {
          "internalType": "uint256",
          "name": "_unclaimedStateClaimGas",
          "type": "uint256"
        }
      ],
      "stateMutability": "nonpayable",
      "type": "constructor"
    },
    {
      "stateMutability": "payable",
      "type": "fallback"
    },
    {
      "inputs": [],
      "name": "accountHandler",
      "outputs": [
        {
          "internalType": "contract AccountHandler",
          "name": "",
          "type": "address"
        }
      ],
      "stateMutability": "view",
      "type": "function"
    },
    {
      "inputs": [
        {
          "internalType": "address",
          "name": "tokenAddr",
          "type": "address"
        },
        {
          "internalType": "uint256",
          "name": "amount",
          "type": "uint256"
        }
      ],
      "name": "depositTokenAsExtension",
      "outputs": [],
      "stateMutability": "nonpayable",
      "type": "function"
    },
    {
      "inputs": [
        {
          "internalType": "bytes32",
          "name": "",
          "type": "bytes32"
        }
      ],
      "name": "emailNullifiers",
      "outputs": [
        {
          "internalType": "bool",
          "name": "",
          "type": "bool"
        }
      ],
      "stateMutability": "view",
      "type": "function"
    },
    {
      "inputs": [],
      "name": "emailValidityDuration",
      "outputs": [
        {
          "internalType": "uint256",
          "name": "",
          "type": "uint256"
        }
      ],
      "stateMutability": "view",
      "type": "function"
    },
    {
      "inputs": [
        {
          "internalType": "address",
          "name": "target",
          "type": "address"
        },
        {
          "internalType": "bytes",
          "name": "data",
          "type": "bytes"
        }
      ],
      "name": "executeAsExtension",
      "outputs": [],
      "stateMutability": "nonpayable",
      "type": "function"
    },
    {
      "inputs": [],
      "name": "extensionHandler",
      "outputs": [
        {
          "internalType": "contract ExtensionHandler",
          "name": "",
          "type": "address"
        }
      ],
      "stateMutability": "view",
      "type": "function"
    },
    {
      "inputs": [
        {
          "components": [
            {
              "internalType": "bytes32",
              "name": "emailAddrPointer",
              "type": "bytes32"
            },
            {
              "internalType": "bool",
              "name": "hasEmailRecipient",
              "type": "bool"
            },
            {
              "internalType": "bytes32",
              "name": "recipientEmailAddrCommit",
              "type": "bytes32"
            },
            {
              "internalType": "uint256",
              "name": "numRecipientEmailAddrBytes",
              "type": "uint256"
            },
            {
              "internalType": "address",
              "name": "recipientETHAddr",
              "type": "address"
            },
            {
              "internalType": "string",
              "name": "command",
              "type": "string"
            },
            {
              "internalType": "bytes32",
              "name": "emailNullifier",
              "type": "bytes32"
            },
            {
              "internalType": "string",
              "name": "emailDomain",
              "type": "string"
            },
            {
              "internalType": "bytes32",
              "name": "dkimPublicKeyHash",
              "type": "bytes32"
            },
            {
              "internalType": "uint256",
              "name": "timestamp",
              "type": "uint256"
            },
            {
              "internalType": "string",
              "name": "maskedSubject",
              "type": "string"
            },
            {
              "internalType": "string",
              "name": "feeTokenName",
              "type": "string"
            },
            {
              "internalType": "uint256",
              "name": "feePerGas",
              "type": "uint256"
            },
            {
              "internalType": "bytes",
              "name": "executeCallData",
              "type": "bytes"
            },
            {
              "internalType": "string",
              "name": "extensionName",
              "type": "string"
            },
            {
              "internalType": "address",
              "name": "newWalletOwner",
              "type": "address"
            },
            {
              "internalType": "address",
              "name": "newDkimRegistry",
              "type": "address"
            },
            {
              "components": [
                {
                  "internalType": "string",
                  "name": "tokenName",
                  "type": "string"
                },
                {
                  "internalType": "uint256",
                  "name": "amount",
                  "type": "uint256"
                }
              ],
              "internalType": "struct WalletParams",
              "name": "walletParams",
              "type": "tuple"
            },
            {
              "components": [
                {
                  "internalType": "uint8",
                  "name": "subjectTemplateIndex",
                  "type": "uint8"
                },
                {
                  "internalType": "bytes[]",
                  "name": "subjectParams",
                  "type": "bytes[]"
                }
              ],
              "internalType": "struct ExtensionParams",
              "name": "extensionParams",
              "type": "tuple"
            },
            {
              "internalType": "bytes",
              "name": "emailProof",
              "type": "bytes"
            }
          ],
          "internalType": "struct EmailOp",
          "name": "emailOp",
          "type": "tuple"
        }
      ],
      "name": "handleEmailOp",
      "outputs": [
        {
          "internalType": "bool",
          "name": "success",
          "type": "bool"
        },
        {
          "internalType": "bytes",
          "name": "err",
          "type": "bytes"
        },
        {
          "internalType": "uint256",
          "name": "totalFeeInETH",
          "type": "uint256"
        },
        {
          "internalType": "uint256",
          "name": "registeredUnclaimId",
          "type": "uint256"
        }
      ],
      "stateMutability": "payable",
      "type": "function"
    },
    {
      "inputs": [
        {
          "internalType": "bytes[]",
          "name": "defaultExtensions",
          "type": "bytes[]"
        }
      ],
      "name": "initialize",
      "outputs": [],
      "stateMutability": "nonpayable",
      "type": "function"
    },
    {
      "inputs": [],
      "name": "maxFeePerGas",
      "outputs": [
        {
          "internalType": "uint256",
          "name": "",
          "type": "uint256"
        }
      ],
      "stateMutability": "view",
      "type": "function"
    },
    {
      "inputs": [],
      "name": "priceOracle",
      "outputs": [
        {
          "internalType": "contract IPriceOracle",
          "name": "",
          "type": "address"
        }
      ],
      "stateMutability": "view",
      "type": "function"
    },
    {
      "inputs": [
        {
          "internalType": "address",
          "name": "extensionAddr",
          "type": "address"
        },
        {
          "internalType": "bytes",
          "name": "state",
          "type": "bytes"
        }
      ],
      "name": "registerUnclaimedStateAsExtension",
      "outputs": [],
      "stateMutability": "nonpayable",
      "type": "function"
    },
    {
      "inputs": [],
      "name": "relayerHandler",
      "outputs": [
        {
          "internalType": "contract RelayerHandler",
          "name": "",
          "type": "address"
        }
      ],
      "stateMutability": "view",
      "type": "function"
    },
    {
      "inputs": [
        {
          "internalType": "address",
          "name": "tokenAddr",
          "type": "address"
        },
        {
          "internalType": "uint256",
          "name": "amount",
          "type": "uint256"
        }
      ],
      "name": "requestTokenAsExtension",
      "outputs": [],
      "stateMutability": "nonpayable",
      "type": "function"
    },
    {
      "inputs": [],
      "name": "tokenRegistry",
      "outputs": [
        {
          "internalType": "contract TokenRegistry",
          "name": "",
          "type": "address"
        }
      ],
      "stateMutability": "view",
      "type": "function"
    },
    {
      "inputs": [],
      "name": "unclaimedFundClaimGas",
      "outputs": [
        {
          "internalType": "uint256",
          "name": "",
          "type": "uint256"
        }
      ],
      "stateMutability": "view",
      "type": "function"
    },
    {
      "inputs": [],
      "name": "unclaimedStateClaimGas",
      "outputs": [
        {
          "internalType": "uint256",
          "name": "",
          "type": "uint256"
        }
      ],
      "stateMutability": "view",
      "type": "function"
    },
    {
      "inputs": [],
      "name": "unclaimsHandler",
      "outputs": [
        {
          "internalType": "contract UnclaimsHandler",
          "name": "",
          "type": "address"
        }
      ],
      "stateMutability": "view",
      "type": "function"
    },
    {
      "inputs": [
        {
          "components": [
            {
              "internalType": "bytes32",
              "name": "emailAddrPointer",
              "type": "bytes32"
            },
            {
              "internalType": "bool",
              "name": "hasEmailRecipient",
              "type": "bool"
            },
            {
              "internalType": "bytes32",
              "name": "recipientEmailAddrCommit",
              "type": "bytes32"
            },
            {
              "internalType": "uint256",
              "name": "numRecipientEmailAddrBytes",
              "type": "uint256"
            },
            {
              "internalType": "address",
              "name": "recipientETHAddr",
              "type": "address"
            },
            {
              "internalType": "string",
              "name": "command",
              "type": "string"
            },
            {
              "internalType": "bytes32",
              "name": "emailNullifier",
              "type": "bytes32"
            },
            {
              "internalType": "string",
              "name": "emailDomain",
              "type": "string"
            },
            {
              "internalType": "bytes32",
              "name": "dkimPublicKeyHash",
              "type": "bytes32"
            },
            {
              "internalType": "uint256",
              "name": "timestamp",
              "type": "uint256"
            },
            {
              "internalType": "string",
              "name": "maskedSubject",
              "type": "string"
            },
            {
              "internalType": "string",
              "name": "feeTokenName",
              "type": "string"
            },
            {
              "internalType": "uint256",
              "name": "feePerGas",
              "type": "uint256"
            },
            {
              "internalType": "bytes",
              "name": "executeCallData",
              "type": "bytes"
            },
            {
              "internalType": "string",
              "name": "extensionName",
              "type": "string"
            },
            {
              "internalType": "address",
              "name": "newWalletOwner",
              "type": "address"
            },
            {
              "internalType": "address",
              "name": "newDkimRegistry",
              "type": "address"
            },
            {
              "components": [
                {
                  "internalType": "string",
                  "name": "tokenName",
                  "type": "string"
                },
                {
                  "internalType": "uint256",
                  "name": "amount",
                  "type": "uint256"
                }
              ],
              "internalType": "struct WalletParams",
              "name": "walletParams",
              "type": "tuple"
            },
            {
              "components": [
                {
                  "internalType": "uint8",
                  "name": "subjectTemplateIndex",
                  "type": "uint8"
                },
                {
                  "internalType": "bytes[]",
                  "name": "subjectParams",
                  "type": "bytes[]"
                }
              ],
              "internalType": "struct ExtensionParams",
              "name": "extensionParams",
              "type": "tuple"
            },
            {
              "internalType": "bytes",
              "name": "emailProof",
              "type": "bytes"
            }
          ],
          "internalType": "struct EmailOp",
          "name": "emailOp",
          "type": "tuple"
        }
      ],
      "name": "validateEmailOp",
      "outputs": [],
      "stateMutability": "view",
      "type": "function"
    },
    {
      "inputs": [],
      "name": "verifier",
      "outputs": [
        {
          "internalType": "contract IVerifier",
          "name": "",
          "type": "address"
        }
      ],
      "stateMutability": "view",
      "type": "function"
    },
    {
      "inputs": [],
      "name": "wethContract",
      "outputs": [
        {
          "internalType": "address",
          "name": "",
          "type": "address"
        }
      ],
      "stateMutability": "view",
      "type": "function"
    },
    {
      "stateMutability": "payable",
      "type": "receive"
    }
  ],
  "bytecode": {
    "object": "0x6101806040523480156200001257600080fd5b5060405162004b4138038062004b418339810160408190526200003591620000d8565b600080546001600160a01b03199081166001600160a01b039e8f16179091556001805482169c8e169c909c17909b55600280548c169a8d169a909a1790995560038054909a16978b169790971790985593881660805291871660a052861660c05290941660e05261010093909352610120919091526101409190915261016052620001a9565b80516001600160a01b0381168114620000d357600080fd5b919050565b6000806000806000806000806000806000806101808d8f031215620000fc57600080fd5b620001078d620000bb565b9b506200011760208e01620000bb565b9a506200012760408e01620000bb565b99506200013760608e01620000bb565b98506200014760808e01620000bb565b97506200015760a08e01620000bb565b96506200016760c08e01620000bb565b95506200017760e08e01620000bb565b94506101008d015193506101208d015192506101408d015191506101608d015190509295989b509295989b509295989b565b60805160a05160c05160e051610100516101205161014051610160516148a66200029b600039600081816103d801528181610862015281816108dc01526109420152600081816102f0015281816106f90152818161077201526107d801526000818161040c01526113ad0152600081816101e6015281816106d8015281816107b70152818161084101528181610921015261157701526000818161027c0152611fc50152600081816101a50152612ecb01526000818161036401528181610adb01528181610e2c01528181611dc501528181612a0b0152612e2501526000818161022801526119e401526148a66000f3fe6080604052600436106100f35760003560e01c80631377df441461010757806317ace6b51461013357806321d71c8f146101735780632630c12f146101935780632728bf2c146101d45780632b7ac3f31461021657806333ddfb9a1461024a5780634780eac11461026a5780635e5f26101461029e57806365a345ac146102be57806366221734146102de5780636f2de70e1461031257806375af3217146103325780639d23c4c7146103525780639f6d1d8314610386578063a3964475146103a6578063a87fedae146103c6578063b90d36f9146103fa578063c9af3f1c1461042e578063d5e5c1c81461044e576100fd565b366100fd57600080fd5b61010561046e565b005b61011a61011536600461346b565b610506565b60405161012a94939291906134fd565b60405180910390f35b34801561013f57600080fd5b5061016361014e36600461352b565b60046020526000908152604090205460ff1681565b604051901515815260200161012a565b34801561017f57600080fd5b5061010561018e366004613569565b610c78565b34801561019f57600080fd5b506101c77f000000000000000000000000000000000000000000000000000000000000000081565b60405161012a91906135fa565b3480156101e057600080fd5b506102087f000000000000000000000000000000000000000000000000000000000000000081565b60405190815260200161012a565b34801561022257600080fd5b506101c77f000000000000000000000000000000000000000000000000000000000000000081565b34801561025657600080fd5b506001546101c7906001600160a01b031681565b34801561027657600080fd5b506101c77f000000000000000000000000000000000000000000000000000000000000000081565b3480156102aa57600080fd5b506000546101c7906001600160a01b031681565b3480156102ca57600080fd5b506101056102d936600461360e565b610f5d565b3480156102ea57600080fd5b506102087f000000000000000000000000000000000000000000000000000000000000000081565b34801561031e57600080fd5b5061010561032d36600461363a565b61114c565b34801561033e57600080fd5b5061010561034d36600461360e565b6111ac565b34801561035e57600080fd5b506101c77f000000000000000000000000000000000000000000000000000000000000000081565b34801561039257600080fd5b506003546101c7906001600160a01b031681565b3480156103b257600080fd5b506101056103c1366004613b4f565b6111f2565b3480156103d257600080fd5b506102087f000000000000000000000000000000000000000000000000000000000000000081565b34801561040657600080fd5b506102087f000000000000000000000000000000000000000000000000000000000000000081565b34801561043a57600080fd5b50610105610449366004613569565b611b70565b34801561045a57600080fd5b506002546101c7906001600160a01b031681565b36610477573636f35b6000805b8036821061048957506104e5565b600180830192600319810190351860001a90816104d557600019855260028301933560021984011860001a607f8082116104c4578282013888395b1694909401909301925061047b9050565b818553808501945050505061047b565b50600080826000305af490503d6000803e80610500573d6000fd5b503d6000f35b600554600090606090829081906001600160a01b0316156105645760405162461bcd60e51b815260206004820152601360248201527218dbdb9d195e1d08185b1c9958591e481cd95d606a1b60448201526064015b60405180910390fd5b60005a6040878101356008556001549051629316e960e11b8152883560048201529192506001600160a01b0316906301262dd290602401602060405180830381865afa1580156105b8573d6000803e3d6000fd5b505050506040513d601f19601f820116820180604052508101906105dc9190613b83565b600580546001600160a01b0319166001600160a01b03929092169190911790556106086103c187613ba0565b60c08601356000908152600460205260409020805460ff1916600117905561063761063287613ba0565b611d70565b6006549196509450600160a01b900460ff16801561065e5750600654600160a81b900460ff165b156106c15760405162461bcd60e51b815260206004820152602d60248201527f63616e6e6f7420726567697374657220626f746820756e636c61696d6564206660448201526c756e6420616e6420737461746560981b606482015260840161055b565b600654600160a01b900460ff161561082a5761071d7f00000000000000000000000000000000000000000000000000000000000000007f0000000000000000000000000000000000000000000000000000000000000000613bc2565b34146107675760405162461bcd60e51b8152602060048201526025602482015260008051602061485183398151915260448201526408199d5b9960da1b606482015260840161055b565b6107966101808701357f0000000000000000000000000000000000000000000000000000000000000000613bc2565b6107a09084613bd9565b6002549093506001600160a01b03166108fc6107fc7f00000000000000000000000000000000000000000000000000000000000000007f0000000000000000000000000000000000000000000000000000000000000000613bc2565b6040518115909202916000818181858888f19350505050158015610824573d6000803e3d6000fd5b50610a1c565b600654600160a81b900460ff1615610966576108867f00000000000000000000000000000000000000000000000000000000000000007f0000000000000000000000000000000000000000000000000000000000000000613bc2565b34146108d15760405162461bcd60e51b8152602060048201526026602482015260008051602061485183398151915260448201526520737461746560d01b606482015260840161055b565b6109006101808701357f0000000000000000000000000000000000000000000000000000000000000000613bc2565b61090a9084613bd9565b6002549093506001600160a01b03166108fc6107fc7f00000000000000000000000000000000000000000000000000000000000000007f0000000000000000000000000000000000000000000000000000000000000000613bc2565b600754156109ee5760405162461bcd60e51b815260206004820152604960248201527f72656769737465726564556e636c61696d4964206d757374206265207a65726f60448201527f206966206e6f20756e636c61696d65642066756e642f737461746520697320726064820152681959da5cdd195c995960ba1b608482015260a40161055b565b60405133903480156108fc02916000818181858888f19350505050158015610a1a573d6000803e3d6000fd5b505b600754915061d6d86000815a610a329085613bec565b610a3c9190613bd9565b9050610a4d61018089013582613bc2565b610a579086613bd9565b94506000610aa6610a6c6101608b018b613bff565b8080601f016020809104026020016040519081016040528093929190818152602001838380828437600092019190915250612d4192505050565b90506000670de0b6b3a7640000610abd8389613bc2565b610ac79190613c4c565b90508015610bd45760006001600160a01b037f00000000000000000000000000000000000000000000000000000000000000001663c4091236610b0e6101608e018e613bff565b6040518363ffffffff1660e01b8152600401610b2b929190613c97565b602060405180830381865afa158015610b48573d6000803e3d6000fd5b505050506040513d601f19601f82011682018060405250810190610b6c9190613b83565b6005549091506000908190610b8c906001600160a01b0316338587612f49565b915091508181604051602001610ba29190613cab565b60405160208183030381529060405290610bcf5760405162461bcd60e51b815260040161055b9190613ced565b505050505b600580546001600160a01b031916905560006008819055600680546001600160b01b03191690556007819055610c0c9060099061341d565b8960c00135868a15157fb5144465dc165f0fdb939cd27dbf83aac1199241a737482d2fc25624328c7a188d600001358e604001358f6080016020810190610c539190613d00565b8e604051610c649493929190613d1d565b60405180910390a450505050509193509193565b6006546001600160a01b03163314610ca25760405162461bcd60e51b815260040161055b90613d54565b6001600160a01b0383163014801590610cc957506002546001600160a01b03848116911614155b8015610ce357506001546001600160a01b03848116911614155b8015610cfd57506000546001600160a01b03848116911614155b8015610d1757506003546001600160a01b03848116911614155b610d6d5760405162461bcd60e51b815260206004820152602160248201527f7461726765742063616e6e6f7420626520636f7265206f722068616e646c65726044820152607360f81b606482015260840161055b565b610d768361319c565b610dbd5760405162461bcd60e51b81526020600482015260186024820152771d185c99d95d081a5cc81b9bdd08184818dbdb9d1c9858dd60421b604482015260640161055b565b6005546001600160a01b0390811690841603610e155760405162461bcd60e51b81526020600482015260176024820152761d185c99d95d0818d85b9b9bdd081899481dd85b1b195d604a1b604482015260640161055b565b6040516359ccef2760e11b81526001600160a01b037f0000000000000000000000000000000000000000000000000000000000000000169063b399de4e90610e619086906004016135fa565b600060405180830381865afa158015610e7e573d6000803e3d6000fd5b505050506040513d6000823e601f3d908101601f19168201604052610ea69190810190613def565b5115610eef5760405162461bcd60e51b81526020600482015260186024820152773a30b933b2ba1031b0b73737ba1031329030903a37b5b2b760411b604482015260640161055b565b600554604051635b0e93fb60e11b81526001600160a01b039091169063b61d27f690610f2690869060009087908790600401613e23565b600060405180830381600087803b158015610f4057600080fd5b505af1158015610f54573d6000803e3d6000fd5b50505050505050565b6006546001600160a01b03163314610f875760405162461bcd60e51b815260040161055b90613d54565b60005b6009548110156110ff57826001600160a01b031660056004018281548110610fb457610fb4613e4b565b60009182526020909120600290910201546001600160a01b0316036110ed578160056004018281548110610fea57610fea613e4b565b90600052602060002090600202016001015410156110435760405162461bcd60e51b8152602060048201526016602482015275696e73756666696369656e7420616c6c6f77616e636560501b604482015260640161055b565b816005600401828154811061105a5761105a613e4b565b9060005260206000209060020201600101600082825461107a9190613bec565b909155505060055460065460009182916110a2916001600160a01b0390811691168787612f49565b9150915081816040516020016110b89190613e61565b604051602081830303815290604052906110e55760405162461bcd60e51b815260040161055b9190613ced565b505050505050565b806110f781613e9f565b915050610f8a565b5060405162461bcd60e51b815260206004820181905260248201527f6e6f20616c6c6f77616e636520666f722072657175657374656420746f6b656e604482015260640161055b565b5050565b60035460405163f884630b60e01b81526001600160a01b039091169063f884630b9061117e9085908590600401613eb8565b600060405180830381600087803b15801561119857600080fd5b505af11580156110e5573d6000803e3d6000fd5b6006546001600160a01b031633146111d65760405162461bcd60e51b815260040161055b90613d54565b600554611148906001600160a01b0384811691339116846131ab565b6001548151604051635d2c8d1b60e11b815260048101919091526000916001600160a01b031690636b0f047d90829063ba591a3690602401602060405180830381865afa158015611247573d6000803e3d6000fd5b505050506040513d601f19601f8201168201806040525081019061126b9190613f53565b6040518263ffffffff1660e01b815260040161128991815260200190565b606060405180830381865afa1580156112a6573d6000803e3d6000fd5b505050506040513d601f19601f820116820180604052508101906112ca9190613f6c565b80519091506001600160a01b031633146113185760405162461bcd60e51b815260206004820152600f60248201526e34b73b30b634b2103932b630bcb2b960891b604482015260640161055b565b80602001516113635760405162461bcd60e51b81526020600482015260176024820152761858d8dbdd5b9d081b9bdd081a5b9a5d1a585b1a5e9959604a1b604482015260640161055b565b60408101516113aa5760405162461bcd60e51b81526020600482015260136024820152721dd85b1b195d081cd85b1d081b9bdd081cd95d606a1b604482015260640161055b565b427f00000000000000000000000000000000000000000000000000000000000000008361012001516113dc9190613bd9565b116114195760405162461bcd60e51b815260206004820152600d60248201526c195b585a5b08195e1c1a5c9959609a1b604482015260640161055b565b60008054604051630fd5856960e21b81526001600160a01b0390911690633f5615a49061144a9033906004016135fa565b602060405180830381865afa158015611467573d6000803e3d6000fd5b505050506040513d601f19601f8201168201806040525081019061148b9190613f53565b036114d15760405162461bcd60e51b81526020600482015260166024820152751c995b185e595c881b9bdd081c9959da5cdd195c995960521b604482015260640161055b565b8160a00151516000036115205760405162461bcd60e51b8152602060048201526017602482015276636f6d6d616e642063616e6e6f7420626520656d70747960481b604482015260640161055b565b61152e826101600151612d41565b6000036115755760405162461bcd60e51b81526020600482015260156024820152743ab739bab83837b93a32b2103332b2903a37b5b2b760591b604482015260640161055b565b7f000000000000000000000000000000000000000000000000000000000000000082610180015111156115e15760405162461bcd60e51b81526020600482015260146024820152730cccaca40e0cae440cec2e640e8dede40d0d2ced60631b604482015260640161055b565b60c082015160009081526004602052604090205460ff16156116155760405162461bcd60e51b815260040161055b90613fd6565b60015460c08301516040516317ace6b560e01b81526001600160a01b03909216916317ace6b59161164c9160040190815260200190565b602060405180830381865afa158015611669573d6000803e3d6000fd5b505050506040513d601f19601f8201168201806040525081019061168d9190613fff565b156116aa5760405162461bcd60e51b815260040161055b90613fd6565b60015460408083015160e08501516101008601519251636c21242760e11b81526001600160a01b039094169363d842484e936116ea93929160040161401c565b602060405180830381865afa158015611707573d6000803e3d6000fd5b505050506040513d601f19601f8201168201806040525081019061172b9190613fff565b6117715760405162461bcd60e51b8152602060048201526017602482015276696e76616c696420444b494d207075626c6963206b657960481b604482015260640161055b565b8160200151156118375760808201516001600160a01b0316156117d65760405162461bcd60e51b815260206004820181905260248201527f63616e6e6f74206861766520626f746820726563697069656e74207479706573604482015260640161055b565b60408201516118325760405162461bcd60e51b815260206004820152602260248201527f726563697069656e74456d61696c41646472436f6d6d6974206e6f7420666f756044820152611b9960f21b606482015260840161055b565b611895565b6040820151156118955760405162461bcd60e51b8152602060048201526024808201527f726563697069656e74456d61696c41646472436f6d6d6974206e6f7420616c6c6044820152631bddd95960e21b606482015260840161055b565b6001546040808301519051632b3263c760e11b815260009273__$a4c672e1ff4582c439378a74443bfb54da$__926330a2cc129287926001600160a01b031691635664c78e916118ec919060040190815260200190565b602060405180830381865afa158015611909573d6000803e3d6000fd5b505050506040513d601f19601f8201168201806040525081019061192d9190613b83565b306040518463ffffffff1660e01b815260040161194c939291906140e1565b600060405180830381865af4158015611969573d6000803e3d6000fd5b505050506040513d6000823e601f3d908101601f1916820160405261199191908101906142c7565b5090506119a38184610140015161320b565b816040516020016119b49190614318565b604051602081830303815290604052906119e15760405162461bcd60e51b815260040161055b9190613ced565b507f00000000000000000000000000000000000000000000000000000000000000006001600160a01b031663b4fe57928460e001518561010001518661012001518761014001518860c0015160008054906101000a90046001600160a01b03166001600160a01b0316633f5615a4336040518263ffffffff1660e01b8152600401611a6c91906135fa565b602060405180830381865afa158015611a89573d6000803e3d6000fd5b505050506040513d601f19601f82011682018060405250810190611aad9190613f53565b8a5160208c01516040808e01516102608f015191516001600160e01b031960e08d901b168152611ae89a99989796959493929060040161434b565b602060405180830381865afa158015611b05573d6000803e3d6000fd5b505050506040513d601f19601f82011682018060405250810190611b299190613fff565b611b6b5760405162461bcd60e51b815260206004820152601360248201527234b73b30b634b21032b6b0b4b610383937b7b360691b604482015260640161055b565b505050565b600354604051630bc75f7760e21b81526001600160a01b0390911690632f1d7ddc90611ba09086906004016135fa565b602060405180830381865afa158015611bbd573d6000803e3d6000fd5b505050506040513d601f19601f82011682018060405250810190611be19190613f53565b600003611c245760405162461bcd60e51b815260206004820152601160248201527034b73b30b634b21032bc3a32b739b4b7b760791b604482015260640161055b565b6006546001600160a01b03163314611c755760405162461bcd60e51b815260206004820152601460248201527331b0b63632b9103737ba1032bc3a32b739b4b7b760611b604482015260640161055b565b600654600160a81b900460ff1615611cc85760405162461bcd60e51b8152602060048201526016602482015275756e636c61696d65642073746174652065786973747360501b604482015260640161055b565b60068054600160a81b60ff60a81b1982161790915560025460055460085460405163def27db760e01b81526001600160a01b039384169463def27db794611d25948a949082169390928a928a9291811690871614906004016143c6565b6020604051808303816000875af1158015611d44573d6000803e3d6000fd5b505050506040513d601f19601f82011682018060405250810190611d689190613f53565b600755505050565b60006060611d9e8360a001516040518060400160405280600481526020016314d95b9960e21b81525061320b565b15612149576102208301518051604051636204891b60e11b81526000916001600160a01b037f0000000000000000000000000000000000000000000000000000000000000000169163c409123691611df891600401613ced565b602060405180830381865afa158015611e15573d6000803e3d6000fd5b505050506040513d601f19601f82011682018060405250810190611e399190613b83565b9050846020015115611f25576005546002546020840151611e69926001600160a01b039081169216908490612f49565b909450925083611e7a575050915091565b6006805460ff60a01b1916600160a01b17905560025460055460408781015160208601519151631bae92f760e01b81526001600160a01b039384166004820152602481019190915284831660448201526064810191909152911690631bae92f7906084016020604051808303816000875af1158015611efd573d6000803e3d6000fd5b505050506040513d601f19601f82011682018060405250810190611f219190613f53565b6007555b846020015161214257611f5c856102200151600001516040518060400160405280600381526020016208aa8960eb1b81525061320b565b15612119576005546020838101516040805160248082019390935281518082039093018352604401815291810180516001600160e01b0316632e1a7d4d60e01b1790529051635b0e93fb60e11b81526001600160a01b0390921691829163b61d27f691611ff1917f0000000000000000000000000000000000000000000000000000000000000000916000919060040161440f565b600060405180830381600087803b15801561200b57600080fd5b505af192505050801561201c575060015b6120925761202861443f565b806308c379a003612052575061203c61445b565b806120475750612054565b600095509350612113565b505b600094506040518060400160405280601a8152602001790cae4e440c6dedceccae4e8d2dcce40ae8aa89040e8de408aa8960331b8152509350612113565b60808601516020840151604051635b0e93fb60e11b81526001600160a01b039283166004820152602481019190915260606044820152600060648201529082169063b61d27f690608401600060405180830381600087803b1580156120f657600080fd5b505af115801561210a573d6000803e3d6000fd5b50505050600194505b50612142565b6005546080860151602084015161213c926001600160a01b031691908490612f49565b90945092505b5050915091565b6121768360a00151604051806040016040528060078152602001664578656375746560c81b81525061320b565b15612284576000806000856101a0015180602001905181019061219991906144e4565b600554604051635b0e93fb60e11b815293965091945092506001600160a01b03169063b61d27f6906121d39086908690869060040161440f565b600060405180830381600087803b1580156121ed57600080fd5b505af19250505080156121fe575060015b6122775761220a61443f565b806308c379a003612234575061221e61445b565b806122295750612236565b60009550935061227c565b505b600094506040518060400160405280602081526020017f65727220657865637574696e672063616c6c64617461206f6e2077616c6c6574815250935061227c565b600194505b505050915091565b6122b18360a0015160405180604001604052806007815260200166125b9cdd185b1b60ca1b81525061320b565b15612423576003546101c08401516040516349fc3c2160e11b81526000926001600160a01b0316916393f87842916122ec9190600401613ced565b602060405180830381865afa158015612309573d6000803e3d6000fd5b505050506040513d601f19601f8201168201806040525081019061232d9190613b83565b6003546040516393ec497160e01b81529192506000916001600160a01b03909116906393ec49719061236790859085908190600401614551565b600060405180830381865afa158015612384573d6000803e3d6000fd5b505050506040513d6000823e601f3d908101601f191682016040526123ac9190810190613def565b60035460055460405163f1fbbba160e01b81529293506001600160a01b039182169263f1fbbba1926123e692169085908790600401614572565b600060405180830381600087803b15801561240057600080fd5b505af1158015612414573d6000803e3d6000fd5b50505050600193505050915091565b6124528360a0015160405180604001604052806009815260200168155b9a5b9cdd185b1b60ba1b81525061320b565b15612588576003546101c08401516040516349fc3c2160e11b81526000926001600160a01b0316916393f878429161248d9190600401613ced565b602060405180830381865afa1580156124aa573d6000803e3d6000fd5b505050506040513d601f19601f820116820180604052508101906124ce9190613b83565b6003546040516393ec497160e01b81529192506000916001600160a01b03909116906393ec49719061250890859085908190600401614551565b600060405180830381865afa158015612525573d6000803e3d6000fd5b505050506040513d6000823e601f3d908101601f1916820160405261254d9190810190613def565b60035460055460405163f1fbbba160e01b81529293506001600160a01b039182169263f1fbbba1926123e69216908590600090600401614572565b6125b28360a0015160405180604001604052806004815260200163115e1a5d60e21b81525061320b565b1561267b576005546101e084015160405163f2fde38b60e01b81526001600160a01b039092169163f2fde38b916125eb916004016135fa565b600060405180830381600087803b15801561260557600080fd5b505af1925050508015612616575060015b6126725761262261443f565b806308c379a00361264c575061263661445b565b80612641575061264e565b600092509050915091565b505b60009150604051806060016040528060298152602001614828602991399050915091565b60019150915091565b6126a58360a0015160405180604001604052806004815260200163444b494d60e01b81525061320b565b15612806576001548351604051635d2c8d1b60e11b815260048101919091526000916001600160a01b03169063ba591a3690602401602060405180830381865afa1580156126f7573d6000803e3d6000fd5b505050506040513d601f19601f8201168201806040525081019061271b9190613f53565b600154604051636b0f047d60e01b8152600481018390529192506001600160a01b0316906340d20041908290636b0f047d90602401606060405180830381865afa15801561276d573d6000803e3d6000fd5b505050506040513d601f19601f820116820180604052508101906127919190613f6c565b604001518661020001516040518363ffffffff1660e01b81526004016127ca9291909182526001600160a01b0316602082015260400190565b600060405180830381600087803b1580156127e457600080fd5b505af11580156127f8573d6000803e3d6000fd5b505050506001925050915091565b60035460055460a0850151604051637043541160e11b81526000936001600160a01b039081169363e086a822936128449392909116916004016145a7565b602060405180830381865afa158015612861573d6000803e3d6000fd5b505050506040513d601f19601f820116820180604052508101906128859190613b83565b600680546001600160a01b0319166001600160a01b03838116919091179091556003546040516336fdf1af60e11b815292935060009283929190911690636dfbe35e906128d69086906004016135fa565b600060405180830381865afa1580156128f3573d6000803e3d6000fd5b505050506040513d6000823e601f3d908101601f1916820160405261291b91908101906145cb565b8661024001516000015160ff168151811061293857612938613e4b565b6020026020010151905060005b81518160ff161015612be6576000828260ff168151811061296857612968613e4b565b602002602001015190506129a1816040518060400160405280600d81526020016c7b746f6b656e416d6f756e747d60981b81525061320b565b15612ada57600080896102400151602001518660ff16815181106129c7576129c7613e4b565b60200260200101518060200190518101906129e2919061470a565b6040805180820191829052636204891b60e11b9091529193509150600990806001600160a01b037f00000000000000000000000000000000000000000000000000000000000000001663c4091236612a3d8660448501613ced565b602060405180830381865afa158015612a5a573d6000803e3d6000fd5b505050506040513d601f19601f82011682018060405250810190612a7e9190613b83565b6001600160a01b0390811682526020918201869052835460018082018655600095865294839020845160029092020180546001600160a01b0319169190921617815591015191015585612ad081614751565b9650505050612bd3565b612b0481604051806040016040528060088152602001677b616d6f756e747d60c01b81525061320b565b80612b345750612b3481604051806040016040528060088152602001677b737472696e677d60c01b81525061320b565b80612b625750612b6281604051806040016040528060068152602001657b75696e747d60d01b81525061320b565b80612b8f5750612b8f81604051806040016040528060058152602001647b696e747d60d81b81525061320b565b80612bc05750612bc081604051806040016040528060098152602001687b616464726573737d60b81b81525061320b565b15612bd35783612bcf81614751565b9450505b5080612bde81614751565b915050612945565b50600354604051630bc75f7760e21b81526001600160a01b038086169263e93977e892911690632f1d7ddc90612c209088906004016135fa565b602060405180830381865afa158015612c3d573d6000803e3d6000fd5b505050506040513d601f19601f82011682018060405250810190612c619190613f53565b6102408901518051602091820151600554928c015160808d015160c08e01516040516001600160e01b031960e08a901b168152612cad966001600160a01b031693929190600401614770565b600060405180830381600088803b158015612cc757600080fd5b5087f193505050508015612cd9575060015b61227757612ce561443f565b806308c379a003612d045750612cf961445b565b806122295750612d06565b505b600094506040518060400160405280601781526020017632b9391032bc32b1baba34b7339032bc3a32b739b4b7b760491b815250935061227c565b6000612d68826040518060400160405280600381526020016208aa8960eb1b81525061320b565b80612d945750612d9482604051806040016040528060048152602001630ae8aa8960e31b81525061320b565b15612da85750670de0b6b3a7640000919050565b6000612dcf836040518060400160405280600381526020016244414960e81b81525061320b565b80612dfb5750612dfb83604051806040016040528060048152602001635553444360e01b81525061320b565b905080612e0b5750600092915050565b604051636204891b60e11b81526000906001600160a01b037f0000000000000000000000000000000000000000000000000000000000000000169063c409123690612e5a908790600401613ced565b602060405180830381865afa158015612e77573d6000803e3d6000fd5b505050506040513d601f19601f82011682018060405250810190612e9b9190613b83565b90506001600160a01b038116612eb5575060009392505050565b6040516230afb560e31b81526001600160a01b037f000000000000000000000000000000000000000000000000000000000000000016906301857da890612f009084906004016135fa565b602060405180830381865afa158015612f1d573d6000803e3d6000fd5b505050506040513d601f19601f82011682018060405250810190612f419190613f53565b949350505050565b600060606001600160a01b038416612f9b5760405162461bcd60e51b8152602060048201526015602482015274696e76616c696420746f6b656e206164647265737360581b604482015260640161055b565b60008311612fdc5760405162461bcd60e51b815260206004820152600e60248201526d1a5b9d985b1a5908185b5bdd5b9d60921b604482015260640161055b565b6001600160a01b03861661302b5760405162461bcd60e51b8152602060048201526016602482015275696e76616c69642073656e646572206164647265737360501b604482015260640161055b565b6001600160a01b03851661307d5760405162461bcd60e51b8152602060048201526019602482015278696e76616c696420726563697069656e74206164647265737360381b604482015260640161055b565b604080516001600160a01b038781166024830152604480830187905283518084039091018152606490920183526020820180516001600160e01b031663a9059cbb60e01b1790529151635b0e93fb60e11b8152889283169163b61d27f6916130ed9189916000919060040161440f565b600060405180830381600087803b15801561310757600080fd5b505af1925050508015613118575060015b61318d5761312461443f565b806308c379a003613150575061313861445b565b806131435750613152565b6000935091506131939050565b505b50506040805180820190915260198152783ab735b737bbb7103bb0b63632ba1032bc32b19032b93937b960391b602082015260009150613193565b60019250505b94509492505050565b6001600160a01b03163b151590565b604080516001600160a01b0385811660248301528416604482015260648082018490528251808303909101815260849091019091526020810180516001600160e01b03166323b872dd60e01b179052613205908590613227565b50505050565b6000818051906020012083805190602001201490505b92915050565b600061327c826040518060400160405280602081526020017f5361666545524332303a206c6f772d6c6576656c2063616c6c206661696c6564815250856001600160a01b03166132fc9092919063ffffffff16565b905080516000148061329d57508080602001905181019061329d9190613fff565b611b6b5760405162461bcd60e51b815260206004820152602a60248201527f5361666545524332303a204552433230206f7065726174696f6e20646964206e6044820152691bdd081cdd58d8d9595960b21b606482015260840161055b565b6060612f41848460008585600080866001600160a01b03168587604051613323919061480b565b60006040518083038185875af1925050503d8060008114613360576040519150601f19603f3d011682016040523d82523d6000602084013e613365565b606091505b509150915061337687838387613381565b979650505050505050565b606083156133ee5782516000036133e75761339b8561319c565b6133e75760405162461bcd60e51b815260206004820152601d60248201527f416464726573733a2063616c6c20746f206e6f6e2d636f6e7472616374000000604482015260640161055b565b5081612f41565b612f4183838151156134035781518083602001fd5b8060405162461bcd60e51b815260040161055b9190613ced565b508054600082556002029060005260206000209081019061343e9190613441565b50565b5b808211156134675780546001600160a01b031916815560006001820155600201613442565b5090565b60006020828403121561347d57600080fd5b81356001600160401b0381111561349357600080fd5b820161028081850312156134a657600080fd5b9392505050565b60005b838110156134c85781810151838201526020016134b0565b50506000910152565b600081518084526134e98160208601602086016134ad565b601f01601f19169290920160200192915050565b841515815260806020820152600061351860808301866134d1565b6040830194909452506060015292915050565b60006020828403121561353d57600080fd5b5035919050565b6001600160a01b038116811461343e57600080fd5b803561356481613544565b919050565b60008060006040848603121561357e57600080fd5b833561358981613544565b925060208401356001600160401b03808211156135a557600080fd5b818601915086601f8301126135b957600080fd5b8135818111156135c857600080fd5b8760208285010111156135da57600080fd5b6020830194508093505050509250925092565b6001600160a01b03169052565b6001600160a01b0391909116815260200190565b6000806040838503121561362157600080fd5b823561362c81613544565b946020939093013593505050565b6000806020838503121561364d57600080fd5b82356001600160401b038082111561366457600080fd5b818501915085601f83011261367857600080fd5b81358181111561368757600080fd5b8660208260051b850101111561369c57600080fd5b60209290920196919550909350505050565b634e487b7160e01b600052604160045260246000fd5b604081016001600160401b03811182821017156136e3576136e36136ae565b60405250565b601f8201601f191681016001600160401b038111828210171561370e5761370e6136ae565b6040525050565b60405161028081016001600160401b0381118282101715613738576137386136ae565b60405290565b801515811461343e57600080fd5b80356135648161373e565b60006001600160401b03821115613770576137706136ae565b50601f01601f191660200190565b600082601f83011261378f57600080fd5b813561379a81613757565b6040516137a782826136e9565b8281528560208487010111156137bc57600080fd5b82602086016020830137600092810160200192909252509392505050565b6000604082840312156137ec57600080fd5b6040516137f8816136c4565b90508082356001600160401b0381111561381157600080fd5b61381d8582860161377e565b825250602083013560208201525092915050565b60006001600160401b0382111561384a5761384a6136ae565b5060051b60200190565b60006040828403121561386657600080fd5b604051613872816136c4565b809150823560ff8116811461388657600080fd5b81526020838101356001600160401b03808211156138a357600080fd5b818601915086601f8301126138b757600080fd5b81356138c281613831565b6040516138cf82826136e9565b82815260059290921b84018501918581019150898311156138ef57600080fd5b8585015b838110156139275780358581111561390b5760008081fd5b6139198c89838a010161377e565b8452509186019186016138f3565b5080868801525050505050505092915050565b6000610280828403121561394d57600080fd5b613955613715565b9050813581526139676020830161374c565b6020820152604082013560408201526060820135606082015261398c60808301613559565b608082015260a08201356001600160401b03808211156139ab57600080fd5b6139b78583860161377e565b60a084015260c084013560c084015260e08401359150808211156139da57600080fd5b6139e68583860161377e565b60e08401526101008481013590840152610120808501359084015261014091508184013581811115613a1757600080fd5b613a238682870161377e565b838501525061016091508184013581811115613a3e57600080fd5b613a4a8682870161377e565b8385015250610180915081840135828401526101a091508184013581811115613a7257600080fd5b613a7e8682870161377e565b83850152506101c091508184013581811115613a9957600080fd5b613aa58682870161377e565b83850152506101e09150613aba828501613559565b828401526102009150613ace828501613559565b8284015261022091508184013581811115613ae857600080fd5b613af4868287016137da565b838501525061024091508184013581811115613b0f57600080fd5b613b1b86828701613854565b838501525061026091508184013581811115613b3657600080fd5b613b428682870161377e565b8385015250505092915050565b600060208284031215613b6157600080fd5b81356001600160401b03811115613b7757600080fd5b612f418482850161393a565b600060208284031215613b9557600080fd5b81516134a681613544565b6000613221368361393a565b634e487b7160e01b600052601160045260246000fd5b808202811582820484141761322157613221613bac565b8082018082111561322157613221613bac565b8181038181111561322157613221613bac565b6000808335601e19843603018112613c1657600080fd5b8301803591506001600160401b03821115613c3057600080fd5b602001915036819003821315613c4557600080fd5b9250929050565b600082613c6957634e487b7160e01b600052601260045260246000fd5b500490565b81835281816020850137506000828201602090810191909152601f909101601f19169091010190565b602081526000612f41602083018486613c6e565b7903332b2903932b4b6b13ab939b2b6b2b73a103330b4b632b21d160351b815260008251613ce081601a8501602087016134ad565b91909101601a0192915050565b6020815260006134a660208301846134d1565b600060208284031215613d1257600080fd5b81356134a681613544565b84815283602082015260018060a01b0383166040820152608060608201526000613d4a60808301846134d1565b9695505050505050565b6020808252601f908201527f63616c6c6572206e6f7420657874656e73696f6e20696e20636f6e7465787400604082015260600190565b6000613d9683613757565b604051613da382826136e9565b809250848152858585011115613db857600080fd5b613dc68560208301866134ad565b50509392505050565b600082601f830112613de057600080fd5b6134a683835160208501613d8b565b600060208284031215613e0157600080fd5b81516001600160401b03811115613e1757600080fd5b612f4184828501613dcf565b60018060a01b0385168152836020820152606060408201526000613d4a606083018486613c6e565b634e487b7160e01b600052603260045260246000fd5b7503932b8bab2b9ba103a37b5b2b7103330b4b632b21d160551b815260008251613e928160168501602087016134ad565b9190910160160192915050565b600060018201613eb157613eb1613bac565b5060010190565b60208082528181018390526000906040600585901b8401810190840186845b87811015613f4657868403603f190183528135368a9003601e19018112613efd57600080fd5b890185810190356001600160401b03811115613f1857600080fd5b803603821315613f2757600080fd5b613f32868284613c6e565b955050509184019190840190600101613ed7565b5091979650505050505050565b600060208284031215613f6557600080fd5b5051919050565b600060608284031215613f7e57600080fd5b604051606081016001600160401b0381118282101715613fa057613fa06136ae565b6040528251613fae81613544565b81526020830151613fbe8161373e565b60208201526040928301519281019290925250919050565b6020808252600f908201526e195b585a5b081b9d5b1b1a599a5959608a1b604082015260600190565b60006020828403121561401157600080fd5b81516134a68161373e565b83815260606020820152600061403560608301856134d1565b9050826040830152949350505050565b600081516040845261405a60408501826134d1565b602093840151949093019390935250919050565b60006040830160ff835116845260208084015160408287015282815180855260608801915060608160051b8901019450838301925060005b818110156140d457605f198987030183526140c28685516134d1565b955092840192918401916001016140a6565b5093979650505050505050565b606081528351606082015260006020850151614101608084018215159052565b50604085015160a0830152606085015160c0830152608085015161412860e08401826135ed565b5060a085015161028061010081818601526141476102e08601846134d1565b925060c0880151610120818188015260e08a01519150605f196101408189880301818a015261417687856134d1565b9650848c01519450610160935084848a0152828c01519450610180925084838a0152808c01519450506101a08189880301818a01526141b587866134d1565b9650838c015194506101c093508189880301848a01526141d587866134d1565b9650828c015194506101e0925084838a0152808c01519450506102008189880301818a015261420487866134d1565b9650838c0151945061022093508189880301848a015261422487866134d1565b9650828c01519450610240925061423d838a01866135ed565b8b01519350610260614251898201866135ed565b838c015194508189880301868a015261426a8786614045565b9650828c0151955081898803016102a08a0152614287878761406e565b9650808c015195505080888703016102c0890152505050506142a982826134d1565b925050506142ba60208301856135ed565b612f4160408301846135ed565b600080604083850312156142da57600080fd5b82516001600160401b038111156142f057600080fd5b6142fc85828601613dcf565b925050602083015161430d8161373e565b809150509250929050565b6a039bab13532b1ba10109e960ad1b81526000825161433e81600b8501602087016134ad565b91909101600b0192915050565b600061014080835261435f8184018e6134d1565b90508b60208401528a6040840152828103606084015261437f818b6134d1565b90508860808401528760a08401528660c084015285151560e0840152846101008401528281036101208401526143b581856134d1565b9d9c50505050505050505050505050565b6001600160a01b038781168252861660208201526040810185905260a0606082018190526000906143fa9083018587613c6e565b90508215156080830152979650505050505050565b60018060a01b038416815282602082015260606040820152600061443660608301846134d1565b95945050505050565b600060033d11156144585760046000803e5060005160e01c5b90565b600060443d10156144695790565b6040516003193d81016004833e81513d6001600160401b03808311602484018310171561449857505050505090565b82850191508151818111156144b05750505050505090565b843d87010160208285010111156144ca5750505050505090565b6144d9602082860101876136e9565b509095945050505050565b6000806000606084860312156144f957600080fd5b835161450481613544565b6020850151604086015191945092506001600160401b0381111561452757600080fd5b8401601f8101861361453857600080fd5b61454786825160208401613d8b565b9150509250925092565b6001600160a01b039390931683526020830191909152604082015260600190565b600060018060a01b0380861683526060602084015261459460608401866134d1565b9150808416604084015250949350505050565b6001600160a01b0383168152604060208201819052600090612f41908301846134d1565b6000602082840312156145dd57600080fd5b81516001600160401b03808211156145f457600080fd5b818401915084601f83011261460857600080fd5b815161461381613831565b60405161462082826136e9565b80915082815260208101915060208360051b86010192508783111561464457600080fd5b602085015b838110156146fe5780518581111561466057600080fd5b8601603f81018a1361467157600080fd5b602081015161467f81613831565b60405161468c82826136e9565b82815260059290921b8301604001916020810191508c8311156146ae57600080fd5b604084015b838110156146e85780518a8111156146ca57600080fd5b6146d98f604083890101613dcf565b845250602092830192016146b3565b5086525050602093840193919091019050614649565b50979650505050505050565b6000806040838503121561471d57600080fd5b825160208401519092506001600160401b0381111561473b57600080fd5b61474785828601613dcf565b9150509250929050565b600060ff821660ff810361476757614767613bac565b60010192915050565b600060c0820160ff89168352602060c08185015281895180845260e08601915060e08160051b8701019350828b0160005b828110156147cf5760df198887030184526147bd8683516134d1565b955092840192908401906001016147a1565b5050505050809150506147e560408301876135ed565b84151560608301526147fa60808301856135ed565b8260a0830152979650505050505050565b6000825161481d8184602087016134ad565b919091019291505056fe65727220657865637574696e67207472616e736665724f776e657273686970206f6e2077616c6c6574696e636f7272656374204554482073656e7420666f7220756e636c61696d6564a2646970667358221220b2cb2c2a6ff637794eecf150bf50a6a3fbe078fad7bc448900f9822a2513b43664736f6c63430008110033",
    "linkReferences": {
      "src/libraries/SubjectUtils.sol": {
        "SubjectUtils": [
          {
            "start": 6986,
            "length": 20
          }
        ]
      }
    }
  },
  "methodIdentifiers": {
    "accountHandler()": "33ddfb9a",
    "depositTokenAsExtension(address,uint256)": "75af3217",
    "emailNullifiers(bytes32)": "17ace6b5",
    "emailValidityDuration()": "b90d36f9",
    "executeAsExtension(address,bytes)": "21d71c8f",
    "extensionHandler()": "9f6d1d83",
    "handleEmailOp((bytes32,bool,bytes32,uint256,address,string,bytes32,string,bytes32,uint256,string,string,uint256,bytes,string,address,address,(string,uint256),(uint8,bytes[]),bytes))": "1377df44",
    "initialize(bytes[])": "6f2de70e",
    "maxFeePerGas()": "2728bf2c",
    "priceOracle()": "2630c12f",
    "registerUnclaimedStateAsExtension(address,bytes)": "c9af3f1c",
    "relayerHandler()": "5e5f2610",
    "requestTokenAsExtension(address,uint256)": "65a345ac",
    "tokenRegistry()": "9d23c4c7",
    "unclaimedFundClaimGas()": "66221734",
    "unclaimedStateClaimGas()": "a87fedae",
    "unclaimsHandler()": "d5e5c1c8",
    "validateEmailOp((bytes32,bool,bytes32,uint256,address,string,bytes32,string,bytes32,uint256,string,string,uint256,bytes,string,address,address,(string,uint256),(uint8,bytes[]),bytes))": "a3964475",
    "verifier()": "2b7ac3f3",
    "wethContract()": "4780eac1"
  },
  "id": 118
}