{
  "abi": [
    {
      "inputs": [
        {
          "internalType": "address",
          "name": "coreAddr",
          "type": "address"
        },
        {
          "internalType": "address",
          "name": "_router",
          "type": "address"
        }
      ],
      "stateMutability": "nonpayable",
      "type": "constructor"
    },
    {
      "inputs": [
        {
          "internalType": "string",
          "name": "",
          "type": "string"
        }
      ],
      "name": "addressOfNFTName",
      "outputs": [
        {
          "internalType": "address",
          "name": "",
          "type": "address"
        }
      ],
      "stateMutability": "view",
      "type": "function"
    },
    {
      "inputs": [
        {
          "components": [
            {
              "internalType": "bytes32",
              "name": "emailAddrCommit",
              "type": "bytes32"
            },
            {
              "internalType": "address",
              "name": "extensionAddr",
              "type": "address"
            },
            {
              "internalType": "address",
              "name": "sender",
              "type": "address"
            },
            {
              "internalType": "bytes",
              "name": "state",
              "type": "bytes"
            },
            {
              "internalType": "uint256",
              "name": "expiryTime",
              "type": "uint256"
            }
          ],
          "internalType": "struct UnclaimedState",
          "name": "unclaimedState",
          "type": "tuple"
        },
        {
          "internalType": "address",
          "name": "wallet",
          "type": "address"
        }
      ],
      "name": "claimUnclaimedState",
      "outputs": [],
      "stateMutability": "nonpayable",
      "type": "function"
    },
    {
      "inputs": [],
      "name": "core",
      "outputs": [
        {
          "internalType": "contract EmailWalletCore",
          "name": "",
          "type": "address"
        }
      ],
      "stateMutability": "view",
      "type": "function"
    },
    {
      "inputs": [
        {
          "internalType": "uint8",
          "name": "templateIndex",
          "type": "uint8"
        },
        {
          "internalType": "bytes[]",
          "name": "subjectParams",
          "type": "bytes[]"
        },
        {
          "internalType": "address",
          "name": "wallet",
          "type": "address"
        },
        {
          "internalType": "bool",
          "name": "hasEmailRecipient",
          "type": "bool"
        },
        {
          "internalType": "address",
          "name": "recipientETHAddr",
          "type": "address"
        },
        {
          "internalType": "bytes32",
          "name": "emailNullifier",
          "type": "bytes32"
        }
      ],
      "name": "execute",
      "outputs": [],
      "stateMutability": "nonpayable",
      "type": "function"
    },
    {
      "inputs": [],
      "name": "poolFee",
      "outputs": [
        {
          "internalType": "uint24",
          "name": "",
          "type": "uint24"
        }
      ],
      "stateMutability": "view",
      "type": "function"
    },
    {
      "inputs": [
        {
          "components": [
            {
              "internalType": "bytes32",
              "name": "emailAddrCommit",
              "type": "bytes32"
            },
            {
              "internalType": "address",
              "name": "extensionAddr",
              "type": "address"
            },
            {
              "internalType": "address",
              "name": "sender",
              "type": "address"
            },
            {
              "internalType": "bytes",
              "name": "state",
              "type": "bytes"
            },
            {
              "internalType": "uint256",
              "name": "expiryTime",
              "type": "uint256"
            }
          ],
          "internalType": "struct UnclaimedState",
          "name": "unclaimedState",
          "type": "tuple"
        },
        {
          "internalType": "bool",
          "name": "isInternal",
          "type": "bool"
        }
      ],
      "name": "registerUnclaimedState",
      "outputs": [],
      "stateMutability": "nonpayable",
      "type": "function"
    },
    {
      "inputs": [],
      "name": "router",
      "outputs": [
        {
          "internalType": "contract ISwapRouter",
          "name": "",
          "type": "address"
        }
      ],
      "stateMutability": "view",
      "type": "function"
    },
    {
      "inputs": [
        {
          "internalType": "uint256",
          "name": "",
          "type": "uint256"
        },
        {
          "internalType": "uint256",
          "name": "",
          "type": "uint256"
        }
      ],
      "name": "templates",
      "outputs": [
        {
          "internalType": "string",
          "name": "",
          "type": "string"
        }
      ],
      "stateMutability": "view",
      "type": "function"
    },
    {
      "inputs": [
        {
          "components": [
            {
              "internalType": "bytes32",
              "name": "emailAddrCommit",
              "type": "bytes32"
            },
            {
              "internalType": "address",
              "name": "extensionAddr",
              "type": "address"
            },
            {
              "internalType": "address",
              "name": "sender",
              "type": "address"
            },
            {
              "internalType": "bytes",
              "name": "state",
              "type": "bytes"
            },
            {
              "internalType": "uint256",
              "name": "expiryTime",
              "type": "uint256"
            }
          ],
          "internalType": "struct UnclaimedState",
          "name": "unclaimedState",
          "type": "tuple"
        }
      ],
      "name": "voidUnclaimedState",
      "outputs": [],
      "stateMutability": "nonpayable",
      "type": "function"
    }
  ],
  "bytecode": {
    "object": "0x6001608081815260c06040529060a05b60608152602001906001900390816200000f57505080516200003a916003916020909101906200015c565b503480156200004857600080fd5b50604051620016b5380380620016b58339810160408190526200006b916200034c565b600080546001600160a01b038085166001600160a01b031992831617835560018054918516919092161790556040805160c081018252600460808201908152630537761760e41b60a0830152815281518083018352600d81526c7b746f6b656e416d6f756e747d60981b60208281019190915280830191909152825180840184526002815261746f60f01b8183015282840152825180840190935260088352677b737472696e677d60c01b908301526060810191909152600380549192909162000139576200013962000384565b9060005260206000200190600462000153929190620001c0565b505050620004f5565b828054828255906000526020600020908101928215620001ae579160200282015b82811115620001ae57825180516200019d91849160209091019062000219565b50916020019190600101906200017d565b50620001bc92915062000264565b5090565b8280548282559060005260206000209081019282156200020b579160200282015b828111156200020b5782518290620001fa908262000429565b5091602001919060010190620001e1565b50620001bc92915062000285565b8280548282559060005260206000209081019282156200020b579160200282015b828111156200020b578251829062000253908262000429565b50916020019190600101906200023a565b80821115620001bc5760006200027b8282620002a6565b5060010162000264565b80821115620001bc5760006200029c8282620002c9565b5060010162000285565b5080546000825590600052602060002090810190620002c6919062000285565b50565b508054620002d7906200039a565b6000825580601f10620002e8575050565b601f016020900490600052602060002090810190620002c691905b80821115620001bc576000815560010162000303565b634e487b7160e01b600052604160045260246000fd5b80516001600160a01b03811681146200034757600080fd5b919050565b600080604083850312156200036057600080fd5b6200036b836200032f565b91506200037b602084016200032f565b90509250929050565b634e487b7160e01b600052603260045260246000fd5b600181811c90821680620003af57607f821691505b602082108103620003d057634e487b7160e01b600052602260045260246000fd5b50919050565b601f8211156200042457600081815260208120601f850160051c81016020861015620003ff5750805b601f850160051c820191505b8181101562000420578281556001016200040b565b5050505b505050565b81516001600160401b0381111562000445576200044562000319565b6200045d816200045684546200039a565b84620003d6565b602080601f8311600181146200049557600084156200047c5750858301515b600019600386901b1c1916600185901b17855562000420565b600085815260208120601f198616915b82811015620004c657888601518255948401946001909101908401620004a5565b5085821015620004e55787850151600019600388901b60f8161c191681555b5050505050600190811b01905550565b6111b080620005056000396000f3fe608060405234801561001057600080fd5b50600436106100935760003560e01c8063e93977e811610066578063e93977e814610101578063eba8f5b414610114578063f2f4eb2614610122578063f887ea401461014d578063fd72aa301461016057600080fd5b8063089fe6aa14610098578063534e4af7146100ba578063d07e0189146100ce578063e05df3ee146100ee575b600080fd5b6100a1610bb881565b60405162ffffff90911681526020015b60405180910390f35b6100cc6100c8366004610c8d565b5050565b005b6100e16100dc366004610cdf565b610194565b6040516100b19190610d25565b6100cc6100fc366004610d58565b610259565b6100cc61010f366004610d9f565b610298565b6100cc6100fc366004610eb5565b600054610135906001600160a01b031681565b6040516001600160a01b0390911681526020016100b1565b600154610135906001600160a01b031681565b61013561016e366004610ef2565b80516020818301810180516002825292820191909301209152546001600160a01b031681565b600382815481106101a457600080fd5b9060005260206000200181815481106101bc57600080fd5b906000526020600020016000915091505080546101d890610f3b565b80601f016020809104026020016040519081016040528092919081815260200182805461020490610f3b565b80156102515780601f1061022657610100808354040283529160200191610251565b820191906000526020600020905b81548152906001019060200180831161023457829003601f168201915b505050505081565b60405162461bcd60e51b815260206004820152600f60248201526e139bdd081a5b5c1b195b595b9d1959608a1b60448201526064015b60405180910390fd5b600080866000815181106102ae576102ae610f75565b60200260200101518060200190518101906102c99190610fd0565b915091506000876001815181106102e2576102e2610f75565b60200260200101518060200190518101906102fd9190611017565b6000805460405163076c2e9160e51b815292935090916001600160a01b039091169063ed85d22090610333908690600401610d25565b602060405180830381865afa158015610350573d6000803e3d6000fd5b505050506040513d601f19601f82011682018060405250810190610374919061104c565b6000805460405163076c2e9160e51b815292935090916001600160a01b039091169063ed85d220906103aa908690600401610d25565b602060405180830381865afa1580156103c7573d6000803e3d6000fd5b505050506040513d601f19601f820116820180604052508101906103eb919061104c565b6000549091506001600160a01b031633146104395760405162461bcd60e51b815260206004820152600e60248201526d34b73b30b634b21039b2b73232b960911b604482015260640161028f565b60ff8b16156104825760405162461bcd60e51b81526020600482015260156024820152740d2dcecc2d8d2c840e8cadae0d8c2e8ca92dcc8caf605b1b604482015260640161028f565b6001600160a01b0381166104d15760405162461bcd60e51b8152602060048201526016602482015275696e76616c6964206f757420746f6b656e206e616d6560501b604482015260640161028f565b871561051f5760405162461bcd60e51b815260206004820152601a60248201527f726563697069656e74206973206e6f7420737570706f72746564000000000000604482015260640161028f565b6040516370a0823160e01b81523060048201526000906001600160a01b038416906370a0823190602401602060405180830381865afa158015610566573d6000803e3d6000fd5b505050506040513d601f19601f8201168201806040525081019061058a9190611069565b600054604051631968d16b60e21b81526001600160a01b038681166004830152602482018a90529293509116906365a345ac90604401600060405180830381600087803b1580156105da57600080fd5b505af11580156105ee573d6000803e3d6000fd5b50506040516370a0823160e01b81523060048201528892508391506001600160a01b038616906370a0823190602401602060405180830381865afa15801561063a573d6000803e3d6000fd5b505050506040513d601f19601f8201168201806040525081019061065e9190611069565b6106689190611082565b146106b55760405162461bcd60e51b815260206004820152601b60248201527f746f6b656e206973206e6f742073656e742066726f6d20636f72650000000000604482015260640161028f565b60015460405163095ea7b360e01b81526001600160a01b039182166004820152602481018890529084169063095ea7b3906044016020604051808303816000875af1158015610708573d6000803e3d6000fd5b505050506040513d601f19601f8201168201806040525081019061072c91906110a9565b6107485760405162461bcd60e51b815260040161028f906110c6565b6000805460405163076c2e9160e51b815260206004820152600360248201526208aa8960eb1b60448201526001600160a01b039091169063ed85d22090606401602060405180830381865afa1580156107a5573d6000803e3d6000fd5b505050506040513d601f19601f820116820180604052508101906107c9919061104c565b9050806001600160a01b0316846001600160a01b0316141580156107ff5750806001600160a01b0316836001600160a01b031614155b15610a0d5760408051610100810182526001600160a01b0380871682528381166020830152610bb88284015230606083015242608083015260a082018a9052600060c0830181905260e08301819052600154935163414bf38960e01b81529293909291169063414bf38990610878908590600401611111565b6020604051808303816000875af1158015610897573d6000803e3d6000fd5b505050506040513d601f19601f820116820180604052508101906108bb9190611069565b60015460405163095ea7b360e01b81526001600160a01b0391821660048201526024810183905291925084169063095ea7b3906044016020604051808303816000875af1158015610910573d6000803e3d6000fd5b505050506040513d601f19601f8201168201806040525081019061093491906110a9565b6109505760405162461bcd60e51b815260040161028f906110c6565b60408051610100810182526001600160a01b0380861682528781166020830152610bb8828401528f8116606083015242608083015260a08201849052600060c0830181905260e0830152600154925163414bf38960e01b81529192169063414bf389906109c1908490600401611111565b6020604051808303816000875af11580156109e0573d6000803e3d6000fd5b505050506040513d601f19601f82011682018060405250810190610a049190611069565b50505050610ac4565b60408051610100810182526001600160a01b0380871682528581166020830152610bb8828401528d8116606083015242608083015260a082018a9052600060c0830181905260e0830152600154925163414bf38960e01b81529192169063414bf38990610a7e908490600401611111565b6020604051808303816000875af1158015610a9d573d6000803e3d6000fd5b505050506040513d601f19601f82011682018060405250810190610ac19190611069565b50505b50505050505050505050505050565b634e487b7160e01b600052604160045260246000fd5b604051601f8201601f1916810167ffffffffffffffff81118282101715610b1257610b12610ad3565b604052919050565b6001600160a01b0381168114610b2f57600080fd5b50565b8035610b3d81610b1a565b919050565b600067ffffffffffffffff821115610b5c57610b5c610ad3565b50601f01601f191660200190565b6000610b7d610b7884610b42565b610ae9565b9050828152838383011115610b9157600080fd5b828260208301376000602084830101529392505050565b600082601f830112610bb957600080fd5b610bc883833560208501610b6a565b9392505050565b600060a08284031215610be157600080fd5b60405160a0810167ffffffffffffffff8282108183111715610c0557610c05610ad3565b816040528293508435835260208501359150610c2082610b1a565b81602084015260408501359150610c3682610b1a565b8160408401526060850135915080821115610c5057600080fd5b50610c5d85828601610ba8565b606083015250608083013560808201525092915050565b8015158114610b2f57600080fd5b8035610b3d81610c74565b60008060408385031215610ca057600080fd5b823567ffffffffffffffff811115610cb757600080fd5b610cc385828601610bcf565b9250506020830135610cd481610c74565b809150509250929050565b60008060408385031215610cf257600080fd5b50508035926020909101359150565b60005b83811015610d1c578181015183820152602001610d04565b50506000910152565b6020815260008251806020840152610d44816040850160208701610d01565b601f01601f19169190910160400192915050565b60008060408385031215610d6b57600080fd5b823567ffffffffffffffff811115610d8257600080fd5b610d8e85828601610bcf565b9250506020830135610cd481610b1a565b60008060008060008060c08789031215610db857600080fd5b863560ff81168114610dc957600080fd5b955060208781013567ffffffffffffffff80821115610de757600080fd5b818a0191508a601f830112610dfb57600080fd5b813581811115610e0d57610e0d610ad3565b8060051b610e1c858201610ae9565b918252838101850191858101908e841115610e3657600080fd5b86860192505b83831015610e70578483351115610e5257600080fd5b610e618f888535890101610ba8565b82529186019190860190610e3c565b809b5050505050505050610e8660408801610b32565b9350610e9460608801610c82565b9250610ea260808801610b32565b915060a087013590509295509295509295565b600060208284031215610ec757600080fd5b813567ffffffffffffffff811115610ede57600080fd5b610eea84828501610bcf565b949350505050565b600060208284031215610f0457600080fd5b813567ffffffffffffffff811115610f1b57600080fd5b8201601f81018413610f2c57600080fd5b610eea84823560208401610b6a565b600181811c90821680610f4f57607f821691505b602082108103610f6f57634e487b7160e01b600052602260045260246000fd5b50919050565b634e487b7160e01b600052603260045260246000fd5b600082601f830112610f9c57600080fd5b8151610faa610b7882610b42565b818152846020838601011115610fbf57600080fd5b610eea826020830160208701610d01565b60008060408385031215610fe357600080fd5b82519150602083015167ffffffffffffffff81111561100157600080fd5b61100d85828601610f8b565b9150509250929050565b60006020828403121561102957600080fd5b815167ffffffffffffffff81111561104057600080fd5b610eea84828501610f8b565b60006020828403121561105e57600080fd5b8151610bc881610b1a565b60006020828403121561107b57600080fd5b5051919050565b818103818111156110a357634e487b7160e01b600052601160045260246000fd5b92915050565b6000602082840312156110bb57600080fd5b8151610bc881610c74565b6020808252602b908201527f617070726f76652066726f6d2074686520657874656e73696f6e20746f20726f60408201526a1d5d195c8819985a5b195960aa1b606082015260800190565b81516001600160a01b03908116825260208084015182169083015260408084015162ffffff16908301526060808401518216908301526080808401519083015260a0838101519083015260c0808401519083015260e0928301511691810191909152610100019056fea264697066735822122050d4890ea115ad3af3c6f539439caf5ba48485c473bc9081b2a293fe4aecf7c264736f6c63430008110033",
    "linkReferences": {}
  },
  "methodIdentifiers": {
    "addressOfNFTName(string)": "fd72aa30",
    "claimUnclaimedState((bytes32,address,address,bytes,uint256),address)": "e05df3ee",
    "core()": "f2f4eb26",
    "execute(uint8,bytes[],address,bool,address,bytes32)": "e93977e8",
    "poolFee()": "089fe6aa",
    "registerUnclaimedState((bytes32,address,address,bytes,uint256),bool)": "534e4af7",
    "router()": "f887ea40",
    "templates(uint256,uint256)": "d07e0189",
    "voidUnclaimedState((bytes32,address,address,bytes,uint256))": "eba8f5b4"
  },
  "id": 157
}