{
  "abi": [
    {
      "inputs": [
        {
          "internalType": "address",
          "name": "coreAddr",
          "type": "address"
        },
        {
          "internalType": "address",
          "name": "_router",
          "type": "address"
        }
      ],
      "stateMutability": "nonpayable",
      "type": "constructor"
    },
    {
      "inputs": [
        {
          "internalType": "string",
          "name": "",
          "type": "string"
        }
      ],
      "name": "addressOfNFTName",
      "outputs": [
        {
          "internalType": "address",
          "name": "",
          "type": "address"
        }
      ],
      "stateMutability": "view",
      "type": "function"
    },
    {
      "inputs": [
        {
          "components": [
            {
              "internalType": "bytes32",
              "name": "emailAddrCommit",
              "type": "bytes32"
            },
            {
              "internalType": "address",
              "name": "extensionAddr",
              "type": "address"
            },
            {
              "internalType": "address",
              "name": "sender",
              "type": "address"
            },
            {
              "internalType": "bytes",
              "name": "state",
              "type": "bytes"
            },
            {
              "internalType": "uint256",
              "name": "expiryTime",
              "type": "uint256"
            }
          ],
          "internalType": "struct UnclaimedState",
          "name": "unclaimedState",
          "type": "tuple"
        },
        {
          "internalType": "address",
          "name": "wallet",
          "type": "address"
        }
      ],
      "name": "claimUnclaimedState",
      "outputs": [],
      "stateMutability": "nonpayable",
      "type": "function"
    },
    {
      "inputs": [],
      "name": "core",
      "outputs": [
        {
          "internalType": "contract EmailWalletCore",
          "name": "",
          "type": "address"
        }
      ],
      "stateMutability": "view",
      "type": "function"
    },
    {
      "inputs": [
        {
          "internalType": "uint8",
          "name": "templateIndex",
          "type": "uint8"
        },
        {
          "internalType": "bytes[]",
          "name": "subjectParams",
          "type": "bytes[]"
        },
        {
          "internalType": "address",
          "name": "wallet",
          "type": "address"
        },
        {
          "internalType": "bool",
          "name": "hasEmailRecipient",
          "type": "bool"
        },
        {
          "internalType": "address",
          "name": "recipientETHAddr",
          "type": "address"
        },
        {
          "internalType": "bytes32",
          "name": "emailNullifier",
          "type": "bytes32"
        }
      ],
      "name": "execute",
      "outputs": [],
      "stateMutability": "nonpayable",
      "type": "function"
    },
    {
      "inputs": [],
      "name": "poolFee",
      "outputs": [
        {
          "internalType": "uint24",
          "name": "",
          "type": "uint24"
        }
      ],
      "stateMutability": "view",
      "type": "function"
    },
    {
      "inputs": [
        {
          "components": [
            {
              "internalType": "bytes32",
              "name": "emailAddrCommit",
              "type": "bytes32"
            },
            {
              "internalType": "address",
              "name": "extensionAddr",
              "type": "address"
            },
            {
              "internalType": "address",
              "name": "sender",
              "type": "address"
            },
            {
              "internalType": "bytes",
              "name": "state",
              "type": "bytes"
            },
            {
              "internalType": "uint256",
              "name": "expiryTime",
              "type": "uint256"
            }
          ],
          "internalType": "struct UnclaimedState",
          "name": "unclaimedState",
          "type": "tuple"
        },
        {
          "internalType": "bool",
          "name": "isInternal",
          "type": "bool"
        }
      ],
      "name": "registerUnclaimedState",
      "outputs": [
        {
          "internalType": "bool",
          "name": "",
          "type": "bool"
        }
      ],
      "stateMutability": "nonpayable",
      "type": "function"
    },
    {
      "inputs": [],
      "name": "router",
      "outputs": [
        {
          "internalType": "contract ISwapRouter",
          "name": "",
          "type": "address"
        }
      ],
      "stateMutability": "view",
      "type": "function"
    },
    {
      "inputs": [
        {
          "internalType": "uint256",
          "name": "",
          "type": "uint256"
        },
        {
          "internalType": "uint256",
          "name": "",
          "type": "uint256"
        }
      ],
      "name": "templates",
      "outputs": [
        {
          "internalType": "string",
          "name": "",
          "type": "string"
        }
      ],
      "stateMutability": "view",
      "type": "function"
    },
    {
      "inputs": [
        {
          "components": [
            {
              "internalType": "bytes32",
              "name": "emailAddrCommit",
              "type": "bytes32"
            },
            {
              "internalType": "address",
              "name": "extensionAddr",
              "type": "address"
            },
            {
              "internalType": "address",
              "name": "sender",
              "type": "address"
            },
            {
              "internalType": "bytes",
              "name": "state",
              "type": "bytes"
            },
            {
              "internalType": "uint256",
              "name": "expiryTime",
              "type": "uint256"
            }
          ],
          "internalType": "struct UnclaimedState",
          "name": "unclaimedState",
          "type": "tuple"
        }
      ],
      "name": "voidUnclaimedState",
      "outputs": [],
      "stateMutability": "nonpayable",
      "type": "function"
    }
  ],
  "bytecode": {
    "object": "0x6001608081815260c06040529060a05b60608152602001906001900390816200000f57505080516200003a916003916020909101906200015c565b503480156200004857600080fd5b506040516200129a3803806200129a8339810160408190526200006b916200034c565b600080546001600160a01b038085166001600160a01b031992831617835560018054918516919092161790556040805160c081018252600460808201908152630537761760e41b60a0830152815281518083018352600d81526c7b746f6b656e416d6f756e747d60981b60208281019190915280830191909152825180840184526002815261746f60f01b8183015282840152825180840190935260088352677b737472696e677d60c01b908301526060810191909152600380549192909162000139576200013962000384565b9060005260206000200190600462000153929190620001c0565b505050620004f5565b828054828255906000526020600020908101928215620001ae579160200282015b82811115620001ae57825180516200019d91849160209091019062000219565b50916020019190600101906200017d565b50620001bc92915062000264565b5090565b8280548282559060005260206000209081019282156200020b579160200282015b828111156200020b5782518290620001fa908262000429565b5091602001919060010190620001e1565b50620001bc92915062000285565b8280548282559060005260206000209081019282156200020b579160200282015b828111156200020b578251829062000253908262000429565b50916020019190600101906200023a565b80821115620001bc5760006200027b8282620002a6565b5060010162000264565b80821115620001bc5760006200029c8282620002c9565b5060010162000285565b5080546000825590600052602060002090810190620002c6919062000285565b50565b508054620002d7906200039a565b6000825580601f10620002e8575050565b601f016020900490600052602060002090810190620002c691905b80821115620001bc576000815560010162000303565b634e487b7160e01b600052604160045260246000fd5b80516001600160a01b03811681146200034757600080fd5b919050565b600080604083850312156200036057600080fd5b6200036b836200032f565b91506200037b602084016200032f565b90509250929050565b634e487b7160e01b600052603260045260246000fd5b600181811c90821680620003af57607f821691505b602082108103620003d057634e487b7160e01b600052602260045260246000fd5b50919050565b601f8211156200042457600081815260208120601f850160051c81016020861015620003ff5750805b601f850160051c820191505b8181101562000420578281556001016200040b565b5050505b505050565b81516001600160401b0381111562000445576200044562000319565b6200045d816200045684546200039a565b84620003d6565b602080601f8311600181146200049557600084156200047c5750858301515b600019600386901b1c1916600185901b17855562000420565b600085815260208120601f198616915b82811015620004c657888601518255948401946001909101908401620004a5565b5085821015620004e55787850151600019600388901b60f8161c191681555b5050505050600190811b01905550565b610d9580620005056000396000f3fe608060405234801561001057600080fd5b50600436106100935760003560e01c8063e93977e811610066578063e93977e814610112578063eba8f5b414610125578063f2f4eb2614610133578063f887ea401461015e578063fd72aa301461017157600080fd5b8063089fe6aa14610098578063534e4af7146100ba578063d07e0189146100dd578063e05df3ee146100fd575b600080fd5b6100a1610bb881565b60405162ffffff90911681526020015b60405180910390f35b6100cd6100c836600461094c565b6101a5565b60405190151581526020016100b1565b6100f06100eb36600461099a565b6101e7565b6040516100b191906109e0565b61011061010b366004610a13565b6102ac565b005b610110610120366004610a65565b6102e6565b61011061010b366004610b7b565b600054610146906001600160a01b031681565b6040516001600160a01b0390911681526020016100b1565b600154610146906001600160a01b031681565b61014661017f366004610bb8565b80516020818301810180516002825292820191909301209152546001600160a01b031681565b60405162461bcd60e51b815260206004820152600f60248201526e139bdd081a5b5c1b195b595b9d1959608a1b60448201526000906064015b60405180910390fd5b600382815481106101f757600080fd5b90600052602060002001818154811061020f57600080fd5b9060005260206000200160009150915050805461022b90610c01565b80601f016020809104026020016040519081016040528092919081815260200182805461025790610c01565b80156102a45780601f10610279576101008083540402835291602001916102a4565b820191906000526020600020905b81548152906001019060200180831161028757829003601f168201915b505050505081565b60405162461bcd60e51b815260206004820152600f60248201526e139bdd081a5b5c1b195b595b9d1959608a1b60448201526064016101de565b600080866000815181106102fc576102fc610c3b565b60200260200101518060200190518101906103179190610c51565b6000805460405163076c2e9160e51b8152939550919350916001600160a01b039091169063ed85d2209061034f9085906004016109e0565b602060405180830381865afa15801561036c573d6000803e3d6000fd5b505050506040513d601f19601f820116820180604052508101906103909190610d02565b6000549091506001600160a01b031633146103de5760405162461bcd60e51b815260206004820152600e60248201526d34b73b30b634b21039b2b73232b960911b60448201526064016101de565b60ff8916156104275760405162461bcd60e51b81526020600482015260156024820152740d2dcecc2d8d2c840e8cadae0d8c2e8ca92dcc8caf605b1b60448201526064016101de565b6001600160a01b0381166104765760405162461bcd60e51b8152602060048201526016602482015275696e76616c6964206f757420746f6b656e206e616d6560501b60448201526064016101de565b85156104c45760405162461bcd60e51b815260206004820152601a60248201527f726563697069656e74206973206e6f7420737570706f7274656400000000000060448201526064016101de565b82516040516370a0823160e01b81523060048201526000916001600160a01b0316906370a0823190602401602060405180830381865afa15801561050c573d6000803e3d6000fd5b505050506040513d601f19601f820116820180604052508101906105309190610d1f565b60005485516020870151604051631968d16b60e21b81526001600160a01b039283166004820152602481019190915292935016906365a345ac90604401600060405180830381600087803b15801561058757600080fd5b505af115801561059b573d6000803e3d6000fd5b50505050602084015184516040516370a0823160e01b815230600482015283916001600160a01b0316906370a0823190602401602060405180830381865afa1580156105eb573d6000803e3d6000fd5b505050506040513d601f19601f8201168201806040525081019061060f9190610d1f565b6106199190610d38565b146106665760405162461bcd60e51b815260206004820152601b60248201527f746f6b656e206973206e6f742073656e742066726f6d20636f7265000000000060448201526064016101de565b604080516101008101825285516001600160a01b0390811682528481166020808401918252610bb88486019081528d8416606086019081524260808701908152928b015160a08701908152600060c0880181815260e08901918252600154995163414bf38960e01b8152895189166004820152965188166024880152935162ffffff16604487015291518616606486015292516084850152915160a48401525160c483015251821660e48201529192169063414bf38990610104016020604051808303816000875af1158015610740573d6000803e3d6000fd5b505050506040513d601f19601f820116820180604052508101906107649190610d1f565b505050505050505050505050565b634e487b7160e01b600052604160045260246000fd5b6040805190810167ffffffffffffffff811182821017156107ab576107ab610772565b60405290565b604051601f8201601f1916810167ffffffffffffffff811182821017156107da576107da610772565b604052919050565b6001600160a01b03811681146107f757600080fd5b50565b8035610805816107e2565b919050565b600067ffffffffffffffff82111561082457610824610772565b50601f01601f191660200190565b60006108456108408461080a565b6107b1565b905082815283838301111561085957600080fd5b828260208301376000602084830101529392505050565b600082601f83011261088157600080fd5b61089083833560208501610832565b9392505050565b600060a082840312156108a957600080fd5b60405160a0810167ffffffffffffffff82821081831117156108cd576108cd610772565b8160405282935084358352602085013591506108e8826107e2565b816020840152604085013591506108fe826107e2565b816040840152606085013591508082111561091857600080fd5b5061092585828601610870565b606083015250608083013560808201525092915050565b8035801515811461080557600080fd5b6000806040838503121561095f57600080fd5b823567ffffffffffffffff81111561097657600080fd5b61098285828601610897565b9250506109916020840161093c565b90509250929050565b600080604083850312156109ad57600080fd5b50508035926020909101359150565b60005b838110156109d75781810151838201526020016109bf565b50506000910152565b60208152600082518060208401526109ff8160408501602087016109bc565b601f01601f19169190910160400192915050565b60008060408385031215610a2657600080fd5b823567ffffffffffffffff811115610a3d57600080fd5b610a4985828601610897565b9250506020830135610a5a816107e2565b809150509250929050565b60008060008060008060c08789031215610a7e57600080fd5b863560ff81168114610a8f57600080fd5b955060208781013567ffffffffffffffff80821115610aad57600080fd5b818a0191508a601f830112610ac157600080fd5b813581811115610ad357610ad3610772565b8060051b610ae28582016107b1565b918252838101850191858101908e841115610afc57600080fd5b86860192505b83831015610b36578483351115610b1857600080fd5b610b278f888535890101610870565b82529186019190860190610b02565b809b5050505050505050610b4c604088016107fa565b9350610b5a6060880161093c565b9250610b68608088016107fa565b915060a087013590509295509295509295565b600060208284031215610b8d57600080fd5b813567ffffffffffffffff811115610ba457600080fd5b610bb084828501610897565b949350505050565b600060208284031215610bca57600080fd5b813567ffffffffffffffff811115610be157600080fd5b8201601f81018413610bf257600080fd5b610bb084823560208401610832565b600181811c90821680610c1557607f821691505b602082108103610c3557634e487b7160e01b600052602260045260246000fd5b50919050565b634e487b7160e01b600052603260045260246000fd5b6000808284036060811215610c6557600080fd5b6040811215610c7357600080fd5b50610c7c610788565b8351610c87816107e2565b815260208481015190820152604084015190925067ffffffffffffffff811115610cb057600080fd5b8301601f81018513610cc157600080fd5b8051610ccf6108408261080a565b818152866020838501011115610ce457600080fd5b610cf58260208301602086016109bc565b8093505050509250929050565b600060208284031215610d1457600080fd5b8151610890816107e2565b600060208284031215610d3157600080fd5b5051919050565b81810381811115610d5957634e487b7160e01b600052601160045260246000fd5b9291505056fea26469706673582212209b0762726f77f612c9b6ed46f5b4458d7e9f138155154a6cba10f2d0d00eab1d64736f6c63430008110033",
    "linkReferences": {}
  },
  "methodIdentifiers": {
    "addressOfNFTName(string)": "fd72aa30",
    "claimUnclaimedState((bytes32,address,address,bytes,uint256),address)": "e05df3ee",
    "core()": "f2f4eb26",
    "execute(uint8,bytes[],address,bool,address,bytes32)": "e93977e8",
    "poolFee()": "089fe6aa",
    "registerUnclaimedState((bytes32,address,address,bytes,uint256),bool)": "534e4af7",
    "router()": "f887ea40",
    "templates(uint256,uint256)": "d07e0189",
    "voidUnclaimedState((bytes32,address,address,bytes,uint256))": "eba8f5b4"
  },
  "id": 139
}