{
  "abi": [
    {
      "inputs": [
        {
          "internalType": "bytes",
          "name": "data",
          "type": "bytes"
        }
      ],
      "name": "bytesToHexString",
      "outputs": [
        {
          "internalType": "string",
          "name": "",
          "type": "string"
        }
      ],
      "stateMutability": "pure",
      "type": "function"
    },
    {
      "inputs": [
        {
          "components": [
            {
              "internalType": "bytes32",
              "name": "emailAddrPointer",
              "type": "bytes32"
            },
            {
              "internalType": "bool",
              "name": "hasEmailRecipient",
              "type": "bool"
            },
            {
              "internalType": "bytes32",
              "name": "recipientEmailAddrCommit",
              "type": "bytes32"
            },
            {
              "internalType": "uint256",
              "name": "numRecipientEmailAddrBytes",
              "type": "uint256"
            },
            {
              "internalType": "address",
              "name": "recipientETHAddr",
              "type": "address"
            },
            {
              "internalType": "string",
              "name": "command",
              "type": "string"
            },
            {
              "internalType": "bytes32",
              "name": "emailNullifier",
              "type": "bytes32"
            },
            {
              "internalType": "string",
              "name": "emailDomain",
              "type": "string"
            },
            {
              "internalType": "bytes32",
              "name": "dkimPublicKeyHash",
              "type": "bytes32"
            },
            {
              "internalType": "uint256",
              "name": "timestamp",
              "type": "uint256"
            },
            {
              "internalType": "string",
              "name": "maskedSubject",
              "type": "string"
            },
            {
              "internalType": "string",
              "name": "feeTokenName",
              "type": "string"
            },
            {
              "internalType": "uint256",
              "name": "feePerGas",
              "type": "uint256"
            },
            {
              "internalType": "bytes",
              "name": "executeCallData",
              "type": "bytes"
            },
            {
              "internalType": "string",
              "name": "extensionName",
              "type": "string"
            },
            {
              "internalType": "address",
              "name": "newWalletOwner",
              "type": "address"
            },
            {
              "internalType": "address",
              "name": "newDkimRegistry",
              "type": "address"
            },
            {
              "components": [
                {
                  "internalType": "string",
                  "name": "tokenName",
                  "type": "string"
                },
                {
                  "internalType": "uint256",
                  "name": "amount",
                  "type": "uint256"
                }
              ],
              "internalType": "struct WalletParams",
              "name": "walletParams",
              "type": "tuple"
            },
            {
              "components": [
                {
                  "internalType": "uint8",
                  "name": "subjectTemplateIndex",
                  "type": "uint8"
                },
                {
                  "internalType": "bytes[]",
                  "name": "subjectParams",
                  "type": "bytes[]"
                }
              ],
              "internalType": "struct ExtensionParams",
              "name": "extensionParams",
              "type": "tuple"
            },
            {
              "internalType": "bytes",
              "name": "emailProof",
              "type": "bytes"
            }
          ],
          "internalType": "struct EmailOp",
          "name": "emailOp",
          "type": "tuple"
        },
        {
          "internalType": "address",
          "name": "walletAddr",
          "type": "address"
        },
        {
          "internalType": "contract EmailWalletCore",
          "name": "core",
          "type": "EmailWalletCore"
        }
      ],
      "name": "computeMaskedSubjectForEmailOp",
      "outputs": [
        {
          "internalType": "string",
          "name": "maskedSubject",
          "type": "string"
        },
        {
          "internalType": "bool",
          "name": "isExtension",
          "type": "bool"
        }
      ],
      "stateMutability": "view",
      "type": "function"
    }
  ],
  "bytecode": {
    "object": "0x612b8b61003a600b82828239805160001a60731461002d57634e487b7160e01b600052600060045260246000fd5b30600052607381538281f3fe73000000000000000000000000000000000000000030146080604052600436106100405760003560e01c806330a2cc12146100455780637d520c221461006f575b600080fd5b610058610053366004612211565b61008f565b6040516100669291906124af565b60405180910390f35b61008261007d3660046124d3565b6117e0565b604051610066919061250f565b6060600080836001600160a01b0316639f6d1d836040518163ffffffff1660e01b8152600401602060405180830381865afa1580156100d2573d6000803e3d6000fd5b505050506040513d601f19601f820116820180604052508101906100f69190612522565b90506101228660a001516040518060400160405280600481526020016314d95b9960e21b815250611956565b156104c157600086610220015190506000856001600160a01b0316639d23c4c76040518163ffffffff1660e01b8152600401602060405180830381865afa158015610171573d6000803e3d6000fd5b505050506040513d601f19601f820116820180604052508101906101959190612522565b61022089015151604051636204891b60e11b81526001600160a01b03929092169163c4091236916101c89160040161250f565b602060405180830381865afa1580156101e5573d6000803e3d6000fd5b505050506040513d601f19601f820116820180604052508101906102099190612522565b90506001600160a01b03811661023a5760405162461bcd60e51b81526004016102319061253f565b60405180910390fd5b6000886102200151602001511161028e5760405162461bcd60e51b8152602060048201526018602482015277073656e6420616d6f756e742073686f756c64206265203e360441b6044820152606401610231565b60208201516040516370a0823160e01b81526001600160a01b038316906370a08231906102bf908b9060040161256c565b602060405180830381865afa1580156102dc573d6000803e3d6000fd5b505050506040513d601f19601f820116820180604052508101906103009190612580565b10156103455760405162461bcd60e51b8152602060048201526014602482015273696e73756666696369656e742062616c616e636560601b6044820152606401610231565b6040518060400160405280600481526020016314d95b9960e21b81525073__$9bf470ec03ee656486e069240ffa67e53b$__63f41ce7db8460200151846001600160a01b031663313ce5676040518163ffffffff1660e01b8152600401602060405180830381865afa1580156103bf573d6000803e3d6000fd5b505050506040513d601f19601f820116820180604052508101906103e39190612599565b6040516001600160e01b031960e085901b168152600481019290925260ff166024820152604401600060405180830381865af4158015610427573d6000803e3d6000fd5b505050506040513d6000823e601f3d908101601f1916820160405261044f9190810190612606565b83516040516104639392919060200161263a565b60408051601f1981840301815291905260808901519095506001600160a01b0316156104ba57846104978960800151611972565b6040516020016104a89291906126a5565b60405160208183030381529060405294505b50506117d7565b6104ee8660a00151604051806040016040528060078152602001664578656375746560c81b815250611956565b15610a7b576000866101a0015151116105495760405162461bcd60e51b815260206004820152601f60248201527f6578656375746543616c6c446174612063616e6e6f7420626520656d707479006044820152606401610231565b600080876101a0015180602001905181019061056591906126d4565b919350909150506001600160a01b0382166105bb5760405162461bcd60e51b81526020600482015260166024820152751a5b9d985b1a5908195e1958dd5d19481d185c99d95d60521b6044820152606401610231565b6001600160a01b0382163b61060d5760405162461bcd60e51b81526020600482015260186024820152771d185c99d95d081a5cc81b9bdd08184818dbdb9d1c9858dd60421b6044820152606401610231565b856001600160a01b0316826001600160a01b0316141580156106a25750856001600160a01b031663d5e5c1c86040518163ffffffff1660e01b8152600401602060405180830381865afa158015610668573d6000803e3d6000fd5b505050506040513d601f19601f8201168201806040525081019061068c9190612522565b6001600160a01b0316826001600160a01b031614155b80156107215750856001600160a01b03166333ddfb9a6040518163ffffffff1660e01b8152600401602060405180830381865afa1580156106e7573d6000803e3d6000fd5b505050506040513d601f19601f8201168201806040525081019061070b9190612522565b6001600160a01b0316826001600160a01b031614155b80156107a05750856001600160a01b0316635e5f26106040518163ffffffff1660e01b8152600401602060405180830381865afa158015610766573d6000803e3d6000fd5b505050506040513d601f19601f8201168201806040525081019061078a9190612522565b6001600160a01b0316826001600160a01b031614155b801561081f5750856001600160a01b0316639f6d1d836040518163ffffffff1660e01b8152600401602060405180830381865afa1580156107e5573d6000803e3d6000fd5b505050506040513d601f19601f820116820180604052508101906108099190612522565b6001600160a01b0316826001600160a01b031614155b6108765760405162461bcd60e51b815260206004820152602260248201527f63616e6e6f742065786563757465206f6e20636f7265206f722068616e646c65604482015261727360f01b6064820152608401610231565b866001600160a01b0316826001600160a01b0316036108d25760405162461bcd60e51b815260206004820152601860248201527718d85b9b9bdd08195e1958dd5d19481bdb881dd85b1b195d60421b6044820152606401610231565b856001600160a01b0316639d23c4c76040518163ffffffff1660e01b8152600401602060405180830381865afa158015610910573d6000803e3d6000fd5b505050506040513d601f19601f820116820180604052508101906109349190612522565b6001600160a01b031663b399de4e836040518263ffffffff1660e01b815260040161095f919061256c565b600060405180830381865afa15801561097c573d6000803e3d6000fd5b505050506040513d6000823e601f3d908101601f191682016040526109a49190810190612606565b51156109ec5760405162461bcd60e51b815260206004820152601760248201527631b0b73737ba1032bc32b1baba329037b7103a37b5b2b760491b6044820152606401610231565b6000815111610a3c5760405162461bcd60e51b815260206004820152601c60248201527b6578656375746520646174612063616e6e6f7420626520656d70747960201b6044820152606401610231565b604051806040016040528060078152602001664578656375746560c81b815250610a6a896101a001516117e0565b6040516020016104a8929190612741565b610aa88660a0015160405180604001604052806007815260200166125b9cdd185b1b60ca1b815250611956565b15610b97576101c08601516040516349fc3c2160e11b81526000916001600160a01b038416916393f8784291610ae09160040161250f565b602060405180830381865afa158015610afd573d6000803e3d6000fd5b505050506040513d601f19601f82011682018060405250810190610b219190612522565b90506001600160a01b038116610b495760405162461bcd60e51b81526004016102319061277f565b60405180604001604052806007815260200166125b9cdd185b1b60ca1b815250876101c00151604051602001610b809291906127b1565b6040516020818303038152906040529350506117d7565b610bc68660a0015160405180604001604052806009815260200168155b9a5b9cdd185b1b60ba1b815250611956565b15610de3576101c08601516040516349fc3c2160e11b81526000916001600160a01b038416916393f8784291610bfe9160040161250f565b602060405180830381865afa158015610c1b573d6000803e3d6000fd5b505050506040513d601f19601f82011682018060405250810190610c3f9190612522565b6040516393ec497160e01b81526001600160a01b038083166004830152600060248301819052604483018190529293508416906393ec497190606401600060405180830381865afa158015610c98573d6000803e3d6000fd5b505050506040513d6000823e601f3d908101601f19168201604052610cc09190810190612606565b90506001600160a01b038216610ce85760405162461bcd60e51b81526004016102319061277f565b604051631d01b9c560e11b81526000906001600160a01b03851690633a03738a90610d19908b9086906004016127f7565b602060405180830381865afa158015610d36573d6000803e3d6000fd5b505050506040513d601f19601f82011682018060405250810190610d5a9190612522565b6001600160a01b031603610daa5760405162461bcd60e51b8152602060048201526017602482015276195e1d195b9cda5bdb881b9bdd081a5b9cdd185b1b1959604a1b6044820152606401610231565b60405180604001604052806009815260200168155b9a5b9cdd185b1b60ba1b815250886101c001516040516020016104a89291906127b1565b610e0d8660a0015160405180604001604052806004815260200163115e1a5d60e21b815250611956565b15610ebf576101e08601516001600160a01b0316610e6d5760405162461bcd60e51b815260206004820152601e60248201527f6e657757616c6c65744f776e65722063616e6e6f7420626520656d70747900006044820152606401610231565b60405180604001604052806004815260200163115e1a5d60e21b815250610e98876101e00151611972565b604051602001610ea992919061281b565b60405160208183030381529060405292506117d7565b610ee98660a0015160405180604001604052806004815260200163444b494d60e01b815250611956565b15610f85576102008601516001600160a01b0316610f495760405162461bcd60e51b815260206004820152601f60248201527f6e6577446b696d52656769737472792063616e6e6f7420626520656d707479006044820152606401610231565b60405180604001604052806004815260200163444b494d60e01b815250610f74876102000151611972565b604051602001610ea9929190612880565b60a0860151604051637043541160e11b8152600193506000916001600160a01b0384169163e086a82291610fbe918a91906004016127f7565b602060405180830381865afa158015610fdb573d6000803e3d6000fd5b505050506040513d601f19601f82011682018060405250810190610fff9190612522565b90506001600160a01b0381166110565760405162461bcd60e51b815260206004820152601c60248201527b34b73b30b634b21031b7b6b6b0b7321037b91032bc3a32b739b4b7b760211b6044820152606401610231565b6040516336fdf1af60e11b81526000906001600160a01b03841690636dfbe35e9061108590859060040161256c565b600060405180830381865afa1580156110a2573d6000803e3d6000fd5b505050506040513d6000823e601f3d908101601f191682016040526110ca91908101906128cc565b8861024001516000015160ff16815181106110e7576110e76129f4565b60200260200101519050600080600090505b82518160ff161015611776576000838260ff168151811061111c5761111c6129f4565b602002602001015190506060611157826040518060400160405280600d81526020016c7b746f6b656e416d6f756e747d60981b815250611956565b156113b6576000808d6102400151602001518660ff168151811061117d5761117d6129f4565b60200260200101518060200190518101906111989190612a0a565b9150915060008c6001600160a01b0316639d23c4c76040518163ffffffff1660e01b8152600401602060405180830381865afa1580156111dc573d6000803e3d6000fd5b505050506040513d601f19601f820116820180604052508101906112009190612522565b6001600160a01b031663c4091236836040518263ffffffff1660e01b815260040161122b919061250f565b602060405180830381865afa158015611248573d6000803e3d6000fd5b505050506040513d601f19601f8201168201806040525081019061126c9190612522565b90506001600160a01b0381166112945760405162461bcd60e51b81526004016102319061253f565b73__$9bf470ec03ee656486e069240ffa67e53b$__63f41ce7db84836001600160a01b031663313ce5676040518163ffffffff1660e01b8152600401602060405180830381865afa1580156112ed573d6000803e3d6000fd5b505050506040513d601f19601f820116820180604052508101906113119190612599565b6040516001600160e01b031960e085901b168152600481019290925260ff166024820152604401600060405180830381865af4158015611355573d6000803e3d6000fd5b505050506040513d6000823e601f3d908101601f1916820160405261137d9190810190612606565b8260405160200161138f929190612a51565b604051602081830303815290604052935086806113ab90612aa3565b97505050505061172b565b6113e082604051806040016040528060088152602001677b616d6f756e747d60c01b815250611956565b156114b05760008c6102400151602001518560ff1681518110611405576114056129f4565b60200260200101518060200190518101906114209190612580565b604051636f186a7960e01b81526004810182905290915073__$9bf470ec03ee656486e069240ffa67e53b$__90636f186a7990602401600060405180830381865af4158015611473573d6000803e3d6000fd5b505050506040513d6000823e601f3d908101601f1916820160405261149b9190810190612606565b9150846114a781612aa3565b9550505061172b565b6114da82604051806040016040528060088152602001677b737472696e677d60c01b815250611956565b1561152c578b6102400151602001518460ff16815181106114fd576114fd6129f4565b60200260200101518060200190518101906115189190612606565b90508361152481612aa3565b94505061172b565b61155482604051806040016040528060068152602001657b75696e747d60d01b815250611956565b1561159f5760008c6102400151602001518560ff1681518110611579576115796129f4565b60200260200101518060200190518101906115949190612580565b905061149b81611bd0565b6115c682604051806040016040528060058152602001647b696e747d60d81b815250611956565b156116115760008c6102400151602001518560ff16815181106115eb576115eb6129f4565b60200260200101518060200190518101906116069190612580565b905061149b81611c62565b61163c82604051806040016040528060098152602001687b616464726573737d60b81b815250611956565b156116875760008c6102400151602001518560ff1681518110611661576116616129f4565b602002602001015180602001905181019061167c9190612522565b905061149b81611972565b6116b4826040518060400160405280600b81526020016a7b726563697069656e747d60a81b815250611956565b15611728578b602001516116d6576116cf8c60800151611972565b905061172b565b60008c606001516001600160401b038111156116f4576116f4611f79565b6040519080825280601f01601f19166020018201604052801561171e576020820181803683370190505b50915061172b9050565b50805b885160000361173c57809850611761565b888160405160200161174f929190612a51565b60405160208183030381529060405298505b5050808061176e90612aa3565b9150506110f9565b5088610240015160200151518160ff16146117d35760405162461bcd60e51b815260206004820152601d60248201527f696e76616c6964207375626a65637420706172616d73206c656e6774680000006044820152606401610231565b5050505b50935093915050565b60408051808201909152601081526f181899199a1a9b1b9c1cb0b131b232b360811b602082015281516060919060009061181b906002612ac2565b6001600160401b0381111561183257611832611f79565b6040519080825280601f01601f19166020018201604052801561185c576020820181803683370190505b50905060005b845181101561194e57600085828151811061187f5761187f6129f4565b0160200151845160f882901c9250859160fc1c9081106118a1576118a16129f4565b01602001516001600160f81b031916836118bc846002612ac2565b815181106118cc576118cc6129f4565b60200101906001600160f81b031916908160001a9053508381600f16815181106118f8576118f86129f4565b01602001516001600160f81b03191683611913846002612ac2565b61191e906001612ad9565b8151811061192e5761192e6129f4565b60200101906001600160f81b031916908160001a90535050600101611862565b509392505050565b6000818051906020012083805190602001201490505b92915050565b6060600061197f83611cd4565b604080516028808252606082019092529192506000919060208201818036833701905050905060025b602a8160ff161015611a1657828160ff16815181106119c9576119c96129f4565b01602001516001600160f81b031916826119e4600284612aec565b60ff16815181106119f7576119f76129f4565b60200101906001600160f81b031916908160001a9053506001016119a8565b50600081604051602001611a2a9190612b05565b60408051808303601f190181528282528051602090910120602a80845260608401909252925060009190602082018180368337019050509050600360fc1b81600081518110611a7b57611a7b6129f4565b60200101906001600160f81b031916908160001a905350600f60fb1b81600181518110611aaa57611aaa6129f4565b60200101906001600160f81b031916908160001a90535060609190911c906001600160a01b03861660295b60018160ff161115611bc457600f80851690831660088210611b4e576f181899199a1a9b1b9c1ca0a121a222a360811b8160ff1660108110611b1957611b196129f4565b1a60f81b858460ff1681518110611b3257611b326129f4565b60200101906001600160f81b031916908160001a905350611ba7565b6f181899199a1a9b1b9c1cb0b131b232b360811b8160ff1660108110611b7657611b766129f4565b1a60f81b858460ff1681518110611b8f57611b8f6129f4565b60200101906001600160f81b031916908160001a9053505b5050600493841c939190911c90611bbd81612b21565b9050611ad5565b50909695505050505050565b60606000611bdd83611cea565b60010190506000816001600160401b03811115611bfc57611bfc611f79565b6040519080825280601f01601f191660200182016040528015611c26576020820181803683370190505b5090508181016020015b600019016f181899199a1a9b1b9c1cb0b131b232b360811b600a86061a8153600a8504945084611c3057509392505050565b606060008212611c815760405180602001604052806000815250611c9c565b604051806040016040528060018152602001602d60f81b8152505b611cad611ca884611dc0565b611bd0565b604051602001611cbe9291906126a5565b6040516020818303038152906040529050919050565b606061196c6001600160a01b0383166014611dd7565b60008072184f03e93ff9f4daa797ed6e38ed64bf6a1f0160401b8310611d295772184f03e93ff9f4daa797ed6e38ed64bf6a1f0160401b830492506040015b6904ee2d6d415b85acef8160201b8310611d53576904ee2d6d415b85acef8160201b830492506020015b662386f26fc100008310611d7157662386f26fc10000830492506010015b6305f5e1008310611d89576305f5e100830492506008015b6127108310611d9d57612710830492506004015b60648310611daf576064830492506002015b600a831061196c5760010192915050565b600080821215611dd3578160000361196c565b5090565b60606000611de6836002612ac2565b611df1906002612ad9565b6001600160401b03811115611e0857611e08611f79565b6040519080825280601f01601f191660200182016040528015611e32576020820181803683370190505b509050600360fc1b81600081518110611e4d57611e4d6129f4565b60200101906001600160f81b031916908160001a905350600f60fb1b81600181518110611e7c57611e7c6129f4565b60200101906001600160f81b031916908160001a9053506000611ea0846002612ac2565b611eab906001612ad9565b90505b6001811115611f23576f181899199a1a9b1b9c1cb0b131b232b360811b85600f1660108110611edf57611edf6129f4565b1a60f81b828281518110611ef557611ef56129f4565b60200101906001600160f81b031916908160001a90535060049490941c93611f1c81612b3e565b9050611eae565b508315611f725760405162461bcd60e51b815260206004820181905260248201527f537472696e67733a20686578206c656e67746820696e73756666696369656e746044820152606401610231565b9392505050565b634e487b7160e01b600052604160045260246000fd5b604080519081016001600160401b0381118282101715611fb157611fb1611f79565b60405290565b60405161028081016001600160401b0381118282101715611fb157611fb1611f79565b604051601f8201601f191681016001600160401b038111828210171561200257612002611f79565b604052919050565b8035801515811461201a57600080fd5b919050565b6001600160a01b038116811461203457600080fd5b50565b803561201a8161201f565b60006001600160401b0382111561205b5761205b611f79565b50601f01601f191660200190565b600082601f83011261207a57600080fd5b813561208d61208882612042565b611fda565b8181528460208386010111156120a257600080fd5b816020850160208301376000918101602001919091529392505050565b6000604082840312156120d157600080fd5b6120d9611f8f565b905081356001600160401b038111156120f157600080fd5b6120fd84828501612069565b8252506020820135602082015292915050565b60ff8116811461203457600080fd5b60006001600160401b0382111561213857612138611f79565b5060051b60200190565b60006040828403121561215457600080fd5b61215c611f8f565b9050813561216981612110565b81526020828101356001600160401b038082111561218657600080fd5b818501915085601f83011261219a57600080fd5b81356121a86120888261211f565b81815260059190911b830184019084810190888311156121c757600080fd5b8585015b838110156121ff578035858111156121e35760008081fd5b6121f18b89838a0101612069565b8452509186019186016121cb565b50808688015250505050505092915050565b60008060006060848603121561222657600080fd5b83356001600160401b038082111561223d57600080fd5b90850190610280828803121561225257600080fd5b61225a611fb7565b8235815261226a6020840161200a565b6020820152604083013560408201526060830135606082015261228f60808401612037565b608082015260a0830135828111156122a657600080fd5b6122b289828601612069565b60a08301525060c083013560c082015260e0830135828111156122d457600080fd5b6122e089828601612069565b60e08301525061010083810135908201526101208084013590820152610140808401358381111561231057600080fd5b61231c8a828701612069565b828401525050610160808401358381111561233657600080fd5b6123428a828701612069565b8284015250506101808084013581830152506101a0808401358381111561236857600080fd5b6123748a828701612069565b8284015250506101c0808401358381111561238e57600080fd5b61239a8a828701612069565b8284015250506101e06123ae818501612037565b908201526102006123c0848201612037565b9082015261022083810135838111156123d857600080fd5b6123e48a8287016120bf565b82840152505061024080840135838111156123fe57600080fd5b61240a8a828701612142565b828401525050610260808401358381111561242457600080fd5b6124308a828701612069565b82840152505080955050505061244860208501612037565b915061245660408501612037565b90509250925092565b60005b8381101561247a578181015183820152602001612462565b50506000910152565b6000815180845261249b81602086016020860161245f565b601f01601f19169290920160200192915050565b6040815260006124c26040830185612483565b905082151560208301529392505050565b6000602082840312156124e557600080fd5b81356001600160401b038111156124fb57600080fd5b61250784828501612069565b949350505050565b602081526000611f726020830184612483565b60006020828403121561253457600080fd5b8151611f728161201f565b6020808252601390820152721d1bdad95b881b9bdd081cdd5c1c1bdc9d1959606a1b604082015260600190565b6001600160a01b0391909116815260200190565b60006020828403121561259257600080fd5b5051919050565b6000602082840312156125ab57600080fd5b8151611f7281612110565b60006125c461208884612042565b90508281528383830111156125d857600080fd5b611f7283602083018461245f565b600082601f8301126125f757600080fd5b611f72838351602085016125b6565b60006020828403121561261857600080fd5b81516001600160401b0381111561262e57600080fd5b612507848285016125e6565b6000845161264c81846020890161245f565b8083019050600160fd1b808252855161266c816001850160208a0161245f565b6001920191820152835161268781600284016020880161245f565b630103a37960e51b6002929091019182015260060195945050505050565b600083516126b781846020880161245f565b8351908301906126cb81836020880161245f565b01949350505050565b6000806000606084860312156126e957600080fd5b83516126f48161201f565b6020850151604086015191945092506001600160401b0381111561271757600080fd5b8401601f8101861361272857600080fd5b612737868251602084016125b6565b9150509250925092565b6000835161275381846020880161245f565b6204060f60eb1b908301908152835161277381600384016020880161245f565b01600301949350505050565b602080825260189082015277195e1d195b9cda5bdb881b9bdd081c9959da5cdd195c995960421b604082015260600190565b600083516127c381846020880161245f565b6a01032bc3a32b739b4b7b7160ad1b90830190815283516127eb81600b84016020880161245f565b01600b01949350505050565b6001600160a01b038316815260406020820181905260009061250790830184612483565b6000835161282d81846020880161245f565b80830190507f20456d61696c2057616c6c65742e204368616e6765206f776e6572736869702081526203a37960ed1b6020820152835161287481602384016020880161245f565b01602301949350505050565b6000835161289281846020880161245f565b700103932b3b4b9ba393c9039b2ba103a379607d1b90830190815283516128c081601184016020880161245f565b01601101949350505050565b6000602082840312156128de57600080fd5b81516001600160401b03808211156128f557600080fd5b818401915084601f83011261290957600080fd5b81516129176120888261211f565b8082825260208201915060208360051b86010192508783111561293957600080fd5b602085015b838110156129e85780518581111561295557600080fd5b8601603f81018a1361296657600080fd5b60208101516129776120888261211f565b81815260059190911b82016040019060208101908c83111561299857600080fd5b604084015b838110156129d25780518a8111156129b457600080fd5b6129c38f6040838901016125e6565b8452506020928301920161299d565b508652505060209384019391909101905061293e565b50979650505050505050565b634e487b7160e01b600052603260045260246000fd5b60008060408385031215612a1d57600080fd5b825160208401519092506001600160401b03811115612a3b57600080fd5b612a47858286016125e6565b9150509250929050565b60008351612a6381846020880161245f565b600160fd1b9083019081528351612a8181600184016020880161245f565b01600101949350505050565b634e487b7160e01b600052601160045260246000fd5b600060ff821660ff8103612ab957612ab9612a8d565b60010192915050565b808202811582820484141761196c5761196c612a8d565b8082018082111561196c5761196c612a8d565b60ff828116828216039081111561196c5761196c612a8d565b60008251612b1781846020870161245f565b9190910192915050565b600060ff821680612b3457612b34612a8d565b6000190192915050565b600081612b4d57612b4d612a8d565b50600019019056fea26469706673582212205187eba715dc52cd54d4e2dfa196c7547f040f157c0b2584d7be03a6d90ab54864736f6c63430008170033",
    "linkReferences": {
      "src/libraries/DecimalUtils.sol": {
        "DecimalUtils": [
          {
            "start": 926,
            "length": 20
          },
          {
            "start": 4816,
            "length": 20
          },
          {
            "start": 5235,
            "length": 20
          }
        ]
      }
    }
  },
  "methodIdentifiers": {
    "bytesToHexString(bytes)": "7d520c22",
    "computeMaskedSubjectForEmailOp(EmailOp,address,EmailWalletCore)": "30a2cc12"
  },
  "id": 146
}