{
  "abi": [
    {
      "inputs": [
        {
          "internalType": "bytes",
          "name": "data",
          "type": "bytes"
        }
      ],
      "name": "bytesToHexString",
      "outputs": [
        {
          "internalType": "string",
          "name": "",
          "type": "string"
        }
      ],
      "stateMutability": "pure",
      "type": "function"
    },
    {
      "inputs": [
        {
          "components": [
            {
              "internalType": "bytes32",
              "name": "emailAddrPointer",
              "type": "bytes32"
            },
            {
              "internalType": "bool",
              "name": "hasEmailRecipient",
              "type": "bool"
            },
            {
              "internalType": "bytes32",
              "name": "recipientEmailAddrCommit",
              "type": "bytes32"
            },
            {
              "internalType": "uint256",
              "name": "numRecipientEmailAddrBytes",
              "type": "uint256"
            },
            {
              "internalType": "address",
              "name": "recipientETHAddr",
              "type": "address"
            },
            {
              "internalType": "string",
              "name": "command",
              "type": "string"
            },
            {
              "internalType": "bytes32",
              "name": "emailNullifier",
              "type": "bytes32"
            },
            {
              "internalType": "string",
              "name": "emailDomain",
              "type": "string"
            },
            {
              "internalType": "bytes32",
              "name": "dkimPublicKeyHash",
              "type": "bytes32"
            },
            {
              "internalType": "uint256",
              "name": "timestamp",
              "type": "uint256"
            },
            {
              "internalType": "string",
              "name": "maskedSubject",
              "type": "string"
            },
            {
              "internalType": "string",
              "name": "feeTokenName",
              "type": "string"
            },
            {
              "internalType": "uint256",
              "name": "feePerGas",
              "type": "uint256"
            },
            {
              "internalType": "bytes",
              "name": "executeCallData",
              "type": "bytes"
            },
            {
              "internalType": "string",
              "name": "extensionName",
              "type": "string"
            },
            {
              "internalType": "address",
              "name": "newWalletOwner",
              "type": "address"
            },
            {
              "internalType": "address",
              "name": "newDkimRegistry",
              "type": "address"
            },
            {
              "components": [
                {
                  "internalType": "string",
                  "name": "tokenName",
                  "type": "string"
                },
                {
                  "internalType": "uint256",
                  "name": "amount",
                  "type": "uint256"
                }
              ],
              "internalType": "struct WalletParams",
              "name": "walletParams",
              "type": "tuple"
            },
            {
              "components": [
                {
                  "internalType": "uint8",
                  "name": "subjectTemplateIndex",
                  "type": "uint8"
                },
                {
                  "internalType": "bytes[]",
                  "name": "subjectParams",
                  "type": "bytes[]"
                }
              ],
              "internalType": "struct ExtensionParams",
              "name": "extensionParams",
              "type": "tuple"
            },
            {
              "internalType": "bytes",
              "name": "emailProof",
              "type": "bytes"
            }
          ],
          "internalType": "struct EmailOp",
          "name": "emailOp",
          "type": "tuple"
        },
        {
          "internalType": "address",
          "name": "walletAddr",
          "type": "address"
        },
        {
          "internalType": "contract EmailWalletCore",
          "name": "core",
          "type": "EmailWalletCore"
        }
      ],
      "name": "computeMaskedSubjectForEmailOp",
      "outputs": [
        {
          "internalType": "string",
          "name": "maskedSubject",
          "type": "string"
        },
        {
          "internalType": "bool",
          "name": "isExtension",
          "type": "bool"
        }
      ],
      "stateMutability": "view",
      "type": "function"
    }
  ],
  "bytecode": {
    "object": "0x612bb961003a600b82828239805160001a60731461002d57634e487b7160e01b600052600060045260246000fd5b30600052607381538281f3fe73000000000000000000000000000000000000000030146080604052600436106100405760003560e01c806330a2cc12146100455780637d520c221461006f575b600080fd5b610058610053366004612226565b61008f565b6040516100669291906124c4565b60405180910390f35b61008261007d3660046124e8565b6117e0565b6040516100669190612524565b6060600080836001600160a01b0316639f6d1d836040518163ffffffff1660e01b8152600401602060405180830381865afa1580156100d2573d6000803e3d6000fd5b505050506040513d601f19601f820116820180604052508101906100f69190612537565b90506101228660a001516040518060400160405280600481526020016314d95b9960e21b815250611961565b156104c157600086610220015190506000856001600160a01b0316639d23c4c76040518163ffffffff1660e01b8152600401602060405180830381865afa158015610171573d6000803e3d6000fd5b505050506040513d601f19601f820116820180604052508101906101959190612537565b61022089015151604051636204891b60e11b81526001600160a01b03929092169163c4091236916101c891600401612524565b602060405180830381865afa1580156101e5573d6000803e3d6000fd5b505050506040513d601f19601f820116820180604052508101906102099190612537565b90506001600160a01b03811661023a5760405162461bcd60e51b815260040161023190612554565b60405180910390fd5b6000886102200151602001511161028e5760405162461bcd60e51b8152602060048201526018602482015277073656e6420616d6f756e742073686f756c64206265203e360441b6044820152606401610231565b60208201516040516370a0823160e01b81526001600160a01b038316906370a08231906102bf908b90600401612581565b602060405180830381865afa1580156102dc573d6000803e3d6000fd5b505050506040513d601f19601f820116820180604052508101906103009190612595565b10156103455760405162461bcd60e51b8152602060048201526014602482015273696e73756666696369656e742062616c616e636560601b6044820152606401610231565b6040518060400160405280600481526020016314d95b9960e21b81525073__$9bf470ec03ee656486e069240ffa67e53b$__63f41ce7db8460200151846001600160a01b031663313ce5676040518163ffffffff1660e01b8152600401602060405180830381865afa1580156103bf573d6000803e3d6000fd5b505050506040513d601f19601f820116820180604052508101906103e391906125ae565b6040516001600160e01b031960e085901b168152600481019290925260ff166024820152604401600060405180830381865af4158015610427573d6000803e3d6000fd5b505050506040513d6000823e601f3d908101601f1916820160405261044f919081019061261b565b83516040516104639392919060200161264f565b60408051601f1981840301815291905260808901519095506001600160a01b0316156104ba5784610497896080015161197d565b6040516020016104a89291906126ba565b60405160208183030381529060405294505b50506117d7565b6104ee8660a00151604051806040016040528060078152602001664578656375746560c81b815250611961565b15610a7b576000866101a0015151116105495760405162461bcd60e51b815260206004820152601f60248201527f6578656375746543616c6c446174612063616e6e6f7420626520656d707479006044820152606401610231565b600080876101a0015180602001905181019061056591906126e9565b919350909150506001600160a01b0382166105bb5760405162461bcd60e51b81526020600482015260166024820152751a5b9d985b1a5908195e1958dd5d19481d185c99d95d60521b6044820152606401610231565b6001600160a01b0382163b61060d5760405162461bcd60e51b81526020600482015260186024820152771d185c99d95d081a5cc81b9bdd08184818dbdb9d1c9858dd60421b6044820152606401610231565b856001600160a01b0316826001600160a01b0316141580156106a25750856001600160a01b031663d5e5c1c86040518163ffffffff1660e01b8152600401602060405180830381865afa158015610668573d6000803e3d6000fd5b505050506040513d601f19601f8201168201806040525081019061068c9190612537565b6001600160a01b0316826001600160a01b031614155b80156107215750856001600160a01b03166333ddfb9a6040518163ffffffff1660e01b8152600401602060405180830381865afa1580156106e7573d6000803e3d6000fd5b505050506040513d601f19601f8201168201806040525081019061070b9190612537565b6001600160a01b0316826001600160a01b031614155b80156107a05750856001600160a01b0316635e5f26106040518163ffffffff1660e01b8152600401602060405180830381865afa158015610766573d6000803e3d6000fd5b505050506040513d601f19601f8201168201806040525081019061078a9190612537565b6001600160a01b0316826001600160a01b031614155b801561081f5750856001600160a01b0316639f6d1d836040518163ffffffff1660e01b8152600401602060405180830381865afa1580156107e5573d6000803e3d6000fd5b505050506040513d601f19601f820116820180604052508101906108099190612537565b6001600160a01b0316826001600160a01b031614155b6108765760405162461bcd60e51b815260206004820152602260248201527f63616e6e6f742065786563757465206f6e20636f7265206f722068616e646c65604482015261727360f01b6064820152608401610231565b866001600160a01b0316826001600160a01b0316036108d25760405162461bcd60e51b815260206004820152601860248201527718d85b9b9bdd08195e1958dd5d19481bdb881dd85b1b195d60421b6044820152606401610231565b856001600160a01b0316639d23c4c76040518163ffffffff1660e01b8152600401602060405180830381865afa158015610910573d6000803e3d6000fd5b505050506040513d601f19601f820116820180604052508101906109349190612537565b6001600160a01b031663b399de4e836040518263ffffffff1660e01b815260040161095f9190612581565b600060405180830381865afa15801561097c573d6000803e3d6000fd5b505050506040513d6000823e601f3d908101601f191682016040526109a4919081019061261b565b51156109ec5760405162461bcd60e51b815260206004820152601760248201527631b0b73737ba1032bc32b1baba329037b7103a37b5b2b760491b6044820152606401610231565b6000815111610a3c5760405162461bcd60e51b815260206004820152601c60248201527b6578656375746520646174612063616e6e6f7420626520656d70747960201b6044820152606401610231565b604051806040016040528060078152602001664578656375746560c81b815250610a6a896101a001516117e0565b6040516020016104a8929190612756565b610aa88660a0015160405180604001604052806007815260200166125b9cdd185b1b60ca1b815250611961565b15610b97576101c08601516040516349fc3c2160e11b81526000916001600160a01b038416916393f8784291610ae091600401612524565b602060405180830381865afa158015610afd573d6000803e3d6000fd5b505050506040513d601f19601f82011682018060405250810190610b219190612537565b90506001600160a01b038116610b495760405162461bcd60e51b815260040161023190612794565b60405180604001604052806007815260200166125b9cdd185b1b60ca1b815250876101c00151604051602001610b809291906127c6565b6040516020818303038152906040529350506117d7565b610bc68660a0015160405180604001604052806009815260200168155b9a5b9cdd185b1b60ba1b815250611961565b15610de3576101c08601516040516349fc3c2160e11b81526000916001600160a01b038416916393f8784291610bfe91600401612524565b602060405180830381865afa158015610c1b573d6000803e3d6000fd5b505050506040513d601f19601f82011682018060405250810190610c3f9190612537565b6040516393ec497160e01b81526001600160a01b038083166004830152600060248301819052604483018190529293508416906393ec497190606401600060405180830381865afa158015610c98573d6000803e3d6000fd5b505050506040513d6000823e601f3d908101601f19168201604052610cc0919081019061261b565b90506001600160a01b038216610ce85760405162461bcd60e51b815260040161023190612794565b604051631d01b9c560e11b81526000906001600160a01b03851690633a03738a90610d19908b90869060040161280c565b602060405180830381865afa158015610d36573d6000803e3d6000fd5b505050506040513d601f19601f82011682018060405250810190610d5a9190612537565b6001600160a01b031603610daa5760405162461bcd60e51b8152602060048201526017602482015276195e1d195b9cda5bdb881b9bdd081a5b9cdd185b1b1959604a1b6044820152606401610231565b60405180604001604052806009815260200168155b9a5b9cdd185b1b60ba1b815250886101c001516040516020016104a89291906127c6565b610e0d8660a0015160405180604001604052806004815260200163115e1a5d60e21b815250611961565b15610ebf576101e08601516001600160a01b0316610e6d5760405162461bcd60e51b815260206004820152601e60248201527f6e657757616c6c65744f776e65722063616e6e6f7420626520656d70747900006044820152606401610231565b60405180604001604052806004815260200163115e1a5d60e21b815250610e98876101e0015161197d565b604051602001610ea9929190612830565b60405160208183030381529060405292506117d7565b610ee98660a0015160405180604001604052806004815260200163444b494d60e01b815250611961565b15610f85576102008601516001600160a01b0316610f495760405162461bcd60e51b815260206004820152601f60248201527f6e6577446b696d52656769737472792063616e6e6f7420626520656d707479006044820152606401610231565b60405180604001604052806004815260200163444b494d60e01b815250610f7487610200015161197d565b604051602001610ea9929190612895565b60a0860151604051637043541160e11b8152600193506000916001600160a01b0384169163e086a82291610fbe918a919060040161280c565b602060405180830381865afa158015610fdb573d6000803e3d6000fd5b505050506040513d601f19601f82011682018060405250810190610fff9190612537565b90506001600160a01b0381166110565760405162461bcd60e51b815260206004820152601c60248201527b34b73b30b634b21031b7b6b6b0b7321037b91032bc3a32b739b4b7b760211b6044820152606401610231565b6040516336fdf1af60e11b81526000906001600160a01b03841690636dfbe35e90611085908590600401612581565b600060405180830381865afa1580156110a2573d6000803e3d6000fd5b505050506040513d6000823e601f3d908101601f191682016040526110ca91908101906128e1565b8861024001516000015160ff16815181106110e7576110e7612a09565b60200260200101519050600080600090505b82518160ff161015611776576000838260ff168151811061111c5761111c612a09565b602002602001015190506060611157826040518060400160405280600d81526020016c7b746f6b656e416d6f756e747d60981b815250611961565b156113b6576000808d6102400151602001518660ff168151811061117d5761117d612a09565b60200260200101518060200190518101906111989190612a1f565b9150915060008c6001600160a01b0316639d23c4c76040518163ffffffff1660e01b8152600401602060405180830381865afa1580156111dc573d6000803e3d6000fd5b505050506040513d601f19601f820116820180604052508101906112009190612537565b6001600160a01b031663c4091236836040518263ffffffff1660e01b815260040161122b9190612524565b602060405180830381865afa158015611248573d6000803e3d6000fd5b505050506040513d601f19601f8201168201806040525081019061126c9190612537565b90506001600160a01b0381166112945760405162461bcd60e51b815260040161023190612554565b73__$9bf470ec03ee656486e069240ffa67e53b$__63f41ce7db84836001600160a01b031663313ce5676040518163ffffffff1660e01b8152600401602060405180830381865afa1580156112ed573d6000803e3d6000fd5b505050506040513d601f19601f8201168201806040525081019061131191906125ae565b6040516001600160e01b031960e085901b168152600481019290925260ff166024820152604401600060405180830381865af4158015611355573d6000803e3d6000fd5b505050506040513d6000823e601f3d908101601f1916820160405261137d919081019061261b565b8260405160200161138f929190612a66565b604051602081830303815290604052935086806113ab90612ab8565b97505050505061172b565b6113e082604051806040016040528060088152602001677b616d6f756e747d60c01b815250611961565b156114b05760008c6102400151602001518560ff168151811061140557611405612a09565b60200260200101518060200190518101906114209190612595565b604051636f186a7960e01b81526004810182905290915073__$9bf470ec03ee656486e069240ffa67e53b$__90636f186a7990602401600060405180830381865af4158015611473573d6000803e3d6000fd5b505050506040513d6000823e601f3d908101601f1916820160405261149b919081019061261b565b9150846114a781612ab8565b9550505061172b565b6114da82604051806040016040528060088152602001677b737472696e677d60c01b815250611961565b1561152c578b6102400151602001518460ff16815181106114fd576114fd612a09565b6020026020010151806020019051810190611518919061261b565b90508361152481612ab8565b94505061172b565b61155482604051806040016040528060068152602001657b75696e747d60d01b815250611961565b1561159f5760008c6102400151602001518560ff168151811061157957611579612a09565b60200260200101518060200190518101906115949190612595565b905061149b81611be5565b6115c682604051806040016040528060058152602001647b696e747d60d81b815250611961565b156116115760008c6102400151602001518560ff16815181106115eb576115eb612a09565b60200260200101518060200190518101906116069190612595565b905061149b81611c77565b61163c82604051806040016040528060098152602001687b616464726573737d60b81b815250611961565b156116875760008c6102400151602001518560ff168151811061166157611661612a09565b602002602001015180602001905181019061167c9190612537565b905061149b8161197d565b6116b4826040518060400160405280600b81526020016a7b726563697069656e747d60a81b815250611961565b15611728578b602001516116d6576116cf8c6080015161197d565b905061172b565b60008c606001516001600160401b038111156116f4576116f4611f8e565b6040519080825280601f01601f19166020018201604052801561171e576020820181803683370190505b50915061172b9050565b50805b885160000361173c57809850611761565b888160405160200161174f929190612a66565b60405160208183030381529060405298505b5050808061176e90612ab8565b9150506110f9565b5088610240015160200151518160ff16146117d35760405162461bcd60e51b815260206004820152601d60248201527f696e76616c6964207375626a65637420706172616d73206c656e6774680000006044820152606401610231565b5050505b50935093915050565b60408051808201909152601081526f181899199a1a9b1b9c1cb0b131b232b360811b602082015281516060919060009061181b906002612ad7565b6001600160401b0381111561183257611832611f8e565b6040519080825280601f01601f19166020018201604052801561185c576020820181803683370190505b50905060005b845181101561195957600085828151811061187f5761187f612a09565b0160200151845160f882901c9250859160fc1c9081106118a1576118a1612a09565b01602001516001600160f81b031916836118bc846002612ad7565b815181106118cc576118cc612a09565b60200101906001600160f81b031916908160001a9053508381600f16815181106118f8576118f8612a09565b01602001516001600160f81b03191683611913846002612ad7565b61191e906001612aee565b8151811061192e5761192e612a09565b60200101906001600160f81b031916908160001a90535050808061195190612b01565b915050611862565b509392505050565b6000818051906020012083805190602001201490505b92915050565b6060600061198a83611ce9565b604080516028808252606082019092529192506000919060208201818036833701905050905060025b602a8160ff161015611a2b57828160ff16815181106119d4576119d4612a09565b01602001516001600160f81b031916826119ef600284612b1a565b60ff1681518110611a0257611a02612a09565b60200101906001600160f81b031916908160001a90535080611a2381612ab8565b9150506119b3565b50600081604051602001611a3f9190612b33565b60408051808303601f190181528282528051602090910120602a80845260608401909252925060009190602082018180368337019050509050600360fc1b81600081518110611a9057611a90612a09565b60200101906001600160f81b031916908160001a905350600f60fb1b81600181518110611abf57611abf612a09565b60200101906001600160f81b031916908160001a90535060609190911c906001600160a01b03861660295b60018160ff161115611bd957600f80851690831660088210611b63576f181899199a1a9b1b9c1ca0a121a222a360811b8160ff1660108110611b2e57611b2e612a09565b1a60f81b858460ff1681518110611b4757611b47612a09565b60200101906001600160f81b031916908160001a905350611bbc565b6f181899199a1a9b1b9c1cb0b131b232b360811b8160ff1660108110611b8b57611b8b612a09565b1a60f81b858460ff1681518110611ba457611ba4612a09565b60200101906001600160f81b031916908160001a9053505b5050600493841c939190911c90611bd281612b4f565b9050611aea565b50909695505050505050565b60606000611bf283611cff565b60010190506000816001600160401b03811115611c1157611c11611f8e565b6040519080825280601f01601f191660200182016040528015611c3b576020820181803683370190505b5090508181016020015b600019016f181899199a1a9b1b9c1cb0b131b232b360811b600a86061a8153600a8504945084611c4557509392505050565b606060008212611c965760405180602001604052806000815250611cb1565b604051806040016040528060018152602001602d60f81b8152505b611cc2611cbd84611dd5565b611be5565b604051602001611cd39291906126ba565b6040516020818303038152906040529050919050565b60606119776001600160a01b0383166014611dec565b60008072184f03e93ff9f4daa797ed6e38ed64bf6a1f0160401b8310611d3e5772184f03e93ff9f4daa797ed6e38ed64bf6a1f0160401b830492506040015b6904ee2d6d415b85acef8160201b8310611d68576904ee2d6d415b85acef8160201b830492506020015b662386f26fc100008310611d8657662386f26fc10000830492506010015b6305f5e1008310611d9e576305f5e100830492506008015b6127108310611db257612710830492506004015b60648310611dc4576064830492506002015b600a83106119775760010192915050565b600080821215611de85781600003611977565b5090565b60606000611dfb836002612ad7565b611e06906002612aee565b6001600160401b03811115611e1d57611e1d611f8e565b6040519080825280601f01601f191660200182016040528015611e47576020820181803683370190505b509050600360fc1b81600081518110611e6257611e62612a09565b60200101906001600160f81b031916908160001a905350600f60fb1b81600181518110611e9157611e91612a09565b60200101906001600160f81b031916908160001a9053506000611eb5846002612ad7565b611ec0906001612aee565b90505b6001811115611f38576f181899199a1a9b1b9c1cb0b131b232b360811b85600f1660108110611ef457611ef4612a09565b1a60f81b828281518110611f0a57611f0a612a09565b60200101906001600160f81b031916908160001a90535060049490941c93611f3181612b6c565b9050611ec3565b508315611f875760405162461bcd60e51b815260206004820181905260248201527f537472696e67733a20686578206c656e67746820696e73756666696369656e746044820152606401610231565b9392505050565b634e487b7160e01b600052604160045260246000fd5b604080519081016001600160401b0381118282101715611fc657611fc6611f8e565b60405290565b60405161028081016001600160401b0381118282101715611fc657611fc6611f8e565b604051601f8201601f191681016001600160401b038111828210171561201757612017611f8e565b604052919050565b8035801515811461202f57600080fd5b919050565b6001600160a01b038116811461204957600080fd5b50565b803561202f81612034565b60006001600160401b0382111561207057612070611f8e565b50601f01601f191660200190565b600082601f83011261208f57600080fd5b81356120a261209d82612057565b611fef565b8181528460208386010111156120b757600080fd5b816020850160208301376000918101602001919091529392505050565b6000604082840312156120e657600080fd5b6120ee611fa4565b905081356001600160401b0381111561210657600080fd5b6121128482850161207e565b8252506020820135602082015292915050565b60ff8116811461204957600080fd5b60006001600160401b0382111561214d5761214d611f8e565b5060051b60200190565b60006040828403121561216957600080fd5b612171611fa4565b9050813561217e81612125565b81526020828101356001600160401b038082111561219b57600080fd5b818501915085601f8301126121af57600080fd5b81356121bd61209d82612134565b81815260059190911b830184019084810190888311156121dc57600080fd5b8585015b83811015612214578035858111156121f85760008081fd5b6122068b89838a010161207e565b8452509186019186016121e0565b50808688015250505050505092915050565b60008060006060848603121561223b57600080fd5b83356001600160401b038082111561225257600080fd5b90850190610280828803121561226757600080fd5b61226f611fcc565b8235815261227f6020840161201f565b602082015260408301356040820152606083013560608201526122a46080840161204c565b608082015260a0830135828111156122bb57600080fd5b6122c78982860161207e565b60a08301525060c083013560c082015260e0830135828111156122e957600080fd5b6122f58982860161207e565b60e08301525061010083810135908201526101208084013590820152610140808401358381111561232557600080fd5b6123318a82870161207e565b828401525050610160808401358381111561234b57600080fd5b6123578a82870161207e565b8284015250506101808084013581830152506101a0808401358381111561237d57600080fd5b6123898a82870161207e565b8284015250506101c080840135838111156123a357600080fd5b6123af8a82870161207e565b8284015250506101e06123c381850161204c565b908201526102006123d584820161204c565b9082015261022083810135838111156123ed57600080fd5b6123f98a8287016120d4565b828401525050610240808401358381111561241357600080fd5b61241f8a828701612157565b828401525050610260808401358381111561243957600080fd5b6124458a82870161207e565b82840152505080955050505061245d6020850161204c565b915061246b6040850161204c565b90509250925092565b60005b8381101561248f578181015183820152602001612477565b50506000910152565b600081518084526124b0816020860160208601612474565b601f01601f19169290920160200192915050565b6040815260006124d76040830185612498565b905082151560208301529392505050565b6000602082840312156124fa57600080fd5b81356001600160401b0381111561251057600080fd5b61251c8482850161207e565b949350505050565b602081526000611f876020830184612498565b60006020828403121561254957600080fd5b8151611f8781612034565b6020808252601390820152721d1bdad95b881b9bdd081cdd5c1c1bdc9d1959606a1b604082015260600190565b6001600160a01b0391909116815260200190565b6000602082840312156125a757600080fd5b5051919050565b6000602082840312156125c057600080fd5b8151611f8781612125565b60006125d961209d84612057565b90508281528383830111156125ed57600080fd5b611f87836020830184612474565b600082601f83011261260c57600080fd5b611f87838351602085016125cb565b60006020828403121561262d57600080fd5b81516001600160401b0381111561264357600080fd5b61251c848285016125fb565b60008451612661818460208901612474565b8083019050600160fd1b8082528551612681816001850160208a01612474565b6001920191820152835161269c816002840160208801612474565b630103a37960e51b6002929091019182015260060195945050505050565b600083516126cc818460208801612474565b8351908301906126e0818360208801612474565b01949350505050565b6000806000606084860312156126fe57600080fd5b835161270981612034565b6020850151604086015191945092506001600160401b0381111561272c57600080fd5b8401601f8101861361273d57600080fd5b61274c868251602084016125cb565b9150509250925092565b60008351612768818460208801612474565b6204060f60eb1b9083019081528351612788816003840160208801612474565b01600301949350505050565b602080825260189082015277195e1d195b9cda5bdb881b9bdd081c9959da5cdd195c995960421b604082015260600190565b600083516127d8818460208801612474565b6a01032bc3a32b739b4b7b7160ad1b908301908152835161280081600b840160208801612474565b01600b01949350505050565b6001600160a01b038316815260406020820181905260009061251c90830184612498565b60008351612842818460208801612474565b80830190507f20456d61696c2057616c6c65742e204368616e6765206f776e6572736869702081526203a37960ed1b60208201528351612889816023840160208801612474565b01602301949350505050565b600083516128a7818460208801612474565b700103932b3b4b9ba393c9039b2ba103a379607d1b90830190815283516128d5816011840160208801612474565b01601101949350505050565b6000602082840312156128f357600080fd5b81516001600160401b038082111561290a57600080fd5b818401915084601f83011261291e57600080fd5b815161292c61209d82612134565b8082825260208201915060208360051b86010192508783111561294e57600080fd5b602085015b838110156129fd5780518581111561296a57600080fd5b8601603f81018a1361297b57600080fd5b602081015161298c61209d82612134565b81815260059190911b82016040019060208101908c8311156129ad57600080fd5b604084015b838110156129e75780518a8111156129c957600080fd5b6129d88f6040838901016125fb565b845250602092830192016129b2565b5086525050602093840193919091019050612953565b50979650505050505050565b634e487b7160e01b600052603260045260246000fd5b60008060408385031215612a3257600080fd5b825160208401519092506001600160401b03811115612a5057600080fd5b612a5c858286016125fb565b9150509250929050565b60008351612a78818460208801612474565b600160fd1b9083019081528351612a96816001840160208801612474565b01600101949350505050565b634e487b7160e01b600052601160045260246000fd5b600060ff821660ff8103612ace57612ace612aa2565b60010192915050565b808202811582820484141761197757611977612aa2565b8082018082111561197757611977612aa2565b600060018201612b1357612b13612aa2565b5060010190565b60ff828116828216039081111561197757611977612aa2565b60008251612b45818460208701612474565b9190910192915050565b600060ff821680612b6257612b62612aa2565b6000190192915050565b600081612b7b57612b7b612aa2565b50600019019056fea264697066735822122048362b93a196009560d343fc1c694a413b616c3b0d65b60909195fe6fa7aec3364736f6c63430008110033",
    "linkReferences": {
      "src/libraries/DecimalUtils.sol": {
        "DecimalUtils": [
          {
            "start": 926,
            "length": 20
          },
          {
            "start": 4816,
            "length": 20
          },
          {
            "start": 5235,
            "length": 20
          }
        ]
      }
    }
  },
  "methodIdentifiers": {
    "bytesToHexString(bytes)": "7d520c22",
    "computeMaskedSubjectForEmailOp(EmailOp,address,EmailWalletCore)": "30a2cc12"
  },
  "id": 145
}