{
  "abi": [
    {
      "inputs": [],
      "stateMutability": "nonpayable",
      "type": "constructor"
    },
    {
      "anonymous": false,
      "inputs": [
        {
          "indexed": false,
          "internalType": "address",
          "name": "previousAdmin",
          "type": "address"
        },
        {
          "indexed": false,
          "internalType": "address",
          "name": "newAdmin",
          "type": "address"
        }
      ],
      "name": "AdminChanged",
      "type": "event"
    },
    {
      "anonymous": false,
      "inputs": [
        {
          "indexed": true,
          "internalType": "address",
          "name": "beacon",
          "type": "address"
        }
      ],
      "name": "BeaconUpgraded",
      "type": "event"
    },
    {
      "anonymous": false,
      "inputs": [
        {
          "indexed": false,
          "internalType": "uint8",
          "name": "version",
          "type": "uint8"
        }
      ],
      "name": "Initialized",
      "type": "event"
    },
    {
      "anonymous": false,
      "inputs": [
        {
          "indexed": true,
          "internalType": "address",
          "name": "previousOwner",
          "type": "address"
        },
        {
          "indexed": true,
          "internalType": "address",
          "name": "newOwner",
          "type": "address"
        }
      ],
      "name": "OwnershipTransferred",
      "type": "event"
    },
    {
      "anonymous": false,
      "inputs": [
        {
          "indexed": true,
          "internalType": "address",
          "name": "implementation",
          "type": "address"
        }
      ],
      "name": "Upgraded",
      "type": "event"
    },
    {
      "inputs": [
        {
          "internalType": "string",
          "name": "",
          "type": "string"
        }
      ],
      "name": "addressOfNFTName",
      "outputs": [
        {
          "internalType": "address",
          "name": "",
          "type": "address"
        }
      ],
      "stateMutability": "view",
      "type": "function"
    },
    {
      "inputs": [
        {
          "components": [
            {
              "internalType": "uint256",
              "name": "id",
              "type": "uint256"
            },
            {
              "internalType": "bytes32",
              "name": "emailAddrCommit",
              "type": "bytes32"
            },
            {
              "internalType": "address",
              "name": "extensionAddr",
              "type": "address"
            },
            {
              "internalType": "address",
              "name": "sender",
              "type": "address"
            },
            {
              "internalType": "bytes",
              "name": "state",
              "type": "bytes"
            },
            {
              "internalType": "uint256",
              "name": "expiryTime",
              "type": "uint256"
            }
          ],
          "internalType": "struct UnclaimedState",
          "name": "unclaimedState",
          "type": "tuple"
        },
        {
          "internalType": "address",
          "name": "wallet",
          "type": "address"
        }
      ],
      "name": "claimUnclaimedState",
      "outputs": [],
      "stateMutability": "nonpayable",
      "type": "function"
    },
    {
      "inputs": [],
      "name": "core",
      "outputs": [
        {
          "internalType": "contract EmailWalletCore",
          "name": "",
          "type": "address"
        }
      ],
      "stateMutability": "view",
      "type": "function"
    },
    {
      "inputs": [],
      "name": "defaultSlippagePoints",
      "outputs": [
        {
          "internalType": "uint24",
          "name": "",
          "type": "uint24"
        }
      ],
      "stateMutability": "view",
      "type": "function"
    },
    {
      "inputs": [
        {
          "internalType": "uint8",
          "name": "templateIndex",
          "type": "uint8"
        },
        {
          "internalType": "bytes[]",
          "name": "subjectParams",
          "type": "bytes[]"
        },
        {
          "internalType": "address",
          "name": "wallet",
          "type": "address"
        },
        {
          "internalType": "bool",
          "name": "hasEmailRecipient",
          "type": "bool"
        },
        {
          "internalType": "address",
          "name": "recipientETHAddr",
          "type": "address"
        },
        {
          "internalType": "bytes32",
          "name": "emailNullifier",
          "type": "bytes32"
        }
      ],
      "name": "execute",
      "outputs": [],
      "stateMutability": "nonpayable",
      "type": "function"
    },
    {
      "inputs": [
        {
          "internalType": "address",
          "name": "coreAddr",
          "type": "address"
        },
        {
          "internalType": "address",
          "name": "_tokenReg",
          "type": "address"
        },
        {
          "internalType": "address",
          "name": "_router",
          "type": "address"
        },
        {
          "internalType": "address",
          "name": "_factory",
          "type": "address"
        }
      ],
      "name": "initialize",
      "outputs": [],
      "stateMutability": "nonpayable",
      "type": "function"
    },
    {
      "inputs": [],
      "name": "owner",
      "outputs": [
        {
          "internalType": "address",
          "name": "",
          "type": "address"
        }
      ],
      "stateMutability": "view",
      "type": "function"
    },
    {
      "inputs": [],
      "name": "poolFee",
      "outputs": [
        {
          "internalType": "uint24",
          "name": "",
          "type": "uint24"
        }
      ],
      "stateMutability": "view",
      "type": "function"
    },
    {
      "inputs": [],
      "name": "poolFinder",
      "outputs": [
        {
          "internalType": "contract PoolFinder",
          "name": "",
          "type": "address"
        }
      ],
      "stateMutability": "view",
      "type": "function"
    },
    {
      "inputs": [],
      "name": "proxiableUUID",
      "outputs": [
        {
          "internalType": "bytes32",
          "name": "",
          "type": "bytes32"
        }
      ],
      "stateMutability": "view",
      "type": "function"
    },
    {
      "inputs": [
        {
          "components": [
            {
              "internalType": "uint256",
              "name": "id",
              "type": "uint256"
            },
            {
              "internalType": "bytes32",
              "name": "emailAddrCommit",
              "type": "bytes32"
            },
            {
              "internalType": "address",
              "name": "extensionAddr",
              "type": "address"
            },
            {
              "internalType": "address",
              "name": "sender",
              "type": "address"
            },
            {
              "internalType": "bytes",
              "name": "state",
              "type": "bytes"
            },
            {
              "internalType": "uint256",
              "name": "expiryTime",
              "type": "uint256"
            }
          ],
          "internalType": "struct UnclaimedState",
          "name": "unclaimedState",
          "type": "tuple"
        },
        {
          "internalType": "bool",
          "name": "isInternal",
          "type": "bool"
        }
      ],
      "name": "registerUnclaimedState",
      "outputs": [],
      "stateMutability": "nonpayable",
      "type": "function"
    },
    {
      "inputs": [],
      "name": "renounceOwnership",
      "outputs": [],
      "stateMutability": "nonpayable",
      "type": "function"
    },
    {
      "inputs": [],
      "name": "router",
      "outputs": [
        {
          "internalType": "contract ISwapRouter",
          "name": "",
          "type": "address"
        }
      ],
      "stateMutability": "view",
      "type": "function"
    },
    {
      "inputs": [
        {
          "internalType": "uint256",
          "name": "",
          "type": "uint256"
        },
        {
          "internalType": "uint256",
          "name": "",
          "type": "uint256"
        }
      ],
      "name": "templates",
      "outputs": [
        {
          "internalType": "string",
          "name": "",
          "type": "string"
        }
      ],
      "stateMutability": "view",
      "type": "function"
    },
    {
      "inputs": [],
      "name": "tokenRegistry",
      "outputs": [
        {
          "internalType": "contract TokenRegistry",
          "name": "",
          "type": "address"
        }
      ],
      "stateMutability": "view",
      "type": "function"
    },
    {
      "inputs": [
        {
          "internalType": "address",
          "name": "newOwner",
          "type": "address"
        }
      ],
      "name": "transferOwnership",
      "outputs": [],
      "stateMutability": "nonpayable",
      "type": "function"
    },
    {
      "inputs": [
        {
          "internalType": "address",
          "name": "newImplementation",
          "type": "address"
        }
      ],
      "name": "upgradeTo",
      "outputs": [],
      "stateMutability": "nonpayable",
      "type": "function"
    },
    {
      "inputs": [
        {
          "internalType": "address",
          "name": "newImplementation",
          "type": "address"
        },
        {
          "internalType": "bytes",
          "name": "data",
          "type": "bytes"
        }
      ],
      "name": "upgradeToAndCall",
      "outputs": [],
      "stateMutability": "payable",
      "type": "function"
    },
    {
      "inputs": [
        {
          "components": [
            {
              "internalType": "uint256",
              "name": "id",
              "type": "uint256"
            },
            {
              "internalType": "bytes32",
              "name": "emailAddrCommit",
              "type": "bytes32"
            },
            {
              "internalType": "address",
              "name": "extensionAddr",
              "type": "address"
            },
            {
              "internalType": "address",
              "name": "sender",
              "type": "address"
            },
            {
              "internalType": "bytes",
              "name": "state",
              "type": "bytes"
            },
            {
              "internalType": "uint256",
              "name": "expiryTime",
              "type": "uint256"
            }
          ],
          "internalType": "struct UnclaimedState",
          "name": "unclaimedState",
          "type": "tuple"
        }
      ],
      "name": "voidUnclaimedState",
      "outputs": [],
      "stateMutability": "nonpayable",
      "type": "function"
    }
  ],
  "bytecode": {
    "object": "0x60a0604052306080523480156200001557600080fd5b506200002062000026565b620000e7565b600054610100900460ff1615620000935760405162461bcd60e51b815260206004820152602760248201527f496e697469616c697a61626c653a20636f6e747261637420697320696e697469604482015266616c697a696e6760c81b606482015260840160405180910390fd5b60005460ff90811614620000e5576000805460ff191660ff9081179091556040519081527f7f26b83ff96e1f2b6a682f133852f6798a09c465da95921460cefb38474024989060200160405180910390a15b565b6080516145ca6200011f600039600081816104a501528181610541015281816106830152818161071b015261084d01526145ca6000f3fe6080604052600436106200015e5760003560e01c80639d23c4c711620000cf578063f2f4eb26116200007d578063f887ea401162000060578063f887ea4014620003e8578063f8c8765e1462000417578063fd72aa30146200043c57600080fd5b8063f2f4eb261462000394578063f2fde38b14620003c357600080fd5b8063d07e018911620000b2578063d07e0189146200030c578063e6d567801462000340578063e93977e8146200036f57600080fd5b80639d23c4c714620002be578063b91ad65114620002ed57600080fd5b80634f1ef286116200012d578063715018a61162000110578063715018a614620002335780638da5cb5b146200024b5780638eb0930c146200029957600080fd5b80634f1ef28614620001f557806352d1902d146200020c57600080fd5b8063089fe6aa146200016357806310206c2114620001945780633659cfe614620001ab5780633ed4f16a14620001d2575b600080fd5b3480156200017057600080fd5b506200017b610bb881565b60405162ffffff90911681526020015b60405180910390f35b348015620001a157600080fd5b506200017b603281565b348015620001b857600080fd5b50620001d0620001ca3660046200340d565b6200048e565b005b348015620001df57600080fd5b50620001d0620001f13660046200363a565b5050565b620001d06200020636600462003692565b6200066c565b3480156200021957600080fd5b506200022462000833565b6040519081526020016200018b565b3480156200024057600080fd5b50620001d062000907565b3480156200025857600080fd5b5060335473ffffffffffffffffffffffffffffffffffffffff165b60405173ffffffffffffffffffffffffffffffffffffffff90911681526020016200018b565b348015620002a657600080fd5b50620001d0620002b8366004620036e8565b6200091f565b348015620002cb57600080fd5b50606754620002739073ffffffffffffffffffffffffffffffffffffffff1681565b348015620002fa57600080fd5b50620001d0620002b836600462003735565b3480156200031957600080fd5b50620003316200032b3660046200376e565b62000968565b6040516200018b9190620037b7565b3480156200034d57600080fd5b50606854620002739073ffffffffffffffffffffffffffffffffffffffff1681565b3480156200037c57600080fd5b50620001d06200038e3660046200381a565b62000a37565b348015620003a157600080fd5b50606554620002739073ffffffffffffffffffffffffffffffffffffffff1681565b348015620003d057600080fd5b50620001d0620003e23660046200340d565b62001cde565b348015620003f557600080fd5b50606654620002739073ffffffffffffffffffffffffffffffffffffffff1681565b3480156200042457600080fd5b50620001d06200043636600462003941565b62001d7e565b3480156200044957600080fd5b50620002736200045b366004620039a6565b805160208183018101805160698252928201919093012091525473ffffffffffffffffffffffffffffffffffffffff1681565b73ffffffffffffffffffffffffffffffffffffffff7f00000000000000000000000000000000000000000000000000000000000000001630036200053f5760405162461bcd60e51b815260206004820152602c60248201527f46756e6374696f6e206d7573742062652063616c6c6564207468726f7567682060448201527f64656c656761746563616c6c000000000000000000000000000000000000000060648201526084015b60405180910390fd5b7f000000000000000000000000000000000000000000000000000000000000000073ffffffffffffffffffffffffffffffffffffffff16620005b57f360894a13ba1a3210667c828492db98dca3e2076cc3735a920a3ca505d382bbc5473ffffffffffffffffffffffffffffffffffffffff1690565b73ffffffffffffffffffffffffffffffffffffffff1614620006405760405162461bcd60e51b815260206004820152602c60248201527f46756e6374696f6e206d7573742062652063616c6c6564207468726f7567682060448201527f6163746976652070726f78790000000000000000000000000000000000000000606482015260840162000536565b6200064b816200284f565b60408051600080825260208201909252620006699183919062002859565b50565b73ffffffffffffffffffffffffffffffffffffffff7f0000000000000000000000000000000000000000000000000000000000000000163003620007195760405162461bcd60e51b815260206004820152602c60248201527f46756e6374696f6e206d7573742062652063616c6c6564207468726f7567682060448201527f64656c656761746563616c6c0000000000000000000000000000000000000000606482015260840162000536565b7f000000000000000000000000000000000000000000000000000000000000000073ffffffffffffffffffffffffffffffffffffffff166200078f7f360894a13ba1a3210667c828492db98dca3e2076cc3735a920a3ca505d382bbc5473ffffffffffffffffffffffffffffffffffffffff1690565b73ffffffffffffffffffffffffffffffffffffffff16146200081a5760405162461bcd60e51b815260206004820152602c60248201527f46756e6374696f6e206d7573742062652063616c6c6564207468726f7567682060448201527f6163746976652070726f78790000000000000000000000000000000000000000606482015260840162000536565b62000825826200284f565b620001f18282600162002859565b60003073ffffffffffffffffffffffffffffffffffffffff7f00000000000000000000000000000000000000000000000000000000000000001614620008e25760405162461bcd60e51b815260206004820152603860248201527f555550535570677261646561626c653a206d757374206e6f742062652063616c60448201527f6c6564207468726f7567682064656c656761746563616c6c0000000000000000606482015260840162000536565b507f360894a13ba1a3210667c828492db98dca3e2076cc3735a920a3ca505d382bbc90565b6200091162002a35565b6200091d600062002a9e565b565b60405162461bcd60e51b815260206004820152600f60248201527f4e6f7420696d706c656d656e7465640000000000000000000000000000000000604482015260640162000536565b606a82815481106200097957600080fd5b9060005260206000200181815481106200099257600080fd5b90600052602060002001600091509150508054620009b090620039f4565b80601f0160208091040260200160405190810160405280929190818152602001828054620009de90620039f4565b801562000a2f5780601f1062000a035761010080835404028352916020019162000a2f565b820191906000526020600020905b81548152906001019060200180831162000a1157829003601f168201915b505050505081565b60655473ffffffffffffffffffffffffffffffffffffffff1633148062000b1c5750606560009054906101000a900473ffffffffffffffffffffffffffffffffffffffff1673ffffffffffffffffffffffffffffffffffffffff1663d5e5c1c86040518163ffffffff1660e01b8152600401602060405180830381865afa15801562000ac7573d6000803e3d6000fd5b505050506040513d601f19601f8201168201806040525081019062000aed919062003a49565b73ffffffffffffffffffffffffffffffffffffffff163373ffffffffffffffffffffffffffffffffffffffff16145b62000b6a5760405162461bcd60e51b815260206004820152600e60248201527f696e76616c69642073656e646572000000000000000000000000000000000000604482015260640162000536565b60038660ff16111562000bc05760405162461bcd60e51b815260206004820152601560248201527f696e76616c69642074656d706c617465496e6465780000000000000000000000604482015260640162000536565b821562000c105760405162461bcd60e51b815260206004820152601a60248201527f726563697069656e74206973206e6f7420737570706f72746564000000000000604482015260640162000536565b60008060008060008060008b60008151811062000c315762000c3162003a69565b602002602001015180602001905181019062000c4e919062003ae4565b9150915081965060008c60018151811062000c6d5762000c6d62003a69565b602002602001015180602001905181019062000c8a919062003b25565b6067546040517fc409123600000000000000000000000000000000000000000000000000000000815291925073ffffffffffffffffffffffffffffffffffffffff169063c40912369062000ce3908590600401620037b7565b602060405180830381865afa15801562000d01573d6000803e3d6000fd5b505050506040513d601f19601f8201168201806040525081019062000d27919062003a49565b6067546040517fc409123600000000000000000000000000000000000000000000000000000000815291985073ffffffffffffffffffffffffffffffffffffffff169063c40912369062000d80908490600401620037b7565b602060405180830381865afa15801562000d9e573d6000803e3d6000fd5b505050506040513d601f19601f8201168201806040525081019062000dc4919062003a49565b955073ffffffffffffffffffffffffffffffffffffffff861662000e2b5760405162461bcd60e51b815260206004820152601660248201527f696e76616c6964206f757420746f6b656e206e616d6500000000000000000000604482015260640162000536565b50506068546040517f64bd1edf00000000000000000000000000000000000000000000000000000000815273ffffffffffffffffffffffffffffffffffffffff87811660048301528681166024830152610bb8604483015260009350909116906364bd1edf90606401602060405180830381865afa15801562000eb2573d6000803e3d6000fd5b505050506040513d601f19601f8201168201806040525081019062000ed8919062003b5e565b90508b60ff1660000362000eef5760329250600091505b8b60ff1660010362000fc95760008b60028151811062000f135762000f1362003a69565b602002602001015180602001905181019062000f30919062003b7e565b905062000f45662386f26fc100008262003bf6565b905062ffffff81111562000fc25760405162461bcd60e51b815260206004820152602c60248201527f736c697070616765506f696e747332353620617267756d656e74206f7665726660448201527f6c6f772064657465637465640000000000000000000000000000000000000000606482015260840162000536565b9250600091505b8b60ff166002036200111657806200104c576040805162461bcd60e51b81526020600482015260248101919091527f7371727450726963654c696d69745839362063616e206e6f742062652073657460448201527f20626563617573652074686520706f6f6c20646f6573206e6f74206578697374606482015260840162000536565b6032925060008b60028151811062001068576200106862003a69565b602002602001015180602001905181019062001085919062003b7e565b905073ffffffffffffffffffffffffffffffffffffffff811115620011135760405162461bcd60e51b815260206004820152602c60248201527f7371727450726963654c696d697458393620617267756d656e74206f7665726660448201527f6c6f772064657465637465640000000000000000000000000000000000000000606482015260840162000536565b91505b8b60ff166003036200132a578062001199576040805162461bcd60e51b81526020600482015260248101919091527f7371727450726963654c696d69745839362063616e206e6f742062652073657460448201527f20626563617573652074686520706f6f6c20646f6573206e6f74206578697374606482015260840162000536565b60008b600281518110620011b157620011b162003a69565b6020026020010151806020019051810190620011ce919062003b7e565b9050620011e3662386f26fc100008262003bf6565b905062ffffff811115620012605760405162461bcd60e51b815260206004820152602c60248201527f736c697070616765506f696e747332353620617267756d656e74206f7665726660448201527f6c6f772064657465637465640000000000000000000000000000000000000000606482015260840162000536565b80935060008c6003815181106200127b576200127b62003a69565b602002602001015180602001905181019062001298919062003b7e565b905073ffffffffffffffffffffffffffffffffffffffff811115620013265760405162461bcd60e51b815260206004820152602c60248201527f7371727450726963654c696d697458393620617267756d656e74206f7665726660448201527f6c6f772064657465637465640000000000000000000000000000000000000000606482015260840162000536565b9250505b6040517f70a0823100000000000000000000000000000000000000000000000000000000815230600482015260009073ffffffffffffffffffffffffffffffffffffffff8716906370a0823190602401602060405180830381865afa15801562001398573d6000803e3d6000fd5b505050506040513d601f19601f82011682018060405250810190620013be919062003b7e565b6065546040517f65a345ac00000000000000000000000000000000000000000000000000000000815273ffffffffffffffffffffffffffffffffffffffff8981166004830152602482018b90529293509116906365a345ac90604401600060405180830381600087803b1580156200143557600080fd5b505af11580156200144a573d6000803e3d6000fd5b50506040517f70a0823100000000000000000000000000000000000000000000000000000000815230600482015289925083915073ffffffffffffffffffffffffffffffffffffffff8916906370a0823190602401602060405180830381865afa158015620014bd573d6000803e3d6000fd5b505050506040513d601f19601f82011682018060405250810190620014e3919062003b7e565b620014ef919062003c0d565b146200153e5760405162461bcd60e51b815260206004820152601b60248201527f746f6b656e206973206e6f742073656e742066726f6d20636f72650000000000604482015260640162000536565b6066546040517f095ea7b300000000000000000000000000000000000000000000000000000000815273ffffffffffffffffffffffffffffffffffffffff9182166004820152602481018990529087169063095ea7b3906044016020604051808303816000875af1158015620015b8573d6000803e3d6000fd5b505050506040513d601f19601f82011682018060405250810190620015de919062003b5e565b620016525760405162461bcd60e51b815260206004820152602b60248201527f617070726f76652066726f6d2074686520657874656e73696f6e20746f20726f60448201527f75746572206661696c6564000000000000000000000000000000000000000000606482015260840162000536565b506067546040517fc409123600000000000000000000000000000000000000000000000000000000815260206004820152600360248201527f4554480000000000000000000000000000000000000000000000000000000000604482015260009173ffffffffffffffffffffffffffffffffffffffff169063c409123690606401602060405180830381865afa158015620016f1573d6000803e3d6000fd5b505050506040513d601f19601f8201168201806040525081019062001717919062003a49565b90508162001b495760006040518061010001604052808873ffffffffffffffffffffffffffffffffffffffff1681526020018373ffffffffffffffffffffffffffffffffffffffff168152602001610bb862ffffff1681526020013073ffffffffffffffffffffffffffffffffffffffff16815260200142815260200189815260200160008152602001620017af8985898962002b15565b73ffffffffffffffffffffffffffffffffffffffff908116909152606654604080517f414bf3890000000000000000000000000000000000000000000000000000000081528451841660048201526020850151841660248201529084015162ffffff1660448201526060840151831660648201526080840151608482015260a084015160a482015260c084015160c482015260e0840151831660e482015292935060009291169063414bf38990610104016020604051808303816000875af115801562001880573d6000803e3d6000fd5b505050506040513d601f19601f82011682018060405250810190620018a6919062003b7e565b6066546040517f095ea7b300000000000000000000000000000000000000000000000000000000815273ffffffffffffffffffffffffffffffffffffffff91821660048201526024810183905291925084169063095ea7b3906044016020604051808303816000875af115801562001922573d6000803e3d6000fd5b505050506040513d601f19601f8201168201806040525081019062001948919062003b5e565b620019bc5760405162461bcd60e51b815260206004820152602b60248201527f617070726f76652066726f6d2074686520657874656e73696f6e20746f20726f60448201527f75746572206661696c6564000000000000000000000000000000000000000000606482015260840162000536565b60006040518061010001604052808573ffffffffffffffffffffffffffffffffffffffff1681526020018973ffffffffffffffffffffffffffffffffffffffff168152602001610bb862ffffff1681526020018f73ffffffffffffffffffffffffffffffffffffffff1681526020014281526020018381526020016000815260200162001a4c868b8b8b62002b15565b73ffffffffffffffffffffffffffffffffffffffff908116909152606654604080517f414bf3890000000000000000000000000000000000000000000000000000000081528451841660048201526020850151841660248201529084015162ffffff1660448201526060840151831660648201526080840151608482015260a084015160a482015260c084015160c482015260e0840151831660e4820152929350169063414bf38990610104016020604051808303816000875af115801562001b19573d6000803e3d6000fd5b505050506040513d601f19601f8201168201806040525081019062001b3f919062003b7e565b5050505062001ccf565b60006040518061010001604052808873ffffffffffffffffffffffffffffffffffffffff1681526020018773ffffffffffffffffffffffffffffffffffffffff168152602001610bb862ffffff1681526020018d73ffffffffffffffffffffffffffffffffffffffff1681526020014281526020018981526020016000815260200162001bd98989898962002b15565b73ffffffffffffffffffffffffffffffffffffffff908116909152606654604080517f414bf3890000000000000000000000000000000000000000000000000000000081528451841660048201526020850151841660248201529084015162ffffff1660448201526060840151831660648201526080840151608482015260a084015160a482015260c084015160c482015260e0840151831660e4820152929350169063414bf38990610104016020604051808303816000875af115801562001ca6573d6000803e3d6000fd5b505050506040513d601f19601f8201168201806040525081019062001ccc919062003b7e565b50505b50505050505050505050505050565b62001ce862002a35565b73ffffffffffffffffffffffffffffffffffffffff811662001d735760405162461bcd60e51b815260206004820152602660248201527f4f776e61626c653a206e6577206f776e657220697320746865207a65726f206160448201527f6464726573730000000000000000000000000000000000000000000000000000606482015260840162000536565b620006698162002a9e565b600054610100900460ff161580801562001d9f5750600054600160ff909116105b8062001dbb5750303b15801562001dbb575060005460ff166001145b62001e2f5760405162461bcd60e51b815260206004820152602e60248201527f496e697469616c697a61626c653a20636f6e747261637420697320616c72656160448201527f647920696e697469616c697a6564000000000000000000000000000000000000606482015260840162000536565b600080547fffffffffffffffffffffffffffffffffffffffffffffffffffffffffffffff00166001179055801562001e8e57600080547fffffffffffffffffffffffffffffffffffffffffffffffffffffffffffff00ff166101001790555b62001e9862002d3a565b6065805473ffffffffffffffffffffffffffffffffffffffff8781167fffffffffffffffffffffffff00000000000000000000000000000000000000009283161790925560678054878416908316179055606680549286169290911691909117905560408051600480825260a0820190925290602082015b606081526020019060019003908162001f10575050805162001f3b91606a916020909101906200312f565b5060405180608001604052806040518060400160405280600481526020017f537761700000000000000000000000000000000000000000000000000000000081525081526020016040518060400160405280600d81526020017f7b746f6b656e416d6f756e747d0000000000000000000000000000000000000081525081526020016040518060400160405280600281526020017f746f00000000000000000000000000000000000000000000000000000000000081525081526020016040518060400160405280600881526020017f7b737472696e677d000000000000000000000000000000000000000000000000815250815250606a60008154811062002048576200204862003a69565b906000526020600020019060046200206292919062003193565b506040518060e001604052806040518060400160405280600481526020017f537761700000000000000000000000000000000000000000000000000000000081525081526020016040518060400160405280600d81526020017f7b746f6b656e416d6f756e747d0000000000000000000000000000000000000081525081526020016040518060400160405280600281526020017f746f00000000000000000000000000000000000000000000000000000000000081525081526020016040518060400160405280600881526020017f7b737472696e677d00000000000000000000000000000000000000000000000081525081526020016040518060400160405280600481526020017f776974680000000000000000000000000000000000000000000000000000000081525081526020016040518060400160405280600881526020017f7b616d6f756e747d00000000000000000000000000000000000000000000000081525081526020016040518060400160405280600881526020017f736c697070616765000000000000000000000000000000000000000000000000815250815250606a60018154811062002220576200222062003a69565b906000526020600020019060076200223a929190620031ec565b506040518061012001604052806040518060400160405280600481526020017f537761700000000000000000000000000000000000000000000000000000000081525081526020016040518060400160405280600d81526020017f7b746f6b656e416d6f756e747d0000000000000000000000000000000000000081525081526020016040518060400160405280600281526020017f746f00000000000000000000000000000000000000000000000000000000000081525081526020016040518060400160405280600881526020017f7b737472696e677d00000000000000000000000000000000000000000000000081525081526020016040518060400160405280600581526020017f756e64657200000000000000000000000000000000000000000000000000000081525081526020016040518060400160405280600681526020017f7b75696e747d000000000000000000000000000000000000000000000000000081525081526020016040518060400160405280600481526020017f737172740000000000000000000000000000000000000000000000000000000081525081526020016040518060400160405280600581526020017f707269636500000000000000000000000000000000000000000000000000000081525081526020016040518060400160405280600581526020017f6c696d6974000000000000000000000000000000000000000000000000000000815250815250606a6002815481106200246f576200246f62003a69565b906000526020600020019060096200248992919062003237565b50604080516101c081018252600461018082018181527f53776170000000000000000000000000000000000000000000000000000000006101a0840152825282518084018452600d81527f7b746f6b656e416d6f756e747d000000000000000000000000000000000000006020828101919091528084019190915283518085018552600281527f746f00000000000000000000000000000000000000000000000000000000000081830152838501528351808501855260088082527f7b737472696e677d000000000000000000000000000000000000000000000000828401526060850191909152845180860186528381527f7769746800000000000000000000000000000000000000000000000000000000818401526080850152845180860186528181527f7b616d6f756e747d0000000000000000000000000000000000000000000000008184015260a0850152845180860186529081527f736c6970706167650000000000000000000000000000000000000000000000008183015260c08401528351808501855260058082527f756e6465720000000000000000000000000000000000000000000000000000008284015260e085019190915284518086018652600681527f7b75696e747d000000000000000000000000000000000000000000000000000081840152610100850152845180860186529283527f737172740000000000000000000000000000000000000000000000000000000083830152610120840192909252835180850185528281527f70726963650000000000000000000000000000000000000000000000000000008183015261014084015283518085019094529083527f6c696d697400000000000000000000000000000000000000000000000000000090830152610160810191909152606a805460039081106200273a576200273a62003a69565b9060005260206000200190600c6200275492919062003282565b50816040516200276490620032cd565b73ffffffffffffffffffffffffffffffffffffffff9091168152602001604051809103906000f0801580156200279e573d6000803e3d6000fd5b50606880547fffffffffffffffffffffffff00000000000000000000000000000000000000001673ffffffffffffffffffffffffffffffffffffffff9290921691909117905580156200284857600080547fffffffffffffffffffffffffffffffffffffffffffffffffffffffffffff00ff169055604051600181527f7f26b83ff96e1f2b6a682f133852f6798a09c465da95921460cefb38474024989060200160405180910390a15b5050505050565b6200066962002a35565b7f4910fdfa16fed3260ed0e7147f7cc6da11a60208b5b9406d12a635614ffd91435460ff161562002894576200288f8362002dc3565b505050565b8273ffffffffffffffffffffffffffffffffffffffff166352d1902d6040518163ffffffff1660e01b8152600401602060405180830381865afa9250505080156200291c575060408051601f3d9081017fffffffffffffffffffffffffffffffffffffffffffffffffffffffffffffffe0168201909252620029199181019062003b7e565b60015b620029905760405162461bcd60e51b815260206004820152602e60248201527f45524331393637557067726164653a206e657720696d706c656d656e7461746960448201527f6f6e206973206e6f742055555053000000000000000000000000000000000000606482015260840162000536565b7f360894a13ba1a3210667c828492db98dca3e2076cc3735a920a3ca505d382bbc811462002a275760405162461bcd60e51b815260206004820152602960248201527f45524331393637557067726164653a20756e737570706f727465642070726f7860448201527f6961626c65555549440000000000000000000000000000000000000000000000606482015260840162000536565b506200288f83838362002eb5565b60335473ffffffffffffffffffffffffffffffffffffffff1633146200091d5760405162461bcd60e51b815260206004820181905260248201527f4f776e61626c653a2063616c6c6572206973206e6f7420746865206f776e6572604482015260640162000536565b6033805473ffffffffffffffffffffffffffffffffffffffff8381167fffffffffffffffffffffffff0000000000000000000000000000000000000000831681179093556040519116919082907f8be0079c531659141344cd1fd0a4f28419497f9722a3daafe3b4186f6b6457e090600090a35050565b600073ffffffffffffffffffffffffffffffffffffffff80851686821610908316820362002cb5576068546040517f64bd1edf00000000000000000000000000000000000000000000000000000000815273ffffffffffffffffffffffffffffffffffffffff88811660048301528781166024830152610bb8604483015260009216906364bd1edf90606401602060405180830381865afa15801562002bbf573d6000803e3d6000fd5b505050506040513d601f19601f8201168201806040525081019062002be5919062003b5e565b9050801562002ca7576068546040517fb723c17200000000000000000000000000000000000000000000000000000000815273ffffffffffffffffffffffffffffffffffffffff89811660048301528881166024830152610bb86044830152600092169063b723c1729060640160e060405180830381865afa15801562002c70573d6000803e3d6000fd5b505050506040513d601f19601f8201168201806040525081019062002c96919062003c36565b5094995062002cb395505050505050565b60009250505062002d32565b505b600061271062002ccb62ffffff87168662003cdd565b62002cd7919062003d1f565b62002ce3908562003d55565b9050600061271062002cfb62ffffff88168762003cdd565b62002d07919062003d1f565b62002d13908662003d8c565b9050821562002d275750915062002d329050565b925062002d32915050565b949350505050565b600054610100900460ff1662002db95760405162461bcd60e51b815260206004820152602b60248201527f496e697469616c697a61626c653a20636f6e7472616374206973206e6f74206960448201527f6e697469616c697a696e67000000000000000000000000000000000000000000606482015260840162000536565b6200091d62002ee6565b73ffffffffffffffffffffffffffffffffffffffff81163b62002e4f5760405162461bcd60e51b815260206004820152602d60248201527f455243313936373a206e657720696d706c656d656e746174696f6e206973206e60448201527f6f74206120636f6e747261637400000000000000000000000000000000000000606482015260840162000536565b7f360894a13ba1a3210667c828492db98dca3e2076cc3735a920a3ca505d382bbc80547fffffffffffffffffffffffff00000000000000000000000000000000000000001673ffffffffffffffffffffffffffffffffffffffff92909216919091179055565b62002ec08362002f70565b60008251118062002ece5750805b156200288f5762002ee0838362002fbf565b50505050565b600054610100900460ff1662002f655760405162461bcd60e51b815260206004820152602b60248201527f496e697469616c697a61626c653a20636f6e7472616374206973206e6f74206960448201527f6e697469616c697a696e67000000000000000000000000000000000000000000606482015260840162000536565b6200091d3362002a9e565b62002f7b8162002dc3565b60405173ffffffffffffffffffffffffffffffffffffffff8216907fbc7cd75a20ee27fd9adebab32041f755214dbc6bffa90cc0225b39da2e5c2d3b90600090a250565b606062002fe783836040518060600160405280602781526020016200456e6027913962002ff0565b90505b92915050565b60606000808573ffffffffffffffffffffffffffffffffffffffff16856040516200301c919062003dbc565b600060405180830381855af49150503d806000811462003059576040519150601f19603f3d011682016040523d82523d6000602084013e6200305e565b606091505b509150915062003071868383876200307b565b9695505050505050565b60608315620030fc578251600003620030f45773ffffffffffffffffffffffffffffffffffffffff85163b620030f45760405162461bcd60e51b815260206004820152601d60248201527f416464726573733a2063616c6c20746f206e6f6e2d636f6e7472616374000000604482015260640162000536565b508162002d32565b62002d328383815115620031135781518083602001fd5b8060405162461bcd60e51b8152600401620005369190620037b7565b82805482825590600052602060002090810192821562003181579160200282015b8281111562003181578251805162003170918491602090910190620032db565b509160200191906001019062003150565b506200318f92915062003326565b5090565b828054828255906000526020600020908101928215620031de579160200282015b82811115620031de5782518290620031cd908262003e2c565b5091602001919060010190620031b4565b506200318f92915062003347565b828054828255906000526020600020908101928215620031de579160200282015b82811115620031de578251829062003226908262003e2c565b50916020019190600101906200320d565b828054828255906000526020600020908101928215620031de579160200282015b82811115620031de578251829062003271908262003e2c565b509160200191906001019062003258565b828054828255906000526020600020908101928215620031de579160200282015b82811115620031de5782518290620032bc908262003e2c565b5091602001919060010190620032a3565b61061a8062003f5483390190565b828054828255906000526020600020908101928215620031de579160200282015b82811115620031de578251829062003315908262003e2c565b5091602001919060010190620032fc565b808211156200318f5760006200333d828262003368565b5060010162003326565b808211156200318f5760006200335e828262003388565b5060010162003347565b508054600082559060005260206000209081019062000669919062003347565b5080546200339690620039f4565b6000825580601f10620033a7575050565b601f0160209004906000526020600020908101906200066991905b808211156200318f5760008155600101620033c2565b73ffffffffffffffffffffffffffffffffffffffff811681146200066957600080fd5b80356200340881620033d8565b919050565b6000602082840312156200342057600080fd5b81356200342d81620033d8565b9392505050565b7f4e487b7100000000000000000000000000000000000000000000000000000000600052604160045260246000fd5b604051601f82017fffffffffffffffffffffffffffffffffffffffffffffffffffffffffffffffe016810167ffffffffffffffff81118282101715620034ad57620034ad62003434565b604052919050565b600067ffffffffffffffff821115620034d257620034d262003434565b50601f017fffffffffffffffffffffffffffffffffffffffffffffffffffffffffffffffe01660200190565b6000620035156200350f84620034b5565b62003463565b90508281528383830111156200352a57600080fd5b828260208301376000602084830101529392505050565b600082601f8301126200355357600080fd5b62002fe783833560208501620034fe565b600060c082840312156200357757600080fd5b60405160c0810167ffffffffffffffff82821081831117156200359e576200359e62003434565b81604052829350843583526020850135602084015260408501359150620035c582620033d8565b81604084015260608501359150620035dd82620033d8565b8160608401526080850135915080821115620035f857600080fd5b50620036078582860162003541565b60808301525060a083013560a08201525092915050565b80151581146200066957600080fd5b803562003408816200361e565b600080604083850312156200364e57600080fd5b823567ffffffffffffffff8111156200366657600080fd5b620036748582860162003564565b925050602083013562003687816200361e565b809150509250929050565b60008060408385031215620036a657600080fd5b8235620036b381620033d8565b9150602083013567ffffffffffffffff811115620036d057600080fd5b620036de8582860162003541565b9150509250929050565b60008060408385031215620036fc57600080fd5b823567ffffffffffffffff8111156200371457600080fd5b620037228582860162003564565b92505060208301356200368781620033d8565b6000602082840312156200374857600080fd5b813567ffffffffffffffff8111156200376057600080fd5b62002d328482850162003564565b600080604083850312156200378257600080fd5b50508035926020909101359150565b60005b83811015620037ae57818101518382015260200162003794565b50506000910152565b6020815260008251806020840152620037d881604085016020870162003791565b601f017fffffffffffffffffffffffffffffffffffffffffffffffffffffffffffffffe0169190910160400192915050565b60ff811681146200066957600080fd5b60008060008060008060c087890312156200383457600080fd5b6200384087356200380a565b8635955060208088013567ffffffffffffffff808211156200386157600080fd5b818a0191508a601f8301126200387657600080fd5b8135818111156200388b576200388b62003434565b8060051b6200389c85820162003463565b918252838101850191858101908e841115620038b757600080fd5b86860192505b83831015620038f6578483351115620038d557600080fd5b620038e68f88853589010162003541565b82529186019190860190620038bd565b809b50505050505050506200390e60408801620033fb565b93506200391e606088016200362d565b92506200392e60808801620033fb565b915060a087013590509295509295509295565b600080600080608085870312156200395857600080fd5b84356200396581620033d8565b935060208501356200397781620033d8565b925060408501356200398981620033d8565b915060608501356200399b81620033d8565b939692955090935050565b600060208284031215620039b957600080fd5b813567ffffffffffffffff811115620039d157600080fd5b8201601f81018413620039e357600080fd5b62002d3284823560208401620034fe565b600181811c9082168062003a0957607f821691505b60208210810362003a43577f4e487b7100000000000000000000000000000000000000000000000000000000600052602260045260246000fd5b50919050565b60006020828403121562003a5c57600080fd5b81516200342d81620033d8565b7f4e487b7100000000000000000000000000000000000000000000000000000000600052603260045260246000fd5b600082601f83011262003aaa57600080fd5b815162003abb6200350f82620034b5565b81815284602083860101111562003ad157600080fd5b62002d3282602083016020870162003791565b6000806040838503121562003af857600080fd5b82519150602083015167ffffffffffffffff81111562003b1757600080fd5b620036de8582860162003a98565b60006020828403121562003b3857600080fd5b815167ffffffffffffffff81111562003b5057600080fd5b62002d328482850162003a98565b60006020828403121562003b7157600080fd5b81516200342d816200361e565b60006020828403121562003b9157600080fd5b5051919050565b7f4e487b7100000000000000000000000000000000000000000000000000000000600052601260045260246000fd5b7f4e487b7100000000000000000000000000000000000000000000000000000000600052601160045260246000fd5b60008262003c085762003c0862003b98565b500490565b8181038181111562002fea5762002fea62003bc7565b805161ffff811681146200340857600080fd5b600080600080600080600060e0888a03121562003c5257600080fd5b875162003c5f81620033d8565b8097505060208801518060020b811462003c7857600080fd5b955062003c886040890162003c23565b945062003c986060890162003c23565b935062003ca86080890162003c23565b925060a088015162003cba816200380a565b60c089015190925062003ccd816200361e565b8091505092959891949750929550565b73ffffffffffffffffffffffffffffffffffffffff82811682821681810283169291811582850482141762003d165762003d1662003bc7565b50505092915050565b600073ffffffffffffffffffffffffffffffffffffffff8084168062003d495762003d4962003b98565b92169190910492915050565b73ffffffffffffffffffffffffffffffffffffffff82811682821603908082111562003d855762003d8562003bc7565b5092915050565b73ffffffffffffffffffffffffffffffffffffffff81811683821601908082111562003d855762003d8562003bc7565b6000825162003dd081846020870162003791565b9190910192915050565b601f8211156200288f57600081815260208120601f850160051c8101602086101562003e035750805b601f850160051c820191505b8181101562003e245782815560010162003e0f565b505050505050565b815167ffffffffffffffff81111562003e495762003e4962003434565b62003e618162003e5a8454620039f4565b8462003dda565b602080601f83116001811462003eb7576000841562003e805750858301515b7fffffffffffffffffffffffffffffffffffffffffffffffffffffffffffffffff600386901b1c1916600185901b17855562003e24565b6000858152602081207fffffffffffffffffffffffffffffffffffffffffffffffffffffffffffffffe08616915b8281101562003f065788860151825594840194600190910190840162003ee5565b508582101562003f4357878501517fffffffffffffffffffffffffffffffffffffffffffffffffffffffffffffffff600388901b60f8161c191681555b5050505050600190811b0190555056fe60a060405234801561001057600080fd5b5060405161061a38038061061a83398101604081905261002f91610040565b6001600160a01b0316608052610070565b60006020828403121561005257600080fd5b81516001600160a01b038116811461006957600080fd5b9392505050565b6080516105826100986000396000818160e401528181610188015261027c01526105826000f3fe608060405234801561001057600080fd5b50600436106100415760003560e01c806364bd1edf14610046578063b723c1721461006e578063c45a0155146100df575b600080fd5b61005961005436600461041a565b61012b565b60405190151581526020015b60405180910390f35b61008161007c36600461041a565b610213565b6040805173ffffffffffffffffffffffffffffffffffffffff909816885260029690960b602088015261ffff94851695870195909552918316606086015291909116608084015260ff1660a0830152151560c082015260e001610065565b6101067f000000000000000000000000000000000000000000000000000000000000000081565b60405173ffffffffffffffffffffffffffffffffffffffff9091168152602001610065565b6040517f1698ee8200000000000000000000000000000000000000000000000000000000815273ffffffffffffffffffffffffffffffffffffffff8481166004830152838116602483015262ffffff8316604483015260009182917f00000000000000000000000000000000000000000000000000000000000000001690631698ee8290606401602060405180830381865afa1580156101cf573d6000803e3d6000fd5b505050506040513d601f19601f820116820180604052508101906101f3919061046d565b73ffffffffffffffffffffffffffffffffffffffff161415949350505050565b6040517f1698ee8200000000000000000000000000000000000000000000000000000000815273ffffffffffffffffffffffffffffffffffffffff8481166004830152838116602483015262ffffff8316604483015260009182918291829182918291829182917f00000000000000000000000000000000000000000000000000000000000000001690631698ee8290606401602060405180830381865afa1580156102c3573d6000803e3d6000fd5b505050506040513d601f19601f820116820180604052508101906102e7919061046d565b905073ffffffffffffffffffffffffffffffffffffffff811661036a576040517f08c379a000000000000000000000000000000000000000000000000000000000815260206004820152600e60248201527f506f6f6c206e6f7420666f756e64000000000000000000000000000000000000604482015260640160405180910390fd5b8073ffffffffffffffffffffffffffffffffffffffff16633850c7bd6040518163ffffffff1660e01b815260040160e060405180830381865afa1580156103b5573d6000803e3d6000fd5b505050506040513d601f19601f820116820180604052508101906103d991906104a8565b9750975097509750975097509750509397509397509397909450565b73ffffffffffffffffffffffffffffffffffffffff8116811461041757600080fd5b50565b60008060006060848603121561042f57600080fd5b833561043a816103f5565b9250602084013561044a816103f5565b9150604084013562ffffff8116811461046257600080fd5b809150509250925092565b60006020828403121561047f57600080fd5b815161048a816103f5565b9392505050565b805161ffff811681146104a357600080fd5b919050565b600080600080600080600060e0888a0312156104c357600080fd5b87516104ce816103f5565b8097505060208801518060020b81146104e657600080fd5b95506104f460408901610491565b945061050260608901610491565b935061051060808901610491565b925060a088015160ff8116811461052657600080fd5b60c0890151909250801515811461053c57600080fd5b809150509295989194975092955056fea2646970667358221220513ab6a3d9372432ef44213d10b43701d0544f4be79f7c740c4e4957475cd71764736f6c63430008150033416464726573733a206c6f772d6c6576656c2064656c65676174652063616c6c206661696c6564a2646970667358221220d35bdcbf843d776b198aaf6d9ba96fe024008d7053ec0c959258cbd8d54e100864736f6c63430008150033",
    "linkReferences": {}
  },
  "methodIdentifiers": {
    "addressOfNFTName(string)": "fd72aa30",
    "claimUnclaimedState((uint256,bytes32,address,address,bytes,uint256),address)": "8eb0930c",
    "core()": "f2f4eb26",
    "defaultSlippagePoints()": "10206c21",
    "execute(uint8,bytes[],address,bool,address,bytes32)": "e93977e8",
    "initialize(address,address,address,address)": "f8c8765e",
    "owner()": "8da5cb5b",
    "poolFee()": "089fe6aa",
    "poolFinder()": "e6d56780",
    "proxiableUUID()": "52d1902d",
    "registerUnclaimedState((uint256,bytes32,address,address,bytes,uint256),bool)": "3ed4f16a",
    "renounceOwnership()": "715018a6",
    "router()": "f887ea40",
    "templates(uint256,uint256)": "d07e0189",
    "tokenRegistry()": "9d23c4c7",
    "transferOwnership(address)": "f2fde38b",
    "upgradeTo(address)": "3659cfe6",
    "upgradeToAndCall(address,bytes)": "4f1ef286",
    "voidUnclaimedState((uint256,bytes32,address,address,bytes,uint256))": "b91ad651"
  },
  "storageLayout": {
    "storage": [
      {
        "astId": 138,
        "contract": "src/extensions/UniswapExtension.sol:UniswapExtension",
        "label": "_initialized",
        "offset": 0,
        "slot": "0",
        "type": "t_uint8"
      },
      {
        "astId": 141,
        "contract": "src/extensions/UniswapExtension.sol:UniswapExtension",
        "label": "_initializing",
        "offset": 1,
        "slot": "0",
        "type": "t_bool"
      },
      {
        "astId": 95620,
        "contract": "src/extensions/UniswapExtension.sol:UniswapExtension",
        "label": "__gap",
        "offset": 0,
        "slot": "1",
        "type": "t_array(t_uint256)50_storage"
      },
      {
        "astId": 10,
        "contract": "src/extensions/UniswapExtension.sol:UniswapExtension",
        "label": "_owner",
        "offset": 0,
        "slot": "51",
        "type": "t_address"
      },
      {
        "astId": 130,
        "contract": "src/extensions/UniswapExtension.sol:UniswapExtension",
        "label": "__gap",
        "offset": 0,
        "slot": "52",
        "type": "t_array(t_uint256)49_storage"
      },
      {
        "astId": 66881,
        "contract": "src/extensions/UniswapExtension.sol:UniswapExtension",
        "label": "core",
        "offset": 0,
        "slot": "101",
        "type": "t_contract(EmailWalletCore)66089"
      },
      {
        "astId": 66884,
        "contract": "src/extensions/UniswapExtension.sol:UniswapExtension",
        "label": "router",
        "offset": 0,
        "slot": "102",
        "type": "t_contract(ISwapRouter)4774"
      },
      {
        "astId": 66887,
        "contract": "src/extensions/UniswapExtension.sol:UniswapExtension",
        "label": "tokenRegistry",
        "offset": 0,
        "slot": "103",
        "type": "t_contract(TokenRegistry)72617"
      },
      {
        "astId": 66890,
        "contract": "src/extensions/UniswapExtension.sol:UniswapExtension",
        "label": "poolFinder",
        "offset": 0,
        "slot": "104",
        "type": "t_contract(PoolFinder)66852"
      },
      {
        "astId": 66900,
        "contract": "src/extensions/UniswapExtension.sol:UniswapExtension",
        "label": "addressOfNFTName",
        "offset": 0,
        "slot": "105",
        "type": "t_mapping(t_string_memory_ptr,t_address)"
      },
      {
        "astId": 66904,
        "contract": "src/extensions/UniswapExtension.sol:UniswapExtension",
        "label": "templates",
        "offset": 0,
        "slot": "106",
        "type": "t_array(t_array(t_string_storage)dyn_storage)dyn_storage"
      }
    ],
    "types": {
      "t_address": {
        "encoding": "inplace",
        "label": "address",
        "numberOfBytes": "20"
      },
      "t_array(t_array(t_string_storage)dyn_storage)dyn_storage": {
        "encoding": "dynamic_array",
        "label": "string[][]",
        "numberOfBytes": "32",
        "base": "t_array(t_string_storage)dyn_storage"
      },
      "t_array(t_string_storage)dyn_storage": {
        "encoding": "dynamic_array",
        "label": "string[]",
        "numberOfBytes": "32",
        "base": "t_string_storage"
      },
      "t_array(t_uint256)49_storage": {
        "encoding": "inplace",
        "label": "uint256[49]",
        "numberOfBytes": "1568",
        "base": "t_uint256"
      },
      "t_array(t_uint256)50_storage": {
        "encoding": "inplace",
        "label": "uint256[50]",
        "numberOfBytes": "1600",
        "base": "t_uint256"
      },
      "t_bool": {
        "encoding": "inplace",
        "label": "bool",
        "numberOfBytes": "1"
      },
      "t_contract(EmailWalletCore)66089": {
        "encoding": "inplace",
        "label": "contract EmailWalletCore",
        "numberOfBytes": "20"
      },
      "t_contract(ISwapRouter)4774": {
        "encoding": "inplace",
        "label": "contract ISwapRouter",
        "numberOfBytes": "20"
      },
      "t_contract(PoolFinder)66852": {
        "encoding": "inplace",
        "label": "contract PoolFinder",
        "numberOfBytes": "20"
      },
      "t_contract(TokenRegistry)72617": {
        "encoding": "inplace",
        "label": "contract TokenRegistry",
        "numberOfBytes": "20"
      },
      "t_mapping(t_string_memory_ptr,t_address)": {
        "encoding": "mapping",
        "key": "t_string_memory_ptr",
        "label": "mapping(string => address)",
        "numberOfBytes": "32",
        "value": "t_address"
      },
      "t_string_memory_ptr": {
        "encoding": "bytes",
        "label": "string",
        "numberOfBytes": "32"
      },
      "t_string_storage": {
        "encoding": "bytes",
        "label": "string",
        "numberOfBytes": "32"
      },
      "t_uint256": {
        "encoding": "inplace",
        "label": "uint256",
        "numberOfBytes": "32"
      },
      "t_uint8": {
        "encoding": "inplace",
        "label": "uint8",
        "numberOfBytes": "1"
      }
    }
  },
  "id": 137
}