{
  "abi": [
    {
      "inputs": [
        {
          "internalType": "address",
          "name": "coreAddr",
          "type": "address"
        },
        {
          "internalType": "address",
          "name": "_tokenReg",
          "type": "address"
        },
        {
          "internalType": "address",
          "name": "_router",
          "type": "address"
        },
        {
          "internalType": "address",
          "name": "_factory",
          "type": "address"
        }
      ],
      "stateMutability": "nonpayable",
      "type": "constructor"
    },
    {
      "inputs": [
        {
          "internalType": "string",
          "name": "",
          "type": "string"
        }
      ],
      "name": "addressOfNFTName",
      "outputs": [
        {
          "internalType": "address",
          "name": "",
          "type": "address"
        }
      ],
      "stateMutability": "view",
      "type": "function"
    },
    {
      "inputs": [
        {
          "components": [
            {
              "internalType": "uint256",
              "name": "id",
              "type": "uint256"
            },
            {
              "internalType": "bytes32",
              "name": "emailAddrCommit",
              "type": "bytes32"
            },
            {
              "internalType": "address",
              "name": "extensionAddr",
              "type": "address"
            },
            {
              "internalType": "address",
              "name": "sender",
              "type": "address"
            },
            {
              "internalType": "bytes",
              "name": "state",
              "type": "bytes"
            },
            {
              "internalType": "uint256",
              "name": "expiryTime",
              "type": "uint256"
            }
          ],
          "internalType": "struct UnclaimedState",
          "name": "unclaimedState",
          "type": "tuple"
        },
        {
          "internalType": "address",
          "name": "wallet",
          "type": "address"
        }
      ],
      "name": "claimUnclaimedState",
      "outputs": [],
      "stateMutability": "nonpayable",
      "type": "function"
    },
    {
      "inputs": [],
      "name": "core",
      "outputs": [
        {
          "internalType": "contract EmailWalletCore",
          "name": "",
          "type": "address"
        }
      ],
      "stateMutability": "view",
      "type": "function"
    },
    {
      "inputs": [],
      "name": "defaultSlippagePoints",
      "outputs": [
        {
          "internalType": "uint24",
          "name": "",
          "type": "uint24"
        }
      ],
      "stateMutability": "view",
      "type": "function"
    },
    {
      "inputs": [
        {
          "internalType": "uint8",
          "name": "templateIndex",
          "type": "uint8"
        },
        {
          "internalType": "bytes[]",
          "name": "subjectParams",
          "type": "bytes[]"
        },
        {
          "internalType": "address",
          "name": "wallet",
          "type": "address"
        },
        {
          "internalType": "bool",
          "name": "hasEmailRecipient",
          "type": "bool"
        },
        {
          "internalType": "address",
          "name": "recipientETHAddr",
          "type": "address"
        },
        {
          "internalType": "bytes32",
          "name": "emailNullifier",
          "type": "bytes32"
        }
      ],
      "name": "execute",
      "outputs": [],
      "stateMutability": "nonpayable",
      "type": "function"
    },
    {
      "inputs": [],
      "name": "poolFee",
      "outputs": [
        {
          "internalType": "uint24",
          "name": "",
          "type": "uint24"
        }
      ],
      "stateMutability": "view",
      "type": "function"
    },
    {
      "inputs": [],
      "name": "poolFinder",
      "outputs": [
        {
          "internalType": "contract PoolFinder",
          "name": "",
          "type": "address"
        }
      ],
      "stateMutability": "view",
      "type": "function"
    },
    {
      "inputs": [
        {
          "components": [
            {
              "internalType": "uint256",
              "name": "id",
              "type": "uint256"
            },
            {
              "internalType": "bytes32",
              "name": "emailAddrCommit",
              "type": "bytes32"
            },
            {
              "internalType": "address",
              "name": "extensionAddr",
              "type": "address"
            },
            {
              "internalType": "address",
              "name": "sender",
              "type": "address"
            },
            {
              "internalType": "bytes",
              "name": "state",
              "type": "bytes"
            },
            {
              "internalType": "uint256",
              "name": "expiryTime",
              "type": "uint256"
            }
          ],
          "internalType": "struct UnclaimedState",
          "name": "unclaimedState",
          "type": "tuple"
        },
        {
          "internalType": "bool",
          "name": "isInternal",
          "type": "bool"
        }
      ],
      "name": "registerUnclaimedState",
      "outputs": [],
      "stateMutability": "nonpayable",
      "type": "function"
    },
    {
      "inputs": [],
      "name": "router",
      "outputs": [
        {
          "internalType": "contract ISwapRouter",
          "name": "",
          "type": "address"
        }
      ],
      "stateMutability": "view",
      "type": "function"
    },
    {
      "inputs": [
        {
          "internalType": "uint256",
          "name": "",
          "type": "uint256"
        },
        {
          "internalType": "uint256",
          "name": "",
          "type": "uint256"
        }
      ],
      "name": "templates",
      "outputs": [
        {
          "internalType": "string",
          "name": "",
          "type": "string"
        }
      ],
      "stateMutability": "view",
      "type": "function"
    },
    {
      "inputs": [],
      "name": "tokenRegistry",
      "outputs": [
        {
          "internalType": "contract TokenRegistry",
          "name": "",
          "type": "address"
        }
      ],
      "stateMutability": "view",
      "type": "function"
    },
    {
      "inputs": [
        {
          "components": [
            {
              "internalType": "uint256",
              "name": "id",
              "type": "uint256"
            },
            {
              "internalType": "bytes32",
              "name": "emailAddrCommit",
              "type": "bytes32"
            },
            {
              "internalType": "address",
              "name": "extensionAddr",
              "type": "address"
            },
            {
              "internalType": "address",
              "name": "sender",
              "type": "address"
            },
            {
              "internalType": "bytes",
              "name": "state",
              "type": "bytes"
            },
            {
              "internalType": "uint256",
              "name": "expiryTime",
              "type": "uint256"
            }
          ],
          "internalType": "struct UnclaimedState",
          "name": "unclaimedState",
          "type": "tuple"
        }
      ],
      "name": "voidUnclaimedState",
      "outputs": [],
      "stateMutability": "nonpayable",
      "type": "function"
    }
  ],
  "bytecode": {
    "object": "0x600460808181526101206040529060a05b60608152602001906001900390816200001057505080516200003b9160059160209091019062000642565b503480156200004957600080fd5b5060405162002a2038038062002a208339810160408190526200006c9162000921565b600080546001600160a01b038087166001600160a01b0319928316178355600280548783169084161781556001805492871692909316919091179091556040805160c081018252600460808201908152630537761760e41b60a0830152815281518083018352600d81526c7b746f6b656e416d6f756e747d60981b602082810191909152808301919091528251808401845293845261746f60f01b8482015281830193909352815180830190925260088252677b737472696e677d60c01b92820192909252606082015260058054919290916200014d576200014d6200097e565b9060005260206000200190600462000167929190620006a6565b506040518060e00160405280604051806040016040528060048152602001630537761760e41b81525081526020016040518060400160405280600d81526020016c7b746f6b656e416d6f756e747d60981b815250815260200160405180604001604052806002815260200161746f60f01b8152508152602001604051806040016040528060088152602001677b737472696e677d60c01b8152508152602001604051806040016040528060048152602001630eed2e8d60e31b8152508152602001604051806040016040528060088152602001677b616d6f756e747d60c01b815250815260200160405180604001604052806008815260200167736c69707061676560c01b81525081525060056001815481106200028957620002896200097e565b90600052602060002001906007620002a3929190620006ff565b50604051806101200160405280604051806040016040528060048152602001630537761760e41b81525081526020016040518060400160405280600d81526020016c7b746f6b656e416d6f756e747d60981b815250815260200160405180604001604052806002815260200161746f60f01b8152508152602001604051806040016040528060088152602001677b737472696e677d60c01b8152508152602001604051806040016040528060058152602001643ab73232b960d91b8152508152602001604051806040016040528060068152602001657b75696e747d60d01b8152508152602001604051806040016040528060048152602001631cdc5c9d60e21b815250815260200160405180604001604052806005815260200164707269636560d81b8152508152602001604051806040016040528060058152602001641b1a5b5a5d60da1b81525081525060056002815481106200040757620004076200097e565b90600052602060002001906009620004219291906200074a565b50604080516101c08101825260046101808201818152630537761760e41b6101a0840152825282518084018452600d81526c7b746f6b656e416d6f756e747d60981b60208281019190915280840191909152835180850185526002815261746f60f01b8183015283850152835180850185526008808252677b737472696e677d60c01b82840152606085019190915284518086018652838152630eed2e8d60e31b81840152608085015284518086018652818152677b616d6f756e747d60c01b8184015260a08501528451808601865290815267736c69707061676560c01b8183015260c0840152835180850185526005808252643ab73232b960d91b8284015260e08501919091528451808601865260068152657b75696e747d60d01b8184015261010085015284518086018652928352631cdc5c9d60e21b838301526101208401929092528351808501855282815264707269636560d81b818301526101408401528351808501909452818452641b1a5b5a5d60da1b9084015261016082019290925281549091906003908110620005bf57620005bf6200097e565b9060005260206000200190600c620005d992919062000795565b5080604051620005e990620007e0565b6001600160a01b039091168152602001604051809103906000f08015801562000616573d6000803e3d6000fd5b50600380546001600160a01b0319166001600160a01b03929092169190911790555062000aef92505050565b82805482825590600052602060002090810192821562000694579160200282015b8281111562000694578251805162000683918491602090910190620007ee565b509160200191906001019062000663565b50620006a292915062000839565b5090565b828054828255906000526020600020908101928215620006f1579160200282015b82811115620006f15782518290620006e0908262000a23565b5091602001919060010190620006c7565b50620006a29291506200085a565b828054828255906000526020600020908101928215620006f1579160200282015b82811115620006f1578251829062000739908262000a23565b509160200191906001019062000720565b828054828255906000526020600020908101928215620006f1579160200282015b82811115620006f1578251829062000784908262000a23565b50916020019190600101906200076b565b828054828255906000526020600020908101928215620006f1579160200282015b82811115620006f15782518290620007cf908262000a23565b5091602001919060010190620007b6565b61056280620024be83390190565b828054828255906000526020600020908101928215620006f1579160200282015b82811115620006f1578251829062000828908262000a23565b50916020019190600101906200080f565b80821115620006a25760006200085082826200087b565b5060010162000839565b80821115620006a25760006200087182826200089e565b506001016200085a565b50805460008255906000526020600020908101906200089b91906200085a565b50565b508054620008ac9062000994565b6000825580601f10620008bd575050565b601f0160209004906000526020600020908101906200089b91905b80821115620006a25760008155600101620008d8565b634e487b7160e01b600052604160045260246000fd5b80516001600160a01b03811681146200091c57600080fd5b919050565b600080600080608085870312156200093857600080fd5b620009438562000904565b9350620009536020860162000904565b9250620009636040860162000904565b9150620009736060860162000904565b905092959194509250565b634e487b7160e01b600052603260045260246000fd5b600181811c90821680620009a957607f821691505b602082108103620009ca57634e487b7160e01b600052602260045260246000fd5b50919050565b601f82111562000a1e57600081815260208120601f850160051c81016020861015620009f95750805b601f850160051c820191505b8181101562000a1a5782815560010162000a05565b5050505b505050565b81516001600160401b0381111562000a3f5762000a3f620008ee565b62000a578162000a50845462000994565b84620009d0565b602080601f83116001811462000a8f576000841562000a765750858301515b600019600386901b1c1916600185901b17855562000a1a565b600085815260208120601f198616915b8281101562000ac05788860151825594840194600190910190840162000a9f565b508582101562000adf5787850151600019600388901b60f8161c191681555b5050505050600190811b01905550565b6119bf8062000aff6000396000f3fe608060405234801561001057600080fd5b50600436106100a45760003560e01c8063089fe6aa146100a957806310206c21146100cb5780633ed4f16a146100d35780638eb0930c146100e75780639d23c4c7146100fa578063b91ad6511461011a578063d07e018914610128578063e6d5678014610148578063e93977e81461015b578063f2f4eb261461016e578063f887ea4014610181578063fd72aa3014610194575b600080fd5b6100b2610bb881565b60405162ffffff90911681526020015b60405180910390f35b6100b2603281565b6100e56100e13660046111d9565b5050565b005b6100e56100f536600461122a565b6101c8565b60025461010d906001600160a01b031681565b6040516100c29190611270565b6100e56100f5366004611284565b61013b6101363660046112b8565b610207565b6040516100c291906112fe565b60035461010d906001600160a01b031681565b6100e5610169366004611340565b6102cc565b60005461010d906001600160a01b031681565b60015461010d906001600160a01b031681565b61010d6101a2366004611450565b80516020818301810180516004825292820191909301209152546001600160a01b031681565b60405162461bcd60e51b815260206004820152600f60248201526e139bdd081a5b5c1b195b595b9d1959608a1b60448201526064015b60405180910390fd5b6005828154811061021757600080fd5b90600052602060002001818154811061022f57600080fd5b9060005260206000200160009150915050805461024b90611498565b80601f016020809104026020016040519081016040528092919081815260200182805461027790611498565b80156102c45780601f10610299576101008083540402835291602001916102c4565b820191906000526020600020905b8154815290600101906020018083116102a757829003601f168201915b505050505081565b6000546001600160a01b031633148061036a575060008054906101000a90046001600160a01b03166001600160a01b031663d5e5c1c86040518163ffffffff1660e01b8152600401602060405180830381865afa158015610331573d6000803e3d6000fd5b505050506040513d601f19601f8201168201806040525081019061035591906114d2565b6001600160a01b0316336001600160a01b0316145b6103a75760405162461bcd60e51b815260206004820152600e60248201526d34b73b30b634b21039b2b73232b960911b60448201526064016101fe565b60038660ff1611156103f35760405162461bcd60e51b81526020600482015260156024820152740d2dcecc2d8d2c840e8cadae0d8c2e8ca92dcc8caf605b1b60448201526064016101fe565b821561043e5760405162461bcd60e51b815260206004820152601a6024820152791c9958da5c1a595b9d081a5cc81b9bdd081cdd5c1c1bdc9d195960321b60448201526064016101fe565b60008060008060008060008b60008151811061045c5761045c6114ef565b6020026020010151806020019051810190610477919061154a565b9150915081965060008c600181518110610493576104936114ef565b60200260200101518060200190518101906104ae9190611591565b600254604051636204891b60e11b81529192506001600160a01b03169063c4091236906104df9085906004016112fe565b602060405180830381865afa1580156104fc573d6000803e3d6000fd5b505050506040513d601f19601f8201168201806040525081019061052091906114d2565b600254604051636204891b60e11b81529198506001600160a01b03169063c4091236906105519084906004016112fe565b602060405180830381865afa15801561056e573d6000803e3d6000fd5b505050506040513d601f19601f8201168201806040525081019061059291906114d2565b95506001600160a01b0386166105e35760405162461bcd60e51b8152602060048201526016602482015275696e76616c6964206f757420746f6b656e206e616d6560501b60448201526064016101fe565b50506003546040516364bd1edf60e01b8152600092506001600160a01b03909116906364bd1edf9061061f9088908890610bb8906004016115c5565b602060405180830381865afa15801561063c573d6000803e3d6000fd5b505050506040513d601f19601f8201168201806040525081019061066091906115ed565b90508b60ff166000036106765760329250600091505b8b60ff166001036106f05760008b600281518110610696576106966114ef565b60200260200101518060200190518101906106b1919061160a565b90506106c4662386f26fc100008261164f565b905062ffffff8111156106e95760405162461bcd60e51b81526004016101fe90611663565b9250600091505b8b60ff1660020361077857806107185760405162461bcd60e51b81526004016101fe906116af565b6032925060008b600281518110610731576107316114ef565b602002602001015180602001905181019061074c919061160a565b90506001600160a01b038111156107755760405162461bcd60e51b81526004016101fe9061170d565b91505b8b60ff1660030361086857806107a05760405162461bcd60e51b81526004016101fe906116af565b60008b6002815181106107b5576107b56114ef565b60200260200101518060200190518101906107d0919061160a565b90506107e3662386f26fc100008261164f565b905062ffffff8111156108085760405162461bcd60e51b81526004016101fe90611663565b80935060008c600381518110610820576108206114ef565b602002602001015180602001905181019061083b919061160a565b90506001600160a01b038111156108645760405162461bcd60e51b81526004016101fe9061170d565b9250505b6040516370a0823160e01b81526000906001600160a01b038716906370a0823190610897903090600401611270565b602060405180830381865afa1580156108b4573d6000803e3d6000fd5b505050506040513d601f19601f820116820180604052508101906108d8919061160a565b600054604051631968d16b60e21b81529192506001600160a01b0316906365a345ac9061090b9089908b90600401611759565b600060405180830381600087803b15801561092557600080fd5b505af1158015610939573d6000803e3d6000fd5b505050508681876001600160a01b03166370a08231306040518263ffffffff1660e01b815260040161096b9190611270565b602060405180830381865afa158015610988573d6000803e3d6000fd5b505050506040513d601f19601f820116820180604052508101906109ac919061160a565b6109b69190611772565b14610a015760405162461bcd60e51b815260206004820152601b60248201527a746f6b656e206973206e6f742073656e742066726f6d20636f726560281b60448201526064016101fe565b60015460405163095ea7b360e01b81526001600160a01b038881169263095ea7b392610a3592909116908b90600401611759565b6020604051808303816000875af1158015610a54573d6000803e3d6000fd5b505050506040513d601f19601f82011682018060405250810190610a7891906115ed565b610a945760405162461bcd60e51b81526004016101fe9061178b565b50600254604051636204891b60e11b815260206004820152600360248201526208aa8960eb1b60448201526000916001600160a01b03169063c409123690606401602060405180830381865afa158015610af2573d6000803e3d6000fd5b505050506040513d601f19601f82011682018060405250810190610b1691906114d2565b905081610d80576000604051806101000160405280886001600160a01b03168152602001836001600160a01b03168152602001610bb862ffffff168152602001306001600160a01b0316815260200142815260200189815260200160008152602001610b8489858989610e73565b6001600160a01b0390811690915260015460405163414bf38960e01b815292935060009291169063414bf38990610bbf9085906004016117d6565b6020604051808303816000875af1158015610bde573d6000803e3d6000fd5b505050506040513d601f19601f82011682018060405250810190610c02919061160a565b60015460405163095ea7b360e01b81529192506001600160a01b038086169263095ea7b392610c379216908590600401611759565b6020604051808303816000875af1158015610c56573d6000803e3d6000fd5b505050506040513d601f19601f82011682018060405250810190610c7a91906115ed565b610c965760405162461bcd60e51b81526004016101fe9061178b565b6000604051806101000160405280856001600160a01b03168152602001896001600160a01b03168152602001610bb862ffffff1681526020018f6001600160a01b0316815260200142815260200183815260200160008152602001610cfd868b8b8b610e73565b6001600160a01b0390811690915260015460405163414bf38960e01b8152929350169063414bf38990610d349084906004016117d6565b6020604051808303816000875af1158015610d53573d6000803e3d6000fd5b505050506040513d601f19601f82011682018060405250810190610d77919061160a565b50505050610e64565b6000604051806101000160405280886001600160a01b03168152602001876001600160a01b03168152602001610bb862ffffff1681526020018d6001600160a01b0316815260200142815260200189815260200160008152602001610de789898989610e73565b6001600160a01b0390811690915260015460405163414bf38960e01b8152929350169063414bf38990610e1e9084906004016117d6565b6020604051808303816000875af1158015610e3d573d6000803e3d6000fd5b505050506040513d601f19601f82011682018060405250810190610e61919061160a565b50505b50505050505050505050505050565b60006001600160a01b03808516868216109083168203610fa2576003546040516364bd1edf60e01b81526000916001600160a01b0316906364bd1edf90610ec4908a908a90610bb8906004016115c5565b602060405180830381865afa158015610ee1573d6000803e3d6000fd5b505050506040513d601f19601f82011682018060405250810190610f0591906115ed565b90508015610f9557600354604051635b91e0b960e11b81526000916001600160a01b03169063b723c17290610f44908b908b90610bb8906004016115c5565b60e060405180830381865afa158015610f61573d6000803e3d6000fd5b505050506040513d601f19601f82011682018060405250810190610f859190611851565b50949950610fa095505050505050565b600092505050611010565b505b6000612710610fb662ffffff8716866118ea565b610fc0919061191c565b610fca9085611942565b90506000612710610fe062ffffff8816876118ea565b610fea919061191c565b610ff49086611969565b90508215611006575091506110109050565b9250611010915050565b949350505050565b634e487b7160e01b600052604160045260246000fd5b604051601f8201601f191681016001600160401b038111828210171561105657611056611018565b604052919050565b6001600160a01b038116811461107357600080fd5b50565b80356110818161105e565b919050565b60006001600160401b0382111561109f5761109f611018565b50601f01601f191660200190565b60006110c06110bb84611086565b61102e565b90508281528383830111156110d457600080fd5b828260208301376000602084830101529392505050565b600082601f8301126110fc57600080fd5b61110b838335602085016110ad565b9392505050565b600060c0828403121561112457600080fd5b60405160c081016001600160401b03808211838310171561114757611147611018565b8160405282935084358352602085013560208401526040850135915061116c8261105e565b816040840152606085013591506111828261105e565b816060840152608085013591508082111561119c57600080fd5b506111a9858286016110eb565b60808301525060a083013560a08201525092915050565b801515811461107357600080fd5b8035611081816111c0565b600080604083850312156111ec57600080fd5b82356001600160401b0381111561120257600080fd5b61120e85828601611112565b925050602083013561121f816111c0565b809150509250929050565b6000806040838503121561123d57600080fd5b82356001600160401b0381111561125357600080fd5b61125f85828601611112565b925050602083013561121f8161105e565b6001600160a01b0391909116815260200190565b60006020828403121561129657600080fd5b81356001600160401b038111156112ac57600080fd5b61101084828501611112565b600080604083850312156112cb57600080fd5b50508035926020909101359150565b60005b838110156112f55781810151838201526020016112dd565b50506000910152565b602081526000825180602084015261131d8160408501602087016112da565b601f01601f19169190910160400192915050565b60ff8116811461107357600080fd5b60008060008060008060c0878903121561135957600080fd5b6113638735611331565b863595506020808801356001600160401b038082111561138257600080fd5b818a0191508a601f83011261139657600080fd5b8135818111156113a8576113a8611018565b8060051b6113b785820161102e565b918252838101850191858101908e8411156113d157600080fd5b86860192505b8383101561140b5784833511156113ed57600080fd5b6113fc8f8885358901016110eb565b825291860191908601906113d7565b809b505050505050505061142160408801611076565b935061142f606088016111ce565b925061143d60808801611076565b915060a087013590509295509295509295565b60006020828403121561146257600080fd5b81356001600160401b0381111561147857600080fd5b8201601f8101841361148957600080fd5b611010848235602084016110ad565b600181811c908216806114ac57607f821691505b6020821081036114cc57634e487b7160e01b600052602260045260246000fd5b50919050565b6000602082840312156114e457600080fd5b815161110b8161105e565b634e487b7160e01b600052603260045260246000fd5b600082601f83011261151657600080fd5b81516115246110bb82611086565b81815284602083860101111561153957600080fd5b6110108260208301602087016112da565b6000806040838503121561155d57600080fd5b825160208401519092506001600160401b0381111561157b57600080fd5b61158785828601611505565b9150509250929050565b6000602082840312156115a357600080fd5b81516001600160401b038111156115b957600080fd5b61101084828501611505565b6001600160a01b03938416815291909216602082015262ffffff909116604082015260600190565b6000602082840312156115ff57600080fd5b815161110b816111c0565b60006020828403121561161c57600080fd5b5051919050565b634e487b7160e01b600052601260045260246000fd5b634e487b7160e01b600052601160045260246000fd5b60008261165e5761165e611623565b500490565b6020808252602c908201527f736c697070616765506f696e747332353620617267756d656e74206f7665726660408201526b1b1bddc819195d1958dd195960a21b606082015260800190565b602080825260409082018190527f7371727450726963654c696d69745839362063616e206e6f7420626520736574908201527f20626563617573652074686520706f6f6c20646f6573206e6f74206578697374606082015260800190565b6020808252602c908201527f7371727450726963654c696d697458393620617267756d656e74206f7665726660408201526b1b1bddc819195d1958dd195960a21b606082015260800190565b6001600160a01b03929092168252602082015260400190565b8181038181111561178557611785611639565b92915050565b6020808252602b908201527f617070726f76652066726f6d2074686520657874656e73696f6e20746f20726f60408201526a1d5d195c8819985a5b195960aa1b606082015260800190565b81516001600160a01b03908116825260208084015182169083015260408084015162ffffff16908301526060808401518216908301526080808401519083015260a0838101519083015260c0808401519083015260e09283015116918101919091526101000190565b805161ffff8116811461108157600080fd5b600080600080600080600060e0888a03121561186c57600080fd5b87516118778161105e565b8097505060208801518060020b811461188f57600080fd5b955061189d6040890161183f565b94506118ab6060890161183f565b93506118b96080890161183f565b925060a08801516118c981611331565b60c08901519092506118da816111c0565b8091505092959891949750929550565b6001600160a01b0382811682821681810283169291811582850482141761191357611913611639565b50505092915050565b60006001600160a01b038381168061193657611936611623565b92169190910492915050565b6001600160a01b0382811682821603908082111561196257611962611639565b5092915050565b6001600160a01b038181168382160190808211156119625761196261163956fea26469706673582212205bc278c7e4638828f67a02d3461d86969d9aa83aafca36e09afb1cd153ea634b64736f6c6343000815003360a060405234801561001057600080fd5b5060405161056238038061056283398101604081905261002f91610040565b6001600160a01b0316608052610070565b60006020828403121561005257600080fd5b81516001600160a01b038116811461006957600080fd5b9392505050565b6080516104ca6100986000396000818160d70152818161012501526101c801526104ca6000f3fe608060405234801561001057600080fd5b50600436106100415760003560e01c806364bd1edf14610046578063b723c1721461006e578063c45a0155146100d2575b600080fd5b61005961005436600461033a565b610111565b60405190151581526020015b60405180910390f35b61008161007c36600461033a565b6101ba565b604080516001600160a01b03909816885260029690960b602088015261ffff94851695870195909552918316606086015291909116608084015260ff1660a0830152151560c082015260e001610065565b6100f97f000000000000000000000000000000000000000000000000000000000000000081565b6040516001600160a01b039091168152602001610065565b604051630b4c774160e11b815260009081907f00000000000000000000000000000000000000000000000000000000000000006001600160a01b031690631698ee82906101669088908890889060040161038d565b602060405180830381865afa158015610183573d6000803e3d6000fd5b505050506040513d601f19601f820116820180604052508101906101a791906103b5565b6001600160a01b03161415949350505050565b6000806000806000806000807f00000000000000000000000000000000000000000000000000000000000000006001600160a01b0316631698ee828c8c8c6040518463ffffffff1660e01b81526004016102169392919061038d565b602060405180830381865afa158015610233573d6000803e3d6000fd5b505050506040513d601f19601f8201168201806040525081019061025791906103b5565b90506001600160a01b0381166102a45760405162461bcd60e51b815260206004820152600e60248201526d141bdbdb081b9bdd08199bdd5b9960921b604482015260640160405180910390fd5b806001600160a01b0316633850c7bd6040518163ffffffff1660e01b815260040160e060405180830381865afa1580156102e2573d6000803e3d6000fd5b505050506040513d601f19601f8201168201806040525081019061030691906103f0565b9750975097509750975097509750509397509397509397909450565b6001600160a01b038116811461033757600080fd5b50565b60008060006060848603121561034f57600080fd5b833561035a81610322565b9250602084013561036a81610322565b9150604084013562ffffff8116811461038257600080fd5b809150509250925092565b6001600160a01b03938416815291909216602082015262ffffff909116604082015260600190565b6000602082840312156103c757600080fd5b81516103d281610322565b9392505050565b805161ffff811681146103eb57600080fd5b919050565b600080600080600080600060e0888a03121561040b57600080fd5b875161041681610322565b8097505060208801518060020b811461042e57600080fd5b955061043c604089016103d9565b945061044a606089016103d9565b9350610458608089016103d9565b925060a088015160ff8116811461046e57600080fd5b60c0890151909250801515811461048457600080fd5b809150509295989194975092955056fea2646970667358221220eb708e79b8f23a6e2332ace388d7576967fe4fc2cc13e2a1e73dad0305b7c39864736f6c63430008150033",
    "linkReferences": {}
  },
  "methodIdentifiers": {
    "addressOfNFTName(string)": "fd72aa30",
    "claimUnclaimedState((uint256,bytes32,address,address,bytes,uint256),address)": "8eb0930c",
    "core()": "f2f4eb26",
    "defaultSlippagePoints()": "10206c21",
    "execute(uint8,bytes[],address,bool,address,bytes32)": "e93977e8",
    "poolFee()": "089fe6aa",
    "poolFinder()": "e6d56780",
    "registerUnclaimedState((uint256,bytes32,address,address,bytes,uint256),bool)": "3ed4f16a",
    "router()": "f887ea40",
    "templates(uint256,uint256)": "d07e0189",
    "tokenRegistry()": "9d23c4c7",
    "voidUnclaimedState((uint256,bytes32,address,address,bytes,uint256))": "b91ad651"
  },
  "id": 124
}