{
  "abi": [
    {
      "inputs": [
        {
          "internalType": "address",
          "name": "coreAddr",
          "type": "address"
        },
        {
          "internalType": "address",
          "name": "_tokenReg",
          "type": "address"
        },
        {
          "internalType": "address",
          "name": "_router",
          "type": "address"
        },
        {
          "internalType": "address",
          "name": "_factory",
          "type": "address"
        }
      ],
      "stateMutability": "nonpayable",
      "type": "constructor"
    },
    {
      "inputs": [
        {
          "internalType": "string",
          "name": "",
          "type": "string"
        }
      ],
      "name": "addressOfNFTName",
      "outputs": [
        {
          "internalType": "address",
          "name": "",
          "type": "address"
        }
      ],
      "stateMutability": "view",
      "type": "function"
    },
    {
      "inputs": [
        {
          "components": [
            {
              "internalType": "uint256",
              "name": "id",
              "type": "uint256"
            },
            {
              "internalType": "bytes32",
              "name": "emailAddrCommit",
              "type": "bytes32"
            },
            {
              "internalType": "address",
              "name": "extensionAddr",
              "type": "address"
            },
            {
              "internalType": "address",
              "name": "sender",
              "type": "address"
            },
            {
              "internalType": "bytes",
              "name": "state",
              "type": "bytes"
            },
            {
              "internalType": "uint256",
              "name": "expiryTime",
              "type": "uint256"
            }
          ],
          "internalType": "struct UnclaimedState",
          "name": "unclaimedState",
          "type": "tuple"
        },
        {
          "internalType": "address",
          "name": "wallet",
          "type": "address"
        }
      ],
      "name": "claimUnclaimedState",
      "outputs": [],
      "stateMutability": "nonpayable",
      "type": "function"
    },
    {
      "inputs": [],
      "name": "core",
      "outputs": [
        {
          "internalType": "contract EmailWalletCore",
          "name": "",
          "type": "address"
        }
      ],
      "stateMutability": "view",
      "type": "function"
    },
    {
      "inputs": [],
      "name": "defaultSlippagePoints",
      "outputs": [
        {
          "internalType": "uint24",
          "name": "",
          "type": "uint24"
        }
      ],
      "stateMutability": "view",
      "type": "function"
    },
    {
      "inputs": [
        {
          "internalType": "uint8",
          "name": "templateIndex",
          "type": "uint8"
        },
        {
          "internalType": "bytes[]",
          "name": "subjectParams",
          "type": "bytes[]"
        },
        {
          "internalType": "address",
          "name": "wallet",
          "type": "address"
        },
        {
          "internalType": "bool",
          "name": "hasEmailRecipient",
          "type": "bool"
        },
        {
          "internalType": "address",
          "name": "recipientETHAddr",
          "type": "address"
        },
        {
          "internalType": "bytes32",
          "name": "emailNullifier",
          "type": "bytes32"
        }
      ],
      "name": "execute",
      "outputs": [],
      "stateMutability": "nonpayable",
      "type": "function"
    },
    {
      "inputs": [],
      "name": "poolFee",
      "outputs": [
        {
          "internalType": "uint24",
          "name": "",
          "type": "uint24"
        }
      ],
      "stateMutability": "view",
      "type": "function"
    },
    {
      "inputs": [],
      "name": "poolFinder",
      "outputs": [
        {
          "internalType": "contract PoolFinder",
          "name": "",
          "type": "address"
        }
      ],
      "stateMutability": "view",
      "type": "function"
    },
    {
      "inputs": [
        {
          "components": [
            {
              "internalType": "uint256",
              "name": "id",
              "type": "uint256"
            },
            {
              "internalType": "bytes32",
              "name": "emailAddrCommit",
              "type": "bytes32"
            },
            {
              "internalType": "address",
              "name": "extensionAddr",
              "type": "address"
            },
            {
              "internalType": "address",
              "name": "sender",
              "type": "address"
            },
            {
              "internalType": "bytes",
              "name": "state",
              "type": "bytes"
            },
            {
              "internalType": "uint256",
              "name": "expiryTime",
              "type": "uint256"
            }
          ],
          "internalType": "struct UnclaimedState",
          "name": "unclaimedState",
          "type": "tuple"
        },
        {
          "internalType": "bool",
          "name": "isInternal",
          "type": "bool"
        }
      ],
      "name": "registerUnclaimedState",
      "outputs": [],
      "stateMutability": "nonpayable",
      "type": "function"
    },
    {
      "inputs": [],
      "name": "router",
      "outputs": [
        {
          "internalType": "contract ISwapRouter",
          "name": "",
          "type": "address"
        }
      ],
      "stateMutability": "view",
      "type": "function"
    },
    {
      "inputs": [
        {
          "internalType": "uint256",
          "name": "",
          "type": "uint256"
        },
        {
          "internalType": "uint256",
          "name": "",
          "type": "uint256"
        }
      ],
      "name": "templates",
      "outputs": [
        {
          "internalType": "string",
          "name": "",
          "type": "string"
        }
      ],
      "stateMutability": "view",
      "type": "function"
    },
    {
      "inputs": [],
      "name": "tokenRegistry",
      "outputs": [
        {
          "internalType": "contract TokenRegistry",
          "name": "",
          "type": "address"
        }
      ],
      "stateMutability": "view",
      "type": "function"
    },
    {
      "inputs": [
        {
          "components": [
            {
              "internalType": "uint256",
              "name": "id",
              "type": "uint256"
            },
            {
              "internalType": "bytes32",
              "name": "emailAddrCommit",
              "type": "bytes32"
            },
            {
              "internalType": "address",
              "name": "extensionAddr",
              "type": "address"
            },
            {
              "internalType": "address",
              "name": "sender",
              "type": "address"
            },
            {
              "internalType": "bytes",
              "name": "state",
              "type": "bytes"
            },
            {
              "internalType": "uint256",
              "name": "expiryTime",
              "type": "uint256"
            }
          ],
          "internalType": "struct UnclaimedState",
          "name": "unclaimedState",
          "type": "tuple"
        }
      ],
      "name": "voidUnclaimedState",
      "outputs": [],
      "stateMutability": "nonpayable",
      "type": "function"
    }
  ],
  "bytecode": {
    "object": "0x600460808181526101206040529060a05b60608152602001906001900390816200001057505080516200003b9160059160209091019062000642565b503480156200004957600080fd5b5060405162002767380380620027678339810160408190526200006c9162000921565b600080546001600160a01b038087166001600160a01b0319928316178355600280548783169084161781556001805492871692909316919091179091556040805160c081018252600460808201908152630537761760e41b60a0830152815281518083018352600d81526c7b746f6b656e416d6f756e747d60981b602082810191909152808301919091528251808401845293845261746f60f01b8482015281830193909352815180830190925260088252677b737472696e677d60c01b92820192909252606082015260058054919290916200014d576200014d6200097e565b9060005260206000200190600462000167929190620006a6565b506040518060e00160405280604051806040016040528060048152602001630537761760e41b81525081526020016040518060400160405280600d81526020016c7b746f6b656e416d6f756e747d60981b815250815260200160405180604001604052806002815260200161746f60f01b8152508152602001604051806040016040528060088152602001677b737472696e677d60c01b8152508152602001604051806040016040528060048152602001630eed2e8d60e31b8152508152602001604051806040016040528060088152602001677b616d6f756e747d60c01b815250815260200160405180604001604052806008815260200167736c69707061676560c01b81525081525060056001815481106200028957620002896200097e565b90600052602060002001906007620002a3929190620006ff565b50604051806101200160405280604051806040016040528060048152602001630537761760e41b81525081526020016040518060400160405280600d81526020016c7b746f6b656e416d6f756e747d60981b815250815260200160405180604001604052806002815260200161746f60f01b8152508152602001604051806040016040528060088152602001677b737472696e677d60c01b8152508152602001604051806040016040528060058152602001643ab73232b960d91b8152508152602001604051806040016040528060068152602001657b75696e747d60d01b8152508152602001604051806040016040528060048152602001631cdc5c9d60e21b815250815260200160405180604001604052806005815260200164707269636560d81b8152508152602001604051806040016040528060058152602001641b1a5b5a5d60da1b81525081525060056002815481106200040757620004076200097e565b90600052602060002001906009620004219291906200074a565b50604080516101c08101825260046101808201818152630537761760e41b6101a0840152825282518084018452600d81526c7b746f6b656e416d6f756e747d60981b60208281019190915280840191909152835180850185526002815261746f60f01b8183015283850152835180850185526008808252677b737472696e677d60c01b82840152606085019190915284518086018652838152630eed2e8d60e31b81840152608085015284518086018652818152677b616d6f756e747d60c01b8184015260a08501528451808601865290815267736c69707061676560c01b8183015260c0840152835180850185526005808252643ab73232b960d91b8284015260e08501919091528451808601865260068152657b75696e747d60d01b8184015261010085015284518086018652928352631cdc5c9d60e21b838301526101208401929092528351808501855282815264707269636560d81b818301526101408401528351808501909452818452641b1a5b5a5d60da1b9084015261016082019290925281549091906003908110620005bf57620005bf6200097e565b9060005260206000200190600c620005d992919062000795565b5080604051620005e990620007e0565b6001600160a01b039091168152602001604051809103906000f08015801562000616573d6000803e3d6000fd5b50600380546001600160a01b0319166001600160a01b03929092169190911790555062000aef92505050565b82805482825590600052602060002090810192821562000694579160200282015b8281111562000694578251805162000683918491602090910190620007ee565b509160200191906001019062000663565b50620006a292915062000839565b5090565b828054828255906000526020600020908101928215620006f1579160200282015b82811115620006f15782518290620006e0908262000a23565b5091602001919060010190620006c7565b50620006a29291506200085a565b828054828255906000526020600020908101928215620006f1579160200282015b82811115620006f1578251829062000739908262000a23565b509160200191906001019062000720565b828054828255906000526020600020908101928215620006f1579160200282015b82811115620006f1578251829062000784908262000a23565b50916020019190600101906200076b565b828054828255906000526020600020908101928215620006f1579160200282015b82811115620006f15782518290620007cf908262000a23565b5091602001919060010190620007b6565b61046d80620022fa83390190565b828054828255906000526020600020908101928215620006f1579160200282015b82811115620006f1578251829062000828908262000a23565b50916020019190600101906200080f565b80821115620006a25760006200085082826200087b565b5060010162000839565b80821115620006a25760006200087182826200089e565b506001016200085a565b50805460008255906000526020600020908101906200089b91906200085a565b50565b508054620008ac9062000994565b6000825580601f10620008bd575050565b601f0160209004906000526020600020908101906200089b91905b80821115620006a25760008155600101620008d8565b634e487b7160e01b600052604160045260246000fd5b80516001600160a01b03811681146200091c57600080fd5b919050565b600080600080608085870312156200093857600080fd5b620009438562000904565b9350620009536020860162000904565b9250620009636040860162000904565b9150620009736060860162000904565b905092959194509250565b634e487b7160e01b600052603260045260246000fd5b600181811c90821680620009a957607f821691505b602082108103620009ca57634e487b7160e01b600052602260045260246000fd5b50919050565b601f82111562000a1e57600081815260208120601f850160051c81016020861015620009f95750805b601f850160051c820191505b8181101562000a1a5782815560010162000a05565b5050505b505050565b81516001600160401b0381111562000a3f5762000a3f620008ee565b62000a578162000a50845462000994565b84620009d0565b602080601f83116001811462000a8f576000841562000a765750858301515b600019600386901b1c1916600185901b17855562000a1a565b600085815260208120601f198616915b8281101562000ac05788860151825594840194600190910190840162000a9f565b508582101562000adf5787850151600019600388901b60f8161c191681555b5050505050600190811b01905550565b6117fb8062000aff6000396000f3fe608060405234801561001057600080fd5b50600436106100a45760003560e01c8063089fe6aa146100a957806310206c21146100cb5780633ed4f16a146100d35780638eb0930c146100e75780639d23c4c7146100fa578063b91ad6511461011a578063d07e018914610128578063e6d5678014610148578063e93977e81461015b578063f2f4eb261461016e578063f887ea4014610181578063fd72aa3014610194575b600080fd5b6100b2610bb881565b60405162ffffff90911681526020015b60405180910390f35b6100b2603281565b6100e56100e136600461109b565b5050565b005b6100e56100f53660046110ec565b6101c8565b60025461010d906001600160a01b031681565b6040516100c29190611132565b6100e56100f5366004611146565b61013b61013636600461117a565b610207565b6040516100c291906111c0565b60035461010d906001600160a01b031681565b6100e5610169366004611202565b6102cc565b60005461010d906001600160a01b031681565b60015461010d906001600160a01b031681565b61010d6101a2366004611312565b80516020818301810180516004825292820191909301209152546001600160a01b031681565b60405162461bcd60e51b815260206004820152600f60248201526e139bdd081a5b5c1b195b595b9d1959608a1b60448201526064015b60405180910390fd5b6005828154811061021757600080fd5b90600052602060002001818154811061022f57600080fd5b9060005260206000200160009150915050805461024b9061135a565b80601f01602080910402602001604051908101604052809291908181526020018280546102779061135a565b80156102c45780601f10610299576101008083540402835291602001916102c4565b820191906000526020600020905b8154815290600101906020018083116102a757829003601f168201915b505050505081565b6000546001600160a01b031633148061036a575060008054906101000a90046001600160a01b03166001600160a01b031663d5e5c1c86040518163ffffffff1660e01b8152600401602060405180830381865afa158015610331573d6000803e3d6000fd5b505050506040513d601f19601f820116820180604052508101906103559190611394565b6001600160a01b0316336001600160a01b0316145b6103a75760405162461bcd60e51b815260206004820152600e60248201526d34b73b30b634b21039b2b73232b960911b60448201526064016101fe565b60038660ff1611156103f35760405162461bcd60e51b81526020600482015260156024820152740d2dcecc2d8d2c840e8cadae0d8c2e8ca92dcc8caf605b1b60448201526064016101fe565b821561043e5760405162461bcd60e51b815260206004820152601a6024820152791c9958da5c1a595b9d081a5cc81b9bdd081cdd5c1c1bdc9d195960321b60448201526064016101fe565b60008086600081518110610454576104546113b1565b602002602001015180602001905181019061046f919061140c565b9150915060008060008060008b60018151811061048e5761048e6113b1565b60200260200101518060200190518101906104a99190611453565b600254604051636204891b60e11b81529192506001600160a01b03169063c4091236906104da9089906004016111c0565b602060405180830381865afa1580156104f7573d6000803e3d6000fd5b505050506040513d601f19601f8201168201806040525081019061051b9190611394565b600254604051636204891b60e11b81529196506001600160a01b03169063c40912369061054c9084906004016111c0565b602060405180830381865afa158015610569573d6000803e3d6000fd5b505050506040513d601f19601f8201168201806040525081019061058d9190611394565b93506001600160a01b0384166105de5760405162461bcd60e51b8152602060048201526016602482015275696e76616c6964206f757420746f6b656e206e616d6560501b60448201526064016101fe565b508b60ff166000036105f257506032905060005b8b60ff1660010361066c5760008b600281518110610612576106126113b1565b602002602001015180602001905181019061062d9190611487565b9050610640662386f26fc10000826114cc565b905062ffffff8111156106655760405162461bcd60e51b81526004016101fe906114e0565b9150600090505b8b60ff166002036106d7576032915060008b600281518110610690576106906113b1565b60200260200101518060200190518101906106ab9190611487565b90506001600160a01b038111156106d45760405162461bcd60e51b81526004016101fe9061152c565b90505b8b60ff166003036107aa5760008b6002815181106106f7576106f76113b1565b60200260200101518060200190518101906107129190611487565b9050610725662386f26fc10000826114cc565b905062ffffff81111561074a5760405162461bcd60e51b81526004016101fe906114e0565b80925060008c600381518110610762576107626113b1565b602002602001015180602001905181019061077d9190611487565b90506001600160a01b038111156107a65760405162461bcd60e51b81526004016101fe9061152c565b9150505b6040516370a0823160e01b81526000906001600160a01b038616906370a08231906107d9903090600401611132565b602060405180830381865afa1580156107f6573d6000803e3d6000fd5b505050506040513d601f19601f8201168201806040525081019061081a9190611487565b600054604051631968d16b60e21b81529192506001600160a01b0316906365a345ac9061084d9088908b90600401611578565b600060405180830381600087803b15801561086757600080fd5b505af115801561087b573d6000803e3d6000fd5b505050508681866001600160a01b03166370a08231306040518263ffffffff1660e01b81526004016108ad9190611132565b602060405180830381865afa1580156108ca573d6000803e3d6000fd5b505050506040513d601f19601f820116820180604052508101906108ee9190611487565b6108f89190611591565b146109435760405162461bcd60e51b815260206004820152601b60248201527a746f6b656e206973206e6f742073656e742066726f6d20636f726560281b60448201526064016101fe565b60015460405163095ea7b360e01b81526001600160a01b038781169263095ea7b39261097792909116908b90600401611578565b6020604051808303816000875af1158015610996573d6000803e3d6000fd5b505050506040513d601f19601f820116820180604052508101906109ba91906115aa565b6109d65760405162461bcd60e51b81526004016101fe906115c7565b50600254604051636204891b60e11b815260206004820152600360248201526208aa8960eb1b60448201526000916001600160a01b03169063c409123690606401602060405180830381865afa158015610a34573d6000803e3d6000fd5b505050506040513d601f19601f82011682018060405250810190610a589190611394565b9050806001600160a01b0316856001600160a01b031614158015610a8e5750806001600160a01b0316846001600160a01b031614155b15610cc85760408051610100810182526001600160a01b0380881682528381166020830152610bb88284015230606083015242608083015260a082018a9052600060c0830181905260e08301819052600154935163414bf38960e01b81529293909291169063414bf38990610b07908590600401611612565b6020604051808303816000875af1158015610b26573d6000803e3d6000fd5b505050506040513d601f19601f82011682018060405250810190610b4a9190611487565b60015460405163095ea7b360e01b81529192506001600160a01b038086169263095ea7b392610b7f9216908590600401611578565b6020604051808303816000875af1158015610b9e573d6000803e3d6000fd5b505050506040513d601f19601f82011682018060405250810190610bc291906115aa565b610bde5760405162461bcd60e51b81526004016101fe906115c7565b6000604051806101000160405280856001600160a01b03168152602001886001600160a01b03168152602001610bb862ffffff1681526020018f6001600160a01b0316815260200142815260200183815260200160008152602001610c45868a8a8a610dbb565b6001600160a01b0390811690915260015460405163414bf38960e01b8152929350169063414bf38990610c7c908490600401611612565b6020604051808303816000875af1158015610c9b573d6000803e3d6000fd5b505050506040513d601f19601f82011682018060405250810190610cbf9190611487565b50505050610dac565b6000604051806101000160405280876001600160a01b03168152602001866001600160a01b03168152602001610bb862ffffff1681526020018d6001600160a01b0316815260200142815260200189815260200160008152602001610d2f88888888610dbb565b6001600160a01b0390811690915260015460405163414bf38960e01b8152929350169063414bf38990610d66908490600401611612565b6020604051808303816000875af1158015610d85573d6000803e3d6000fd5b505050506040513d601f19601f82011682018060405250810190610da99190611487565b50505b50505050505050505050505050565b600354604051635b91e0b960e11b81526001600160a01b038681166004830181905286821660248401819052610bb8604485015260009491109284929091169063b723c1729060640160e060405180830381865afa158015610e21573d6000803e3d6000fd5b505050506040513d601f19601f82011682018060405250810190610e45919061168d565b5050505050509050836001600160a01b0316600003610e62578093505b6000612710610e7662ffffff881687611726565b610e809190611758565b610e8a908661177e565b90506000612710610ea062ffffff891688611726565b610eaa9190611758565b610eb490876117a5565b90508315610ec757509250610ed2915050565b9350610ed292505050565b949350505050565b634e487b7160e01b600052604160045260246000fd5b604051601f8201601f191681016001600160401b0381118282101715610f1857610f18610eda565b604052919050565b6001600160a01b0381168114610f3557600080fd5b50565b8035610f4381610f20565b919050565b60006001600160401b03821115610f6157610f61610eda565b50601f01601f191660200190565b6000610f82610f7d84610f48565b610ef0565b9050828152838383011115610f9657600080fd5b828260208301376000602084830101529392505050565b600082601f830112610fbe57600080fd5b610fcd83833560208501610f6f565b9392505050565b600060c08284031215610fe657600080fd5b60405160c081016001600160401b03808211838310171561100957611009610eda565b8160405282935084358352602085013560208401526040850135915061102e82610f20565b8160408401526060850135915061104482610f20565b816060840152608085013591508082111561105e57600080fd5b5061106b85828601610fad565b60808301525060a083013560a08201525092915050565b8015158114610f3557600080fd5b8035610f4381611082565b600080604083850312156110ae57600080fd5b82356001600160401b038111156110c457600080fd5b6110d085828601610fd4565b92505060208301356110e181611082565b809150509250929050565b600080604083850312156110ff57600080fd5b82356001600160401b0381111561111557600080fd5b61112185828601610fd4565b92505060208301356110e181610f20565b6001600160a01b0391909116815260200190565b60006020828403121561115857600080fd5b81356001600160401b0381111561116e57600080fd5b610ed284828501610fd4565b6000806040838503121561118d57600080fd5b50508035926020909101359150565b60005b838110156111b757818101518382015260200161119f565b50506000910152565b60208152600082518060208401526111df81604085016020870161119c565b601f01601f19169190910160400192915050565b60ff81168114610f3557600080fd5b60008060008060008060c0878903121561121b57600080fd5b61122587356111f3565b863595506020808801356001600160401b038082111561124457600080fd5b818a0191508a601f83011261125857600080fd5b81358181111561126a5761126a610eda565b8060051b611279858201610ef0565b918252838101850191858101908e84111561129357600080fd5b86860192505b838310156112cd5784833511156112af57600080fd5b6112be8f888535890101610fad565b82529186019190860190611299565b809b50505050505050506112e360408801610f38565b93506112f160608801611090565b92506112ff60808801610f38565b915060a087013590509295509295509295565b60006020828403121561132457600080fd5b81356001600160401b0381111561133a57600080fd5b8201601f8101841361134b57600080fd5b610ed284823560208401610f6f565b600181811c9082168061136e57607f821691505b60208210810361138e57634e487b7160e01b600052602260045260246000fd5b50919050565b6000602082840312156113a657600080fd5b8151610fcd81610f20565b634e487b7160e01b600052603260045260246000fd5b600082601f8301126113d857600080fd5b81516113e6610f7d82610f48565b8181528460208386010111156113fb57600080fd5b610ed282602083016020870161119c565b6000806040838503121561141f57600080fd5b825160208401519092506001600160401b0381111561143d57600080fd5b611449858286016113c7565b9150509250929050565b60006020828403121561146557600080fd5b81516001600160401b0381111561147b57600080fd5b610ed2848285016113c7565b60006020828403121561149957600080fd5b5051919050565b634e487b7160e01b600052601260045260246000fd5b634e487b7160e01b600052601160045260246000fd5b6000826114db576114db6114a0565b500490565b6020808252602c908201527f736c697070616765506f696e747332353620617267756d656e74206f7665726660408201526b1b1bddc819195d1958dd195960a21b606082015260800190565b6020808252602c908201527f7371727450726963654c696d697458393620617267756d656e74206f7665726660408201526b1b1bddc819195d1958dd195960a21b606082015260800190565b6001600160a01b03929092168252602082015260400190565b818103818111156115a4576115a46114b6565b92915050565b6000602082840312156115bc57600080fd5b8151610fcd81611082565b6020808252602b908201527f617070726f76652066726f6d2074686520657874656e73696f6e20746f20726f60408201526a1d5d195c8819985a5b195960aa1b606082015260800190565b81516001600160a01b03908116825260208084015182169083015260408084015162ffffff16908301526060808401518216908301526080808401519083015260a0838101519083015260c0808401519083015260e09283015116918101919091526101000190565b805161ffff81168114610f4357600080fd5b600080600080600080600060e0888a0312156116a857600080fd5b87516116b381610f20565b8097505060208801518060020b81146116cb57600080fd5b95506116d96040890161167b565b94506116e76060890161167b565b93506116f56080890161167b565b925060a0880151611705816111f3565b60c089015190925061171681611082565b8091505092959891949750929550565b6001600160a01b0382811682821681810283169291811582850482141761174f5761174f6114b6565b50505092915050565b60006001600160a01b0383811680611772576117726114a0565b92169190910492915050565b6001600160a01b0382811682821603908082111561179e5761179e6114b6565b5092915050565b6001600160a01b0381811683821601908082111561179e5761179e6114b656fea26469706673582212208c50002d2c28d96896cb557d5bfceecdb234d665506fe25a2595b94c408a585964736f6c6343000815003360a060405234801561001057600080fd5b5060405161046d38038061046d83398101604081905261002f91610040565b6001600160a01b0316608052610070565b60006020828403121561005257600080fd5b81516001600160a01b038116811461006957600080fd5b9392505050565b6080516103dc6100916000396000818160a9015261012601526103dc6000f3fe608060405234801561001057600080fd5b50600436106100365760003560e01c8063b723c1721461003b578063c45a0155146100a4575b600080fd5b61004e610049366004610274565b6100e3565b604080516001600160a01b03909816885260029690960b602088015261ffff94851695870195909552918316606086015291909116608084015260ff1660a0830152151560c082015260e0015b60405180910390f35b6100cb7f000000000000000000000000000000000000000000000000000000000000000081565b6040516001600160a01b03909116815260200161009b565b604051630b4c774160e11b81526001600160a01b038481166004830152838116602483015262ffffff8316604483015260009182918291829182918291829182917f00000000000000000000000000000000000000000000000000000000000000001690631698ee8290606401602060405180830381865afa15801561016d573d6000803e3d6000fd5b505050506040513d601f19601f8201168201806040525081019061019191906102c7565b90506001600160a01b0381166101de5760405162461bcd60e51b815260206004820152600e60248201526d141bdbdb081b9bdd08199bdd5b9960921b604482015260640160405180910390fd5b806001600160a01b0316633850c7bd6040518163ffffffff1660e01b815260040160e060405180830381865afa15801561021c573d6000803e3d6000fd5b505050506040513d601f19601f820116820180604052508101906102409190610302565b9750975097509750975097509750509397509397509397909450565b6001600160a01b038116811461027157600080fd5b50565b60008060006060848603121561028957600080fd5b83356102948161025c565b925060208401356102a48161025c565b9150604084013562ffffff811681146102bc57600080fd5b809150509250925092565b6000602082840312156102d957600080fd5b81516102e48161025c565b9392505050565b805161ffff811681146102fd57600080fd5b919050565b600080600080600080600060e0888a03121561031d57600080fd5b87516103288161025c565b8097505060208801518060020b811461034057600080fd5b955061034e604089016102eb565b945061035c606089016102eb565b935061036a608089016102eb565b925060a088015160ff8116811461038057600080fd5b60c0890151909250801515811461039657600080fd5b809150509295989194975092955056fea26469706673582212204fe286316d4cc8f889bc9e89f31f9811c386ff2aae3e5704e5eb1eba60e3af7c64736f6c63430008150033",
    "linkReferences": {}
  },
  "methodIdentifiers": {
    "addressOfNFTName(string)": "fd72aa30",
    "claimUnclaimedState((uint256,bytes32,address,address,bytes,uint256),address)": "8eb0930c",
    "core()": "f2f4eb26",
    "defaultSlippagePoints()": "10206c21",
    "execute(uint8,bytes[],address,bool,address,bytes32)": "e93977e8",
    "poolFee()": "089fe6aa",
    "poolFinder()": "e6d56780",
    "registerUnclaimedState((uint256,bytes32,address,address,bytes,uint256),bool)": "3ed4f16a",
    "router()": "f887ea40",
    "templates(uint256,uint256)": "d07e0189",
    "tokenRegistry()": "9d23c4c7",
    "voidUnclaimedState((uint256,bytes32,address,address,bytes,uint256))": "b91ad651"
  },
  "id": 128
}