{
  "abi": [
    {
      "inputs": [
        {
          "internalType": "address",
          "name": "coreAddr",
          "type": "address"
        },
        {
          "internalType": "address",
          "name": "_tokenReg",
          "type": "address"
        },
        {
          "internalType": "address",
          "name": "_router",
          "type": "address"
        },
        {
          "internalType": "address",
          "name": "_factory",
          "type": "address"
        }
      ],
      "stateMutability": "nonpayable",
      "type": "constructor"
    },
    {
      "inputs": [
        {
          "internalType": "string",
          "name": "",
          "type": "string"
        }
      ],
      "name": "addressOfNFTName",
      "outputs": [
        {
          "internalType": "address",
          "name": "",
          "type": "address"
        }
      ],
      "stateMutability": "view",
      "type": "function"
    },
    {
      "inputs": [
        {
          "components": [
            {
              "internalType": "uint256",
              "name": "id",
              "type": "uint256"
            },
            {
              "internalType": "bytes32",
              "name": "emailAddrCommit",
              "type": "bytes32"
            },
            {
              "internalType": "address",
              "name": "extensionAddr",
              "type": "address"
            },
            {
              "internalType": "address",
              "name": "sender",
              "type": "address"
            },
            {
              "internalType": "bytes",
              "name": "state",
              "type": "bytes"
            },
            {
              "internalType": "uint256",
              "name": "expiryTime",
              "type": "uint256"
            }
          ],
          "internalType": "struct UnclaimedState",
          "name": "unclaimedState",
          "type": "tuple"
        },
        {
          "internalType": "address",
          "name": "wallet",
          "type": "address"
        }
      ],
      "name": "claimUnclaimedState",
      "outputs": [],
      "stateMutability": "nonpayable",
      "type": "function"
    },
    {
      "inputs": [],
      "name": "core",
      "outputs": [
        {
          "internalType": "contract EmailWalletCore",
          "name": "",
          "type": "address"
        }
      ],
      "stateMutability": "view",
      "type": "function"
    },
    {
      "inputs": [
        {
          "internalType": "uint8",
          "name": "templateIndex",
          "type": "uint8"
        },
        {
          "internalType": "bytes[]",
          "name": "subjectParams",
          "type": "bytes[]"
        },
        {
          "internalType": "address",
          "name": "wallet",
          "type": "address"
        },
        {
          "internalType": "bool",
          "name": "hasEmailRecipient",
          "type": "bool"
        },
        {
          "internalType": "address",
          "name": "recipientETHAddr",
          "type": "address"
        },
        {
          "internalType": "bytes32",
          "name": "emailNullifier",
          "type": "bytes32"
        }
      ],
      "name": "execute",
      "outputs": [],
      "stateMutability": "nonpayable",
      "type": "function"
    },
    {
      "inputs": [],
      "name": "poolFee",
      "outputs": [
        {
          "internalType": "uint24",
          "name": "",
          "type": "uint24"
        }
      ],
      "stateMutability": "view",
      "type": "function"
    },
    {
      "inputs": [],
      "name": "poolFinder",
      "outputs": [
        {
          "internalType": "contract PoolFinder",
          "name": "",
          "type": "address"
        }
      ],
      "stateMutability": "view",
      "type": "function"
    },
    {
      "inputs": [
        {
          "components": [
            {
              "internalType": "uint256",
              "name": "id",
              "type": "uint256"
            },
            {
              "internalType": "bytes32",
              "name": "emailAddrCommit",
              "type": "bytes32"
            },
            {
              "internalType": "address",
              "name": "extensionAddr",
              "type": "address"
            },
            {
              "internalType": "address",
              "name": "sender",
              "type": "address"
            },
            {
              "internalType": "bytes",
              "name": "state",
              "type": "bytes"
            },
            {
              "internalType": "uint256",
              "name": "expiryTime",
              "type": "uint256"
            }
          ],
          "internalType": "struct UnclaimedState",
          "name": "unclaimedState",
          "type": "tuple"
        },
        {
          "internalType": "bool",
          "name": "isInternal",
          "type": "bool"
        }
      ],
      "name": "registerUnclaimedState",
      "outputs": [],
      "stateMutability": "nonpayable",
      "type": "function"
    },
    {
      "inputs": [],
      "name": "router",
      "outputs": [
        {
          "internalType": "contract ISwapRouter",
          "name": "",
          "type": "address"
        }
      ],
      "stateMutability": "view",
      "type": "function"
    },
    {
      "inputs": [],
      "name": "slippageBasisPoints",
      "outputs": [
        {
          "internalType": "uint24",
          "name": "",
          "type": "uint24"
        }
      ],
      "stateMutability": "view",
      "type": "function"
    },
    {
      "inputs": [
        {
          "internalType": "uint256",
          "name": "",
          "type": "uint256"
        },
        {
          "internalType": "uint256",
          "name": "",
          "type": "uint256"
        }
      ],
      "name": "templates",
      "outputs": [
        {
          "internalType": "string",
          "name": "",
          "type": "string"
        }
      ],
      "stateMutability": "view",
      "type": "function"
    },
    {
      "inputs": [],
      "name": "tokenRegistry",
      "outputs": [
        {
          "internalType": "contract TokenRegistry",
          "name": "",
          "type": "address"
        }
      ],
      "stateMutability": "view",
      "type": "function"
    },
    {
      "inputs": [
        {
          "components": [
            {
              "internalType": "uint256",
              "name": "id",
              "type": "uint256"
            },
            {
              "internalType": "bytes32",
              "name": "emailAddrCommit",
              "type": "bytes32"
            },
            {
              "internalType": "address",
              "name": "extensionAddr",
              "type": "address"
            },
            {
              "internalType": "address",
              "name": "sender",
              "type": "address"
            },
            {
              "internalType": "bytes",
              "name": "state",
              "type": "bytes"
            },
            {
              "internalType": "uint256",
              "name": "expiryTime",
              "type": "uint256"
            }
          ],
          "internalType": "struct UnclaimedState",
          "name": "unclaimedState",
          "type": "tuple"
        }
      ],
      "name": "voidUnclaimedState",
      "outputs": [],
      "stateMutability": "nonpayable",
      "type": "function"
    }
  ],
  "bytecode": {
    "object": "0x6002608081815260e06040529060a05b60608152602001906001900390816200000f57505080516200003a9160059160209091019062000312565b503480156200004857600080fd5b50604051620020d3380380620020d38339810160408190526200006b916200055b565b600080546001600160a01b038087166001600160a01b0319928316178355600280548783169084161781556001805492871692909316919091179091556040805160c081018252600460808201908152630537761760e41b60a0830152815281518083018352600d81526c7b746f6b656e416d6f756e747d60981b602082810191909152808301919091528251808401845293845261746f60f01b8482015281830193909352815180830190925260088252677b737472696e677d60c01b92820192909252606082015260058054919290916200014c576200014c620005b8565b906000526020600020019060046200016692919062000376565b506040518060e00160405280604051806040016040528060048152602001630537761760e41b81525081526020016040518060400160405280600d81526020016c7b746f6b656e416d6f756e747d60981b815250815260200160405180604001604052806002815260200161746f60f01b8152508152602001604051806040016040528060088152602001677b737472696e677d60c01b8152508152602001604051806040016040528060058152602001643ab73232b960d91b8152508152602001604051806040016040528060068152602001657b75696e747d60d01b81525081526020016040518060400160405280601081526020016f1cdc5c9d081c1c9a58d9481b1a5b5a5d60821b81525081525060056001815481106200028f576200028f620005b8565b90600052602060002001906007620002a9929190620003cf565b5080604051620002b9906200041a565b6001600160a01b039091168152602001604051809103906000f080158015620002e6573d6000803e3d6000fd5b50600380546001600160a01b0319166001600160a01b0392909216919091179055506200072992505050565b82805482825590600052602060002090810192821562000364579160200282015b828111156200036457825180516200035391849160209091019062000428565b509160200191906001019062000333565b506200037292915062000473565b5090565b828054828255906000526020600020908101928215620003c1579160200282015b82811115620003c15782518290620003b090826200065d565b509160200191906001019062000397565b506200037292915062000494565b828054828255906000526020600020908101928215620003c1579160200282015b82811115620003c157825182906200040990826200065d565b5091602001919060010190620003f0565b6102dd8062001df683390190565b828054828255906000526020600020908101928215620003c1579160200282015b82811115620003c157825182906200046290826200065d565b509160200191906001019062000449565b80821115620003725760006200048a8282620004b5565b5060010162000473565b8082111562000372576000620004ab8282620004d8565b5060010162000494565b5080546000825590600052602060002090810190620004d5919062000494565b50565b508054620004e690620005ce565b6000825580601f10620004f7575050565b601f016020900490600052602060002090810190620004d591905b8082111562000372576000815560010162000512565b634e487b7160e01b600052604160045260246000fd5b80516001600160a01b03811681146200055657600080fd5b919050565b600080600080608085870312156200057257600080fd5b6200057d856200053e565b93506200058d602086016200053e565b92506200059d604086016200053e565b9150620005ad606086016200053e565b905092959194509250565b634e487b7160e01b600052603260045260246000fd5b600181811c90821680620005e357607f821691505b6020821081036200060457634e487b7160e01b600052602260045260246000fd5b50919050565b601f8211156200065857600081815260208120601f850160051c81016020861015620006335750805b601f850160051c820191505b8181101562000654578281556001016200063f565b5050505b505050565b81516001600160401b0381111562000679576200067962000528565b62000691816200068a8454620005ce565b846200060a565b602080601f831160018114620006c95760008415620006b05750858301515b600019600386901b1c1916600185901b17855562000654565b600085815260208120601f198616915b82811015620006fa57888601518255948401946001909101908401620006d9565b5085821015620007195787850151600019600388901b60f8161c191681555b5050505050600190811b01905550565b6116bd80620007396000396000f3fe608060405234801561001057600080fd5b50600436106100a45760003560e01c8063089fe6aa146100a95780633ed4f16a146100cb57806352ef1da9146100df5780638eb0930c146100e75780639d23c4c7146100fa578063b91ad6511461011a578063d07e018914610128578063e6d5678014610148578063e93977e81461015b578063f2f4eb261461016e578063f887ea4014610181578063fd72aa3014610194575b600080fd5b6100b2610bb881565b60405162ffffff90911681526020015b60405180910390f35b6100dd6100d9366004611009565b5050565b005b6100b2603281565b6100dd6100f536600461105a565b6101c8565b60025461010d906001600160a01b031681565b6040516100c291906110a0565b6100dd6100f53660046110b4565b61013b6101363660046110f0565b610207565b6040516100c29190611136565b60035461010d906001600160a01b031681565b6100dd610169366004611178565b6102cc565b60005461010d906001600160a01b031681565b60015461010d906001600160a01b031681565b61010d6101a2366004611288565b80516020818301810180516004825292820191909301209152546001600160a01b031681565b60405162461bcd60e51b815260206004820152600f60248201526e139bdd081a5b5c1b195b595b9d1959608a1b60448201526064015b60405180910390fd5b6005828154811061021757600080fd5b90600052602060002001818154811061022f57600080fd5b9060005260206000200160009150915050805461024b906112d0565b80601f0160208091040260200160405190810160405280929190818152602001828054610277906112d0565b80156102c45780601f10610299576101008083540402835291602001916102c4565b820191906000526020600020905b8154815290600101906020018083116102a757829003601f168201915b505050505081565b6000546001600160a01b031633148061036a575060008054906101000a90046001600160a01b03166001600160a01b031663d5e5c1c86040518163ffffffff1660e01b8152600401602060405180830381865afa158015610331573d6000803e3d6000fd5b505050506040513d601f19601f82011682018060405250810190610355919061130a565b6001600160a01b0316336001600160a01b0316145b6103a75760405162461bcd60e51b815260206004820152600e60248201526d34b73b30b634b21039b2b73232b960911b60448201526064016101fe565b60018660ff1611156103f35760405162461bcd60e51b81526020600482015260156024820152740d2dcecc2d8d2c840e8cadae0d8c2e8ca92dcc8caf605b1b60448201526064016101fe565b821561043e5760405162461bcd60e51b815260206004820152601a6024820152791c9958da5c1a595b9d081a5cc81b9bdd081cdd5c1c1bdc9d195960321b60448201526064016101fe565b6000808660008151811061045457610454611327565b602002602001015180602001905181019061046f9190611382565b915091506000808860018151811061048957610489611327565b60200260200101518060200190518101906104a491906113c9565b90508960ff166000036104ba576000915061055b565b6000896002815181106104cf576104cf611327565b60200260200101518060200190518101906104ea91906113fd565b90506001600160a01b038111156105585760405162461bcd60e51b815260206004820152602c60248201527f7371727450726963654c696d697458393620617267756d656e74206f7665726660448201526b1b1bddc819195d1958dd195960a21b60648201526084016101fe565b91505b600254604051636204891b60e11b81526000916001600160a01b03169063c40912369061058c908790600401611136565b602060405180830381865afa1580156105a9573d6000803e3d6000fd5b505050506040513d601f19601f820116820180604052508101906105cd919061130a565b600254604051636204891b60e11b81529192506000916001600160a01b039091169063c409123690610603908690600401611136565b602060405180830381865afa158015610620573d6000803e3d6000fd5b505050506040513d601f19601f82011682018060405250810190610644919061130a565b90506001600160a01b0381166106955760405162461bcd60e51b8152602060048201526016602482015275696e76616c6964206f757420746f6b656e206e616d6560501b60448201526064016101fe565b6040516370a0823160e01b81526000906001600160a01b038416906370a08231906106c49030906004016110a0565b602060405180830381865afa1580156106e1573d6000803e3d6000fd5b505050506040513d601f19601f8201168201806040525081019061070591906113fd565b600054604051631968d16b60e21b81529192506001600160a01b0316906365a345ac906107389086908b90600401611416565b600060405180830381600087803b15801561075257600080fd5b505af1158015610766573d6000803e3d6000fd5b505050508681846001600160a01b03166370a08231306040518263ffffffff1660e01b815260040161079891906110a0565b602060405180830381865afa1580156107b5573d6000803e3d6000fd5b505050506040513d601f19601f820116820180604052508101906107d991906113fd565b6107e39190611445565b1461082e5760405162461bcd60e51b815260206004820152601b60248201527a746f6b656e206973206e6f742073656e742066726f6d20636f726560281b60448201526064016101fe565b60015460405163095ea7b360e01b81526001600160a01b038581169263095ea7b39261086292909116908b90600401611416565b6020604051808303816000875af1158015610881573d6000803e3d6000fd5b505050506040513d601f19601f820116820180604052508101906108a5919061145e565b6108c15760405162461bcd60e51b81526004016101fe9061147b565b50600254604051636204891b60e11b815260206004820152600360248201526208aa8960eb1b60448201526000916001600160a01b03169063c409123690606401602060405180830381865afa15801561091f573d6000803e3d6000fd5b505050506040513d601f19601f82011682018060405250810190610943919061130a565b9050806001600160a01b0316836001600160a01b0316141580156109795750806001600160a01b0316826001600160a01b031614155b15610bdf576000604051806101000160405280856001600160a01b03168152602001836001600160a01b03168152602001610bb862ffffff168152602001306001600160a01b03168152602001428152602001898152602001600081526020016109e486858a610cd1565b6001600160a01b0390811690915260015460405163414bf38960e01b815292935060009291169063414bf38990610a1f9085906004016114c6565b6020604051808303816000875af1158015610a3e573d6000803e3d6000fd5b505050506040513d601f19601f82011682018060405250810190610a6291906113fd565b60015460405163095ea7b360e01b81529192506001600160a01b038086169263095ea7b392610a979216908590600401611416565b6020604051808303816000875af1158015610ab6573d6000803e3d6000fd5b505050506040513d601f19601f82011682018060405250810190610ada919061145e565b610af65760405162461bcd60e51b81526004016101fe9061147b565b6000604051806101000160405280856001600160a01b03168152602001866001600160a01b03168152602001610bb862ffffff1681526020018f6001600160a01b0316815260200142815260200183815260200160008152602001610b5c86888c610cd1565b6001600160a01b0390811690915260015460405163414bf38960e01b8152929350169063414bf38990610b939084906004016114c6565b6020604051808303816000875af1158015610bb2573d6000803e3d6000fd5b505050506040513d601f19601f82011682018060405250810190610bd691906113fd565b50505050610cc2565b6000604051806101000160405280856001600160a01b03168152602001846001600160a01b03168152602001610bb862ffffff1681526020018d6001600160a01b0316815260200142815260200189815260200160008152602001610c4586868a610cd1565b6001600160a01b0390811690915260015460405163414bf38960e01b8152929350169063414bf38990610c7c9084906004016114c6565b6020604051808303816000875af1158015610c9b573d6000803e3d6000fd5b505050506040513d601f19601f82011682018060405250810190610cbf91906113fd565b50505b50505050505050505050505050565b600354604051630b4c774160e11b81526001600160a01b038581166004830181905285821660248401819052610bb86044850152600094911092849290911690631698ee8290606401602060405180830381865afa158015610d37573d6000803e3d6000fd5b505050506040513d601f19601f82011682018060405250810190610d5b919061130a565b90506000816001600160a01b0316633850c7bd6040518163ffffffff1660e01b815260040160e060405180830381865afa158015610d9d573d6000803e3d6000fd5b505050506040513d601f19601f82011682018060405250810190610dc19190611541565b5050505050509050846001600160a01b0316600003610dde578094505b6000612710610dee6032886115da565b610df8919061160c565b610e029087611640565b90506000612710610e146032896115da565b610e1e919061160c565b610e289088611667565b90508415610e3c57509350610e4892505050565b9450610e489350505050565b9392505050565b634e487b7160e01b600052604160045260246000fd5b604051601f8201601f191681016001600160401b0381118282101715610e8d57610e8d610e4f565b604052919050565b6001600160a01b0381168114610eaa57600080fd5b50565b8035610eb881610e95565b919050565b60006001600160401b03821115610ed657610ed6610e4f565b50601f01601f191660200190565b6000610ef7610ef284610ebd565b610e65565b9050828152838383011115610f0b57600080fd5b828260208301376000602084830101529392505050565b600082601f830112610f3357600080fd5b610e4883833560208501610ee4565b600060c08284031215610f5457600080fd5b60405160c081016001600160401b038082118383101715610f7757610f77610e4f565b81604052829350843583526020850135602084015260408501359150610f9c82610e95565b81604084015260608501359150610fb282610e95565b8160608401526080850135915080821115610fcc57600080fd5b50610fd985828601610f22565b60808301525060a083013560a08201525092915050565b8015158114610eaa57600080fd5b8035610eb881610ff0565b6000806040838503121561101c57600080fd5b82356001600160401b0381111561103257600080fd5b61103e85828601610f42565b925050602083013561104f81610ff0565b809150509250929050565b6000806040838503121561106d57600080fd5b82356001600160401b0381111561108357600080fd5b61108f85828601610f42565b925050602083013561104f81610e95565b6001600160a01b0391909116815260200190565b6000602082840312156110c657600080fd5b81356001600160401b038111156110dc57600080fd5b6110e884828501610f42565b949350505050565b6000806040838503121561110357600080fd5b50508035926020909101359150565b60005b8381101561112d578181015183820152602001611115565b50506000910152565b6020815260008251806020840152611155816040850160208701611112565b601f01601f19169190910160400192915050565b60ff81168114610eaa57600080fd5b60008060008060008060c0878903121561119157600080fd5b61119b8735611169565b863595506020808801356001600160401b03808211156111ba57600080fd5b818a0191508a601f8301126111ce57600080fd5b8135818111156111e0576111e0610e4f565b8060051b6111ef858201610e65565b918252838101850191858101908e84111561120957600080fd5b86860192505b8383101561124357848335111561122557600080fd5b6112348f888535890101610f22565b8252918601919086019061120f565b809b505050505050505061125960408801610ead565b935061126760608801610ffe565b925061127560808801610ead565b915060a087013590509295509295509295565b60006020828403121561129a57600080fd5b81356001600160401b038111156112b057600080fd5b8201601f810184136112c157600080fd5b6110e884823560208401610ee4565b600181811c908216806112e457607f821691505b60208210810361130457634e487b7160e01b600052602260045260246000fd5b50919050565b60006020828403121561131c57600080fd5b8151610e4881610e95565b634e487b7160e01b600052603260045260246000fd5b600082601f83011261134e57600080fd5b815161135c610ef282610ebd565b81815284602083860101111561137157600080fd5b6110e8826020830160208701611112565b6000806040838503121561139557600080fd5b825160208401519092506001600160401b038111156113b357600080fd5b6113bf8582860161133d565b9150509250929050565b6000602082840312156113db57600080fd5b81516001600160401b038111156113f157600080fd5b6110e88482850161133d565b60006020828403121561140f57600080fd5b5051919050565b6001600160a01b03929092168252602082015260400190565b634e487b7160e01b600052601160045260246000fd5b818103818111156114585761145861142f565b92915050565b60006020828403121561147057600080fd5b8151610e4881610ff0565b6020808252602b908201527f617070726f76652066726f6d2074686520657874656e73696f6e20746f20726f60408201526a1d5d195c8819985a5b195960aa1b606082015260800190565b81516001600160a01b03908116825260208084015182169083015260408084015162ffffff16908301526060808401518216908301526080808401519083015260a0838101519083015260c0808401519083015260e09283015116918101919091526101000190565b805161ffff81168114610eb857600080fd5b600080600080600080600060e0888a03121561155c57600080fd5b875161156781610e95565b8097505060208801518060020b811461157f57600080fd5b955061158d6040890161152f565b945061159b6060890161152f565b93506115a96080890161152f565b925060a08801516115b981611169565b60c08901519092506115ca81610ff0565b8091505092959891949750929550565b6001600160a01b038281168282168181028316929181158285048214176116035761160361142f565b50505092915050565b60006001600160a01b038381168061163457634e487b7160e01b600052601260045260246000fd5b92169190910492915050565b6001600160a01b038281168282160390808211156116605761166061142f565b5092915050565b6001600160a01b038181168382160190808211156116605761166061142f56fea2646970667358221220f5275c129febd32e820305fd23c4e39813ce5e34c7a67b2d545970ac686d321c64736f6c6343000815003360a060405234801561001057600080fd5b506040516102dd3803806102dd83398101604081905261002f91610040565b6001600160a01b0316608052610070565b60006020828403121561005257600080fd5b81516001600160a01b038116811461006957600080fd5b9392505050565b60805161024d61009060003960008181606f015260c8015261024d6000f3fe608060405234801561001057600080fd5b50600436106100365760003560e01c80631698ee821461003b578063c45a01551461006a575b600080fd5b61004e6100493660046101a0565b610091565b6040516001600160a01b03909116815260200160405180910390f35b61004e7f000000000000000000000000000000000000000000000000000000000000000081565b604051630b4c774160e11b81526001600160a01b038481166004830152838116602483015262ffffff8316604483015260009182917f00000000000000000000000000000000000000000000000000000000000000001690631698ee8290606401602060405180830381865afa15801561010f573d6000803e3d6000fd5b505050506040513d601f19601f8201168201806040525081019061013391906101f3565b90506001600160a01b0381166101805760405162461bcd60e51b815260206004820152600e60248201526d141bdbdb081b9bdd08199bdd5b9960921b604482015260640160405180910390fd5b949350505050565b6001600160a01b038116811461019d57600080fd5b50565b6000806000606084860312156101b557600080fd5b83356101c081610188565b925060208401356101d081610188565b9150604084013562ffffff811681146101e857600080fd5b809150509250925092565b60006020828403121561020557600080fd5b815161021081610188565b939250505056fea2646970667358221220faf191900013277bb6fc94f18c2201fd12bf10d7175e4da391cf1ad6c084676964736f6c63430008150033",
    "linkReferences": {}
  },
  "methodIdentifiers": {
    "addressOfNFTName(string)": "fd72aa30",
    "claimUnclaimedState((uint256,bytes32,address,address,bytes,uint256),address)": "8eb0930c",
    "core()": "f2f4eb26",
    "execute(uint8,bytes[],address,bool,address,bytes32)": "e93977e8",
    "poolFee()": "089fe6aa",
    "poolFinder()": "e6d56780",
    "registerUnclaimedState((uint256,bytes32,address,address,bytes,uint256),bool)": "3ed4f16a",
    "router()": "f887ea40",
    "slippageBasisPoints()": "52ef1da9",
    "templates(uint256,uint256)": "d07e0189",
    "tokenRegistry()": "9d23c4c7",
    "voidUnclaimedState((uint256,bytes32,address,address,bytes,uint256))": "b91ad651"
  },
  "id": 130
}