{
  "abi": [
    {
      "inputs": [
        {
          "internalType": "address",
          "name": "coreAddr",
          "type": "address"
        }
      ],
      "stateMutability": "nonpayable",
      "type": "constructor"
    },
    {
      "anonymous": false,
      "inputs": [
        {
          "indexed": true,
          "internalType": "address",
          "name": "previousOwner",
          "type": "address"
        },
        {
          "indexed": true,
          "internalType": "address",
          "name": "newOwner",
          "type": "address"
        }
      ],
      "name": "OwnershipTransferred",
      "type": "event"
    },
    {
      "inputs": [
        {
          "internalType": "string",
          "name": "",
          "type": "string"
        }
      ],
      "name": "addressOfNFTName",
      "outputs": [
        {
          "internalType": "address",
          "name": "",
          "type": "address"
        }
      ],
      "stateMutability": "view",
      "type": "function"
    },
    {
      "inputs": [
        {
          "components": [
            {
              "internalType": "uint256",
              "name": "id",
              "type": "uint256"
            },
            {
              "internalType": "bytes32",
              "name": "emailAddrCommit",
              "type": "bytes32"
            },
            {
              "internalType": "address",
              "name": "extensionAddr",
              "type": "address"
            },
            {
              "internalType": "address",
              "name": "sender",
              "type": "address"
            },
            {
              "internalType": "bytes",
              "name": "state",
              "type": "bytes"
            },
            {
              "internalType": "uint256",
              "name": "expiryTime",
              "type": "uint256"
            }
          ],
          "internalType": "struct UnclaimedState",
          "name": "unclaimedState",
          "type": "tuple"
        },
        {
          "internalType": "address",
          "name": "wallet",
          "type": "address"
        }
      ],
      "name": "claimUnclaimedState",
      "outputs": [],
      "stateMutability": "nonpayable",
      "type": "function"
    },
    {
      "inputs": [],
      "name": "core",
      "outputs": [
        {
          "internalType": "contract EmailWalletCore",
          "name": "",
          "type": "address"
        }
      ],
      "stateMutability": "view",
      "type": "function"
    },
    {
      "inputs": [
        {
          "internalType": "uint8",
          "name": "templateIndex",
          "type": "uint8"
        },
        {
          "internalType": "bytes[]",
          "name": "subjectParams",
          "type": "bytes[]"
        },
        {
          "internalType": "address",
          "name": "wallet",
          "type": "address"
        },
        {
          "internalType": "bool",
          "name": "hasEmailRecipient",
          "type": "bool"
        },
        {
          "internalType": "address",
          "name": "recipientETHAddr",
          "type": "address"
        },
        {
          "internalType": "bytes32",
          "name": "",
          "type": "bytes32"
        }
      ],
      "name": "execute",
      "outputs": [],
      "stateMutability": "nonpayable",
      "type": "function"
    },
    {
      "inputs": [
        {
          "internalType": "address",
          "name": "",
          "type": "address"
        },
        {
          "internalType": "address",
          "name": "",
          "type": "address"
        },
        {
          "internalType": "uint256",
          "name": "",
          "type": "uint256"
        },
        {
          "internalType": "bytes",
          "name": "",
          "type": "bytes"
        }
      ],
      "name": "onERC721Received",
      "outputs": [
        {
          "internalType": "bytes4",
          "name": "",
          "type": "bytes4"
        }
      ],
      "stateMutability": "pure",
      "type": "function"
    },
    {
      "inputs": [],
      "name": "owner",
      "outputs": [
        {
          "internalType": "address",
          "name": "",
          "type": "address"
        }
      ],
      "stateMutability": "view",
      "type": "function"
    },
    {
      "inputs": [
        {
          "components": [
            {
              "internalType": "uint256",
              "name": "id",
              "type": "uint256"
            },
            {
              "internalType": "bytes32",
              "name": "emailAddrCommit",
              "type": "bytes32"
            },
            {
              "internalType": "address",
              "name": "extensionAddr",
              "type": "address"
            },
            {
              "internalType": "address",
              "name": "sender",
              "type": "address"
            },
            {
              "internalType": "bytes",
              "name": "state",
              "type": "bytes"
            },
            {
              "internalType": "uint256",
              "name": "expiryTime",
              "type": "uint256"
            }
          ],
          "internalType": "struct UnclaimedState",
          "name": "unclaimedState",
          "type": "tuple"
        },
        {
          "internalType": "bool",
          "name": "",
          "type": "bool"
        }
      ],
      "name": "registerUnclaimedState",
      "outputs": [],
      "stateMutability": "nonpayable",
      "type": "function"
    },
    {
      "inputs": [],
      "name": "renounceOwnership",
      "outputs": [],
      "stateMutability": "nonpayable",
      "type": "function"
    },
    {
      "inputs": [
        {
          "internalType": "string",
          "name": "nftName",
          "type": "string"
        },
        {
          "internalType": "address",
          "name": "addr",
          "type": "address"
        }
      ],
      "name": "setNFTAddress",
      "outputs": [],
      "stateMutability": "nonpayable",
      "type": "function"
    },
    {
      "inputs": [
        {
          "internalType": "uint256",
          "name": "",
          "type": "uint256"
        },
        {
          "internalType": "uint256",
          "name": "",
          "type": "uint256"
        }
      ],
      "name": "templates",
      "outputs": [
        {
          "internalType": "string",
          "name": "",
          "type": "string"
        }
      ],
      "stateMutability": "view",
      "type": "function"
    },
    {
      "inputs": [
        {
          "internalType": "address",
          "name": "newOwner",
          "type": "address"
        }
      ],
      "name": "transferOwnership",
      "outputs": [],
      "stateMutability": "nonpayable",
      "type": "function"
    },
    {
      "inputs": [
        {
          "components": [
            {
              "internalType": "uint256",
              "name": "id",
              "type": "uint256"
            },
            {
              "internalType": "bytes32",
              "name": "emailAddrCommit",
              "type": "bytes32"
            },
            {
              "internalType": "address",
              "name": "extensionAddr",
              "type": "address"
            },
            {
              "internalType": "address",
              "name": "sender",
              "type": "address"
            },
            {
              "internalType": "bytes",
              "name": "state",
              "type": "bytes"
            },
            {
              "internalType": "uint256",
              "name": "expiryTime",
              "type": "uint256"
            }
          ],
          "internalType": "struct UnclaimedState",
          "name": "unclaimedState",
          "type": "tuple"
        }
      ],
      "name": "voidUnclaimedState",
      "outputs": [],
      "stateMutability": "nonpayable",
      "type": "function"
    }
  ],
  "bytecode": {
    "object": "0x600360808181526101006040529060a05b60608152602001906001900390816200001057505080516200003b9160039160209091019062000487565b503480156200004957600080fd5b5060405162001fdd38038062001fdd8339810160408190526200006c91620006a5565b620000773362000437565b600180546001600160a01b0319166001600160a01b0383161790556040805161012081018252600360e082018181526213919560ea1b610100840152825282518084018452600481526314d95b9960e21b602080830191909152808401919091528351808501855260068152657b75696e747d60d01b81830152838501528351808501855260028082526137b360f11b8284015260608501919091528451808601865260088152677b737472696e677d60c01b8184015260808501528451808601865290815261746f60f01b8183015260a08401528351808501909452600b84526a7b726563697069656e747d60a81b9084015260c082019290925281549091906000906200018a576200018a620006d7565b90600052602060002001906007620001a4929190620004eb565b506040518061010001604052806040518060400160405280600381526020016213919560ea1b81525081526020016040518060400160405280600481526020016314d95b9960e21b8152508152602001604051806040016040528060068152602001657b75696e747d60d01b81525081526020016040518060400160405280600281526020016137b360f11b8152508152602001604051806040016040528060088152602001677b737472696e677d60c01b815250815260200160405180604001604052806002815260200161746f60f01b81525081526020016040518060400160405280600b81526020016a7b726563697069656e747d60a81b815250815260200160405180604001604052806006815260200165736166656c7960d01b8152508152506003600181548110620002e057620002e0620006d7565b90600052602060002001906008620002fa92919062000544565b506040518060e001604052806040518060400160405280600381526020016213919560ea1b815250815260200160405180604001604052806007815260200166417070726f766560c81b81525081526020016040518060400160405280600b81526020016a7b726563697069656e747d60a81b8152508152602001604051806040016040528060038152602001623337b960e91b8152508152602001604051806040016040528060068152602001657b75696e747d60d01b81525081526020016040518060400160405280600281526020016137b360f11b8152508152602001604051806040016040528060088152602001677b737472696e677d60c01b8152508152506003600281548110620004155762000415620006d7565b906000526020600020019060076200042f929190620004eb565b505062000848565b600080546001600160a01b038381166001600160a01b0319831681178455604051919092169283917f8be0079c531659141344cd1fd0a4f28419497f9722a3daafe3b4186f6b6457e09190a35050565b828054828255906000526020600020908101928215620004d9579160200282015b82811115620004d95782518051620004c89184916020909101906200058f565b5091602001919060010190620004a8565b50620004e7929150620005da565b5090565b82805482825590600052602060002090810192821562000536579160200282015b828111156200053657825182906200052590826200077c565b50916020019190600101906200050c565b50620004e7929150620005fb565b82805482825590600052602060002090810192821562000536579160200282015b828111156200053657825182906200057e90826200077c565b509160200191906001019062000565565b82805482825590600052602060002090810192821562000536579160200282015b82811115620005365782518290620005c990826200077c565b5091602001919060010190620005b0565b80821115620004e7576000620005f182826200061c565b50600101620005da565b80821115620004e75760006200061282826200063f565b50600101620005fb565b50805460008255906000526020600020908101906200063c9190620005fb565b50565b5080546200064d90620006ed565b6000825580601f106200065e575050565b601f0160209004906000526020600020908101906200063c91905b80821115620004e7576000815560010162000679565b634e487b7160e01b600052604160045260246000fd5b600060208284031215620006b857600080fd5b81516001600160a01b0381168114620006d057600080fd5b9392505050565b634e487b7160e01b600052603260045260246000fd5b600181811c908216806200070257607f821691505b6020821081036200072357634e487b7160e01b600052602260045260246000fd5b50919050565b601f8211156200077757600081815260208120601f850160051c81016020861015620007525750805b601f850160051c820191505b8181101562000773578281556001016200075e565b5050505b505050565b81516001600160401b038111156200079857620007986200068f565b620007b081620007a98454620006ed565b8462000729565b602080601f831160018114620007e85760008415620007cf5750858301515b600019600386901b1c1916600185901b17855562000773565b600085815260208120601f198616915b828110156200081957888601518255948401946001909101908401620007f8565b5085821015620008385787850151600019600388901b60f8161c191681555b5050505050600190811b01905550565b61178580620008586000396000f3fe608060405234801561001057600080fd5b50600436106100a45760003560e01c8063150b7a02146100a95780633ed4f16a146100e65780636ba64bc5146100fb578063715018a61461010e5780638da5cb5b146101165780638eb0930c14610136578063b91ad65114610149578063d07e01891461015c578063e93977e81461017c578063f2f4eb261461018f578063f2fde38b146101a2578063fd72aa30146101b5575b600080fd5b6100c86100b7366004611060565b630a85bd0160e11b95945050505050565b6040516001600160e01b031990911681526020015b60405180910390f35b6100f96100f436600461127f565b6101e9565b005b6100f96101093660046112cc565b6104bf565b6100f96105cd565b61011e6105e1565b6040516001600160a01b0390911681526020016100dd565b6100f961014436600461131d565b6105f0565b6100f9610157366004611352565b610734565b61016f61016a36600461138e565b61087a565b6040516100dd9190611400565b6100f961018a36600461141a565b61093f565b60015461011e906001600160a01b031681565b6100f96101b036600461152f565b610f13565b61011e6101c336600461154c565b80516020818301810180516002825292820191909301209152546001600160a01b031681565b6001546001600160a01b03163314806102895750600160009054906101000a90046001600160a01b03166001600160a01b031663d5e5c1c86040518163ffffffff1660e01b8152600401602060405180830381865afa158015610250573d6000803e3d6000fd5b505050506040513d601f19601f820116820180604052508101906102749190611580565b6001600160a01b0316336001600160a01b0316145b6102ae5760405162461bcd60e51b81526004016102a59061159d565b60405180910390fd5b60008083608001518060200190518101906102c991906115c5565b60405163020604bf60e21b8152600481018290529193509150829030906001600160a01b0383169063081812fc90602401602060405180830381865afa158015610317573d6000803e3d6000fd5b505050506040513d601f19601f8201168201806040525081019061033b9190611580565b6001600160a01b0316146103915760405162461bcd60e51b815260206004820152601d60248201527f4e4654206e6f7420617070726f76656420746f20657874656e73696f6e00000060448201526064016102a5565b6060850151604051632142170760e11b81526001600160a01b038316916342842e0e916103c59190309087906004016115f3565b600060405180830381600087803b1580156103df57600080fd5b505af11580156103f3573d6000803e3d6000fd5b50506040516331a9108f60e11b8152600481018590523092506001600160a01b0384169150636352211e90602401602060405180830381865afa15801561043e573d6000803e3d6000fd5b505050506040513d601f19601f820116820180604052508101906104629190611580565b6001600160a01b0316146104b85760405162461bcd60e51b815260206004820181905260248201527f4e4654206e6f74207472616e7366657272656420746f20657874656e73696f6e60448201526064016102a5565b5050505050565b6104c7610f8c565b60006001600160a01b03166002836040516104e29190611617565b908152604051908190036020019020546001600160a01b0316146105415760405162461bcd60e51b815260206004820152601660248201527513919508185b1c9958591e481c9959da5cdd195c995960521b60448201526064016102a5565b6001600160a01b0381166105895760405162461bcd60e51b815260206004820152600f60248201526e696e76616c6964206164647265737360881b60448201526064016102a5565b8060028360405161059a9190611617565b90815260405190819003602001902080546001600160a01b03929092166001600160a01b03199092169190911790555050565b6105d5610f8c565b6105df6000610feb565b565b6000546001600160a01b031690565b6001546001600160a01b03163314806106905750600160009054906101000a90046001600160a01b03166001600160a01b031663d5e5c1c86040518163ffffffff1660e01b8152600401602060405180830381865afa158015610657573d6000803e3d6000fd5b505050506040513d601f19601f8201168201806040525081019061067b9190611580565b6001600160a01b0316336001600160a01b0316145b6106ac5760405162461bcd60e51b81526004016102a59061159d565b60008083608001518060200190518101906106c791906115c5565b604051632142170760e11b815291935091506001600160a01b038316906342842e0e906106fc903090879086906004016115f3565b600060405180830381600087803b15801561071657600080fd5b505af115801561072a573d6000803e3d6000fd5b5050505050505050565b6001546001600160a01b03163314806107d45750600160009054906101000a90046001600160a01b03166001600160a01b031663d5e5c1c86040518163ffffffff1660e01b8152600401602060405180830381865afa15801561079b573d6000803e3d6000fd5b505050506040513d601f19601f820116820180604052508101906107bf9190611580565b6001600160a01b0316336001600160a01b0316145b6107f05760405162461bcd60e51b81526004016102a59061159d565b600080826080015180602001905181019061080b91906115c5565b91509150816001600160a01b03166342842e0e308560600151846040518463ffffffff1660e01b8152600401610843939291906115f3565b600060405180830381600087803b15801561085d57600080fd5b505af1158015610871573d6000803e3d6000fd5b50505050505050565b6003828154811061088a57600080fd5b9060005260206000200181815481106108a257600080fd5b906000526020600020016000915091505080546108be90611633565b80601f01602080910402602001604051908101604052809291908181526020018280546108ea90611633565b80156109375780601f1061090c57610100808354040283529160200191610937565b820191906000526020600020905b81548152906001019060200180831161091a57829003601f168201915b505050505081565b6001546001600160a01b03163314806109df5750600160009054906101000a90046001600160a01b03166001600160a01b031663d5e5c1c86040518163ffffffff1660e01b8152600401602060405180830381865afa1580156109a6573d6000803e3d6000fd5b505050506040513d601f19601f820116820180604052508101906109ca9190611580565b6001600160a01b0316336001600160a01b0316145b6109fb5760405162461bcd60e51b81526004016102a59061159d565b60ff86161580610a0e57508560ff166001145b80610a1c57508560ff166002145b610a605760405162461bcd60e51b81526020600482015260156024820152740d2dcecc2d8d2c840e8cadae0d8c2e8ca92dcc8caf605b1b60448201526064016102a5565b60ff86161580610a6e575082155b610ada5760405162461bcd60e51b815260206004820152603760248201527f726563697069656e74206d75737420626520455448206164647265737320696660448201527602074656d706c617465496e646578206973206e6f74203604c1b60648201526084016102a5565b600085600081518110610aef57610aef61166d565b6020026020010151806020019051810190610b0a9190611683565b9050600086600181518110610b2157610b2161166d565b6020026020010151806020019051810190610b3c919061169c565b90506000600282604051610b509190611617565b908152604051908190036020019020546001600160a01b0316905080610ba65760405162461bcd60e51b815260206004820152600b60248201526a1a5b9d985b1a590813919560aa1b60448201526064016102a5565b8515610cde5760003084604051602401610bc1929190611712565b60408051601f198184030181529181526020820180516001600160e01b031663095ea7b360e01b17905260015490516321d71c8f60e01b81529192506001600160a01b0316906321d71c8f90610c1d908590859060040161172b565b600060405180830381600087803b158015610c3757600080fd5b505af1158015610c4b573d6000803e3d6000fd5b5050505060008285604051602001610c64929190611712565b60408051601f198184030181529082905260015463326bcfc760e21b83529092506001600160a01b03169063c9af3f1c90610ca5903090859060040161172b565b600060405180830381600087803b158015610cbf57600080fd5b505af1158015610cd3573d6000803e3d6000fd5b505050505050610f08565b6001600160a01b038516610d2f5760405162461bcd60e51b815260206004820152601860248201527734b73b30b634b2103932b1b4b834b2b73a22aa2420b2323960411b60448201526064016102a5565b8860ff16600003610de5576000878685604051602401610d51939291906115f3565b60408051601f198184030181529181526020820180516001600160e01b03166323b872dd60e01b17905260015490516321d71c8f60e01b81529192506001600160a01b0316906321d71c8f90610dad908590859060040161172b565b600060405180830381600087803b158015610dc757600080fd5b505af1158015610ddb573d6000803e3d6000fd5b5050505050610f08565b8860ff16600103610e63576000878685604051602401610e07939291906115f3565b60408051601f198184030181529181526020820180516001600160e01b0316632142170760e11b17905260015490516321d71c8f60e01b81529192506001600160a01b0316906321d71c8f90610dad908590859060040161172b565b60008584604051602401610e78929190611712565b60408051601f198184030181529181526020820180516001600160e01b031663095ea7b360e01b17905260015490516321d71c8f60e01b81529192506001600160a01b0316906321d71c8f90610ed4908590859060040161172b565b600060405180830381600087803b158015610eee57600080fd5b505af1158015610f02573d6000803e3d6000fd5b50505050505b505050505050505050565b610f1b610f8c565b6001600160a01b038116610f805760405162461bcd60e51b815260206004820152602660248201527f4f776e61626c653a206e6577206f776e657220697320746865207a65726f206160448201526564647265737360d01b60648201526084016102a5565b610f8981610feb565b50565b33610f956105e1565b6001600160a01b0316146105df5760405162461bcd60e51b815260206004820181905260248201527f4f776e61626c653a2063616c6c6572206973206e6f7420746865206f776e657260448201526064016102a5565b600080546001600160a01b038381166001600160a01b0319831681178455604051919092169283917f8be0079c531659141344cd1fd0a4f28419497f9722a3daafe3b4186f6b6457e09190a35050565b6001600160a01b0381168114610f8957600080fd5b803561105b8161103b565b919050565b60008060008060006080868803121561107857600080fd5b85356110838161103b565b945060208601356110938161103b565b93506040860135925060608601356001600160401b03808211156110b657600080fd5b818801915088601f8301126110ca57600080fd5b8135818111156110d957600080fd5b8960208285010111156110eb57600080fd5b9699959850939650602001949392505050565b634e487b7160e01b600052604160045260246000fd5b604051601f8201601f191681016001600160401b038111828210171561113c5761113c6110fe565b604052919050565b60006001600160401b0382111561115d5761115d6110fe565b50601f01601f191660200190565b600082601f83011261117c57600080fd5b813561118f61118a82611144565b611114565b8181528460208386010111156111a457600080fd5b816020850160208301376000918101602001919091529392505050565b600060c082840312156111d357600080fd5b60405160c081016001600160401b0380821183831017156111f6576111f66110fe565b8160405282935084358352602085013560208401526040850135915061121b8261103b565b816040840152606085013591506112318261103b565b816060840152608085013591508082111561124b57600080fd5b506112588582860161116b565b60808301525060a083013560a08201525092915050565b8035801515811461105b57600080fd5b6000806040838503121561129257600080fd5b82356001600160401b038111156112a857600080fd5b6112b4858286016111c1565b9250506112c36020840161126f565b90509250929050565b600080604083850312156112df57600080fd5b82356001600160401b038111156112f557600080fd5b6113018582860161116b565b92505060208301356113128161103b565b809150509250929050565b6000806040838503121561133057600080fd5b82356001600160401b0381111561134657600080fd5b611301858286016111c1565b60006020828403121561136457600080fd5b81356001600160401b0381111561137a57600080fd5b611386848285016111c1565b949350505050565b600080604083850312156113a157600080fd5b50508035926020909101359150565b60005b838110156113cb5781810151838201526020016113b3565b50506000910152565b600081518084526113ec8160208601602086016113b0565b601f01601f19169290920160200192915050565b60208152600061141360208301846113d4565b9392505050565b60008060008060008060c0878903121561143357600080fd5b863560ff8116811461144457600080fd5b95506020878101356001600160401b038082111561146157600080fd5b818a0191508a601f83011261147557600080fd5b813581811115611487576114876110fe565b8060051b611496858201611114565b918252838101850191858101908e8411156114b057600080fd5b86860192505b838310156114ea5784833511156114cc57600080fd5b6114db8f88853589010161116b565b825291860191908601906114b6565b809b505050505050505061150060408801611050565b935061150e6060880161126f565b925061151c60808801611050565b915060a087013590509295509295509295565b60006020828403121561154157600080fd5b81356114138161103b565b60006020828403121561155e57600080fd5b81356001600160401b0381111561157457600080fd5b6113868482850161116b565b60006020828403121561159257600080fd5b81516114138161103b565b6020808252600e908201526d34b73b30b634b21039b2b73232b960911b604082015260600190565b600080604083850312156115d857600080fd5b82516115e38161103b565b6020939093015192949293505050565b6001600160a01b039384168152919092166020820152604081019190915260600190565b600082516116298184602087016113b0565b9190910192915050565b600181811c9082168061164757607f821691505b60208210810361166757634e487b7160e01b600052602260045260246000fd5b50919050565b634e487b7160e01b600052603260045260246000fd5b60006020828403121561169557600080fd5b5051919050565b6000602082840312156116ae57600080fd5b81516001600160401b038111156116c457600080fd5b8201601f810184136116d557600080fd5b80516116e361118a82611144565b8181528560208385010111156116f857600080fd5b6117098260208301602086016113b0565b95945050505050565b6001600160a01b03929092168252602082015260400190565b6001600160a01b0383168152604060208201819052600090611386908301846113d456fea264697066735822122046c8859e50928df9daf961ecb158686b06e8e33852089a6b1b391bc0d15d42df64736f6c63430008150033",
    "linkReferences": {}
  },
  "methodIdentifiers": {
    "addressOfNFTName(string)": "fd72aa30",
    "claimUnclaimedState((uint256,bytes32,address,address,bytes,uint256),address)": "8eb0930c",
    "core()": "f2f4eb26",
    "execute(uint8,bytes[],address,bool,address,bytes32)": "e93977e8",
    "onERC721Received(address,address,uint256,bytes)": "150b7a02",
    "owner()": "8da5cb5b",
    "registerUnclaimedState((uint256,bytes32,address,address,bytes,uint256),bool)": "3ed4f16a",
    "renounceOwnership()": "715018a6",
    "setNFTAddress(string,address)": "6ba64bc5",
    "templates(uint256,uint256)": "d07e0189",
    "transferOwnership(address)": "f2fde38b",
    "voidUnclaimedState((uint256,bytes32,address,address,bytes,uint256))": "b91ad651"
  },
  "id": 128
}