{
  "abi": [
    {
      "inputs": [],
      "stateMutability": "nonpayable",
      "type": "constructor"
    },
    {
      "anonymous": false,
      "inputs": [
        {
          "indexed": false,
          "internalType": "address",
          "name": "previousAdmin",
          "type": "address"
        },
        {
          "indexed": false,
          "internalType": "address",
          "name": "newAdmin",
          "type": "address"
        }
      ],
      "name": "AdminChanged",
      "type": "event"
    },
    {
      "anonymous": false,
      "inputs": [
        {
          "indexed": true,
          "internalType": "address",
          "name": "beacon",
          "type": "address"
        }
      ],
      "name": "BeaconUpgraded",
      "type": "event"
    },
    {
      "anonymous": false,
      "inputs": [
        {
          "indexed": false,
          "internalType": "uint8",
          "name": "version",
          "type": "uint8"
        }
      ],
      "name": "Initialized",
      "type": "event"
    },
    {
      "anonymous": false,
      "inputs": [
        {
          "indexed": true,
          "internalType": "address",
          "name": "previousOwner",
          "type": "address"
        },
        {
          "indexed": true,
          "internalType": "address",
          "name": "newOwner",
          "type": "address"
        }
      ],
      "name": "OwnershipTransferred",
      "type": "event"
    },
    {
      "anonymous": false,
      "inputs": [
        {
          "indexed": true,
          "internalType": "address",
          "name": "implementation",
          "type": "address"
        }
      ],
      "name": "Upgraded",
      "type": "event"
    },
    {
      "inputs": [
        {
          "internalType": "string",
          "name": "",
          "type": "string"
        }
      ],
      "name": "addressOfNFTName",
      "outputs": [
        {
          "internalType": "address",
          "name": "",
          "type": "address"
        }
      ],
      "stateMutability": "view",
      "type": "function"
    },
    {
      "inputs": [
        {
          "components": [
            {
              "internalType": "uint256",
              "name": "id",
              "type": "uint256"
            },
            {
              "internalType": "bytes32",
              "name": "emailAddrCommit",
              "type": "bytes32"
            },
            {
              "internalType": "address",
              "name": "extensionAddr",
              "type": "address"
            },
            {
              "internalType": "address",
              "name": "sender",
              "type": "address"
            },
            {
              "internalType": "bytes",
              "name": "state",
              "type": "bytes"
            },
            {
              "internalType": "uint256",
              "name": "expiryTime",
              "type": "uint256"
            }
          ],
          "internalType": "struct UnclaimedState",
          "name": "unclaimedState",
          "type": "tuple"
        },
        {
          "internalType": "address",
          "name": "wallet",
          "type": "address"
        }
      ],
      "name": "claimUnclaimedState",
      "outputs": [],
      "stateMutability": "nonpayable",
      "type": "function"
    },
    {
      "inputs": [],
      "name": "core",
      "outputs": [
        {
          "internalType": "contract EmailWalletCore",
          "name": "",
          "type": "address"
        }
      ],
      "stateMutability": "view",
      "type": "function"
    },
    {
      "inputs": [
        {
          "internalType": "uint8",
          "name": "templateIndex",
          "type": "uint8"
        },
        {
          "internalType": "bytes[]",
          "name": "subjectParams",
          "type": "bytes[]"
        },
        {
          "internalType": "address",
          "name": "wallet",
          "type": "address"
        },
        {
          "internalType": "bool",
          "name": "hasEmailRecipient",
          "type": "bool"
        },
        {
          "internalType": "address",
          "name": "recipientETHAddr",
          "type": "address"
        },
        {
          "internalType": "bytes32",
          "name": "",
          "type": "bytes32"
        }
      ],
      "name": "execute",
      "outputs": [],
      "stateMutability": "nonpayable",
      "type": "function"
    },
    {
      "inputs": [
        {
          "internalType": "address",
          "name": "coreAddr",
          "type": "address"
        }
      ],
      "name": "initialize",
      "outputs": [],
      "stateMutability": "nonpayable",
      "type": "function"
    },
    {
      "inputs": [
        {
          "internalType": "address",
          "name": "",
          "type": "address"
        },
        {
          "internalType": "address",
          "name": "",
          "type": "address"
        },
        {
          "internalType": "uint256",
          "name": "",
          "type": "uint256"
        },
        {
          "internalType": "bytes",
          "name": "",
          "type": "bytes"
        }
      ],
      "name": "onERC721Received",
      "outputs": [
        {
          "internalType": "bytes4",
          "name": "",
          "type": "bytes4"
        }
      ],
      "stateMutability": "pure",
      "type": "function"
    },
    {
      "inputs": [],
      "name": "owner",
      "outputs": [
        {
          "internalType": "address",
          "name": "",
          "type": "address"
        }
      ],
      "stateMutability": "view",
      "type": "function"
    },
    {
      "inputs": [],
      "name": "proxiableUUID",
      "outputs": [
        {
          "internalType": "bytes32",
          "name": "",
          "type": "bytes32"
        }
      ],
      "stateMutability": "view",
      "type": "function"
    },
    {
      "inputs": [
        {
          "components": [
            {
              "internalType": "uint256",
              "name": "id",
              "type": "uint256"
            },
            {
              "internalType": "bytes32",
              "name": "emailAddrCommit",
              "type": "bytes32"
            },
            {
              "internalType": "address",
              "name": "extensionAddr",
              "type": "address"
            },
            {
              "internalType": "address",
              "name": "sender",
              "type": "address"
            },
            {
              "internalType": "bytes",
              "name": "state",
              "type": "bytes"
            },
            {
              "internalType": "uint256",
              "name": "expiryTime",
              "type": "uint256"
            }
          ],
          "internalType": "struct UnclaimedState",
          "name": "unclaimedState",
          "type": "tuple"
        },
        {
          "internalType": "bool",
          "name": "",
          "type": "bool"
        }
      ],
      "name": "registerUnclaimedState",
      "outputs": [],
      "stateMutability": "nonpayable",
      "type": "function"
    },
    {
      "inputs": [],
      "name": "renounceOwnership",
      "outputs": [],
      "stateMutability": "nonpayable",
      "type": "function"
    },
    {
      "inputs": [
        {
          "internalType": "string",
          "name": "nftName",
          "type": "string"
        },
        {
          "internalType": "address",
          "name": "addr",
          "type": "address"
        }
      ],
      "name": "setNFTAddress",
      "outputs": [],
      "stateMutability": "nonpayable",
      "type": "function"
    },
    {
      "inputs": [
        {
          "internalType": "uint256",
          "name": "",
          "type": "uint256"
        },
        {
          "internalType": "uint256",
          "name": "",
          "type": "uint256"
        }
      ],
      "name": "templates",
      "outputs": [
        {
          "internalType": "string",
          "name": "",
          "type": "string"
        }
      ],
      "stateMutability": "view",
      "type": "function"
    },
    {
      "inputs": [
        {
          "internalType": "address",
          "name": "newOwner",
          "type": "address"
        }
      ],
      "name": "transferOwnership",
      "outputs": [],
      "stateMutability": "nonpayable",
      "type": "function"
    },
    {
      "inputs": [
        {
          "internalType": "address",
          "name": "newImplementation",
          "type": "address"
        }
      ],
      "name": "upgradeTo",
      "outputs": [],
      "stateMutability": "nonpayable",
      "type": "function"
    },
    {
      "inputs": [
        {
          "internalType": "address",
          "name": "newImplementation",
          "type": "address"
        },
        {
          "internalType": "bytes",
          "name": "data",
          "type": "bytes"
        }
      ],
      "name": "upgradeToAndCall",
      "outputs": [],
      "stateMutability": "payable",
      "type": "function"
    },
    {
      "inputs": [
        {
          "components": [
            {
              "internalType": "uint256",
              "name": "id",
              "type": "uint256"
            },
            {
              "internalType": "bytes32",
              "name": "emailAddrCommit",
              "type": "bytes32"
            },
            {
              "internalType": "address",
              "name": "extensionAddr",
              "type": "address"
            },
            {
              "internalType": "address",
              "name": "sender",
              "type": "address"
            },
            {
              "internalType": "bytes",
              "name": "state",
              "type": "bytes"
            },
            {
              "internalType": "uint256",
              "name": "expiryTime",
              "type": "uint256"
            }
          ],
          "internalType": "struct UnclaimedState",
          "name": "unclaimedState",
          "type": "tuple"
        }
      ],
      "name": "voidUnclaimedState",
      "outputs": [],
      "stateMutability": "nonpayable",
      "type": "function"
    }
  ],
  "bytecode": {
    "object": "0x60a0604052306080523480156200001557600080fd5b506200002062000026565b620000e7565b600054610100900460ff1615620000935760405162461bcd60e51b815260206004820152602760248201527f496e697469616c697a61626c653a20636f6e747261637420697320696e697469604482015266616c697a696e6760c81b606482015260840160405180910390fd5b60005460ff90811614620000e5576000805460ff191660ff9081179091556040519081527f7f26b83ff96e1f2b6a682f133852f6798a09c465da95921460cefb38474024989060200160405180910390a15b565b6080516130e56200011f600039600081816103cb015281816104660152818161097301528181610a090152610b3801526130e56000f3fe6080604052600436106100f35760003560e01c80638eb0930c1161008a578063e93977e811610059578063e93977e8146102f9578063f2f4eb2614610319578063f2fde38b14610346578063fd72aa301461036657600080fd5b80638eb0930c1461026c578063b91ad6511461028c578063c4d66de8146102ac578063d07e0189146102cc57600080fd5b806352d1902d116100c657806352d1902d146101c85780636ba64bc5146101eb578063715018a61461020b5780638da5cb5b1461022057600080fd5b8063150b7a02146100f85780633659cfe6146101735780633ed4f16a146101955780634f1ef286146101b5575b600080fd5b34801561010457600080fd5b5061013d6101133660046127a2565b7f150b7a020000000000000000000000000000000000000000000000000000000095945050505050565b6040517fffffffff0000000000000000000000000000000000000000000000000000000090911681526020015b60405180910390f35b34801561017f57600080fd5b5061019361018e366004612841565b6103b4565b005b3480156101a157600080fd5b506101936101b0366004612a37565b61058a565b6101936101c3366004612a85565b61095c565b3480156101d457600080fd5b506101dd610b1e565b60405190815260200161016a565b3480156101f757600080fd5b50610193610206366004612ad5565b610bf0565b34801561021757600080fd5b50610193610d5f565b34801561022c57600080fd5b5060335473ffffffffffffffffffffffffffffffffffffffff165b60405173ffffffffffffffffffffffffffffffffffffffff909116815260200161016a565b34801561027857600080fd5b50610193610287366004612b27565b610d73565b34801561029857600080fd5b506101936102a7366004612b5d565b610f56565b3480156102b857600080fd5b506101936102c7366004612841565b61113c565b3480156102d857600080fd5b506102ec6102e7366004612b92565b61169c565b60405161016a9190612c22565b34801561030557600080fd5b50610193610314366004612c35565b611761565b34801561032557600080fd5b506065546102479073ffffffffffffffffffffffffffffffffffffffff1681565b34801561035257600080fd5b50610193610361366004612841565b611ead565b34801561037257600080fd5b50610247610381366004612d4b565b805160208183018101805160668252928201919093012091525473ffffffffffffffffffffffffffffffffffffffff1681565b73ffffffffffffffffffffffffffffffffffffffff7f00000000000000000000000000000000000000000000000000000000000000001630036104645760405162461bcd60e51b815260206004820152602c60248201527f46756e6374696f6e206d7573742062652063616c6c6564207468726f7567682060448201527f64656c656761746563616c6c000000000000000000000000000000000000000060648201526084015b60405180910390fd5b7f000000000000000000000000000000000000000000000000000000000000000073ffffffffffffffffffffffffffffffffffffffff166104d97f360894a13ba1a3210667c828492db98dca3e2076cc3735a920a3ca505d382bbc5473ffffffffffffffffffffffffffffffffffffffff1690565b73ffffffffffffffffffffffffffffffffffffffff16146105625760405162461bcd60e51b815260206004820152602c60248201527f46756e6374696f6e206d7573742062652063616c6c6564207468726f7567682060448201527f6163746976652070726f78790000000000000000000000000000000000000000606482015260840161045b565b61056b81611f47565b6040805160008082526020820190925261058791839190611f4f565b50565b60655473ffffffffffffffffffffffffffffffffffffffff1633148061066b5750606560009054906101000a900473ffffffffffffffffffffffffffffffffffffffff1673ffffffffffffffffffffffffffffffffffffffff1663d5e5c1c86040518163ffffffff1660e01b8152600401602060405180830381865afa158015610618573d6000803e3d6000fd5b505050506040513d601f19601f8201168201806040525081019061063c9190612d80565b73ffffffffffffffffffffffffffffffffffffffff163373ffffffffffffffffffffffffffffffffffffffff16145b6106b75760405162461bcd60e51b815260206004820152600e60248201527f696e76616c69642073656e646572000000000000000000000000000000000000604482015260640161045b565b60008083608001518060200190518101906106d29190612d9d565b6040517f081812fc0000000000000000000000000000000000000000000000000000000081526004810182905291935091508290309073ffffffffffffffffffffffffffffffffffffffff83169063081812fc90602401602060405180830381865afa158015610746573d6000803e3d6000fd5b505050506040513d601f19601f8201168201806040525081019061076a9190612d80565b73ffffffffffffffffffffffffffffffffffffffff16146107cd5760405162461bcd60e51b815260206004820152601d60248201527f4e4654206e6f7420617070726f76656420746f20657874656e73696f6e000000604482015260640161045b565b60608501516040517f42842e0e00000000000000000000000000000000000000000000000000000000815273ffffffffffffffffffffffffffffffffffffffff918216600482015230602482015260448101849052908216906342842e0e90606401600060405180830381600087803b15801561084957600080fd5b505af115801561085d573d6000803e3d6000fd5b50506040517f6352211e0000000000000000000000000000000000000000000000000000000081526004810185905230925073ffffffffffffffffffffffffffffffffffffffff84169150636352211e90602401602060405180830381865afa1580156108ce573d6000803e3d6000fd5b505050506040513d601f19601f820116820180604052508101906108f29190612d80565b73ffffffffffffffffffffffffffffffffffffffff16146109555760405162461bcd60e51b815260206004820181905260248201527f4e4654206e6f74207472616e7366657272656420746f20657874656e73696f6e604482015260640161045b565b5050505050565b73ffffffffffffffffffffffffffffffffffffffff7f0000000000000000000000000000000000000000000000000000000000000000163003610a075760405162461bcd60e51b815260206004820152602c60248201527f46756e6374696f6e206d7573742062652063616c6c6564207468726f7567682060448201527f64656c656761746563616c6c0000000000000000000000000000000000000000606482015260840161045b565b7f000000000000000000000000000000000000000000000000000000000000000073ffffffffffffffffffffffffffffffffffffffff16610a7c7f360894a13ba1a3210667c828492db98dca3e2076cc3735a920a3ca505d382bbc5473ffffffffffffffffffffffffffffffffffffffff1690565b73ffffffffffffffffffffffffffffffffffffffff1614610b055760405162461bcd60e51b815260206004820152602c60248201527f46756e6374696f6e206d7573742062652063616c6c6564207468726f7567682060448201527f6163746976652070726f78790000000000000000000000000000000000000000606482015260840161045b565b610b0e82611f47565b610b1a82826001611f4f565b5050565b60003073ffffffffffffffffffffffffffffffffffffffff7f00000000000000000000000000000000000000000000000000000000000000001614610bcb5760405162461bcd60e51b815260206004820152603860248201527f555550535570677261646561626c653a206d757374206e6f742062652063616c60448201527f6c6564207468726f7567682064656c656761746563616c6c0000000000000000606482015260840161045b565b507f360894a13ba1a3210667c828492db98dca3e2076cc3735a920a3ca505d382bbc90565b610bf861211f565b600073ffffffffffffffffffffffffffffffffffffffff16606683604051610c209190612dcb565b9081526040519081900360200190205473ffffffffffffffffffffffffffffffffffffffff1614610c935760405162461bcd60e51b815260206004820152601660248201527f4e465420616c7265616479207265676973746572656400000000000000000000604482015260640161045b565b73ffffffffffffffffffffffffffffffffffffffff8116610cf65760405162461bcd60e51b815260206004820152600f60248201527f696e76616c696420616464726573730000000000000000000000000000000000604482015260640161045b565b80606683604051610d079190612dcb565b908152604051908190036020019020805473ffffffffffffffffffffffffffffffffffffffff929092167fffffffffffffffffffffffff00000000000000000000000000000000000000009092169190911790555050565b610d6761211f565b610d716000612186565b565b60655473ffffffffffffffffffffffffffffffffffffffff16331480610e545750606560009054906101000a900473ffffffffffffffffffffffffffffffffffffffff1673ffffffffffffffffffffffffffffffffffffffff1663d5e5c1c86040518163ffffffff1660e01b8152600401602060405180830381865afa158015610e01573d6000803e3d6000fd5b505050506040513d601f19601f82011682018060405250810190610e259190612d80565b73ffffffffffffffffffffffffffffffffffffffff163373ffffffffffffffffffffffffffffffffffffffff16145b610ea05760405162461bcd60e51b815260206004820152600e60248201527f696e76616c69642073656e646572000000000000000000000000000000000000604482015260640161045b565b6000808360800151806020019051810190610ebb9190612d9d565b6040517f42842e0e00000000000000000000000000000000000000000000000000000000815230600482015273ffffffffffffffffffffffffffffffffffffffff868116602483015260448201839052929450909250908316906342842e0e90606401600060405180830381600087803b158015610f3857600080fd5b505af1158015610f4c573d6000803e3d6000fd5b5050505050505050565b60655473ffffffffffffffffffffffffffffffffffffffff163314806110375750606560009054906101000a900473ffffffffffffffffffffffffffffffffffffffff1673ffffffffffffffffffffffffffffffffffffffff1663d5e5c1c86040518163ffffffff1660e01b8152600401602060405180830381865afa158015610fe4573d6000803e3d6000fd5b505050506040513d601f19601f820116820180604052508101906110089190612d80565b73ffffffffffffffffffffffffffffffffffffffff163373ffffffffffffffffffffffffffffffffffffffff16145b6110835760405162461bcd60e51b815260206004820152600e60248201527f696e76616c69642073656e646572000000000000000000000000000000000000604482015260640161045b565b600080826080015180602001905181019061109e9190612d9d565b60608501516040517f42842e0e00000000000000000000000000000000000000000000000000000000815230600482015273ffffffffffffffffffffffffffffffffffffffff9182166024820152604481018390529294509092508316906342842e0e90606401600060405180830381600087803b15801561111f57600080fd5b505af1158015611133573d6000803e3d6000fd5b50505050505050565b600054610100900460ff161580801561115c5750600054600160ff909116105b806111765750303b158015611176575060005460ff166001145b6111e85760405162461bcd60e51b815260206004820152602e60248201527f496e697469616c697a61626c653a20636f6e747261637420697320616c72656160448201527f647920696e697469616c697a6564000000000000000000000000000000000000606482015260840161045b565b600080547fffffffffffffffffffffffffffffffffffffffffffffffffffffffffffffff00166001179055801561124657600080547fffffffffffffffffffffffffffffffffffffffffffffffffffffffffffff00ff166101001790555b61124e6121fd565b606580547fffffffffffffffffffffffff00000000000000000000000000000000000000001673ffffffffffffffffffffffffffffffffffffffff84161790556040805160028082526060820190925290602082015b60608152602001906001900390816112a457505080516112cc916067916020909101906125d9565b506040805161012081018252600360e082019081527f4e46540000000000000000000000000000000000000000000000000000000000610100830152815281518083018352600481527f53656e64000000000000000000000000000000000000000000000000000000006020828101919091528083019190915282518084018452600681527f7b75696e747d000000000000000000000000000000000000000000000000000081830152828401528251808401845260028082527f6f6600000000000000000000000000000000000000000000000000000000000082840152606084019190915283518085018552600881527f7b737472696e677d000000000000000000000000000000000000000000000000818401526080840152835180850185529081527f746f0000000000000000000000000000000000000000000000000000000000008183015260a08301528251808401909352600b83527f7b726563697069656e747d0000000000000000000000000000000000000000009083015260c08101919091526067805460009061146857611468612de7565b90600052602060002001906007611480929190612636565b506040805161012081018252600360e082018181527f4e46540000000000000000000000000000000000000000000000000000000000610100840152825282518084018452600781527f417070726f7665000000000000000000000000000000000000000000000000006020828101919091528084019190915283518085018552600b81527f7b726563697069656e747d0000000000000000000000000000000000000000008183015283850152835180850185529182527f666f72000000000000000000000000000000000000000000000000000000000082820152606083019190915282518084018452600681527f7b75696e747d000000000000000000000000000000000000000000000000000081830152608083015282518084018452600281527f6f660000000000000000000000000000000000000000000000000000000000008183015260a08301528251808401909352600883527f7b737472696e677d0000000000000000000000000000000000000000000000009083015260c081019190915260678054600190811061161d5761161d612de7565b90600052602060002001906007611635929190612636565b508015610b1a57600080547fffffffffffffffffffffffffffffffffffffffffffffffffffffffffffff00ff169055604051600181527f7f26b83ff96e1f2b6a682f133852f6798a09c465da95921460cefb38474024989060200160405180910390a15050565b606782815481106116ac57600080fd5b9060005260206000200181815481106116c457600080fd5b906000526020600020016000915091505080546116e090612e16565b80601f016020809104026020016040519081016040528092919081815260200182805461170c90612e16565b80156117595780601f1061172e57610100808354040283529160200191611759565b820191906000526020600020905b81548152906001019060200180831161173c57829003601f168201915b505050505081565b60655473ffffffffffffffffffffffffffffffffffffffff163314806118425750606560009054906101000a900473ffffffffffffffffffffffffffffffffffffffff1673ffffffffffffffffffffffffffffffffffffffff1663d5e5c1c86040518163ffffffff1660e01b8152600401602060405180830381865afa1580156117ef573d6000803e3d6000fd5b505050506040513d601f19601f820116820180604052508101906118139190612d80565b73ffffffffffffffffffffffffffffffffffffffff163373ffffffffffffffffffffffffffffffffffffffff16145b61188e5760405162461bcd60e51b815260206004820152600e60248201527f696e76616c69642073656e646572000000000000000000000000000000000000604482015260640161045b565b6000856000815181106118a3576118a3612de7565b60200260200101518060200190518101906118be9190612e69565b90506000866001815181106118d5576118d5612de7565b60200260200101518060200190518101906118f09190612e82565b905060006066826040516119049190612dcb565b9081526040519081900360200190205473ffffffffffffffffffffffffffffffffffffffff169050806119795760405162461bcd60e51b815260206004820152600b60248201527f696e76616c6964204e4654000000000000000000000000000000000000000000604482015260640161045b565b8860ff16600003611cf5578515611b545760405130602482015260448101849052600090606401604080517fffffffffffffffffffffffffffffffffffffffffffffffffffffffffffffffe08184030181529181526020820180517bffffffffffffffffffffffffffffffffffffffffffffffffffffffff167f095ea7b30000000000000000000000000000000000000000000000000000000017905260655490517f21d71c8f00000000000000000000000000000000000000000000000000000000815291925073ffffffffffffffffffffffffffffffffffffffff16906321d71c8f90611a6e9085908590600401612ef9565b600060405180830381600087803b158015611a8857600080fd5b505af1158015611a9c573d6000803e3d6000fd5b50506040805173ffffffffffffffffffffffffffffffffffffffff868116602083015281830189905282518083038401815260608301938490526065547fc9af3f1c00000000000000000000000000000000000000000000000000000000909452945091909116915063c9af3f1c90611b1b9030908590606401612ef9565b600060405180830381600087803b158015611b3557600080fd5b505af1158015611b49573d6000803e3d6000fd5b505050505050611ced565b73ffffffffffffffffffffffffffffffffffffffff8516611bb75760405162461bcd60e51b815260206004820152601c60248201527f73686f756c64206861766520726563697069656e744554484164647200000000604482015260640161045b565b60405173ffffffffffffffffffffffffffffffffffffffff80891660248301528616604482015260648101849052600090608401604080517fffffffffffffffffffffffffffffffffffffffffffffffffffffffffffffffe08184030181529181526020820180517bffffffffffffffffffffffffffffffffffffffffffffffffffffffff167f42842e0e0000000000000000000000000000000000000000000000000000000017905260655490517f21d71c8f00000000000000000000000000000000000000000000000000000000815291925073ffffffffffffffffffffffffffffffffffffffff16906321d71c8f90611cb99085908590600401612ef9565b600060405180830381600087803b158015611cd357600080fd5b505af1158015611ce7573d6000803e3d6000fd5b50505050505b505050611ea5565b8860ff16600103611e5d5773ffffffffffffffffffffffffffffffffffffffff8516611d635760405162461bcd60e51b815260206004820152601f60248201527f73686f756c642068617665204554482061646420666f7220617070726f766500604482015260640161045b565b60405173ffffffffffffffffffffffffffffffffffffffff8616602482015260448101849052600090606401604080517fffffffffffffffffffffffffffffffffffffffffffffffffffffffffffffffe08184030181529181526020820180517bffffffffffffffffffffffffffffffffffffffffffffffffffffffff167f095ea7b30000000000000000000000000000000000000000000000000000000017905260655490517f21d71c8f00000000000000000000000000000000000000000000000000000000815291925073ffffffffffffffffffffffffffffffffffffffff16906321d71c8f90611cb99085908590600401612ef9565b60405162461bcd60e51b815260206004820152601560248201527f696e76616c69642074656d706c617465496e6465780000000000000000000000604482015260640161045b565b505050505050565b611eb561211f565b73ffffffffffffffffffffffffffffffffffffffff8116611f3e5760405162461bcd60e51b815260206004820152602660248201527f4f776e61626c653a206e6577206f776e657220697320746865207a65726f206160448201527f6464726573730000000000000000000000000000000000000000000000000000606482015260840161045b565b61058781612186565b61058761211f565b7f4910fdfa16fed3260ed0e7147f7cc6da11a60208b5b9406d12a635614ffd91435460ff1615611f8757611f8283612282565b505050565b8273ffffffffffffffffffffffffffffffffffffffff166352d1902d6040518163ffffffff1660e01b8152600401602060405180830381865afa92505050801561200c575060408051601f3d9081017fffffffffffffffffffffffffffffffffffffffffffffffffffffffffffffffe016820190925261200991810190612e69565b60015b61207e5760405162461bcd60e51b815260206004820152602e60248201527f45524331393637557067726164653a206e657720696d706c656d656e7461746960448201527f6f6e206973206e6f742055555053000000000000000000000000000000000000606482015260840161045b565b7f360894a13ba1a3210667c828492db98dca3e2076cc3735a920a3ca505d382bbc81146121135760405162461bcd60e51b815260206004820152602960248201527f45524331393637557067726164653a20756e737570706f727465642070726f7860448201527f6961626c65555549440000000000000000000000000000000000000000000000606482015260840161045b565b50611f82838383612372565b60335473ffffffffffffffffffffffffffffffffffffffff163314610d715760405162461bcd60e51b815260206004820181905260248201527f4f776e61626c653a2063616c6c6572206973206e6f7420746865206f776e6572604482015260640161045b565b6033805473ffffffffffffffffffffffffffffffffffffffff8381167fffffffffffffffffffffffff0000000000000000000000000000000000000000831681179093556040519116919082907f8be0079c531659141344cd1fd0a4f28419497f9722a3daafe3b4186f6b6457e090600090a35050565b600054610100900460ff1661227a5760405162461bcd60e51b815260206004820152602b60248201527f496e697469616c697a61626c653a20636f6e7472616374206973206e6f74206960448201527f6e697469616c697a696e67000000000000000000000000000000000000000000606482015260840161045b565b610d7161239d565b73ffffffffffffffffffffffffffffffffffffffff81163b61230c5760405162461bcd60e51b815260206004820152602d60248201527f455243313936373a206e657720696d706c656d656e746174696f6e206973206e60448201527f6f74206120636f6e747261637400000000000000000000000000000000000000606482015260840161045b565b7f360894a13ba1a3210667c828492db98dca3e2076cc3735a920a3ca505d382bbc80547fffffffffffffffffffffffff00000000000000000000000000000000000000001673ffffffffffffffffffffffffffffffffffffffff92909216919091179055565b61237b83612423565b6000825111806123885750805b15611f82576123978383612470565b50505050565b600054610100900460ff1661241a5760405162461bcd60e51b815260206004820152602b60248201527f496e697469616c697a61626c653a20636f6e7472616374206973206e6f74206960448201527f6e697469616c697a696e67000000000000000000000000000000000000000000606482015260840161045b565b610d7133612186565b61242c81612282565b60405173ffffffffffffffffffffffffffffffffffffffff8216907fbc7cd75a20ee27fd9adebab32041f755214dbc6bffa90cc0225b39da2e5c2d3b90600090a250565b606061249583836040518060600160405280602781526020016130896027913961249c565b9392505050565b60606000808573ffffffffffffffffffffffffffffffffffffffff16856040516124c69190612dcb565b600060405180830381855af49150503d8060008114612501576040519150601f19603f3d011682016040523d82523d6000602084013e612506565b606091505b509150915061251786838387612521565b9695505050505050565b6060831561259d5782516000036125965773ffffffffffffffffffffffffffffffffffffffff85163b6125965760405162461bcd60e51b815260206004820152601d60248201527f416464726573733a2063616c6c20746f206e6f6e2d636f6e7472616374000000604482015260640161045b565b50816125a7565b6125a783836125af565b949350505050565b8151156125bf5781518083602001fd5b8060405162461bcd60e51b815260040161045b9190612c22565b828054828255906000526020600020908101928215612626579160200282015b828111156126265782518051612616918491602090910190612688565b50916020019190600101906125f9565b506126329291506126ce565b5090565b82805482825590600052602060002090810192821561267c579160200282015b8281111561267c578251829061266c9082612f6e565b5091602001919060010190612656565b506126329291506126eb565b82805482825590600052602060002090810192821561267c579160200282015b8281111561267c57825182906126be9082612f6e565b50916020019190600101906126a8565b808211156126325760006126e28282612708565b506001016126ce565b808211156126325760006126ff8282612726565b506001016126eb565b508054600082559060005260206000209081019061058791906126eb565b50805461273290612e16565b6000825580601f10612742575050565b601f01602090049060005260206000209081019061058791905b80821115612632576000815560010161275c565b73ffffffffffffffffffffffffffffffffffffffff8116811461058757600080fd5b803561279d81612770565b919050565b6000806000806000608086880312156127ba57600080fd5b85356127c581612770565b945060208601356127d581612770565b935060408601359250606086013567ffffffffffffffff808211156127f957600080fd5b818801915088601f83011261280d57600080fd5b81358181111561281c57600080fd5b89602082850101111561282e57600080fd5b9699959850939650602001949392505050565b60006020828403121561285357600080fd5b813561249581612770565b7f4e487b7100000000000000000000000000000000000000000000000000000000600052604160045260246000fd5b604051601f82017fffffffffffffffffffffffffffffffffffffffffffffffffffffffffffffffe016810167ffffffffffffffff811182821017156128d4576128d461285e565b604052919050565b600067ffffffffffffffff8211156128f6576128f661285e565b50601f017fffffffffffffffffffffffffffffffffffffffffffffffffffffffffffffffe01660200190565b600082601f83011261293357600080fd5b8135612946612941826128dc565b61288d565b81815284602083860101111561295b57600080fd5b816020850160208301376000918101602001919091529392505050565b600060c0828403121561298a57600080fd5b60405160c0810167ffffffffffffffff82821081831117156129ae576129ae61285e565b816040528293508435835260208501356020840152604085013591506129d382612770565b816040840152606085013591506129e982612770565b8160608401526080850135915080821115612a0357600080fd5b50612a1085828601612922565b60808301525060a083013560a08201525092915050565b8035801515811461279d57600080fd5b60008060408385031215612a4a57600080fd5b823567ffffffffffffffff811115612a6157600080fd5b612a6d85828601612978565b925050612a7c60208401612a27565b90509250929050565b60008060408385031215612a9857600080fd5b8235612aa381612770565b9150602083013567ffffffffffffffff811115612abf57600080fd5b612acb85828601612922565b9150509250929050565b60008060408385031215612ae857600080fd5b823567ffffffffffffffff811115612aff57600080fd5b612b0b85828601612922565b9250506020830135612b1c81612770565b809150509250929050565b60008060408385031215612b3a57600080fd5b823567ffffffffffffffff811115612b5157600080fd5b612b0b85828601612978565b600060208284031215612b6f57600080fd5b813567ffffffffffffffff811115612b8657600080fd5b6125a784828501612978565b60008060408385031215612ba557600080fd5b50508035926020909101359150565b60005b83811015612bcf578181015183820152602001612bb7565b50506000910152565b60008151808452612bf0816020860160208601612bb4565b601f017fffffffffffffffffffffffffffffffffffffffffffffffffffffffffffffffe0169290920160200192915050565b6020815260006124956020830184612bd8565b60008060008060008060c08789031215612c4e57600080fd5b863560ff81168114612c5f57600080fd5b955060208781013567ffffffffffffffff80821115612c7d57600080fd5b818a0191508a601f830112612c9157600080fd5b813581811115612ca357612ca361285e565b8060051b612cb285820161288d565b918252838101850191858101908e841115612ccc57600080fd5b86860192505b83831015612d06578483351115612ce857600080fd5b612cf78f888535890101612922565b82529186019190860190612cd2565b809b5050505050505050612d1c60408801612792565b9350612d2a60608801612a27565b9250612d3860808801612792565b915060a087013590509295509295509295565b600060208284031215612d5d57600080fd5b813567ffffffffffffffff811115612d7457600080fd5b6125a784828501612922565b600060208284031215612d9257600080fd5b815161249581612770565b60008060408385031215612db057600080fd5b8251612dbb81612770565b6020939093015192949293505050565b60008251612ddd818460208701612bb4565b9190910192915050565b7f4e487b7100000000000000000000000000000000000000000000000000000000600052603260045260246000fd5b600181811c90821680612e2a57607f821691505b602082108103612e63577f4e487b7100000000000000000000000000000000000000000000000000000000600052602260045260246000fd5b50919050565b600060208284031215612e7b57600080fd5b5051919050565b600060208284031215612e9457600080fd5b815167ffffffffffffffff811115612eab57600080fd5b8201601f81018413612ebc57600080fd5b8051612eca612941826128dc565b818152856020838501011115612edf57600080fd5b612ef0826020830160208601612bb4565b95945050505050565b73ffffffffffffffffffffffffffffffffffffffff831681526040602082015260006125a76040830184612bd8565b601f821115611f8257600081815260208120601f850160051c81016020861015612f4f5750805b601f850160051c820191505b81811015611ea557828155600101612f5b565b815167ffffffffffffffff811115612f8857612f8861285e565b612f9c81612f968454612e16565b84612f28565b602080601f831160018114612fef5760008415612fb95750858301515b7fffffffffffffffffffffffffffffffffffffffffffffffffffffffffffffffff600386901b1c1916600185901b178555611ea5565b6000858152602081207fffffffffffffffffffffffffffffffffffffffffffffffffffffffffffffffe08616915b8281101561303c5788860151825594840194600190910190840161301d565b508582101561307857878501517fffffffffffffffffffffffffffffffffffffffffffffffffffffffffffffffff600388901b60f8161c191681555b5050505050600190811b0190555056fe416464726573733a206c6f772d6c6576656c2064656c65676174652063616c6c206661696c6564a26469706673582212209a639e6852b906b4884eeb68392b0499c2c9c82a56172e36987f0c025e73369664736f6c63430008150033",
    "linkReferences": {}
  },
  "methodIdentifiers": {
    "addressOfNFTName(string)": "fd72aa30",
    "claimUnclaimedState((uint256,bytes32,address,address,bytes,uint256),address)": "8eb0930c",
    "core()": "f2f4eb26",
    "execute(uint8,bytes[],address,bool,address,bytes32)": "e93977e8",
    "initialize(address)": "c4d66de8",
    "onERC721Received(address,address,uint256,bytes)": "150b7a02",
    "owner()": "8da5cb5b",
    "proxiableUUID()": "52d1902d",
    "registerUnclaimedState((uint256,bytes32,address,address,bytes,uint256),bool)": "3ed4f16a",
    "renounceOwnership()": "715018a6",
    "setNFTAddress(string,address)": "6ba64bc5",
    "templates(uint256,uint256)": "d07e0189",
    "transferOwnership(address)": "f2fde38b",
    "upgradeTo(address)": "3659cfe6",
    "upgradeToAndCall(address,bytes)": "4f1ef286",
    "voidUnclaimedState((uint256,bytes32,address,address,bytes,uint256))": "b91ad651"
  },
  "storageLayout": {
    "storage": [
      {
        "astId": 138,
        "contract": "src/extensions/NFTExtension.sol:NFTExtension",
        "label": "_initialized",
        "offset": 0,
        "slot": "0",
        "type": "t_uint8"
      },
      {
        "astId": 141,
        "contract": "src/extensions/NFTExtension.sol:NFTExtension",
        "label": "_initializing",
        "offset": 1,
        "slot": "0",
        "type": "t_bool"
      },
      {
        "astId": 95620,
        "contract": "src/extensions/NFTExtension.sol:NFTExtension",
        "label": "__gap",
        "offset": 0,
        "slot": "1",
        "type": "t_array(t_uint256)50_storage"
      },
      {
        "astId": 10,
        "contract": "src/extensions/NFTExtension.sol:NFTExtension",
        "label": "_owner",
        "offset": 0,
        "slot": "51",
        "type": "t_address"
      },
      {
        "astId": 130,
        "contract": "src/extensions/NFTExtension.sol:NFTExtension",
        "label": "__gap",
        "offset": 0,
        "slot": "52",
        "type": "t_array(t_uint256)49_storage"
      },
      {
        "astId": 66274,
        "contract": "src/extensions/NFTExtension.sol:NFTExtension",
        "label": "core",
        "offset": 0,
        "slot": "101",
        "type": "t_contract(EmailWalletCore)66089"
      },
      {
        "astId": 66278,
        "contract": "src/extensions/NFTExtension.sol:NFTExtension",
        "label": "addressOfNFTName",
        "offset": 0,
        "slot": "102",
        "type": "t_mapping(t_string_memory_ptr,t_address)"
      },
      {
        "astId": 66282,
        "contract": "src/extensions/NFTExtension.sol:NFTExtension",
        "label": "templates",
        "offset": 0,
        "slot": "103",
        "type": "t_array(t_array(t_string_storage)dyn_storage)dyn_storage"
      }
    ],
    "types": {
      "t_address": {
        "encoding": "inplace",
        "label": "address",
        "numberOfBytes": "20"
      },
      "t_array(t_array(t_string_storage)dyn_storage)dyn_storage": {
        "encoding": "dynamic_array",
        "label": "string[][]",
        "numberOfBytes": "32",
        "base": "t_array(t_string_storage)dyn_storage"
      },
      "t_array(t_string_storage)dyn_storage": {
        "encoding": "dynamic_array",
        "label": "string[]",
        "numberOfBytes": "32",
        "base": "t_string_storage"
      },
      "t_array(t_uint256)49_storage": {
        "encoding": "inplace",
        "label": "uint256[49]",
        "numberOfBytes": "1568",
        "base": "t_uint256"
      },
      "t_array(t_uint256)50_storage": {
        "encoding": "inplace",
        "label": "uint256[50]",
        "numberOfBytes": "1600",
        "base": "t_uint256"
      },
      "t_bool": {
        "encoding": "inplace",
        "label": "bool",
        "numberOfBytes": "1"
      },
      "t_contract(EmailWalletCore)66089": {
        "encoding": "inplace",
        "label": "contract EmailWalletCore",
        "numberOfBytes": "20"
      },
      "t_mapping(t_string_memory_ptr,t_address)": {
        "encoding": "mapping",
        "key": "t_string_memory_ptr",
        "label": "mapping(string => address)",
        "numberOfBytes": "32",
        "value": "t_address"
      },
      "t_string_memory_ptr": {
        "encoding": "bytes",
        "label": "string",
        "numberOfBytes": "32"
      },
      "t_string_storage": {
        "encoding": "bytes",
        "label": "string",
        "numberOfBytes": "32"
      },
      "t_uint256": {
        "encoding": "inplace",
        "label": "uint256",
        "numberOfBytes": "32"
      },
      "t_uint8": {
        "encoding": "inplace",
        "label": "uint8",
        "numberOfBytes": "1"
      }
    }
  },
  "id": 135
}