{
  "abi": [
    {
      "inputs": [
        {
          "internalType": "address",
          "name": "coreAddr",
          "type": "address"
        }
      ],
      "stateMutability": "nonpayable",
      "type": "constructor"
    },
    {
      "anonymous": false,
      "inputs": [
        {
          "indexed": true,
          "internalType": "address",
          "name": "previousOwner",
          "type": "address"
        },
        {
          "indexed": true,
          "internalType": "address",
          "name": "newOwner",
          "type": "address"
        }
      ],
      "name": "OwnershipTransferred",
      "type": "event"
    },
    {
      "inputs": [
        {
          "internalType": "string",
          "name": "",
          "type": "string"
        }
      ],
      "name": "addressOfNFTName",
      "outputs": [
        {
          "internalType": "address",
          "name": "",
          "type": "address"
        }
      ],
      "stateMutability": "view",
      "type": "function"
    },
    {
      "inputs": [
        {
          "components": [
            {
              "internalType": "uint256",
              "name": "id",
              "type": "uint256"
            },
            {
              "internalType": "bytes32",
              "name": "emailAddrCommit",
              "type": "bytes32"
            },
            {
              "internalType": "address",
              "name": "extensionAddr",
              "type": "address"
            },
            {
              "internalType": "address",
              "name": "sender",
              "type": "address"
            },
            {
              "internalType": "bytes",
              "name": "state",
              "type": "bytes"
            },
            {
              "internalType": "uint256",
              "name": "expiryTime",
              "type": "uint256"
            }
          ],
          "internalType": "struct UnclaimedState",
          "name": "unclaimedState",
          "type": "tuple"
        },
        {
          "internalType": "address",
          "name": "wallet",
          "type": "address"
        }
      ],
      "name": "claimUnclaimedState",
      "outputs": [],
      "stateMutability": "nonpayable",
      "type": "function"
    },
    {
      "inputs": [],
      "name": "core",
      "outputs": [
        {
          "internalType": "contract EmailWalletCore",
          "name": "",
          "type": "address"
        }
      ],
      "stateMutability": "view",
      "type": "function"
    },
    {
      "inputs": [
        {
          "internalType": "uint8",
          "name": "templateIndex",
          "type": "uint8"
        },
        {
          "internalType": "bytes[]",
          "name": "subjectParams",
          "type": "bytes[]"
        },
        {
          "internalType": "address",
          "name": "wallet",
          "type": "address"
        },
        {
          "internalType": "bool",
          "name": "hasEmailRecipient",
          "type": "bool"
        },
        {
          "internalType": "address",
          "name": "recipientETHAddr",
          "type": "address"
        },
        {
          "internalType": "bytes32",
          "name": "",
          "type": "bytes32"
        }
      ],
      "name": "execute",
      "outputs": [],
      "stateMutability": "nonpayable",
      "type": "function"
    },
    {
      "inputs": [
        {
          "internalType": "address",
          "name": "",
          "type": "address"
        },
        {
          "internalType": "address",
          "name": "",
          "type": "address"
        },
        {
          "internalType": "uint256",
          "name": "",
          "type": "uint256"
        },
        {
          "internalType": "bytes",
          "name": "",
          "type": "bytes"
        }
      ],
      "name": "onERC721Received",
      "outputs": [
        {
          "internalType": "bytes4",
          "name": "",
          "type": "bytes4"
        }
      ],
      "stateMutability": "pure",
      "type": "function"
    },
    {
      "inputs": [],
      "name": "owner",
      "outputs": [
        {
          "internalType": "address",
          "name": "",
          "type": "address"
        }
      ],
      "stateMutability": "view",
      "type": "function"
    },
    {
      "inputs": [
        {
          "components": [
            {
              "internalType": "uint256",
              "name": "id",
              "type": "uint256"
            },
            {
              "internalType": "bytes32",
              "name": "emailAddrCommit",
              "type": "bytes32"
            },
            {
              "internalType": "address",
              "name": "extensionAddr",
              "type": "address"
            },
            {
              "internalType": "address",
              "name": "sender",
              "type": "address"
            },
            {
              "internalType": "bytes",
              "name": "state",
              "type": "bytes"
            },
            {
              "internalType": "uint256",
              "name": "expiryTime",
              "type": "uint256"
            }
          ],
          "internalType": "struct UnclaimedState",
          "name": "unclaimedState",
          "type": "tuple"
        },
        {
          "internalType": "bool",
          "name": "",
          "type": "bool"
        }
      ],
      "name": "registerUnclaimedState",
      "outputs": [],
      "stateMutability": "nonpayable",
      "type": "function"
    },
    {
      "inputs": [],
      "name": "renounceOwnership",
      "outputs": [],
      "stateMutability": "nonpayable",
      "type": "function"
    },
    {
      "inputs": [
        {
          "internalType": "string",
          "name": "nftName",
          "type": "string"
        },
        {
          "internalType": "address",
          "name": "addr",
          "type": "address"
        }
      ],
      "name": "setNFTAddress",
      "outputs": [],
      "stateMutability": "nonpayable",
      "type": "function"
    },
    {
      "inputs": [
        {
          "internalType": "uint256",
          "name": "",
          "type": "uint256"
        },
        {
          "internalType": "uint256",
          "name": "",
          "type": "uint256"
        }
      ],
      "name": "templates",
      "outputs": [
        {
          "internalType": "string",
          "name": "",
          "type": "string"
        }
      ],
      "stateMutability": "view",
      "type": "function"
    },
    {
      "inputs": [
        {
          "internalType": "address",
          "name": "newOwner",
          "type": "address"
        }
      ],
      "name": "transferOwnership",
      "outputs": [],
      "stateMutability": "nonpayable",
      "type": "function"
    },
    {
      "inputs": [
        {
          "components": [
            {
              "internalType": "uint256",
              "name": "id",
              "type": "uint256"
            },
            {
              "internalType": "bytes32",
              "name": "emailAddrCommit",
              "type": "bytes32"
            },
            {
              "internalType": "address",
              "name": "extensionAddr",
              "type": "address"
            },
            {
              "internalType": "address",
              "name": "sender",
              "type": "address"
            },
            {
              "internalType": "bytes",
              "name": "state",
              "type": "bytes"
            },
            {
              "internalType": "uint256",
              "name": "expiryTime",
              "type": "uint256"
            }
          ],
          "internalType": "struct UnclaimedState",
          "name": "unclaimedState",
          "type": "tuple"
        }
      ],
      "name": "voidUnclaimedState",
      "outputs": [],
      "stateMutability": "nonpayable",
      "type": "function"
    }
  ],
  "bytecode": {
    "object": "0x6002608081815260e06040529060a05b60608152602001906001900390816200000f57505080516200003a9160039160209091019062000310565b503480156200004857600080fd5b5060405162001d3038038062001d308339810160408190526200006b91620004e3565b6200007633620002c0565b600180546001600160a01b0319166001600160a01b0383161790556040805161012081018252600360e082018181526213919560ea1b610100840152825282518084018452600481526314d95b9960e21b602080830191909152808401919091528351808501855260068152657b75696e747d60d01b81830152838501528351808501855260028082526137b360f11b8284015260608501919091528451808601865260088152677b737472696e677d60c01b8184015260808501528451808601865290815261746f60f01b8183015260a08401528351808501909452600b84526a7b726563697069656e747d60a81b9084015260c0820192909252815490919060009062000189576200018962000515565b90600052602060002001906007620001a392919062000374565b506040805161012081018252600360e082018181526213919560ea1b6101008401528252825180840184526007815266417070726f766560c81b6020828101919091528084019190915283518085018552600b81526a7b726563697069656e747d60a81b818301528385015283518085018552828152623337b960e91b8183015260608401528351808501855260068152657b75696e747d60d01b81830152608084015283518085018552600281526137b360f11b8183015260a0840152835180850190945260088452677b737472696e677d60c01b9084015260c0820192909252815490919060019081106200029e576200029e62000515565b90600052602060002001906007620002b892919062000374565b505062000686565b600080546001600160a01b038381166001600160a01b0319831681178455604051919092169283917f8be0079c531659141344cd1fd0a4f28419497f9722a3daafe3b4186f6b6457e09190a35050565b82805482825590600052602060002090810192821562000362579160200282015b8281111562000362578251805162000351918491602090910190620003cd565b509160200191906001019062000331565b506200037092915062000418565b5090565b828054828255906000526020600020908101928215620003bf579160200282015b82811115620003bf5782518290620003ae9082620005ba565b509160200191906001019062000395565b506200037092915062000439565b828054828255906000526020600020908101928215620003bf579160200282015b82811115620003bf5782518290620004079082620005ba565b5091602001919060010190620003ee565b80821115620003705760006200042f82826200045a565b5060010162000418565b80821115620003705760006200045082826200047d565b5060010162000439565b50805460008255906000526020600020908101906200047a919062000439565b50565b5080546200048b906200052b565b6000825580601f106200049c575050565b601f0160209004906000526020600020908101906200047a91905b80821115620003705760008155600101620004b7565b634e487b7160e01b600052604160045260246000fd5b600060208284031215620004f657600080fd5b81516001600160a01b03811681146200050e57600080fd5b9392505050565b634e487b7160e01b600052603260045260246000fd5b600181811c908216806200054057607f821691505b6020821081036200056157634e487b7160e01b600052602260045260246000fd5b50919050565b601f821115620005b557600081815260208120601f850160051c81016020861015620005905750805b601f850160051c820191505b81811015620005b1578281556001016200059c565b5050505b505050565b81516001600160401b03811115620005d657620005d6620004cd565b620005ee81620005e784546200052b565b8462000567565b602080601f8311600181146200062657600084156200060d5750858301515b600019600386901b1c1916600185901b178555620005b1565b600085815260208120601f198616915b82811015620006575788860151825594840194600190910190840162000636565b5085821015620006765787850151600019600388901b60f8161c191681555b5050505050600190811b01905550565b61169a80620006966000396000f3fe608060405234801561001057600080fd5b50600436106100a45760003560e01c8063150b7a02146100a95780633ed4f16a146100e65780636ba64bc5146100fb578063715018a61461010e5780638da5cb5b146101165780638eb0930c14610136578063b91ad65114610149578063d07e01891461015c578063e93977e81461017c578063f2f4eb261461018f578063f2fde38b146101a2578063fd72aa30146101b5575b600080fd5b6100c86100b7366004610f75565b630a85bd0160e11b95945050505050565b6040516001600160e01b031990911681526020015b60405180910390f35b6100f96100f4366004611194565b6101e9565b005b6100f96101093660046111e1565b6104bf565b6100f96105cd565b61011e6105e1565b6040516001600160a01b0390911681526020016100dd565b6100f9610144366004611232565b6105f0565b6100f9610157366004611267565b610734565b61016f61016a3660046112a3565b61087a565b6040516100dd9190611315565b6100f961018a36600461132f565b61093f565b60015461011e906001600160a01b031681565b6100f96101b0366004611444565b610e28565b61011e6101c3366004611461565b80516020818301810180516002825292820191909301209152546001600160a01b031681565b6001546001600160a01b03163314806102895750600160009054906101000a90046001600160a01b03166001600160a01b031663d5e5c1c86040518163ffffffff1660e01b8152600401602060405180830381865afa158015610250573d6000803e3d6000fd5b505050506040513d601f19601f820116820180604052508101906102749190611495565b6001600160a01b0316336001600160a01b0316145b6102ae5760405162461bcd60e51b81526004016102a5906114b2565b60405180910390fd5b60008083608001518060200190518101906102c991906114da565b60405163020604bf60e21b8152600481018290529193509150829030906001600160a01b0383169063081812fc90602401602060405180830381865afa158015610317573d6000803e3d6000fd5b505050506040513d601f19601f8201168201806040525081019061033b9190611495565b6001600160a01b0316146103915760405162461bcd60e51b815260206004820152601d60248201527f4e4654206e6f7420617070726f76656420746f20657874656e73696f6e00000060448201526064016102a5565b6060850151604051632142170760e11b81526001600160a01b038316916342842e0e916103c5919030908790600401611508565b600060405180830381600087803b1580156103df57600080fd5b505af11580156103f3573d6000803e3d6000fd5b50506040516331a9108f60e11b8152600481018590523092506001600160a01b0384169150636352211e90602401602060405180830381865afa15801561043e573d6000803e3d6000fd5b505050506040513d601f19601f820116820180604052508101906104629190611495565b6001600160a01b0316146104b85760405162461bcd60e51b815260206004820181905260248201527f4e4654206e6f74207472616e7366657272656420746f20657874656e73696f6e60448201526064016102a5565b5050505050565b6104c7610ea1565b60006001600160a01b03166002836040516104e2919061152c565b908152604051908190036020019020546001600160a01b0316146105415760405162461bcd60e51b815260206004820152601660248201527513919508185b1c9958591e481c9959da5cdd195c995960521b60448201526064016102a5565b6001600160a01b0381166105895760405162461bcd60e51b815260206004820152600f60248201526e696e76616c6964206164647265737360881b60448201526064016102a5565b8060028360405161059a919061152c565b90815260405190819003602001902080546001600160a01b03929092166001600160a01b03199092169190911790555050565b6105d5610ea1565b6105df6000610f00565b565b6000546001600160a01b031690565b6001546001600160a01b03163314806106905750600160009054906101000a90046001600160a01b03166001600160a01b031663d5e5c1c86040518163ffffffff1660e01b8152600401602060405180830381865afa158015610657573d6000803e3d6000fd5b505050506040513d601f19601f8201168201806040525081019061067b9190611495565b6001600160a01b0316336001600160a01b0316145b6106ac5760405162461bcd60e51b81526004016102a5906114b2565b60008083608001518060200190518101906106c791906114da565b604051632142170760e11b815291935091506001600160a01b038316906342842e0e906106fc90309087908690600401611508565b600060405180830381600087803b15801561071657600080fd5b505af115801561072a573d6000803e3d6000fd5b5050505050505050565b6001546001600160a01b03163314806107d45750600160009054906101000a90046001600160a01b03166001600160a01b031663d5e5c1c86040518163ffffffff1660e01b8152600401602060405180830381865afa15801561079b573d6000803e3d6000fd5b505050506040513d601f19601f820116820180604052508101906107bf9190611495565b6001600160a01b0316336001600160a01b0316145b6107f05760405162461bcd60e51b81526004016102a5906114b2565b600080826080015180602001905181019061080b91906114da565b91509150816001600160a01b03166342842e0e308560600151846040518463ffffffff1660e01b815260040161084393929190611508565b600060405180830381600087803b15801561085d57600080fd5b505af1158015610871573d6000803e3d6000fd5b50505050505050565b6003828154811061088a57600080fd5b9060005260206000200181815481106108a257600080fd5b906000526020600020016000915091505080546108be90611548565b80601f01602080910402602001604051908101604052809291908181526020018280546108ea90611548565b80156109375780601f1061090c57610100808354040283529160200191610937565b820191906000526020600020905b81548152906001019060200180831161091a57829003601f168201915b505050505081565b6001546001600160a01b03163314806109df5750600160009054906101000a90046001600160a01b03166001600160a01b031663d5e5c1c86040518163ffffffff1660e01b8152600401602060405180830381865afa1580156109a6573d6000803e3d6000fd5b505050506040513d601f19601f820116820180604052508101906109ca9190611495565b6001600160a01b0316336001600160a01b0316145b6109fb5760405162461bcd60e51b81526004016102a5906114b2565b600085600081518110610a1057610a10611582565b6020026020010151806020019051810190610a2b9190611598565b9050600086600181518110610a4257610a42611582565b6020026020010151806020019051810190610a5d91906115b1565b90506000600282604051610a71919061152c565b908152604051908190036020019020546001600160a01b0316905080610ac75760405162461bcd60e51b815260206004820152600b60248201526a1a5b9d985b1a590813919560aa1b60448201526064016102a5565b8860ff16600003610d0e578515610c0a5760003084604051602401610aed929190611627565b60408051601f198184030181529181526020820180516001600160e01b031663095ea7b360e01b17905260015490516321d71c8f60e01b81529192506001600160a01b0316906321d71c8f90610b499085908590600401611640565b600060405180830381600087803b158015610b6357600080fd5b505af1158015610b77573d6000803e3d6000fd5b5050505060008285604051602001610b90929190611627565b60408051601f198184030181529082905260015463326bcfc760e21b83529092506001600160a01b03169063c9af3f1c90610bd19030908590600401611640565b600060405180830381600087803b158015610beb57600080fd5b505af1158015610bff573d6000803e3d6000fd5b505050505050610d06565b6001600160a01b038516610c5f5760405162461bcd60e51b815260206004820152601c60248201527b39b437bab632103430bb32903932b1b4b834b2b73a22aa2420b2323960211b60448201526064016102a5565b6000878685604051602401610c7693929190611508565b60408051601f198184030181529181526020820180516001600160e01b0316632142170760e11b17905260015490516321d71c8f60e01b81529192506001600160a01b0316906321d71c8f90610cd29085908590600401611640565b600060405180830381600087803b158015610cec57600080fd5b505af1158015610d00573d6000803e3d6000fd5b50505050505b505050610e20565b8860ff16600103610de0576001600160a01b038516610d6f5760405162461bcd60e51b815260206004820152601f60248201527f73686f756c642068617665204554482061646420666f7220617070726f76650060448201526064016102a5565b60008584604051602401610d84929190611627565b60408051601f198184030181529181526020820180516001600160e01b031663095ea7b360e01b17905260015490516321d71c8f60e01b81529192506001600160a01b0316906321d71c8f90610cd29085908590600401611640565b60405162461bcd60e51b81526020600482015260156024820152740d2dcecc2d8d2c840e8cadae0d8c2e8ca92dcc8caf605b1b60448201526064016102a5565b505050505050565b610e30610ea1565b6001600160a01b038116610e955760405162461bcd60e51b815260206004820152602660248201527f4f776e61626c653a206e6577206f776e657220697320746865207a65726f206160448201526564647265737360d01b60648201526084016102a5565b610e9e81610f00565b50565b33610eaa6105e1565b6001600160a01b0316146105df5760405162461bcd60e51b815260206004820181905260248201527f4f776e61626c653a2063616c6c6572206973206e6f7420746865206f776e657260448201526064016102a5565b600080546001600160a01b038381166001600160a01b0319831681178455604051919092169283917f8be0079c531659141344cd1fd0a4f28419497f9722a3daafe3b4186f6b6457e09190a35050565b6001600160a01b0381168114610e9e57600080fd5b8035610f7081610f50565b919050565b600080600080600060808688031215610f8d57600080fd5b8535610f9881610f50565b94506020860135610fa881610f50565b93506040860135925060608601356001600160401b0380821115610fcb57600080fd5b818801915088601f830112610fdf57600080fd5b813581811115610fee57600080fd5b89602082850101111561100057600080fd5b9699959850939650602001949392505050565b634e487b7160e01b600052604160045260246000fd5b604051601f8201601f191681016001600160401b038111828210171561105157611051611013565b604052919050565b60006001600160401b0382111561107257611072611013565b50601f01601f191660200190565b600082601f83011261109157600080fd5b81356110a461109f82611059565b611029565b8181528460208386010111156110b957600080fd5b816020850160208301376000918101602001919091529392505050565b600060c082840312156110e857600080fd5b60405160c081016001600160401b03808211838310171561110b5761110b611013565b8160405282935084358352602085013560208401526040850135915061113082610f50565b8160408401526060850135915061114682610f50565b816060840152608085013591508082111561116057600080fd5b5061116d85828601611080565b60808301525060a083013560a08201525092915050565b80358015158114610f7057600080fd5b600080604083850312156111a757600080fd5b82356001600160401b038111156111bd57600080fd5b6111c9858286016110d6565b9250506111d860208401611184565b90509250929050565b600080604083850312156111f457600080fd5b82356001600160401b0381111561120a57600080fd5b61121685828601611080565b925050602083013561122781610f50565b809150509250929050565b6000806040838503121561124557600080fd5b82356001600160401b0381111561125b57600080fd5b611216858286016110d6565b60006020828403121561127957600080fd5b81356001600160401b0381111561128f57600080fd5b61129b848285016110d6565b949350505050565b600080604083850312156112b657600080fd5b50508035926020909101359150565b60005b838110156112e05781810151838201526020016112c8565b50506000910152565b600081518084526113018160208601602086016112c5565b601f01601f19169290920160200192915050565b60208152600061132860208301846112e9565b9392505050565b60008060008060008060c0878903121561134857600080fd5b863560ff8116811461135957600080fd5b95506020878101356001600160401b038082111561137657600080fd5b818a0191508a601f83011261138a57600080fd5b81358181111561139c5761139c611013565b8060051b6113ab858201611029565b918252838101850191858101908e8411156113c557600080fd5b86860192505b838310156113ff5784833511156113e157600080fd5b6113f08f888535890101611080565b825291860191908601906113cb565b809b505050505050505061141560408801610f65565b935061142360608801611184565b925061143160808801610f65565b915060a087013590509295509295509295565b60006020828403121561145657600080fd5b813561132881610f50565b60006020828403121561147357600080fd5b81356001600160401b0381111561148957600080fd5b61129b84828501611080565b6000602082840312156114a757600080fd5b815161132881610f50565b6020808252600e908201526d34b73b30b634b21039b2b73232b960911b604082015260600190565b600080604083850312156114ed57600080fd5b82516114f881610f50565b6020939093015192949293505050565b6001600160a01b039384168152919092166020820152604081019190915260600190565b6000825161153e8184602087016112c5565b9190910192915050565b600181811c9082168061155c57607f821691505b60208210810361157c57634e487b7160e01b600052602260045260246000fd5b50919050565b634e487b7160e01b600052603260045260246000fd5b6000602082840312156115aa57600080fd5b5051919050565b6000602082840312156115c357600080fd5b81516001600160401b038111156115d957600080fd5b8201601f810184136115ea57600080fd5b80516115f861109f82611059565b81815285602083850101111561160d57600080fd5b61161e8260208301602086016112c5565b95945050505050565b6001600160a01b03929092168252602082015260400190565b6001600160a01b038316815260406020820181905260009061129b908301846112e956fea26469706673582212207c7974b033b7991702f7fd01a5062011eab50aac39c390e56c2d9b0eee16219964736f6c63430008110033",
    "linkReferences": {}
  },
  "methodIdentifiers": {
    "addressOfNFTName(string)": "fd72aa30",
    "claimUnclaimedState((uint256,bytes32,address,address,bytes,uint256),address)": "8eb0930c",
    "core()": "f2f4eb26",
    "execute(uint8,bytes[],address,bool,address,bytes32)": "e93977e8",
    "onERC721Received(address,address,uint256,bytes)": "150b7a02",
    "owner()": "8da5cb5b",
    "registerUnclaimedState((uint256,bytes32,address,address,bytes,uint256),bool)": "3ed4f16a",
    "renounceOwnership()": "715018a6",
    "setNFTAddress(string,address)": "6ba64bc5",
    "templates(uint256,uint256)": "d07e0189",
    "transferOwnership(address)": "f2fde38b",
    "voidUnclaimedState((uint256,bytes32,address,address,bytes,uint256))": "b91ad651"
  },
  "id": 131
}