{"abi":[{"type":"constructor","inputs":[{"name":"factoryAddr","type":"address","internalType":"address"},{"name":"wethAddr","type":"address","internalType":"address"}],"stateMutability":"nonpayable"},{"type":"function","name":"UNISWAP_DEFAULT_POOL_FEE","inputs":[],"outputs":[{"name":"","type":"uint24","internalType":"uint24"}],"stateMutability":"view"},{"type":"function","name":"factory","inputs":[],"outputs":[{"name":"","type":"address","internalType":"contract IUniswapV3Factory"}],"stateMutability":"view"},{"type":"function","name":"getRecentPriceInETH","inputs":[{"name":"token","type":"address","internalType":"address"}],"outputs":[{"name":"","type":"uint256","internalType":"uint256"}],"stateMutability":"view"},{"type":"function","name":"getTWAPInWETH","inputs":[{"name":"tokenAddr","type":"address","internalType":"address"},{"name":"twapInterval","type":"uint32","internalType":"uint32"}],"outputs":[{"name":"price","type":"uint256","internalType":"uint256"}],"stateMutability":"view"},{"type":"function","name":"weth","inputs":[],"outputs":[{"name":"","type":"address","internalType":"address"}],"stateMutability":"view"},{"type":"error","name":"T","inputs":[]}],"bytecode":{"object":"0x608060405234801561001057600080fd5b5060405161108638038061108683398101604081905261002f9161007c565b600080546001600160a01b039384166001600160a01b031991821617909155600180549290931691161790556100af565b80516001600160a01b038116811461007757600080fd5b919050565b6000806040838503121561008f57600080fd5b61009883610060565b91506100a660208401610060565b90509250929050565b610fc8806100be6000396000f3fe608060405234801561001057600080fd5b50600436106100675760003560e01c80634fb81b2b116100505780634fb81b2b146100d75780638dcbe43d146100ea578063c45a01551461010757600080fd5b806301857da81461006c5780633fc8cef314610092575b600080fd5b61007f61007a3660046109f8565b610127565b6040519081526020015b60405180910390f35b6001546100b29073ffffffffffffffffffffffffffffffffffffffff1681565b60405173ffffffffffffffffffffffffffffffffffffffff9091168152602001610089565b61007f6100e5366004610a15565b61013b565b6100f3610bb881565b60405162ffffff9091168152602001610089565b6000546100b29073ffffffffffffffffffffffffffffffffffffffff1681565b600061013582610e1061013b565b92915050565b600080546001546040517f1698ee8200000000000000000000000000000000000000000000000000000000815273ffffffffffffffffffffffffffffffffffffffff86811660048301529182166024820152610bb8604482015283929190911690631698ee8290606401602060405180830381865afa1580156101c2573d6000803e3d6000fd5b505050506040513d601f19601f820116820180604052508101906101e69190610a57565b90506000808273ffffffffffffffffffffffffffffffffffffffff16630dfe16816040518163ffffffff1660e01b8152600401602060405180830381865afa158015610236573d6000803e3d6000fd5b505050506040513d601f19601f8201168201806040525081019061025a9190610a57565b60408051600481526024810182526020810180517bffffffffffffffffffffffffffffffffffffffffffffffffffffffff167f313ce56700000000000000000000000000000000000000000000000000000000179052905173ffffffffffffffffffffffffffffffffffffffff92909216916102d69190610a74565b600060405180830381855afa9150503d8060008114610311576040519150601f19603f3d011682016040523d82523d6000602084013e610316565b606091505b509150915081610386576040517f08c379a000000000000000000000000000000000000000000000000000000000815260206004820152601a60248201527f746f6b656e20646563696d616c732063616c6c206661696c6564000000000000604482015260640160405180910390fd5b60008180602001905181019061039c9190610aa3565b604080516002808252606082018352929350600092909160208301908036833701905050905086816000815181106103d6576103d6610af5565b602002602001019063ffffffff16908163ffffffff168152505060008160018151811061040557610405610af5565b63ffffffff909216602092830291909101909101526040517f883bdbfd00000000000000000000000000000000000000000000000000000000815260009073ffffffffffffffffffffffffffffffffffffffff87169063883bdbfd9061046f908590600401610b24565b600060405180830381865afa15801561048c573d6000803e3d6000fd5b505050506040513d6000823e601f3d9081017fffffffffffffffffffffffffffffffffffffffffffffffffffffffffffffffe01682016040526104d29190810190610c59565b50905060008863ffffffff16826000815181106104f1576104f1610af5565b60200260200101518360018151811061050c5761050c610af5565b602002602001015161051e9190610d54565b6105289190610dc8565b905060006105358261059b565b9050600061056773ffffffffffffffffffffffffffffffffffffffff8316806c01000000000000000000000000610902565b905061058b8161057888600a610f83565b6c01000000000000000000000000610902565b9c9b505050505050505050505050565b60008060008360020b126105b2578260020b6105ba565b8260020b6000035b9050620d89e88111156105f9576040517f2bc80f3a00000000000000000000000000000000000000000000000000000000815260040160405180910390fd5b60008160011660000361061d5770010000000000000000000000000000000061062f565b6ffffcb933bd6fad37aa2d162d1a5940015b70ffffffffffffffffffffffffffffffffff1690506002821615610663576ffff97272373d413259a46990580e213a0260801c5b6004821615610682576ffff2e50f5f656932ef12357cf3c7fdcc0260801c5b60088216156106a1576fffe5caca7e10e4e61c3624eaa0941cd00260801c5b60108216156106c0576fffcb9843d60f6159c9db58835c9266440260801c5b60208216156106df576fff973b41fa98c081472e6896dfb254c00260801c5b60408216156106fe576fff2ea16466c96a3843ec78b326b528610260801c5b608082161561071d576ffe5dee046a99a2a811c461f1969c30530260801c5b61010082161561073d576ffcbe86c7900a88aedcffc83b479aa3a40260801c5b61020082161561075d576ff987a7253ac413176f2b074cf7815e540260801c5b61040082161561077d576ff3392b0822b70005940c7a398e4b70f30260801c5b61080082161561079d576fe7159475a2c29b7443b29c7fa6e889d90260801c5b6110008216156107bd576fd097f3bdfd2022b8845ad8f792aa58250260801c5b6120008216156107dd576fa9f746462d870fdf8a65dc1f90e061e50260801c5b6140008216156107fd576f70d869a156d2a1b890bb3df62baf32f70260801c5b61800082161561081d576f31be135f97d08fd981231505542fcfa60260801c5b6201000082161561083e576f09aa508b5b7a84e1c677de54f3e99bc90260801c5b6202000082161561085e576e5d6af8dedb81196699c329225ee6040260801c5b6204000082161561087d576d2216e584f5fa1ea926041bedfe980260801c5b6208000082161561089a576b048a170391f7dc42444e8fa20260801c5b60008460020b13156108d957807fffffffffffffffffffffffffffffffffffffffffffffffffffffffffffffffff816108d5576108d5610d99565b0490505b6401000000008106156108ed5760016108f0565b60005b60ff16602082901c0192505050919050565b600080807fffffffffffffffffffffffffffffffffffffffffffffffffffffffffffffffff85870985870292508281108382030391505080600003610959576000841161094e57600080fd5b5082900490506109cc565b80841161096557600080fd5b6000848688096000868103871696879004966002600389028118808a02820302808a02820302808a02820302808a02820302808a02820302808a02909103029181900381900460010186841190950394909402919094039290920491909117919091029150505b9392505050565b73ffffffffffffffffffffffffffffffffffffffff811681146109f557600080fd5b50565b600060208284031215610a0a57600080fd5b81356109cc816109d3565b60008060408385031215610a2857600080fd5b8235610a33816109d3565b9150602083013563ffffffff81168114610a4c57600080fd5b809150509250929050565b600060208284031215610a6957600080fd5b81516109cc816109d3565b6000825160005b81811015610a955760208186018101518583015201610a7b565b506000920191825250919050565b600060208284031215610ab557600080fd5b815160ff811681146109cc57600080fd5b7f4e487b7100000000000000000000000000000000000000000000000000000000600052604160045260246000fd5b7f4e487b7100000000000000000000000000000000000000000000000000000000600052603260045260246000fd5b6020808252825182820181905260009190848201906040850190845b81811015610b6257835163ffffffff1683529284019291840191600101610b40565b50909695505050505050565b604051601f82017fffffffffffffffffffffffffffffffffffffffffffffffffffffffffffffffe016810167ffffffffffffffff81118282101715610bb557610bb5610ac6565b604052919050565b600067ffffffffffffffff821115610bd757610bd7610ac6565b5060051b60200190565b600082601f830112610bf257600080fd5b81516020610c07610c0283610bbd565b610b6e565b8083825260208201915060208460051b870101935086841115610c2957600080fd5b602086015b84811015610c4e578051610c41816109d3565b8352918301918301610c2e565b509695505050505050565b60008060408385031215610c6c57600080fd5b825167ffffffffffffffff80821115610c8457600080fd5b818501915085601f830112610c9857600080fd5b81516020610ca8610c0283610bbd565b82815260059290921b84018101918181019089841115610cc757600080fd5b948201945b83861015610cf55785518060060b8114610ce65760008081fd5b82529482019490820190610ccc565b91880151919650909350505080821115610d0e57600080fd5b50610d1b85828601610be1565b9150509250929050565b7f4e487b7100000000000000000000000000000000000000000000000000000000600052601160045260246000fd5b600682810b9082900b037fffffffffffffffffffffffffffffffffffffffffffffffffff800000000000008112667fffffffffffff8213171561013557610135610d25565b7f4e487b7100000000000000000000000000000000000000000000000000000000600052601260045260246000fd5b60008160060b8360060b80610e06577f4e487b7100000000000000000000000000000000000000000000000000000000600052601260045260246000fd5b7fffffffffffffffffffffffffffffffffffffffffffffffffffffffffffffffff81147fffffffffffffffffffffffffffffffffffffffffffffffffff8000000000000083141615610e5a57610e5a610d25565b90059392505050565b600181815b80851115610ebc57817fffffffffffffffffffffffffffffffffffffffffffffffffffffffffffffffff04821115610ea257610ea2610d25565b80851615610eaf57918102915b93841c9390800290610e68565b509250929050565b600082610ed357506001610135565b81610ee057506000610135565b8160018114610ef65760028114610f0057610f1c565b6001915050610135565b60ff841115610f1157610f11610d25565b50506001821b610135565b5060208310610133831016604e8410600b8410161715610f3f575081810a610135565b610f498383610e63565b807fffffffffffffffffffffffffffffffffffffffffffffffffffffffffffffffff04821115610f7b57610f7b610d25565b029392505050565b60006109cc60ff841683610ec456fea2646970667358221220486742f7f4c6a6110496ef720355c53675b4b9683630eaceee6c88ef11b6564d64736f6c63430008170033","linkReferences":{}},"methodIdentifiers":{"UNISWAP_DEFAULT_POOL_FEE()":"8dcbe43d","factory()":"c45a0155","getRecentPriceInETH(address)":"01857da8","getTWAPInWETH(address,uint32)":"4fb81b2b","weth()":"3fc8cef3"},"storageLayout":{"storage":[{"astId":66126,"contract":"src/utils/UniswapTWAPOracle.sol:UniswapTWAPOracle","label":"factory","offset":0,"slot":"0","type":"t_contract(IUniswapV3Factory)2968"},{"astId":66128,"contract":"src/utils/UniswapTWAPOracle.sol:UniswapTWAPOracle","label":"weth","offset":0,"slot":"1","type":"t_address"}],"types":{"t_address":{"encoding":"inplace","label":"address","numberOfBytes":"20"},"t_contract(IUniswapV3Factory)2968":{"encoding":"inplace","label":"contract IUniswapV3Factory","numberOfBytes":"20"}}},"id":137}