{
  "abi": [
    {
      "inputs": [
        {
          "internalType": "address",
          "name": "factoryAddr",
          "type": "address"
        },
        {
          "internalType": "address",
          "name": "wethAddr",
          "type": "address"
        }
      ],
      "stateMutability": "nonpayable",
      "type": "constructor"
    },
    {
      "inputs": [],
      "name": "T",
      "type": "error"
    },
    {
      "inputs": [],
      "name": "UNISWAP_DEFAULT_POOL_FEE",
      "outputs": [
        {
          "internalType": "uint24",
          "name": "",
          "type": "uint24"
        }
      ],
      "stateMutability": "view",
      "type": "function"
    },
    {
      "inputs": [],
      "name": "factory",
      "outputs": [
        {
          "internalType": "contract IUniswapV3Factory",
          "name": "",
          "type": "address"
        }
      ],
      "stateMutability": "view",
      "type": "function"
    },
    {
      "inputs": [
        {
          "internalType": "address",
          "name": "token",
          "type": "address"
        }
      ],
      "name": "getRecentPriceInETH",
      "outputs": [
        {
          "internalType": "uint256",
          "name": "",
          "type": "uint256"
        }
      ],
      "stateMutability": "view",
      "type": "function"
    },
    {
      "inputs": [
        {
          "internalType": "address",
          "name": "tokenAddr",
          "type": "address"
        },
        {
          "internalType": "uint32",
          "name": "twapInterval",
          "type": "uint32"
        }
      ],
      "name": "getTWAPInWETH",
      "outputs": [
        {
          "internalType": "uint256",
          "name": "price",
          "type": "uint256"
        }
      ],
      "stateMutability": "view",
      "type": "function"
    },
    {
      "inputs": [],
      "name": "weth",
      "outputs": [
        {
          "internalType": "address",
          "name": "",
          "type": "address"
        }
      ],
      "stateMutability": "view",
      "type": "function"
    }
  ],
  "bytecode": {
    "object": "0x608060405234801561001057600080fd5b50604051610dbf380380610dbf83398101604081905261002f9161007c565b600080546001600160a01b039384166001600160a01b031991821617909155600180549290931691161790556100af565b80516001600160a01b038116811461007757600080fd5b919050565b6000806040838503121561008f57600080fd5b61009883610060565b91506100a660208401610060565b90509250929050565b610d01806100be6000396000f3fe608060405234801561001057600080fd5b50600436106100575760003560e01c806301857da81461005c5780633fc8cef3146100825780634fb81b2b146100ad5780638dcbe43d146100c0578063c45a0155146100dd575b600080fd5b61006f61006a366004610859565b6100f0565b6040519081526020015b60405180910390f35b600154610095906001600160a01b031681565b6040516001600160a01b039091168152602001610079565b61006f6100bb366004610876565b610104565b6100c9610bb881565b60405162ffffff9091168152602001610079565b600054610095906001600160a01b031681565b60006100fe82610e10610104565b92915050565b60008054600154604051630b4c774160e11b81526001600160a01b0386811660048301529182166024820152610bb8604482015283929190911690631698ee8290606401602060405180830381865afa158015610165573d6000803e3d6000fd5b505050506040513d601f19601f8201168201806040525081019061018991906108b8565b9050600080826001600160a01b0316630dfe16816040518163ffffffff1660e01b8152600401602060405180830381865afa1580156101cc573d6000803e3d6000fd5b505050506040513d601f19601f820116820180604052508101906101f091906108b8565b60408051600481526024810182526020810180516001600160e01b031663313ce56760e01b17905290516001600160a01b03929092169161023191906108d5565b600060405180830381855afa9150503d806000811461026c576040519150601f19603f3d011682016040523d82523d6000602084013e610271565b606091505b5091509150816102c45760405162461bcd60e51b815260206004820152601a6024820152791d1bdad95b88191958da5b585b1cc818d85b1b0819985a5b195960321b604482015260640160405180910390fd5b6000818060200190518101906102da9190610904565b604080516002808252606082018352929350600092909160208301908036833701905050905086816000815181106103145761031461093d565b602002602001019063ffffffff16908163ffffffff16815250506000816001815181106103435761034361093d565b63ffffffff9092166020928302919091019091015260405163883bdbfd60e01b81526000906001600160a01b0387169063883bdbfd90610387908590600401610953565b600060405180830381865afa1580156103a4573d6000803e3d6000fd5b505050506040513d6000823e601f3d908101601f191682016040526103cc9190810190610a68565b50905060008863ffffffff16826000815181106103eb576103eb61093d565b6020026020010151836001815181106104065761040661093d565b60200260200101516104189190610b49565b6104229190610b8c565b9050600061042f82610476565b9050600061044b6001600160a01b03831680600160601b61078e565b90506104668161045c88600a610cbc565b600160601b61078e565b9c9b505050505050505050505050565b60008060008360020b1261048d578260020b610495565b8260020b6000035b9050620d89e88111156104bb576040516315e4079d60e11b815260040160405180910390fd5b6000816001166000036104d257600160801b6104e4565b6ffffcb933bd6fad37aa2d162d1a5940015b6001600160881b03169050600282161561050e576ffff97272373d413259a46990580e213a0260801c5b600482161561052d576ffff2e50f5f656932ef12357cf3c7fdcc0260801c5b600882161561054c576fffe5caca7e10e4e61c3624eaa0941cd00260801c5b601082161561056b576fffcb9843d60f6159c9db58835c9266440260801c5b602082161561058a576fff973b41fa98c081472e6896dfb254c00260801c5b60408216156105a9576fff2ea16466c96a3843ec78b326b528610260801c5b60808216156105c8576ffe5dee046a99a2a811c461f1969c30530260801c5b6101008216156105e8576ffcbe86c7900a88aedcffc83b479aa3a40260801c5b610200821615610608576ff987a7253ac413176f2b074cf7815e540260801c5b610400821615610628576ff3392b0822b70005940c7a398e4b70f30260801c5b610800821615610648576fe7159475a2c29b7443b29c7fa6e889d90260801c5b611000821615610668576fd097f3bdfd2022b8845ad8f792aa58250260801c5b612000821615610688576fa9f746462d870fdf8a65dc1f90e061e50260801c5b6140008216156106a8576f70d869a156d2a1b890bb3df62baf32f70260801c5b6180008216156106c8576f31be135f97d08fd981231505542fcfa60260801c5b620100008216156106e9576f09aa508b5b7a84e1c677de54f3e99bc90260801c5b62020000821615610709576e5d6af8dedb81196699c329225ee6040260801c5b62040000821615610728576d2216e584f5fa1ea926041bedfe980260801c5b62080000821615610745576b048a170391f7dc42444e8fa20260801c5b60008460020b131561076657806000198161076257610762610b76565b0490505b600160201b81061561077957600161077c565b60005b60ff16602082901c0192505050919050565b60008080600019858709858702925082811083820303915050806000036107c757600084116107bc57600080fd5b50829004905061083a565b8084116107d357600080fd5b6000848688096000868103871696879004966002600389028118808a02820302808a02820302808a02820302808a02820302808a02820302808a02909103029181900381900460010186841190950394909402919094039290920491909117919091029150505b9392505050565b6001600160a01b038116811461085657600080fd5b50565b60006020828403121561086b57600080fd5b813561083a81610841565b6000806040838503121561088957600080fd5b823561089481610841565b9150602083013563ffffffff811681146108ad57600080fd5b809150509250929050565b6000602082840312156108ca57600080fd5b815161083a81610841565b6000825160005b818110156108f657602081860181015185830152016108dc565b506000920191825250919050565b60006020828403121561091657600080fd5b815160ff8116811461083a57600080fd5b634e487b7160e01b600052604160045260246000fd5b634e487b7160e01b600052603260045260246000fd5b6020808252825182820181905260009190848201906040850190845b8181101561099157835163ffffffff168352928401929184019160010161096f565b50909695505050505050565b604051601f8201601f191681016001600160401b03811182821017156109c5576109c5610927565b604052919050565b60006001600160401b038211156109e6576109e6610927565b5060051b60200190565b600082601f830112610a0157600080fd5b81516020610a16610a11836109cd565b61099d565b8083825260208201915060208460051b870101935086841115610a3857600080fd5b602086015b84811015610a5d578051610a5081610841565b8352918301918301610a3d565b509695505050505050565b60008060408385031215610a7b57600080fd5b82516001600160401b0380821115610a9257600080fd5b818501915085601f830112610aa657600080fd5b81516020610ab6610a11836109cd565b82815260059290921b84018101918181019089841115610ad557600080fd5b948201945b83861015610b035785518060060b8114610af45760008081fd5b82529482019490820190610ada565b91880151919650909350505080821115610b1c57600080fd5b50610b29858286016109f0565b9150509250929050565b634e487b7160e01b600052601160045260246000fd5b600682810b9082900b03667fffffffffffff198112667fffffffffffff821317156100fe576100fe610b33565b634e487b7160e01b600052601260045260246000fd5b60008160060b8360060b80610bb157634e487b7160e01b600052601260045260246000fd5b667fffffffffffff19821460001982141615610bcf57610bcf610b33565b90059392505050565b600181815b80851115610c13578160001904821115610bf957610bf9610b33565b80851615610c0657918102915b93841c9390800290610bdd565b509250929050565b600082610c2a575060016100fe565b81610c37575060006100fe565b8160018114610c4d5760028114610c5757610c73565b60019150506100fe565b60ff841115610c6857610c68610b33565b50506001821b6100fe565b5060208310610133831016604e8410600b8410161715610c96575081810a6100fe565b610ca08383610bd8565b8060001904821115610cb457610cb4610b33565b029392505050565b600061083a60ff841683610c1b56fea26469706673582212205511dd614c21f4851cfbe30383f27ec708c7bca804f08b158473f34729e56b0464736f6c63430008170033",
    "linkReferences": {}
  },
  "methodIdentifiers": {
    "UNISWAP_DEFAULT_POOL_FEE()": "8dcbe43d",
    "factory()": "c45a0155",
    "getRecentPriceInETH(address)": "01857da8",
    "getTWAPInWETH(address,uint32)": "4fb81b2b",
    "weth()": "3fc8cef3"
  },
  "id": 149
}