{
  "abi": [
    {
      "inputs": [
        {
          "internalType": "uint256",
          "name": "amount",
          "type": "uint256"
        }
      ],
      "name": "uintToDecimalString",
      "outputs": [
        {
          "internalType": "string",
          "name": "",
          "type": "string"
        }
      ],
      "stateMutability": "pure",
      "type": "function"
    },
    {
      "inputs": [
        {
          "internalType": "uint256",
          "name": "amount",
          "type": "uint256"
        },
        {
          "internalType": "uint256",
          "name": "decimal",
          "type": "uint256"
        }
      ],
      "name": "uintToDecimalString",
      "outputs": [
        {
          "internalType": "string",
          "name": "",
          "type": "string"
        }
      ],
      "stateMutability": "pure",
      "type": "function"
    }
  ],
  "bytecode": {
    "object": "0x6106f361003a600b82828239805160001a60731461002d57634e487b7160e01b600052600060045260246000fd5b30600052607381538281f3fe73000000000000000000000000000000000000000030146080604052600436106100405760003560e01c80636f186a7914610045578063f41ce7db1461006e575b600080fd5b61005861005336600461055e565b610081565b6040516100659190610577565b60405180910390f35b61005861007c3660046105c5565b610094565b606061008e826012610094565b92915050565b606060006100a1846103f6565b8051909150600060ff821685106100c2576100bd8560026105fd565b6100d1565b6100cd826001610610565b60ff165b6001600160401b038111156100e8576100e8610629565b6040519080825280601f01601f191660200182016040528015610112576020820181803683370190505b508051909150600060ff841687106101335761012e848361063f565b610136565b60015b60ff1690506000808061014a60018661063f565b90505b600161015c8b60ff8816610658565b6101669190610658565b8160ff16036101bd5782156101b457601760f91b868260ff168151811061018f5761018f61066b565b60200101906001600160f81b031916908160001a905350816101b081610681565b9250505b60009350610312565b898760ff16111580156101de57506101d5878661063f565b60ff168160ff16105b1561022657600360fc1b868260ff16815181106101fd576101fd61066b565b60200101906001600160f81b031916908160001a9053508161021e81610681565b925050610312565b8280610230575083155b1561027357876102438560ff8416610658565b815181106102535761025361066b565b602001015160f81c60f81b868260ff16815181106101fd576101fd61066b565b876102818560ff8416610658565b815181106102915761029161066b565b6020910101516001600160f81b031916600360fc1b1461031257876102b98560ff8416610658565b815181106102c9576102c961066b565b602001015160f81c60f81b868260ff16815181106102e9576102e961066b565b60200101906001600160f81b031916908160001a9053508161030a81610681565b925050600192505b60ff81161561032d5780610325816106a0565b91505061014d565b5060008160ff166001600160401b0381111561034b5761034b610629565b6040519080825280601f01601f191660200182016040528015610375576020820181803683370190505b50905060005b8260ff168160ff1610156103e757868160ff168151811061039e5761039e61066b565b602001015160f81c60f81b828260ff16815181106103be576103be61066b565b60200101906001600160f81b031916908160001a905350806103df81610681565b91505061037b565b509a9950505050505050505050565b6060600061040383610488565b60010190506000816001600160401b0381111561042257610422610629565b6040519080825280601f01601f19166020018201604052801561044c576020820181803683370190505b5090508181016020015b600019016f181899199a1a9b1b9c1cb0b131b232b360811b600a86061a8153600a850494508461045657509392505050565b60008072184f03e93ff9f4daa797ed6e38ed64bf6a1f0160401b83106104c75772184f03e93ff9f4daa797ed6e38ed64bf6a1f0160401b830492506040015b6904ee2d6d415b85acef8160201b83106104f1576904ee2d6d415b85acef8160201b830492506020015b662386f26fc10000831061050f57662386f26fc10000830492506010015b6305f5e1008310610527576305f5e100830492506008015b612710831061053b57612710830492506004015b6064831061054d576064830492506002015b600a831061008e5760010192915050565b60006020828403121561057057600080fd5b5035919050565b600060208083528351808285015260005b818110156105a457858101830151858201604001528201610588565b506000604082860101526040601f19601f8301168501019250505092915050565b600080604083850312156105d857600080fd5b50508035926020909101359150565b634e487b7160e01b600052601160045260246000fd5b8082018082111561008e5761008e6105e7565b60ff818116838216019081111561008e5761008e6105e7565b634e487b7160e01b600052604160045260246000fd5b60ff828116828216039081111561008e5761008e6105e7565b8181038181111561008e5761008e6105e7565b634e487b7160e01b600052603260045260246000fd5b600060ff821660ff8103610697576106976105e7565b60010192915050565b600060ff8216806106b3576106b36105e7565b600019019291505056fea26469706673582212208060e4b227a472ce98408a23d1092cfac1fe45edd63238590c8eaa3855deb09264736f6c63430008150033",
    "linkReferences": {}
  },
  "methodIdentifiers": {
    "uintToDecimalString(uint256)": "6f186a79",
    "uintToDecimalString(uint256,uint256)": "f41ce7db"
  },
  "id": 141
}