{
  "abi": [
    {
      "inputs": [
        {
          "internalType": "uint256",
          "name": "amount",
          "type": "uint256"
        }
      ],
      "name": "uintToDecimalString",
      "outputs": [
        {
          "internalType": "string",
          "name": "",
          "type": "string"
        }
      ],
      "stateMutability": "pure",
      "type": "function"
    },
    {
      "inputs": [
        {
          "internalType": "uint256",
          "name": "amount",
          "type": "uint256"
        },
        {
          "internalType": "uint256",
          "name": "decimal",
          "type": "uint256"
        }
      ],
      "name": "uintToDecimalString",
      "outputs": [
        {
          "internalType": "string",
          "name": "",
          "type": "string"
        }
      ],
      "stateMutability": "pure",
      "type": "function"
    }
  ],
  "bytecode": {
    "object": "0x61088061003a600b82828239805160001a60731461002d57634e487b7160e01b600052600060045260246000fd5b30600052607381538281f3fe73000000000000000000000000000000000000000030146080604052600436106100405760003560e01c80636f186a7914610045578063f41ce7db1461006e575b600080fd5b610058610053366004610664565b610081565b604051610065919061067d565b60405180910390f35b61005861007c3660046106e9565b610094565b606061008e826012610094565b92915050565b606060006100a1846104c4565b8051909150600060ff821685106100c2576100bd85600261073a565b6100d1565b6100cd82600161074d565b60ff165b67ffffffffffffffff8111156100e9576100e9610766565b6040519080825280601f01601f191660200182016040528015610113576020820181803683370190505b508051909150600060ff841687106101345761012f8483610795565b610137565b60015b60ff1690506000808061014b600186610795565b90505b600161015d8b60ff88166107ae565b61016791906107ae565b8160ff16036101f25782156101e9577f2e00000000000000000000000000000000000000000000000000000000000000868260ff16815181106101ac576101ac6107c1565b60200101907effffffffffffffffffffffffffffffffffffffffffffffffffffffffffffff1916908160001a905350816101e5816107f0565b9250505b600093506103c7565b898760ff1611158015610213575061020a8786610795565b60ff168160ff16105b1561028f577f3000000000000000000000000000000000000000000000000000000000000000868260ff168151811061024e5761024e6107c1565b60200101907effffffffffffffffffffffffffffffffffffffffffffffffffffffffffffff1916908160001a90535081610287816107f0565b9250506103c7565b8280610299575083155b156102dc57876102ac8560ff84166107ae565b815181106102bc576102bc6107c1565b602001015160f81c60f81b868260ff168151811061024e5761024e6107c1565b876102ea8560ff84166107ae565b815181106102fa576102fa6107c1565b6020910101517fff00000000000000000000000000000000000000000000000000000000000000167f3000000000000000000000000000000000000000000000000000000000000000146103c757876103568560ff84166107ae565b81518110610366576103666107c1565b602001015160f81c60f81b868260ff1681518110610386576103866107c1565b60200101907effffffffffffffffffffffffffffffffffffffffffffffffffffffffffffff1916908160001a905350816103bf816107f0565b925050600192505b60ff8116156103e257806103da8161080f565b91505061014e565b5060008160ff1667ffffffffffffffff81111561040157610401610766565b6040519080825280601f01601f19166020018201604052801561042b576020820181803683370190505b50905060005b8260ff168160ff1610156104b557868160ff1681518110610454576104546107c1565b602001015160f81c60f81b828260ff1681518110610474576104746107c1565b60200101907effffffffffffffffffffffffffffffffffffffffffffffffffffffffffffff1916908160001a905350806104ad816107f0565b915050610431565b509a9950505050505050505050565b606060006104d183610582565b600101905060008167ffffffffffffffff8111156104f1576104f1610766565b6040519080825280601f01601f19166020018201604052801561051b576020820181803683370190505b5090508181016020015b7fffffffffffffffffffffffffffffffffffffffffffffffffffffffffffffffff017f3031323334353637383961626364656600000000000000000000000000000000600a86061a8153600a850494508461052557509392505050565b6000807a184f03e93ff9f4daa797ed6e38ed64bf6a1f01000000000000000083106105cb577a184f03e93ff9f4daa797ed6e38ed64bf6a1f010000000000000000830492506040015b6d04ee2d6d415b85acef810000000083106105f7576d04ee2d6d415b85acef8100000000830492506020015b662386f26fc10000831061061557662386f26fc10000830492506010015b6305f5e100831061062d576305f5e100830492506008015b612710831061064157612710830492506004015b60648310610653576064830492506002015b600a831061008e5760010192915050565b60006020828403121561067657600080fd5b5035919050565b600060208083528351808285015260005b818110156106aa5785810183015185820160400152820161068e565b5060006040828601015260407fffffffffffffffffffffffffffffffffffffffffffffffffffffffffffffffe0601f8301168501019250505092915050565b600080604083850312156106fc57600080fd5b50508035926020909101359150565b7f4e487b7100000000000000000000000000000000000000000000000000000000600052601160045260246000fd5b8082018082111561008e5761008e61070b565b60ff818116838216019081111561008e5761008e61070b565b7f4e487b7100000000000000000000000000000000000000000000000000000000600052604160045260246000fd5b60ff828116828216039081111561008e5761008e61070b565b8181038181111561008e5761008e61070b565b7f4e487b7100000000000000000000000000000000000000000000000000000000600052603260045260246000fd5b600060ff821660ff81036108065761080661070b565b60010192915050565b600060ff8216806108225761082261070b565b7fffffffffffffffffffffffffffffffffffffffffffffffffffffffffffffffff019291505056fea2646970667358221220612d37cdb31c26cffdf11ab5b8ec971ce8840cd4d1ade936d58b27a1c6256bfc64736f6c63430008150033",
    "linkReferences": {}
  },
  "methodIdentifiers": {
    "uintToDecimalString(uint256)": "6f186a79",
    "uintToDecimalString(uint256,uint256)": "f41ce7db"
  },
  "storageLayout": {
    "storage": [],
    "types": {}
  },
  "id": 149
}