{
  "abi": [
    {
      "inputs": [],
      "stateMutability": "nonpayable",
      "type": "constructor"
    },
    {
      "inputs": [],
      "name": "accountHandler",
      "outputs": [
        {
          "internalType": "address",
          "name": "",
          "type": "address"
        }
      ],
      "stateMutability": "view",
      "type": "function"
    },
    {
      "inputs": [],
      "name": "emailValidityDuration",
      "outputs": [
        {
          "internalType": "uint256",
          "name": "",
          "type": "uint256"
        }
      ],
      "stateMutability": "view",
      "type": "function"
    },
    {
      "inputs": [
        {
          "internalType": "bytes",
          "name": "emailOpBytes",
          "type": "bytes"
        }
      ],
      "name": "executeEmailOp",
      "outputs": [
        {
          "internalType": "bool",
          "name": "success",
          "type": "bool"
        },
        {
          "internalType": "bytes",
          "name": "returnData",
          "type": "bytes"
        }
      ],
      "stateMutability": "nonpayable",
      "type": "function"
    },
    {
      "inputs": [],
      "name": "executor",
      "outputs": [
        {
          "internalType": "address",
          "name": "",
          "type": "address"
        }
      ],
      "stateMutability": "view",
      "type": "function"
    },
    {
      "inputs": [],
      "name": "extensionHandler",
      "outputs": [
        {
          "internalType": "address",
          "name": "",
          "type": "address"
        }
      ],
      "stateMutability": "view",
      "type": "function"
    },
    {
      "inputs": [],
      "name": "maxFeePerGas",
      "outputs": [
        {
          "internalType": "uint256",
          "name": "",
          "type": "uint256"
        }
      ],
      "stateMutability": "view",
      "type": "function"
    },
    {
      "inputs": [],
      "name": "priceOracle",
      "outputs": [
        {
          "internalType": "contract IPriceOracle",
          "name": "",
          "type": "address"
        }
      ],
      "stateMutability": "view",
      "type": "function"
    },
    {
      "inputs": [],
      "name": "relayerHandler",
      "outputs": [
        {
          "internalType": "address",
          "name": "",
          "type": "address"
        }
      ],
      "stateMutability": "view",
      "type": "function"
    },
    {
      "inputs": [],
      "name": "tokenRegistry",
      "outputs": [
        {
          "internalType": "contract TokenRegistry",
          "name": "",
          "type": "address"
        }
      ],
      "stateMutability": "view",
      "type": "function"
    },
    {
      "inputs": [
        {
          "internalType": "address",
          "name": "sender",
          "type": "address"
        },
        {
          "internalType": "address",
          "name": "recipientAddr",
          "type": "address"
        },
        {
          "internalType": "address",
          "name": "tokenAddr",
          "type": "address"
        },
        {
          "internalType": "uint256",
          "name": "amount",
          "type": "uint256"
        }
      ],
      "name": "transferERC20",
      "outputs": [
        {
          "internalType": "bool",
          "name": "success",
          "type": "bool"
        },
        {
          "internalType": "bytes",
          "name": "returnData",
          "type": "bytes"
        }
      ],
      "stateMutability": "nonpayable",
      "type": "function"
    },
    {
      "inputs": [],
      "name": "unclaimRegisterHandler",
      "outputs": [
        {
          "internalType": "address",
          "name": "",
          "type": "address"
        }
      ],
      "stateMutability": "view",
      "type": "function"
    },
    {
      "inputs": [],
      "name": "unclaimedFundClaimGas",
      "outputs": [
        {
          "internalType": "uint256",
          "name": "",
          "type": "uint256"
        }
      ],
      "stateMutability": "view",
      "type": "function"
    },
    {
      "inputs": [],
      "name": "unclaimedStateClaimGas",
      "outputs": [
        {
          "internalType": "uint256",
          "name": "",
          "type": "uint256"
        }
      ],
      "stateMutability": "view",
      "type": "function"
    },
    {
      "inputs": [],
      "name": "unclaimsExpiryDuration",
      "outputs": [
        {
          "internalType": "uint256",
          "name": "",
          "type": "uint256"
        }
      ],
      "stateMutability": "view",
      "type": "function"
    },
    {
      "inputs": [],
      "name": "verifier",
      "outputs": [
        {
          "internalType": "contract IVerifier",
          "name": "",
          "type": "address"
        }
      ],
      "stateMutability": "view",
      "type": "function"
    },
    {
      "inputs": [],
      "name": "walletImplementation",
      "outputs": [
        {
          "internalType": "address",
          "name": "",
          "type": "address"
        }
      ],
      "stateMutability": "view",
      "type": "function"
    },
    {
      "inputs": [],
      "name": "wethContract",
      "outputs": [
        {
          "internalType": "address",
          "name": "",
          "type": "address"
        }
      ],
      "stateMutability": "view",
      "type": "function"
    }
  ],
  "bytecode": {
    "object": "0x608060405234801561001057600080fd5b5060016013556120e5806100256000396000f3fe608060405234801561001057600080fd5b50600436106100db5760003560e01c806325159b84146100e05780632630c12f146101095780632728bf2c1461011c5780632b7ac3f31461013357806333ddfb9a146101465780634780eac1146101595780635e5f26101461016c578063662217341461017f5780638117abc1146101885780639d23c4c71461019b5780639f6d1d83146101ae578063a87fedae146101c1578063b90d36f9146101ca578063c34c08e5146101d3578063c5e5f148146101e6578063cdbe49f014610207578063da3e8ce414610210575b600080fd5b6012546100f3906001600160a01b031681565b60405161010091906115df565b60405180910390f35b6002546100f3906001600160a01b031681565b61012560055481565b604051908152602001610100565b6000546100f3906001600160a01b031681565b600f546100f3906001600160a01b031681565b6003546100f3906001600160a01b031681565b6010546100f3906001600160a01b031681565b61012560075481565b6004546100f3906001600160a01b031681565b6001546100f3906001600160a01b031681565b6011546100f3906001600160a01b031681565b61012560085481565b61012560065481565b600e546100f3906001600160a01b031681565b6101f96101f43660046116aa565b610223565b60405161010092919061177f565b61012560095481565b6101f961021e3660046117b7565b6112f5565b60006060610231600061154d565b60008380602001905181019061024791906119e2565b9050610253600161154d565b61027d81608001516040518060400160405280600481526020016314d95b9960e21b815250611595565b156106eb576101e081015160208201511580156102c357506102c3826101e00151600001516040518060400160405280600381526020016208aa8960eb1b815250611595565b1561048257600a5460035460208301516040516001600160a01b0393841693849363b61d27f6939116916000916103009160240190815260200190565b60408051601f198184030181529181526020820180516001600160e01b0316632e1a7d4d60e01b1790525160e085901b6001600160e01b031916815261034b93929190600401611bf9565b600060405180830381600087803b15801561036557600080fd5b505af1925050508015610376575060015b6103ec57610382611c20565b806308c379a0036103ac5750610396611c3c565b806103a157506103ae565b60009550935061047a565b505b600094506040518060400160405280601a8152602001790cae4e440c6dedceccae4e8d2dcce40ae8aa89040e8de408aa8960331b815250935061047a565b60608301516020830151604051635b0e93fb60e11b81526001600160a01b0384169263b61d27f692610443926004016001600160a01b03929092168252602082015260606040820181905260009082015260800190565b600060405180830381600087803b15801561045d57600080fd5b505af1158015610471573d6000803e3d6000fd5b50505050600194505b505050915091565b61048c600061154d565b600082602001516104a15782606001516104a3565b305b90506104af600061154d565b6001546101e084015151604051636204891b60e11b81526000926001600160a01b03169163c4091236916104e69190600401611cc5565b602060405180830381865afa158015610503573d6000803e3d6000fd5b505050506040513d601f19601f820116820180604052508101906105279190611cdf565b9050610533600061154d565b600a546020840151610552916001600160a01b031690849084906112f5565b90965094508561056f57610566600161154d565b50505050915091565b610579600261154d565b8360200151156106e3576000600954426105939190611d12565b6040805160a08101825287820180518252600a546001600160a01b039081166020808501918252888316858701908152908b01516060860190815260808601888152601254955197516308a6f04760e41b81526004810198909852865160248901529251841660448801529051831660648701525160848601525160a485015293945090921690638a6f04709060c401600060405180830381600087803b15801561063d57600080fd5b505af1158015610651573d6000803e3d6000fd5b50505050604086810151602087810151600a5484516001600160a01b0389811682529381019290925291909116818401526060810185905260006080820181905260c060a08301819052820152915190917f912982e961dea1d7e701e1582435b2699ff8079534dcca45d65a43a82b67a2dc919081900360e00190a25050600b805460ff60a01b1916600160a01b1790555b5050506112ef565b6107188160800151604051806040016040528060078152602001664578656375746560c81b815250611595565b1561082557600080600083610160015180602001905181019061073b9190611d25565b600a54604051635b0e93fb60e11b815293965091945092506001600160a01b03169063b61d27f69061077590869086908690600401611bf9565b600060405180830381600087803b15801561078f57600080fd5b505af19250505080156107a0575060015b610819576107ac611c20565b806308c379a0036107d657506107c0611c3c565b806107cb57506107d8565b6000965094506106e3565b505b600095506040518060400160405280602081526020017f65727220657865637574696e672063616c6c64617461206f6e2077616c6c657481525094506106e3565b600195505050506112ef565b610852816080015160405180604001604052806007815260200166125b9cdd185b1b60ca1b815250611595565b156109c457601154610180820151604051630efb62f960e11b81526000926001600160a01b031691631df6c5f29161088d9190600401611cc5565b602060405180830381865afa1580156108aa573d6000803e3d6000fd5b505050506040513d601f19601f820116820180604052508101906108ce9190611cdf565b6011546040516393ec497160e01b81529192506000916001600160a01b03909116906393ec49719061090890859085908190600401611d7e565b600060405180830381865afa158015610925573d6000803e3d6000fd5b505050506040513d6000823e601f3d908101601f1916820160405261094d9190810190611d9f565b601154600a5460405163349aa82960e01b81529293506001600160a01b039182169263349aa8299261098792169085908790600401611dd3565b600060405180830381600087803b1580156109a157600080fd5b505af11580156109b5573d6000803e3d6000fd5b505050506001945050506112ef565b6109f3816080015160405180604001604052806009815260200168155b9a5b9cdd185b1b60ba1b815250611595565b15610b2957601154610180820151604051630efb62f960e11b81526000926001600160a01b031691631df6c5f291610a2e9190600401611cc5565b602060405180830381865afa158015610a4b573d6000803e3d6000fd5b505050506040513d601f19601f82011682018060405250810190610a6f9190611cdf565b6011546040516393ec497160e01b81529192506000916001600160a01b03909116906393ec497190610aa990859085908190600401611d7e565b600060405180830381865afa158015610ac6573d6000803e3d6000fd5b505050506040513d6000823e601f3d908101601f19168201604052610aee9190810190611d9f565b601154600a5460405163349aa82960e01b81529293506001600160a01b039182169263349aa829926109879216908590600090600401611dd3565b610b53816080015160405180604001604052806004815260200163115e1a5d60e21b815250611595565b15610c1c57600a546101a082015160405163f2fde38b60e01b81526001600160a01b039092169163f2fde38b91610b8c916004016115df565b600060405180830381600087803b158015610ba657600080fd5b505af1925050508015610bb7575060015b610c1357610bc3611c20565b806308c379a003610bed5750610bd7611c3c565b80610be25750610bef565b6000935091506112ef565b505b600092506040518060600160405280602981526020016120876029913991506112ef565b600192506112ef565b610c46816080015160405180604001604052806004815260200163444b494d60e01b815250611595565b15610da757600f548151604051635d2c8d1b60e11b815260048101919091526000916001600160a01b03169063ba591a3690602401602060405180830381865afa158015610c98573d6000803e3d6000fd5b505050506040513d601f19601f82011682018060405250810190610cbc9190611e08565b600f54604051636b0f047d60e01b8152600481018390529192506001600160a01b0316906340d20041908290636b0f047d90602401606060405180830381865afa158015610d0e573d6000803e3d6000fd5b505050506040513d601f19601f82011682018060405250810190610d329190611e21565b60400151846101c001516040518363ffffffff1660e01b8152600401610d6b9291909182526001600160a01b0316602082015260400190565b600060405180830381600087803b158015610d8557600080fd5b505af1158015610d99573d6000803e3d6000fd5b5050505060019350506112ef565b6011546080820151600a5460405163e0dc383960e01b81526000936001600160a01b039081169363e0dc383993610de49391921690600401611e8a565b602060405180830381865afa158015610e01573d6000803e3d6000fd5b505050506040513d601f19601f82011682018060405250810190610e259190611cdf565b600b80546001600160a01b0319166001600160a01b038381169182179092556011546102008601515160405163a8478d3160e01b8152600481019390935260ff1660248301529293506000928392169063a8478d3190604401600060405180830381865afa158015610e9b573d6000803e3d6000fd5b505050506040513d6000823e601f3d908101601f19168201604052610ec39190810190611eb4565b905060005b81518160ff161015611181576000828260ff1681518110610eeb57610eeb611f6f565b60200260200101519050610f24816040518060400160405280600d81526020016c7b746f6b656e416d6f756e747d60981b815250611595565b1561104257600080876102000151602001518660ff1681518110610f4a57610f4a611f6f565b6020026020010151806020019051810190610f659190611f85565b6040805180820191829052600154636204891b60e11b909252929450909250600d919081906001600160a01b031663c4091236610fa58660448501611cc5565b602060405180830381865afa158015610fc2573d6000803e3d6000fd5b505050506040513d601f19601f82011682018060405250810190610fe69190611cdf565b6001600160a01b0390811682526020918201869052835460018082018655600095865294839020845160029092020180546001600160a01b031916919092161781559101519101558561103881611fcc565b965050505061116e565b61106c81604051806040016040528060088152602001677b616d6f756e747d60c01b815250611595565b8061109c575061109c81604051806040016040528060088152602001677b737472696e677d60c01b815250611595565b806110ca57506110ca81604051806040016040528060068152602001657b75696e747d60d01b815250611595565b806110f757506110f781604051806040016040528060058152602001647b696e747d60d81b815250611595565b80611128575061112881604051806040016040528060098152602001687b616464726573737d60b81b815250611595565b8061115b575061115b816040518060400160405280600b81526020016a7b726563697069656e747d60a81b815250611595565b1561116e578361116a81611fcc565b9450505b508061117981611fcc565b915050610ec8565b50601154604051630bc75f7760e21b81526001600160a01b038086169263e93977e892911690632f1d7ddc906111bb9088906004016115df565b602060405180830381865afa1580156111d8573d6000803e3d6000fd5b505050506040513d601f19601f820116820180604052508101906111fc9190611e08565b6102008701518051602091820151600a54928a015160608b015160a08c01516040516001600160e01b031960e08a901b168152611248966001600160a01b031693929190600401611feb565b600060405180830381600088803b15801561126257600080fd5b5087f193505050508015611274575060015b6112e757611280611c20565b806308c379a0036112aa5750611294611c3c565b8061129f57506112ac565b600096509450610566565b505b600095506040518060400160405280601781526020017632b9391032bc32b1baba34b7339032bc3a32b739b4b7b760491b8152509450610566565b600195505050505b50915091565b600060606001600160a01b03841661134c5760405162461bcd60e51b8152602060048201526015602482015274696e76616c696420746f6b656e206164647265737360581b60448201526064015b60405180910390fd5b6000831161138d5760405162461bcd60e51b815260206004820152600e60248201526d1a5b9d985b1a5908185b5bdd5b9d60921b6044820152606401611343565b6001600160a01b0386166113dc5760405162461bcd60e51b8152602060048201526016602482015275696e76616c69642073656e646572206164647265737360501b6044820152606401611343565b6001600160a01b03851661142e5760405162461bcd60e51b8152602060048201526019602482015278696e76616c696420726563697069656e74206164647265737360381b6044820152606401611343565b604080516001600160a01b038781166024830152604480830187905283518084039091018152606490920183526020820180516001600160e01b031663a9059cbb60e01b1790529151635b0e93fb60e11b8152889283169163b61d27f69161149e91899160009190600401611bf9565b600060405180830381600087803b1580156114b857600080fd5b505af19250505080156114c9575060015b61153e576114d5611c20565b806308c379a00361150157506114e9611c3c565b806114f45750611503565b6000935091506115449050565b505b50506040805180820190915260198152783ab735b737bbb7103bb0b63632ba1032bc32b19032b93937b960391b602082015260009150611544565b60019250505b94509492505050565b6115928160405160240161156391815260200190565b60408051601f198184030181529190526020810180516001600160e01b031663f5b1bba960e01b1790526115b1565b50565b6000818051906020012083805190602001201490505b92915050565b80516a636f6e736f6c652e6c6f67602083016000808483855afa5050505050565b6001600160a01b03169052565b6001600160a01b0391909116815260200190565b634e487b7160e01b600052604160045260246000fd5b604081016001600160401b0381118282101715611628576116286115f3565b60405250565b601f8201601f191681016001600160401b0381118282101715611653576116536115f3565b6040525050565b60405161024081016001600160401b038111828210171561167d5761167d6115f3565b60405290565b60006001600160401b0382111561169c5761169c6115f3565b50601f01601f191660200190565b6000602082840312156116bc57600080fd5b81356001600160401b038111156116d257600080fd5b8201601f810184136116e357600080fd5b80356116ee81611683565b6040516116fb828261162e565b82815286602084860101111561171057600080fd5b8260208501602083013760009281016020019290925250949350505050565b60005b8381101561174a578181015183820152602001611732565b50506000910152565b6000815180845261176b81602086016020860161172f565b601f01601f19169290920160200192915050565b821515815260406020820152600061179a6040830184611753565b949350505050565b6001600160a01b038116811461159257600080fd5b600080600080608085870312156117cd57600080fd5b84356117d8816117a2565b935060208501356117e8816117a2565b925060408501356117f8816117a2565b9396929550929360600135925050565b8051801515811461181857600080fd5b919050565b8051611818816117a2565b600082601f83011261183957600080fd5b815161184481611683565b604051611851828261162e565b82815285602084870101111561186657600080fd5b61187783602083016020880161172f565b95945050505050565b60006040828403121561189257600080fd5b60405161189e81611609565b825190915081906001600160401b038111156118b957600080fd5b6118c585828601611828565b825250602083015160208201525092915050565b60006001600160401b038211156118f2576118f26115f3565b5060051b60200190565b60006040828403121561190e57600080fd5b60405161191a81611609565b809150825160ff8116811461192e57600080fd5b81526020838101516001600160401b038082111561194b57600080fd5b818601915086601f83011261195f57600080fd5b815161196a816118d9565b604051611977828261162e565b82815260059290921b840185019185810191508983111561199757600080fd5b8585015b838110156119cf578051858111156119b35760008081fd5b6119c18c89838a0101611828565b84525091860191860161199b565b5080868801525050505050505092915050565b6000602082840312156119f457600080fd5b81516001600160401b0380821115611a0b57600080fd5b908301906102408286031215611a2057600080fd5b611a2861165a565b82518152611a3860208401611808565b602082015260408301516040820152611a536060840161181d565b6060820152608083015182811115611a6a57600080fd5b611a7687828601611828565b60808301525060a083015160a082015260c083015182811115611a9857600080fd5b611aa487828601611828565b60c08301525060e083015160e08201526101008084015183811115611ac857600080fd5b611ad488828701611828565b8284015250506101208084015183811115611aee57600080fd5b611afa88828701611828565b8284015250506101408084015181830152506101608084015183811115611b2057600080fd5b611b2c88828701611828565b8284015250506101808084015183811115611b4657600080fd5b611b5288828701611828565b8284015250506101a0611b6681850161181d565b908201526101c0611b7884820161181d565b908201526101e08381015183811115611b9057600080fd5b611b9c88828701611880565b8284015250506102008084015183811115611bb657600080fd5b611bc2888287016118fc565b8284015250506102208084015183811115611bdc57600080fd5b611be888828701611828565b918301919091525095945050505050565b60018060a01b03841681528260208201526060604082015260006118776060830184611753565b600060033d1115611c395760046000803e5060005160e01c5b90565b600060443d1015611c4a5790565b6040516003193d81016004833e81513d6001600160401b038083116024840183101715611c7957505050505090565b8285019150815181811115611c915750505050505090565b843d8701016020828501011115611cab5750505050505090565b611cba6020828601018761162e565b509095945050505050565b602081526000611cd86020830184611753565b9392505050565b600060208284031215611cf157600080fd5b8151611cd8816117a2565b634e487b7160e01b600052601160045260246000fd5b808201808211156115ab576115ab611cfc565b600080600060608486031215611d3a57600080fd5b8351611d45816117a2565b6020850151604086015191945092506001600160401b03811115611d6857600080fd5b611d7486828701611828565b9150509250925092565b6001600160a01b039390931683526020830191909152604082015260600190565b600060208284031215611db157600080fd5b81516001600160401b03811115611dc757600080fd5b61179a84828501611828565b600060018060a01b03808616835260606020840152611df56060840186611753565b9150808416604084015250949350505050565b600060208284031215611e1a57600080fd5b5051919050565b600060608284031215611e3357600080fd5b604051606081016001600160401b0381118282101715611e5557611e556115f3565b6040528251611e63816117a2565b8152611e7160208401611808565b6020820152604083015160408201528091505092915050565b604081526000611e9d6040830185611753565b905060018060a01b03831660208301529392505050565b60006020808385031215611ec757600080fd5b82516001600160401b0380821115611ede57600080fd5b818501915085601f830112611ef257600080fd5b8151611efd816118d9565b604051611f0a828261162e565b82815260059290921b8401850191858101915088831115611f2a57600080fd5b8585015b83811015611f6257805185811115611f465760008081fd5b611f548b89838a0101611828565b845250918601918601611f2e565b5098975050505050505050565b634e487b7160e01b600052603260045260246000fd5b60008060408385031215611f9857600080fd5b825160208401519092506001600160401b03811115611fb657600080fd5b611fc285828601611828565b9150509250929050565b600060ff821660ff8103611fe257611fe2611cfc565b60010192915050565b600060c0820160ff89168352602060c08185015281895180845260e08601915060e08160051b8701019350828b0160005b8281101561204a5760df19888703018452612038868351611753565b9550928401929084019060010161201c565b50505050508091505061206060408301876115d2565b841515606083015261207560808301856115d2565b8260a083015297965050505050505056fe65727220657865637574696e67207472616e736665724f776e657273686970206f6e2077616c6c6574a26469706673582212206809e7386526d8e2317d5dd4c342cb22a422c51159fa6a7c141511c460530bb964736f6c63430008110033",
    "linkReferences": {}
  },
  "methodIdentifiers": {
    "accountHandler()": "33ddfb9a",
    "emailValidityDuration()": "b90d36f9",
    "executeEmailOp(bytes)": "c5e5f148",
    "executor()": "c34c08e5",
    "extensionHandler()": "9f6d1d83",
    "maxFeePerGas()": "2728bf2c",
    "priceOracle()": "2630c12f",
    "relayerHandler()": "5e5f2610",
    "tokenRegistry()": "9d23c4c7",
    "transferERC20(address,address,address,uint256)": "da3e8ce4",
    "unclaimRegisterHandler()": "25159b84",
    "unclaimedFundClaimGas()": "66221734",
    "unclaimedStateClaimGas()": "a87fedae",
    "unclaimsExpiryDuration()": "cdbe49f0",
    "verifier()": "2b7ac3f3",
    "walletImplementation()": "8117abc1",
    "wethContract()": "4780eac1"
  },
  "id": 111
}