{
  "abi": [
    {
      "inputs": [
        {
          "internalType": "address",
          "name": "tokenAddr",
          "type": "address"
        }
      ],
      "name": "getRecentPriceInETH",
      "outputs": [
        {
          "internalType": "uint256",
          "name": "",
          "type": "uint256"
        }
      ],
      "stateMutability": "view",
      "type": "function"
    }
  ],
  "bytecode": {
    "object": "0x608060405234801561001057600080fd5b50610292806100206000396000f3fe608060405234801561001057600080fd5b506004361061002b5760003560e01c806301857da814610030575b600080fd5b61004361003e36600461014d565b610055565b60405190815260200160405180910390f35b600080826001600160a01b03166306fdde036040518163ffffffff1660e01b8152600401600060405180830381865afa158015610096573d6000803e3d6000fd5b505050506040513d6000823e601f3d908101601f191682016040526100be9190810190610193565b90506100e5816040518060400160405280600381526020016244414960e81b815250610137565b80610111575061011181604051806040016040528060048152602001635553444360e01b815250610137565b156101275750685150ae84a8cdf0000092915050565b50670de0b6b3a764000092915050565b8051602091820120825192909101919091201490565b60006020828403121561015f57600080fd5b81356001600160a01b038116811461017657600080fd5b9392505050565b634e487b7160e01b600052604160045260246000fd5b600060208083850312156101a657600080fd5b82516001600160401b03808211156101bd57600080fd5b818501915085601f8301126101d157600080fd5b8151818111156101e3576101e361017d565b604051601f8201601f19908116603f0116810190838211818310171561020b5761020b61017d565b81604052828152888684870101111561022357600080fd5b600093505b828410156102455784840186015181850187015292850192610228565b60008684830101528096505050505050509291505056fea2646970667358221220c6e85503ce548576f1704d4f0341fd1cef94a98cd80a5adb18d70dddd93e4f4964736f6c63430008170033",
    "linkReferences": {}
  },
  "methodIdentifiers": {
    "getRecentPriceInETH(address)": "01857da8"
  },
  "id": 181
}