{
  "abi": [
    {
      "inputs": [
        {
          "internalType": "bytes32",
          "name": "",
          "type": "bytes32"
        },
        {
          "internalType": "bytes32",
          "name": "",
          "type": "bytes32"
        },
        {
          "internalType": "bytes32",
          "name": "",
          "type": "bytes32"
        },
        {
          "internalType": "bytes32",
          "name": "",
          "type": "bytes32"
        },
        {
          "internalType": "bytes",
          "name": "",
          "type": "bytes"
        },
        {
          "internalType": "bytes",
          "name": "proof",
          "type": "bytes"
        }
      ],
      "name": "verifyAccountCreationProof",
      "outputs": [
        {
          "internalType": "bool",
          "name": "",
          "type": "bool"
        }
      ],
      "stateMutability": "pure",
      "type": "function"
    },
    {
      "inputs": [
        {
          "internalType": "string",
          "name": "",
          "type": "string"
        },
        {
          "internalType": "bytes32",
          "name": "",
          "type": "bytes32"
        },
        {
          "internalType": "uint256",
          "name": "",
          "type": "uint256"
        },
        {
          "internalType": "bytes32",
          "name": "",
          "type": "bytes32"
        },
        {
          "internalType": "bytes32",
          "name": "",
          "type": "bytes32"
        },
        {
          "internalType": "bytes32",
          "name": "",
          "type": "bytes32"
        },
        {
          "internalType": "bytes32",
          "name": "",
          "type": "bytes32"
        },
        {
          "internalType": "bytes",
          "name": "proof",
          "type": "bytes"
        }
      ],
      "name": "verifyAccountInitializaionProof",
      "outputs": [
        {
          "internalType": "bool",
          "name": "",
          "type": "bool"
        }
      ],
      "stateMutability": "pure",
      "type": "function"
    },
    {
      "inputs": [
        {
          "internalType": "string",
          "name": "",
          "type": "string"
        },
        {
          "internalType": "bytes32",
          "name": "",
          "type": "bytes32"
        },
        {
          "internalType": "uint256",
          "name": "",
          "type": "uint256"
        },
        {
          "internalType": "bytes32",
          "name": "",
          "type": "bytes32"
        },
        {
          "internalType": "bytes32",
          "name": "",
          "type": "bytes32"
        },
        {
          "internalType": "bytes32",
          "name": "",
          "type": "bytes32"
        },
        {
          "internalType": "bytes32",
          "name": "",
          "type": "bytes32"
        },
        {
          "internalType": "bytes32",
          "name": "",
          "type": "bytes32"
        },
        {
          "internalType": "bytes",
          "name": "proof",
          "type": "bytes"
        }
      ],
      "name": "verifyAccountTransportProof",
      "outputs": [
        {
          "internalType": "bool",
          "name": "",
          "type": "bool"
        }
      ],
      "stateMutability": "pure",
      "type": "function"
    },
    {
      "inputs": [
        {
          "internalType": "bytes32",
          "name": "",
          "type": "bytes32"
        },
        {
          "internalType": "bytes32",
          "name": "",
          "type": "bytes32"
        },
        {
          "internalType": "bytes32",
          "name": "",
          "type": "bytes32"
        },
        {
          "internalType": "bytes",
          "name": "proof",
          "type": "bytes"
        }
      ],
      "name": "verifyClaimFundProof",
      "outputs": [
        {
          "internalType": "bool",
          "name": "",
          "type": "bool"
        }
      ],
      "stateMutability": "pure",
      "type": "function"
    },
    {
      "inputs": [
        {
          "internalType": "string",
          "name": "",
          "type": "string"
        },
        {
          "internalType": "bytes32",
          "name": "",
          "type": "bytes32"
        },
        {
          "internalType": "uint256",
          "name": "",
          "type": "uint256"
        },
        {
          "internalType": "string",
          "name": "",
          "type": "string"
        },
        {
          "internalType": "bytes32",
          "name": "",
          "type": "bytes32"
        },
        {
          "internalType": "bytes32",
          "name": "",
          "type": "bytes32"
        },
        {
          "internalType": "bytes32",
          "name": "",
          "type": "bytes32"
        },
        {
          "internalType": "bool",
          "name": "",
          "type": "bool"
        },
        {
          "internalType": "bytes32",
          "name": "",
          "type": "bytes32"
        },
        {
          "internalType": "bytes",
          "name": "proof",
          "type": "bytes"
        }
      ],
      "name": "verifyEmailOpProof",
      "outputs": [
        {
          "internalType": "bool",
          "name": "",
          "type": "bool"
        }
      ],
      "stateMutability": "pure",
      "type": "function"
    }
  ],
  "bytecode": {
    "object": "0x608060405234801561001057600080fd5b50610626806100206000396000f3fe608060405234801561001057600080fd5b50600436106100575760003560e01c806316999ab51461005c57806380dc37371461008357806387fac4ba14610096578063b4fe5792146100a9578063ce2e9f0e146100bc575b600080fd5b61006f61006a3660046102cc565b6100cf565b604051901515815260200160405180910390f35b61006f610091366004610354565b610113565b61006f6100a43660046103ad565b610155565b61006f6100b7366004610469565b61019c565b61006f6100ca36600461053d565b6101e4565b6000816000815181106100e4576100e46105da565b01602001516001600160f81b031916600160f81b0361010557506001610109565b5060005b9695505050505050565b600081600081518110610128576101286105da565b01602001516001600160f81b031916600160f81b036101495750600161014d565b5060005b949350505050565b60008160008151811061016a5761016a6105da565b01602001516001600160f81b031916600160f81b0361018b5750600161018f565b5060005b9998505050505050505050565b6000816000815181106101b1576101b16105da565b01602001516001600160f81b031916600160f81b036101d2575060016101d6565b5060005b9a9950505050505050505050565b6000816000815181106101f9576101f96105da565b01602001516001600160f81b031916600160f81b0361021a5750600161021e565b5060005b98975050505050505050565b634e487b7160e01b600052604160045260246000fd5b600082601f83011261025157600080fd5b81356001600160401b038082111561026b5761026b61022a565b604051601f8301601f19908116603f011681019082821181831017156102935761029361022a565b816040528381528660208588010111156102ac57600080fd5b836020870160208301376000602085830101528094505050505092915050565b60008060008060008060c087890312156102e557600080fd5b8635955060208701359450604087013593506060870135925060808701356001600160401b038082111561031857600080fd5b6103248a838b01610240565b935060a089013591508082111561033a57600080fd5b5061034789828a01610240565b9150509295509295509295565b6000806000806080858703121561036a57600080fd5b84359350602085013592506040850135915060608501356001600160401b0381111561039557600080fd5b6103a187828801610240565b91505092959194509250565b60008060008060008060008060006101208a8c0312156103cc57600080fd5b89356001600160401b03808211156103e357600080fd5b6103ef8d838e01610240565b9a5060208c0135995060408c0135985060608c0135975060808c0135965060a08c0135955060c08c0135945060e08c013593506101008c013591508082111561043757600080fd5b506104448c828d01610240565b9150509295985092959850929598565b8035801515811461046457600080fd5b919050565b6000806000806000806000806000806101408b8d03121561048957600080fd5b8a356001600160401b03808211156104a057600080fd5b6104ac8e838f01610240565b9b5060208d01359a5060408d0135995060608d01359150808211156104d057600080fd5b6104dc8e838f01610240565b985060808d0135975060a08d0135965060c08d013595506104ff60e08e01610454565b94506101008d013593506101208d013591508082111561051e57600080fd5b5061052b8d828e01610240565b9150509295989b9194979a5092959850565b600080600080600080600080610100898b03121561055a57600080fd5b88356001600160401b038082111561057157600080fd5b61057d8c838d01610240565b995060208b0135985060408b0135975060608b0135965060808b0135955060a08b0135945060c08b0135935060e08b01359150808211156105bd57600080fd5b506105ca8b828c01610240565b9150509295985092959890939650565b634e487b7160e01b600052603260045260246000fdfea26469706673582212208f3250aafd62b19f7f1fa2a12c987298bcaffb80f2204f44652bf5f50331231164736f6c63430008150033",
    "linkReferences": {}
  },
  "methodIdentifiers": {
    "verifyAccountCreationProof(bytes32,bytes32,bytes32,bytes32,bytes,bytes)": "16999ab5",
    "verifyAccountInitializaionProof(string,bytes32,uint256,bytes32,bytes32,bytes32,bytes32,bytes)": "ce2e9f0e",
    "verifyAccountTransportProof(string,bytes32,uint256,bytes32,bytes32,bytes32,bytes32,bytes32,bytes)": "87fac4ba",
    "verifyClaimFundProof(bytes32,bytes32,bytes32,bytes)": "80dc3737",
    "verifyEmailOpProof(string,bytes32,uint256,string,bytes32,bytes32,bytes32,bool,bytes32,bytes)": "b4fe5792"
  },
  "id": 178
}