{
  "abi": [
    {
      "inputs": [
        {
          "internalType": "bytes",
          "name": "data",
          "type": "bytes"
        }
      ],
      "name": "bytesToHexString",
      "outputs": [
        {
          "internalType": "string",
          "name": "",
          "type": "string"
        }
      ],
      "stateMutability": "pure",
      "type": "function"
    }
  ],
  "bytecode": {
    "object": "0x6103a361003a600b82828239805160001a60731461002d57634e487b7160e01b600052600060045260246000fd5b30600052607381538281f3fe73000000000000000000000000000000000000000030146080604052600436106100355760003560e01c80637d520c221461003a575b600080fd5b61004d6100483660046101fa565b610063565b60405161005a91906102aa565b60405180910390f35b60408051808201909152601081526f181899199a1a9b1b9c1cb0b131b232b360811b602082015281516060919060009061009e90600261030e565b6001600160401b038111156100b5576100b56101e4565b6040519080825280601f01601f1916602001820160405280156100df576020820181803683370190505b50905060005b84518110156101dc5760008582815181106101025761010261032b565b0160200151845160f882901c9250859160fc1c9081106101245761012461032b565b01602001516001600160f81b0319168361013f84600261030e565b8151811061014f5761014f61032b565b60200101906001600160f81b031916908160001a9053508381600f168151811061017b5761017b61032b565b01602001516001600160f81b0319168361019684600261030e565b6101a1906001610341565b815181106101b1576101b161032b565b60200101906001600160f81b031916908160001a9053505080806101d490610354565b9150506100e5565b509392505050565b634e487b7160e01b600052604160045260246000fd5b60006020828403121561020c57600080fd5b81356001600160401b038082111561022357600080fd5b818401915084601f83011261023757600080fd5b813581811115610249576102496101e4565b604051601f8201601f19908116603f01168101908382118183101715610271576102716101e4565b8160405282815287602084870101111561028a57600080fd5b826020860160208301376000928101602001929092525095945050505050565b600060208083528351808285015260005b818110156102d7578581018301518582016040015282016102bb565b506000604082860101526040601f19601f8301168501019250505092915050565b634e487b7160e01b600052601160045260246000fd5b8082028115828204841417610325576103256102f8565b92915050565b634e487b7160e01b600052603260045260246000fd5b80820180821115610325576103256102f8565b600060018201610366576103666102f8565b506001019056fea26469706673582212202a5edbade3dc041cd94518ab69d1c20f20281c8dc1ffa52ca930084e1ab7819d64736f6c63430008110033",
    "linkReferences": {}
  },
  "methodIdentifiers": {
    "bytesToHexString(bytes)": "7d520c22"
  },
  "id": 120
}