{
  "abi": [
    {
      "inputs": [],
      "stateMutability": "nonpayable",
      "type": "constructor"
    },
    {
      "inputs": [],
      "name": "DOMAIN_BYTES",
      "outputs": [
        {
          "internalType": "uint256",
          "name": "",
          "type": "uint256"
        }
      ],
      "stateMutability": "view",
      "type": "function"
    },
    {
      "inputs": [],
      "name": "DOMAIN_FIELDS",
      "outputs": [
        {
          "internalType": "uint256",
          "name": "",
          "type": "uint256"
        }
      ],
      "stateMutability": "view",
      "type": "function"
    },
    {
      "inputs": [],
      "name": "EMAIL_ADDR_BYTES",
      "outputs": [
        {
          "internalType": "uint256",
          "name": "",
          "type": "uint256"
        }
      ],
      "stateMutability": "view",
      "type": "function"
    },
    {
      "inputs": [],
      "name": "EMAIL_ADDR_FIELDS",
      "outputs": [
        {
          "internalType": "uint256",
          "name": "",
          "type": "uint256"
        }
      ],
      "stateMutability": "view",
      "type": "function"
    },
    {
      "inputs": [],
      "name": "SUBJECT_BYTES",
      "outputs": [
        {
          "internalType": "uint256",
          "name": "",
          "type": "uint256"
        }
      ],
      "stateMutability": "view",
      "type": "function"
    },
    {
      "inputs": [],
      "name": "SUBJECT_FIELDS",
      "outputs": [
        {
          "internalType": "uint256",
          "name": "",
          "type": "uint256"
        }
      ],
      "stateMutability": "view",
      "type": "function"
    },
    {
      "inputs": [
        {
          "internalType": "bytes",
          "name": "_bytes",
          "type": "bytes"
        },
        {
          "internalType": "uint256",
          "name": "_paddedSize",
          "type": "uint256"
        }
      ],
      "name": "_packBytes2Fields",
      "outputs": [
        {
          "internalType": "uint256[]",
          "name": "",
          "type": "uint256[]"
        }
      ],
      "stateMutability": "pure",
      "type": "function"
    },
    {
      "inputs": [],
      "name": "accountCreationVerifier",
      "outputs": [
        {
          "internalType": "contract AccountCreationVerifier",
          "name": "",
          "type": "address"
        }
      ],
      "stateMutability": "view",
      "type": "function"
    },
    {
      "inputs": [],
      "name": "announcementVerifier",
      "outputs": [
        {
          "internalType": "contract AnnouncementVerifier",
          "name": "",
          "type": "address"
        }
      ],
      "stateMutability": "view",
      "type": "function"
    },
    {
      "inputs": [],
      "name": "claimVerifier",
      "outputs": [
        {
          "internalType": "contract ClaimVerifier",
          "name": "",
          "type": "address"
        }
      ],
      "stateMutability": "view",
      "type": "function"
    },
    {
      "inputs": [],
      "name": "emailSenderVerifier",
      "outputs": [
        {
          "internalType": "contract EmailSenderVerifier",
          "name": "",
          "type": "address"
        }
      ],
      "stateMutability": "view",
      "type": "function"
    },
    {
      "inputs": [
        {
          "internalType": "string",
          "name": "emailDomain",
          "type": "string"
        },
        {
          "internalType": "bytes32",
          "name": "dkimPublicKeyHash",
          "type": "bytes32"
        },
        {
          "internalType": "bytes32",
          "name": "emailNullifier",
          "type": "bytes32"
        },
        {
          "internalType": "uint256",
          "name": "emailTimestamp",
          "type": "uint256"
        },
        {
          "internalType": "bytes32",
          "name": "walletSalt",
          "type": "bytes32"
        },
        {
          "internalType": "bytes",
          "name": "psiPoint",
          "type": "bytes"
        },
        {
          "internalType": "bytes",
          "name": "proof",
          "type": "bytes"
        }
      ],
      "name": "verifyAccountCreationProof",
      "outputs": [
        {
          "internalType": "bool",
          "name": "",
          "type": "bool"
        }
      ],
      "stateMutability": "view",
      "type": "function"
    },
    {
      "inputs": [
        {
          "internalType": "string",
          "name": "emailAddr",
          "type": "string"
        },
        {
          "internalType": "bytes32",
          "name": "rand",
          "type": "bytes32"
        },
        {
          "internalType": "bytes32",
          "name": "emailAddrCommit",
          "type": "bytes32"
        },
        {
          "internalType": "bytes",
          "name": "proof",
          "type": "bytes"
        }
      ],
      "name": "verifyAnnouncementProof",
      "outputs": [
        {
          "internalType": "bool",
          "name": "",
          "type": "bool"
        }
      ],
      "stateMutability": "view",
      "type": "function"
    },
    {
      "inputs": [
        {
          "internalType": "bytes32",
          "name": "recipientEmailAddrCommit",
          "type": "bytes32"
        },
        {
          "internalType": "bytes32",
          "name": "recipientWalletSalt",
          "type": "bytes32"
        },
        {
          "internalType": "bytes",
          "name": "proof",
          "type": "bytes"
        }
      ],
      "name": "verifyClaimFundProof",
      "outputs": [
        {
          "internalType": "bool",
          "name": "",
          "type": "bool"
        }
      ],
      "stateMutability": "view",
      "type": "function"
    },
    {
      "inputs": [
        {
          "internalType": "string",
          "name": "emailDomain",
          "type": "string"
        },
        {
          "internalType": "bytes32",
          "name": "dkimPublicKeyHash",
          "type": "bytes32"
        },
        {
          "internalType": "uint256",
          "name": "timestamp",
          "type": "uint256"
        },
        {
          "internalType": "bytes32",
          "name": "emailNullifier",
          "type": "bytes32"
        },
        {
          "internalType": "string",
          "name": "maskedSubject",
          "type": "string"
        },
        {
          "internalType": "bytes32",
          "name": "walletSalt",
          "type": "bytes32"
        },
        {
          "internalType": "bool",
          "name": "hasEmailRecipient",
          "type": "bool"
        },
        {
          "internalType": "bytes32",
          "name": "recipientEmailAddrCommit",
          "type": "bytes32"
        },
        {
          "internalType": "bytes",
          "name": "proof",
          "type": "bytes"
        }
      ],
      "name": "verifyEmailOpProof",
      "outputs": [
        {
          "internalType": "bool",
          "name": "",
          "type": "bool"
        }
      ],
      "stateMutability": "view",
      "type": "function"
    }
  ],
  "bytecode": {
    "object": "0x6101006040523480156200001257600080fd5b506040516200002190620000f9565b604051809103906000f0801580156200003e573d6000803e3d6000fd5b506001600160a01b0316608052604051620000599062000107565b604051809103906000f08015801562000076573d6000803e3d6000fd5b506001600160a01b031660a052604051620000919062000115565b604051809103906000f080158015620000ae573d6000803e3d6000fd5b506001600160a01b031660c052604051620000c99062000123565b604051809103906000f080158015620000e6573d6000803e3d6000fd5b506001600160a01b031660e05262000131565b610aaf806200151883390190565b6105e18062001fc783390190565b61121c80620025a883390190565b61093480620037c483390190565b60805160a05160c05160e0516113926200018660003960008181610150015261058e01526000818161019f015261094e0152600081816101ce015261067201526000818160ff015261040f01526113926000f3fe608060405234801561001057600080fd5b50600436106100f55760003560e01c8063a93539d011610097578063c03a5c1811610066578063c03a5c181461022e578063c61b8c8314610213578063d649c20014610241578063e6a280051461025457600080fd5b8063a93539d0146101c9578063ac4b1afe146101f0578063b2defd7814610213578063be65c0641461021b57600080fd5b8063506a0f91116100d3578063506a0f9114610188578063522a80441461019157806358373f581461019a57806386c290ae146101c157600080fd5b8063209e3a5f146100fa578063438b76821461014b57806347ba75a814610172575b600080fd5b6101217f000000000000000000000000000000000000000000000000000000000000000081565b60405173ffffffffffffffffffffffffffffffffffffffff90911681526020015b60405180910390f35b6101217f000000000000000000000000000000000000000000000000000000000000000081565b61017a601481565b604051908152602001610142565b61017a61025d81565b61017a61010081565b6101217f000000000000000000000000000000000000000000000000000000000000000081565b61017a60ff81565b6101217f000000000000000000000000000000000000000000000000000000000000000081565b6102036101fe366004610c8d565b610274565b6040519015158152602001610142565b61017a600981565b610203610229366004610d3c565b61049e565b61020361023c366004610db3565b610618565b61020361024f366004610e24565b61070f565b610267610262366004610eee565b610989565b6040516101429190610f33565b6000806000808480602001905181019061028e9190610fc7565b92509250925061029c610b0f565b60006102a98d60ff610989565b905060005b60098110156102fa578181815181106102c9576102c9611054565b60200260200101518382600f81106102e3576102e3611054565b6020020152806102f2816110b2565b9150506102ae565b5061012082018c90528a82610311600960016110ea565b600f811061032157610321611054565b60200201528982610334600960026110ea565b600f811061034457610344611054565b60200201528882610357600960036110ea565b600f811061036757610367611054565b6020020181815250506000808980602001905181019061038791906110fd565b9092509050818461039a600960046110ea565b600f81106103aa576103aa611054565b602002015280846103bd600960056110ea565b600f81106103cd576103cd611054565b60200201526040517ff054a9a300000000000000000000000000000000000000000000000000000000815273ffffffffffffffffffffffffffffffffffffffff7f0000000000000000000000000000000000000000000000000000000000000000169063f054a9a39061044a908a908a908a908a90600401611178565b602060405180830381865afa158015610467573d6000803e3d6000fd5b505050506040513d601f19601f8201168201806040525081019061048b91906111d5565b9f9e505050505050505050505050505050565b600080600080848060200190518101906104b89190610fc7565b9250925092506104c6610b2e565b60006104d48a610100610989565b905060005b6009811015610525578181815181106104f4576104f4611054565b60200260200101518382600b811061050e5761050e611054565b60200201528061051d816110b2565b9150506104d9565b506101208201889052888261053c600960016110ea565b600b811061054c5761054c611054565b60200201526040517fb9c6ea8700000000000000000000000000000000000000000000000000000000815273ffffffffffffffffffffffffffffffffffffffff7f0000000000000000000000000000000000000000000000000000000000000000169063b9c6ea87906105c99088908890889088906004016111f9565b602060405180830381865afa1580156105e6573d6000803e3d6000fd5b505050506040513d601f19601f8201168201806040525081019061060a91906111d5565b9a9950505050505050505050565b600080600080848060200190518101906106329190610fc7565b925092509250610640610b4d565b878152602081018790526040517ff5c9d69e0000000000000000000000000000000000000000000000000000000081527f000000000000000000000000000000000000000000000000000000000000000073ffffffffffffffffffffffffffffffffffffffff169063f5c9d69e906106c290879087908790879060040161124a565b602060405180830381865afa1580156106df573d6000803e3d6000fd5b505050506040513d601f19601f8201168201806040525081019061070391906111d5565b98975050505050505050565b600080600080848060200190518101906107299190610fc7565b925092509250610737610b6b565b60606107448f60ff610989565b905060005b60098110156107955781818151811061076457610764611054565b602002602001015183826023811061077e5761077e611054565b60200201528061078d816110b2565b915050610749565b505061012081018d905260608b826107af600960016110ea565b602381106107bf576107bf611054565b60200201528c826107d2600960026110ea565b602381106107e2576107e2611054565b60200201526107f38b61025d610989565b905060005b601481101561085c5781818151811061081357610813611054565b602002602001015183826009600361082b91906110ea565b61083591906110ea565b6023811061084557610845611054565b602002015280610854816110b2565b9150506107f8565b508982601461086d600960036110ea565b61087791906110ea565b6023811061088757610887611054565b60200201528861089857600061089b565b60015b60ff168260146108ad600960036110ea565b6108b791906110ea565b6108c29060016110ea565b602381106108d2576108d2611054565b6020020152878260146108e7600960036110ea565b6108f191906110ea565b6108fc9060026110ea565b6023811061090c5761090c611054565b60200201526040517fe8cecdf600000000000000000000000000000000000000000000000000000000815273ffffffffffffffffffffffffffffffffffffffff7f0000000000000000000000000000000000000000000000000000000000000000169063e8cecdf69061044a90889088908890889060040161128a565b60606000610998601f8461130a565b90506000601f6109a8838661131e565b6109b29190611331565b905081156109c8576109c56001826110ea565b90505b60008167ffffffffffffffff8111156109e3576109e3610b8a565b604051908082528060200260200182016040528015610a0c578160200160208202803683370190505b50905060008060005b84811015610b005760005b601f811015610aed5780610a3583601f611345565b610a3f91906110ea565b935088841015610aed5789518410610a5a5760009250610a77565b898481518110610a6c57610a6c611054565b016020015160f81c92505b80600003610aa35782858381518110610a9257610a92611054565b602002602001018181525050610adb565b610aae816008611345565b83901b858381518110610ac357610ac3611054565b60200260200101818151610ad791906110ea565b9052505b80610ae5816110b2565b915050610a20565b5080610af8816110b2565b915050610a15565b50919450505050505b92915050565b604051806101e00160405280600f906020820280368337509192915050565b604051806101600160405280600b906020820280368337509192915050565b60405180604001604052806002906020820280368337509192915050565b6040518061046001604052806023906020820280368337509192915050565b7f4e487b7100000000000000000000000000000000000000000000000000000000600052604160045260246000fd5b6040805190810167ffffffffffffffff81118282101715610bdc57610bdc610b8a565b60405290565b600082601f830112610bf357600080fd5b813567ffffffffffffffff80821115610c0e57610c0e610b8a565b604051601f83017fffffffffffffffffffffffffffffffffffffffffffffffffffffffffffffffe0908116603f01168101908282118183101715610c5457610c54610b8a565b81604052838152866020858801011115610c6d57600080fd5b836020870160208301376000602085830101528094505050505092915050565b600080600080600080600060e0888a031215610ca857600080fd5b873567ffffffffffffffff80821115610cc057600080fd5b610ccc8b838c01610be2565b985060208a0135975060408a0135965060608a0135955060808a0135945060a08a0135915080821115610cfe57600080fd5b610d0a8b838c01610be2565b935060c08a0135915080821115610d2057600080fd5b50610d2d8a828b01610be2565b91505092959891949750929550565b60008060008060808587031215610d5257600080fd5b843567ffffffffffffffff80821115610d6a57600080fd5b610d7688838901610be2565b955060208701359450604087013593506060870135915080821115610d9a57600080fd5b50610da787828801610be2565b91505092959194509250565b600080600060608486031215610dc857600080fd5b8335925060208401359150604084013567ffffffffffffffff811115610ded57600080fd5b610df986828701610be2565b9150509250925092565b8015158114610e1157600080fd5b50565b8035610e1f81610e03565b919050565b60008060008060008060008060006101208a8c031215610e4357600080fd5b893567ffffffffffffffff80821115610e5b57600080fd5b610e678d838e01610be2565b9a5060208c0135995060408c0135985060608c0135975060808c0135915080821115610e9257600080fd5b610e9e8d838e01610be2565b965060a08c01359550610eb360c08d01610e14565b945060e08c013593506101008c0135915080821115610ed157600080fd5b50610ede8c828d01610be2565b9150509295985092959850929598565b60008060408385031215610f0157600080fd5b823567ffffffffffffffff811115610f1857600080fd5b610f2485828601610be2565b95602094909401359450505050565b6020808252825182820181905260009190848201906040850190845b81811015610f6b57835183529284019291840191600101610f4f565b50909695505050505050565b600082601f830112610f8857600080fd5b610f90610bb9565b806040840185811115610fa257600080fd5b845b81811015610fbc578051845260209384019301610fa4565b509095945050505050565b60008060006101008486031215610fdd57600080fd5b610fe78585610f77565b9250604085605f860112610ffa57600080fd5b611002610bb9565b8060c087018881111561101457600080fd5b8388015b818110156110395761102a8a82610f77565b84526020909301928401611018565b508195506110478982610f77565b9450505050509250925092565b7f4e487b7100000000000000000000000000000000000000000000000000000000600052603260045260246000fd5b7f4e487b7100000000000000000000000000000000000000000000000000000000600052601160045260246000fd5b60007fffffffffffffffffffffffffffffffffffffffffffffffffffffffffffffffff82036110e3576110e3611083565b5060010190565b80820180821115610b0957610b09611083565b6000806040838503121561111057600080fd5b505080516020909101519092909150565b8060005b6002811015611144578151845260209384019390910190600101611125565b50505050565b8060005b600281101561114457611162848351611121565b604093909301926020919091019060010161114e565b6102e081016111878287611121565b611194604083018661114a565b6111a160c0830185611121565b61010082018360005b600f8110156111c95781518352602092830192909101906001016111aa565b50505095945050505050565b6000602082840312156111e757600080fd5b81516111f281610e03565b9392505050565b61026081016112088287611121565b611215604083018661114a565b61122260c0830185611121565b61010082018360005b600b8110156111c957815183526020928301929091019060010161122b565b61014081016112598287611121565b611266604083018661114a565b61127360c0830185611121565b611281610100830184611121565b95945050505050565b61056081016112998287611121565b6112a6604083018661114a565b6112b360c0830185611121565b61010082018360005b60238110156111c95781518352602092830192909101906001016112bc565b7f4e487b7100000000000000000000000000000000000000000000000000000000600052601260045260246000fd5b600082611319576113196112db565b500690565b81810381811115610b0957610b09611083565b600082611340576113406112db565b500490565b8082028115828204841417610b0957610b0961108356fea2646970667358221220c4438f865f0c6e7abbcfa94f6d5fe8acbf25ba9b9dafc090c59faa870eed09cd64736f6c63430008150033608060405234801561001057600080fd5b50610a8f806100206000396000f3fe608060405234801561001057600080fd5b506004361061002b5760003560e01c8063f054a9a314610030575b600080fd5b61004361003e3660046109f3565b610057565b604051901515815260200160405180910390f35b60006108e0565b7f30644e72e131a029b85045b68181585d97816a916871ca8d3c208c16d87cfd47811061008f576000805260206000f35b50565b600060405183815284602082015285604082015260408160608360076107d05a03fa9150816100c5576000805260206000f35b825160408201526020830151606082015260408360808360066107d05a03fa915050806100f6576000805260206000f35b5050505050565b7f17ca9b5c025d00a9bd1d562fc227fa0fe5bb1cb44ec6a2d966a6d995a61e91bb85527f13c622443555b43071291ba260eb9c94a122783ae076cfa7789ff34a4035d7a160208601526000608086018661019a87357f24d08bc9b5445a838c8343e412e137801d7d5b26508cec5558596ca8e78ef1f77f27c05071b096ae001e0f5b0d9b367c32393a2b8c1a0612469744680716e1795a84610092565b6101ea60208801357f0df7bab8706641047919f9e15aed9c2c4b1ffb56964c4ab294106c6721858d0b7f206b02d7f09bc851ebe0c405148f1fde827cfb54b34c7c11981ab1422c37ee7f84610092565b61023a60408801357f1ab8962399bd46bb9e483a0f7becd635581f2df0357f6b3fac66a03037c9b0137f2d0d0c658eab1100e48d0143fa87cbbf9346deca7b3a2ce7fb1d002539f81bee84610092565b61028a60608801357f065f76444b738191a6a333388aec0ec0cd3437c65b0434e45bbf358ce46d75de7f23a7422a52b32fea96147ef9e1732233c733329c13996f766e906dda569858b784610092565b6102da60808801357f2713efa5d551cde120ee160443fb1491e7c26d58bf3436fb858b9684354c923d7f25701efc421f649b40fa5f4b2e5f4d4e6dcc13a39b504ebe22f6f2bbee4235c984610092565b61032a60a08801357f04aca694d6b3abff4f0bf5a60542a13be8892a6799851924057c6daca2ced0fa7f1a6b5c1efe2680e7f8cd563238336bf0666d3902b099b70ac3692f15cef4efce84610092565b61037a60c08801357f18d1d76a0a41146ec0c77153ca269dc3bb9dbd1a11eaa1466892e350c0c2a2eb7f25afd4dfe5de9c2c06596b708f4065b85765ec33c414d4d8eaadca1430e92b0784610092565b6103ca60e08801357f13d69ada7654bafef48b3c87bbde1f9a9cf4c6f6ecebb6b2f6ce1eb4b56574fb7f10d68afb82acae761075ad7035b0f6fe838a878c31d0736aa7432fbba026422a84610092565b61041b6101008801357f1a11a4789e7d404726df1fb54f8828c80af23d42883bccc434c3cf79d162766a7f2799c5cd31a5aaec16be498dd02b16a50e62402cb751ca3bd144fbb54ff1d73884610092565b61046c6101208801357f19b2ad82ad29d63f4909e1a445bd7d2b59b7c0755ac42f092fb861b69f14c2797f1cf3f71f552df7b5bc9c6bfa10ebb796640a1a84707b05dfb9e2b1a24e3f4c8184610092565b6104bd6101408801357f1aa31e19bff9d8dd5286d2e765fbc736bc7829e661c5a8e3f7ccbc046e62cdf27f16002061f01593d29f18c8334f698775c849b180c493f5e64b7c6fcd794b119e84610092565b61050e6101608801357f2431dbb6c4fa78e74f59a51713d72484d7d208895681d288a0d49ba79345b6667f208b62110204b4413ff20c3acdaa4b9b97f269a8158d54b26cb370ad2890320e84610092565b61055f6101808801357f15581dbf4b1e729251deacab3a70b1aa79c1019cb6344845018360ebc879a2a47f272aa810708a58c6e91cd80cd674db5ae83074d17415b53bba29fcd9758dfab684610092565b6105b06101a08801357f06adbba2bfaab94b57a8e9eba66717816a0da12ce24159394274f4e784b5fdbc7f19741c0c6c54ea268355ccb2b1fe488888b2634e50d24772723d8c7e63167ada84610092565b6106016101c08801357f2aab00e6d1f792e4e45dae62d85038988095375fb1e89888beb581c46d0c758c7f02e8ee902485dad412c9cce461134e416e3040626456646313f36cb63738771d84610092565b50823581527f30644e72e131a029b85045b68181585d97816a916871ca8d3c208c16d87cfd4760208401357f30644e72e131a029b85045b68181585d97816a916871ca8d3c208c16d87cfd4703066020820152833560408201526020840135606082015260408401356080820152606084013560a08201527f2d4d9aa7e302d9df41749d5507949d05dbea33fbb16c643b22f599a2be6df2e260c08201527f14bedd503c37ceb061d8ec60209fe345ce89830a19230301f076caff004d192660e08201527f0967032fcbf776d1afc985f88877f182d38480a653f2decaa9794cbc3bf3060c6101008201527f0e187847ad4c798374d0d6732bf501847dd68bc0e071241e0213bc7fc13db7ab6101208201527f304cfbd1e08a704a99f5e847d93f8c3caafddec46b7a0d379da69a4d112346a76101408201527f1739c1b1a457a8c7313123d24d2f9192f896b7c63eea05a9d57f06547ad0cec8610160820152600087015161018082015260206000018701516101a08201527f198e9393920d483a7260bfb731fb5d25f1aa493335a9e71297e485b7aef312c26101c08201527f1800deef121f1e76426a00665e5c4479674322d4f75edadd46debd5cd992f6ed6101e08201527f090689d0585ff075ec9e99ad690c3395bc4b313370b38ef355acdadcd122975b6102008201527f12c85ea5db8c6deb4aab71808dcb408fe3d1e7690c43d37b4ce6cc0166fa7daa610220820152843561024082015260208501356102608201527edf46dd721ee71f16ee2f39d9589ff54e93a979918b1de8e11cd971f84004166102808201527f2c394fc82e4c0d474430603c47567ee33c3ad993e37c4c132becc689a41a31006102a08201527f0b64e8b57f037a92047604bf0672e071ee077c6179e6c4ec6ffa15da4ea7727b6102c08201527f153acc0bf3c1388d0a90b0878f850c461a9918c9c9622924ec6cde83db94b7456102e08201526020816103008360086107d05a03fa9051169695505050505050565b60405161038081016040526108f8600084013561005e565b610905602084013561005e565b610912604084013561005e565b61091f606084013561005e565b61092c608084013561005e565b61093960a084013561005e565b61094660c084013561005e565b61095360e084013561005e565b61096161010084013561005e565b61096f61012084013561005e565b61097d61014084013561005e565b61098b61016084013561005e565b61099961018084013561005e565b6109a76101a084013561005e565b6109b56101c084013561005e565b6109c36101e084013561005e565b6109d0818486888a6100fd565b90508060005260206000f35b80604081018310156109ed57600080fd5b92915050565b6000806000806102e0808688031215610a0b57600080fd5b610a1587876109dc565b945060c0860187811115610a2857600080fd5b604087019450610a3888826109dc565b935050868187011115610a4a57600080fd5b5092959194509261010001915056fea2646970667358221220b6c409a494d9fad7216625243bc8df61b1a222e44bc64de1ef7b69f665f77c5c64736f6c63430008150033608060405234801561001057600080fd5b506105c1806100206000396000f3fe608060405234801561001057600080fd5b506004361061002b5760003560e01c8063f5c9d69e14610030575b600080fd5b61004361003e36600461052b565b610057565b604051901515815260200160405180910390f35b60006104c9565b7f30644e72e131a029b85045b68181585d97816a916871ca8d3c208c16d87cfd47811061008f576000805260206000f35b50565b600060405183815284602082015285604082015260408160608360076107d05a03fa9150816100c5576000805260206000f35b825160408201526020830151606082015260408360808360066107d05a03fa915050806100f6576000805260206000f35b5050505050565b7f0940c8b3d38a335fa7f8c47821e79c4d7e7a7c55548f48c791d65e32bee051c085527e0a17a11a8b95aa8b2cc42adb550938d4b719fb7125855af2262db2619911ea60208601526000608086018661019987357f117f50c026c4452105ba2b066ac65158943229a67b48b6c138472f3bc15b6aaa7f2f73aee99fefdd885d461afa39cfe534d4f49983200a4705c0e5b17030d5794d84610092565b6101e960208801357f03fde786e87307f1c75a7a08aa5185bc04d014d1ade43e0bd6647c9ac8827c3a7f077c71c756cbae387a565be9e3a18d6e98a839a21409249a88aa69da09fc286b84610092565b50823581527f30644e72e131a029b85045b68181585d97816a916871ca8d3c208c16d87cfd4760208401357f30644e72e131a029b85045b68181585d97816a916871ca8d3c208c16d87cfd4703066020820152833560408201526020840135606082015260408401356080820152606084013560a08201527f2d4d9aa7e302d9df41749d5507949d05dbea33fbb16c643b22f599a2be6df2e260c08201527f14bedd503c37ceb061d8ec60209fe345ce89830a19230301f076caff004d192660e08201527f0967032fcbf776d1afc985f88877f182d38480a653f2decaa9794cbc3bf3060c6101008201527f0e187847ad4c798374d0d6732bf501847dd68bc0e071241e0213bc7fc13db7ab6101208201527f304cfbd1e08a704a99f5e847d93f8c3caafddec46b7a0d379da69a4d112346a76101408201527f1739c1b1a457a8c7313123d24d2f9192f896b7c63eea05a9d57f06547ad0cec8610160820152600087015161018082015260206000018701516101a08201527f198e9393920d483a7260bfb731fb5d25f1aa493335a9e71297e485b7aef312c26101c08201527f1800deef121f1e76426a00665e5c4479674322d4f75edadd46debd5cd992f6ed6101e08201527f090689d0585ff075ec9e99ad690c3395bc4b313370b38ef355acdadcd122975b6102008201527f12c85ea5db8c6deb4aab71808dcb408fe3d1e7690c43d37b4ce6cc0166fa7daa610220820152843561024082015260208501356102608201527f092e05a988a2d411d23c62ac125e306e2268e5797880c2953beb118d4f77f8cf6102808201527f051c0a1d17d454a6b828008d4be1ca463928fad73ff78fcbea1d040d1278a5806102a08201527f0782a07c3739b6135cf62c774d1182d9cb8d78e3b9583b7b2991e08dc02873856102c08201527f17aef50ad2baccbb53279d3ae9d343c2a5f66457fa146a75fe147177998e38b96102e08201526020816103008360086107d05a03fa9051169695505050505050565b60405161038081016040526104e1600084013561005e565b6104ee602084013561005e565b6104fb604084013561005e565b610508818486888a6100fd565b90508060005260206000f35b806040810183101561052557600080fd5b92915050565b600080600080610140858703121561054257600080fd5b61054c8686610514565b935060c085018681111561055f57600080fd5b60408601935061056f8782610514565b925050610580866101008701610514565b90509295919450925056fea264697066735822122063969d4e3b9bf1b5991f2d2dd96c88ff2ab42ffc4a01d05046ce551ccfcf75a564736f6c63430008150033608060405234801561001057600080fd5b506111fc806100206000396000f3fe608060405234801561001057600080fd5b506004361061002b5760003560e01c8063e8cecdf614610030575b600080fd5b61004361003e366004611160565b610057565b604051901515815260200160405180910390f35b6000610f35565b7f30644e72e131a029b85045b68181585d97816a916871ca8d3c208c16d87cfd47811061008f576000805260206000f35b50565b600060405183815284602082015285604082015260408160608360076107d05a03fa9150816100c5576000805260206000f35b825160408201526020830151606082015260408360808360066107d05a03fa915050806100f6576000805260206000f35b5050505050565b7f0818830e74e172c03fec5b750d61c1917655ce87c76309349e50daf3ca1a201985527f26c5e853e627c78618e94e08bc6020d025e8a9c48ca29a8181b8a2005976c37e60208601526000608086018661019a87357f154a92311a84c655d566297bd50e82653e461c1afb3b1eecbbe2b91bdb1c16e67f0e69f40d6eb195fff98834c336793c373daa080e53fc7720e0296d5adf5a959784610092565b6101ea60208801357f0c2709015aa83bbae6842b79e5b67fe92afb9b775bb481f57f5879f2d39a255b7f0b4d520702a36a586f9d3760c7e581f8dd0a5371abd4576c0dbdef37a3112b1b84610092565b61023a60408801357f2ecdf880caae479633569cdf513a0a8910746382ae81b0d95f2d74a7aff9f4187f1ee6408056c19e6c4d14c9f29c524f225547f87c45f45f83de98263f7048cddd84610092565b61028a60608801357f17fed5814597512329b5924c8aca9f49383f8557761e212a2f670567e35c5a167f2883e379506bc7e4fe2af5239e7bd6786d9cb6777a20819cdcc282ed7e87d10c84610092565b6102da60808801357f1430c79b9a1c42ce09deee06f510050f4cbab95145cb42b3e7dbd516254d4a527f0c6a78e37bd8e5d5ff17ab5a88da389e0bd37eaa10acac3b8fa75e12598a87a884610092565b61032a60a08801357f24ddca30d1ed2bc604286fc774af0e00753aaab47c80a81f06b1ed8bb25bf6a37f1b12096021f750165a0fab4cca6c76a22f6ec2a4597e2cebbfa4d76be1edc70b84610092565b61037a60c08801357f084f0efc6616551d35dc4172eb201708957b31a05cd696c28064e61ca49efe707f0dbc01eac44c29a2967bad6e1f13fd15d73df07b0f08f06afecfc78ac423919284610092565b6103ca60e08801357f305da51fbd95d98c8cc55da91131e29c4095dc5fb9cf7a82cb8f198d8ee1cc6f7f22f73ada50e6b77d31f5d570830c21687c968f593479704b9b82aaa7be2429da84610092565b61041b6101008801357f1d7cb82d82d7b8f3bdfee4a51835e5d20ec5bf7b85ecd557f381a02d6c6fe0fd7f184a1e59fc80ace21eb802343c8a4700726a289a5186d239383f98a5e56a69fd84610092565b61046c6101208801357f0a06d2cfd9c9233e25c85bf229fe47e96f52312924b50ce7454fc1b0b15474117f0783a920a529c67cfd7444b855896787147dc2b58dff4e1c190f1f7e1f2040c684610092565b6104bd6101408801357f045ca12309a23618f7f4c2ac8603fa738440bc8f451223304a491e79b844fefc7f05fad8303ce9a79846cebacecec6ad520b65205aae4bdf1bc692d210d960540f84610092565b61050e6101608801357f1a2711e2761aeca4d2fa78e758cba69b1d20d1d0e751923b95b9af318a6ea0b77f0859629ae5357541fbf2a1ade56522d066b6a6f2a20b1d8b159b49f04bcf41ca84610092565b61055f6101808801357f237822d4998e354db041504f21e0c874e7cc07425012a0364eea2e7dd23fafa57f22e53591a91c6161bdaa0dc3faff00785411f656bbb35f38f8437ce749ace96c84610092565b6105b06101a08801357f0a8f72113930bef912d17eeca5837ec3b0345fd369e053c70929278a01c5259e7f11714a6f820cd09d7ba87b8161ab8b1638a453eca99238d9088fc00b445dd02284610092565b6106016101c08801357f178d79bfebb4441d8af77bd533160ab0e90037f8e46c6da00ea9271ce5fa72147f0221595c39b6362fe5a999f8c6bd002710fefe01bdb8d5774ca8b760a3368dc584610092565b6106526101e08801357f2eb96e92958221051ee55664d9d6457a2992e1e769688f16bf3e9f40eea325857f19469bdb61da94ca877520fc851348c3ca1b6aaaa6c3753cc450e641f4ec2d0a84610092565b6106a36102008801357f15cf95bd231b94185db5b99751ad8cbd0d0a68969cb086acba6c2e159c4687317f2c3b7d517e81ccd31048659caef36fe3c0cc9bdb0e798fc007a69fd5522369b984610092565b6106f46102208801357f18c00c1201b95e22856aaf168105e9776b057ad66631d7c691d11ebcf76407397f19b2a49039667f3d700c86192549b18f23523b57277e3a39913ac2c3cec8fcac84610092565b6107456102408801357f2f3e43aae2b132d342b3868479a502f418827987747e6ba154a1a30db3de55bc7f2370100463f0e6e9d5aadf634825493139ec45528492ad199d5609e26a1827f984610092565b6107966102608801357f0719f5d34a5c53edfaa6f1bd7532d4884b773683704f0acb9af5ef681a4b5e377f19dd4843443c965d8af2816213526331df266ab065bd95e36ee7b266b8d7df7384610092565b6107e76102808801357f27b06e52920a2d6c7712459a7e7f16e2265ca2fb8f137c7fce4efb54b362e43f7f27d454d9c39d32e4edbda9e4b565479c7f5148e1a84eb265ae6665409a88581884610092565b6108386102a08801357f133c29024676e5233ccb0835c75f9ca95f19b724903aed6b5b07800d96e81d717f2985df6c74d5bb3cae3843310b56486d9c5ab0665b6ca6220f354e7f76035d3484610092565b6108896102c08801357f13a545792bf54c46cd3e9f4920730243190768c1624675fba9aac6c7dd4d54ee7f043acdfde83ce8c0eae42079e31b9fe53021d2d3b39dcaa0385108fefc13073184610092565b6108da6102e08801357f1d909edfe8c327aaddfc255445c91cc0337108d153c874cf1cec0a7aed9821d07f2b3b927d65af76d7a26aa441cd1fd3c1b2bd74cf97e0b333aa3e81f2dd6d040084610092565b61092b6103008801357f1f98575fed053fb28a11cd30a419bb57e4d5163286361b5ef3d230d1dc3187287f0b9797de77423c4dc75c0d93dea973fa364f41c361c0ef2172307cef12981c8784610092565b61097c6103208801357f1ce091201272d2eea26de90faebe106f98f8dc965c26b547d6bfd7bfd8dc0a9d7f1c94d908bbebc3c96c6ce44d8b22a4e59ab1fbacc388e3f6ae015f303305b84e84610092565b6109cd6103408801357f23311960587b6c6710db897ad5419abc797e7ff41c72eab4f87fd14a94be8ab17f22642306905e67c48109d5d58daeb90ce6bd7218c2085e139499fb5e421f386284610092565b610a1e6103608801357f141faafcf61415ec4b0871143638d42272f9cf08a1533f8042f74377fcbaf3817f09812366888403b77536a946f780f69fe99e8a407826b1491266a372b6641a3484610092565b610a6f6103808801357f1eec67441e17bc1cbf79609e1730c44a36bc45fb79168459230d140e6e4741577f2ea76bb20916d6b3ae480f26a73f67519691f9258ffaa1da16bf4304ea61fa7584610092565b610ac06103a08801357f0f9202453544920c3e2eedf53d4419e6fa1ba2473179837b03b3cc7ffe84a6df7f2f4356e1993f819d30dd9c2489f63a85fecdf8893cfe6d4154103fa4becaac8284610092565b610b116103c08801357f0de193acdaa827280178217b4bc340871f921582bc7795b716b3d33deec426cf7f0a2c5986acbafe39f33f668028e259156c9633ae7b7890ed6f8e04373b8a927284610092565b610b626103e08801357f069161b11690241b3c64b30f601ead929ca96c286db43e053688b6d1e6ba34297f24d299cb9870ab755768cd6954c6ca7f51272db2644f73cb60c971f47459595d84610092565b610bb36104008801357f03aafc7278d65dd7bf2ac1b3f31a129d6796c10e01d672ef2ddc672113f3aa6e7f0839872d9e754c8392a3a8a8cf30400014c307ec9dfb6093b1a80e056b428ab084610092565b610c046104208801357f0fd2819414346e897aaec6db006e41b27ae6be1597efe8b3b20e59f831c5e2427f11b1fb55b096986cb757e28e95651fdb8c748d9ed224db02a4e9eef8a6d1ce3784610092565b610c556104408801357f1603c9121ca045a06e99392ff13b0efa77adb35f1128bef8684b08342d65c5037f2b5f68f14d0c2118e358814b2e89e8aa6123abc23a4e583c4cd33a0373e72bbf84610092565b50823581527f30644e72e131a029b85045b68181585d97816a916871ca8d3c208c16d87cfd4760208401357f30644e72e131a029b85045b68181585d97816a916871ca8d3c208c16d87cfd4703066020820152833560408201526020840135606082015260408401356080820152606084013560a08201527f2d4d9aa7e302d9df41749d5507949d05dbea33fbb16c643b22f599a2be6df2e260c08201527f14bedd503c37ceb061d8ec60209fe345ce89830a19230301f076caff004d192660e08201527f0967032fcbf776d1afc985f88877f182d38480a653f2decaa9794cbc3bf3060c6101008201527f0e187847ad4c798374d0d6732bf501847dd68bc0e071241e0213bc7fc13db7ab6101208201527f304cfbd1e08a704a99f5e847d93f8c3caafddec46b7a0d379da69a4d112346a76101408201527f1739c1b1a457a8c7313123d24d2f9192f896b7c63eea05a9d57f06547ad0cec8610160820152600087015161018082015260206000018701516101a08201527f198e9393920d483a7260bfb731fb5d25f1aa493335a9e71297e485b7aef312c26101c08201527f1800deef121f1e76426a00665e5c4479674322d4f75edadd46debd5cd992f6ed6101e08201527f090689d0585ff075ec9e99ad690c3395bc4b313370b38ef355acdadcd122975b6102008201527f12c85ea5db8c6deb4aab71808dcb408fe3d1e7690c43d37b4ce6cc0166fa7daa610220820152843561024082015260208501356102608201527f1800e0bbce11e80c5a5930cf9fba6c081fcf62e4c9288dc069655d7d41cb8faf6102808201527f034c9022736bb45794bf1e0ef79a413c3092fc923c0bdcfc20fe674e6d27fc0f6102a08201527f0189b3f326ceec86d2b71f04c5f071bfdfd93894a60e633df859b89c8ed002aa6102c08201527f1ca665db1948e4836bb066f94c1548b85f9a29729899f7d2bb02faf8a001c0f26102e08201526020816103008360086107d05a03fa9051169695505050505050565b6040516103808101604052610f4d600084013561005e565b610f5a602084013561005e565b610f67604084013561005e565b610f74606084013561005e565b610f81608084013561005e565b610f8e60a084013561005e565b610f9b60c084013561005e565b610fa860e084013561005e565b610fb661010084013561005e565b610fc461012084013561005e565b610fd261014084013561005e565b610fe061016084013561005e565b610fee61018084013561005e565b610ffc6101a084013561005e565b61100a6101c084013561005e565b6110186101e084013561005e565b61102661020084013561005e565b61103461022084013561005e565b61104261024084013561005e565b61105061026084013561005e565b61105e61028084013561005e565b61106c6102a084013561005e565b61107a6102c084013561005e565b6110886102e084013561005e565b61109661030084013561005e565b6110a461032084013561005e565b6110b261034084013561005e565b6110c061036084013561005e565b6110ce61038084013561005e565b6110dc6103a084013561005e565b6110ea6103c084013561005e565b6110f86103e084013561005e565b61110661040084013561005e565b61111461042084013561005e565b61112261044084013561005e565b61113061046084013561005e565b61113d818486888a6100fd565b90508060005260206000f35b806040810183101561115a57600080fd5b92915050565b60008060008061056080868803121561117857600080fd5b6111828787611149565b945060c086018781111561119557600080fd5b6040870194506111a58882611149565b9350508681870111156111b757600080fd5b5092959194509261010001915056fea2646970667358221220f1b676015e8eb59da0876481347bf95119d56c7fd26bfce6edf446a586c70b4464736f6c63430008150033608060405234801561001057600080fd5b50610914806100206000396000f3fe608060405234801561001057600080fd5b506004361061002b5760003560e01c8063b9c6ea8714610030575b600080fd5b61004361003e366004610878565b610057565b604051901515815260200160405180910390f35b600061079d565b7f30644e72e131a029b85045b68181585d97816a916871ca8d3c208c16d87cfd47811061008f576000805260206000f35b50565b600060405183815284602082015285604082015260408160608360076107d05a03fa9150816100c5576000805260206000f35b825160408201526020830151606082015260408360808360066107d05a03fa915050806100f6576000805260206000f35b5050505050565b7f198429247f4eebafa4b54851b0f560de8cbe70d49bbec7795e9155002be7fe9885527f0adc6edde7ade6f9b4c0fda0d887d197290652eb97512c55fc360604f37d278460208601526000608086018661019a87357f19b14e69471c7b537b862b74bdcec21a162783f6f8c29424be48c1d6a98d37d77f2cf5b518f6adbd1ef9695137f44f331e26c420e26ce34272a7538da859d4cfb884610092565b6101ea60208801357f22b91e419372e5946958a471c497a9a12f2934d53c6663ca78ac3eb832932ff47f2933775a286b4999ab05400d5a4609f5478c26207e2b7a709ca76b71d7dcbf8f84610092565b61023a60408801357f105882b2ce0435d01186d56f24dc46e256b917bf7e8007b9e871070271dcc3ee7f2849f7dd23ca8c5a14072d05c261b1ead8db8d0b8a14de9399ca9ff76c3a394e84610092565b61028a60608801357f250db8732325c2944ba94de74ab8875014bdfa016483f10249e78cfbbf7e36ad7f2d56fe9d639e753c7787887eb3c5be0b5479245162f67ca71e9b51c321517e0c84610092565b6102da60808801357f27f5cece50f2a0386e9a21556ed3b4ef88a8491f793cb784c0bab0e239c7ec397f2f2e57b341a59aa8aef204df6c495f2dc0e935d195cbd427692e054fb7a6516884610092565b61032a60a08801357f1616312b819d3451f07c0662b6971c0ea884ed0a3100442056f6f74fe6bcd3b37f24ee5a1407d7617e0c24663c79a441186bf107159f1ce8c549c11eb6863e6ff984610092565b61037a60c08801357f1c75ffccb71b16acc12c9a0be717c1d6ca1afb01908312d8a6234cd7fff9b67a7f27d1b01d055167ab6360d8b390a1e8ab0cae66b71be05f4a490412ebf1ee532984610092565b6103ca60e08801357f2539465ee99d5e226b7abf7686549ab90712fe40e3d585806b385b6ea3e0b3107f1ae239260748a8f3d3dbef88edf7da9dc5c38ea53a11bf0534c7f27577415d1b84610092565b61041b6101008801357f20664bee6a294af2ec364e09d770e91a13e8f3ac1581665c8afbed46379ee0827f08b24f9a9bd48c63474a9a4fd6a84a41606835c0743278f2d8d8a36abf62f0cd84610092565b61046c6101208801357f2dd53f4b672c89782d9338a07412356356133bad6452096e40a0c3ea57a18b6d7f2fd539da20156f5963f259613bdae6a643f71aa831c8dc12ac705c67667fdac284610092565b6104bd6101408801357f2e51815ff0879150ab18bc21355a0c6344b5a227cea1b8c28909328790c79f037f27dcb1c1dd1fbcb04381d5f9a1a11569acb6c87b0360b33100d8095a006c65b684610092565b50823581527f30644e72e131a029b85045b68181585d97816a916871ca8d3c208c16d87cfd4760208401357f30644e72e131a029b85045b68181585d97816a916871ca8d3c208c16d87cfd4703066020820152833560408201526020840135606082015260408401356080820152606084013560a08201527f2d4d9aa7e302d9df41749d5507949d05dbea33fbb16c643b22f599a2be6df2e260c08201527f14bedd503c37ceb061d8ec60209fe345ce89830a19230301f076caff004d192660e08201527f0967032fcbf776d1afc985f88877f182d38480a653f2decaa9794cbc3bf3060c6101008201527f0e187847ad4c798374d0d6732bf501847dd68bc0e071241e0213bc7fc13db7ab6101208201527f304cfbd1e08a704a99f5e847d93f8c3caafddec46b7a0d379da69a4d112346a76101408201527f1739c1b1a457a8c7313123d24d2f9192f896b7c63eea05a9d57f06547ad0cec8610160820152600087015161018082015260206000018701516101a08201527f198e9393920d483a7260bfb731fb5d25f1aa493335a9e71297e485b7aef312c26101c08201527f1800deef121f1e76426a00665e5c4479674322d4f75edadd46debd5cd992f6ed6101e08201527f090689d0585ff075ec9e99ad690c3395bc4b313370b38ef355acdadcd122975b6102008201527f12c85ea5db8c6deb4aab71808dcb408fe3d1e7690c43d37b4ce6cc0166fa7daa610220820152843561024082015260208501356102608201527f1cbdcc353fe25977e533fca041bd7c3e67a4b0cc6fdaee98aebcfad9a5b127c06102808201527f1db760ced39250226766bcb3a2b9cca8cadbb0eabef00d3f91a710405997bd966102a08201527f21dd23007d952b070ffcbc54f0a9460aaa7b65de943ce08a61b8f70a07d1a51f6102c08201527f29e74cd07046e3be7a0b6b06815da66f8230b8c1b0315b28f4362c7797adb3856102e08201526020816103008360086107d05a03fa9051169695505050505050565b60405161038081016040526107b5600084013561005e565b6107c2602084013561005e565b6107cf604084013561005e565b6107dc606084013561005e565b6107e9608084013561005e565b6107f660a084013561005e565b61080360c084013561005e565b61081060e084013561005e565b61081e61010084013561005e565b61082c61012084013561005e565b61083a61014084013561005e565b61084861016084013561005e565b610855818486888a6100fd565b90508060005260206000f35b806040810183101561087257600080fd5b92915050565b60008060008061026080868803121561089057600080fd5b61089a8787610861565b945060c08601878111156108ad57600080fd5b6040870194506108bd8882610861565b9350508681870111156108cf57600080fd5b5092959194509261010001915056fea2646970667358221220e7a0183b3684be35d2efe9e6bf8a63a2ce9d783644e81093a1f1eca7ff3a6e1464736f6c63430008150033",
    "linkReferences": {}
  },
  "methodIdentifiers": {
    "DOMAIN_BYTES()": "86c290ae",
    "DOMAIN_FIELDS()": "b2defd78",
    "EMAIL_ADDR_BYTES()": "522a8044",
    "EMAIL_ADDR_FIELDS()": "c61b8c83",
    "SUBJECT_BYTES()": "506a0f91",
    "SUBJECT_FIELDS()": "47ba75a8",
    "_packBytes2Fields(bytes,uint256)": "e6a28005",
    "accountCreationVerifier()": "209e3a5f",
    "announcementVerifier()": "438b7682",
    "claimVerifier()": "a93539d0",
    "emailSenderVerifier()": "58373f58",
    "verifyAccountCreationProof(string,bytes32,bytes32,uint256,bytes32,bytes,bytes)": "ac4b1afe",
    "verifyAnnouncementProof(string,bytes32,bytes32,bytes)": "be65c064",
    "verifyClaimFundProof(bytes32,bytes32,bytes)": "c03a5c18",
    "verifyEmailOpProof(string,bytes32,uint256,bytes32,string,bytes32,bool,bytes32,bytes)": "d649c200"
  },
  "storageLayout": {
    "storage": [],
    "types": {}
  },
  "id": 147
}