{
  "abi": [
    {
      "inputs": [],
      "stateMutability": "nonpayable",
      "type": "constructor"
    },
    {
      "inputs": [],
      "name": "DOMAIN_BYTES",
      "outputs": [
        {
          "internalType": "uint256",
          "name": "",
          "type": "uint256"
        }
      ],
      "stateMutability": "view",
      "type": "function"
    },
    {
      "inputs": [],
      "name": "DOMAIN_FIELDS",
      "outputs": [
        {
          "internalType": "uint256",
          "name": "",
          "type": "uint256"
        }
      ],
      "stateMutability": "view",
      "type": "function"
    },
    {
      "inputs": [],
      "name": "EMAIL_ADDR_BYTES",
      "outputs": [
        {
          "internalType": "uint256",
          "name": "",
          "type": "uint256"
        }
      ],
      "stateMutability": "view",
      "type": "function"
    },
    {
      "inputs": [],
      "name": "EMAIL_ADDR_FIELDS",
      "outputs": [
        {
          "internalType": "uint256",
          "name": "",
          "type": "uint256"
        }
      ],
      "stateMutability": "view",
      "type": "function"
    },
    {
      "inputs": [],
      "name": "SUBJECT_BYTES",
      "outputs": [
        {
          "internalType": "uint256",
          "name": "",
          "type": "uint256"
        }
      ],
      "stateMutability": "view",
      "type": "function"
    },
    {
      "inputs": [],
      "name": "SUBJECT_FIELDS",
      "outputs": [
        {
          "internalType": "uint256",
          "name": "",
          "type": "uint256"
        }
      ],
      "stateMutability": "view",
      "type": "function"
    },
    {
      "inputs": [
        {
          "internalType": "bytes",
          "name": "_bytes",
          "type": "bytes"
        },
        {
          "internalType": "uint256",
          "name": "_paddedSize",
          "type": "uint256"
        }
      ],
      "name": "_packBytes2Fields",
      "outputs": [
        {
          "internalType": "uint256[]",
          "name": "",
          "type": "uint256[]"
        }
      ],
      "stateMutability": "pure",
      "type": "function"
    },
    {
      "inputs": [],
      "name": "accountCreationVerifier",
      "outputs": [
        {
          "internalType": "contract AccountCreationVerifier",
          "name": "",
          "type": "address"
        }
      ],
      "stateMutability": "view",
      "type": "function"
    },
    {
      "inputs": [],
      "name": "accountInitVerifier",
      "outputs": [
        {
          "internalType": "contract AccountInitVerifier",
          "name": "",
          "type": "address"
        }
      ],
      "stateMutability": "view",
      "type": "function"
    },
    {
      "inputs": [],
      "name": "accountTransportVerifier",
      "outputs": [
        {
          "internalType": "contract AccountTransportVerifier",
          "name": "",
          "type": "address"
        }
      ],
      "stateMutability": "view",
      "type": "function"
    },
    {
      "inputs": [],
      "name": "announcementVerifier",
      "outputs": [
        {
          "internalType": "contract AnnouncementVerifier",
          "name": "",
          "type": "address"
        }
      ],
      "stateMutability": "view",
      "type": "function"
    },
    {
      "inputs": [],
      "name": "claimVerifier",
      "outputs": [
        {
          "internalType": "contract ClaimVerifier",
          "name": "",
          "type": "address"
        }
      ],
      "stateMutability": "view",
      "type": "function"
    },
    {
      "inputs": [],
      "name": "emailSenderVerifier",
      "outputs": [
        {
          "internalType": "contract EmailSenderVerifier",
          "name": "",
          "type": "address"
        }
      ],
      "stateMutability": "view",
      "type": "function"
    },
    {
      "inputs": [
        {
          "internalType": "bytes32",
          "name": "relayerHash",
          "type": "bytes32"
        },
        {
          "internalType": "bytes32",
          "name": "emailAddrPointer",
          "type": "bytes32"
        },
        {
          "internalType": "bytes32",
          "name": "accountKeyCommit",
          "type": "bytes32"
        },
        {
          "internalType": "bytes32",
          "name": "walletSalt",
          "type": "bytes32"
        },
        {
          "internalType": "bytes",
          "name": "psiPoint",
          "type": "bytes"
        },
        {
          "internalType": "bytes",
          "name": "proof",
          "type": "bytes"
        }
      ],
      "name": "verifyAccountCreationProof",
      "outputs": [
        {
          "internalType": "bool",
          "name": "",
          "type": "bool"
        }
      ],
      "stateMutability": "view",
      "type": "function"
    },
    {
      "inputs": [
        {
          "internalType": "string",
          "name": "emailDomain",
          "type": "string"
        },
        {
          "internalType": "bytes32",
          "name": "dkimPublicKeyHash",
          "type": "bytes32"
        },
        {
          "internalType": "uint256",
          "name": "timestamp",
          "type": "uint256"
        },
        {
          "internalType": "bytes32",
          "name": "relayerHash",
          "type": "bytes32"
        },
        {
          "internalType": "bytes32",
          "name": "emailAddrPointer",
          "type": "bytes32"
        },
        {
          "internalType": "bytes32",
          "name": "accountKeyCommit",
          "type": "bytes32"
        },
        {
          "internalType": "bytes32",
          "name": "emailNullifier",
          "type": "bytes32"
        },
        {
          "internalType": "bytes",
          "name": "proof",
          "type": "bytes"
        }
      ],
      "name": "verifyAccountInitializaionProof",
      "outputs": [
        {
          "internalType": "bool",
          "name": "",
          "type": "bool"
        }
      ],
      "stateMutability": "view",
      "type": "function"
    },
    {
      "inputs": [
        {
          "internalType": "string",
          "name": "emailDomain",
          "type": "string"
        },
        {
          "internalType": "bytes32",
          "name": "dkimPublicKeyHash",
          "type": "bytes32"
        },
        {
          "internalType": "uint256",
          "name": "timestamp",
          "type": "uint256"
        },
        {
          "internalType": "bytes32",
          "name": "emailNullifier",
          "type": "bytes32"
        },
        {
          "internalType": "bytes32",
          "name": "oldRelayerRandHash",
          "type": "bytes32"
        },
        {
          "internalType": "bytes32",
          "name": "newRelayerRandHash",
          "type": "bytes32"
        },
        {
          "internalType": "bytes32",
          "name": "oldAccountKeyCommit",
          "type": "bytes32"
        },
        {
          "internalType": "bytes32",
          "name": "newAccountKeyCommit",
          "type": "bytes32"
        },
        {
          "internalType": "bytes",
          "name": "proof",
          "type": "bytes"
        }
      ],
      "name": "verifyAccountTransportProof",
      "outputs": [
        {
          "internalType": "bool",
          "name": "",
          "type": "bool"
        }
      ],
      "stateMutability": "view",
      "type": "function"
    },
    {
      "inputs": [
        {
          "internalType": "string",
          "name": "emailAddr",
          "type": "string"
        },
        {
          "internalType": "bytes32",
          "name": "rand",
          "type": "bytes32"
        },
        {
          "internalType": "bytes32",
          "name": "emailAddrCommit",
          "type": "bytes32"
        },
        {
          "internalType": "bytes",
          "name": "proof",
          "type": "bytes"
        }
      ],
      "name": "verifyAnnouncementProof",
      "outputs": [
        {
          "internalType": "bool",
          "name": "",
          "type": "bool"
        }
      ],
      "stateMutability": "view",
      "type": "function"
    },
    {
      "inputs": [
        {
          "internalType": "bytes32",
          "name": "recipientRelayerHash",
          "type": "bytes32"
        },
        {
          "internalType": "bytes32",
          "name": "recipientEmailAddrPointer",
          "type": "bytes32"
        },
        {
          "internalType": "bytes32",
          "name": "recipientEmailAddrCommit",
          "type": "bytes32"
        },
        {
          "internalType": "bytes",
          "name": "proof",
          "type": "bytes"
        }
      ],
      "name": "verifyClaimFundProof",
      "outputs": [
        {
          "internalType": "bool",
          "name": "",
          "type": "bool"
        }
      ],
      "stateMutability": "view",
      "type": "function"
    },
    {
      "inputs": [
        {
          "internalType": "string",
          "name": "emailDomain",
          "type": "string"
        },
        {
          "internalType": "bytes32",
          "name": "dkimPublicKeyHash",
          "type": "bytes32"
        },
        {
          "internalType": "uint256",
          "name": "timestamp",
          "type": "uint256"
        },
        {
          "internalType": "string",
          "name": "maskedSubject",
          "type": "string"
        },
        {
          "internalType": "bytes32",
          "name": "emailNullifier",
          "type": "bytes32"
        },
        {
          "internalType": "bytes32",
          "name": "relayerHash",
          "type": "bytes32"
        },
        {
          "internalType": "bytes32",
          "name": "emailAddrPointer",
          "type": "bytes32"
        },
        {
          "internalType": "bool",
          "name": "hasEmailRecipient",
          "type": "bool"
        },
        {
          "internalType": "bytes32",
          "name": "recipientEmailAddrCommit",
          "type": "bytes32"
        },
        {
          "internalType": "bytes",
          "name": "proof",
          "type": "bytes"
        }
      ],
      "name": "verifyEmailOpProof",
      "outputs": [
        {
          "internalType": "bool",
          "name": "",
          "type": "bool"
        }
      ],
      "stateMutability": "view",
      "type": "function"
    }
  ],
  "bytecode": {
    "object": "0x6101406040523480156200001257600080fd5b5060405162000021906200016b565b604051809103906000f0801580156200003e573d6000803e3d6000fd5b506001600160a01b0316608052604051620000599062000179565b604051809103906000f08015801562000076573d6000803e3d6000fd5b506001600160a01b031660a052604051620000919062000187565b604051809103906000f080158015620000ae573d6000803e3d6000fd5b506001600160a01b031660c052604051620000c99062000195565b604051809103906000f080158015620000e6573d6000803e3d6000fd5b506001600160a01b031660e0526040516200010190620001a3565b604051809103906000f0801580156200011e573d6000803e3d6000fd5b506001600160a01b0316610100526040516200013a90620001b1565b604051809103906000f08015801562000157573d6000803e3d6000fd5b506001600160a01b031661012052620001bf565b6107468062001a6983390190565b610a9980620021af83390190565b610af98062002c4883390190565b61062f806200374183390190565b6111428062003d7083390190565b61091e8062004eb283390190565b60805160a05160c05160e0516101005161012051611830620002396000396000818161016201526108180152600081816101d80152610713015260008181610254015261042e01526000818161022d015261063701526000818161018901526109f7015260008181610123015261035201526118306000f3fe608060405234801561001057600080fd5b50600436106100f15760003560e01c806316999ab5146100f6578063209e3a5f1461011e578063438b76821461015d57806346219a991461018457806347ba75a8146101ab578063506a0f91146101c1578063522a8044146101ca57806358373f58146101d357806380dc3737146101fa57806386c290ae1461020d57806387fac4ba1461021557806399595b2f14610228578063a93539d01461024f578063b2defd7814610276578063b4fe57921461027e578063be65c06414610291578063c61b8c8314610276578063ce2e9f0e146102a4578063e6a28005146102b7575b600080fd5b610109610104366004610fc0565b6102d7565b60405190151581526020015b60405180910390f35b6101457f000000000000000000000000000000000000000000000000000000000000000081565b6040516001600160a01b039091168152602001610115565b6101457f000000000000000000000000000000000000000000000000000000000000000081565b6101457f000000000000000000000000000000000000000000000000000000000000000081565b6101b3601181565b604051908152602001610115565b6101b361020081565b6101b361010081565b6101457f000000000000000000000000000000000000000000000000000000000000000081565b610109610208366004611048565b6103e7565b6101b360ff81565b6101096102233660046110a1565b6104bf565b6101457f000000000000000000000000000000000000000000000000000000000000000081565b6101457f000000000000000000000000000000000000000000000000000000000000000081565b6101b3600981565b61010961028c366004611169565b6106c6565b61010961029f36600461123d565b61074e565b6101096102b23660046112a7565b6108a2565b6102ca6102c5366004611344565b610a85565b6040516101159190611388565b600080600080848060200190518101906102f1919061141c565b9250925092506102ff610e3e565b8a815260208082018b9052604082018a9052606082018990528751600091829161033091908b018101908b016114bf565b6080850182905260a0850181905260405163f398789b60e01b815291935091507f00000000000000000000000000000000000000000000000000000000000000006001600160a01b03169063f398789b9061039590899089908990899060040161153a565b602060405180830381865afa1580156103b2573d6000803e3d6000fd5b505050506040513d601f19601f820116820180604052508101906103d69190611597565b9d9c50505050505050505050505050565b60008060008084806020019051810190610401919061141c565b92509250925061040f610e5c565b888152602081018890526040808201889052516308a3cff560e11b81527f00000000000000000000000000000000000000000000000000000000000000006001600160a01b0316906311479fea906104719087908790879087906004016115bb565b602060405180830381865afa15801561048e573d6000803e3d6000fd5b505050506040513d601f19601f820116820180604052508101906104b29190611597565b9998505050505050505050565b600080600080848060200190518101906104d9919061141c565b9250925092506104e7610e7a565b60006104f48f60ff610a85565b905060005b600981101561054557818181518110610514576105146114a9565b602002602001015183826010811061052e5761052e6114a9565b60200201528061053d81611622565b9150506104f9565b5061012082018e90528b8261055c6009600161163b565b6010811061056c5761056c6114a9565b6020020152888261057f6009600261163b565b6010811061058f5761058f6114a9565b602002015287826105a26009600361163b565b601081106105b2576105b26114a9565b602002015289826105c56009600461163b565b601081106105d5576105d56114a9565b60200201528c826105e86009600561163b565b601081106105f8576105f86114a9565b60200201528a8261060b6009600661163b565b6010811061061b5761061b6114a9565b602002015260405163c82febf560e01b81526001600160a01b037f0000000000000000000000000000000000000000000000000000000000000000169063c82febf59061067290889088908890889060040161164e565b602060405180830381865afa15801561068f573d6000803e3d6000fd5b505050506040513d601f19601f820116820180604052508101906106b39190611597565b9f9e505050505050505050505050505050565b600080600080848060200190518101906106e0919061141c565b92509250925060006106f98f8f8f8f8f8f8f8f8f610c0a565b60405163ee56750f60e01b81529091506001600160a01b037f0000000000000000000000000000000000000000000000000000000000000000169063ee56750f9061067290879087908790879060040161169f565b60008060008084806020019051810190610768919061141c565b925092509250610776610e99565b60006107848a610100610a85565b905060005b60098110156107d5578181815181106107a4576107a46114a9565b60200260200101518382600b81106107be576107be6114a9565b6020020152806107cd81611622565b915050610789565b50610120820188905288826107ec6009600161163b565b600b81106107fc576107fc6114a9565b602002015260405163b9c6ea8760e01b81526001600160a01b037f0000000000000000000000000000000000000000000000000000000000000000169063b9c6ea87906108539088908890889088906004016116f0565b602060405180830381865afa158015610870573d6000803e3d6000fd5b505050506040513d601f19601f820116820180604052508101906108949190611597565b9a9950505050505050505050565b600080600080848060200190518101906108bc919061141c565b9250925092506108ca610eb8565b60006108d78e60ff610a85565b905060005b6009811015610928578181815181106108f7576108f76114a9565b60200260200101518382600f8110610911576109116114a9565b60200201528061092081611622565b9150506108dc565b5061012082018d90528a8261093f6009600161163b565b600f811061094f5761094f6114a9565b602002015287826109626009600261163b565b600f8110610972576109726114a9565b602002015289826109856009600361163b565b600f8110610995576109956114a9565b602002015288826109a86009600461163b565b600f81106109b8576109b86114a9565b60200201528b826109cb6009600561163b565b600f81106109db576109db6114a9565b602002015260405163f054a9a360e01b81526001600160a01b037f0000000000000000000000000000000000000000000000000000000000000000169063f054a9a390610a32908890889088908890600401611741565b602060405180830381865afa158015610a4f573d6000803e3d6000fd5b505050506040513d601f19601f82011682018060405250810190610a739190611597565b9e9d5050505050505050505050505050565b60606000610a94601f846117a8565b90506000601f610aa483866117bc565b610aae91906117cf565b90508115610ac457610ac160018261163b565b90505b6000816001600160401b03811115610ade57610ade610ef6565b604051908082528060200260200182016040528015610b07578160200160208202803683370190505b50905060008060005b84811015610bfb5760005b601f811015610be85780610b3083601f6117e3565b610b3a919061163b565b935088841015610be85789518410610b555760009250610b72565b898481518110610b6757610b676114a9565b016020015160f81c92505b80600003610b9e5782858381518110610b8d57610b8d6114a9565b602002602001018181525050610bd6565b610ba98160086117e3565b83901b858381518110610bbe57610bbe6114a9565b60200260200101818151610bd2919061163b565b9052505b80610be081611622565b915050610b1b565b5080610bf381611622565b915050610b10565b50919450505050505b92915050565b610c12610ed7565b610c1a610ed7565b6060610c2889610200610a85565b905060005b6011811015610c7957818181518110610c4857610c486114a9565b6020026020010151838260218110610c6257610c626114a9565b602002015280610c7181611622565b915050610c2d565b5060609050610c898c60ff610a85565b905060005b6009811015610ce657818181518110610ca957610ca96114a9565b602002602001015183826011610cbf919061163b565b60218110610ccf57610ccf6114a9565b602002015280610cde81611622565b915050610c8e565b508a82610cf56009601161163b565b60218110610d0557610d056114a9565b60200201528682610d186009601161163b565b610d2390600161163b565b60218110610d3357610d336114a9565b60200201528782610d466009601161163b565b610d5190600261163b565b60218110610d6157610d616114a9565b60200201528582610d746009601161163b565b610d7f90600361163b565b60218110610d8f57610d8f6114a9565b602002015284610da0576000610da3565b60015b60ff1682610db36009601161163b565b610dbe90600461163b565b60218110610dce57610dce6114a9565b60200201528382610de16009601161163b565b610dec90600561163b565b60218110610dfc57610dfc6114a9565b60200201528982610e0f6009601161163b565b610e1a90600661163b565b60218110610e2a57610e2a6114a9565b6020020152509a9950505050505050505050565b6040518060c001604052806006906020820280368337509192915050565b60405180606001604052806003906020820280368337509192915050565b6040518061020001604052806010906020820280368337509192915050565b604051806101600160405280600b906020820280368337509192915050565b604051806101e00160405280600f906020820280368337509192915050565b6040518061042001604052806021906020820280368337509192915050565b634e487b7160e01b600052604160045260246000fd5b604080519081016001600160401b0381118282101715610f2e57610f2e610ef6565b60405290565b600082601f830112610f4557600080fd5b81356001600160401b0380821115610f5f57610f5f610ef6565b604051601f8301601f19908116603f01168101908282118183101715610f8757610f87610ef6565b81604052838152866020858801011115610fa057600080fd5b836020870160208301376000602085830101528094505050505092915050565b60008060008060008060c08789031215610fd957600080fd5b8635955060208701359450604087013593506060870135925060808701356001600160401b038082111561100c57600080fd5b6110188a838b01610f34565b935060a089013591508082111561102e57600080fd5b5061103b89828a01610f34565b9150509295509295509295565b6000806000806080858703121561105e57600080fd5b84359350602085013592506040850135915060608501356001600160401b0381111561108957600080fd5b61109587828801610f34565b91505092959194509250565b60008060008060008060008060006101208a8c0312156110c057600080fd5b89356001600160401b03808211156110d757600080fd5b6110e38d838e01610f34565b9a5060208c0135995060408c0135985060608c0135975060808c0135965060a08c0135955060c08c0135945060e08c013593506101008c013591508082111561112b57600080fd5b506111388c828d01610f34565b9150509295985092959850929598565b801515811461115657600080fd5b50565b803561116481611148565b919050565b6000806000806000806000806000806101408b8d03121561118957600080fd5b8a356001600160401b03808211156111a057600080fd5b6111ac8e838f01610f34565b9b5060208d01359a5060408d0135995060608d01359150808211156111d057600080fd5b6111dc8e838f01610f34565b985060808d0135975060a08d0135965060c08d013595506111ff60e08e01611159565b94506101008d013593506101208d013591508082111561121e57600080fd5b5061122b8d828e01610f34565b9150509295989b9194979a5092959850565b6000806000806080858703121561125357600080fd5b84356001600160401b038082111561126a57600080fd5b61127688838901610f34565b95506020870135945060408701359350606087013591508082111561129a57600080fd5b5061109587828801610f34565b600080600080600080600080610100898b0312156112c457600080fd5b88356001600160401b03808211156112db57600080fd5b6112e78c838d01610f34565b995060208b0135985060408b0135975060608b0135965060808b0135955060a08b0135945060c08b0135935060e08b013591508082111561132757600080fd5b506113348b828c01610f34565b9150509295985092959890939650565b6000806040838503121561135757600080fd5b82356001600160401b0381111561136d57600080fd5b61137985828601610f34565b95602094909401359450505050565b6020808252825182820181905260009190848201906040850190845b818110156113c0578351835292840192918401916001016113a4565b50909695505050505050565b600082601f8301126113dd57600080fd5b6113e5610f0c565b8060408401858111156113f757600080fd5b845b818110156114115780518452602093840193016113f9565b509095945050505050565b6000806000610100848603121561143257600080fd5b61143c85856113cc565b9250604085605f86011261144f57600080fd5b611457610f0c565b8060c087018881111561146957600080fd5b8388015b8181101561148e5761147f8a826113cc565b8452602090930192840161146d565b5081955061149c89826113cc565b9450505050509250925092565b634e487b7160e01b600052603260045260246000fd5b600080604083850312156114d257600080fd5b505080516020909101519092909150565b8060005b60028110156115065781518452602093840193909101906001016114e7565b50505050565b8060005b6002811015611506576115248483516114e3565b6040939093019260209190910190600101611510565b6101c0810161154982876114e3565b611556604083018661150c565b61156360c08301856114e3565b61010082018360005b600681101561158b57815183526020928301929091019060010161156c565b50505095945050505050565b6000602082840312156115a957600080fd5b81516115b481611148565b9392505050565b61016081016115ca82876114e3565b6115d7604083018661150c565b6115e460c08301856114e3565b61010082018360005b600381101561158b5781518352602092830192909101906001016115ed565b634e487b7160e01b600052601160045260246000fd5b6000600182016116345761163461160c565b5060010190565b80820180821115610c0457610c0461160c565b610300810161165d82876114e3565b61166a604083018661150c565b61167760c08301856114e3565b61010082018360005b601081101561158b578151835260209283019290910190600101611680565b61052081016116ae82876114e3565b6116bb604083018661150c565b6116c860c08301856114e3565b61010082018360005b602181101561158b5781518352602092830192909101906001016116d1565b61026081016116ff82876114e3565b61170c604083018661150c565b61171960c08301856114e3565b61010082018360005b600b81101561158b578151835260209283019290910190600101611722565b6102e0810161175082876114e3565b61175d604083018661150c565b61176a60c08301856114e3565b61010082018360005b600f81101561158b578151835260209283019290910190600101611773565b634e487b7160e01b600052601260045260246000fd5b6000826117b7576117b7611792565b500690565b81810381811115610c0457610c0461160c565b6000826117de576117de611792565b500490565b8082028115828204841417610c0457610c0461160c56fea2646970667358221220c3d18157093d1ca76c058f5ea7c5eb5e74e02c1701061244450ebb1ecb9751b664736f6c63430008110033608060405234801561001057600080fd5b50610726806100206000396000f3fe608060405234801561001057600080fd5b506004361061002b5760003560e01c8063f398789b14610030575b600080fd5b61004361003e36600461066a565b610057565b604051901515815260200160405180910390f35b60006105d4565b6000805160206106d1833981519152811061007d576000805260206000f35b50565b600060405183815284602082015285604082015260408160608360076107d05a03fa9150816100b3576000805260206000f35b825160408201526020830151606082015260408360808360066107d05a03fa915050806100e4576000805260206000f35b5050505050565b7f293f09c5dc0f8c768c036ad64033405ff44ec0c70c2e95fd0fcef96d3424e1c385527f1b6a47e30fee5c11d29b6e5fb06f75681afa0e794677a3b64f9b768c4293d7ca60208601526000608086018661018887357f28cc2585a078c2c086fc4294d1f09d49d021bbc6b17adb994cd08aa43ee3ef9c7f2397a5e7cd8627b91eb179223796483e1bc5a8dc4d805cca435d8beea5b6eed084610080565b6101d860208801357f2d9cb103d2433e7b969a19f04e489ff2e6c794bd80a354e373638524a46556b17f2f65e5672393cc8e18e5bd3ee11b63e67f0dde9c97cbb4893f440bde681b9bf584610080565b61022860408801357f0e509db793f15992f9b9f40285f06472e8cf3ceae0fe642dab31489ef3863f2d7f185e351a82dc5583a10dfba0f130404db427ca18d6eaf811772f594a6f82c35c84610080565b61027860608801357f13c347d873ca54b4ca998863174b2a8ca6ba4e4dfc34394e85aef888ca9f3b917f0378913e66579b46199240af6256f72b5f07ffc35c8651eddaf0317a3939a5e484610080565b6102c860808801357f126d4aa107615532c188a10090c4ddf5f3bca0119ca93219ae9b1912c9db48e77f17d68a8ed71560bca9863eff528e28676d83ab15fb8b77192111bb9ceb02201284610080565b61031860a08801357f0a2c7aea852ce205e18a2a32a99aa4720c07bd3211596ac981a96538acce1cf87f0eeb1c98f72693ebedd260ab8be805e35ebf608832a33b0ae5b40e248dc85b2684610080565b50823581526000805160206106d183398151915260208401356000805160206106d183398151915203066020820152833560408201526020840135606082015260408401356080820152606084013560a08201527f2d4d9aa7e302d9df41749d5507949d05dbea33fbb16c643b22f599a2be6df2e260c08201527f14bedd503c37ceb061d8ec60209fe345ce89830a19230301f076caff004d192660e08201527f0967032fcbf776d1afc985f88877f182d38480a653f2decaa9794cbc3bf3060c6101008201527f0e187847ad4c798374d0d6732bf501847dd68bc0e071241e0213bc7fc13db7ab6101208201527f304cfbd1e08a704a99f5e847d93f8c3caafddec46b7a0d379da69a4d112346a76101408201527f1739c1b1a457a8c7313123d24d2f9192f896b7c63eea05a9d57f06547ad0cec8610160820152600087015161018082015260206000018701516101a08201527f198e9393920d483a7260bfb731fb5d25f1aa493335a9e71297e485b7aef312c26101c08201527f1800deef121f1e76426a00665e5c4479674322d4f75edadd46debd5cd992f6ed6101e08201527f090689d0585ff075ec9e99ad690c3395bc4b313370b38ef355acdadcd122975b6102008201527f12c85ea5db8c6deb4aab71808dcb408fe3d1e7690c43d37b4ce6cc0166fa7daa610220820152843561024082015260208501356102608201527f1abb7942a25b12a6a8345ef12db88893119c82624c8f959c057ac877cd5838c46102808201527f272a95765679ae53f286b7ee6d0254b97710f1b0673fda86272d71c7e7474d876102a08201527f0eda5ee00ad6cd7e5fe7b147bdec168a7bc58b2014a368de431a7518c7d142e16102c08201527f1e6bef49328ed39a9dba194a8c976b569534b8cf2815a0b8b550ac871e60163b6102e08201526020816103008360086107d05a03fa9051169695505050505050565b60405161038081016040526105ec600084013561005e565b6105f9602084013561005e565b610606604084013561005e565b610613606084013561005e565b610620608084013561005e565b61062d60a084013561005e565b61063a60c084013561005e565b610647818486888a6100eb565b90508060005260206000f35b806040810183101561066457600080fd5b92915050565b6000806000806101c080868803121561068257600080fd5b61068c8787610653565b945060c086018781111561069f57600080fd5b6040870194506106af8882610653565b9350508681870111156106c157600080fd5b5092959194509261010001915056fe30644e72e131a029b85045b68181585d97816a916871ca8d3c208c16d87cfd47a26469706673582212208356cc955021f9a0b104921eecb86098a7fd74369967a36a9992565ba572036264736f6c63430008110033608060405234801561001057600080fd5b50610a79806100206000396000f3fe608060405234801561001057600080fd5b506004361061002b5760003560e01c8063f054a9a314610030575b600080fd5b61004361003e3660046109bd565b610057565b604051901515815260200160405180910390f35b60006108aa565b600080516020610a24833981519152811061007d576000805260206000f35b50565b600060405183815284602082015285604082015260408160608360076107d05a03fa9150816100b3576000805260206000f35b825160408201526020830151606082015260408360808360066107d05a03fa915050806100e4576000805260206000f35b5050505050565b7f24e89ecb556581ed51465d6d663f76b63d216f42e96827a0595148a73107fab585527f18868723d0f4e1be3d85c3e62afa62a75617314b82dcbc5ba32fc95f52c2587b60208601526000608086018661018787357e2917495a2183e61cb5bb81aff977391feb2ec83789c9df15738d09d078d9267f0734f1709897743d4d8923c01d10b844dab2cbc9adca72ad75405fb7427f051b84610080565b6101d760208801357f07f5d44ff528772a897b35d55f998d73653a689d6ea490a5657ed15643ff6f697f17ff5b888cab54e2bcf5105355dbcf72a0999456a12a63c15356cf51bdbb614084610080565b61022760408801357f2557b361a49df2b5ed75ad664777faedef780f6153ed8774c7850e656f10daec7f089dc51105b053a566411a1f98a09f409fec37cfa4fa729ceeef371f9819371184610080565b61027760608801357f08e4b334fe8e70cee119069b14cad25336fdcee8089e614853d96c1e49c51bb17f21f6e1d838b2b94802a09d747b1ca8688f9f5e1a1efde316ba8f95962fc24b6084610080565b6102c760808801357f1bb62e70e0f18a3e943168195b70a322e223f95cdaa57f21431ee137359f8ca97f14bd02ac4ac07dade7e8c18c5b797843916a4a94fbad71a77cfb8a7276c9838f84610080565b61031760a08801357f0a376d244169cbd49e1f1851116bdaede675a95781eb9fbce3d640b3742538bd7f10310e86f907c5a8599dc5c3c397744603508b06efa67265bb8e1b6051ae95a184610080565b61036760c08801357f0a69cc8d515074db5c5fef684852508538a3652bb5ef50f6a986232d0327b6d87f2ed469226ef2bae963ecfc171676cf3dd63067c9806ddb3e6f83ace7bb1e793e84610080565b6103b760e08801357f2135f9350e780c38e334cd014daea177fb286308fbfd84e1054b3d97be4757107f2d016002e97dc289c3dd4b811608ecb9f1b4230bdad73665b9899aa979f1434f84610080565b6104086101008801357f18d17ab1e88a00a53ae9a99d5f099b1b1678359aa5f67c80a225d5fb882e556f7f2e9e6e4c3a8ce74c92e5543cdf7e3f337e95f5e86d355d10ee4206510b0fd24384610080565b6104596101208801357f25cf23df754b9eff93844150bbc9067e21526fc188b5d7dc20c0da6522bfc2597f0824e9b0a2d6f8ecff333471bffe931e500fc7c9c2c8dda36aa313a581f5471c84610080565b6104aa6101408801357f26e7da32542a6c1718ad9d1bbaba31dde382e2d4317a3cbdc253d1ae497a11a27f2f99b897625e14d178bfb8a576535161e35efd9fff0793c116e054fde40ff6ca84610080565b6104fb6101608801357f2cee17a8f7d1763b28ad00711c7f5decd9d79c0d729f629ec60e836be41891847f29aece6154b0756701dff5fa15321bd79850cf180ebb1c9d1c4b23e6604b659784610080565b61054c6101808801357f1355e8691749f96d956cab59c94fecc22a5b2ec3f9a2143da564012a52b3d2597f2a9eb54afd9f01e11ce416fc4d4e7765b49c4524f21afaf5c3f16377c4402e7484610080565b61059d6101a08801357f129efc3484cbff2eb352e27bc79cacb10ea55ef76b7f39dc2c5403764743ee427f048a1b0c7602baa53bf65d7c4d438243f981d34ecc57bde1427590a9e834dd3684610080565b6105ee6101c08801357f1af3b63cf6adc461111860b1c0d6ec73bc0307f72a825fb7c7ba2bc6ec36a3507f24ed1053487c72edb2f94b41fd7017e8a3415eec7ba4b25666dc8e5913b4094f84610080565b5082358152600080516020610a248339815191526020840135600080516020610a2483398151915203066020820152833560408201526020840135606082015260408401356080820152606084013560a08201527f2d4d9aa7e302d9df41749d5507949d05dbea33fbb16c643b22f599a2be6df2e260c08201527f14bedd503c37ceb061d8ec60209fe345ce89830a19230301f076caff004d192660e08201527f0967032fcbf776d1afc985f88877f182d38480a653f2decaa9794cbc3bf3060c6101008201527f0e187847ad4c798374d0d6732bf501847dd68bc0e071241e0213bc7fc13db7ab6101208201527f304cfbd1e08a704a99f5e847d93f8c3caafddec46b7a0d379da69a4d112346a76101408201527f1739c1b1a457a8c7313123d24d2f9192f896b7c63eea05a9d57f06547ad0cec8610160820152600087015161018082015260206000018701516101a08201527f198e9393920d483a7260bfb731fb5d25f1aa493335a9e71297e485b7aef312c26101c08201527f1800deef121f1e76426a00665e5c4479674322d4f75edadd46debd5cd992f6ed6101e08201527f090689d0585ff075ec9e99ad690c3395bc4b313370b38ef355acdadcd122975b6102008201527f12c85ea5db8c6deb4aab71808dcb408fe3d1e7690c43d37b4ce6cc0166fa7daa610220820152843561024082015260208501356102608201527f220671550866b363a31bf5e19fc1fb72118d41598d80d3c4b7fd3d4fbca5fbf16102808201527f0aff0cc883f439d778306eaa85560c14f48819a3beadef8bed73471695ac57c76102a08201527f1004025c8217a8ccd9f2c8a7d3a9b136f86efcf7959bb11a56f5f07733cd9ab66102c08201527f2a5144d46da3f7fd55facf71676d91653d659750b06eac0f822980240774ec846102e08201526020816103008360086107d05a03fa9051169695505050505050565b60405161038081016040526108c2600084013561005e565b6108cf602084013561005e565b6108dc604084013561005e565b6108e9606084013561005e565b6108f6608084013561005e565b61090360a084013561005e565b61091060c084013561005e565b61091d60e084013561005e565b61092b61010084013561005e565b61093961012084013561005e565b61094761014084013561005e565b61095561016084013561005e565b61096361018084013561005e565b6109716101a084013561005e565b61097f6101c084013561005e565b61098d6101e084013561005e565b61099a818486888a6100eb565b90508060005260206000f35b80604081018310156109b757600080fd5b92915050565b6000806000806102e08086880312156109d557600080fd5b6109df87876109a6565b945060c08601878111156109f257600080fd5b604087019450610a0288826109a6565b935050868187011115610a1457600080fd5b5092959194509261010001915056fe30644e72e131a029b85045b68181585d97816a916871ca8d3c208c16d87cfd47a26469706673582212208ffeccbc75ede3564db8aa616feb3df474ffb65c2df0427d1b448d56ab30399a64736f6c63430008110033608060405234801561001057600080fd5b50610ad9806100206000396000f3fe608060405234801561001057600080fd5b506004361061002b5760003560e01c8063c82febf514610030575b600080fd5b61004361003e366004610a1d565b610057565b604051901515815260200160405180910390f35b60006108fc565b600080516020610a84833981519152811061007d576000805260206000f35b50565b600060405183815284602082015285604082015260408160608360076107d05a03fa9150816100b3576000805260206000f35b825160408201526020830151606082015260408360808360066107d05a03fa915050806100e4576000805260206000f35b5050505050565b7f2dc2554f42fe4a71509c3a047c77ecf4ff6decf1b52fb605050de9cdf6a558e085527f224ba05c8d965702ed182807f3579c88938f618fa8b935a82e57701bc371611d60208601526000608086018661018887357f092ca1fb2a762b1adfbd3e9b7c8b54cc1ebf0b6c512d954ac1a1c187cf964b987f1d94e966bcb53acfd15fc4f659a84dc8452e693cb3d18984c822ed428a5fe8e484610080565b6101d860208801357f2809598f0cccd9cb63ee19f4b8609890bdb8e13c4c683dced83d7ad0600db35d7f10b9402a5f35d3c9e5aaabf79f50a8dcfc846624ec016c2b1ff8e3d6b0b28b4d84610080565b61022860408801357f2c7b6defd9eaae081c14a62451add6c2c893ab51bcf0597b0988ed78635b46e17f0dff0c93b9500afb69bef0586832b47e5c06c84f2457e061aa6bd33e19c9cee084610080565b61027860608801357f0d7d175032472fd1b91fa457d0e91b9ea047ea7c8d9e67e27063577c9de85c047f2a2614eea716a6081a217c881a9d133951f94773e23ef110faff4a977652c62584610080565b6102c860808801357f0c20803597cbe0978915f024685c524a7955f8b131392d1e424c3dafdee203777f2191df99b8e81db286b4af80de4f94f6286211e037c086614419c10483a0ccc884610080565b61031860a08801357f2d5e1c49d261a9c947635dc398174048f98d1a9573d00116506f6cf26cd1aeb27f2f8c26dde0dd1e834b38820fc4b6209cce9aa0f97c2428280f29077aa417d7f784610080565b61036860c08801357f2240d183d9b9cb94506b9354dca366ec2bc09b996899c25a39188bbb9bf1c01e7f132855d49c964b515c7fafcfd897a2e07337b16f99ad2d6d29e151a6fa72c02984610080565b6103b860e08801357f29634a17a3d18e8fb1bcdcef58131958e8ba13568dc12c643f8f92daf29b64a57f179fd9f6cb167e7abeccfc9fe6eafd13dd6d732b81653be8e723b9fb76f299ff84610080565b6104096101008801357f04c9bf71ee76a2a02dddc0ff403cfb4d1b0d5a06f5ed297481b581438784fce27f1faa7c618c4517d62414d5ca48c47e314d0d355db130631f3f425d980e14bb4884610080565b61045a6101208801357f0129bfc07378b9d50123d846e751fe5933a4b5115e2c6dfbac3ff7731e7223907f2778b6394ceaa57270f3643ab8ed34a0aab4fa1c9d0c8e94a98a818f8cf73d2884610080565b6104ab6101408801357f186e57fda3a8edabe68fe49b66a79830423ceac19b75e78a8ccb4ef6e1c4bf767f20138df6374d785a9247794e7bf036ee354d421d7829c75f7682671f3c97a89a84610080565b6104fc6101608801357f0de42c1ffeef447077e9447f99b072cfe8b22ba1e4cddb943e1182f8d7493d237f26f1b7d297b642be620e52104fc7b369bb2d746e36c8aec7ac478d65807af32784610080565b61054d6101808801357f1565b856b07f4555c4b307c760fcb10452a5cc7389255e7d32dc9b5bd51df0d57f109905b875b85aac69ae44dca37e533ddeffe04130a8d142a4af0f37a14e7b0c84610080565b61059e6101a08801357f0f56b557e066f1ce87cf1a49409842398b7c4ae79bb803c74f8be9361e40704a7f15568d04d5176d22032afe6f556ae7881a8c533acf18e6d375a7e2daa958049484610080565b6105ef6101c08801357f265d1cf3f01efbaff33da2057f9e5a739cfba7ece3f2b8535cd30dedafb0612b7f0a4b4f7b8dd050b3bd35a63edc6df471d7811dc4e502955d125a89f540a6584b84610080565b6106406101e08801357f0d85c76b301bce4e1dfb15523bbae531bfb76a1bcc46e854c214fa346727087f7f1f319e758b54e2da20cfae53b740a676af730c41a8a06cbe9ac7c18e61232e3984610080565b5082358152600080516020610a848339815191526020840135600080516020610a8483398151915203066020820152833560408201526020840135606082015260408401356080820152606084013560a08201527f2d4d9aa7e302d9df41749d5507949d05dbea33fbb16c643b22f599a2be6df2e260c08201527f14bedd503c37ceb061d8ec60209fe345ce89830a19230301f076caff004d192660e08201527f0967032fcbf776d1afc985f88877f182d38480a653f2decaa9794cbc3bf3060c6101008201527f0e187847ad4c798374d0d6732bf501847dd68bc0e071241e0213bc7fc13db7ab6101208201527f304cfbd1e08a704a99f5e847d93f8c3caafddec46b7a0d379da69a4d112346a76101408201527f1739c1b1a457a8c7313123d24d2f9192f896b7c63eea05a9d57f06547ad0cec8610160820152600087015161018082015260206000018701516101a08201527f198e9393920d483a7260bfb731fb5d25f1aa493335a9e71297e485b7aef312c26101c08201527f1800deef121f1e76426a00665e5c4479674322d4f75edadd46debd5cd992f6ed6101e08201527f090689d0585ff075ec9e99ad690c3395bc4b313370b38ef355acdadcd122975b6102008201527f12c85ea5db8c6deb4aab71808dcb408fe3d1e7690c43d37b4ce6cc0166fa7daa610220820152843561024082015260208501356102608201527f1e0ba06a99392f2f60e1fd3e0c34bffc657d47e5950416f7315c2896f584b1a96102808201527f1565bfc5df775ea9c0e77a4574ce8329533f969a223296ea8c7bb93cc3ebdda56102a08201527f1e95fb601e4fc2750c17ec3b19c5cae51b4fae2e985715a3c3f5d05292bdcac06102c08201527f146ba894ec5cdd33f9ddad53e7ea0664718e827107147e3d14e686389e1cbb0b6102e08201526020816103008360086107d05a03fa9051169695505050505050565b6040516103808101604052610914600084013561005e565b610921602084013561005e565b61092e604084013561005e565b61093b606084013561005e565b610948608084013561005e565b61095560a084013561005e565b61096260c084013561005e565b61096f60e084013561005e565b61097d61010084013561005e565b61098b61012084013561005e565b61099961014084013561005e565b6109a761016084013561005e565b6109b561018084013561005e565b6109c36101a084013561005e565b6109d16101c084013561005e565b6109df6101e084013561005e565b6109ed61020084013561005e565b6109fa818486888a6100eb565b90508060005260206000f35b8060408101831015610a1757600080fd5b92915050565b600080600080610300808688031215610a3557600080fd5b610a3f8787610a06565b945060c0860187811115610a5257600080fd5b604087019450610a628882610a06565b935050868187011115610a7457600080fd5b5092959194509261010001915056fe30644e72e131a029b85045b68181585d97816a916871ca8d3c208c16d87cfd47a2646970667358221220839007328a37b58f192e38d3153d305c76c7c19427c4ca121d50c08a855bcef464736f6c63430008110033608060405234801561001057600080fd5b5061060f806100206000396000f3fe608060405234801561001057600080fd5b506004361061002b5760003560e01c806311479fea14610030575b600080fd5b61004361003e366004610553565b610057565b604051901515815260200160405180910390f35b60006104e4565b6000805160206105ba833981519152811061007d576000805260206000f35b50565b600060405183815284602082015285604082015260408160608360076107d05a03fa9150816100b3576000805260206000f35b825160408201526020830151606082015260408360808360066107d05a03fa915050806100e4576000805260206000f35b5050505050565b7f28162f719bb77b8db7086fee542dc7d79a38efb335cf875ebc92a10f64ab00a985527f069fa76c6b6f3ecbac6c8a1b3d3739fa1234eeaea1daa1513a772ce465d9a42260208601526000608086018661018887357f107c2d352113e74495def73aac84392f43a832c3032cfd5acfc5192bd17840f27f2e53fe637eba82996fa72b0b444caaefaa61bb204ac679e6916290250d8d95c584610080565b6101d860208801357f1a94d4e41c07935039642b7dc3f442d0b7784b6a0bbcce0f2a6b0ede97aa267e7f2de21c35efec167ff853efa300302ba50581d7b96012258781604c2859418f9884610080565b61022860408801357f0b25ff10ac21cab643d983a1402d31bfdd733befea0c42bb812f4abce8d9d5c77f255cae845b21175231cae81df4806996974a84d6820e3853b006d152fdc9deb084610080565b50823581526000805160206105ba83398151915260208401356000805160206105ba83398151915203066020820152833560408201526020840135606082015260408401356080820152606084013560a08201527f2d4d9aa7e302d9df41749d5507949d05dbea33fbb16c643b22f599a2be6df2e260c08201527f14bedd503c37ceb061d8ec60209fe345ce89830a19230301f076caff004d192660e08201527f0967032fcbf776d1afc985f88877f182d38480a653f2decaa9794cbc3bf3060c6101008201527f0e187847ad4c798374d0d6732bf501847dd68bc0e071241e0213bc7fc13db7ab6101208201527f304cfbd1e08a704a99f5e847d93f8c3caafddec46b7a0d379da69a4d112346a76101408201527f1739c1b1a457a8c7313123d24d2f9192f896b7c63eea05a9d57f06547ad0cec8610160820152600087015161018082015260206000018701516101a08201527f198e9393920d483a7260bfb731fb5d25f1aa493335a9e71297e485b7aef312c26101c08201527f1800deef121f1e76426a00665e5c4479674322d4f75edadd46debd5cd992f6ed6101e08201527f090689d0585ff075ec9e99ad690c3395bc4b313370b38ef355acdadcd122975b6102008201527f12c85ea5db8c6deb4aab71808dcb408fe3d1e7690c43d37b4ce6cc0166fa7daa610220820152843561024082015260208501356102608201527f01cac876715e3c90a494934a473864bc6415c4d0e3dcfd91e6d829e79beaefe16102808201527f0928f17a8936b567146983f295ba8c9ee6c685d46eeb026ceb34395cb9b9964f6102a08201527f2d5c24a843a90f888d34b6e3820dc021bff98eebd9f4d939497fecc73bb0e04d6102c08201527f01376ec8440c8988ee7ead43d937982ec6698dbee3a479bcbbaafceecbbd903f6102e08201526020816103008360086107d05a03fa9051169695505050505050565b60405161038081016040526104fc600084013561005e565b610509602084013561005e565b610516604084013561005e565b610523606084013561005e565b610530818486888a6100eb565b90508060005260206000f35b806040810183101561054d57600080fd5b92915050565b60008060008061016080868803121561056b57600080fd5b610575878761053c565b945060c086018781111561058857600080fd5b604087019450610598888261053c565b9350508681870111156105aa57600080fd5b5092959194509261010001915056fe30644e72e131a029b85045b68181585d97816a916871ca8d3c208c16d87cfd47a2646970667358221220f35d789313fcf0c6fcb538957d6e177d9371c879f09ac7a4701ed17411ef4aad64736f6c63430008110033608060405234801561001057600080fd5b50611122806100206000396000f3fe608060405234801561001057600080fd5b506004361061002b5760003560e01c8063ee56750f14610030575b600080fd5b61004361003e366004611066565b610057565b604051901515815260200160405180910390f35b6000610e57565b6000805160206110cd833981519152811061007d576000805260206000f35b50565b600060405183815284602082015285604082015260408160608360076107d05a03fa9150816100b3576000805260206000f35b825160408201526020830151606082015260408360808360066107d05a03fa915050806100e4576000805260206000f35b5050505050565b7f14ca70f1fc53cb2a9663542a8ed8ac72c6fc8a544038dab302eae16ae592d9e885527ed3518a58c662ee6ec560d588478a0fed9d3b121afb69a3f72687e23c808fcc60208601526000608086018661018687357f17d8188777ab42a04f968a10d22bd6ff455ce0f5cc0fb270f2fde049f36540fc7ee0bd14b7f00bab1a8e51db27574480b3a3ac99c08d337971ddfd4d9d39260284610080565b6101d460208801357ecf995a5b5d729601139904ff97cc5509e5e7d19a7e719f77fdfe7891536a997ef2b38e6cf7443e8d998a672cc9606ba378897478c30d98be938cf0d890d96584610080565b61022460408801357f26bfb62c91aa0076b30b0b5c994451efb07a1d225a0a3d3c699837eb3da70d337f2dc654d00c889e8ef4ed80d69c9751e79d736cf927c346ccefb07afa14de84f084610080565b61027460608801357f0beeab291bbdb5f25d7a35c214440305feffca99c2e8807a6aa74c3d6766ba6f7f1cfc54ca98c4ce44b79ef34b5dae823c74120723cd2ea269c96e273d368190a184610080565b6102c460808801357f1d042d0d4f54455f6761504587a1a9f8da93f030e2128b33ad0379d946f421b57f27a9d156796faf2340cc0827fcb709cad0e1c3aa68bef6e88bbfa03894af3c2384610080565b61031460a08801357f0537052c30f23138eaef6b1b2457b5efffa43f1bc619fecfc7028dace127722d7f023dcac683b02b0663c471ecead96fa499cccf6567553ead8aebfcebe822c1b584610080565b61036460c08801357f1b1bb72e31ea8fce3dc312e4d640e04991830f0fff9bf9553f5bf716607daa5e7f0a3478d030fdc102f3aced8c5272026ff42c1c44396a711eb9b0585f2c20b19b84610080565b6103b460e08801357f14f566d0dcfcb4f58458713d7600065af79791001cd715bd8bc3416df730bfe77f194538e1e3f147a4e36a1cac4c23fd8698380c4ad9a5d35d1bc9b24fa6ea5afc84610080565b6104056101008801357f21fe9232b763df602a08f729845084fabbf3ce82575b09c36cca1e88b48039ab7f2a60514b6b2b791c60ea49d6a85f7233e847303b17e2ebca3af3c00eda5b2b8a84610080565b6104566101208801357f15e9a621bfcaae1d79eac0f7ec254bf32eba3b83efb84d51b81aa84bbacd0e587f227dff44367805f4a789603ed7d510fcb8bc8b02a1a67f14365a11a9c2b31a2384610080565b6104a76101408801357f0132b56cd774b0ad53af38dbbf8183357d53e5e978875b24597e6077320d56187f285165b04ebda615ef6c15658f6349338e5d43b7fedb50357d308474299e991f84610080565b6104f86101608801357f1fdbe5faed1ae2b1aeeb1faaa54df9ec17fa716612d7562fef655e2abc8035897f2420381a041bd67635ece6516ccd50c465d8aab0898021acade512fb519361a284610080565b6105496101808801357f2838f76d078a6ebf51926861b9fabcc4474f8755fa1c903aa0d2884754e4e5a87f25d6a334282d8eb43e12164d9aec2a771a561608741f5c708e737021feccbcbb84610080565b61059a6101a08801357f14b61dd4c994f3cef258d80dc2c99af9deacec03cfeab2a8192e760d95cde22f7f1c1d3d9213fab710fbb7ae67de11039f2f40947d02751bbf87ba078186996ee384610080565b6105eb6101c08801357f1c287adc5c493e3c91dfa72bb051430b085181f46713d17733af7c012810030b7f2d0a78ad3481b1dd6625ae6e387e82f8aa05e31304a80da1ed4840ff60a3e14084610080565b61063c6101e08801357f2d72aa4699cc90d7aa876da2e0421e5955ef10ebc25f4dd5bc9648a2e0cc1a9f7f07f8c5f57d9ffc4b4c851af015e30ea58c3ad3a926330c5d5dbbea5387c63d4284610080565b61068d6102008801357f275f564b1eaa0a82115a5ed1c08e4e4af9aec7a6abe3e36269a0154314b33ad67f1a343c833ec351981edd70ac5c75ed72f01a2826b8a012c636f39d19273877cf84610080565b6106de6102208801357f14b20f03d13457af0dc2ff93ad347cac42e50ccdf48b3d528c4fd9f517867d517f2accdc4ede183aee59b0562204d114409f668d5bd73e9a9a1eea5ba16437d00c84610080565b61072f6102408801357f0577f23758911f28c8a214992f887814e740bd97a342e90d74c2961733da28277f0fe027f231077a6a61408103e7a56c10988db4137d4068965098146e8fa0f45b84610080565b6107806102608801357f06471241626ac243ae7ca8634f1fdfdd25c0b6b209147220804b5ef8a895998b7f1983309c890da75943e5b42f5cd7c801f7903bec89b5d10db2d53d090b46930784610080565b6107d16102808801357f026995739db78f91393a59344aa16a250204f7316018f4e780f6de080111ff1e7f0b82edd039df2146e91d3f93d1a16e8b53c060fce9624a44aa64f9448b5440b284610080565b6108226102a08801357f12beabd9b520f2786fa79cbd72b1f5e7ccc03e04db7fd8ca46f489aa182dbbe17f2c36a613685192309c4b449661511cd5fd26198f9a1b509b57fb6e74a9ab1d1984610080565b6108736102c08801357f19416ffdecb0b82b2311d3ae1183c547922bca913821d72aa27b6bbcc0c47a907f110e8b97e89cf46c466c617a1590975438190b1fcc9f174f06b73531d338887f84610080565b6108c46102e08801357f16203b274a7364d7722ff003d61adef8f649771668c5fc577b9fd07bc49b08f47f2b916ff755371ad3c6504f249bb783adf56915ba12256914d5201a1981cdc44384610080565b6109146103008801357f2fc6634d5f2344ca7899b0314bfac28a455e50935c0cf19d0498b56316d388d67e6144f418607dc39bf95ccd796aadfafe4247012336c612c1d1aa8ca74ea8fe84610080565b6109646103208801357ecc95e6ba8fcd4cb7f82f8bcf64a7d3901db986aa3e26c34a20a0535c05addf7f101ae86a5e35770a0b03f6bf89b559c28c67fa5187140097192ef3350f8bf0ed84610080565b6109b56103408801357f23b38de14a2e517eee7fd2c62bfe09ed4529adfee7bec778a1d43082ddde69047f054a25ee2c3f19e69fb08be946b58091647ea8eb0042a7b74851d60681e3d33884610080565b610a066103608801357f225da162369d5d7be3bac7cf136b6cd43f69714dce138b27911b4b478da380987f1ba1aebdd8ecde990be1b8a6d34815c2173813fb6c4feea01458f6103b6ed09f84610080565b610a576103808801357f145f9d0642ea06e1f3ee92949e00a761b6fa1545af4b68a5df096f38ed6ef90e7f04ffd87c5d808b520943d8a987fe1f1e0b808427273df8a36c016e4fc34e0cc584610080565b610aa86103a08801357f2b8ebb8fbcdfedecd1f1d694e9071d3da0acb1d4d7a6ff0ba9123f8e673442317f1742ae13caa601252bb035eac8f230810e50e5d6573ab16b4301456a6b9eefc084610080565b610af96103c08801357f0bfbd075fa563a57fa9277f78d1c348994710664440cca6c67f8615b333a2def7f237c7160554578109c550e21d02bde7265243be3cd9440cb285ed97dc9793bd284610080565b610b4a6103e08801357f0a65ea2e184de975d1b76ac19d02f48be8b2e8ea264e2e99ccdf9de862c1051c7f2732fe3646e34bdc46554b6d1b53f7a81c56873e9283984d656e8f596cef1af284610080565b610b9b6104008801357f1cc391151173796db96f4c8ad22a993c3319eb010af4d3e903707af938acec4f7f148da97ab86c88a481f08bbd4d462e81041c31f8dbee258a9dfb365c98db7d5284610080565b50823581526000805160206110cd83398151915260208401356000805160206110cd83398151915203066020820152833560408201526020840135606082015260408401356080820152606084013560a08201527f2d4d9aa7e302d9df41749d5507949d05dbea33fbb16c643b22f599a2be6df2e260c08201527f14bedd503c37ceb061d8ec60209fe345ce89830a19230301f076caff004d192660e08201527f0967032fcbf776d1afc985f88877f182d38480a653f2decaa9794cbc3bf3060c6101008201527f0e187847ad4c798374d0d6732bf501847dd68bc0e071241e0213bc7fc13db7ab6101208201527f304cfbd1e08a704a99f5e847d93f8c3caafddec46b7a0d379da69a4d112346a76101408201527f1739c1b1a457a8c7313123d24d2f9192f896b7c63eea05a9d57f06547ad0cec8610160820152600087015161018082015260206000018701516101a08201527f198e9393920d483a7260bfb731fb5d25f1aa493335a9e71297e485b7aef312c26101c08201527f1800deef121f1e76426a00665e5c4479674322d4f75edadd46debd5cd992f6ed6101e08201527f090689d0585ff075ec9e99ad690c3395bc4b313370b38ef355acdadcd122975b6102008201527f12c85ea5db8c6deb4aab71808dcb408fe3d1e7690c43d37b4ce6cc0166fa7daa610220820152843561024082015260208501356102608201527f2c434311a573fafab0b27c9f0be0fa5ac9a7c44161c6d0b5f018fc216b64bbc66102808201527f15279d83ffc43d09f8dbeacac48b2802bc72a814abbc4b17d84d630bfcc8023d6102a08201527f0b1856d1344f4c34e46c57daaf954a03a4c4278dccf8dd452a7cba3538980fa66102c08201527f2ea28008906a464f08fab684f6e46da0f15c961f7f39eee2fd971136fcc80c216102e08201526020816103008360086107d05a03fa9051169695505050505050565b6040516103808101604052610e6f600084013561005e565b610e7c602084013561005e565b610e89604084013561005e565b610e96606084013561005e565b610ea3608084013561005e565b610eb060a084013561005e565b610ebd60c084013561005e565b610eca60e084013561005e565b610ed861010084013561005e565b610ee661012084013561005e565b610ef461014084013561005e565b610f0261016084013561005e565b610f1061018084013561005e565b610f1e6101a084013561005e565b610f2c6101c084013561005e565b610f3a6101e084013561005e565b610f4861020084013561005e565b610f5661022084013561005e565b610f6461024084013561005e565b610f7261026084013561005e565b610f8061028084013561005e565b610f8e6102a084013561005e565b610f9c6102c084013561005e565b610faa6102e084013561005e565b610fb861030084013561005e565b610fc661032084013561005e565b610fd461034084013561005e565b610fe261036084013561005e565b610ff061038084013561005e565b610ffe6103a084013561005e565b61100c6103c084013561005e565b61101a6103e084013561005e565b61102861040084013561005e565b61103661042084013561005e565b611043818486888a6100eb565b90508060005260206000f35b806040810183101561106057600080fd5b92915050565b60008060008061052080868803121561107e57600080fd5b611088878761104f565b945060c086018781111561109b57600080fd5b6040870194506110ab888261104f565b9350508681870111156110bd57600080fd5b5092959194509261010001915056fe30644e72e131a029b85045b68181585d97816a916871ca8d3c208c16d87cfd47a2646970667358221220b9cf273d30f9c9a16066a9b21b7c6343629a38e2f692982d85be2f83e4b9362364736f6c63430008110033608060405234801561001057600080fd5b506108fe806100206000396000f3fe608060405234801561001057600080fd5b506004361061002b5760003560e01c8063b9c6ea8714610030575b600080fd5b61004361003e366004610842565b610057565b604051901515815260200160405180910390f35b6000610767565b6000805160206108a9833981519152811061007d576000805260206000f35b50565b600060405183815284602082015285604082015260408160608360076107d05a03fa9150816100b3576000805260206000f35b825160408201526020830151606082015260408360808360066107d05a03fa915050806100e4576000805260206000f35b5050505050565b7f198429247f4eebafa4b54851b0f560de8cbe70d49bbec7795e9155002be7fe9885527f0adc6edde7ade6f9b4c0fda0d887d197290652eb97512c55fc360604f37d278460208601526000608086018661018887357f19b14e69471c7b537b862b74bdcec21a162783f6f8c29424be48c1d6a98d37d77f2cf5b518f6adbd1ef9695137f44f331e26c420e26ce34272a7538da859d4cfb884610080565b6101d860208801357f22b91e419372e5946958a471c497a9a12f2934d53c6663ca78ac3eb832932ff47f2933775a286b4999ab05400d5a4609f5478c26207e2b7a709ca76b71d7dcbf8f84610080565b61022860408801357f105882b2ce0435d01186d56f24dc46e256b917bf7e8007b9e871070271dcc3ee7f2849f7dd23ca8c5a14072d05c261b1ead8db8d0b8a14de9399ca9ff76c3a394e84610080565b61027860608801357f250db8732325c2944ba94de74ab8875014bdfa016483f10249e78cfbbf7e36ad7f2d56fe9d639e753c7787887eb3c5be0b5479245162f67ca71e9b51c321517e0c84610080565b6102c860808801357f27f5cece50f2a0386e9a21556ed3b4ef88a8491f793cb784c0bab0e239c7ec397f2f2e57b341a59aa8aef204df6c495f2dc0e935d195cbd427692e054fb7a6516884610080565b61031860a08801357f1616312b819d3451f07c0662b6971c0ea884ed0a3100442056f6f74fe6bcd3b37f24ee5a1407d7617e0c24663c79a441186bf107159f1ce8c549c11eb6863e6ff984610080565b61036860c08801357f1c75ffccb71b16acc12c9a0be717c1d6ca1afb01908312d8a6234cd7fff9b67a7f27d1b01d055167ab6360d8b390a1e8ab0cae66b71be05f4a490412ebf1ee532984610080565b6103b860e08801357f2539465ee99d5e226b7abf7686549ab90712fe40e3d585806b385b6ea3e0b3107f1ae239260748a8f3d3dbef88edf7da9dc5c38ea53a11bf0534c7f27577415d1b84610080565b6104096101008801357f20664bee6a294af2ec364e09d770e91a13e8f3ac1581665c8afbed46379ee0827f08b24f9a9bd48c63474a9a4fd6a84a41606835c0743278f2d8d8a36abf62f0cd84610080565b61045a6101208801357f2dd53f4b672c89782d9338a07412356356133bad6452096e40a0c3ea57a18b6d7f2fd539da20156f5963f259613bdae6a643f71aa831c8dc12ac705c67667fdac284610080565b6104ab6101408801357f2e51815ff0879150ab18bc21355a0c6344b5a227cea1b8c28909328790c79f037f27dcb1c1dd1fbcb04381d5f9a1a11569acb6c87b0360b33100d8095a006c65b684610080565b50823581526000805160206108a983398151915260208401356000805160206108a983398151915203066020820152833560408201526020840135606082015260408401356080820152606084013560a08201527f2d4d9aa7e302d9df41749d5507949d05dbea33fbb16c643b22f599a2be6df2e260c08201527f14bedd503c37ceb061d8ec60209fe345ce89830a19230301f076caff004d192660e08201527f0967032fcbf776d1afc985f88877f182d38480a653f2decaa9794cbc3bf3060c6101008201527f0e187847ad4c798374d0d6732bf501847dd68bc0e071241e0213bc7fc13db7ab6101208201527f304cfbd1e08a704a99f5e847d93f8c3caafddec46b7a0d379da69a4d112346a76101408201527f1739c1b1a457a8c7313123d24d2f9192f896b7c63eea05a9d57f06547ad0cec8610160820152600087015161018082015260206000018701516101a08201527f198e9393920d483a7260bfb731fb5d25f1aa493335a9e71297e485b7aef312c26101c08201527f1800deef121f1e76426a00665e5c4479674322d4f75edadd46debd5cd992f6ed6101e08201527f090689d0585ff075ec9e99ad690c3395bc4b313370b38ef355acdadcd122975b6102008201527f12c85ea5db8c6deb4aab71808dcb408fe3d1e7690c43d37b4ce6cc0166fa7daa610220820152843561024082015260208501356102608201527f28b0ff7a198f3cbd49ecf5d5e7ed146dc2912c888154dc349f1efed5d58e60d16102808201527f0b7570230c6aadb1b1cc61460d3b88b05604ade8d917731a0e70e2a0624babe96102a08201527f207338ca1b4d4a0c6cf7855d0ab7ea2ee9ccbc24adb2c8d2d534d6a36344b78a6102c08201527f038858c438d2bec3ee49c21b2a7f42e4601a0b4ad3d0b16fc7804fae5e1750956102e08201526020816103008360086107d05a03fa9051169695505050505050565b604051610380810160405261077f600084013561005e565b61078c602084013561005e565b610799604084013561005e565b6107a6606084013561005e565b6107b3608084013561005e565b6107c060a084013561005e565b6107cd60c084013561005e565b6107da60e084013561005e565b6107e861010084013561005e565b6107f661012084013561005e565b61080461014084013561005e565b61081261016084013561005e565b61081f818486888a6100eb565b90508060005260206000f35b806040810183101561083c57600080fd5b92915050565b60008060008061026080868803121561085a57600080fd5b610864878761082b565b945060c086018781111561087757600080fd5b604087019450610887888261082b565b93505086818701111561089957600080fd5b5092959194509261010001915056fe30644e72e131a029b85045b68181585d97816a916871ca8d3c208c16d87cfd47a2646970667358221220f7acde9fb84d25c6da71fb66ff0a0f3f3b90c9aa80d812c99bba5fcf38adee9b64736f6c63430008110033",
    "linkReferences": {}
  },
  "methodIdentifiers": {
    "DOMAIN_BYTES()": "86c290ae",
    "DOMAIN_FIELDS()": "b2defd78",
    "EMAIL_ADDR_BYTES()": "522a8044",
    "EMAIL_ADDR_FIELDS()": "c61b8c83",
    "SUBJECT_BYTES()": "506a0f91",
    "SUBJECT_FIELDS()": "47ba75a8",
    "_packBytes2Fields(bytes,uint256)": "e6a28005",
    "accountCreationVerifier()": "209e3a5f",
    "accountInitVerifier()": "46219a99",
    "accountTransportVerifier()": "99595b2f",
    "announcementVerifier()": "438b7682",
    "claimVerifier()": "a93539d0",
    "emailSenderVerifier()": "58373f58",
    "verifyAccountCreationProof(bytes32,bytes32,bytes32,bytes32,bytes,bytes)": "16999ab5",
    "verifyAccountInitializaionProof(string,bytes32,uint256,bytes32,bytes32,bytes32,bytes32,bytes)": "ce2e9f0e",
    "verifyAccountTransportProof(string,bytes32,uint256,bytes32,bytes32,bytes32,bytes32,bytes32,bytes)": "87fac4ba",
    "verifyAnnouncementProof(string,bytes32,bytes32,bytes)": "be65c064",
    "verifyClaimFundProof(bytes32,bytes32,bytes32,bytes)": "80dc3737",
    "verifyEmailOpProof(string,bytes32,uint256,string,bytes32,bytes32,bytes32,bool,bytes32,bytes)": "b4fe5792"
  },
  "id": 155
}