{
  "abi": [
    {
      "inputs": [],
      "stateMutability": "nonpayable",
      "type": "constructor"
    },
    {
      "inputs": [],
      "name": "DOMAIN_BYTES",
      "outputs": [
        {
          "internalType": "uint256",
          "name": "",
          "type": "uint256"
        }
      ],
      "stateMutability": "view",
      "type": "function"
    },
    {
      "inputs": [],
      "name": "DOMAIN_FIELDS",
      "outputs": [
        {
          "internalType": "uint256",
          "name": "",
          "type": "uint256"
        }
      ],
      "stateMutability": "view",
      "type": "function"
    },
    {
      "inputs": [],
      "name": "EMAIL_ADDR_BYTES",
      "outputs": [
        {
          "internalType": "uint256",
          "name": "",
          "type": "uint256"
        }
      ],
      "stateMutability": "view",
      "type": "function"
    },
    {
      "inputs": [],
      "name": "EMAIL_ADDR_FIELDS",
      "outputs": [
        {
          "internalType": "uint256",
          "name": "",
          "type": "uint256"
        }
      ],
      "stateMutability": "view",
      "type": "function"
    },
    {
      "inputs": [],
      "name": "SUBJECT_BYTES",
      "outputs": [
        {
          "internalType": "uint256",
          "name": "",
          "type": "uint256"
        }
      ],
      "stateMutability": "view",
      "type": "function"
    },
    {
      "inputs": [],
      "name": "SUBJECT_FIELDS",
      "outputs": [
        {
          "internalType": "uint256",
          "name": "",
          "type": "uint256"
        }
      ],
      "stateMutability": "view",
      "type": "function"
    },
    {
      "inputs": [
        {
          "internalType": "bytes",
          "name": "_bytes",
          "type": "bytes"
        },
        {
          "internalType": "uint256",
          "name": "_paddedSize",
          "type": "uint256"
        }
      ],
      "name": "_packBytes2Fields",
      "outputs": [
        {
          "internalType": "uint256[]",
          "name": "",
          "type": "uint256[]"
        }
      ],
      "stateMutability": "pure",
      "type": "function"
    },
    {
      "inputs": [],
      "name": "accountCreationVerifier",
      "outputs": [
        {
          "internalType": "contract AccountCreationVerifier",
          "name": "",
          "type": "address"
        }
      ],
      "stateMutability": "view",
      "type": "function"
    },
    {
      "inputs": [],
      "name": "announcementVerifier",
      "outputs": [
        {
          "internalType": "contract AnnouncementVerifier",
          "name": "",
          "type": "address"
        }
      ],
      "stateMutability": "view",
      "type": "function"
    },
    {
      "inputs": [],
      "name": "claimVerifier",
      "outputs": [
        {
          "internalType": "contract ClaimVerifier",
          "name": "",
          "type": "address"
        }
      ],
      "stateMutability": "view",
      "type": "function"
    },
    {
      "inputs": [],
      "name": "emailSenderVerifier",
      "outputs": [
        {
          "internalType": "contract EmailSenderVerifier",
          "name": "",
          "type": "address"
        }
      ],
      "stateMutability": "view",
      "type": "function"
    },
    {
      "inputs": [
        {
          "internalType": "string",
          "name": "emailDomain",
          "type": "string"
        },
        {
          "internalType": "bytes32",
          "name": "dkimPublicKeyHash",
          "type": "bytes32"
        },
        {
          "internalType": "bytes32",
          "name": "emailNullifier",
          "type": "bytes32"
        },
        {
          "internalType": "uint256",
          "name": "emailTimestamp",
          "type": "uint256"
        },
        {
          "internalType": "bytes32",
          "name": "walletSalt",
          "type": "bytes32"
        },
        {
          "internalType": "bytes",
          "name": "psiPoint",
          "type": "bytes"
        },
        {
          "internalType": "bytes",
          "name": "proof",
          "type": "bytes"
        }
      ],
      "name": "verifyAccountCreationProof",
      "outputs": [
        {
          "internalType": "bool",
          "name": "",
          "type": "bool"
        }
      ],
      "stateMutability": "view",
      "type": "function"
    },
    {
      "inputs": [
        {
          "internalType": "string",
          "name": "emailAddr",
          "type": "string"
        },
        {
          "internalType": "bytes32",
          "name": "rand",
          "type": "bytes32"
        },
        {
          "internalType": "bytes32",
          "name": "emailAddrCommit",
          "type": "bytes32"
        },
        {
          "internalType": "bytes",
          "name": "proof",
          "type": "bytes"
        }
      ],
      "name": "verifyAnnouncementProof",
      "outputs": [
        {
          "internalType": "bool",
          "name": "",
          "type": "bool"
        }
      ],
      "stateMutability": "view",
      "type": "function"
    },
    {
      "inputs": [
        {
          "internalType": "bytes32",
          "name": "recipientEmailAddrCommit",
          "type": "bytes32"
        },
        {
          "internalType": "bytes32",
          "name": "recipientWalletSalt",
          "type": "bytes32"
        },
        {
          "internalType": "bytes",
          "name": "proof",
          "type": "bytes"
        }
      ],
      "name": "verifyClaimFundProof",
      "outputs": [
        {
          "internalType": "bool",
          "name": "",
          "type": "bool"
        }
      ],
      "stateMutability": "view",
      "type": "function"
    },
    {
      "inputs": [
        {
          "internalType": "string",
          "name": "emailDomain",
          "type": "string"
        },
        {
          "internalType": "bytes32",
          "name": "dkimPublicKeyHash",
          "type": "bytes32"
        },
        {
          "internalType": "uint256",
          "name": "timestamp",
          "type": "uint256"
        },
        {
          "internalType": "bytes32",
          "name": "emailNullifier",
          "type": "bytes32"
        },
        {
          "internalType": "string",
          "name": "maskedSubject",
          "type": "string"
        },
        {
          "internalType": "bytes32",
          "name": "walletSalt",
          "type": "bytes32"
        },
        {
          "internalType": "bool",
          "name": "hasEmailRecipient",
          "type": "bool"
        },
        {
          "internalType": "bytes32",
          "name": "recipientEmailAddrCommit",
          "type": "bytes32"
        },
        {
          "internalType": "bytes",
          "name": "proof",
          "type": "bytes"
        }
      ],
      "name": "verifyEmailOpProof",
      "outputs": [
        {
          "internalType": "bool",
          "name": "",
          "type": "bool"
        }
      ],
      "stateMutability": "view",
      "type": "function"
    }
  ],
  "bytecode": {
    "object": "0x6101006040523480156200001257600080fd5b506040516200002190620000f9565b604051809103906000f0801580156200003e573d6000803e3d6000fd5b506001600160a01b0316608052604051620000599062000107565b604051809103906000f08015801562000076573d6000803e3d6000fd5b506001600160a01b031660a052604051620000919062000115565b604051809103906000f080158015620000ae573d6000803e3d6000fd5b506001600160a01b031660c052604051620000c99062000123565b604051809103906000f080158015620000e6573d6000803e3d6000fd5b506001600160a01b031660e05262000131565b610aa180620014c083390190565b6106328062001f6183390190565b61114a806200259383390190565b61093480620036dd83390190565b60805160a05160c05160e05161133a6200018660003960008181610150015261055601526000818161019f01526108f20152600081816101ce015261063a01526000818160ff01526103c2015261133a6000f3fe608060405234801561001057600080fd5b50600436106100f55760003560e01c8063a93539d011610097578063c03a5c1811610066578063c03a5c181461022e578063c61b8c8314610213578063d649c20014610241578063e6a280051461025457600080fd5b8063a93539d0146101c9578063ac4b1afe146101f0578063b2defd7814610213578063be65c0641461021b57600080fd5b8063506a0f91116100d3578063506a0f9114610188578063522a80441461019157806358373f581461019a57806386c290ae146101c157600080fd5b8063209e3a5f146100fa578063438b76821461014b57806347ba75a814610172575b600080fd5b6101217f000000000000000000000000000000000000000000000000000000000000000081565b60405173ffffffffffffffffffffffffffffffffffffffff90911681526020015b60405180910390f35b6101217f000000000000000000000000000000000000000000000000000000000000000081565b61017a601181565b604051908152602001610142565b61017a61020081565b61017a61010081565b6101217f000000000000000000000000000000000000000000000000000000000000000081565b61017a60ff81565b6101217f000000000000000000000000000000000000000000000000000000000000000081565b6102036101fe366004610c31565b610274565b6040519015158152602001610142565b61017a600981565b610203610229366004610ce0565b610466565b61020361023c366004610d57565b6105e0565b61020361024f366004610dc8565b6106d7565b610267610262366004610e92565b61092d565b6040516101429190610ed7565b6000806000808480602001905181019061028e9190610f6b565b92509250925061029c610ab3565b60006102a98d60ff61092d565b905060005b60098110156102fa578181815181106102c9576102c9610ff8565b60200260200101518382600e81106102e3576102e3610ff8565b6020020152806102f281611056565b9150506102ae565b5061012082018c90528a826103116009600161108e565b600e811061032157610321610ff8565b602002015289826103346009600261108e565b600e811061034457610344610ff8565b602002015288826103576009600361108e565b600e811061036757610367610ff8565b6020020181815250506000808980602001905181019061038791906110a1565b6080860182905260a086018190526040517f8d15f88f00000000000000000000000000000000000000000000000000000000815291935091507f000000000000000000000000000000000000000000000000000000000000000073ffffffffffffffffffffffffffffffffffffffff1690638d15f88f90610412908a908a908a908a9060040161111c565b602060405180830381865afa15801561042f573d6000803e3d6000fd5b505050506040513d601f19601f820116820180604052508101906104539190611179565b9f9e505050505050505050505050505050565b600080600080848060200190518101906104809190610f6b565b92509250925061048e610ad2565b600061049c8a61010061092d565b905060005b60098110156104ed578181815181106104bc576104bc610ff8565b60200260200101518382600b81106104d6576104d6610ff8565b6020020152806104e581611056565b9150506104a1565b50610120820188905288826105046009600161108e565b600b811061051457610514610ff8565b60200201526040517fb9c6ea8700000000000000000000000000000000000000000000000000000000815273ffffffffffffffffffffffffffffffffffffffff7f0000000000000000000000000000000000000000000000000000000000000000169063b9c6ea879061059190889088908890889060040161119d565b602060405180830381865afa1580156105ae573d6000803e3d6000fd5b505050506040513d601f19601f820116820180604052508101906105d29190611179565b9a9950505050505050505050565b600080600080848060200190518101906105fa9190610f6b565b925092509250610608610af1565b878152602081018790526040517ff5c9d69e0000000000000000000000000000000000000000000000000000000081527f000000000000000000000000000000000000000000000000000000000000000073ffffffffffffffffffffffffffffffffffffffff169063f5c9d69e9061068a9087908790879087906004016111ee565b602060405180830381865afa1580156106a7573d6000803e3d6000fd5b505050506040513d601f19601f820116820180604052508101906106cb9190611179565b98975050505050505050565b600080600080848060200190518101906106f19190610f6b565b9250925092506106ff610b0f565b606061070c8f60ff61092d565b905060005b600981101561075d5781818151811061072c5761072c610ff8565b602002602001015183826020811061074657610746610ff8565b60200201528061075581611056565b915050610711565b505061012081018d905260608c826107776009600161108e565b6020811061078757610787610ff8565b60200201528b8261079a6009600261108e565b602081106107aa576107aa610ff8565b60200201526107bb8b61020061092d565b905060005b6011811015610824578181815181106107db576107db610ff8565b60200260200101518382600960036107f3919061108e565b6107fd919061108e565b6020811061080d5761080d610ff8565b60200201528061081c81611056565b9150506107c0565b5089826108336009601161108e565b6020811061084357610843610ff8565b602002015288610854576000610857565b60015b60ff16826108676009601161108e565b61087290600161108e565b6020811061088257610882610ff8565b602002015287826108956009601161108e565b6108a090600261108e565b602081106108b0576108b0610ff8565b60200201526040517f3cc08b2400000000000000000000000000000000000000000000000000000000815273ffffffffffffffffffffffffffffffffffffffff7f00000000000000000000000000000000000000000000000000000000000000001690633cc08b249061041290889088908890889060040161122e565b6060600061093c601f846112b2565b90506000601f61094c83866112c6565b61095691906112d9565b9050811561096c5761096960018261108e565b90505b60008167ffffffffffffffff81111561098757610987610b2e565b6040519080825280602002602001820160405280156109b0578160200160208202803683370190505b50905060008060005b84811015610aa45760005b601f811015610a9157806109d983601f6112ed565b6109e3919061108e565b935088841015610a9157895184106109fe5760009250610a1b565b898481518110610a1057610a10610ff8565b016020015160f81c92505b80600003610a475782858381518110610a3657610a36610ff8565b602002602001018181525050610a7f565b610a528160086112ed565b83901b858381518110610a6757610a67610ff8565b60200260200101818151610a7b919061108e565b9052505b80610a8981611056565b9150506109c4565b5080610a9c81611056565b9150506109b9565b50919450505050505b92915050565b604051806101c00160405280600e906020820280368337509192915050565b604051806101600160405280600b906020820280368337509192915050565b60405180604001604052806002906020820280368337509192915050565b6040518061040001604052806020906020820280368337509192915050565b7f4e487b7100000000000000000000000000000000000000000000000000000000600052604160045260246000fd5b6040805190810167ffffffffffffffff81118282101715610b8057610b80610b2e565b60405290565b600082601f830112610b9757600080fd5b813567ffffffffffffffff80821115610bb257610bb2610b2e565b604051601f83017fffffffffffffffffffffffffffffffffffffffffffffffffffffffffffffffe0908116603f01168101908282118183101715610bf857610bf8610b2e565b81604052838152866020858801011115610c1157600080fd5b836020870160208301376000602085830101528094505050505092915050565b600080600080600080600060e0888a031215610c4c57600080fd5b873567ffffffffffffffff80821115610c6457600080fd5b610c708b838c01610b86565b985060208a0135975060408a0135965060608a0135955060808a0135945060a08a0135915080821115610ca257600080fd5b610cae8b838c01610b86565b935060c08a0135915080821115610cc457600080fd5b50610cd18a828b01610b86565b91505092959891949750929550565b60008060008060808587031215610cf657600080fd5b843567ffffffffffffffff80821115610d0e57600080fd5b610d1a88838901610b86565b955060208701359450604087013593506060870135915080821115610d3e57600080fd5b50610d4b87828801610b86565b91505092959194509250565b600080600060608486031215610d6c57600080fd5b8335925060208401359150604084013567ffffffffffffffff811115610d9157600080fd5b610d9d86828701610b86565b9150509250925092565b8015158114610db557600080fd5b50565b8035610dc381610da7565b919050565b60008060008060008060008060006101208a8c031215610de757600080fd5b893567ffffffffffffffff80821115610dff57600080fd5b610e0b8d838e01610b86565b9a5060208c0135995060408c0135985060608c0135975060808c0135915080821115610e3657600080fd5b610e428d838e01610b86565b965060a08c01359550610e5760c08d01610db8565b945060e08c013593506101008c0135915080821115610e7557600080fd5b50610e828c828d01610b86565b9150509295985092959850929598565b60008060408385031215610ea557600080fd5b823567ffffffffffffffff811115610ebc57600080fd5b610ec885828601610b86565b95602094909401359450505050565b6020808252825182820181905260009190848201906040850190845b81811015610f0f57835183529284019291840191600101610ef3565b50909695505050505050565b600082601f830112610f2c57600080fd5b610f34610b5d565b806040840185811115610f4657600080fd5b845b81811015610f60578051845260209384019301610f48565b509095945050505050565b60008060006101008486031215610f8157600080fd5b610f8b8585610f1b565b9250604085605f860112610f9e57600080fd5b610fa6610b5d565b8060c0870188811115610fb857600080fd5b8388015b81811015610fdd57610fce8a82610f1b565b84526020909301928401610fbc565b50819550610feb8982610f1b565b9450505050509250925092565b7f4e487b7100000000000000000000000000000000000000000000000000000000600052603260045260246000fd5b7f4e487b7100000000000000000000000000000000000000000000000000000000600052601160045260246000fd5b60007fffffffffffffffffffffffffffffffffffffffffffffffffffffffffffffffff820361108757611087611027565b5060010190565b80820180821115610aad57610aad611027565b600080604083850312156110b457600080fd5b505080516020909101519092909150565b8060005b60028110156110e85781518452602093840193909101906001016110c9565b50505050565b8060005b60028110156110e8576111068483516110c5565b60409390930192602091909101906001016110f2565b6102c0810161112b82876110c5565b61113860408301866110ee565b61114560c08301856110c5565b61010082018360005b600e81101561116d57815183526020928301929091019060010161114e565b50505095945050505050565b60006020828403121561118b57600080fd5b815161119681610da7565b9392505050565b61026081016111ac82876110c5565b6111b960408301866110ee565b6111c660c08301856110c5565b61010082018360005b600b81101561116d5781518352602092830192909101906001016111cf565b61014081016111fd82876110c5565b61120a60408301866110ee565b61121760c08301856110c5565b6112256101008301846110c5565b95945050505050565b610500810161123d82876110c5565b61124a60408301866110ee565b61125760c08301856110c5565b61010082018360005b602080821061126f575061116d565b825184529283019290910190600101611260565b7f4e487b7100000000000000000000000000000000000000000000000000000000600052601260045260246000fd5b6000826112c1576112c1611283565b500690565b81810381811115610aad57610aad611027565b6000826112e8576112e8611283565b500490565b8082028115828204841417610aad57610aad61102756fea26469706673582212206b07520c6269427914448c22ecab9282034d34046b5169f1cf1a8f56e37ac78d64736f6c63430008150033608060405234801561001057600080fd5b50610a81806100206000396000f3fe608060405234801561001057600080fd5b506004361061002b5760003560e01c80638d15f88f14610030575b600080fd5b61004361003e3660046109e5565b610057565b604051901515815260200160405180910390f35b60006108e0565b7f30644e72e131a029b85045b68181585d97816a916871ca8d3c208c16d87cfd47811061008f576000805260206000f35b50565b600060405183815284602082015285604082015260408160608360076107d05a03fa9150816100c5576000805260206000f35b825160408201526020830151606082015260408360808360066107d05a03fa915050806100f6576000805260206000f35b5050505050565b7f24e89ecb556581ed51465d6d663f76b63d216f42e96827a0595148a73107fab585527f18868723d0f4e1be3d85c3e62afa62a75617314b82dcbc5ba32fc95f52c2587b60208601526000608086018661019987357e2917495a2183e61cb5bb81aff977391feb2ec83789c9df15738d09d078d9267f0734f1709897743d4d8923c01d10b844dab2cbc9adca72ad75405fb7427f051b84610092565b6101e960208801357f07f5d44ff528772a897b35d55f998d73653a689d6ea490a5657ed15643ff6f697f17ff5b888cab54e2bcf5105355dbcf72a0999456a12a63c15356cf51bdbb614084610092565b61023960408801357f2557b361a49df2b5ed75ad664777faedef780f6153ed8774c7850e656f10daec7f089dc51105b053a566411a1f98a09f409fec37cfa4fa729ceeef371f9819371184610092565b61028960608801357f08e4b334fe8e70cee119069b14cad25336fdcee8089e614853d96c1e49c51bb17f21f6e1d838b2b94802a09d747b1ca8688f9f5e1a1efde316ba8f95962fc24b6084610092565b6102d960808801357f1bb62e70e0f18a3e943168195b70a322e223f95cdaa57f21431ee137359f8ca97f14bd02ac4ac07dade7e8c18c5b797843916a4a94fbad71a77cfb8a7276c9838f84610092565b61032960a08801357f0a376d244169cbd49e1f1851116bdaede675a95781eb9fbce3d640b3742538bd7f10310e86f907c5a8599dc5c3c397744603508b06efa67265bb8e1b6051ae95a184610092565b61037960c08801357f0a69cc8d515074db5c5fef684852508538a3652bb5ef50f6a986232d0327b6d87f2ed469226ef2bae963ecfc171676cf3dd63067c9806ddb3e6f83ace7bb1e793e84610092565b6103c960e08801357f2135f9350e780c38e334cd014daea177fb286308fbfd84e1054b3d97be4757107f2d016002e97dc289c3dd4b811608ecb9f1b4230bdad73665b9899aa979f1434f84610092565b61041a6101008801357f18d17ab1e88a00a53ae9a99d5f099b1b1678359aa5f67c80a225d5fb882e556f7f2e9e6e4c3a8ce74c92e5543cdf7e3f337e95f5e86d355d10ee4206510b0fd24384610092565b61046b6101208801357f25cf23df754b9eff93844150bbc9067e21526fc188b5d7dc20c0da6522bfc2597f0824e9b0a2d6f8ecff333471bffe931e500fc7c9c2c8dda36aa313a581f5471c84610092565b6104bc6101408801357f26e7da32542a6c1718ad9d1bbaba31dde382e2d4317a3cbdc253d1ae497a11a27f2f99b897625e14d178bfb8a576535161e35efd9fff0793c116e054fde40ff6ca84610092565b61050d6101608801357f2cee17a8f7d1763b28ad00711c7f5decd9d79c0d729f629ec60e836be41891847f29aece6154b0756701dff5fa15321bd79850cf180ebb1c9d1c4b23e6604b659784610092565b61055e6101808801357f1355e8691749f96d956cab59c94fecc22a5b2ec3f9a2143da564012a52b3d2597f2a9eb54afd9f01e11ce416fc4d4e7765b49c4524f21afaf5c3f16377c4402e7484610092565b6105af6101a08801357f129efc3484cbff2eb352e27bc79cacb10ea55ef76b7f39dc2c5403764743ee427f048a1b0c7602baa53bf65d7c4d438243f981d34ecc57bde1427590a9e834dd3684610092565b6106006101c08801357f1af3b63cf6adc461111860b1c0d6ec73bc0307f72a825fb7c7ba2bc6ec36a3507f24ed1053487c72edb2f94b41fd7017e8a3415eec7ba4b25666dc8e5913b4094f84610092565b50823581527f30644e72e131a029b85045b68181585d97816a916871ca8d3c208c16d87cfd4760208401357f30644e72e131a029b85045b68181585d97816a916871ca8d3c208c16d87cfd4703066020820152833560408201526020840135606082015260408401356080820152606084013560a08201527f2d4d9aa7e302d9df41749d5507949d05dbea33fbb16c643b22f599a2be6df2e260c08201527f14bedd503c37ceb061d8ec60209fe345ce89830a19230301f076caff004d192660e08201527f0967032fcbf776d1afc985f88877f182d38480a653f2decaa9794cbc3bf3060c6101008201527f0e187847ad4c798374d0d6732bf501847dd68bc0e071241e0213bc7fc13db7ab6101208201527f304cfbd1e08a704a99f5e847d93f8c3caafddec46b7a0d379da69a4d112346a76101408201527f1739c1b1a457a8c7313123d24d2f9192f896b7c63eea05a9d57f06547ad0cec8610160820152600087015161018082015260206000018701516101a08201527f198e9393920d483a7260bfb731fb5d25f1aa493335a9e71297e485b7aef312c26101c08201527f1800deef121f1e76426a00665e5c4479674322d4f75edadd46debd5cd992f6ed6101e08201527f090689d0585ff075ec9e99ad690c3395bc4b313370b38ef355acdadcd122975b6102008201527f12c85ea5db8c6deb4aab71808dcb408fe3d1e7690c43d37b4ce6cc0166fa7daa610220820152843561024082015260208501356102608201527f28f7be5bb93153abd4be4abcd150232273f75cb8774effce4daab92cb38fef4a6102808201527f2872a085514b6c9f1e9e49ee2b5787ef6fc0e8b6f632d474c01f8a1cdc17d0d06102a08201527f2ae218727b90ca203dea7700d44bf558cf76f9f6dacb09f5cbf2ea6a6d20461f6102c08201527f3033d2df08a1b8414a54a07d18e48f3516d642398015409c05596dbe2c04b65d6102e08201526020816103008360086107d05a03fa9051169695505050505050565b60405161038081016040526108f8600084013561005e565b610905602084013561005e565b610912604084013561005e565b61091f606084013561005e565b61092c608084013561005e565b61093960a084013561005e565b61094660c084013561005e565b61095360e084013561005e565b61096161010084013561005e565b61096f61012084013561005e565b61097d61014084013561005e565b61098b61016084013561005e565b61099961018084013561005e565b6109a76101a084013561005e565b6109b56101c084013561005e565b6109c2818486888a6100fd565b90508060005260206000f35b80604081018310156109df57600080fd5b92915050565b6000806000806102c08086880312156109fd57600080fd5b610a0787876109ce565b945060c0860187811115610a1a57600080fd5b604087019450610a2a88826109ce565b935050868187011115610a3c57600080fd5b5092959194509261010001915056fea26469706673582212200c07b18985fb87ea559d958eddc0d08a3ccde979e3ef94ead8123e7219c0e12c64736f6c63430008150033608060405234801561001057600080fd5b50610612806100206000396000f3fe608060405234801561001057600080fd5b506004361061002b5760003560e01c8063f5c9d69e14610030575b600080fd5b61004361003e36600461057c565b610057565b604051901515815260200160405180910390f35b600061051a565b7f30644e72e131a029b85045b68181585d97816a916871ca8d3c208c16d87cfd47811061008f576000805260206000f35b50565b600060405183815284602082015285604082015260408160608360076107d05a03fa9150816100c5576000805260206000f35b825160408201526020830151606082015260408360808360066107d05a03fa915050806100f6576000805260206000f35b5050505050565b7f28162f719bb77b8db7086fee542dc7d79a38efb335cf875ebc92a10f64ab00a985527f069fa76c6b6f3ecbac6c8a1b3d3739fa1234eeaea1daa1513a772ce465d9a42260208601526000608086018661019a87357f107c2d352113e74495def73aac84392f43a832c3032cfd5acfc5192bd17840f27f2e53fe637eba82996fa72b0b444caaefaa61bb204ac679e6916290250d8d95c584610092565b6101ea60208801357f1a94d4e41c07935039642b7dc3f442d0b7784b6a0bbcce0f2a6b0ede97aa267e7f2de21c35efec167ff853efa300302ba50581d7b96012258781604c2859418f9884610092565b61023a60408801357f0b25ff10ac21cab643d983a1402d31bfdd733befea0c42bb812f4abce8d9d5c77f255cae845b21175231cae81df4806996974a84d6820e3853b006d152fdc9deb084610092565b50823581527f30644e72e131a029b85045b68181585d97816a916871ca8d3c208c16d87cfd4760208401357f30644e72e131a029b85045b68181585d97816a916871ca8d3c208c16d87cfd4703066020820152833560408201526020840135606082015260408401356080820152606084013560a08201527f2d4d9aa7e302d9df41749d5507949d05dbea33fbb16c643b22f599a2be6df2e260c08201527f14bedd503c37ceb061d8ec60209fe345ce89830a19230301f076caff004d192660e08201527f0967032fcbf776d1afc985f88877f182d38480a653f2decaa9794cbc3bf3060c6101008201527f0e187847ad4c798374d0d6732bf501847dd68bc0e071241e0213bc7fc13db7ab6101208201527f304cfbd1e08a704a99f5e847d93f8c3caafddec46b7a0d379da69a4d112346a76101408201527f1739c1b1a457a8c7313123d24d2f9192f896b7c63eea05a9d57f06547ad0cec8610160820152600087015161018082015260206000018701516101a08201527f198e9393920d483a7260bfb731fb5d25f1aa493335a9e71297e485b7aef312c26101c08201527f1800deef121f1e76426a00665e5c4479674322d4f75edadd46debd5cd992f6ed6101e08201527f090689d0585ff075ec9e99ad690c3395bc4b313370b38ef355acdadcd122975b6102008201527f12c85ea5db8c6deb4aab71808dcb408fe3d1e7690c43d37b4ce6cc0166fa7daa610220820152843561024082015260208501356102608201527f21fbb0b8a0f5b0402e1586dac2d495f40325537a68e79af829400c2de36c70946102808201527f20eff54f301b7edc41ee8236cdfe4e4d87770f4197fa26c94ca50dc092ce2e676102a08201527f1a564fd0e1f11141f194595e83b0a83fb8d230090ff7b80137a46310a2512f6f6102c08201527f1e3bbe57d6e548cf7232be517b62c7c6b28e5091b4a55a017e97f53b7d86aed56102e08201526020816103008360086107d05a03fa9051169695505050505050565b6040516103808101604052610532600084013561005e565b61053f602084013561005e565b61054c604084013561005e565b610559818486888a6100fd565b90508060005260206000f35b806040810183101561057657600080fd5b92915050565b600080600080610140858703121561059357600080fd5b61059d8686610565565b935060c08501868111156105b057600080fd5b6040860193506105c08782610565565b9250506105d1866101008701610565565b90509295919450925056fea264697066735822122006b2498ce6c3ffa854172cf9a7e71e652e7df16de77b9cc0a54e107e2653297164736f6c63430008150033608060405234801561001057600080fd5b5061112a806100206000396000f3fe608060405234801561001057600080fd5b506004361061002b5760003560e01c80633cc08b2414610030575b600080fd5b61004361003e36600461108e565b610057565b604051901515815260200160405180910390f35b6000610e8d565b7f30644e72e131a029b85045b68181585d97816a916871ca8d3c208c16d87cfd47811061008f576000805260206000f35b50565b600060405183815284602082015285604082015260408160608360076107d05a03fa9150816100c5576000805260206000f35b825160408201526020830151606082015260408360808360066107d05a03fa915050806100f6576000805260206000f35b5050505050565b7f14ca70f1fc53cb2a9663542a8ed8ac72c6fc8a544038dab302eae16ae592d9e885527ed3518a58c662ee6ec560d588478a0fed9d3b121afb69a3f72687e23c808fcc60208601526000608086018661019887357f17d8188777ab42a04f968a10d22bd6ff455ce0f5cc0fb270f2fde049f36540fc7ee0bd14b7f00bab1a8e51db27574480b3a3ac99c08d337971ddfd4d9d39260284610092565b6101e660208801357ecf995a5b5d729601139904ff97cc5509e5e7d19a7e719f77fdfe7891536a997ef2b38e6cf7443e8d998a672cc9606ba378897478c30d98be938cf0d890d96584610092565b61023660408801357f26bfb62c91aa0076b30b0b5c994451efb07a1d225a0a3d3c699837eb3da70d337f2dc654d00c889e8ef4ed80d69c9751e79d736cf927c346ccefb07afa14de84f084610092565b61028660608801357f0beeab291bbdb5f25d7a35c214440305feffca99c2e8807a6aa74c3d6766ba6f7f1cfc54ca98c4ce44b79ef34b5dae823c74120723cd2ea269c96e273d368190a184610092565b6102d660808801357f1d042d0d4f54455f6761504587a1a9f8da93f030e2128b33ad0379d946f421b57f27a9d156796faf2340cc0827fcb709cad0e1c3aa68bef6e88bbfa03894af3c2384610092565b61032660a08801357f0537052c30f23138eaef6b1b2457b5efffa43f1bc619fecfc7028dace127722d7f023dcac683b02b0663c471ecead96fa499cccf6567553ead8aebfcebe822c1b584610092565b61037660c08801357f1b1bb72e31ea8fce3dc312e4d640e04991830f0fff9bf9553f5bf716607daa5e7f0a3478d030fdc102f3aced8c5272026ff42c1c44396a711eb9b0585f2c20b19b84610092565b6103c660e08801357f14f566d0dcfcb4f58458713d7600065af79791001cd715bd8bc3416df730bfe77f194538e1e3f147a4e36a1cac4c23fd8698380c4ad9a5d35d1bc9b24fa6ea5afc84610092565b6104176101008801357f21fe9232b763df602a08f729845084fabbf3ce82575b09c36cca1e88b48039ab7f2a60514b6b2b791c60ea49d6a85f7233e847303b17e2ebca3af3c00eda5b2b8a84610092565b6104686101208801357f15e9a621bfcaae1d79eac0f7ec254bf32eba3b83efb84d51b81aa84bbacd0e587f227dff44367805f4a789603ed7d510fcb8bc8b02a1a67f14365a11a9c2b31a2384610092565b6104b96101408801357f0132b56cd774b0ad53af38dbbf8183357d53e5e978875b24597e6077320d56187f285165b04ebda615ef6c15658f6349338e5d43b7fedb50357d308474299e991f84610092565b61050a6101608801357f1fdbe5faed1ae2b1aeeb1faaa54df9ec17fa716612d7562fef655e2abc8035897f2420381a041bd67635ece6516ccd50c465d8aab0898021acade512fb519361a284610092565b61055b6101808801357f2838f76d078a6ebf51926861b9fabcc4474f8755fa1c903aa0d2884754e4e5a87f25d6a334282d8eb43e12164d9aec2a771a561608741f5c708e737021feccbcbb84610092565b6105ac6101a08801357f14b61dd4c994f3cef258d80dc2c99af9deacec03cfeab2a8192e760d95cde22f7f1c1d3d9213fab710fbb7ae67de11039f2f40947d02751bbf87ba078186996ee384610092565b6105fd6101c08801357f1c287adc5c493e3c91dfa72bb051430b085181f46713d17733af7c012810030b7f2d0a78ad3481b1dd6625ae6e387e82f8aa05e31304a80da1ed4840ff60a3e14084610092565b61064e6101e08801357f2d72aa4699cc90d7aa876da2e0421e5955ef10ebc25f4dd5bc9648a2e0cc1a9f7f07f8c5f57d9ffc4b4c851af015e30ea58c3ad3a926330c5d5dbbea5387c63d4284610092565b61069f6102008801357f275f564b1eaa0a82115a5ed1c08e4e4af9aec7a6abe3e36269a0154314b33ad67f1a343c833ec351981edd70ac5c75ed72f01a2826b8a012c636f39d19273877cf84610092565b6106f06102208801357f14b20f03d13457af0dc2ff93ad347cac42e50ccdf48b3d528c4fd9f517867d517f2accdc4ede183aee59b0562204d114409f668d5bd73e9a9a1eea5ba16437d00c84610092565b6107416102408801357f0577f23758911f28c8a214992f887814e740bd97a342e90d74c2961733da28277f0fe027f231077a6a61408103e7a56c10988db4137d4068965098146e8fa0f45b84610092565b6107926102608801357f06471241626ac243ae7ca8634f1fdfdd25c0b6b209147220804b5ef8a895998b7f1983309c890da75943e5b42f5cd7c801f7903bec89b5d10db2d53d090b46930784610092565b6107e36102808801357f026995739db78f91393a59344aa16a250204f7316018f4e780f6de080111ff1e7f0b82edd039df2146e91d3f93d1a16e8b53c060fce9624a44aa64f9448b5440b284610092565b6108346102a08801357f12beabd9b520f2786fa79cbd72b1f5e7ccc03e04db7fd8ca46f489aa182dbbe17f2c36a613685192309c4b449661511cd5fd26198f9a1b509b57fb6e74a9ab1d1984610092565b6108856102c08801357f19416ffdecb0b82b2311d3ae1183c547922bca913821d72aa27b6bbcc0c47a907f110e8b97e89cf46c466c617a1590975438190b1fcc9f174f06b73531d338887f84610092565b6108d66102e08801357f16203b274a7364d7722ff003d61adef8f649771668c5fc577b9fd07bc49b08f47f2b916ff755371ad3c6504f249bb783adf56915ba12256914d5201a1981cdc44384610092565b6109266103008801357f2fc6634d5f2344ca7899b0314bfac28a455e50935c0cf19d0498b56316d388d67e6144f418607dc39bf95ccd796aadfafe4247012336c612c1d1aa8ca74ea8fe84610092565b6109766103208801357ecc95e6ba8fcd4cb7f82f8bcf64a7d3901db986aa3e26c34a20a0535c05addf7f101ae86a5e35770a0b03f6bf89b559c28c67fa5187140097192ef3350f8bf0ed84610092565b6109c76103408801357f23b38de14a2e517eee7fd2c62bfe09ed4529adfee7bec778a1d43082ddde69047f054a25ee2c3f19e69fb08be946b58091647ea8eb0042a7b74851d60681e3d33884610092565b610a186103608801357f225da162369d5d7be3bac7cf136b6cd43f69714dce138b27911b4b478da380987f1ba1aebdd8ecde990be1b8a6d34815c2173813fb6c4feea01458f6103b6ed09f84610092565b610a696103808801357f145f9d0642ea06e1f3ee92949e00a761b6fa1545af4b68a5df096f38ed6ef90e7f04ffd87c5d808b520943d8a987fe1f1e0b808427273df8a36c016e4fc34e0cc584610092565b610aba6103a08801357f2b8ebb8fbcdfedecd1f1d694e9071d3da0acb1d4d7a6ff0ba9123f8e673442317f1742ae13caa601252bb035eac8f230810e50e5d6573ab16b4301456a6b9eefc084610092565b610b0b6103c08801357f0bfbd075fa563a57fa9277f78d1c348994710664440cca6c67f8615b333a2def7f237c7160554578109c550e21d02bde7265243be3cd9440cb285ed97dc9793bd284610092565b610b5c6103e08801357f0a65ea2e184de975d1b76ac19d02f48be8b2e8ea264e2e99ccdf9de862c1051c7f2732fe3646e34bdc46554b6d1b53f7a81c56873e9283984d656e8f596cef1af284610092565b610bad6104008801357f1cc391151173796db96f4c8ad22a993c3319eb010af4d3e903707af938acec4f7f148da97ab86c88a481f08bbd4d462e81041c31f8dbee258a9dfb365c98db7d5284610092565b50823581527f30644e72e131a029b85045b68181585d97816a916871ca8d3c208c16d87cfd4760208401357f30644e72e131a029b85045b68181585d97816a916871ca8d3c208c16d87cfd4703066020820152833560408201526020840135606082015260408401356080820152606084013560a08201527f2d4d9aa7e302d9df41749d5507949d05dbea33fbb16c643b22f599a2be6df2e260c08201527f14bedd503c37ceb061d8ec60209fe345ce89830a19230301f076caff004d192660e08201527f0967032fcbf776d1afc985f88877f182d38480a653f2decaa9794cbc3bf3060c6101008201527f0e187847ad4c798374d0d6732bf501847dd68bc0e071241e0213bc7fc13db7ab6101208201527f304cfbd1e08a704a99f5e847d93f8c3caafddec46b7a0d379da69a4d112346a76101408201527f1739c1b1a457a8c7313123d24d2f9192f896b7c63eea05a9d57f06547ad0cec8610160820152600087015161018082015260206000018701516101a08201527f198e9393920d483a7260bfb731fb5d25f1aa493335a9e71297e485b7aef312c26101c08201527f1800deef121f1e76426a00665e5c4479674322d4f75edadd46debd5cd992f6ed6101e08201527f090689d0585ff075ec9e99ad690c3395bc4b313370b38ef355acdadcd122975b6102008201527f12c85ea5db8c6deb4aab71808dcb408fe3d1e7690c43d37b4ce6cc0166fa7daa610220820152843561024082015260208501356102608201527f1c44ccbbdb243ea23998bc2666e23fb4ab192de52efed4bfcf32f060600f129f6102808201527f2640d5f82f7cfb4662dc1a4732e8f30029b688ed2660aa6761b355d38b62efcc6102a08201527f197178ec6922406c3741c4e308a099a38d3923737f36409772e729121371d7b26102c08201527f0f40ac4b04d1b9d78681f2abf9824bdd5ce4a13475e0a4500dc68cd9fa49a3d66102e08201526020816103008360086107d05a03fa9051169695505050505050565b6040516103808101604052610ea5600084013561005e565b610eb2602084013561005e565b610ebf604084013561005e565b610ecc606084013561005e565b610ed9608084013561005e565b610ee660a084013561005e565b610ef360c084013561005e565b610f0060e084013561005e565b610f0e61010084013561005e565b610f1c61012084013561005e565b610f2a61014084013561005e565b610f3861016084013561005e565b610f4661018084013561005e565b610f546101a084013561005e565b610f626101c084013561005e565b610f706101e084013561005e565b610f7e61020084013561005e565b610f8c61022084013561005e565b610f9a61024084013561005e565b610fa861026084013561005e565b610fb661028084013561005e565b610fc46102a084013561005e565b610fd26102c084013561005e565b610fe06102e084013561005e565b610fee61030084013561005e565b610ffc61032084013561005e565b61100a61034084013561005e565b61101861036084013561005e565b61102661038084013561005e565b6110346103a084013561005e565b6110426103c084013561005e565b6110506103e084013561005e565b61105e61040084013561005e565b61106b818486888a6100fd565b90508060005260206000f35b806040810183101561108857600080fd5b92915050565b6000806000806105008086880312156110a657600080fd5b6110b08787611077565b945060c08601878111156110c357600080fd5b6040870194506110d38882611077565b9350508681870111156110e557600080fd5b5092959194509261010001915056fea2646970667358221220c6cb479cb605abd8aa88ee10d9f9af76136a16759ea8a7ac00759c2ca475eae464736f6c63430008150033608060405234801561001057600080fd5b50610914806100206000396000f3fe608060405234801561001057600080fd5b506004361061002b5760003560e01c8063b9c6ea8714610030575b600080fd5b61004361003e366004610878565b610057565b604051901515815260200160405180910390f35b600061079d565b7f30644e72e131a029b85045b68181585d97816a916871ca8d3c208c16d87cfd47811061008f576000805260206000f35b50565b600060405183815284602082015285604082015260408160608360076107d05a03fa9150816100c5576000805260206000f35b825160408201526020830151606082015260408360808360066107d05a03fa915050806100f6576000805260206000f35b5050505050565b7f198429247f4eebafa4b54851b0f560de8cbe70d49bbec7795e9155002be7fe9885527f0adc6edde7ade6f9b4c0fda0d887d197290652eb97512c55fc360604f37d278460208601526000608086018661019a87357f19b14e69471c7b537b862b74bdcec21a162783f6f8c29424be48c1d6a98d37d77f2cf5b518f6adbd1ef9695137f44f331e26c420e26ce34272a7538da859d4cfb884610092565b6101ea60208801357f22b91e419372e5946958a471c497a9a12f2934d53c6663ca78ac3eb832932ff47f2933775a286b4999ab05400d5a4609f5478c26207e2b7a709ca76b71d7dcbf8f84610092565b61023a60408801357f105882b2ce0435d01186d56f24dc46e256b917bf7e8007b9e871070271dcc3ee7f2849f7dd23ca8c5a14072d05c261b1ead8db8d0b8a14de9399ca9ff76c3a394e84610092565b61028a60608801357f250db8732325c2944ba94de74ab8875014bdfa016483f10249e78cfbbf7e36ad7f2d56fe9d639e753c7787887eb3c5be0b5479245162f67ca71e9b51c321517e0c84610092565b6102da60808801357f27f5cece50f2a0386e9a21556ed3b4ef88a8491f793cb784c0bab0e239c7ec397f2f2e57b341a59aa8aef204df6c495f2dc0e935d195cbd427692e054fb7a6516884610092565b61032a60a08801357f1616312b819d3451f07c0662b6971c0ea884ed0a3100442056f6f74fe6bcd3b37f24ee5a1407d7617e0c24663c79a441186bf107159f1ce8c549c11eb6863e6ff984610092565b61037a60c08801357f1c75ffccb71b16acc12c9a0be717c1d6ca1afb01908312d8a6234cd7fff9b67a7f27d1b01d055167ab6360d8b390a1e8ab0cae66b71be05f4a490412ebf1ee532984610092565b6103ca60e08801357f2539465ee99d5e226b7abf7686549ab90712fe40e3d585806b385b6ea3e0b3107f1ae239260748a8f3d3dbef88edf7da9dc5c38ea53a11bf0534c7f27577415d1b84610092565b61041b6101008801357f20664bee6a294af2ec364e09d770e91a13e8f3ac1581665c8afbed46379ee0827f08b24f9a9bd48c63474a9a4fd6a84a41606835c0743278f2d8d8a36abf62f0cd84610092565b61046c6101208801357f2dd53f4b672c89782d9338a07412356356133bad6452096e40a0c3ea57a18b6d7f2fd539da20156f5963f259613bdae6a643f71aa831c8dc12ac705c67667fdac284610092565b6104bd6101408801357f2e51815ff0879150ab18bc21355a0c6344b5a227cea1b8c28909328790c79f037f27dcb1c1dd1fbcb04381d5f9a1a11569acb6c87b0360b33100d8095a006c65b684610092565b50823581527f30644e72e131a029b85045b68181585d97816a916871ca8d3c208c16d87cfd4760208401357f30644e72e131a029b85045b68181585d97816a916871ca8d3c208c16d87cfd4703066020820152833560408201526020840135606082015260408401356080820152606084013560a08201527f2d4d9aa7e302d9df41749d5507949d05dbea33fbb16c643b22f599a2be6df2e260c08201527f14bedd503c37ceb061d8ec60209fe345ce89830a19230301f076caff004d192660e08201527f0967032fcbf776d1afc985f88877f182d38480a653f2decaa9794cbc3bf3060c6101008201527f0e187847ad4c798374d0d6732bf501847dd68bc0e071241e0213bc7fc13db7ab6101208201527f304cfbd1e08a704a99f5e847d93f8c3caafddec46b7a0d379da69a4d112346a76101408201527f1739c1b1a457a8c7313123d24d2f9192f896b7c63eea05a9d57f06547ad0cec8610160820152600087015161018082015260206000018701516101a08201527f198e9393920d483a7260bfb731fb5d25f1aa493335a9e71297e485b7aef312c26101c08201527f1800deef121f1e76426a00665e5c4479674322d4f75edadd46debd5cd992f6ed6101e08201527f090689d0585ff075ec9e99ad690c3395bc4b313370b38ef355acdadcd122975b6102008201527f12c85ea5db8c6deb4aab71808dcb408fe3d1e7690c43d37b4ce6cc0166fa7daa610220820152843561024082015260208501356102608201527f175e5857b5ddb35340bf52f45d4aad08c644516b8cf27e6dc10bc9f105870d3a6102808201527f0ecce8160fbb8814e97f457668760ff9d53b0384bec72d9e7908f0e5285a9a376102a08201527f28f8ad9721012c6461e368571ae70ea2c3dbd75f7e95a63631f3f0f3ac6855276102c08201527f079391b3d2534a49abc6c9520cc5e95816ff6edb54166b5b5d7a1b4c7aea6d426102e08201526020816103008360086107d05a03fa9051169695505050505050565b60405161038081016040526107b5600084013561005e565b6107c2602084013561005e565b6107cf604084013561005e565b6107dc606084013561005e565b6107e9608084013561005e565b6107f660a084013561005e565b61080360c084013561005e565b61081060e084013561005e565b61081e61010084013561005e565b61082c61012084013561005e565b61083a61014084013561005e565b61084861016084013561005e565b610855818486888a6100fd565b90508060005260206000f35b806040810183101561087257600080fd5b92915050565b60008060008061026080868803121561089057600080fd5b61089a8787610861565b945060c08601878111156108ad57600080fd5b6040870194506108bd8882610861565b9350508681870111156108cf57600080fd5b5092959194509261010001915056fea2646970667358221220cb57ec15f46a473fe68b7f626b1f92acf83e736bc48f5ff6b2b832e74a3056e664736f6c63430008150033",
    "linkReferences": {}
  },
  "methodIdentifiers": {
    "DOMAIN_BYTES()": "86c290ae",
    "DOMAIN_FIELDS()": "b2defd78",
    "EMAIL_ADDR_BYTES()": "522a8044",
    "EMAIL_ADDR_FIELDS()": "c61b8c83",
    "SUBJECT_BYTES()": "506a0f91",
    "SUBJECT_FIELDS()": "47ba75a8",
    "_packBytes2Fields(bytes,uint256)": "e6a28005",
    "accountCreationVerifier()": "209e3a5f",
    "announcementVerifier()": "438b7682",
    "claimVerifier()": "a93539d0",
    "emailSenderVerifier()": "58373f58",
    "verifyAccountCreationProof(string,bytes32,bytes32,uint256,bytes32,bytes,bytes)": "ac4b1afe",
    "verifyAnnouncementProof(string,bytes32,bytes32,bytes)": "be65c064",
    "verifyClaimFundProof(bytes32,bytes32,bytes)": "c03a5c18",
    "verifyEmailOpProof(string,bytes32,uint256,bytes32,string,bytes32,bool,bytes32,bytes)": "d649c200"
  },
  "storageLayout": {
    "storage": [],
    "types": {}
  },
  "id": 157
}