{
  "abi": [
    {
      "inputs": [],
      "stateMutability": "nonpayable",
      "type": "constructor"
    },
    {
      "inputs": [],
      "name": "DOMAIN_BYTES",
      "outputs": [
        {
          "internalType": "uint256",
          "name": "",
          "type": "uint256"
        }
      ],
      "stateMutability": "view",
      "type": "function"
    },
    {
      "inputs": [],
      "name": "DOMAIN_FIELDS",
      "outputs": [
        {
          "internalType": "uint256",
          "name": "",
          "type": "uint256"
        }
      ],
      "stateMutability": "view",
      "type": "function"
    },
    {
      "inputs": [],
      "name": "EMAIL_ADDR_BYTES",
      "outputs": [
        {
          "internalType": "uint256",
          "name": "",
          "type": "uint256"
        }
      ],
      "stateMutability": "view",
      "type": "function"
    },
    {
      "inputs": [],
      "name": "EMAIL_ADDR_FIELDS",
      "outputs": [
        {
          "internalType": "uint256",
          "name": "",
          "type": "uint256"
        }
      ],
      "stateMutability": "view",
      "type": "function"
    },
    {
      "inputs": [],
      "name": "SUBJECT_BYTES",
      "outputs": [
        {
          "internalType": "uint256",
          "name": "",
          "type": "uint256"
        }
      ],
      "stateMutability": "view",
      "type": "function"
    },
    {
      "inputs": [],
      "name": "SUBJECT_FIELDS",
      "outputs": [
        {
          "internalType": "uint256",
          "name": "",
          "type": "uint256"
        }
      ],
      "stateMutability": "view",
      "type": "function"
    },
    {
      "inputs": [
        {
          "internalType": "bytes",
          "name": "_bytes",
          "type": "bytes"
        },
        {
          "internalType": "uint256",
          "name": "_paddedSize",
          "type": "uint256"
        }
      ],
      "name": "_packBytes2Fields",
      "outputs": [
        {
          "internalType": "uint256[]",
          "name": "",
          "type": "uint256[]"
        }
      ],
      "stateMutability": "pure",
      "type": "function"
    },
    {
      "inputs": [],
      "name": "accountCreationVerifier",
      "outputs": [
        {
          "internalType": "contract AccountCreationVerifier",
          "name": "",
          "type": "address"
        }
      ],
      "stateMutability": "view",
      "type": "function"
    },
    {
      "inputs": [],
      "name": "accountInitVerifier",
      "outputs": [
        {
          "internalType": "contract AccountInitVerifier",
          "name": "",
          "type": "address"
        }
      ],
      "stateMutability": "view",
      "type": "function"
    },
    {
      "inputs": [],
      "name": "accountTransportVerifier",
      "outputs": [
        {
          "internalType": "contract AccountTransportVerifier",
          "name": "",
          "type": "address"
        }
      ],
      "stateMutability": "view",
      "type": "function"
    },
    {
      "inputs": [],
      "name": "announcementVerifier",
      "outputs": [
        {
          "internalType": "contract AnnouncementVerifier",
          "name": "",
          "type": "address"
        }
      ],
      "stateMutability": "view",
      "type": "function"
    },
    {
      "inputs": [],
      "name": "claimVerifier",
      "outputs": [
        {
          "internalType": "contract ClaimVerifier",
          "name": "",
          "type": "address"
        }
      ],
      "stateMutability": "view",
      "type": "function"
    },
    {
      "inputs": [],
      "name": "emailSenderVerifier",
      "outputs": [
        {
          "internalType": "contract EmailSenderVerifier",
          "name": "",
          "type": "address"
        }
      ],
      "stateMutability": "view",
      "type": "function"
    },
    {
      "inputs": [
        {
          "internalType": "bytes32",
          "name": "relayerHash",
          "type": "bytes32"
        },
        {
          "internalType": "bytes32",
          "name": "emailAddrPointer",
          "type": "bytes32"
        },
        {
          "internalType": "bytes32",
          "name": "accountKeyCommit",
          "type": "bytes32"
        },
        {
          "internalType": "bytes32",
          "name": "walletSalt",
          "type": "bytes32"
        },
        {
          "internalType": "bytes",
          "name": "psiPoint",
          "type": "bytes"
        },
        {
          "internalType": "bytes",
          "name": "proof",
          "type": "bytes"
        }
      ],
      "name": "verifyAccountCreationProof",
      "outputs": [
        {
          "internalType": "bool",
          "name": "",
          "type": "bool"
        }
      ],
      "stateMutability": "view",
      "type": "function"
    },
    {
      "inputs": [
        {
          "internalType": "string",
          "name": "emailDomain",
          "type": "string"
        },
        {
          "internalType": "bytes32",
          "name": "dkimPublicKeyHash",
          "type": "bytes32"
        },
        {
          "internalType": "uint256",
          "name": "timestamp",
          "type": "uint256"
        },
        {
          "internalType": "bytes32",
          "name": "relayerHash",
          "type": "bytes32"
        },
        {
          "internalType": "bytes32",
          "name": "emailAddrPointer",
          "type": "bytes32"
        },
        {
          "internalType": "bytes32",
          "name": "accountKeyCommit",
          "type": "bytes32"
        },
        {
          "internalType": "bytes32",
          "name": "emailNullifier",
          "type": "bytes32"
        },
        {
          "internalType": "bytes",
          "name": "proof",
          "type": "bytes"
        }
      ],
      "name": "verifyAccountInitializaionProof",
      "outputs": [
        {
          "internalType": "bool",
          "name": "",
          "type": "bool"
        }
      ],
      "stateMutability": "view",
      "type": "function"
    },
    {
      "inputs": [
        {
          "internalType": "string",
          "name": "emailDomain",
          "type": "string"
        },
        {
          "internalType": "bytes32",
          "name": "dkimPublicKeyHash",
          "type": "bytes32"
        },
        {
          "internalType": "uint256",
          "name": "timestamp",
          "type": "uint256"
        },
        {
          "internalType": "bytes32",
          "name": "emailNullifier",
          "type": "bytes32"
        },
        {
          "internalType": "bytes32",
          "name": "oldRelayerRandHash",
          "type": "bytes32"
        },
        {
          "internalType": "bytes32",
          "name": "newRelayerRandHash",
          "type": "bytes32"
        },
        {
          "internalType": "bytes32",
          "name": "oldAccountKeyCommit",
          "type": "bytes32"
        },
        {
          "internalType": "bytes32",
          "name": "newAccountKeyCommit",
          "type": "bytes32"
        },
        {
          "internalType": "bytes",
          "name": "proof",
          "type": "bytes"
        }
      ],
      "name": "verifyAccountTransportProof",
      "outputs": [
        {
          "internalType": "bool",
          "name": "",
          "type": "bool"
        }
      ],
      "stateMutability": "view",
      "type": "function"
    },
    {
      "inputs": [
        {
          "internalType": "string",
          "name": "emailAddr",
          "type": "string"
        },
        {
          "internalType": "bytes32",
          "name": "rand",
          "type": "bytes32"
        },
        {
          "internalType": "bytes32",
          "name": "emailAddrCommit",
          "type": "bytes32"
        },
        {
          "internalType": "bytes",
          "name": "proof",
          "type": "bytes"
        }
      ],
      "name": "verifyAnnouncementProof",
      "outputs": [
        {
          "internalType": "bool",
          "name": "",
          "type": "bool"
        }
      ],
      "stateMutability": "view",
      "type": "function"
    },
    {
      "inputs": [
        {
          "internalType": "bytes32",
          "name": "recipientRelayerHash",
          "type": "bytes32"
        },
        {
          "internalType": "bytes32",
          "name": "recipientEmailAddrPointer",
          "type": "bytes32"
        },
        {
          "internalType": "bytes32",
          "name": "recipientEmailAddrCommit",
          "type": "bytes32"
        },
        {
          "internalType": "bytes",
          "name": "proof",
          "type": "bytes"
        }
      ],
      "name": "verifyClaimFundProof",
      "outputs": [
        {
          "internalType": "bool",
          "name": "",
          "type": "bool"
        }
      ],
      "stateMutability": "view",
      "type": "function"
    },
    {
      "inputs": [
        {
          "internalType": "string",
          "name": "emailDomain",
          "type": "string"
        },
        {
          "internalType": "bytes32",
          "name": "dkimPublicKeyHash",
          "type": "bytes32"
        },
        {
          "internalType": "uint256",
          "name": "timestamp",
          "type": "uint256"
        },
        {
          "internalType": "string",
          "name": "maskedSubject",
          "type": "string"
        },
        {
          "internalType": "bytes32",
          "name": "emailNullifier",
          "type": "bytes32"
        },
        {
          "internalType": "bytes32",
          "name": "relayerHash",
          "type": "bytes32"
        },
        {
          "internalType": "bytes32",
          "name": "emailAddrPointer",
          "type": "bytes32"
        },
        {
          "internalType": "bool",
          "name": "hasEmailRecipient",
          "type": "bool"
        },
        {
          "internalType": "bytes32",
          "name": "recipientEmailAddrCommit",
          "type": "bytes32"
        },
        {
          "internalType": "bytes",
          "name": "proof",
          "type": "bytes"
        }
      ],
      "name": "verifyEmailOpProof",
      "outputs": [
        {
          "internalType": "bool",
          "name": "",
          "type": "bool"
        }
      ],
      "stateMutability": "view",
      "type": "function"
    }
  ],
  "bytecode": {
    "object": "0x6101406040523480156200001257600080fd5b5060405162000021906200016b565b604051809103906000f0801580156200003e573d6000803e3d6000fd5b506001600160a01b0316608052604051620000599062000179565b604051809103906000f08015801562000076573d6000803e3d6000fd5b506001600160a01b031660a052604051620000919062000187565b604051809103906000f080158015620000ae573d6000803e3d6000fd5b506001600160a01b031660c052604051620000c99062000195565b604051809103906000f080158015620000e6573d6000803e3d6000fd5b506001600160a01b031660e0526040516200010190620001a3565b604051809103906000f0801580156200011e573d6000803e3d6000fd5b506001600160a01b0316610100526040516200013a90620001b1565b604051809103906000f08015801562000157573d6000803e3d6000fd5b506001600160a01b031661012052620001bf565b6107468062001a6983390190565b610a9980620021af83390190565b610af98062002c4883390190565b61062f806200374183390190565b6111458062003d7083390190565b61091e8062004eb583390190565b60805160a05160c05160e0516101005161012051611830620002396000396000818161016201526108180152600081816101d80152610713015260008181610254015261042e01526000818161022d015261063701526000818161018901526109f7015260008181610123015261035201526118306000f3fe608060405234801561001057600080fd5b50600436106100f15760003560e01c806316999ab5146100f6578063209e3a5f1461011e578063438b76821461015d57806346219a991461018457806347ba75a8146101ab578063506a0f91146101c1578063522a8044146101ca57806358373f58146101d357806380dc3737146101fa57806386c290ae1461020d57806387fac4ba1461021557806399595b2f14610228578063a93539d01461024f578063b2defd7814610276578063b4fe57921461027e578063be65c06414610291578063c61b8c8314610276578063ce2e9f0e146102a4578063e6a28005146102b7575b600080fd5b610109610104366004610fc0565b6102d7565b60405190151581526020015b60405180910390f35b6101457f000000000000000000000000000000000000000000000000000000000000000081565b6040516001600160a01b039091168152602001610115565b6101457f000000000000000000000000000000000000000000000000000000000000000081565b6101457f000000000000000000000000000000000000000000000000000000000000000081565b6101b3601181565b604051908152602001610115565b6101b361020081565b6101b361010081565b6101457f000000000000000000000000000000000000000000000000000000000000000081565b610109610208366004611048565b6103e7565b6101b360ff81565b6101096102233660046110a1565b6104bf565b6101457f000000000000000000000000000000000000000000000000000000000000000081565b6101457f000000000000000000000000000000000000000000000000000000000000000081565b6101b3600981565b61010961028c366004611169565b6106c6565b61010961029f36600461123d565b61074e565b6101096102b23660046112a7565b6108a2565b6102ca6102c5366004611344565b610a85565b6040516101159190611388565b600080600080848060200190518101906102f1919061141c565b9250925092506102ff610e3e565b8a815260208082018b9052604082018a9052606082018990528751600091829161033091908b018101908b016114bf565b6080850182905260a0850181905260405163f398789b60e01b815291935091507f00000000000000000000000000000000000000000000000000000000000000006001600160a01b03169063f398789b9061039590899089908990899060040161153a565b602060405180830381865afa1580156103b2573d6000803e3d6000fd5b505050506040513d601f19601f820116820180604052508101906103d69190611597565b9d9c50505050505050505050505050565b60008060008084806020019051810190610401919061141c565b92509250925061040f610e5c565b888152602081018890526040808201889052516308a3cff560e11b81527f00000000000000000000000000000000000000000000000000000000000000006001600160a01b0316906311479fea906104719087908790879087906004016115bb565b602060405180830381865afa15801561048e573d6000803e3d6000fd5b505050506040513d601f19601f820116820180604052508101906104b29190611597565b9998505050505050505050565b600080600080848060200190518101906104d9919061141c565b9250925092506104e7610e7a565b60006104f48f60ff610a85565b905060005b600981101561054557818181518110610514576105146114a9565b602002602001015183826010811061052e5761052e6114a9565b60200201528061053d81611622565b9150506104f9565b5061012082018e90528b8261055c6009600161163b565b6010811061056c5761056c6114a9565b6020020152888261057f6009600261163b565b6010811061058f5761058f6114a9565b602002015287826105a26009600361163b565b601081106105b2576105b26114a9565b602002015289826105c56009600461163b565b601081106105d5576105d56114a9565b60200201528c826105e86009600561163b565b601081106105f8576105f86114a9565b60200201528a8261060b6009600661163b565b6010811061061b5761061b6114a9565b602002015260405163c82febf560e01b81526001600160a01b037f0000000000000000000000000000000000000000000000000000000000000000169063c82febf59061067290889088908890889060040161164e565b602060405180830381865afa15801561068f573d6000803e3d6000fd5b505050506040513d601f19601f820116820180604052508101906106b39190611597565b9f9e505050505050505050505050505050565b600080600080848060200190518101906106e0919061141c565b92509250925060006106f98f8f8f8f8f8f8f8f8f610c0a565b60405163ee56750f60e01b81529091506001600160a01b037f0000000000000000000000000000000000000000000000000000000000000000169063ee56750f9061067290879087908790879060040161169f565b60008060008084806020019051810190610768919061141c565b925092509250610776610e99565b60006107848a610100610a85565b905060005b60098110156107d5578181815181106107a4576107a46114a9565b60200260200101518382600b81106107be576107be6114a9565b6020020152806107cd81611622565b915050610789565b50610120820188905288826107ec6009600161163b565b600b81106107fc576107fc6114a9565b602002015260405163b9c6ea8760e01b81526001600160a01b037f0000000000000000000000000000000000000000000000000000000000000000169063b9c6ea87906108539088908890889088906004016116f0565b602060405180830381865afa158015610870573d6000803e3d6000fd5b505050506040513d601f19601f820116820180604052508101906108949190611597565b9a9950505050505050505050565b600080600080848060200190518101906108bc919061141c565b9250925092506108ca610eb8565b60006108d78e60ff610a85565b905060005b6009811015610928578181815181106108f7576108f76114a9565b60200260200101518382600f8110610911576109116114a9565b60200201528061092081611622565b9150506108dc565b5061012082018d90528a8261093f6009600161163b565b600f811061094f5761094f6114a9565b602002015287826109626009600261163b565b600f8110610972576109726114a9565b602002015289826109856009600361163b565b600f8110610995576109956114a9565b602002015288826109a86009600461163b565b600f81106109b8576109b86114a9565b60200201528b826109cb6009600561163b565b600f81106109db576109db6114a9565b602002015260405163f054a9a360e01b81526001600160a01b037f0000000000000000000000000000000000000000000000000000000000000000169063f054a9a390610a32908890889088908890600401611741565b602060405180830381865afa158015610a4f573d6000803e3d6000fd5b505050506040513d601f19601f82011682018060405250810190610a739190611597565b9e9d5050505050505050505050505050565b60606000610a94601f846117a8565b90506000601f610aa483866117bc565b610aae91906117cf565b90508115610ac457610ac160018261163b565b90505b6000816001600160401b03811115610ade57610ade610ef6565b604051908082528060200260200182016040528015610b07578160200160208202803683370190505b50905060008060005b84811015610bfb5760005b601f811015610be85780610b3083601f6117e3565b610b3a919061163b565b935088841015610be85789518410610b555760009250610b72565b898481518110610b6757610b676114a9565b016020015160f81c92505b80600003610b9e5782858381518110610b8d57610b8d6114a9565b602002602001018181525050610bd6565b610ba98160086117e3565b83901b858381518110610bbe57610bbe6114a9565b60200260200101818151610bd2919061163b565b9052505b80610be081611622565b915050610b1b565b5080610bf381611622565b915050610b10565b50919450505050505b92915050565b610c12610ed7565b610c1a610ed7565b6060610c2889610200610a85565b905060005b6011811015610c7957818181518110610c4857610c486114a9565b6020026020010151838260218110610c6257610c626114a9565b602002015280610c7181611622565b915050610c2d565b5060609050610c898c60ff610a85565b905060005b6009811015610ce657818181518110610ca957610ca96114a9565b602002602001015183826011610cbf919061163b565b60218110610ccf57610ccf6114a9565b602002015280610cde81611622565b915050610c8e565b508a82610cf56009601161163b565b60218110610d0557610d056114a9565b60200201528682610d186009601161163b565b610d2390600161163b565b60218110610d3357610d336114a9565b60200201528782610d466009601161163b565b610d5190600261163b565b60218110610d6157610d616114a9565b60200201528582610d746009601161163b565b610d7f90600361163b565b60218110610d8f57610d8f6114a9565b602002015284610da0576000610da3565b60015b60ff1682610db36009601161163b565b610dbe90600461163b565b60218110610dce57610dce6114a9565b60200201528382610de16009601161163b565b610dec90600561163b565b60218110610dfc57610dfc6114a9565b60200201528982610e0f6009601161163b565b610e1a90600661163b565b60218110610e2a57610e2a6114a9565b6020020152509a9950505050505050505050565b6040518060c001604052806006906020820280368337509192915050565b60405180606001604052806003906020820280368337509192915050565b6040518061020001604052806010906020820280368337509192915050565b604051806101600160405280600b906020820280368337509192915050565b604051806101e00160405280600f906020820280368337509192915050565b6040518061042001604052806021906020820280368337509192915050565b634e487b7160e01b600052604160045260246000fd5b604080519081016001600160401b0381118282101715610f2e57610f2e610ef6565b60405290565b600082601f830112610f4557600080fd5b81356001600160401b0380821115610f5f57610f5f610ef6565b604051601f8301601f19908116603f01168101908282118183101715610f8757610f87610ef6565b81604052838152866020858801011115610fa057600080fd5b836020870160208301376000602085830101528094505050505092915050565b60008060008060008060c08789031215610fd957600080fd5b8635955060208701359450604087013593506060870135925060808701356001600160401b038082111561100c57600080fd5b6110188a838b01610f34565b935060a089013591508082111561102e57600080fd5b5061103b89828a01610f34565b9150509295509295509295565b6000806000806080858703121561105e57600080fd5b84359350602085013592506040850135915060608501356001600160401b0381111561108957600080fd5b61109587828801610f34565b91505092959194509250565b60008060008060008060008060006101208a8c0312156110c057600080fd5b89356001600160401b03808211156110d757600080fd5b6110e38d838e01610f34565b9a5060208c0135995060408c0135985060608c0135975060808c0135965060a08c0135955060c08c0135945060e08c013593506101008c013591508082111561112b57600080fd5b506111388c828d01610f34565b9150509295985092959850929598565b801515811461115657600080fd5b50565b803561116481611148565b919050565b6000806000806000806000806000806101408b8d03121561118957600080fd5b8a356001600160401b03808211156111a057600080fd5b6111ac8e838f01610f34565b9b5060208d01359a5060408d0135995060608d01359150808211156111d057600080fd5b6111dc8e838f01610f34565b985060808d0135975060a08d0135965060c08d013595506111ff60e08e01611159565b94506101008d013593506101208d013591508082111561121e57600080fd5b5061122b8d828e01610f34565b9150509295989b9194979a5092959850565b6000806000806080858703121561125357600080fd5b84356001600160401b038082111561126a57600080fd5b61127688838901610f34565b95506020870135945060408701359350606087013591508082111561129a57600080fd5b5061109587828801610f34565b600080600080600080600080610100898b0312156112c457600080fd5b88356001600160401b03808211156112db57600080fd5b6112e78c838d01610f34565b995060208b0135985060408b0135975060608b0135965060808b0135955060a08b0135945060c08b0135935060e08b013591508082111561132757600080fd5b506113348b828c01610f34565b9150509295985092959890939650565b6000806040838503121561135757600080fd5b82356001600160401b0381111561136d57600080fd5b61137985828601610f34565b95602094909401359450505050565b6020808252825182820181905260009190848201906040850190845b818110156113c0578351835292840192918401916001016113a4565b50909695505050505050565b600082601f8301126113dd57600080fd5b6113e5610f0c565b8060408401858111156113f757600080fd5b845b818110156114115780518452602093840193016113f9565b509095945050505050565b6000806000610100848603121561143257600080fd5b61143c85856113cc565b9250604085605f86011261144f57600080fd5b611457610f0c565b8060c087018881111561146957600080fd5b8388015b8181101561148e5761147f8a826113cc565b8452602090930192840161146d565b5081955061149c89826113cc565b9450505050509250925092565b634e487b7160e01b600052603260045260246000fd5b600080604083850312156114d257600080fd5b505080516020909101519092909150565b8060005b60028110156115065781518452602093840193909101906001016114e7565b50505050565b8060005b6002811015611506576115248483516114e3565b6040939093019260209190910190600101611510565b6101c0810161154982876114e3565b611556604083018661150c565b61156360c08301856114e3565b61010082018360005b600681101561158b57815183526020928301929091019060010161156c565b50505095945050505050565b6000602082840312156115a957600080fd5b81516115b481611148565b9392505050565b61016081016115ca82876114e3565b6115d7604083018661150c565b6115e460c08301856114e3565b61010082018360005b600381101561158b5781518352602092830192909101906001016115ed565b634e487b7160e01b600052601160045260246000fd5b6000600182016116345761163461160c565b5060010190565b80820180821115610c0457610c0461160c565b610300810161165d82876114e3565b61166a604083018661150c565b61167760c08301856114e3565b61010082018360005b601081101561158b578151835260209283019290910190600101611680565b61052081016116ae82876114e3565b6116bb604083018661150c565b6116c860c08301856114e3565b61010082018360005b602181101561158b5781518352602092830192909101906001016116d1565b61026081016116ff82876114e3565b61170c604083018661150c565b61171960c08301856114e3565b61010082018360005b600b81101561158b578151835260209283019290910190600101611722565b6102e0810161175082876114e3565b61175d604083018661150c565b61176a60c08301856114e3565b61010082018360005b600f81101561158b578151835260209283019290910190600101611773565b634e487b7160e01b600052601260045260246000fd5b6000826117b7576117b7611792565b500690565b81810381811115610c0457610c0461160c565b6000826117de576117de611792565b500490565b8082028115828204841417610c0457610c0461160c56fea264697066735822122012d0f8e3cdd9862365c9c55b20407d4e227535a14cf167f6f6e983fa30b74c0364736f6c63430008150033608060405234801561001057600080fd5b50610726806100206000396000f3fe608060405234801561001057600080fd5b506004361061002b5760003560e01c8063f398789b14610030575b600080fd5b61004361003e36600461066a565b610057565b604051901515815260200160405180910390f35b60006105d4565b6000805160206106d1833981519152811061007d576000805260206000f35b50565b600060405183815284602082015285604082015260408160608360076107d05a03fa9150816100b3576000805260206000f35b825160408201526020830151606082015260408360808360066107d05a03fa915050806100e4576000805260206000f35b5050505050565b7f293f09c5dc0f8c768c036ad64033405ff44ec0c70c2e95fd0fcef96d3424e1c385527f1b6a47e30fee5c11d29b6e5fb06f75681afa0e794677a3b64f9b768c4293d7ca60208601526000608086018661018887357f28cc2585a078c2c086fc4294d1f09d49d021bbc6b17adb994cd08aa43ee3ef9c7f2397a5e7cd8627b91eb179223796483e1bc5a8dc4d805cca435d8beea5b6eed084610080565b6101d860208801357f2d9cb103d2433e7b969a19f04e489ff2e6c794bd80a354e373638524a46556b17f2f65e5672393cc8e18e5bd3ee11b63e67f0dde9c97cbb4893f440bde681b9bf584610080565b61022860408801357f0e509db793f15992f9b9f40285f06472e8cf3ceae0fe642dab31489ef3863f2d7f185e351a82dc5583a10dfba0f130404db427ca18d6eaf811772f594a6f82c35c84610080565b61027860608801357f13c347d873ca54b4ca998863174b2a8ca6ba4e4dfc34394e85aef888ca9f3b917f0378913e66579b46199240af6256f72b5f07ffc35c8651eddaf0317a3939a5e484610080565b6102c860808801357f126d4aa107615532c188a10090c4ddf5f3bca0119ca93219ae9b1912c9db48e77f17d68a8ed71560bca9863eff528e28676d83ab15fb8b77192111bb9ceb02201284610080565b61031860a08801357f0a2c7aea852ce205e18a2a32a99aa4720c07bd3211596ac981a96538acce1cf87f0eeb1c98f72693ebedd260ab8be805e35ebf608832a33b0ae5b40e248dc85b2684610080565b50823581526000805160206106d183398151915260208401356000805160206106d183398151915203066020820152833560408201526020840135606082015260408401356080820152606084013560a08201527f2d4d9aa7e302d9df41749d5507949d05dbea33fbb16c643b22f599a2be6df2e260c08201527f14bedd503c37ceb061d8ec60209fe345ce89830a19230301f076caff004d192660e08201527f0967032fcbf776d1afc985f88877f182d38480a653f2decaa9794cbc3bf3060c6101008201527f0e187847ad4c798374d0d6732bf501847dd68bc0e071241e0213bc7fc13db7ab6101208201527f304cfbd1e08a704a99f5e847d93f8c3caafddec46b7a0d379da69a4d112346a76101408201527f1739c1b1a457a8c7313123d24d2f9192f896b7c63eea05a9d57f06547ad0cec8610160820152600087015161018082015260206000018701516101a08201527f198e9393920d483a7260bfb731fb5d25f1aa493335a9e71297e485b7aef312c26101c08201527f1800deef121f1e76426a00665e5c4479674322d4f75edadd46debd5cd992f6ed6101e08201527f090689d0585ff075ec9e99ad690c3395bc4b313370b38ef355acdadcd122975b6102008201527f12c85ea5db8c6deb4aab71808dcb408fe3d1e7690c43d37b4ce6cc0166fa7daa610220820152843561024082015260208501356102608201527f023719a059dc179ccb5a7247092bc1057e3f68395441c7a96cbc1c7a1795e2806102808201527f1ee964d3a11e06c36574a62b4c741daff9f3a93b4e5bef6712c83679c55e2a426102a08201527f102b86355ea8aed05d42daacf94d17987a955c5b9a470d750819aca25cccd4226102c08201527f122bf3cad5caff33ac07c9b67812d53717bba33e967196ed95528f1e6f69a1036102e08201526020816103008360086107d05a03fa9051169695505050505050565b60405161038081016040526105ec600084013561005e565b6105f9602084013561005e565b610606604084013561005e565b610613606084013561005e565b610620608084013561005e565b61062d60a084013561005e565b61063a60c084013561005e565b610647818486888a6100eb565b90508060005260206000f35b806040810183101561066457600080fd5b92915050565b6000806000806101c080868803121561068257600080fd5b61068c8787610653565b945060c086018781111561069f57600080fd5b6040870194506106af8882610653565b9350508681870111156106c157600080fd5b5092959194509261010001915056fe30644e72e131a029b85045b68181585d97816a916871ca8d3c208c16d87cfd47a26469706673582212203ab54da09db7815839abb378f07fb7028f9dadab53562ef0b8374ad9760e59ef64736f6c63430008150033608060405234801561001057600080fd5b50610a79806100206000396000f3fe608060405234801561001057600080fd5b506004361061002b5760003560e01c8063f054a9a314610030575b600080fd5b61004361003e3660046109bd565b610057565b604051901515815260200160405180910390f35b60006108aa565b600080516020610a24833981519152811061007d576000805260206000f35b50565b600060405183815284602082015285604082015260408160608360076107d05a03fa9150816100b3576000805260206000f35b825160408201526020830151606082015260408360808360066107d05a03fa915050806100e4576000805260206000f35b5050505050565b7f2083df4b1d6ff4cd0d677bd8da7c367a7684ec55e60c101df40a6821b69c5b0a85527f089e443779fd0d7015935a1211eae3fb89d006c3f782b56b8d71417c56c802e860208601526000608086018661018887357f02505c1a796e3fab82992c6bf50c93093317a4e2b00d5de54ae64a8db747b4f77f2c855919b72e34f20c70905721c309127309bb3b9ba13506a9b1d88b73ed5dbf84610080565b6101d860208801357f235e61422084e285d49912ead7d4d33d5a1abbc3431dfbd86a2ca911f855c2ab7f2adfd42ed65dc8dccb8569556ba554e665c0e4419a68a72df28360f997b873e984610080565b61022860408801357f1f7e0c2a0cdeaf0fc129872f49dbff68107a8e9cf758ba2fb4d421fd55f7a9dd7f0206f88e23a789fcfaaa5574aa2e9040f8f43820e3d99040a462efcf2e0dd2df84610080565b61027860608801357f16b33d27651368b74d84f93baa5731491c69db325812dd7b3beefb97513644df7f2a17d041aca5c7f722d26b185a4b3ca1d31b9f89705a4a2c3bb483c75a07906284610080565b6102c760808801357e86be8d4b8f75ae84cc3e2610d1abdfd3a4897868d1eb411d014c98aa18e3c67f28d67a048ab53834290c035e89b6ee22db8b014172c6d092ecc9a034ddf6540484610080565b61031760a08801357f1b4099480bef5776b19dce09038ceef902c4659283fa67a021099356e34fd7687f02657e4bd491271a932a8dbac03b7b555238e211547adaafc1bf39a1bc06f47e84610080565b61036760c08801357f19a356c8d17b6db8dff102c5abd8b2f7a718614131676a186e9218e1eb3197077f03b35f4f809c1b7feaa6d0d2f4c5a3d3a9ff93052dd06d2ec4fb0321e24ec95884610080565b6103b760e08801357f0b6f0381d389fa036b338cf0cb2115e9e53df75ac4074fd8071a5030ddae65017f0a930b0e03b4299114825a3508e04f08fd1f5b8b0d4d7fc170902e942d87538484610080565b6104086101008801357f02fc432bfad99d307be0bfa9e78987af9509350405052f69926a1b8d27bbf6807f2de58f74318a5dd5e057927fbfa9139041ac3faaaafd348587eee0b93d8547e784610080565b6104596101208801357f2208ad2d05dd58be03154f1c3e0fa2857b8dee1d076163d07e859b182562202d7f1c9c20be6ac987770b479d9820b793592ba62c9a3ccf8823dc882f79dcc1b27984610080565b6104aa6101408801357f2f20296949bb72019d2493b4c245920d0f06954569e671d1437994937081752c7f2d5b5cc8b647b75c931993cc5ebf50bfa599030b394b33fe4bc1337d17ffcce684610080565b6104fb6101608801357f0a34c2aea6d09146fcf93af93af89b7c04fb812ff052f9d5c4e6b922da9bad2c7f2abd07303902751829da2e14212e2f5e826087f3456fb14d1a31e626e03052c884610080565b61054c6101808801357f09da318d5f467b343298ea5231e63f74e2cfd859d38c77483a16cdd6df6953237f0949581bcaa9950c5644e4db3f24a69a8500aa87f6e5b7f07c4ce3a39021476384610080565b61059d6101a08801357f01cb5af8bd61232083204ac3bf754f27cdd57c2cdf841ab92dba085dc2ff87137f049165f065d5856ebfa5f0c0275440f6556f8fab13873b35fd21eb210fe3097084610080565b6105ee6101c08801357f1b9aea461f67b3278b3125e03dc71fb55c46fffdc1d97b531794373b3deab4937f2b4efb3bd5dd9efd3ac4efd78596fcd354007c78e735972edf2e7ca39cad9ff984610080565b5082358152600080516020610a248339815191526020840135600080516020610a2483398151915203066020820152833560408201526020840135606082015260408401356080820152606084013560a08201527f2d4d9aa7e302d9df41749d5507949d05dbea33fbb16c643b22f599a2be6df2e260c08201527f14bedd503c37ceb061d8ec60209fe345ce89830a19230301f076caff004d192660e08201527f0967032fcbf776d1afc985f88877f182d38480a653f2decaa9794cbc3bf3060c6101008201527f0e187847ad4c798374d0d6732bf501847dd68bc0e071241e0213bc7fc13db7ab6101208201527f304cfbd1e08a704a99f5e847d93f8c3caafddec46b7a0d379da69a4d112346a76101408201527f1739c1b1a457a8c7313123d24d2f9192f896b7c63eea05a9d57f06547ad0cec8610160820152600087015161018082015260206000018701516101a08201527f198e9393920d483a7260bfb731fb5d25f1aa493335a9e71297e485b7aef312c26101c08201527f1800deef121f1e76426a00665e5c4479674322d4f75edadd46debd5cd992f6ed6101e08201527f090689d0585ff075ec9e99ad690c3395bc4b313370b38ef355acdadcd122975b6102008201527f12c85ea5db8c6deb4aab71808dcb408fe3d1e7690c43d37b4ce6cc0166fa7daa610220820152843561024082015260208501356102608201527f1ff3f802c3ee4102d0b810b73acf068f97ec325204cd54e420bcb81b75fd18736102808201527f0a6d5aba790e73baeec8956e431bcdcb1acde84fb610eaa8e3bafac03fdcddfb6102a08201527f11a0768682677628f269dc80aab45cf8a16d68e3e0f9084b12edcf7f7971a7206102c08201527f299ec8b7fa34e82474581ab46628c9d7ee27fd9d0812dcd0505c2859ea7efa3d6102e08201526020816103008360086107d05a03fa9051169695505050505050565b60405161038081016040526108c2600084013561005e565b6108cf602084013561005e565b6108dc604084013561005e565b6108e9606084013561005e565b6108f6608084013561005e565b61090360a084013561005e565b61091060c084013561005e565b61091d60e084013561005e565b61092b61010084013561005e565b61093961012084013561005e565b61094761014084013561005e565b61095561016084013561005e565b61096361018084013561005e565b6109716101a084013561005e565b61097f6101c084013561005e565b61098d6101e084013561005e565b61099a818486888a6100eb565b90508060005260206000f35b80604081018310156109b757600080fd5b92915050565b6000806000806102e08086880312156109d557600080fd5b6109df87876109a6565b945060c08601878111156109f257600080fd5b604087019450610a0288826109a6565b935050868187011115610a1457600080fd5b5092959194509261010001915056fe30644e72e131a029b85045b68181585d97816a916871ca8d3c208c16d87cfd47a26469706673582212204d0ddf8158e9de9e7ae13333ae09424f98d2e82f7d8ef86f3fb1af7b2aa04e1a64736f6c63430008150033608060405234801561001057600080fd5b50610ad9806100206000396000f3fe608060405234801561001057600080fd5b506004361061002b5760003560e01c8063c82febf514610030575b600080fd5b61004361003e366004610a1d565b610057565b604051901515815260200160405180910390f35b60006108fc565b600080516020610a84833981519152811061007d576000805260206000f35b50565b600060405183815284602082015285604082015260408160608360076107d05a03fa9150816100b3576000805260206000f35b825160408201526020830151606082015260408360808360066107d05a03fa915050806100e4576000805260206000f35b5050505050565b7f09fa061ded7b028d493ced2f3129135535c3ccad4a0c52ff156c832fbe99629d85527f29cb31bfd5c9f1f5c813152bbccec60777ea640c293f83cccd3604e7f15ffbe560208601526000608086018661018887357f1091ebde5938e9cb789f480e58f8fbfd8405350f68766e64e6dd1ce42a1a38897f0bfe79fd567ed8292689fde7c099194475c7611092e032e2e6d848d051f6db2884610080565b6101d860208801357f13935628dc05860ef75f72a0ccf3e80e8f3c0e03ac412e243ae73985d9ef2d137f2805cf7cc28faa5621b301744ae0eac0d67dcab242b6856821e66ed5cf5c7e1684610080565b61022860408801357f1a715f9ad5ff7874a33068027b7faf3e2b80d22359d034641f9be6bc5488984a7f12939f44f6beac6c306f4909baf6209b772acf0d20ac85c6afcb1d52412288e584610080565b61027860608801357f0223e76fbac11521a43c5716fdc0ae722bb36824aeae6d2f849906464edf2e437f15391d157e7d2761e13163287da85050c8046df1529be47eb6e7f0ef8f32db1784610080565b6102c860808801357f0c1697e4cd5943b6b306de51df7b7755f5914591b633b547f9aa228b49b9a0607f20d999804c6a6f78e7ffacb6d7c75c1ce90f14f142e902831532305f2af54b6184610080565b61031860a08801357f04df976eaa15271ac3fc63b147f0eb479dc46f48f5cf4e3bbf40a11bcd43f42e7f039e4f640a8837ebe9e7c2fc978855ad511a7fd92966e20181f1d8d42a9d8e1a84610080565b61036860c08801357f26f2857b328e90b65c129b3a480f67beda8f5d1d8d7cf5018c0dde5ea897c7497f1a3d8002668254712aff14d1fe46c4c152af76b81abaa24ee47dd1cb5ddecdad84610080565b6103b860e08801357f2ab92bd799fa9c9c91605f7e3ec2a1f5bb8fd1dbafb3fab6726b994ee48e98537f1def990076a4e63dc10858a7a6b210b73ab283f659c8e4093ca87808812c088484610080565b6104096101008801357f0568179bab4836550143e4fa9b87c5cc75baae61e7f98612f7028ba3fd709a167f08db7fc3d103c6bbde780897ba8c2b1d44be39f5cad9ee0dfdf54830b1dcdf6584610080565b61045a6101208801357f1d30e2133fa9c970f410c93f129762fd7842e444b7cc620e9ffcac027845a6027f15bd92f858ed9554a88d1f9407780ca9e3a3c8bdac4309bf9077b313c07241b184610080565b6104ab6101408801357f226fd0949a1abeb2bdf6743609a1f28a0e5d15d22a3aa846f41cf8a18615bfc67f2e6b97f58e10365ba95f764b8a480632496f556c2a6a79d7c52e7ef99eda610484610080565b6104fc6101608801357f16a8bb187ccaf31ba368a1cef89107b72065ff6bbd89d78c313aae4a1915e1407f2d793f3cf8319a959fe78779767d5a10b3efcbf8b2cde312f981bc43544a457784610080565b61054d6101808801357f12f82ada533e0c6c81cf2dcc4de48e05d3765509f9a1d5f68a85c35ef578ca537f11cefa3f7db6ccb438d6a9a02cadf8070515a8385c2996b94d386105c29bc06284610080565b61059e6101a08801357f067e91658a599c28433ba5d07bedca04a100e0f85b11a0adb077cda607501d487f1fc71e3b1a9cf0f267144960965b640d78f8b2aeb134d0befaf6ba51e7cb6f9f84610080565b6105ef6101c08801357f0120e15d11eb7f1b4319a7f6647e32e08ff32335054a19d99e924c00cd2562f87f1375aa602332c78a939c733d05bac72de2bd96f261bda48486a4f82fcb0ee12184610080565b6106406101e08801357f1fb73fd9efccc045198cda1ee139b7f6fcac9e655ad35b35d203163bb03361217f10e5018b654f98a80330e81ac56b3102ad9e70a5e9c99c0d3eb2821779eee99f84610080565b5082358152600080516020610a848339815191526020840135600080516020610a8483398151915203066020820152833560408201526020840135606082015260408401356080820152606084013560a08201527f2d4d9aa7e302d9df41749d5507949d05dbea33fbb16c643b22f599a2be6df2e260c08201527f14bedd503c37ceb061d8ec60209fe345ce89830a19230301f076caff004d192660e08201527f0967032fcbf776d1afc985f88877f182d38480a653f2decaa9794cbc3bf3060c6101008201527f0e187847ad4c798374d0d6732bf501847dd68bc0e071241e0213bc7fc13db7ab6101208201527f304cfbd1e08a704a99f5e847d93f8c3caafddec46b7a0d379da69a4d112346a76101408201527f1739c1b1a457a8c7313123d24d2f9192f896b7c63eea05a9d57f06547ad0cec8610160820152600087015161018082015260206000018701516101a08201527f198e9393920d483a7260bfb731fb5d25f1aa493335a9e71297e485b7aef312c26101c08201527f1800deef121f1e76426a00665e5c4479674322d4f75edadd46debd5cd992f6ed6101e08201527f090689d0585ff075ec9e99ad690c3395bc4b313370b38ef355acdadcd122975b6102008201527f12c85ea5db8c6deb4aab71808dcb408fe3d1e7690c43d37b4ce6cc0166fa7daa610220820152843561024082015260208501356102608201527f0179b12d7e5a7b5754f657f25cca0404a18794332fdff2b791b77eec8a983a7b6102808201527f13c5125983b6d7034005560e102dfde2adceba500cc9ef15bd25704d2eaa35c56102a08201527f1378c88ae2772e7cd7d4cf871058f977086f7f5b176cfa140b19e261bcda9c186102c08201527f2072394867b5cac26a2a95529af402c8a317908ea91c2ba2b84acac8b68d2c916102e08201526020816103008360086107d05a03fa9051169695505050505050565b6040516103808101604052610914600084013561005e565b610921602084013561005e565b61092e604084013561005e565b61093b606084013561005e565b610948608084013561005e565b61095560a084013561005e565b61096260c084013561005e565b61096f60e084013561005e565b61097d61010084013561005e565b61098b61012084013561005e565b61099961014084013561005e565b6109a761016084013561005e565b6109b561018084013561005e565b6109c36101a084013561005e565b6109d16101c084013561005e565b6109df6101e084013561005e565b6109ed61020084013561005e565b6109fa818486888a6100eb565b90508060005260206000f35b8060408101831015610a1757600080fd5b92915050565b600080600080610300808688031215610a3557600080fd5b610a3f8787610a06565b945060c0860187811115610a5257600080fd5b604087019450610a628882610a06565b935050868187011115610a7457600080fd5b5092959194509261010001915056fe30644e72e131a029b85045b68181585d97816a916871ca8d3c208c16d87cfd47a2646970667358221220d811d1a20c1ed5640961efd4ef481d2d14dcc969e38a76e1e73dc59bcff57bc264736f6c63430008150033608060405234801561001057600080fd5b5061060f806100206000396000f3fe608060405234801561001057600080fd5b506004361061002b5760003560e01c806311479fea14610030575b600080fd5b61004361003e366004610553565b610057565b604051901515815260200160405180910390f35b60006104e4565b6000805160206105ba833981519152811061007d576000805260206000f35b50565b600060405183815284602082015285604082015260408160608360076107d05a03fa9150816100b3576000805260206000f35b825160408201526020830151606082015260408360808360066107d05a03fa915050806100e4576000805260206000f35b5050505050565b7f28162f719bb77b8db7086fee542dc7d79a38efb335cf875ebc92a10f64ab00a985527f069fa76c6b6f3ecbac6c8a1b3d3739fa1234eeaea1daa1513a772ce465d9a42260208601526000608086018661018887357f107c2d352113e74495def73aac84392f43a832c3032cfd5acfc5192bd17840f27f2e53fe637eba82996fa72b0b444caaefaa61bb204ac679e6916290250d8d95c584610080565b6101d860208801357f1a94d4e41c07935039642b7dc3f442d0b7784b6a0bbcce0f2a6b0ede97aa267e7f2de21c35efec167ff853efa300302ba50581d7b96012258781604c2859418f9884610080565b61022860408801357f0b25ff10ac21cab643d983a1402d31bfdd733befea0c42bb812f4abce8d9d5c77f255cae845b21175231cae81df4806996974a84d6820e3853b006d152fdc9deb084610080565b50823581526000805160206105ba83398151915260208401356000805160206105ba83398151915203066020820152833560408201526020840135606082015260408401356080820152606084013560a08201527f2d4d9aa7e302d9df41749d5507949d05dbea33fbb16c643b22f599a2be6df2e260c08201527f14bedd503c37ceb061d8ec60209fe345ce89830a19230301f076caff004d192660e08201527f0967032fcbf776d1afc985f88877f182d38480a653f2decaa9794cbc3bf3060c6101008201527f0e187847ad4c798374d0d6732bf501847dd68bc0e071241e0213bc7fc13db7ab6101208201527f304cfbd1e08a704a99f5e847d93f8c3caafddec46b7a0d379da69a4d112346a76101408201527f1739c1b1a457a8c7313123d24d2f9192f896b7c63eea05a9d57f06547ad0cec8610160820152600087015161018082015260206000018701516101a08201527f198e9393920d483a7260bfb731fb5d25f1aa493335a9e71297e485b7aef312c26101c08201527f1800deef121f1e76426a00665e5c4479674322d4f75edadd46debd5cd992f6ed6101e08201527f090689d0585ff075ec9e99ad690c3395bc4b313370b38ef355acdadcd122975b6102008201527f12c85ea5db8c6deb4aab71808dcb408fe3d1e7690c43d37b4ce6cc0166fa7daa610220820152843561024082015260208501356102608201527f2b3e15184bb2b4f4f4532bcc8986dc28c664687636c5837205d90151aabfef276102808201527f0369f6dd0bcb3bd426a7275529c1feca8300413f5ee9fc940f5c5b9e78c304436102a08201527f1669f4ed7b9b6e7ec333c7914c2acbbf72cc57448c09a13f184f4c2cfe3a2cd66102c08201527f0681db723ebcd5188a76ef66a4c64f146ee35fb465b398c48df0e214534247176102e08201526020816103008360086107d05a03fa9051169695505050505050565b60405161038081016040526104fc600084013561005e565b610509602084013561005e565b610516604084013561005e565b610523606084013561005e565b610530818486888a6100eb565b90508060005260206000f35b806040810183101561054d57600080fd5b92915050565b60008060008061016080868803121561056b57600080fd5b610575878761053c565b945060c086018781111561058857600080fd5b604087019450610598888261053c565b9350508681870111156105aa57600080fd5b5092959194509261010001915056fe30644e72e131a029b85045b68181585d97816a916871ca8d3c208c16d87cfd47a26469706673582212208edcf473518d4abb3a99f7619ca14a59e1ea894b4bc38d2e3e4c976ec1daa00664736f6c63430008150033608060405234801561001057600080fd5b50611125806100206000396000f3fe608060405234801561001057600080fd5b506004361061002b5760003560e01c8063ee56750f14610030575b600080fd5b61004361003e366004611069565b610057565b604051901515815260200160405180910390f35b6000610e5a565b6000805160206110d0833981519152811061007d576000805260206000f35b50565b600060405183815284602082015285604082015260408160608360076107d05a03fa9150816100b3576000805260206000f35b825160408201526020830151606082015260408360808360066107d05a03fa915050806100e4576000805260206000f35b5050505050565b7f2e4a997abfc92201518ee8feac4d2fe48ad7dff3d8866edd92f87aef9c91fb2d85527f1134aa542c44764ed91777be483a33fc39b404212eab84103404500aa34be42160208601526000608086018661018887357f0185f0126967be65a6d970c4831c69e1a30d5d7968c03dcec3fe46d93f2d7e537f1281afb76f0558b4714ba4bae36fb2966fa23488df1062275746f4d0903405f184610080565b6101d860208801357f1cdab63179a0b32481c8d6ad330e1fd222521adcbedf194b44ca065668313d0d7f2db015a1f21687766696bef3603eb14f5b2ec1af0bc87c0898edfa0fb3b776c584610080565b61022860408801357f16a68b0b1f877024ad92f7e996b1947999bb12e86d5692b52f0a1905912bac697f1df050808ce08325ed2ceaf394bd174b93384d38942c8a7e6223a46e28493b1a84610080565b61027860608801357f2cfdffd83942100a4c8971b21a98c275969b6572f95f841238dbe110e864520f7f2d466ed1d9548507f5f9747f231392fa7c77fe133e5da506102b9d16d36d157d84610080565b6102c860808801357f04742e2fd757b4ec3ce0b2078485d3f22a68b60de6cec96be693e02a31f79a327f2684f7ba4cd48aaf7f92d188c6f97479363f9fc4d40a6f39c89919300129767484610080565b61031860a08801357f1d8086c173f2abff31812d22d77821fd6c34d214a85a6645908047e0cc2e21f67f0e119b9d456dde4ecc190831a17fbc04d4271427d0a8c896a3d338484cc7435e84610080565b61036760c08801357ebe09852154f802e1cecdf95698ac2253fba707c7876128b1a759cb5fbd785b7f1501cc177ce0b5692caddbc5bf96f695182c9d312038fa2cbe8dc1e629f172fe84610080565b6103b760e08801357f0fd41f459125ee4425e02a83b45023ab34491ded6b7fb1ebff216368d48d21c17f267aac99d0339c173350b457e15805e4d1cfc335558be00a3a991e93a2cf9eb884610080565b6104086101008801357f11499b65fa0c92b4364f55eb2d66edf234a5693bdb6f806abebaa7caa11145747f1482e0bf187a2e07230e4cab3e89e2bbc36a5d1cc89a37a651c3193ea439ec2184610080565b6104596101208801357f2eadc3d6de13413546f1f7600ec3be1983267d0df3afa770f5ac9d7ce2e042147f1c91d83f2b245b9bb19c3f4f3205889d903a71189bd12fd26609ebd63bc9d2b184610080565b6104aa6101408801357f2750374c144783250626b894fc9a4b920ce8eda89ede06ab3b48ed3c19c6a4af7f1d024d6b4dee9d2cec79f39f97e8f6da11bde9f189a1287f0f432d58ca82d5d084610080565b6104fa6101608801357f1a7f5d16db44cf03a44e98c8a6a14c0b7856027de1715673df1549bcec939f6c7eeead4e8d2ec77bcc6336e06cba857244c447e1e625cfc3d7a068b92b8d453884610080565b61054b6101808801357f150fa87d48c1a177f67b180e22496c62dbfb12bdb2108dcf8cfa994070b46f4a7f219e956d10de1a0410b79928b7479cddf4669a26696080f96181c3e5ce22ebeb84610080565b61059c6101a08801357f20bd3dd91f8b2b816ef61c569ee636d8ff5189f7a44b25219c79ba4dfedf95507f0f2bc16b636c794860e6dd3f095cf2d0b2642f9fd5ff69a9cbe80b2f865043d984610080565b6105ed6101c08801357f05173cad3757a316f2d64744a6827ea4ef76bbdc69e3aaca5e7add9a970ee8337f201015ecfd7e91eb0fbf8345efb7ba3a1f1d5ed1dadd0791b7bd1d847c9b33d484610080565b61063e6101e08801357f1bdf8f8552beef74124231a73dfe37e075888ce6f44a17bebc2b5bfb580e23ce7f2f058958369548ac66a87589fe960def796cdf995721e51b1770a835af4c51ae84610080565b61068f6102008801357f0a8d9298a13eba162c581428a8cd6c381dca189a496adddc590589971856be117f1a587215e8834bbf93b118590eafd2c6c234dcc59551cb46e66310d515e4d0a784610080565b6106e06102208801357f0ffb66d9505a76d5add102bd8112c0a8556455053de2f0265c398ddfe7b1f14b7f2619ef112f2e2650daa01d395034d92b1019f8ce4cccaa637468487474ae5cd384610080565b6107316102408801357f0788a0e398b04228cdbe51f966a2c930b0abad798eb2b98da97d4627f8c256297f0f82b943919ae12ccae3d532c315667fc052e310a42f038342d76a350b91f6fd84610080565b6107826102608801357f26dfc80b904274c1b22c9def308e0f371f6494a3cdb868935e8054b3b947528b7f2bb124536bf45b37292b65578f3a22f4ee90302bfecae9529ba2597d3170315c84610080565b6107d36102808801357f23f6172da6b12b74ebc52a63402db5424ec11fcf01a317554e8cea10b087cb7c7f07742c5759bf923c0a7da098c0787208a986940853cd4c5a781b7be2546b8b0584610080565b6108236102a08801357efe47529f3556be6372f46a555dec639c64c86afb818a5ca33340f7697910427f1c1fff5d2b4d1c508e272fd8a7a049a7148b92674f1d90ffe2096d89b884cf2784610080565b6108746102c08801357f270654941e4c9c0d1971a458cf213606cce218ba77099b46e78c05bf18de9be17f1699db49e048213c56dddfd79162dce43c173b031188f130fe12d7a7931f610584610080565b6108c56102e08801357f0b6b2ca3613e826f2b73d70c4a7839120ad565413ca047dbcd3f74942fe7c8887f09dac8b43d6541a94cd70440ea849cac0ee0e18d27de65b3ea11420661f53be284610080565b6109166103008801357f2460209740cd8c4d32033b168d6969b43b0eec1b4d7cd12ae16c0052f1edfb927f2d85f9ca57b8c9fedd1118b5b10f0a5ac59dbd49f876b2930e0a52ea22f5bc4784610080565b6109676103208801357f160eb01e264e6e4533258f06d3ba2c19627aa3e87972fc620240af3d3e7fb1a37f12e67b0594e318bf0e73bf1dde4e1882cd83fcd61e4f7da694d69d204bc8cd7684610080565b6109b86103408801357f2a0ed0a0f21eb6baf4e9d0aefe2cab7e733a7cfeaf58049329e3aed0701439b37f12e94f873e587313540b720d58c7d855aad875b1c4e39676c140dfd2b9b0fd3484610080565b610a096103608801357f2e1da2ebf27f77a05a939f874ac49d5a5b02515763b639f8a6350a0cada1ba6e7f13e666e1f93924601c0037666e93fdf0183474b785b5eee0c0b4956f06751bef84610080565b610a5a6103808801357f212497e02bc845c2d01159db0c7814bd83d5bbb696d3f4f6af102d5a0c6a0e337f273afed6efb91812c6c166d97fae92aa11ace4a8198b8eb4d57239e17a14d13c84610080565b610aab6103a08801357f2242ff22c678435d0887b90498dac5fbaaecd78d2ad12af66641f3fdee8f54847f22006525ccad1cc82ca4bcb79f675e0c1e930ebf52a3aa200dae1d4761a0287184610080565b610afc6103c08801357f03c61af1a2eb651901360d54ef3177278c0b090ba251e92930c74bd5c97df18f7f04567b7bab86e83a2f2eeb83351dacecb17a8c83f10a4473b4462efb8e9c14ab84610080565b610b4d6103e08801357f29271133c6c7a91c35b464cba6ffe6f3eec84aca42ee24de02e0aadda62f6a947f10592c4dfd74e43fa403bcbc593e83a2958a3671f1b837a7f7c81c72665e8f3484610080565b610b9e6104008801357f025a738750cb04afc5bee0e052ebd09251ac9b161504b55bf053d688bca8bf577f10e3034e53c8f370aef0b221a68bac90919cf5a3009f032ac9f486a3d2b4dc4684610080565b50823581526000805160206110d083398151915260208401356000805160206110d083398151915203066020820152833560408201526020840135606082015260408401356080820152606084013560a08201527f2d4d9aa7e302d9df41749d5507949d05dbea33fbb16c643b22f599a2be6df2e260c08201527f14bedd503c37ceb061d8ec60209fe345ce89830a19230301f076caff004d192660e08201527f0967032fcbf776d1afc985f88877f182d38480a653f2decaa9794cbc3bf3060c6101008201527f0e187847ad4c798374d0d6732bf501847dd68bc0e071241e0213bc7fc13db7ab6101208201527f304cfbd1e08a704a99f5e847d93f8c3caafddec46b7a0d379da69a4d112346a76101408201527f1739c1b1a457a8c7313123d24d2f9192f896b7c63eea05a9d57f06547ad0cec8610160820152600087015161018082015260206000018701516101a08201527f198e9393920d483a7260bfb731fb5d25f1aa493335a9e71297e485b7aef312c26101c08201527f1800deef121f1e76426a00665e5c4479674322d4f75edadd46debd5cd992f6ed6101e08201527f090689d0585ff075ec9e99ad690c3395bc4b313370b38ef355acdadcd122975b6102008201527f12c85ea5db8c6deb4aab71808dcb408fe3d1e7690c43d37b4ce6cc0166fa7daa610220820152843561024082015260208501356102608201527f1915a4f27502bbf2192556dcbc9b5ab7701367ec8d69aecab47ad5e926aa1a546102808201527f07bf59d17b23b14610a5585dc40bf6ad09fe8e34ad3c9a961bd094f165b4de836102a08201527f0de9e5b81a265307cad05b19cae023f70c1c32318955ac8c5b13d4271a089b326102c08201527f26136549ddddf1144e976dcdf0d4a313cedffc0eb2b28ef844e13b36302c03416102e08201526020816103008360086107d05a03fa9051169695505050505050565b6040516103808101604052610e72600084013561005e565b610e7f602084013561005e565b610e8c604084013561005e565b610e99606084013561005e565b610ea6608084013561005e565b610eb360a084013561005e565b610ec060c084013561005e565b610ecd60e084013561005e565b610edb61010084013561005e565b610ee961012084013561005e565b610ef761014084013561005e565b610f0561016084013561005e565b610f1361018084013561005e565b610f216101a084013561005e565b610f2f6101c084013561005e565b610f3d6101e084013561005e565b610f4b61020084013561005e565b610f5961022084013561005e565b610f6761024084013561005e565b610f7561026084013561005e565b610f8361028084013561005e565b610f916102a084013561005e565b610f9f6102c084013561005e565b610fad6102e084013561005e565b610fbb61030084013561005e565b610fc961032084013561005e565b610fd761034084013561005e565b610fe561036084013561005e565b610ff361038084013561005e565b6110016103a084013561005e565b61100f6103c084013561005e565b61101d6103e084013561005e565b61102b61040084013561005e565b61103961042084013561005e565b611046818486888a6100eb565b90508060005260206000f35b806040810183101561106357600080fd5b92915050565b60008060008061052080868803121561108157600080fd5b61108b8787611052565b945060c086018781111561109e57600080fd5b6040870194506110ae8882611052565b9350508681870111156110c057600080fd5b5092959194509261010001915056fe30644e72e131a029b85045b68181585d97816a916871ca8d3c208c16d87cfd47a264697066735822122051443b3dd05d79e724bfc7a52a07f6070df7f9d2dc68e459e6f34fc42b28c61664736f6c63430008150033608060405234801561001057600080fd5b506108fe806100206000396000f3fe608060405234801561001057600080fd5b506004361061002b5760003560e01c8063b9c6ea8714610030575b600080fd5b61004361003e366004610842565b610057565b604051901515815260200160405180910390f35b6000610767565b6000805160206108a9833981519152811061007d576000805260206000f35b50565b600060405183815284602082015285604082015260408160608360076107d05a03fa9150816100b3576000805260206000f35b825160408201526020830151606082015260408360808360066107d05a03fa915050806100e4576000805260206000f35b5050505050565b7f198429247f4eebafa4b54851b0f560de8cbe70d49bbec7795e9155002be7fe9885527f0adc6edde7ade6f9b4c0fda0d887d197290652eb97512c55fc360604f37d278460208601526000608086018661018887357f19b14e69471c7b537b862b74bdcec21a162783f6f8c29424be48c1d6a98d37d77f2cf5b518f6adbd1ef9695137f44f331e26c420e26ce34272a7538da859d4cfb884610080565b6101d860208801357f22b91e419372e5946958a471c497a9a12f2934d53c6663ca78ac3eb832932ff47f2933775a286b4999ab05400d5a4609f5478c26207e2b7a709ca76b71d7dcbf8f84610080565b61022860408801357f105882b2ce0435d01186d56f24dc46e256b917bf7e8007b9e871070271dcc3ee7f2849f7dd23ca8c5a14072d05c261b1ead8db8d0b8a14de9399ca9ff76c3a394e84610080565b61027860608801357f250db8732325c2944ba94de74ab8875014bdfa016483f10249e78cfbbf7e36ad7f2d56fe9d639e753c7787887eb3c5be0b5479245162f67ca71e9b51c321517e0c84610080565b6102c860808801357f27f5cece50f2a0386e9a21556ed3b4ef88a8491f793cb784c0bab0e239c7ec397f2f2e57b341a59aa8aef204df6c495f2dc0e935d195cbd427692e054fb7a6516884610080565b61031860a08801357f1616312b819d3451f07c0662b6971c0ea884ed0a3100442056f6f74fe6bcd3b37f24ee5a1407d7617e0c24663c79a441186bf107159f1ce8c549c11eb6863e6ff984610080565b61036860c08801357f1c75ffccb71b16acc12c9a0be717c1d6ca1afb01908312d8a6234cd7fff9b67a7f27d1b01d055167ab6360d8b390a1e8ab0cae66b71be05f4a490412ebf1ee532984610080565b6103b860e08801357f2539465ee99d5e226b7abf7686549ab90712fe40e3d585806b385b6ea3e0b3107f1ae239260748a8f3d3dbef88edf7da9dc5c38ea53a11bf0534c7f27577415d1b84610080565b6104096101008801357f20664bee6a294af2ec364e09d770e91a13e8f3ac1581665c8afbed46379ee0827f08b24f9a9bd48c63474a9a4fd6a84a41606835c0743278f2d8d8a36abf62f0cd84610080565b61045a6101208801357f2dd53f4b672c89782d9338a07412356356133bad6452096e40a0c3ea57a18b6d7f2fd539da20156f5963f259613bdae6a643f71aa831c8dc12ac705c67667fdac284610080565b6104ab6101408801357f2e51815ff0879150ab18bc21355a0c6344b5a227cea1b8c28909328790c79f037f27dcb1c1dd1fbcb04381d5f9a1a11569acb6c87b0360b33100d8095a006c65b684610080565b50823581526000805160206108a983398151915260208401356000805160206108a983398151915203066020820152833560408201526020840135606082015260408401356080820152606084013560a08201527f2d4d9aa7e302d9df41749d5507949d05dbea33fbb16c643b22f599a2be6df2e260c08201527f14bedd503c37ceb061d8ec60209fe345ce89830a19230301f076caff004d192660e08201527f0967032fcbf776d1afc985f88877f182d38480a653f2decaa9794cbc3bf3060c6101008201527f0e187847ad4c798374d0d6732bf501847dd68bc0e071241e0213bc7fc13db7ab6101208201527f304cfbd1e08a704a99f5e847d93f8c3caafddec46b7a0d379da69a4d112346a76101408201527f1739c1b1a457a8c7313123d24d2f9192f896b7c63eea05a9d57f06547ad0cec8610160820152600087015161018082015260206000018701516101a08201527f198e9393920d483a7260bfb731fb5d25f1aa493335a9e71297e485b7aef312c26101c08201527f1800deef121f1e76426a00665e5c4479674322d4f75edadd46debd5cd992f6ed6101e08201527f090689d0585ff075ec9e99ad690c3395bc4b313370b38ef355acdadcd122975b6102008201527f12c85ea5db8c6deb4aab71808dcb408fe3d1e7690c43d37b4ce6cc0166fa7daa610220820152843561024082015260208501356102608201527f22316adaffd9192ebd0d1df0d9c8a29d2951bc7d85ab339bd8b3d2b2ee1bafa56102808201527f11d84ab773f8dcdcf25d1a59690548b0fe5c9865e0f0a3c6cce6c1ac9b1493ed6102a08201527f08ff553b786e0ef437c89b676ceb49dfd8b8078345c29cf61b9969a1904b27946102c08201527f274ddb5ddefc474d697d4b5fd46c5f8475e20b0dfabf148d1e13ee9ad7db1dd36102e08201526020816103008360086107d05a03fa9051169695505050505050565b604051610380810160405261077f600084013561005e565b61078c602084013561005e565b610799604084013561005e565b6107a6606084013561005e565b6107b3608084013561005e565b6107c060a084013561005e565b6107cd60c084013561005e565b6107da60e084013561005e565b6107e861010084013561005e565b6107f661012084013561005e565b61080461014084013561005e565b61081261016084013561005e565b61081f818486888a6100eb565b90508060005260206000f35b806040810183101561083c57600080fd5b92915050565b60008060008061026080868803121561085a57600080fd5b610864878761082b565b945060c086018781111561087757600080fd5b604087019450610887888261082b565b93505086818701111561089957600080fd5b5092959194509261010001915056fe30644e72e131a029b85045b68181585d97816a916871ca8d3c208c16d87cfd47a26469706673582212205638528cdbada2cd5f698f8c20b1a5dfd403e5eefb228e58dcc0dc5ca75f06a164736f6c63430008150033",
    "linkReferences": {}
  },
  "methodIdentifiers": {
    "DOMAIN_BYTES()": "86c290ae",
    "DOMAIN_FIELDS()": "b2defd78",
    "EMAIL_ADDR_BYTES()": "522a8044",
    "EMAIL_ADDR_FIELDS()": "c61b8c83",
    "SUBJECT_BYTES()": "506a0f91",
    "SUBJECT_FIELDS()": "47ba75a8",
    "_packBytes2Fields(bytes,uint256)": "e6a28005",
    "accountCreationVerifier()": "209e3a5f",
    "accountInitVerifier()": "46219a99",
    "accountTransportVerifier()": "99595b2f",
    "announcementVerifier()": "438b7682",
    "claimVerifier()": "a93539d0",
    "emailSenderVerifier()": "58373f58",
    "verifyAccountCreationProof(bytes32,bytes32,bytes32,bytes32,bytes,bytes)": "16999ab5",
    "verifyAccountInitializaionProof(string,bytes32,uint256,bytes32,bytes32,bytes32,bytes32,bytes)": "ce2e9f0e",
    "verifyAccountTransportProof(string,bytes32,uint256,bytes32,bytes32,bytes32,bytes32,bytes32,bytes)": "87fac4ba",
    "verifyAnnouncementProof(string,bytes32,bytes32,bytes)": "be65c064",
    "verifyClaimFundProof(bytes32,bytes32,bytes32,bytes)": "80dc3737",
    "verifyEmailOpProof(string,bytes32,uint256,string,bytes32,bytes32,bytes32,bool,bytes32,bytes)": "b4fe5792"
  },
  "id": 152
}