{"abi":[{"type":"constructor","inputs":[],"stateMutability":"nonpayable"},{"type":"function","name":"addressOfExtensionName","inputs":[{"name":"","type":"string","internalType":"string"}],"outputs":[{"name":"","type":"address","internalType":"address"}],"stateMutability":"view"},{"type":"function","name":"defaultExtensionOfCommand","inputs":[{"name":"","type":"string","internalType":"string"}],"outputs":[{"name":"","type":"address","internalType":"address"}],"stateMutability":"view"},{"type":"function","name":"getExtensionForCommand","inputs":[{"name":"walletAddr","type":"address","internalType":"address"},{"name":"command","type":"string","internalType":"string"}],"outputs":[{"name":"","type":"address","internalType":"address"}],"stateMutability":"view"},{"type":"function","name":"getSubjectTemplatesOfExtension","inputs":[{"name":"extensionAddr","type":"address","internalType":"address"}],"outputs":[{"name":"","type":"string[][]","internalType":"string[][]"}],"stateMutability":"view"},{"type":"function","name":"initialize","inputs":[],"outputs":[],"stateMutability":"nonpayable"},{"type":"function","name":"maxGasOfExtension","inputs":[{"name":"","type":"address","internalType":"address"}],"outputs":[{"name":"","type":"uint256","internalType":"uint256"}],"stateMutability":"view"},{"type":"function","name":"owner","inputs":[],"outputs":[{"name":"","type":"address","internalType":"address"}],"stateMutability":"view"},{"type":"function","name":"proxiableUUID","inputs":[],"outputs":[{"name":"","type":"bytes32","internalType":"bytes32"}],"stateMutability":"view"},{"type":"function","name":"publishExtension","inputs":[{"name":"name","type":"string","internalType":"string"},{"name":"addr","type":"address","internalType":"address"},{"name":"subjectTemplates","type":"string[][]","internalType":"string[][]"},{"name":"maxExecutionGas","type":"uint256","internalType":"uint256"}],"outputs":[],"stateMutability":"nonpayable"},{"type":"function","name":"renounceOwnership","inputs":[],"outputs":[],"stateMutability":"nonpayable"},{"type":"function","name":"setDefaultExtensions","inputs":[{"name":"defaultExtensions","type":"bytes[]","internalType":"bytes[]"}],"outputs":[],"stateMutability":"nonpayable"},{"type":"function","name":"setExtensionForCommand","inputs":[{"name":"walletAddr","type":"address","internalType":"address"},{"name":"command","type":"string","internalType":"string"},{"name":"extensionAddr","type":"address","internalType":"address"}],"outputs":[],"stateMutability":"nonpayable"},{"type":"function","name":"subjectTemplatesOfExtension","inputs":[{"name":"","type":"address","internalType":"address"},{"name":"","type":"uint256","internalType":"uint256"},{"name":"","type":"uint256","internalType":"uint256"}],"outputs":[{"name":"","type":"string","internalType":"string"}],"stateMutability":"view"},{"type":"function","name":"transferOwnership","inputs":[{"name":"newOwner","type":"address","internalType":"address"}],"outputs":[],"stateMutability":"nonpayable"},{"type":"function","name":"upgradeTo","inputs":[{"name":"newImplementation","type":"address","internalType":"address"}],"outputs":[],"stateMutability":"nonpayable"},{"type":"function","name":"upgradeToAndCall","inputs":[{"name":"newImplementation","type":"address","internalType":"address"},{"name":"data","type":"bytes","internalType":"bytes"}],"outputs":[],"stateMutability":"payable"},{"type":"function","name":"userExtensionOfCommand","inputs":[{"name":"","type":"address","internalType":"address"},{"name":"","type":"string","internalType":"string"}],"outputs":[{"name":"","type":"address","internalType":"address"}],"stateMutability":"view"},{"type":"event","name":"AdminChanged","inputs":[{"name":"previousAdmin","type":"address","indexed":false,"internalType":"address"},{"name":"newAdmin","type":"address","indexed":false,"internalType":"address"}],"anonymous":false},{"type":"event","name":"BeaconUpgraded","inputs":[{"name":"beacon","type":"address","indexed":true,"internalType":"address"}],"anonymous":false},{"type":"event","name":"ExtensionPublished","inputs":[{"name":"name","type":"string","indexed":true,"internalType":"string"},{"name":"extensionAddr","type":"address","indexed":true,"internalType":"address"},{"name":"subjectTemplates","type":"string[][]","indexed":false,"internalType":"string[][]"},{"name":"maxExecutionGas","type":"uint256","indexed":false,"internalType":"uint256"}],"anonymous":false},{"type":"event","name":"Initialized","inputs":[{"name":"version","type":"uint8","indexed":false,"internalType":"uint8"}],"anonymous":false},{"type":"event","name":"OwnershipTransferred","inputs":[{"name":"previousOwner","type":"address","indexed":true,"internalType":"address"},{"name":"newOwner","type":"address","indexed":true,"internalType":"address"}],"anonymous":false},{"type":"event","name":"Upgraded","inputs":[{"name":"implementation","type":"address","indexed":true,"internalType":"address"}],"anonymous":false}],"bytecode":{"object":"0x60a0604052306080523480156200001557600080fd5b506200002062000026565b620000e7565b600054610100900460ff1615620000935760405162461bcd60e51b815260206004820152602760248201527f496e697469616c697a61626c653a20636f6e747261637420697320696e697469604482015266616c697a696e6760c81b606482015260840160405180910390fd5b60005460ff90811614620000e5576000805460ff191660ff9081179091556040519081527f7f26b83ff96e1f2b6a682f133852f6798a09c465da95921460cefb38474024989060200160405180910390a15b565b6080516130446200011f60003960008181610423015281816104be015281816105f90152818161068f01526107be01526130446000f3fe60806040526004361061010e5760003560e01c80638129fc1c116100a5578063bc27aeb311610074578063f1fbbba111610059578063f1fbbba1146103ac578063f2fde38b146103cc578063f884630b146103ec57600080fd5b8063bc27aeb31461036c578063e086a8221461038c57600080fd5b80638129fc1c146102b15780638da5cb5b146102c657806393ec4971146102f157806393f878421461031e57600080fd5b80634f1ef286116100e15780634f1ef2861461024757806352d1902d1461025a5780636dfbe35e1461026f578063715018a61461029c57600080fd5b80630db79b93146101135780632f1d7ddc1461018b5780633659cfe6146101c65780633a03738a146101e8575b600080fd5b34801561011f57600080fd5b5061016161012e3660046126e8565b805160208183018101805160678252928201919093012091525473ffffffffffffffffffffffffffffffffffffffff1681565b60405173ffffffffffffffffffffffffffffffffffffffff90911681526020015b60405180910390f35b34801561019757600080fd5b506101b86101a636600461274f565b60696020526000908152604090205481565b604051908152602001610182565b3480156101d257600080fd5b506101e66101e136600461274f565b61040c565b005b3480156101f457600080fd5b5061016161020336600461276c565b606a602090815260009283526040909220815180830184018051928152908401929093019190912091525473ffffffffffffffffffffffffffffffffffffffff1681565b6101e66102553660046127bc565b6105e2565b34801561026657600080fd5b506101b86107a4565b34801561027b57600080fd5b5061028f61028a36600461274f565b610876565b604051610182919061293e565b3480156102a857600080fd5b506101e66109b9565b3480156102bd57600080fd5b506101e66109cd565b3480156102d257600080fd5b5060335473ffffffffffffffffffffffffffffffffffffffff16610161565b3480156102fd57600080fd5b5061031161030c366004612951565b610b72565b6040516101829190612986565b34801561032a57600080fd5b506101616103393660046126e8565b805160208183018101805160668252928201919093012091525473ffffffffffffffffffffffffffffffffffffffff1681565b34801561037857600080fd5b506101e6610387366004612ac0565b610c44565b34801561039857600080fd5b506101616103a736600461276c565b611987565b3480156103b857600080fd5b506101e66103c7366004612b70565b611a35565b3480156103d857600080fd5b506101e66103e736600461274f565b611acd565b3480156103f857600080fd5b506101e6610407366004612bd4565b611b67565b73ffffffffffffffffffffffffffffffffffffffff7f00000000000000000000000000000000000000000000000000000000000000001630036104bc5760405162461bcd60e51b815260206004820152602c60248201527f46756e6374696f6e206d7573742062652063616c6c6564207468726f7567682060448201527f64656c656761746563616c6c000000000000000000000000000000000000000060648201526084015b60405180910390fd5b7f000000000000000000000000000000000000000000000000000000000000000073ffffffffffffffffffffffffffffffffffffffff166105317f360894a13ba1a3210667c828492db98dca3e2076cc3735a920a3ca505d382bbc5473ffffffffffffffffffffffffffffffffffffffff1690565b73ffffffffffffffffffffffffffffffffffffffff16146105ba5760405162461bcd60e51b815260206004820152602c60248201527f46756e6374696f6e206d7573742062652063616c6c6564207468726f7567682060448201527f6163746976652070726f7879000000000000000000000000000000000000000060648201526084016104b3565b6105c381611d8d565b604080516000808252602082019092526105df91839190611df9565b50565b73ffffffffffffffffffffffffffffffffffffffff7f000000000000000000000000000000000000000000000000000000000000000016300361068d5760405162461bcd60e51b815260206004820152602c60248201527f46756e6374696f6e206d7573742062652063616c6c6564207468726f7567682060448201527f64656c656761746563616c6c000000000000000000000000000000000000000060648201526084016104b3565b7f000000000000000000000000000000000000000000000000000000000000000073ffffffffffffffffffffffffffffffffffffffff166107027f360894a13ba1a3210667c828492db98dca3e2076cc3735a920a3ca505d382bbc5473ffffffffffffffffffffffffffffffffffffffff1690565b73ffffffffffffffffffffffffffffffffffffffff161461078b5760405162461bcd60e51b815260206004820152602c60248201527f46756e6374696f6e206d7573742062652063616c6c6564207468726f7567682060448201527f6163746976652070726f7879000000000000000000000000000000000000000060648201526084016104b3565b61079482611d8d565b6107a082826001611df9565b5050565b60003073ffffffffffffffffffffffffffffffffffffffff7f000000000000000000000000000000000000000000000000000000000000000016146108515760405162461bcd60e51b815260206004820152603860248201527f555550535570677261646561626c653a206d757374206e6f742062652063616c60448201527f6c6564207468726f7567682064656c656761746563616c6c000000000000000060648201526084016104b3565b507f360894a13ba1a3210667c828492db98dca3e2076cc3735a920a3ca505d382bbc90565b73ffffffffffffffffffffffffffffffffffffffff81166000908152606860209081526040808320805482518185028101850190935280835260609492939192909184015b828210156109ae57838290600052602060002001805480602002602001604051908101604052809291908181526020016000905b8282101561099b57838290600052602060002001805461090e90612c49565b80601f016020809104026020016040519081016040528092919081815260200182805461093a90612c49565b80156109875780601f1061095c57610100808354040283529160200191610987565b820191906000526020600020905b81548152906001019060200180831161096a57829003601f168201915b5050505050815260200190600101906108ef565b50505050815260200190600101906108bb565b505050509050919050565b6109c1611fc9565b6109cb6000612030565b565b600054610100900460ff16158080156109ed5750600054600160ff909116105b80610a075750303b158015610a07575060005460ff166001145b610a795760405162461bcd60e51b815260206004820152602e60248201527f496e697469616c697a61626c653a20636f6e747261637420697320616c72656160448201527f647920696e697469616c697a656400000000000000000000000000000000000060648201526084016104b3565b600080547fffffffffffffffffffffffffffffffffffffffffffffffffffffffffffffff001660011790558015610ad757600080547fffffffffffffffffffffffffffffffffffffffffffffffffffffffffffff00ff166101001790555b610adf6120a7565b606580547fffffffffffffffffffffff0000000000000000000000000000000000000000ff16336101000217905580156105df57600080547fffffffffffffffffffffffffffffffffffffffffffffffffffffffffffff00ff169055604051600181527f7f26b83ff96e1f2b6a682f133852f6798a09c465da95921460cefb38474024989060200160405180910390a150565b60686020528260005260406000208281548110610b8e57600080fd5b906000526020600020018181548110610ba657600080fd5b9060005260206000200160009250925050508054610bc390612c49565b80601f0160208091040260200160405190810160405280929190818152602001828054610bef90612c49565b8015610c3c5780601f10610c1157610100808354040283529160200191610c3c565b820191906000526020600020905b815481529060010190602001808311610c1f57829003601f168201915b505050505081565b600073ffffffffffffffffffffffffffffffffffffffff1660668686604051610c6e929190612c9c565b9081526040519081900360200190205473ffffffffffffffffffffffffffffffffffffffff1614610ce15760405162461bcd60e51b815260206004820152601b60248201527f657874656e73696f6e206e616d6520616c72656164792075736564000000000060448201526064016104b3565b73ffffffffffffffffffffffffffffffffffffffff8316610d445760405162461bcd60e51b815260206004820152601960248201527f696e76616c696420657874656e73696f6e20616464726573730000000000000060448201526064016104b3565b83610d915760405162461bcd60e51b815260206004820152601660248201527f696e76616c696420657874656e73696f6e206e616d650000000000000000000060448201526064016104b3565b60008111610e075760405162461bcd60e51b815260206004820152602860248201527f6d6178457865637574696f6e476173206d757374206265206c6172676572207460448201527f68616e207a65726f00000000000000000000000000000000000000000000000060648201526084016104b3565b6000825111610e7e5760405162461bcd60e51b815260206004820152602660248201527f7375626a65637454656d706c617465732061727261792063616e6e6f7420626560448201527f20656d707479000000000000000000000000000000000000000000000000000060648201526084016104b3565b73ffffffffffffffffffffffffffffffffffffffff831660009081526069602052604090205415610ef15760405162461bcd60e51b815260206004820152601b60248201527f657874656e73696f6e20616c7265616479207075626c6973686564000000000060448201526064016104b3565b606060005b83518110156111c6576000848281518110610f1357610f13612cac565b60200260200101515111610f695760405162461bcd60e51b815260206004820152601f60248201527f7375626a65637454656d706c6174652063616e6e6f7420626520656d7074790060448201526064016104b3565b80600003610fac57838181518110610f8357610f83612cac565b6020026020010151600081518110610f9d57610f9d612cac565b6020026020010151915061106c565b610ffa82858381518110610fc257610fc2612cac565b6020026020010151600081518110610fdc57610fdc612cac565b60200260200101518051602091820120825192909101919091201490565b61106c5760405162461bcd60e51b815260206004820152602760248201527f7375626a65637454656d706c61746573206d75737420686176652073616d652060448201527f636f6d6d616e640000000000000000000000000000000000000000000000000060648201526084016104b3565b600060015b85838151811061108357611083612cac565b6020026020010151518110156111455761112a8684815181106110a8576110a8612cac565b602002602001015182815181106110c1576110c1612cac565b60209081029190910181015160408051808201909152600b81527f7b726563697069656e747d0000000000000000000000000000000000000000009083015280519101207f8aaf32fcbd174399cb3669036e8da3c3578002bcce064a4a8f29f7b5674bbcaf1490565b1561113d578161113981612cdb565b9250505b600101611071565b5060018111156111bd5760405162461bcd60e51b815260206004820152602860248201527f726563697069656e742074656d706c6174652063616e206f6e6c79206265207560448201527f736564206f6e636500000000000000000000000000000000000000000000000060648201526084016104b3565b50600101610ef6565b5060005b8151811015611282578181815181106111e5576111e5612cac565b01602001517fff00000000000000000000000000000000000000000000000000000000000000167f20000000000000000000000000000000000000000000000000000000000000000361127a5760405162461bcd60e51b815260206004820152601a60248201527f636f6d6d616e642073686f756c64206265206f6e6520776f726400000000000060448201526064016104b3565b6001016111ca565b5060408051808201909152600481527f53656e64000000000000000000000000000000000000000000000000000000006020918201528151908201207fa886dd9bf74a23521a7b7ff5d419d5a1c9e53e4b8c030012967fabd9be77821914158015611347575060408051808201909152600781527f45786563757465000000000000000000000000000000000000000000000000006020918201528151908201207f28d668beb286a0839c52825618abb539cbe274853731db4004ca7bcf1049a4ca14155b80156113ad575060408051808201909152600781527f496e7374616c6c000000000000000000000000000000000000000000000000006020918201528151908201207f6697c63a74fcc5c464f3dcb6b3a4e49cb1d1003da99048d44c6d2b12fe00ff3a14155b8015611413575060408051808201909152600981527f556e696e7374616c6c00000000000000000000000000000000000000000000006020918201528151908201207fcf0fb4af6fa71203bf8ca49a15d730b9e9a0385a52961e75ded30718d69a944e14155b8015611479575060408051808201909152600481527f45786974000000000000000000000000000000000000000000000000000000006020918201528151908201207f24f73f4b0982cea5408e76088d1820dcfce3fd3fb65e923dcb9879c1e7e9114114155b80156114df575060408051808201909152600481527f444b494d000000000000000000000000000000000000000000000000000000006020918201528151908201207f63caed16123396ddfbcc1e893ad0c18ec46a2548dbeb5118752368356439f0af14155b6115515760405162461bcd60e51b815260206004820152602160248201527f636f6d6d616e642063616e6e6f742062652061207265736572766564206e616d60448201527f650000000000000000000000000000000000000000000000000000000000000060648201526084016104b3565b60408051808201909152600d81527f7b746f6b656e416d6f756e747d000000000000000000000000000000000000006020918201528151908201207f815ff003ec3cd903b6b66ff0f95b542fd3a93d2d90693c0d0c6beaa33ccaaf2b14158015611615575060408051808201909152600881527f7b616d6f756e747d0000000000000000000000000000000000000000000000006020918201528151908201207f6f8367b1d9d8a7b82dd8c3fea75362c06146bca071119cf59a3cb58501076bf014155b801561167b575060408051808201909152600881527f7b737472696e677d0000000000000000000000000000000000000000000000006020918201528151908201207fb0dd9c5dfd6b1348089539c8cd8146a59f1fd23ff2de9c6052e54da8d2a6c0fb14155b80156116e1575060408051808201909152600681527f7b75696e747d00000000000000000000000000000000000000000000000000006020918201528151908201207f6f5ea6f405f661d5066b9e0ff07a25fd2e0d206057a7fc2dfef33ff65ad22a2314155b8015611747575060408051808201909152600581527f7b696e747d0000000000000000000000000000000000000000000000000000006020918201528151908201207f96115c52281705004db3ca7f604112b6bc76ae505ed268b2dbee29feb8e7899d14155b80156117ad575060408051808201909152600981527f7b616464726573737d00000000000000000000000000000000000000000000006020918201528151908201207f9a3de9fca46f2420947f2d1d4744c5febedebc77b9a3fcbfcf16ed02cbe48f7314155b8015611813575060408051808201909152600b81527f7b726563697069656e747d0000000000000000000000000000000000000000006020918201528151908201207f8aaf32fcbd174399cb3669036e8da3c3578002bcce064a4a8f29f7b5674bbcaf14155b6118845760405162461bcd60e51b8152602060048201526024808201527f636f6d6d616e642063616e6e6f7420626520612074656d706c617465206d617460448201527f636865720000000000000000000000000000000000000000000000000000000060648201526084016104b3565b8360668787604051611897929190612c9c565b908152604080516020928190038301902080547fffffffffffffffffffffffff00000000000000000000000000000000000000001673ffffffffffffffffffffffffffffffffffffffff94851617905591861660009081526068825291909120845161190592860190612483565b5073ffffffffffffffffffffffffffffffffffffffff8416600081815260696020526040908190208490555161193e9088908890612c9c565b60405180910390207fef0e971f43d9347ead7cb66791fdcce2d7a5171ee1f652fec727823d1e2d4ee88585604051611977929190612d3a565b60405180910390a3505050505050565b73ffffffffffffffffffffffffffffffffffffffff82166000908152606a60205260408082209051829182916119be908690612d5c565b9081526040519081900360200190205473ffffffffffffffffffffffffffffffffffffffff16905080156119f457809150611a2d565b606784604051611a049190612d5c565b9081526040519081900360200190205473ffffffffffffffffffffffffffffffffffffffff1691505b509392505050565b611a3d611fc9565b73ffffffffffffffffffffffffffffffffffffffff83166000908152606a6020526040908190209051829190611a74908590612d5c565b908152604051908190036020019020805473ffffffffffffffffffffffffffffffffffffffff929092167fffffffffffffffffffffffff0000000000000000000000000000000000000000909216919091179055505050565b611ad5611fc9565b73ffffffffffffffffffffffffffffffffffffffff8116611b5e5760405162461bcd60e51b815260206004820152602660248201527f4f776e61626c653a206e6577206f776e657220697320746865207a65726f206160448201527f646472657373000000000000000000000000000000000000000000000000000060648201526084016104b3565b6105df81612030565b611b6f611fc9565b60655460ff1615611bc25760405162461bcd60e51b815260206004820152601e60248201527f64656661756c7420657874656e73696f6e7320616c726561647920736574000060448201526064016104b3565b60005b81811015611d5d57600080600080868686818110611be557611be5612cac565b9050602002810190611bf79190612d78565b810190611c049190612de4565b935093509350935082606685604051611c1d9190612d5c565b908152604080516020928190038301902080547fffffffffffffffffffffffff00000000000000000000000000000000000000001673ffffffffffffffffffffffffffffffffffffffff948516179055918516600090815260688252919091208351611c8b92850190612483565b5073ffffffffffffffffffffffffffffffffffffffff8316600090815260696020526040812082905582518491606791859190611cca57611cca612cac565b6020026020010151600081518110611ce457611ce4612cac565b6020026020010151604051611cf99190612d5c565b908152604051908190036020019020805473ffffffffffffffffffffffffffffffffffffffff929092167fffffffffffffffffffffffff00000000000000000000000000000000000000009092169190911790555050506001919091019050611bc5565b5050606580547fffffffffffffffffffffffffffffffffffffffffffffffffffffffffffffff0016600117905550565b606554610100900473ffffffffffffffffffffffffffffffffffffffff1633146105df5760405162461bcd60e51b815260206004820152601860248201527f63616c6c6572206973206e6f742061206465706c6f796572000000000000000060448201526064016104b3565b7f4910fdfa16fed3260ed0e7147f7cc6da11a60208b5b9406d12a635614ffd91435460ff1615611e3157611e2c8361212c565b505050565b8273ffffffffffffffffffffffffffffffffffffffff166352d1902d6040518163ffffffff1660e01b8152600401602060405180830381865afa925050508015611eb6575060408051601f3d9081017fffffffffffffffffffffffffffffffffffffffffffffffffffffffffffffffe0168201909252611eb391810190612e64565b60015b611f285760405162461bcd60e51b815260206004820152602e60248201527f45524331393637557067726164653a206e657720696d706c656d656e7461746960448201527f6f6e206973206e6f74205555505300000000000000000000000000000000000060648201526084016104b3565b7f360894a13ba1a3210667c828492db98dca3e2076cc3735a920a3ca505d382bbc8114611fbd5760405162461bcd60e51b815260206004820152602960248201527f45524331393637557067726164653a20756e737570706f727465642070726f7860448201527f6961626c6555554944000000000000000000000000000000000000000000000060648201526084016104b3565b50611e2c83838361221c565b60335473ffffffffffffffffffffffffffffffffffffffff1633146109cb5760405162461bcd60e51b815260206004820181905260248201527f4f776e61626c653a2063616c6c6572206973206e6f7420746865206f776e657260448201526064016104b3565b6033805473ffffffffffffffffffffffffffffffffffffffff8381167fffffffffffffffffffffffff0000000000000000000000000000000000000000831681179093556040519116919082907f8be0079c531659141344cd1fd0a4f28419497f9722a3daafe3b4186f6b6457e090600090a35050565b600054610100900460ff166121245760405162461bcd60e51b815260206004820152602b60248201527f496e697469616c697a61626c653a20636f6e7472616374206973206e6f74206960448201527f6e697469616c697a696e6700000000000000000000000000000000000000000060648201526084016104b3565b6109cb612247565b73ffffffffffffffffffffffffffffffffffffffff81163b6121b65760405162461bcd60e51b815260206004820152602d60248201527f455243313936373a206e657720696d706c656d656e746174696f6e206973206e60448201527f6f74206120636f6e74726163740000000000000000000000000000000000000060648201526084016104b3565b7f360894a13ba1a3210667c828492db98dca3e2076cc3735a920a3ca505d382bbc80547fffffffffffffffffffffffff00000000000000000000000000000000000000001673ffffffffffffffffffffffffffffffffffffffff92909216919091179055565b612225836122cd565b6000825111806122325750805b15611e2c57612241838361231a565b50505050565b600054610100900460ff166122c45760405162461bcd60e51b815260206004820152602b60248201527f496e697469616c697a61626c653a20636f6e7472616374206973206e6f74206960448201527f6e697469616c697a696e6700000000000000000000000000000000000000000060648201526084016104b3565b6109cb33612030565b6122d68161212c565b60405173ffffffffffffffffffffffffffffffffffffffff8216907fbc7cd75a20ee27fd9adebab32041f755214dbc6bffa90cc0225b39da2e5c2d3b90600090a250565b606061233f8383604051806060016040528060278152602001612fe860279139612346565b9392505050565b60606000808573ffffffffffffffffffffffffffffffffffffffff16856040516123709190612d5c565b600060405180830381855af49150503d80600081146123ab576040519150601f19603f3d011682016040523d82523d6000602084013e6123b0565b606091505b50915091506123c1868383876123cb565b9695505050505050565b606083156124475782516000036124405773ffffffffffffffffffffffffffffffffffffffff85163b6124405760405162461bcd60e51b815260206004820152601d60248201527f416464726573733a2063616c6c20746f206e6f6e2d636f6e747261637400000060448201526064016104b3565b5081612451565b6124518383612459565b949350505050565b8151156124695781518083602001fd5b8060405162461bcd60e51b81526004016104b39190612986565b8280548282559060005260206000209081019282156124d0579160200282015b828111156124d057825180516124c09184916020909101906124e0565b50916020019190600101906124a3565b506124dc929150612532565b5090565b828054828255906000526020600020908101928215612526579160200282015b8281111561252657825182906125169082612ecd565b5091602001919060010190612500565b506124dc92915061254f565b808211156124dc576000612546828261256c565b50600101612532565b808211156124dc576000612563828261258a565b5060010161254f565b50805460008255906000526020600020908101906105df919061254f565b50805461259690612c49565b6000825580601f106125a6575050565b601f0160209004906000526020600020908101906105df91905b808211156124dc57600081556001016125c0565b7f4e487b7100000000000000000000000000000000000000000000000000000000600052604160045260246000fd5b604051601f82017fffffffffffffffffffffffffffffffffffffffffffffffffffffffffffffffe016810167ffffffffffffffff8111828210171561264a5761264a6125d4565b604052919050565b600067ffffffffffffffff83111561266c5761266c6125d4565b61269d60207fffffffffffffffffffffffffffffffffffffffffffffffffffffffffffffffe0601f86011601612603565b90508281528383830111156126b157600080fd5b828260208301376000602084830101529392505050565b600082601f8301126126d957600080fd5b61233f83833560208501612652565b6000602082840312156126fa57600080fd5b813567ffffffffffffffff81111561271157600080fd5b612451848285016126c8565b73ffffffffffffffffffffffffffffffffffffffff811681146105df57600080fd5b803561274a8161271d565b919050565b60006020828403121561276157600080fd5b813561233f8161271d565b6000806040838503121561277f57600080fd5b823561278a8161271d565b9150602083013567ffffffffffffffff8111156127a657600080fd5b6127b2858286016126c8565b9150509250929050565b600080604083850312156127cf57600080fd5b82356127da8161271d565b9150602083013567ffffffffffffffff8111156127f657600080fd5b8301601f8101851361280757600080fd5b6127b285823560208401612652565b60005b83811015612831578181015183820152602001612819565b50506000910152565b60008151808452612852816020860160208601612816565b601f017fffffffffffffffffffffffffffffffffffffffffffffffffffffffffffffffe0169290920160200192915050565b6000828251808552602080860195506005818360051b8501018287016000805b8681101561292f577fffffffffffffffffffffffffffffffffffffffffffffffffffffffffffffffe088850381018c5283518051808752908801908887019080891b88018a01865b8281101561291857858a830301845261290682865161283a565b948c0194938c019391506001016128ec565b509e8a019e975050509387019350506001016128a4565b50919998505050505050505050565b60208152600061233f6020830184612884565b60008060006060848603121561296657600080fd5b83356129718161271d565b95602085013595506040909401359392505050565b60208152600061233f602083018461283a565b600067ffffffffffffffff8211156129b3576129b36125d4565b5060051b60200190565b600082601f8301126129ce57600080fd5b813560206129e36129de83612999565b612603565b82815260059290921b84018101918181019086841115612a0257600080fd5b8286015b84811015612ab557803567ffffffffffffffff80821115612a2657600080fd5b818901915089603f830112612a3a57600080fd5b85820135612a4a6129de82612999565b81815260059190911b830160400190878101908c831115612a6a57600080fd5b604085015b83811015612aa357803585811115612a8657600080fd5b612a958f6040838a01016126c8565b845250918901918901612a6f565b50875250505092840192508301612a06565b509695505050505050565b600080600080600060808688031215612ad857600080fd5b853567ffffffffffffffff80821115612af057600080fd5b818801915088601f830112612b0457600080fd5b813581811115612b1357600080fd5b896020828501011115612b2557600080fd5b60208301975080965050612b3b6020890161273f565b94506040880135915080821115612b5157600080fd5b50612b5e888289016129bd565b95989497509295606001359392505050565b600080600060608486031215612b8557600080fd5b8335612b908161271d565b9250602084013567ffffffffffffffff811115612bac57600080fd5b612bb8868287016126c8565b9250506040840135612bc98161271d565b809150509250925092565b60008060208385031215612be757600080fd5b823567ffffffffffffffff80821115612bff57600080fd5b818501915085601f830112612c1357600080fd5b813581811115612c2257600080fd5b8660208260051b8501011115612c3757600080fd5b60209290920196919550909350505050565b600181811c90821680612c5d57607f821691505b602082108103612c96577f4e487b7100000000000000000000000000000000000000000000000000000000600052602260045260246000fd5b50919050565b8183823760009101908152919050565b7f4e487b7100000000000000000000000000000000000000000000000000000000600052603260045260246000fd5b60007fffffffffffffffffffffffffffffffffffffffffffffffffffffffffffffffff8203612d33577f4e487b7100000000000000000000000000000000000000000000000000000000600052601160045260246000fd5b5060010190565b604081526000612d4d6040830185612884565b90508260208301529392505050565b60008251612d6e818460208701612816565b9190910192915050565b60008083357fffffffffffffffffffffffffffffffffffffffffffffffffffffffffffffffe1843603018112612dad57600080fd5b83018035915067ffffffffffffffff821115612dc857600080fd5b602001915036819003821315612ddd57600080fd5b9250929050565b60008060008060808587031215612dfa57600080fd5b843567ffffffffffffffff80821115612e1257600080fd5b612e1e888389016126c8565b955060208701359150612e308261271d565b90935060408601359080821115612e4657600080fd5b50612e53878288016129bd565b949793965093946060013593505050565b600060208284031215612e7657600080fd5b5051919050565b601f821115611e2c576000816000526020600020601f850160051c81016020861015612ea65750805b601f850160051c820191505b81811015612ec557828155600101612eb2565b505050505050565b815167ffffffffffffffff811115612ee757612ee76125d4565b612efb81612ef58454612c49565b84612e7d565b602080601f831160018114612f4e5760008415612f185750858301515b7fffffffffffffffffffffffffffffffffffffffffffffffffffffffffffffffff600386901b1c1916600185901b178555612ec5565b6000858152602081207fffffffffffffffffffffffffffffffffffffffffffffffffffffffffffffffe08616915b82811015612f9b57888601518255948401946001909101908401612f7c565b5085821015612fd757878501517fffffffffffffffffffffffffffffffffffffffffffffffffffffffffffffffff600388901b60f8161c191681555b5050505050600190811b0190555056fe416464726573733a206c6f772d6c6576656c2064656c65676174652063616c6c206661696c6564a264697066735822122004a40cd99eaec2a3cb92e6744f7b5f6144325033bd3e849d7324ac74dbe041e164736f6c63430008170033","linkReferences":{}},"methodIdentifiers":{"addressOfExtensionName(string)":"93f87842","defaultExtensionOfCommand(string)":"0db79b93","getExtensionForCommand(address,string)":"e086a822","getSubjectTemplatesOfExtension(address)":"6dfbe35e","initialize()":"8129fc1c","maxGasOfExtension(address)":"2f1d7ddc","owner()":"8da5cb5b","proxiableUUID()":"52d1902d","publishExtension(string,address,string[][],uint256)":"bc27aeb3","renounceOwnership()":"715018a6","setDefaultExtensions(bytes[])":"f884630b","setExtensionForCommand(address,string,address)":"f1fbbba1","subjectTemplatesOfExtension(address,uint256,uint256)":"93ec4971","transferOwnership(address)":"f2fde38b","upgradeTo(address)":"3659cfe6","upgradeToAndCall(address,bytes)":"4f1ef286","userExtensionOfCommand(address,string)":"3a03738a"},"storageLayout":{"storage":[{"astId":138,"contract":"src/handlers/ExtensionHandler.sol:ExtensionHandler","label":"_initialized","offset":0,"slot":"0","type":"t_uint8"},{"astId":141,"contract":"src/handlers/ExtensionHandler.sol:ExtensionHandler","label":"_initializing","offset":1,"slot":"0","type":"t_bool"},{"astId":68175,"contract":"src/handlers/ExtensionHandler.sol:ExtensionHandler","label":"__gap","offset":0,"slot":"1","type":"t_array(t_uint256)50_storage"},{"astId":10,"contract":"src/handlers/ExtensionHandler.sol:ExtensionHandler","label":"_owner","offset":0,"slot":"51","type":"t_address"},{"astId":130,"contract":"src/handlers/ExtensionHandler.sol:ExtensionHandler","label":"__gap","offset":0,"slot":"52","type":"t_array(t_uint256)49_storage"},{"astId":61365,"contract":"src/handlers/ExtensionHandler.sol:ExtensionHandler","label":"_defaultExtensionsSet","offset":0,"slot":"101","type":"t_bool"},{"astId":61367,"contract":"src/handlers/ExtensionHandler.sol:ExtensionHandler","label":"deployer","offset":1,"slot":"101","type":"t_address"},{"astId":61371,"contract":"src/handlers/ExtensionHandler.sol:ExtensionHandler","label":"addressOfExtensionName","offset":0,"slot":"102","type":"t_mapping(t_string_memory_ptr,t_address)"},{"astId":61375,"contract":"src/handlers/ExtensionHandler.sol:ExtensionHandler","label":"defaultExtensionOfCommand","offset":0,"slot":"103","type":"t_mapping(t_string_memory_ptr,t_address)"},{"astId":61381,"contract":"src/handlers/ExtensionHandler.sol:ExtensionHandler","label":"subjectTemplatesOfExtension","offset":0,"slot":"104","type":"t_mapping(t_address,t_array(t_array(t_string_storage)dyn_storage)dyn_storage)"},{"astId":61385,"contract":"src/handlers/ExtensionHandler.sol:ExtensionHandler","label":"maxGasOfExtension","offset":0,"slot":"105","type":"t_mapping(t_address,t_uint256)"},{"astId":61391,"contract":"src/handlers/ExtensionHandler.sol:ExtensionHandler","label":"userExtensionOfCommand","offset":0,"slot":"106","type":"t_mapping(t_address,t_mapping(t_string_memory_ptr,t_address))"}],"types":{"t_address":{"encoding":"inplace","label":"address","numberOfBytes":"20"},"t_array(t_array(t_string_storage)dyn_storage)dyn_storage":{"encoding":"dynamic_array","label":"string[][]","numberOfBytes":"32","base":"t_array(t_string_storage)dyn_storage"},"t_array(t_string_storage)dyn_storage":{"encoding":"dynamic_array","label":"string[]","numberOfBytes":"32","base":"t_string_storage"},"t_array(t_uint256)49_storage":{"encoding":"inplace","label":"uint256[49]","numberOfBytes":"1568","base":"t_uint256"},"t_array(t_uint256)50_storage":{"encoding":"inplace","label":"uint256[50]","numberOfBytes":"1600","base":"t_uint256"},"t_bool":{"encoding":"inplace","label":"bool","numberOfBytes":"1"},"t_mapping(t_address,t_array(t_array(t_string_storage)dyn_storage)dyn_storage)":{"encoding":"mapping","key":"t_address","label":"mapping(address => string[][])","numberOfBytes":"32","value":"t_array(t_array(t_string_storage)dyn_storage)dyn_storage"},"t_mapping(t_address,t_mapping(t_string_memory_ptr,t_address))":{"encoding":"mapping","key":"t_address","label":"mapping(address => mapping(string => address))","numberOfBytes":"32","value":"t_mapping(t_string_memory_ptr,t_address)"},"t_mapping(t_address,t_uint256)":{"encoding":"mapping","key":"t_address","label":"mapping(address => uint256)","numberOfBytes":"32","value":"t_uint256"},"t_mapping(t_string_memory_ptr,t_address)":{"encoding":"mapping","key":"t_string_memory_ptr","label":"mapping(string => address)","numberOfBytes":"32","value":"t_address"},"t_string_memory_ptr":{"encoding":"bytes","label":"string","numberOfBytes":"32"},"t_string_storage":{"encoding":"bytes","label":"string","numberOfBytes":"32"},"t_uint256":{"encoding":"inplace","label":"uint256","numberOfBytes":"32"},"t_uint8":{"encoding":"inplace","label":"uint8","numberOfBytes":"1"}}},"id":124}