{
  "abi": [
    {
      "anonymous": false,
      "inputs": [
        {
          "indexed": true,
          "internalType": "address",
          "name": "previousOwner",
          "type": "address"
        },
        {
          "indexed": true,
          "internalType": "address",
          "name": "newOwner",
          "type": "address"
        }
      ],
      "name": "OwnershipTransferred",
      "type": "event"
    },
    {
      "inputs": [
        {
          "internalType": "string",
          "name": "",
          "type": "string"
        }
      ],
      "name": "addressOfExtensionName",
      "outputs": [
        {
          "internalType": "address",
          "name": "",
          "type": "address"
        }
      ],
      "stateMutability": "view",
      "type": "function"
    },
    {
      "inputs": [
        {
          "internalType": "string",
          "name": "",
          "type": "string"
        }
      ],
      "name": "defaultExtensionOfCommand",
      "outputs": [
        {
          "internalType": "address",
          "name": "",
          "type": "address"
        }
      ],
      "stateMutability": "view",
      "type": "function"
    },
    {
      "inputs": [
        {
          "internalType": "address",
          "name": "walletAddr",
          "type": "address"
        },
        {
          "internalType": "string",
          "name": "command",
          "type": "string"
        }
      ],
      "name": "getExtensionForCommand",
      "outputs": [
        {
          "internalType": "address",
          "name": "",
          "type": "address"
        }
      ],
      "stateMutability": "view",
      "type": "function"
    },
    {
      "inputs": [
        {
          "internalType": "address",
          "name": "extensionAddr",
          "type": "address"
        }
      ],
      "name": "getSubjectTemplatesOfExtension",
      "outputs": [
        {
          "internalType": "string[][]",
          "name": "",
          "type": "string[][]"
        }
      ],
      "stateMutability": "view",
      "type": "function"
    },
    {
      "inputs": [
        {
          "internalType": "address",
          "name": "",
          "type": "address"
        }
      ],
      "name": "maxGasOfExtension",
      "outputs": [
        {
          "internalType": "uint256",
          "name": "",
          "type": "uint256"
        }
      ],
      "stateMutability": "view",
      "type": "function"
    },
    {
      "inputs": [],
      "name": "owner",
      "outputs": [
        {
          "internalType": "address",
          "name": "",
          "type": "address"
        }
      ],
      "stateMutability": "view",
      "type": "function"
    },
    {
      "inputs": [
        {
          "internalType": "string",
          "name": "name",
          "type": "string"
        },
        {
          "internalType": "address",
          "name": "addr",
          "type": "address"
        },
        {
          "internalType": "string[][]",
          "name": "subjectTemplates",
          "type": "string[][]"
        },
        {
          "internalType": "uint256",
          "name": "maxExecutionGas",
          "type": "uint256"
        }
      ],
      "name": "publishExtension",
      "outputs": [],
      "stateMutability": "nonpayable",
      "type": "function"
    },
    {
      "inputs": [],
      "name": "renounceOwnership",
      "outputs": [],
      "stateMutability": "nonpayable",
      "type": "function"
    },
    {
      "inputs": [
        {
          "internalType": "bytes[]",
          "name": "defaultExtensions",
          "type": "bytes[]"
        }
      ],
      "name": "setDefaultExtensions",
      "outputs": [],
      "stateMutability": "nonpayable",
      "type": "function"
    },
    {
      "inputs": [
        {
          "internalType": "address",
          "name": "walletAddr",
          "type": "address"
        },
        {
          "internalType": "string",
          "name": "command",
          "type": "string"
        },
        {
          "internalType": "address",
          "name": "extensionAddr",
          "type": "address"
        }
      ],
      "name": "setExtensionForCommand",
      "outputs": [],
      "stateMutability": "nonpayable",
      "type": "function"
    },
    {
      "inputs": [
        {
          "internalType": "address",
          "name": "",
          "type": "address"
        },
        {
          "internalType": "uint256",
          "name": "",
          "type": "uint256"
        },
        {
          "internalType": "uint256",
          "name": "",
          "type": "uint256"
        }
      ],
      "name": "subjectTemplatesOfExtension",
      "outputs": [
        {
          "internalType": "string",
          "name": "",
          "type": "string"
        }
      ],
      "stateMutability": "view",
      "type": "function"
    },
    {
      "inputs": [
        {
          "internalType": "address",
          "name": "newOwner",
          "type": "address"
        }
      ],
      "name": "transferOwnership",
      "outputs": [],
      "stateMutability": "nonpayable",
      "type": "function"
    },
    {
      "inputs": [
        {
          "internalType": "address",
          "name": "",
          "type": "address"
        },
        {
          "internalType": "string",
          "name": "",
          "type": "string"
        }
      ],
      "name": "userExtensionOfCommand",
      "outputs": [
        {
          "internalType": "address",
          "name": "",
          "type": "address"
        }
      ],
      "stateMutability": "view",
      "type": "function"
    }
  ],
  "bytecode": {
    "object": "0x608060405234801561001057600080fd5b5061001a3361001f565b61006f565b600080546001600160a01b038381166001600160a01b0319831681178455604051919092169283917f8be0079c531659141344cd1fd0a4f28419497f9722a3daafe3b4186f6b6457e09190a35050565b611bc88061007e6000396000f3fe608060405234801561001057600080fd5b50600436106100af5760003560e01c80630db79b93146100b45780632f1d7ddc146101055780633a03738a146101335780636dfbe35e14610178578063715018a6146101985780638da5cb5b146101a257806393ec4971146101aa57806393f87842146101ca578063bc27aeb3146101fe578063e086a82214610211578063f1fbbba114610224578063f2fde38b14610237578063f884630b1461024a575b600080fd5b6100e86100c236600461142e565b80516020818301810180516002825292820191909301209152546001600160a01b031681565b6040516001600160a01b0390911681526020015b60405180910390f35b61012561011336600461148f565b60046020526000908152604090205481565b6040519081526020016100fc565b6100e86101413660046114b3565b600560209081526000928352604090922081518083018401805192815290840192909301919091209152546001600160a01b031681565b61018b61018636600461148f565b61025d565b6040516100fc91906115ed565b6101a0610393565b005b6100e86103a7565b6101bd6101b8366004611600565b6103b6565b6040516100fc9190611635565b6100e86101d836600461142e565b80516020818301810180516001825292820191909301209152546001600160a01b031681565b6101a061020c36600461176d565b610488565b6100e861021f3660046114b3565b610e35565b6101a061023236600461181c565b610ebc565b6101a061024536600461148f565b610f22565b6101a061025836600461187f565b610f9b565b6001600160a01b0381166000908152600360209081526040808320805482518185028101850190935280835260609492939192909184015b8282101561038857838290600052602060002001805480602002602001604051908101604052809291908181526020016000905b828210156103755783829060005260206000200180546102e8906118f3565b80601f0160208091040260200160405190810160405280929190818152602001828054610314906118f3565b80156103615780601f1061033657610100808354040283529160200191610361565b820191906000526020600020905b81548152906001019060200180831161034457829003601f168201915b5050505050815260200190600101906102c9565b5050505081526020019060010190610295565b505050509050919050565b61039b611163565b6103a560006111c2565b565b6000546001600160a01b031690565b600360205282600052604060002082815481106103d257600080fd5b9060005260206000200181815481106103ea57600080fd5b9060005260206000200160009250925050508054610407906118f3565b80601f0160208091040260200160405190810160405280929190818152602001828054610433906118f3565b80156104805780601f1061045557610100808354040283529160200191610480565b820191906000526020600020905b81548152906001019060200180831161046357829003601f168201915b505050505081565b63656921ff42106104f55760405162461bcd60e51b815260206004820152602c60248201527f746869732066756e6374696f6e206973206e6f7420616c6c6f7765642066726f60448201526b6d20323032332d31322d303160a01b60648201526084015b60405180910390fd5b60006001600160a01b03166001868660405161051292919061192d565b908152604051908190036020019020546001600160a01b0316146105765760405162461bcd60e51b815260206004820152601b60248201527a195e1d195b9cda5bdb881b985b5948185b1c9958591e481d5cd959602a1b60448201526064016104ec565b6001600160a01b0383166105c85760405162461bcd60e51b8152602060048201526019602482015278696e76616c696420657874656e73696f6e206164647265737360381b60448201526064016104ec565b8361060e5760405162461bcd60e51b8152602060048201526016602482015275696e76616c696420657874656e73696f6e206e616d6560501b60448201526064016104ec565b6000811161066f5760405162461bcd60e51b815260206004820152602860248201527f6d6178457865637574696f6e476173206d757374206265206c6172676572207460448201526768616e207a65726f60c01b60648201526084016104ec565b60008251116106cf5760405162461bcd60e51b815260206004820152602660248201527f7375626a65637454656d706c617465732061727261792063616e6e6f7420626560448201526520656d70747960d01b60648201526084016104ec565b6001600160a01b038316600090815260046020526040902054156107335760405162461bcd60e51b815260206004820152601b60248201527a195e1d195b9cda5bdb88185b1c9958591e481c1d589b1a5cda1959602a1b60448201526064016104ec565b606060005b83518110156109a85760008482815181106107555761075561193d565b602002602001015151116107ab5760405162461bcd60e51b815260206004820152601f60248201527f7375626a65637454656d706c6174652063616e6e6f7420626520656d7074790060448201526064016104ec565b806000036107ee578381815181106107c5576107c561193d565b60200260200101516000815181106107df576107df61193d565b60200260200101519150610887565b61082b828583815181106108045761080461193d565b602002602001015160008151811061081e5761081e61193d565b6020026020010151611212565b6108875760405162461bcd60e51b815260206004820152602760248201527f7375626a65637454656d706c61746573206d75737420686176652073616d652060448201526618dbdb5b585b9960ca1b60648201526084016104ec565b600060015b85838151811061089e5761089e61193d565b6020026020010151518110156109325761090d8684815181106108c3576108c361193d565b602002602001015182815181106108dc576108dc61193d565b60200260200101516040518060400160405280600b81526020016a7b726563697069656e747d60a81b815250611212565b15610920578161091c81611953565b9250505b8061092a81611953565b91505061088c565b5060018111156109955760405162461bcd60e51b815260206004820152602860248201527f726563697069656e742074656d706c6174652063616e206f6e6c792062652075604482015267736564206f6e636560c01b60648201526084016104ec565b50806109a081611953565b915050610738565b5060005b8151811015610a37578181815181106109c7576109c761193d565b01602001516001600160f81b031916600160fd1b03610a255760405162461bcd60e51b815260206004820152601a60248201527918dbdb5b585b99081cda1bdd5b19081899481bdb99481ddbdc9960321b60448201526064016104ec565b80610a2f81611953565b9150506109ac565b50610a5e816040518060400160405280600481526020016314d95b9960e21b815250611212565b158015610a915750610a8f81604051806040016040528060078152602001664578656375746560c81b815250611212565b155b8015610ac35750610ac18160405180604001604052806007815260200166125b9cdd185b1b60ca1b815250611212565b155b8015610af75750610af58160405180604001604052806009815260200168155b9a5b9cdd185b1b60ba1b815250611212565b155b8015610b265750610b248160405180604001604052806004815260200163115e1a5d60e21b815250611212565b155b8015610b555750610b538160405180604001604052806004815260200163444b494d60e01b815250611212565b155b610bab5760405162461bcd60e51b815260206004820152602160248201527f636f6d6d616e642063616e6e6f742062652061207265736572766564206e616d6044820152606560f81b60648201526084016104ec565b610bda816040518060400160405280600d81526020016c7b746f6b656e416d6f756e747d60981b815250611212565b158015610c0e5750610c0c81604051806040016040528060088152602001677b616d6f756e747d60c01b815250611212565b155b8015610c415750610c3f81604051806040016040528060088152602001677b737472696e677d60c01b815250611212565b155b8015610c725750610c7081604051806040016040528060068152602001657b75696e747d60d01b815250611212565b155b8015610ca25750610ca081604051806040016040528060058152602001647b696e747d60d81b815250611212565b155b8015610cd65750610cd481604051806040016040528060098152602001687b616464726573737d60b81b815250611212565b155b8015610d0c5750610d0a816040518060400160405280600b81526020016a7b726563697069656e747d60a81b815250611212565b155b610d645760405162461bcd60e51b8152602060048201526024808201527f636f6d6d616e642063616e6e6f7420626520612074656d706c617465206d617460448201526331b432b960e11b60648201526084016104ec565b8360018787604051610d7792919061192d565b908152604080516020928190038301902080546001600160a01b0319166001600160a01b03948516179055918616600090815260038252919091208451610dc092860190611228565b506001600160a01b0384166000818152600460205260409081902084905551610dec908890889061192d565b60405180910390207fef0e971f43d9347ead7cb66791fdcce2d7a5171ee1f652fec727823d1e2d4ee88585604051610e2592919061197a565b60405180910390a3505050505050565b6001600160a01b038216600090815260056020526040808220905182918291610e5f90869061199c565b908152604051908190036020019020546001600160a01b031690508015610e8857809150610eb4565b600284604051610e98919061199c565b908152604051908190036020019020546001600160a01b031691505b509392505050565b610ec4611163565b6001600160a01b038316600090815260056020526040908190209051829190610eee90859061199c565b90815260405190819003602001902080546001600160a01b03929092166001600160a01b0319909216919091179055505050565b610f2a611163565b6001600160a01b038116610f8f5760405162461bcd60e51b815260206004820152602660248201527f4f776e61626c653a206e6577206f776e657220697320746865207a65726f206160448201526564647265737360d01b60648201526084016104ec565b610f98816111c2565b50565b610fa3611163565b600054600160a01b900460ff1615610ffd5760405162461bcd60e51b815260206004820152601e60248201527f64656661756c7420657874656e73696f6e7320616c726561647920736574000060448201526064016104ec565b60005b8181101561114b576000806000808686868181106110205761102061193d565b905060200281019061103291906119b8565b81019061103f9190611a05565b935093509350935082600185604051611058919061199c565b908152604080516020928190038301902080546001600160a01b0319166001600160a01b039485161790559185166000908152600382529190912083516110a192850190611228565b506001600160a01b0383166000908152600460205260408120829055825184916002918591906110d3576110d361193d565b60200260200101516000815181106110ed576110ed61193d565b6020026020010151604051611102919061199c565b908152602001604051809103902060006101000a8154816001600160a01b0302191690836001600160a01b0316021790555050505050808061114390611953565b915050611000565b50506000805460ff60a01b1916600160a01b17905550565b3361116c6103a7565b6001600160a01b0316146103a55760405162461bcd60e51b815260206004820181905260248201527f4f776e61626c653a2063616c6c6572206973206e6f7420746865206f776e657260448201526064016104ec565b600080546001600160a01b038381166001600160a01b0319831681178455604051919092169283917f8be0079c531659141344cd1fd0a4f28419497f9722a3daafe3b4186f6b6457e09190a35050565b8051602091820120825192909101919091201490565b828054828255906000526020600020908101928215611275579160200282015b828111156112755782518051611265918491602090910190611285565b5091602001919060010190611248565b506112819291506112d7565b5090565b8280548282559060005260206000209081019282156112cb579160200282015b828111156112cb57825182906112bb9082611ad3565b50916020019190600101906112a5565b506112819291506112f4565b808211156112815760006112eb8282611311565b506001016112d7565b80821115611281576000611308828261132f565b506001016112f4565b5080546000825590600052602060002090810190610f9891906112f4565b50805461133b906118f3565b6000825580601f1061134b575050565b601f016020900490600052602060002090810190610f9891905b808211156112815760008155600101611365565b634e487b7160e01b600052604160045260246000fd5b604051601f8201601f191681016001600160401b03811182821017156113b7576113b7611379565b604052919050565b600082601f8301126113d057600080fd5b81356001600160401b038111156113e9576113e9611379565b6113fc601f8201601f191660200161138f565b81815284602083860101111561141157600080fd5b816020850160208301376000918101602001919091529392505050565b60006020828403121561144057600080fd5b81356001600160401b0381111561145657600080fd5b611462848285016113bf565b949350505050565b6001600160a01b0381168114610f9857600080fd5b803561148a8161146a565b919050565b6000602082840312156114a157600080fd5b81356114ac8161146a565b9392505050565b600080604083850312156114c657600080fd5b82356114d18161146a565b915060208301356001600160401b038111156114ec57600080fd5b6114f8858286016113bf565b9150509250929050565b60005b8381101561151d578181015183820152602001611505565b50506000910152565b6000815180845261153e816020860160208601611502565b601f01601f19169290920160200192915050565b60008282518085526020808601955060058183821b8501018287016000805b868110156115de57601f1988850381018c5283518051808752908801908887019080891b88018a01865b828110156115c757858a83030184526115b5828651611526565b948c0194938c0193915060010161159b565b509e8a019e97505050938701935050600101611571565b50919998505050505050505050565b6020815260006114ac6020830184611552565b60008060006060848603121561161557600080fd5b83356116208161146a565b95602085013595506040909401359392505050565b6020815260006114ac6020830184611526565b60006001600160401b0382111561166157611661611379565b5060051b60200190565b600082601f83011261167c57600080fd5b8135602061169161168c83611648565b61138f565b82815260059290921b840181019181810190868411156116b057600080fd5b8286015b848110156117625780356001600160401b03808211156116d357600080fd5b818901915089603f8301126116e757600080fd5b858201356116f761168c82611648565b81815260059190911b830160400190878101908c83111561171757600080fd5b604085015b838110156117505780358581111561173357600080fd5b6117428f6040838a01016113bf565b84525091890191890161171c565b508752505050928401925083016116b4565b509695505050505050565b60008060008060006080868803121561178557600080fd5b85356001600160401b038082111561179c57600080fd5b818801915088601f8301126117b057600080fd5b8135818111156117bf57600080fd5b8960208285010111156117d157600080fd5b602083019750809650506117e76020890161147f565b945060408801359150808211156117fd57600080fd5b5061180a8882890161166b565b95989497509295606001359392505050565b60008060006060848603121561183157600080fd5b833561183c8161146a565b925060208401356001600160401b0381111561185757600080fd5b611863868287016113bf565b92505060408401356118748161146a565b809150509250925092565b6000806020838503121561189257600080fd5b82356001600160401b03808211156118a957600080fd5b818501915085601f8301126118bd57600080fd5b8135818111156118cc57600080fd5b8660208260051b85010111156118e157600080fd5b60209290920196919550909350505050565b600181811c9082168061190757607f821691505b60208210810361192757634e487b7160e01b600052602260045260246000fd5b50919050565b8183823760009101908152919050565b634e487b7160e01b600052603260045260246000fd5b60006001820161197357634e487b7160e01b600052601160045260246000fd5b5060010190565b60408152600061198d6040830185611552565b90508260208301529392505050565b600082516119ae818460208701611502565b9190910192915050565b6000808335601e198436030181126119cf57600080fd5b8301803591506001600160401b038211156119e957600080fd5b6020019150368190038213156119fe57600080fd5b9250929050565b60008060008060808587031215611a1b57600080fd5b84356001600160401b0380821115611a3257600080fd5b611a3e888389016113bf565b955060208701359150611a508261146a565b90935060408601359080821115611a6657600080fd5b50611a738782880161166b565b949793965093946060013593505050565b601f821115611ace57600081815260208120601f850160051c81016020861015611aab5750805b601f850160051c820191505b81811015611aca57828155600101611ab7565b5050505b505050565b81516001600160401b03811115611aec57611aec611379565b611b0081611afa84546118f3565b84611a84565b602080601f831160018114611b355760008415611b1d5750858301515b600019600386901b1c1916600185901b178555611aca565b600085815260208120601f198616915b82811015611b6457888601518255948401946001909101908401611b45565b5085821015611b825787850151600019600388901b60f8161c191681555b5050505050600190811b0190555056fea26469706673582212205ae10f0a5bcf3d12dda25d186777d7216375abda0837d73bc341b5d19f52d35564736f6c63430008110033",
    "linkReferences": {}
  },
  "methodIdentifiers": {
    "addressOfExtensionName(string)": "93f87842",
    "defaultExtensionOfCommand(string)": "0db79b93",
    "getExtensionForCommand(address,string)": "e086a822",
    "getSubjectTemplatesOfExtension(address)": "6dfbe35e",
    "maxGasOfExtension(address)": "2f1d7ddc",
    "owner()": "8da5cb5b",
    "publishExtension(string,address,string[][],uint256)": "bc27aeb3",
    "renounceOwnership()": "715018a6",
    "setDefaultExtensions(bytes[])": "f884630b",
    "setExtensionForCommand(address,string,address)": "f1fbbba1",
    "subjectTemplatesOfExtension(address,uint256,uint256)": "93ec4971",
    "transferOwnership(address)": "f2fde38b",
    "userExtensionOfCommand(address,string)": "3a03738a"
  },
  "id": 128
}