{
  "abi": [
    {
      "anonymous": false,
      "inputs": [
        {
          "indexed": true,
          "internalType": "string",
          "name": "name",
          "type": "string"
        },
        {
          "indexed": true,
          "internalType": "address",
          "name": "extensionAddr",
          "type": "address"
        },
        {
          "indexed": false,
          "internalType": "string[][]",
          "name": "subjectTemplates",
          "type": "string[][]"
        },
        {
          "indexed": false,
          "internalType": "uint256",
          "name": "maxExecutionGas",
          "type": "uint256"
        }
      ],
      "name": "ExtensionPublished",
      "type": "event"
    },
    {
      "anonymous": false,
      "inputs": [
        {
          "indexed": true,
          "internalType": "address",
          "name": "previousOwner",
          "type": "address"
        },
        {
          "indexed": true,
          "internalType": "address",
          "name": "newOwner",
          "type": "address"
        }
      ],
      "name": "OwnershipTransferred",
      "type": "event"
    },
    {
      "inputs": [
        {
          "internalType": "string",
          "name": "",
          "type": "string"
        }
      ],
      "name": "addressOfExtensionName",
      "outputs": [
        {
          "internalType": "address",
          "name": "",
          "type": "address"
        }
      ],
      "stateMutability": "view",
      "type": "function"
    },
    {
      "inputs": [
        {
          "internalType": "string",
          "name": "",
          "type": "string"
        }
      ],
      "name": "defaultExtensionOfCommand",
      "outputs": [
        {
          "internalType": "address",
          "name": "",
          "type": "address"
        }
      ],
      "stateMutability": "view",
      "type": "function"
    },
    {
      "inputs": [
        {
          "internalType": "address",
          "name": "walletAddr",
          "type": "address"
        },
        {
          "internalType": "string",
          "name": "command",
          "type": "string"
        }
      ],
      "name": "getExtensionForCommand",
      "outputs": [
        {
          "internalType": "address",
          "name": "",
          "type": "address"
        }
      ],
      "stateMutability": "view",
      "type": "function"
    },
    {
      "inputs": [
        {
          "internalType": "address",
          "name": "extensionAddr",
          "type": "address"
        }
      ],
      "name": "getSubjectTemplatesOfExtension",
      "outputs": [
        {
          "internalType": "string[][]",
          "name": "",
          "type": "string[][]"
        }
      ],
      "stateMutability": "view",
      "type": "function"
    },
    {
      "inputs": [
        {
          "internalType": "address",
          "name": "",
          "type": "address"
        }
      ],
      "name": "maxGasOfExtension",
      "outputs": [
        {
          "internalType": "uint256",
          "name": "",
          "type": "uint256"
        }
      ],
      "stateMutability": "view",
      "type": "function"
    },
    {
      "inputs": [],
      "name": "owner",
      "outputs": [
        {
          "internalType": "address",
          "name": "",
          "type": "address"
        }
      ],
      "stateMutability": "view",
      "type": "function"
    },
    {
      "inputs": [
        {
          "internalType": "string",
          "name": "name",
          "type": "string"
        },
        {
          "internalType": "address",
          "name": "addr",
          "type": "address"
        },
        {
          "internalType": "string[][]",
          "name": "subjectTemplates",
          "type": "string[][]"
        },
        {
          "internalType": "uint256",
          "name": "maxExecutionGas",
          "type": "uint256"
        }
      ],
      "name": "publishExtension",
      "outputs": [],
      "stateMutability": "nonpayable",
      "type": "function"
    },
    {
      "inputs": [],
      "name": "renounceOwnership",
      "outputs": [],
      "stateMutability": "nonpayable",
      "type": "function"
    },
    {
      "inputs": [
        {
          "internalType": "bytes[]",
          "name": "defaultExtensions",
          "type": "bytes[]"
        }
      ],
      "name": "setDefaultExtensions",
      "outputs": [],
      "stateMutability": "nonpayable",
      "type": "function"
    },
    {
      "inputs": [
        {
          "internalType": "address",
          "name": "walletAddr",
          "type": "address"
        },
        {
          "internalType": "string",
          "name": "command",
          "type": "string"
        },
        {
          "internalType": "address",
          "name": "extensionAddr",
          "type": "address"
        }
      ],
      "name": "setExtensionForCommand",
      "outputs": [],
      "stateMutability": "nonpayable",
      "type": "function"
    },
    {
      "inputs": [
        {
          "internalType": "address",
          "name": "",
          "type": "address"
        },
        {
          "internalType": "uint256",
          "name": "",
          "type": "uint256"
        },
        {
          "internalType": "uint256",
          "name": "",
          "type": "uint256"
        }
      ],
      "name": "subjectTemplatesOfExtension",
      "outputs": [
        {
          "internalType": "string",
          "name": "",
          "type": "string"
        }
      ],
      "stateMutability": "view",
      "type": "function"
    },
    {
      "inputs": [
        {
          "internalType": "address",
          "name": "newOwner",
          "type": "address"
        }
      ],
      "name": "transferOwnership",
      "outputs": [],
      "stateMutability": "nonpayable",
      "type": "function"
    },
    {
      "inputs": [
        {
          "internalType": "address",
          "name": "",
          "type": "address"
        },
        {
          "internalType": "string",
          "name": "",
          "type": "string"
        }
      ],
      "name": "userExtensionOfCommand",
      "outputs": [
        {
          "internalType": "address",
          "name": "",
          "type": "address"
        }
      ],
      "stateMutability": "view",
      "type": "function"
    }
  ],
  "bytecode": {
    "object": "0x608060405234801561001057600080fd5b5061001a3361001f565b61006f565b600080546001600160a01b038381166001600160a01b0319831681178455604051919092169283917f8be0079c531659141344cd1fd0a4f28419497f9722a3daafe3b4186f6b6457e09190a35050565b611ba38061007e6000396000f3fe608060405234801561001057600080fd5b50600436106100af5760003560e01c80630db79b93146100b45780632f1d7ddc146101055780633a03738a146101335780636dfbe35e14610178578063715018a6146101985780638da5cb5b146101a257806393ec4971146101aa57806393f87842146101ca578063bc27aeb3146101fe578063e086a82214610211578063f1fbbba114610224578063f2fde38b14610237578063f884630b1461024a575b600080fd5b6100e86100c2366004611406565b80516020818301810180516002825292820191909301209152546001600160a01b031681565b6040516001600160a01b0390911681526020015b60405180910390f35b610125610113366004611467565b60046020526000908152604090205481565b6040519081526020016100fc565b6100e861014136600461148b565b600560209081526000928352604090922081518083018401805192815290840192909301919091209152546001600160a01b031681565b61018b610186366004611467565b61025d565b6040516100fc91906115c6565b6101a0610393565b005b6100e86103a7565b6101bd6101b83660046115d9565b6103b6565b6040516100fc919061160e565b6100e86101d8366004611406565b80516020818301810180516001825292820191909301209152546001600160a01b031681565b6101a061020c366004611746565b610488565b6100e861021f36600461148b565b610e17565b6101a06102323660046117f5565b610e9e565b6101a0610245366004611467565b610f04565b6101a0610258366004611858565b610f7d565b6001600160a01b0381166000908152600360209081526040808320805482518185028101850190935280835260609492939192909184015b8282101561038857838290600052602060002001805480602002602001604051908101604052809291908181526020016000905b828210156103755783829060005260206000200180546102e8906118cc565b80601f0160208091040260200160405190810160405280929190818152602001828054610314906118cc565b80156103615780601f1061033657610100808354040283529160200191610361565b820191906000526020600020905b81548152906001019060200180831161034457829003601f168201915b5050505050815260200190600101906102c9565b5050505081526020019060010190610295565b505050509050919050565b61039b61113b565b6103a5600061119a565b565b6000546001600160a01b031690565b600360205282600052604060002082815481106103d257600080fd5b9060005260206000200181815481106103ea57600080fd5b9060005260206000200160009250925050508054610407906118cc565b80601f0160208091040260200160405190810160405280929190818152602001828054610433906118cc565b80156104805780601f1061045557610100808354040283529160200191610480565b820191906000526020600020905b81548152906001019060200180831161046357829003601f168201915b505050505081565b63656921ff42106104f55760405162461bcd60e51b815260206004820152602c60248201527f746869732066756e6374696f6e206973206e6f7420616c6c6f7765642066726f60448201526b6d20323032332d31322d303160a01b60648201526084015b60405180910390fd5b60006001600160a01b031660018686604051610512929190611906565b908152604051908190036020019020546001600160a01b0316146105765760405162461bcd60e51b815260206004820152601b60248201527a195e1d195b9cda5bdb881b985b5948185b1c9958591e481d5cd959602a1b60448201526064016104ec565b6001600160a01b0383166105c85760405162461bcd60e51b8152602060048201526019602482015278696e76616c696420657874656e73696f6e206164647265737360381b60448201526064016104ec565b8361060e5760405162461bcd60e51b8152602060048201526016602482015275696e76616c696420657874656e73696f6e206e616d6560501b60448201526064016104ec565b6000811161066f5760405162461bcd60e51b815260206004820152602860248201527f6d6178457865637574696f6e476173206d757374206265206c6172676572207460448201526768616e207a65726f60c01b60648201526084016104ec565b60008251116106cf5760405162461bcd60e51b815260206004820152602660248201527f7375626a65637454656d706c617465732061727261792063616e6e6f7420626560448201526520656d70747960d01b60648201526084016104ec565b6001600160a01b038316600090815260046020526040902054156107335760405162461bcd60e51b815260206004820152601b60248201527a195e1d195b9cda5bdb88185b1c9958591e481c1d589b1a5cda1959602a1b60448201526064016104ec565b606060005b835181101561099457600084828151811061075557610755611916565b602002602001015151116107ab5760405162461bcd60e51b815260206004820152601f60248201527f7375626a65637454656d706c6174652063616e6e6f7420626520656d7074790060448201526064016104ec565b806000036107ee578381815181106107c5576107c5611916565b60200260200101516000815181106107df576107df611916565b60200260200101519150610887565b61082b8285838151811061080457610804611916565b602002602001015160008151811061081e5761081e611916565b60200260200101516111ea565b6108875760405162461bcd60e51b815260206004820152602760248201527f7375626a65637454656d706c61746573206d75737420686176652073616d652060448201526618dbdb5b585b9960ca1b60648201526084016104ec565b600060015b85838151811061089e5761089e611916565b6020026020010151518110156109285761090d8684815181106108c3576108c3611916565b602002602001015182815181106108dc576108dc611916565b60200260200101516040518060400160405280600b81526020016a7b726563697069656e747d60a81b8152506111ea565b15610920578161091c8161192c565b9250505b60010161088c565b50600181111561098b5760405162461bcd60e51b815260206004820152602860248201527f726563697069656e742074656d706c6174652063616e206f6e6c792062652075604482015267736564206f6e636560c01b60648201526084016104ec565b50600101610738565b5060005b8151811015610a19578181815181106109b3576109b3611916565b01602001516001600160f81b031916600160fd1b03610a115760405162461bcd60e51b815260206004820152601a60248201527918dbdb5b585b99081cda1bdd5b19081899481bdb99481ddbdc9960321b60448201526064016104ec565b600101610998565b50610a40816040518060400160405280600481526020016314d95b9960e21b8152506111ea565b158015610a735750610a7181604051806040016040528060078152602001664578656375746560c81b8152506111ea565b155b8015610aa55750610aa38160405180604001604052806007815260200166125b9cdd185b1b60ca1b8152506111ea565b155b8015610ad95750610ad78160405180604001604052806009815260200168155b9a5b9cdd185b1b60ba1b8152506111ea565b155b8015610b085750610b068160405180604001604052806004815260200163115e1a5d60e21b8152506111ea565b155b8015610b375750610b358160405180604001604052806004815260200163444b494d60e01b8152506111ea565b155b610b8d5760405162461bcd60e51b815260206004820152602160248201527f636f6d6d616e642063616e6e6f742062652061207265736572766564206e616d6044820152606560f81b60648201526084016104ec565b610bbc816040518060400160405280600d81526020016c7b746f6b656e416d6f756e747d60981b8152506111ea565b158015610bf05750610bee81604051806040016040528060088152602001677b616d6f756e747d60c01b8152506111ea565b155b8015610c235750610c2181604051806040016040528060088152602001677b737472696e677d60c01b8152506111ea565b155b8015610c545750610c5281604051806040016040528060068152602001657b75696e747d60d01b8152506111ea565b155b8015610c845750610c8281604051806040016040528060058152602001647b696e747d60d81b8152506111ea565b155b8015610cb85750610cb681604051806040016040528060098152602001687b616464726573737d60b81b8152506111ea565b155b8015610cee5750610cec816040518060400160405280600b81526020016a7b726563697069656e747d60a81b8152506111ea565b155b610d465760405162461bcd60e51b8152602060048201526024808201527f636f6d6d616e642063616e6e6f7420626520612074656d706c617465206d617460448201526331b432b960e11b60648201526084016104ec565b8360018787604051610d59929190611906565b908152604080516020928190038301902080546001600160a01b0319166001600160a01b03948516179055918616600090815260038252919091208451610da292860190611200565b506001600160a01b0384166000818152600460205260409081902084905551610dce9088908890611906565b60405180910390207fef0e971f43d9347ead7cb66791fdcce2d7a5171ee1f652fec727823d1e2d4ee88585604051610e07929190611953565b60405180910390a3505050505050565b6001600160a01b038216600090815260056020526040808220905182918291610e41908690611975565b908152604051908190036020019020546001600160a01b031690508015610e6a57809150610e96565b600284604051610e7a9190611975565b908152604051908190036020019020546001600160a01b031691505b509392505050565b610ea661113b565b6001600160a01b038316600090815260056020526040908190209051829190610ed0908590611975565b90815260405190819003602001902080546001600160a01b03929092166001600160a01b0319909216919091179055505050565b610f0c61113b565b6001600160a01b038116610f715760405162461bcd60e51b815260206004820152602660248201527f4f776e61626c653a206e6577206f776e657220697320746865207a65726f206160448201526564647265737360d01b60648201526084016104ec565b610f7a8161119a565b50565b610f8561113b565b600054600160a01b900460ff1615610fdf5760405162461bcd60e51b815260206004820152601e60248201527f64656661756c7420657874656e73696f6e7320616c726561647920736574000060448201526064016104ec565b60005b818110156111235760008060008086868681811061100257611002611916565b90506020028101906110149190611991565b81019061102191906119de565b93509350935093508260018560405161103a9190611975565b908152604080516020928190038301902080546001600160a01b0319166001600160a01b0394851617905591851660009081526003825291909120835161108392850190611200565b506001600160a01b0383166000908152600460205260408120829055825184916002918591906110b5576110b5611916565b60200260200101516000815181106110cf576110cf611916565b60200260200101516040516110e49190611975565b90815260405190819003602001902080546001600160a01b03929092166001600160a01b03199092169190911790555050506001919091019050610fe2565b50506000805460ff60a01b1916600160a01b17905550565b336111446103a7565b6001600160a01b0316146103a55760405162461bcd60e51b815260206004820181905260248201527f4f776e61626c653a2063616c6c6572206973206e6f7420746865206f776e657260448201526064016104ec565b600080546001600160a01b038381166001600160a01b0319831681178455604051919092169283917f8be0079c531659141344cd1fd0a4f28419497f9722a3daafe3b4186f6b6457e09190a35050565b8051602091820120825192909101919091201490565b82805482825590600052602060002090810192821561124d579160200282015b8281111561124d578251805161123d91849160209091019061125d565b5091602001919060010190611220565b506112599291506112af565b5090565b8280548282559060005260206000209081019282156112a3579160200282015b828111156112a357825182906112939082611aae565b509160200191906001019061127d565b506112599291506112cc565b808211156112595760006112c382826112e9565b506001016112af565b808211156112595760006112e08282611307565b506001016112cc565b5080546000825590600052602060002090810190610f7a91906112cc565b508054611313906118cc565b6000825580601f10611323575050565b601f016020900490600052602060002090810190610f7a91905b80821115611259576000815560010161133d565b634e487b7160e01b600052604160045260246000fd5b604051601f8201601f191681016001600160401b038111828210171561138f5761138f611351565b604052919050565b600082601f8301126113a857600080fd5b81356001600160401b038111156113c1576113c1611351565b6113d4601f8201601f1916602001611367565b8181528460208386010111156113e957600080fd5b816020850160208301376000918101602001919091529392505050565b60006020828403121561141857600080fd5b81356001600160401b0381111561142e57600080fd5b61143a84828501611397565b949350505050565b6001600160a01b0381168114610f7a57600080fd5b803561146281611442565b919050565b60006020828403121561147957600080fd5b813561148481611442565b9392505050565b6000806040838503121561149e57600080fd5b82356114a981611442565b915060208301356001600160401b038111156114c457600080fd5b6114d085828601611397565b9150509250929050565b60005b838110156114f55781810151838201526020016114dd565b50506000910152565b600081518084526115168160208601602086016114da565b601f01601f19169290920160200192915050565b6000828251808552602080860195506005818360051b8501018287016000805b868110156115b757601f1988850381018c5283518051808752908801908887019080891b88018a01865b828110156115a057858a830301845261158e8286516114fe565b948c0194938c01939150600101611574565b509e8a019e9750505093870193505060010161154a565b50919998505050505050505050565b602081526000611484602083018461152a565b6000806000606084860312156115ee57600080fd5b83356115f981611442565b95602085013595506040909401359392505050565b60208152600061148460208301846114fe565b60006001600160401b0382111561163a5761163a611351565b5060051b60200190565b600082601f83011261165557600080fd5b8135602061166a61166583611621565b611367565b82815260059290921b8401810191818101908684111561168957600080fd5b8286015b8481101561173b5780356001600160401b03808211156116ac57600080fd5b818901915089603f8301126116c057600080fd5b858201356116d061166582611621565b81815260059190911b830160400190878101908c8311156116f057600080fd5b604085015b838110156117295780358581111561170c57600080fd5b61171b8f6040838a0101611397565b8452509189019189016116f5565b5087525050509284019250830161168d565b509695505050505050565b60008060008060006080868803121561175e57600080fd5b85356001600160401b038082111561177557600080fd5b818801915088601f83011261178957600080fd5b81358181111561179857600080fd5b8960208285010111156117aa57600080fd5b602083019750809650506117c060208901611457565b945060408801359150808211156117d657600080fd5b506117e388828901611644565b95989497509295606001359392505050565b60008060006060848603121561180a57600080fd5b833561181581611442565b925060208401356001600160401b0381111561183057600080fd5b61183c86828701611397565b925050604084013561184d81611442565b809150509250925092565b6000806020838503121561186b57600080fd5b82356001600160401b038082111561188257600080fd5b818501915085601f83011261189657600080fd5b8135818111156118a557600080fd5b8660208260051b85010111156118ba57600080fd5b60209290920196919550909350505050565b600181811c908216806118e057607f821691505b60208210810361190057634e487b7160e01b600052602260045260246000fd5b50919050565b8183823760009101908152919050565b634e487b7160e01b600052603260045260246000fd5b60006001820161194c57634e487b7160e01b600052601160045260246000fd5b5060010190565b604081526000611966604083018561152a565b90508260208301529392505050565b600082516119878184602087016114da565b9190910192915050565b6000808335601e198436030181126119a857600080fd5b8301803591506001600160401b038211156119c257600080fd5b6020019150368190038213156119d757600080fd5b9250929050565b600080600080608085870312156119f457600080fd5b84356001600160401b0380821115611a0b57600080fd5b611a1788838901611397565b955060208701359150611a2982611442565b90935060408601359080821115611a3f57600080fd5b50611a4c87828801611644565b949793965093946060013593505050565b601f821115611aa9576000816000526020600020601f850160051c81016020861015611a865750805b601f850160051c820191505b81811015611aa557828155600101611a92565b5050505b505050565b81516001600160401b03811115611ac757611ac7611351565b611adb81611ad584546118cc565b84611a5d565b602080601f831160018114611b105760008415611af85750858301515b600019600386901b1c1916600185901b178555611aa5565b600085815260208120601f198616915b82811015611b3f57888601518255948401946001909101908401611b20565b5085821015611b5d5787850151600019600388901b60f8161c191681555b5050505050600190811b0190555056fea2646970667358221220e150421a2e9ed47ae15df7fcd3e6ed879fc64a347e9ef5f8503b7bfd680ec94c64736f6c63430008170033",
    "linkReferences": {}
  },
  "methodIdentifiers": {
    "addressOfExtensionName(string)": "93f87842",
    "defaultExtensionOfCommand(string)": "0db79b93",
    "getExtensionForCommand(address,string)": "e086a822",
    "getSubjectTemplatesOfExtension(address)": "6dfbe35e",
    "maxGasOfExtension(address)": "2f1d7ddc",
    "owner()": "8da5cb5b",
    "publishExtension(string,address,string[][],uint256)": "bc27aeb3",
    "renounceOwnership()": "715018a6",
    "setDefaultExtensions(bytes[])": "f884630b",
    "setExtensionForCommand(address,string,address)": "f1fbbba1",
    "subjectTemplatesOfExtension(address,uint256,uint256)": "93ec4971",
    "transferOwnership(address)": "f2fde38b",
    "userExtensionOfCommand(address,string)": "3a03738a"
  },
  "id": 136
}