{
  "abi": [
    {
      "inputs": [
        {
          "internalType": "uint256[2]",
          "name": "_pA",
          "type": "uint256[2]"
        },
        {
          "internalType": "uint256[2][2]",
          "name": "_pB",
          "type": "uint256[2][2]"
        },
        {
          "internalType": "uint256[2]",
          "name": "_pC",
          "type": "uint256[2]"
        },
        {
          "internalType": "uint256[3]",
          "name": "_pubSignals",
          "type": "uint256[3]"
        }
      ],
      "name": "verifyProof",
      "outputs": [
        {
          "internalType": "bool",
          "name": "",
          "type": "bool"
        }
      ],
      "stateMutability": "view",
      "type": "function"
    }
  ],
  "bytecode": {
    "object": "0x608060405234801561001057600080fd5b5061060f806100206000396000f3fe608060405234801561001057600080fd5b506004361061002b5760003560e01c806311479fea14610030575b600080fd5b61004361003e366004610553565b610057565b604051901515815260200160405180910390f35b60006104e4565b6000805160206105ba833981519152811061007d576000805260206000f35b50565b600060405183815284602082015285604082015260408160608360076107d05a03fa9150816100b3576000805260206000f35b825160408201526020830151606082015260408360808360066107d05a03fa915050806100e4576000805260206000f35b5050505050565b7f28162f719bb77b8db7086fee542dc7d79a38efb335cf875ebc92a10f64ab00a985527f069fa76c6b6f3ecbac6c8a1b3d3739fa1234eeaea1daa1513a772ce465d9a42260208601526000608086018661018887357f107c2d352113e74495def73aac84392f43a832c3032cfd5acfc5192bd17840f27f2e53fe637eba82996fa72b0b444caaefaa61bb204ac679e6916290250d8d95c584610080565b6101d860208801357f1a94d4e41c07935039642b7dc3f442d0b7784b6a0bbcce0f2a6b0ede97aa267e7f2de21c35efec167ff853efa300302ba50581d7b96012258781604c2859418f9884610080565b61022860408801357f0b25ff10ac21cab643d983a1402d31bfdd733befea0c42bb812f4abce8d9d5c77f255cae845b21175231cae81df4806996974a84d6820e3853b006d152fdc9deb084610080565b50823581526000805160206105ba83398151915260208401356000805160206105ba83398151915203066020820152833560408201526020840135606082015260408401356080820152606084013560a08201527f2d4d9aa7e302d9df41749d5507949d05dbea33fbb16c643b22f599a2be6df2e260c08201527f14bedd503c37ceb061d8ec60209fe345ce89830a19230301f076caff004d192660e08201527f0967032fcbf776d1afc985f88877f182d38480a653f2decaa9794cbc3bf3060c6101008201527f0e187847ad4c798374d0d6732bf501847dd68bc0e071241e0213bc7fc13db7ab6101208201527f304cfbd1e08a704a99f5e847d93f8c3caafddec46b7a0d379da69a4d112346a76101408201527f1739c1b1a457a8c7313123d24d2f9192f896b7c63eea05a9d57f06547ad0cec8610160820152600087015161018082015260206000018701516101a08201527f198e9393920d483a7260bfb731fb5d25f1aa493335a9e71297e485b7aef312c26101c08201527f1800deef121f1e76426a00665e5c4479674322d4f75edadd46debd5cd992f6ed6101e08201527f090689d0585ff075ec9e99ad690c3395bc4b313370b38ef355acdadcd122975b6102008201527f12c85ea5db8c6deb4aab71808dcb408fe3d1e7690c43d37b4ce6cc0166fa7daa610220820152843561024082015260208501356102608201527f01cac876715e3c90a494934a473864bc6415c4d0e3dcfd91e6d829e79beaefe16102808201527f0928f17a8936b567146983f295ba8c9ee6c685d46eeb026ceb34395cb9b9964f6102a08201527f2d5c24a843a90f888d34b6e3820dc021bff98eebd9f4d939497fecc73bb0e04d6102c08201527f01376ec8440c8988ee7ead43d937982ec6698dbee3a479bcbbaafceecbbd903f6102e08201526020816103008360086107d05a03fa9051169695505050505050565b60405161038081016040526104fc600084013561005e565b610509602084013561005e565b610516604084013561005e565b610523606084013561005e565b610530818486888a6100eb565b90508060005260206000f35b806040810183101561054d57600080fd5b92915050565b60008060008061016080868803121561056b57600080fd5b610575878761053c565b945060c086018781111561058857600080fd5b604087019450610598888261053c565b9350508681870111156105aa57600080fd5b5092959194509261010001915056fe30644e72e131a029b85045b68181585d97816a916871ca8d3c208c16d87cfd47a2646970667358221220f35d789313fcf0c6fcb538957d6e177d9371c879f09ac7a4701ed17411ef4aad64736f6c63430008110033",
    "linkReferences": {}
  },
  "methodIdentifiers": {
    "verifyProof(uint256[2],uint256[2][2],uint256[2],uint256[3])": "11479fea"
  },
  "id": 149
}