{"abi":[{"type":"function","name":"verifyProof","inputs":[{"name":"_pA","type":"uint256[2]","internalType":"uint256[2]"},{"name":"_pB","type":"uint256[2][2]","internalType":"uint256[2][2]"},{"name":"_pC","type":"uint256[2]","internalType":"uint256[2]"},{"name":"_pubSignals","type":"uint256[14]","internalType":"uint256[14]"}],"outputs":[{"name":"","type":"bool","internalType":"bool"}],"stateMutability":"view"}],"bytecode":{"object":"0x608060405234801561001057600080fd5b50610a81806100206000396000f3fe608060405234801561001057600080fd5b506004361061002b5760003560e01c80638d15f88f14610030575b600080fd5b61004361003e3660046109e5565b610057565b604051901515815260200160405180910390f35b60006108e0565b7f30644e72e131a029b85045b68181585d97816a916871ca8d3c208c16d87cfd47811061008f576000805260206000f35b50565b600060405183815284602082015285604082015260408160608360076107d05a03fa9150816100c5576000805260206000f35b825160408201526020830151606082015260408360808360066107d05a03fa915050806100f6576000805260206000f35b5050505050565b7f24e89ecb556581ed51465d6d663f76b63d216f42e96827a0595148a73107fab585527f18868723d0f4e1be3d85c3e62afa62a75617314b82dcbc5ba32fc95f52c2587b60208601526000608086018661019987357e2917495a2183e61cb5bb81aff977391feb2ec83789c9df15738d09d078d9267f0734f1709897743d4d8923c01d10b844dab2cbc9adca72ad75405fb7427f051b84610092565b6101e960208801357f07f5d44ff528772a897b35d55f998d73653a689d6ea490a5657ed15643ff6f697f17ff5b888cab54e2bcf5105355dbcf72a0999456a12a63c15356cf51bdbb614084610092565b61023960408801357f2557b361a49df2b5ed75ad664777faedef780f6153ed8774c7850e656f10daec7f089dc51105b053a566411a1f98a09f409fec37cfa4fa729ceeef371f9819371184610092565b61028960608801357f08e4b334fe8e70cee119069b14cad25336fdcee8089e614853d96c1e49c51bb17f21f6e1d838b2b94802a09d747b1ca8688f9f5e1a1efde316ba8f95962fc24b6084610092565b6102d960808801357f1bb62e70e0f18a3e943168195b70a322e223f95cdaa57f21431ee137359f8ca97f14bd02ac4ac07dade7e8c18c5b797843916a4a94fbad71a77cfb8a7276c9838f84610092565b61032960a08801357f0a376d244169cbd49e1f1851116bdaede675a95781eb9fbce3d640b3742538bd7f10310e86f907c5a8599dc5c3c397744603508b06efa67265bb8e1b6051ae95a184610092565b61037960c08801357f0a69cc8d515074db5c5fef684852508538a3652bb5ef50f6a986232d0327b6d87f2ed469226ef2bae963ecfc171676cf3dd63067c9806ddb3e6f83ace7bb1e793e84610092565b6103c960e08801357f2135f9350e780c38e334cd014daea177fb286308fbfd84e1054b3d97be4757107f2d016002e97dc289c3dd4b811608ecb9f1b4230bdad73665b9899aa979f1434f84610092565b61041a6101008801357f18d17ab1e88a00a53ae9a99d5f099b1b1678359aa5f67c80a225d5fb882e556f7f2e9e6e4c3a8ce74c92e5543cdf7e3f337e95f5e86d355d10ee4206510b0fd24384610092565b61046b6101208801357f25cf23df754b9eff93844150bbc9067e21526fc188b5d7dc20c0da6522bfc2597f0824e9b0a2d6f8ecff333471bffe931e500fc7c9c2c8dda36aa313a581f5471c84610092565b6104bc6101408801357f26e7da32542a6c1718ad9d1bbaba31dde382e2d4317a3cbdc253d1ae497a11a27f2f99b897625e14d178bfb8a576535161e35efd9fff0793c116e054fde40ff6ca84610092565b61050d6101608801357f2cee17a8f7d1763b28ad00711c7f5decd9d79c0d729f629ec60e836be41891847f29aece6154b0756701dff5fa15321bd79850cf180ebb1c9d1c4b23e6604b659784610092565b61055e6101808801357f1355e8691749f96d956cab59c94fecc22a5b2ec3f9a2143da564012a52b3d2597f2a9eb54afd9f01e11ce416fc4d4e7765b49c4524f21afaf5c3f16377c4402e7484610092565b6105af6101a08801357f129efc3484cbff2eb352e27bc79cacb10ea55ef76b7f39dc2c5403764743ee427f048a1b0c7602baa53bf65d7c4d438243f981d34ecc57bde1427590a9e834dd3684610092565b6106006101c08801357f1af3b63cf6adc461111860b1c0d6ec73bc0307f72a825fb7c7ba2bc6ec36a3507f24ed1053487c72edb2f94b41fd7017e8a3415eec7ba4b25666dc8e5913b4094f84610092565b50823581527f30644e72e131a029b85045b68181585d97816a916871ca8d3c208c16d87cfd4760208401357f30644e72e131a029b85045b68181585d97816a916871ca8d3c208c16d87cfd4703066020820152833560408201526020840135606082015260408401356080820152606084013560a08201527f2d4d9aa7e302d9df41749d5507949d05dbea33fbb16c643b22f599a2be6df2e260c08201527f14bedd503c37ceb061d8ec60209fe345ce89830a19230301f076caff004d192660e08201527f0967032fcbf776d1afc985f88877f182d38480a653f2decaa9794cbc3bf3060c6101008201527f0e187847ad4c798374d0d6732bf501847dd68bc0e071241e0213bc7fc13db7ab6101208201527f304cfbd1e08a704a99f5e847d93f8c3caafddec46b7a0d379da69a4d112346a76101408201527f1739c1b1a457a8c7313123d24d2f9192f896b7c63eea05a9d57f06547ad0cec8610160820152600087015161018082015260206000018701516101a08201527f198e9393920d483a7260bfb731fb5d25f1aa493335a9e71297e485b7aef312c26101c08201527f1800deef121f1e76426a00665e5c4479674322d4f75edadd46debd5cd992f6ed6101e08201527f090689d0585ff075ec9e99ad690c3395bc4b313370b38ef355acdadcd122975b6102008201527f12c85ea5db8c6deb4aab71808dcb408fe3d1e7690c43d37b4ce6cc0166fa7daa610220820152843561024082015260208501356102608201527f28f7be5bb93153abd4be4abcd150232273f75cb8774effce4daab92cb38fef4a6102808201527f2872a085514b6c9f1e9e49ee2b5787ef6fc0e8b6f632d474c01f8a1cdc17d0d06102a08201527f2ae218727b90ca203dea7700d44bf558cf76f9f6dacb09f5cbf2ea6a6d20461f6102c08201527f3033d2df08a1b8414a54a07d18e48f3516d642398015409c05596dbe2c04b65d6102e08201526020816103008360086107d05a03fa9051169695505050505050565b60405161038081016040526108f8600084013561005e565b610905602084013561005e565b610912604084013561005e565b61091f606084013561005e565b61092c608084013561005e565b61093960a084013561005e565b61094660c084013561005e565b61095360e084013561005e565b61096161010084013561005e565b61096f61012084013561005e565b61097d61014084013561005e565b61098b61016084013561005e565b61099961018084013561005e565b6109a76101a084013561005e565b6109b56101c084013561005e565b6109c2818486888a6100fd565b90508060005260206000f35b80604081018310156109df57600080fd5b92915050565b6000806000806102c08086880312156109fd57600080fd5b610a0787876109ce565b945060c0860187811115610a1a57600080fd5b604087019450610a2a88826109ce565b935050868187011115610a3c57600080fd5b5092959194509261010001915056fea264697066735822122023dd14200d974ae36645bf16fc23616cd6c2e018dfb98c882f5fae2a6e58841e64736f6c63430008170033","linkReferences":{}},"methodIdentifiers":{"verifyProof(uint256[2],uint256[2][2],uint256[2],uint256[14])":"8d15f88f"},"storageLayout":{"storage":[],"types":{}},"id":139}