{
  "abi": [
    {
      "inputs": [
        {
          "internalType": "address",
          "name": "_relayerHandler",
          "type": "address"
        },
        {
          "internalType": "address",
          "name": "_accountHandler",
          "type": "address"
        },
        {
          "internalType": "address",
          "name": "_verifier",
          "type": "address"
        },
        {
          "internalType": "uint256",
          "name": "_unclaimedFundClaimGas",
          "type": "uint256"
        },
        {
          "internalType": "uint256",
          "name": "_unclaimedStateClaimGas",
          "type": "uint256"
        },
        {
          "internalType": "uint256",
          "name": "_unclaimsExpiryDuration",
          "type": "uint256"
        },
        {
          "internalType": "uint256",
          "name": "_maxFeePerGas",
          "type": "uint256"
        }
      ],
      "stateMutability": "nonpayable",
      "type": "constructor"
    },
    {
      "anonymous": false,
      "inputs": [
        {
          "indexed": true,
          "internalType": "address",
          "name": "previousOwner",
          "type": "address"
        },
        {
          "indexed": true,
          "internalType": "address",
          "name": "newOwner",
          "type": "address"
        }
      ],
      "name": "OwnershipTransferred",
      "type": "event"
    },
    {
      "inputs": [],
      "name": "accountHandler",
      "outputs": [
        {
          "internalType": "contract AccountHandler",
          "name": "",
          "type": "address"
        }
      ],
      "stateMutability": "view",
      "type": "function"
    },
    {
      "inputs": [
        {
          "internalType": "uint256",
          "name": "id",
          "type": "uint256"
        },
        {
          "internalType": "bytes32",
          "name": "recipientEmailAddrPointer",
          "type": "bytes32"
        },
        {
          "internalType": "bytes",
          "name": "proof",
          "type": "bytes"
        }
      ],
      "name": "claimUnclaimedFund",
      "outputs": [],
      "stateMutability": "nonpayable",
      "type": "function"
    },
    {
      "inputs": [
        {
          "internalType": "uint256",
          "name": "id",
          "type": "uint256"
        },
        {
          "internalType": "bytes32",
          "name": "recipientEmailAddrPointer",
          "type": "bytes32"
        },
        {
          "internalType": "bytes",
          "name": "proof",
          "type": "bytes"
        }
      ],
      "name": "claimUnclaimedState",
      "outputs": [
        {
          "internalType": "bool",
          "name": "success",
          "type": "bool"
        },
        {
          "internalType": "bytes",
          "name": "returnData",
          "type": "bytes"
        }
      ],
      "stateMutability": "nonpayable",
      "type": "function"
    },
    {
      "inputs": [
        {
          "internalType": "uint256",
          "name": "id",
          "type": "uint256"
        }
      ],
      "name": "getUnclaimedFund",
      "outputs": [
        {
          "components": [
            {
              "internalType": "uint256",
              "name": "id",
              "type": "uint256"
            },
            {
              "internalType": "bytes32",
              "name": "emailAddrCommit",
              "type": "bytes32"
            },
            {
              "internalType": "address",
              "name": "sender",
              "type": "address"
            },
            {
              "internalType": "address",
              "name": "tokenAddr",
              "type": "address"
            },
            {
              "internalType": "uint256",
              "name": "amount",
              "type": "uint256"
            },
            {
              "internalType": "uint256",
              "name": "expiryTime",
              "type": "uint256"
            }
          ],
          "internalType": "struct UnclaimedFund",
          "name": "",
          "type": "tuple"
        }
      ],
      "stateMutability": "view",
      "type": "function"
    },
    {
      "inputs": [
        {
          "internalType": "uint256",
          "name": "id",
          "type": "uint256"
        }
      ],
      "name": "getUnclaimedState",
      "outputs": [
        {
          "components": [
            {
              "internalType": "uint256",
              "name": "id",
              "type": "uint256"
            },
            {
              "internalType": "bytes32",
              "name": "emailAddrCommit",
              "type": "bytes32"
            },
            {
              "internalType": "address",
              "name": "extensionAddr",
              "type": "address"
            },
            {
              "internalType": "address",
              "name": "sender",
              "type": "address"
            },
            {
              "internalType": "bytes",
              "name": "state",
              "type": "bytes"
            },
            {
              "internalType": "uint256",
              "name": "expiryTime",
              "type": "uint256"
            }
          ],
          "internalType": "struct UnclaimedState",
          "name": "",
          "type": "tuple"
        }
      ],
      "stateMutability": "view",
      "type": "function"
    },
    {
      "inputs": [],
      "name": "maxFeePerGas",
      "outputs": [
        {
          "internalType": "uint256",
          "name": "",
          "type": "uint256"
        }
      ],
      "stateMutability": "view",
      "type": "function"
    },
    {
      "inputs": [],
      "name": "numUnclaimedFunds",
      "outputs": [
        {
          "internalType": "uint256",
          "name": "",
          "type": "uint256"
        }
      ],
      "stateMutability": "view",
      "type": "function"
    },
    {
      "inputs": [],
      "name": "numUnclaimedStates",
      "outputs": [
        {
          "internalType": "uint256",
          "name": "",
          "type": "uint256"
        }
      ],
      "stateMutability": "view",
      "type": "function"
    },
    {
      "inputs": [],
      "name": "owner",
      "outputs": [
        {
          "internalType": "address",
          "name": "",
          "type": "address"
        }
      ],
      "stateMutability": "view",
      "type": "function"
    },
    {
      "inputs": [
        {
          "internalType": "bytes32",
          "name": "emailAddrCommit",
          "type": "bytes32"
        },
        {
          "internalType": "address",
          "name": "tokenAddr",
          "type": "address"
        },
        {
          "internalType": "uint256",
          "name": "amount",
          "type": "uint256"
        },
        {
          "internalType": "uint256",
          "name": "expiryTime",
          "type": "uint256"
        },
        {
          "internalType": "uint256",
          "name": "announceCommitRandomness",
          "type": "uint256"
        },
        {
          "internalType": "string",
          "name": "announceEmailAddr",
          "type": "string"
        }
      ],
      "name": "registerUnclaimedFund",
      "outputs": [
        {
          "internalType": "uint256",
          "name": "",
          "type": "uint256"
        }
      ],
      "stateMutability": "payable",
      "type": "function"
    },
    {
      "inputs": [
        {
          "internalType": "address",
          "name": "sender",
          "type": "address"
        },
        {
          "internalType": "bytes32",
          "name": "emailAddrCommit",
          "type": "bytes32"
        },
        {
          "internalType": "address",
          "name": "tokenAddr",
          "type": "address"
        },
        {
          "internalType": "uint256",
          "name": "amount",
          "type": "uint256"
        }
      ],
      "name": "registerUnclaimedFundInternal",
      "outputs": [
        {
          "internalType": "uint256",
          "name": "",
          "type": "uint256"
        }
      ],
      "stateMutability": "nonpayable",
      "type": "function"
    },
    {
      "inputs": [
        {
          "internalType": "bytes32",
          "name": "emailAddrCommit",
          "type": "bytes32"
        },
        {
          "internalType": "address",
          "name": "extensionAddr",
          "type": "address"
        },
        {
          "internalType": "bytes",
          "name": "state",
          "type": "bytes"
        },
        {
          "internalType": "uint256",
          "name": "expiryTime",
          "type": "uint256"
        },
        {
          "internalType": "uint256",
          "name": "announceCommitRandomness",
          "type": "uint256"
        },
        {
          "internalType": "string",
          "name": "announceEmailAddr",
          "type": "string"
        }
      ],
      "name": "registerUnclaimedState",
      "outputs": [
        {
          "internalType": "uint256",
          "name": "",
          "type": "uint256"
        }
      ],
      "stateMutability": "payable",
      "type": "function"
    },
    {
      "inputs": [
        {
          "internalType": "address",
          "name": "extensionAddr",
          "type": "address"
        },
        {
          "internalType": "address",
          "name": "sender",
          "type": "address"
        },
        {
          "internalType": "bytes32",
          "name": "recipientEmailAddrCommit",
          "type": "bytes32"
        },
        {
          "internalType": "bytes",
          "name": "state",
          "type": "bytes"
        },
        {
          "internalType": "bool",
          "name": "isInternal",
          "type": "bool"
        }
      ],
      "name": "registerUnclaimedStateInternal",
      "outputs": [
        {
          "internalType": "uint256",
          "name": "",
          "type": "uint256"
        }
      ],
      "stateMutability": "nonpayable",
      "type": "function"
    },
    {
      "inputs": [],
      "name": "relayerHandler",
      "outputs": [
        {
          "internalType": "contract RelayerHandler",
          "name": "",
          "type": "address"
        }
      ],
      "stateMutability": "view",
      "type": "function"
    },
    {
      "inputs": [],
      "name": "renounceOwnership",
      "outputs": [],
      "stateMutability": "nonpayable",
      "type": "function"
    },
    {
      "inputs": [
        {
          "internalType": "address",
          "name": "newOwner",
          "type": "address"
        }
      ],
      "name": "transferOwnership",
      "outputs": [],
      "stateMutability": "nonpayable",
      "type": "function"
    },
    {
      "inputs": [],
      "name": "unclaimedFundClaimGas",
      "outputs": [
        {
          "internalType": "uint256",
          "name": "",
          "type": "uint256"
        }
      ],
      "stateMutability": "view",
      "type": "function"
    },
    {
      "inputs": [
        {
          "internalType": "uint256",
          "name": "",
          "type": "uint256"
        }
      ],
      "name": "unclaimedFundOfId",
      "outputs": [
        {
          "internalType": "uint256",
          "name": "id",
          "type": "uint256"
        },
        {
          "internalType": "bytes32",
          "name": "emailAddrCommit",
          "type": "bytes32"
        },
        {
          "internalType": "address",
          "name": "sender",
          "type": "address"
        },
        {
          "internalType": "address",
          "name": "tokenAddr",
          "type": "address"
        },
        {
          "internalType": "uint256",
          "name": "amount",
          "type": "uint256"
        },
        {
          "internalType": "uint256",
          "name": "expiryTime",
          "type": "uint256"
        }
      ],
      "stateMutability": "view",
      "type": "function"
    },
    {
      "inputs": [],
      "name": "unclaimedStateClaimGas",
      "outputs": [
        {
          "internalType": "uint256",
          "name": "",
          "type": "uint256"
        }
      ],
      "stateMutability": "view",
      "type": "function"
    },
    {
      "inputs": [
        {
          "internalType": "uint256",
          "name": "",
          "type": "uint256"
        }
      ],
      "name": "unclaimedStateOfId",
      "outputs": [
        {
          "internalType": "uint256",
          "name": "id",
          "type": "uint256"
        },
        {
          "internalType": "bytes32",
          "name": "emailAddrCommit",
          "type": "bytes32"
        },
        {
          "internalType": "address",
          "name": "extensionAddr",
          "type": "address"
        },
        {
          "internalType": "address",
          "name": "sender",
          "type": "address"
        },
        {
          "internalType": "bytes",
          "name": "state",
          "type": "bytes"
        },
        {
          "internalType": "uint256",
          "name": "expiryTime",
          "type": "uint256"
        }
      ],
      "stateMutability": "view",
      "type": "function"
    },
    {
      "inputs": [],
      "name": "unclaimsExpiryDuration",
      "outputs": [
        {
          "internalType": "uint256",
          "name": "",
          "type": "uint256"
        }
      ],
      "stateMutability": "view",
      "type": "function"
    },
    {
      "inputs": [],
      "name": "verifier",
      "outputs": [
        {
          "internalType": "contract IVerifier",
          "name": "",
          "type": "address"
        }
      ],
      "stateMutability": "view",
      "type": "function"
    },
    {
      "inputs": [
        {
          "internalType": "uint256",
          "name": "id",
          "type": "uint256"
        }
      ],
      "name": "voidUnclaimedFund",
      "outputs": [],
      "stateMutability": "nonpayable",
      "type": "function"
    },
    {
      "inputs": [
        {
          "internalType": "uint256",
          "name": "id",
          "type": "uint256"
        }
      ],
      "name": "voidUnclaimedState",
      "outputs": [
        {
          "internalType": "bool",
          "name": "success",
          "type": "bool"
        },
        {
          "internalType": "bytes",
          "name": "returnData",
          "type": "bytes"
        }
      ],
      "stateMutability": "nonpayable",
      "type": "function"
    },
    {
      "stateMutability": "payable",
      "type": "receive"
    }
  ],
  "bytecode": {
    "object": "0x6101606040523480156200001257600080fd5b5060405162004126380380620041268339810160408190526200003591620000ea565b600160005562000045336200007b565b6001600160a01b0396871660c05294861660a0529290941660805260e0526101009290925261012091909152610140526200015b565b600180546001600160a01b038381166001600160a01b0319831681179093556040519116919082907f8be0079c531659141344cd1fd0a4f28419497f9722a3daafe3b4186f6b6457e090600090a35050565b80516001600160a01b0381168114620000e557600080fd5b919050565b600080600080600080600060e0888a0312156200010657600080fd5b6200011188620000cd565b96506200012160208901620000cd565b95506200013160408901620000cd565b9450606088015193506080880151925060a0880151915060c0880151905092959891949750929550565b60805160a05160c05160e051610100516101205161014051613e6d620002b960003960008181610217015281816106d601528181611038015281816111280152818161138c0152818161148701528181611cb4015281816126740152612a2d01526000818161054b015281816106a901528181610a91015281816127a00152612a000152600081816104e1015281816106f701528181610f050152818161105d0152818161257a0152612695015260008181610338015281816113ae01528181611cd50152612a4e0152600081816102c00152818161165901528181611a3e01528181611f4e015261230401526000818161028c015281816115af0152818161170c01528181611827015281816118cd0152818161197901528181611b6701528181611ea401528181612001015281816121930152818161223f015261242d01526000818161024b01528181611a0f01526122d50152613e6d6000f3fe60806040526004361061011f5760003560e01c80630e878b9b146101925780631bae92f7146101b8578063223008d6146101d85780632728bf2c146102055780632b7ac3f31461023957806333ddfb9a1461027a5780635e5f2610146102ae5780635fa7a696146102e2578063616ad001146102f85780636622173414610326578063715018a61461035a57806381763f641461036f57806385959ac31461047a5780638da5cb5b1461049a5780638ddda0eb146104af578063a87fedae146104cf578063b5072bc614610503578063c964664714610519578063cdbe49f014610539578063d27d6a121461056d578063def27db714610606578063f2fde38b14610626578063f9df978e14610646578063ff8b4ccf1461065957600080fd5b3661018d5761012c61068b565b6001600160a01b0316336001600160a01b03161461018b5760405162461bcd60e51b81526020600482015260176024820152760dedcd8f240deeedccae440c6c2dc40e6cadcc8408aa89604b1b60448201526064015b60405180910390fd5b005b600080fd5b6101a56101a03660046131e5565b61069a565b6040519081526020015b60405180910390f35b3480156101c457600080fd5b506101a56101d3366004613283565b610a4d565b3480156101e457600080fd5b506101f86101f33660046132cb565b610bcc565b6040516101af9190613393565b34801561021157600080fd5b506101a57f000000000000000000000000000000000000000000000000000000000000000081565b34801561024557600080fd5b5061026d7f000000000000000000000000000000000000000000000000000000000000000081565b6040516101af91906133ad565b34801561028657600080fd5b5061026d7f000000000000000000000000000000000000000000000000000000000000000081565b3480156102ba57600080fd5b5061026d7f000000000000000000000000000000000000000000000000000000000000000081565b3480156102ee57600080fd5b506101a560035481565b34801561030457600080fd5b506103186103133660046132cb565b610cf6565b6040516101af9291906133c1565b34801561033257600080fd5b506101a57f000000000000000000000000000000000000000000000000000000000000000081565b34801561036657600080fd5b5061018b6111cb565b34801561037b57600080fd5b5061042261038a3660046132cb565b6040805160c081018252600080825260208201819052918101829052606081018290526080810182905260a081019190915250600090815260046020818152604092839020835160c0810185528154815260018201549281019290925260028101546001600160a01b03908116948301949094526003810154909316606082015290820154608082015260059091015460a082015290565b6040516101af919081518152602080830151908201526040808301516001600160a01b0390811691830191909152606080840151909116908201526080808301519082015260a0918201519181019190915260c00190565b34801561048657600080fd5b5061018b6104953660046132cb565b6111df565b3480156104a657600080fd5b5061026d61068b565b3480156104bb57600080fd5b5061018b6104ca3660046133dc565b611533565b3480156104db57600080fd5b506101a57f000000000000000000000000000000000000000000000000000000000000000081565b34801561050f57600080fd5b506101a560025481565b34801561052557600080fd5b506103186105343660046133dc565b611d7e565b34801561054557600080fd5b506101a57f000000000000000000000000000000000000000000000000000000000000000081565b34801561057957600080fd5b506105cc6105883660046132cb565b6004602081905260009182526040909120805460018201546002830154600384015494840154600590940154929491936001600160a01b0391821693929091169186565b6040805196875260208701959095526001600160a01b039384169486019490945291166060840152608083015260a082015260c0016101af565b34801561061257600080fd5b506101a561062136600461343c565b612738565b34801561063257600080fd5b5061018b6106413660046134c0565b61297b565b6101a56106543660046134dd565b6129f1565b34801561066557600080fd5b506106796106743660046132cb565b612ccc565b6040516101af96959493929190613559565b6001546001600160a01b031690565b6000846000036106d1576106ce7f0000000000000000000000000000000000000000000000000000000000000000426135bb565b94505b61071b7f00000000000000000000000000000000000000000000000000000000000000007f00000000000000000000000000000000000000000000000000000000000000006135d4565b34146107675760405162461bcd60e51b815260206004820152601b60248201527a696e76616c696420756e636c61696d65642073746174652066656560281b6044820152606401610182565b856107845760405162461bcd60e51b8152600401610182906135eb565b886107a15760405162461bcd60e51b81526004016101829061361a565b4285116107c05760405162461bcd60e51b81526004016101829061364b565b60038054600090815260056020526040902001546001600160a01b0316156107fa5760405162461bcd60e51b815260040161018290613678565b60006040518060c0016040528060035481526020018b81526020018a6001600160a01b03168152602001336001600160a01b0316815260200189898080601f016020809104026020016040519081016040528093929190818152602001838380828437600092018290525093855250505060209182018990528251815260058252604090819020835181559183015160018301558201516002820180546001600160a01b039283166001600160a01b031991821617909155606084015160038401805491909316911617905560808201519192508a9183919060048201906108e29082613746565b5060a091909101516005909101556003805490600061090083613805565b9091555050604051631f6a78b560e11b81526001600160a01b03821690633ed4f16a9061093490859060009060040161381e565b600060405180830381600087803b15801561094e57600080fd5b505af192505050801561095f575060015b610a055761096b613842565b806308c379a0036109c1575061097f61388a565b8061098a57506109c3565b8060405160200161099b9190613913565b60408051601f198184030181529082905262461bcd60e51b825261018291600401613954565b505b60405162461bcd60e51b81526020600482015260176024820152763ab731b630b4b6b2b21039ba30ba32903932b39032b93960491b6044820152606401610182565b8a8260000151600080516020613e188339815191528c338b8e8e8d8d8d604051610a36989796959493929190613990565b60405180910390a350519998505050505050505050565b6000610a57612d98565b6002546000908152600460208190526040909120015415610a8a5760405162461bcd60e51b8152600401610182906139ec565b6000610ab67f0000000000000000000000000000000000000000000000000000000000000000426135bb565b6040805160c0810182526002805480835260208084018b81526001600160a01b03808e168688019081528c821660608801908152608088018d815260a089018b815260009788526004968790529987208951815594516001860155915184880180549185166001600160a01b0319928316179055905160038501805491909416911617909155519181019190915593516005909401939093558054939450909291610b6083613805565b90915550508051604080516001600160a01b038881168252602082018890528a16818301526060810185905260006080820181905260c060a083018190528201529051889291600080516020613df8833981519152919081900360e00190a3519150505b949350505050565b6040805160c0810182526000808252602082018190529181018290526060808201839052608082015260a0810191909152600082815260056020908152604091829020825160c0810184528154815260018201549281019290925260028101546001600160a01b039081169383019390935260038101549092166060820152600482018054919291608084019190610c63906136be565b80601f0160208091040260200160405190810160405280929190818152602001828054610c8f906136be565b8015610cdc5780601f10610cb157610100808354040283529160200191610cdc565b820191906000526020600020905b815481529060010190602001808311610cbf57829003601f168201915b505050505081526020016005820154815250509050919050565b60006060610d02612df7565b60005a90506003548410610d285760405162461bcd60e51b815260040161018290613a1b565b6000848152600560209081526040808320815160c0810183528154815260018201549381019390935260028101546001600160a01b039081169284019290925260038101549091166060830152600481018054608084019190610d8a906136be565b80601f0160208091040260200160405190810160405280929190818152602001828054610db6906136be565b8015610e035780601f10610dd857610100808354040283529160200191610e03565b820191906000526020600020905b815481529060010190602001808311610de657829003601f168201915b50505091835250506005919091015460209091015260608101519091506001600160a01b0316610e455760405162461bcd60e51b815260040161018290613a3f565b428160a0015110610e965760405162461bcd60e51b815260206004820152601b60248201527a1d5b98db185a5b5959081cdd185d19481b9bdd08195e1c1a5c9959602a1b6044820152606401610182565b60408082015160008781526005602052918220828155600181018390556002810180546001600160a01b031990811690915560038201805490911690559091610ee2600483018261313a565b600582016000905550506000616d226152085a610eff9087613a76565b610f29907f0000000000000000000000000000000000000000000000000000000000000000613a76565b610f339190613a76565b610f3d9190613a76565b9050805a11610f5e5760405162461bcd60e51b815260040161018290613a89565b60405163b91ad65160e01b81526001600160a01b0383169063b91ad651908390610f8c908790600401613393565b600060405180830381600088803b158015610fa657600080fd5b5087f193505050508015610fb8575060015b610ff957610fc4613842565b806308c379a003610fee5750610fd861388a565b80610fe35750610ff0565b600096509450610ffe565b505b60009550610ffe565b600195505b6000616d226152085a6110119088613a76565b61101b91906135bb565b61102591906135bb565b60608501519091506001600160a01b03167f0000000000000000000000000000000000000000000000000000000000000000611081837f0000000000000000000000000000000000000000000000000000000000000000613a76565b61108b91906135d4565b604051600081818185875af1925050503d80600081146110c7576040519150601f19603f3d011682016040523d82523d6000602084013e6110cc565b606091505b5050809750508661111f5760405162461bcd60e51b815260206004820181905260248201527f455448207472616e7366657220746f2075732e73656e646572206661696c65646044820152606401610182565b336108fc61114d7f0000000000000000000000000000000000000000000000000000000000000000846135d4565b6040518115909202916000818181858888f19350505050158015611175573d6000803e3d6000fd5b508360200151887f77eecc78c2351f067771819051aa66f304f53798731871f42c7e4abc3ca6dc7c86606001516040516111af91906133ad565b60405180910390a350505050506111c66001600055565b915091565b6111d3612d98565b6111dd6000612e50565b565b6111e7612df7565b60005a600083815260046020818152604092839020835160c081018552815481526001820154928101929092526002808201546001600160a01b03908116958401959095526003820154909416606083015291820154608082015260059091015460a082015290549192509083106112715760405162461bcd60e51b815260040161018290613a1b565b60008160800151116112955760405162461bcd60e51b815260040161018290613ab8565b428160a00151106112e55760405162461bcd60e51b815260206004820152601a6024820152791d5b98db185a5b595908199d5b99081b9bdd08195e1c1a5c995960321b6044820152606401610182565b6000838152600460208190526040808320838155600181018490556002810180546001600160a01b0319908116909155600382018054909116905591820183905560059091019190915581015160808201516060830151611351926001600160a01b0390911691612ea2565b6000616d226152085a6113649086613a76565b61136e91906135bb565b61137891906135bb565b9050600082604001516001600160a01b03167f0000000000000000000000000000000000000000000000000000000000000000837f00000000000000000000000000000000000000000000000000000000000000006113d79190613a76565b6113e191906135d4565b604051600081818185875af1925050503d806000811461141d576040519150601f19603f3d011682016040523d82523d6000602084013e611422565b606091505b505090508061147e5760405162461bcd60e51b815260206004820152602260248201527f455448207472616e7366657220746f2066756e642e73656e646572206661696c604482015261195960f21b6064820152608401610182565b336108fc6114ac7f0000000000000000000000000000000000000000000000000000000000000000856135d4565b6040518115909202916000818181858888f193505050501580156114d4573d6000803e3d6000fd5b508260200151857f960802630656455a2f4af19fd682f15891466a4e1712ac96e83afe9efa62def685606001518660800151876040015160405161151a93929190613aef565b60405180910390a3505050506115306001600055565b50565b61153b612df7565b6000848152600460208181526040808420815160c0810183528154815260018201549381019390935260028101546001600160a01b039081168484015260038201548116606085015281850154608085015260059091015460a08401529051635d2c8d1b60e11b81529283018790529092917f00000000000000000000000000000000000000000000000000000000000000009091169063ba591a3690602401602060405180830381865afa1580156115f8573d6000803e3d6000fd5b505050506040513d601f19601f8201168201806040525081019061161c9190613b12565b9050600254861061163f5760405162461bcd60e51b815260040161018290613a1b565b604051630fd5856960e21b81526000906001600160a01b037f00000000000000000000000000000000000000000000000000000000000000001690633f5615a49061168e9033906004016133ad565b602060405180830381865afa1580156116ab573d6000803e3d6000fd5b505050506040513d601f19601f820116820180604052508101906116cf9190613b12565b036116ec5760405162461bcd60e51b815260040161018290613b2b565b604051636b0f047d60e01b81526004810182905233906001600160a01b037f00000000000000000000000000000000000000000000000000000000000000001690636b0f047d90602401606060405180830381865afa158015611753573d6000803e3d6000fd5b505050506040513d601f19601f820116820180604052508101906117779190613b57565b516001600160a01b03161461179e5760405162461bcd60e51b815260040161018290613bc1565b60008260800151116117c25760405162461bcd60e51b815260040161018290613ab8565b428260a001511161180e5760405162461bcd60e51b81526020600482015260166024820152751d5b98db185a5b595908199d5b9908195e1c1a5c995960521b6044820152606401610182565b604051635d2c8d1b60e11b8152600481018690526000907f00000000000000000000000000000000000000000000000000000000000000006001600160a01b03169063ba591a3690602401602060405180830381865afa158015611876573d6000803e3d6000fd5b505050506040513d601f19601f8201168201806040525081019061189a9190613b12565b036118b75760405162461bcd60e51b815260040161018290613bf6565b604051636b0f047d60e01b8152600481018290527f00000000000000000000000000000000000000000000000000000000000000006001600160a01b031690636b0f047d90602401606060405180830381865afa15801561191c573d6000803e3d6000fd5b505050506040513d601f19601f820116820180604052508101906119409190613b57565b602001516119605760405162461bcd60e51b815260040161018290613c2b565b604051636b0f047d60e01b8152600481018290526000907f00000000000000000000000000000000000000000000000000000000000000006001600160a01b031690636b0f047d90602401606060405180830381865afa1580156119c8573d6000803e3d6000fd5b505050506040513d601f19601f820116820180604052508101906119ec9190613b57565b6040015103611a0d5760405162461bcd60e51b815260040161018290613c5c565b7f00000000000000000000000000000000000000000000000000000000000000006001600160a01b03166380dc37377f00000000000000000000000000000000000000000000000000000000000000006001600160a01b0316633f5615a4336040518263ffffffff1660e01b8152600401611a8891906133ad565b602060405180830381865afa158015611aa5573d6000803e3d6000fd5b505050506040513d601f19601f82011682018060405250810190611ac99190613b12565b87856020015188886040518663ffffffff1660e01b8152600401611af1959493929190613c89565b602060405180830381865afa158015611b0e573d6000803e3d6000fd5b505050506040513d601f19601f82011682018060405250810190611b329190613caf565b611b4e5760405162461bcd60e51b815260040161018290613ccc565b604051636b0f047d60e01b8152600481018290526000907f00000000000000000000000000000000000000000000000000000000000000006001600160a01b031690635664c78e908290636b0f047d90602401606060405180830381865afa158015611bbe573d6000803e3d6000fd5b505050506040513d601f19601f82011682018060405250810190611be29190613b57565b604001516040518263ffffffff1660e01b8152600401611c0491815260200190565b602060405180830381865afa158015611c21573d6000803e3d6000fd5b505050506040513d601f19601f82011682018060405250810190611c459190613cf3565b60008881526004602081905260408220828155600181018390556002810180546001600160a01b031990811690915560038201805490911690559081018290556005015560808401516060850151919250611cab916001600160a01b0316908390612ea2565b336108fc611cf97f00000000000000000000000000000000000000000000000000000000000000007f00000000000000000000000000000000000000000000000000000000000000006135d4565b6040518115909202916000818181858888f19350505050158015611d21573d6000803e3d6000fd5b508260200151877fef8d34edaaafc6b888496fdfdd9806a9aa93377cc5de625ed8e5a8a9c16613508560600151866080015185604051611d6393929190613aef565b60405180910390a3505050611d786001600055565b50505050565b60006060611d8a612df7565b60005a90506003548710611db05760405162461bcd60e51b815260040161018290613a1b565b6000878152600560209081526040808320815160c0810183528154815260018201549381019390935260028101546001600160a01b039081169284019290925260038101549091166060830152600481018054608084019190611e12906136be565b80601f0160208091040260200160405190810160405280929190818152602001828054611e3e906136be565b8015611e8b5780601f10611e6057610100808354040283529160200191611e8b565b820191906000526020600020905b815481529060010190602001808311611e6e57829003601f168201915b50505050508152602001600582015481525050905060007f00000000000000000000000000000000000000000000000000000000000000006001600160a01b031663ba591a36896040518263ffffffff1660e01b8152600401611ef091815260200190565b602060405180830381865afa158015611f0d573d6000803e3d6000fd5b505050506040513d601f19601f82011682018060405250810190611f319190613b12565b604051630fd5856960e21b81529091506000906001600160a01b037f00000000000000000000000000000000000000000000000000000000000000001690633f5615a490611f839033906004016133ad565b602060405180830381865afa158015611fa0573d6000803e3d6000fd5b505050506040513d601f19601f82011682018060405250810190611fc49190613b12565b03611fe15760405162461bcd60e51b815260040161018290613b2b565b604051636b0f047d60e01b81526004810182905233906001600160a01b037f00000000000000000000000000000000000000000000000000000000000000001690636b0f047d90602401606060405180830381865afa158015612048573d6000803e3d6000fd5b505050506040513d601f19601f8201168201806040525081019061206c9190613b57565b516001600160a01b0316146120935760405162461bcd60e51b815260040161018290613bc1565b60608201516001600160a01b03166120bd5760405162461bcd60e51b815260040161018290613a3f565b60408201516001600160a01b03166121135760405162461bcd60e51b8152602060048201526019602482015278696e76616c696420657874656e73696f6e206164647265737360381b6044820152606401610182565b428260a00151116121605760405162461bcd60e51b81526020600482015260176024820152761d5b98db185a5b5959081cdd185d1948195e1c1a5c9959604a1b6044820152606401610182565b8061217d5760405162461bcd60e51b815260040161018290613bf6565b604051636b0f047d60e01b8152600481018290527f00000000000000000000000000000000000000000000000000000000000000006001600160a01b031690636b0f047d90602401606060405180830381865afa1580156121e2573d6000803e3d6000fd5b505050506040513d601f19601f820116820180604052508101906122069190613b57565b602001516122265760405162461bcd60e51b815260040161018290613c2b565b604051636b0f047d60e01b8152600481018290526000907f00000000000000000000000000000000000000000000000000000000000000006001600160a01b031690636b0f047d90602401606060405180830381865afa15801561228e573d6000803e3d6000fd5b505050506040513d601f19601f820116820180604052508101906122b29190613b57565b60400151036122d35760405162461bcd60e51b815260040161018290613c5c565b7f00000000000000000000000000000000000000000000000000000000000000006001600160a01b03166380dc37377f00000000000000000000000000000000000000000000000000000000000000006001600160a01b0316633f5615a4336040518263ffffffff1660e01b815260040161234e91906133ad565b602060405180830381865afa15801561236b573d6000803e3d6000fd5b505050506040513d601f19601f8201168201806040525081019061238f9190613b12565b8a85602001518b8b6040518663ffffffff1660e01b81526004016123b7959493929190613c89565b602060405180830381865afa1580156123d4573d6000803e3d6000fd5b505050506040513d601f19601f820116820180604052508101906123f89190613caf565b6124145760405162461bcd60e51b815260040161018290613ccc565b604051636b0f047d60e01b8152600481018290526000907f00000000000000000000000000000000000000000000000000000000000000006001600160a01b031690635664c78e908290636b0f047d90602401606060405180830381865afa158015612484573d6000803e3d6000fd5b505050506040513d601f19601f820116820180604052508101906124a89190613b57565b604001516040518263ffffffff1660e01b81526004016124ca91815260200190565b602060405180830381865afa1580156124e7573d6000803e3d6000fd5b505050506040513d601f19601f8201168201806040525081019061250b9190613cf3565b60408085015160008d81526005602052918220828155600181018390556002810180546001600160a01b03199081169091556003820180549091169055929350919061255a600483018261313a565b6005820160009055505060006152085a6125749088613a76565b61259e907f0000000000000000000000000000000000000000000000000000000000000000613a76565b6125a89190613a76565b9050805a116125c95760405162461bcd60e51b815260040161018290613a89565b6040516323ac24c360e21b81526001600160a01b03831690638eb0930c9083906125f99089908890600401613d10565b600060405180830381600088803b15801561261357600080fd5b5087f193505050508015612625575060015b61266657612631613842565b806308c379a00361265b575061264561388a565b80612650575061265d565b60009850965061266b565b505b6000975061266b565b600197505b336108fc6126b97f00000000000000000000000000000000000000000000000000000000000000007f00000000000000000000000000000000000000000000000000000000000000006135d4565b6040518115909202916000818181858888f193505050501580156126e1573d6000803e3d6000fd5b5084602001518c7fc174f81bea73edc46dccae6ae23191463a5c6f206ff1da09d047210d01e56f498560405161271791906133ad565b60405180910390a350505050505061272f6001600055565b94509492505050565b6000612742612d98565b60038054600090815260056020526040902001546001600160a01b03161561277c5760405162461bcd60e51b815260040161018290613678565b826127995760405162461bcd60e51b8152600401610182906135eb565b60006127c57f0000000000000000000000000000000000000000000000000000000000000000426135bb565b905060006040518060c0016040528060035481526020018881526020018a6001600160a01b03168152602001896001600160a01b0316815260200187878080601f016020809104026020016040519081016040528093929190818152602001838380828437600092018290525093855250505060209182018590528251815260058252604090819020835181559183015160018301558201516002820180546001600160a01b039283166001600160a01b031991821617909155606084015160038401805491909316911617905560808201519192508a9183919060048201906128af9082613746565b5060a09190910151600590910155600380549060006128cd83613805565b9091555050604051631f6a78b560e11b81526001600160a01b03821690633ed4f16a90612900908590899060040161381e565b600060405180830381600087803b15801561291a57600080fd5b505af192505050801561292b575060015b6129375761096b613842565b878260000151600080516020613e188339815191528c8c878c8c600060405161296596959493929190613d3a565b60405180910390a3505198975050505050505050565b612983612d98565b6001600160a01b0381166129e85760405162461bcd60e51b815260206004820152602660248201527f4f776e61626c653a206e6577206f776e657220697320746865207a65726f206160448201526564647265737360d01b6064820152608401610182565b61153081612e50565b600084600003612a2857612a257f0000000000000000000000000000000000000000000000000000000000000000426135bb565b94505b612a727f00000000000000000000000000000000000000000000000000000000000000007f00000000000000000000000000000000000000000000000000000000000000006135d4565b3414612abd5760405162461bcd60e51b815260206004820152601a602482015279696e76616c696420756e636c61696d65642066756e642066656560301b6044820152606401610182565b60008611612b0d5760405162461bcd60e51b815260206004820152601f60248201527f616d6f756e742073686f756c642062652067726561746572207468616e2030006044820152606401610182565b6001600160a01b038716612b5c5760405162461bcd60e51b81526020600482015260166024820152751a5b9d985b1a59081d1bdad95b8818dbdb9d1c9858dd60521b6044820152606401610182565b87612b795760405162461bcd60e51b81526004016101829061361a565b428511612b985760405162461bcd60e51b81526004016101829061364b565b6002546000908152600460208190526040909120015415612bcb5760405162461bcd60e51b8152600401610182906139ec565b612be06001600160a01b038816333089612f0a565b6040805160c0810182526002805480835260208084018d8152338587019081526001600160a01b038e811660608801908152608088018f815260a089018f815260009788526004968790529987208951815594516001860155925184880180549184166001600160a01b031992831617905590516003850180549190931691161790555191810191909155935160059094019390935580549192612c8383613805565b9190505550888160000151600080516020613df88339815191528a8a338b8b8b8b604051612cb79796959493929190613d90565b60405180910390a35198975050505050505050565b60056020526000908152604090208054600182015460028301546003840154600485018054949593946001600160a01b03938416949290931692612d0f906136be565b80601f0160208091040260200160405190810160405280929190818152602001828054612d3b906136be565b8015612d885780601f10612d5d57610100808354040283529160200191612d88565b820191906000526020600020905b815481529060010190602001808311612d6b57829003601f168201915b5050505050908060050154905086565b33612da161068b565b6001600160a01b0316146111dd5760405162461bcd60e51b815260206004820181905260248201527f4f776e61626c653a2063616c6c6572206973206e6f7420746865206f776e65726044820152606401610182565b600260005403612e495760405162461bcd60e51b815260206004820152601f60248201527f5265656e7472616e637947756172643a207265656e7472616e742063616c6c006044820152606401610182565b6002600055565b600180546001600160a01b038381166001600160a01b0319831681179093556040519116919082907f8be0079c531659141344cd1fd0a4f28419497f9722a3daafe3b4186f6b6457e090600090a35050565b6040516001600160a01b038316602482015260448101829052612f0590849063a9059cbb60e01b906064015b60408051601f198184030181529190526020810180516001600160e01b03166001600160e01b031990931692909217909152612f42565b505050565b6040516001600160a01b0380851660248301528316604482015260648101829052611d789085906323b872dd60e01b90608401612ece565b6000612f97826040518060400160405280602081526020017f5361666545524332303a206c6f772d6c6576656c2063616c6c206661696c6564815250856001600160a01b03166130179092919063ffffffff16565b9050805160001480612fb8575080806020019051810190612fb89190613caf565b612f055760405162461bcd60e51b815260206004820152602a60248201527f5361666545524332303a204552433230206f7065726174696f6e20646964206e6044820152691bdd081cdd58d8d9595960b21b6064820152608401610182565b6060610bc4848460008585600080866001600160a01b0316858760405161303e9190613ddb565b60006040518083038185875af1925050503d806000811461307b576040519150601f19603f3d011682016040523d82523d6000602084013e613080565b606091505b50915091506130918783838761309c565b979650505050505050565b6060831561310b578251600003613104576001600160a01b0385163b6131045760405162461bcd60e51b815260206004820152601d60248201527f416464726573733a2063616c6c20746f206e6f6e2d636f6e74726163740000006044820152606401610182565b5081610bc4565b610bc483838151156131205781518083602001fd5b8060405162461bcd60e51b81526004016101829190613954565b508054613146906136be565b6000825580601f10613156575050565b601f01602090049060005260206000209081019061153091905b808211156131845760008155600101613170565b5090565b6001600160a01b038116811461153057600080fd5b60008083601f8401126131af57600080fd5b5081356001600160401b038111156131c657600080fd5b6020830191508360208285010111156131de57600080fd5b9250929050565b60008060008060008060008060c0898b03121561320157600080fd5b88359750602089013561321381613188565b965060408901356001600160401b038082111561322f57600080fd5b61323b8c838d0161319d565b909850965060608b0135955060808b0135945060a08b013591508082111561326257600080fd5b5061326f8b828c0161319d565b999c989b5096995094979396929594505050565b6000806000806080858703121561329957600080fd5b84356132a481613188565b93506020850135925060408501356132bb81613188565b9396929550929360600135925050565b6000602082840312156132dd57600080fd5b5035919050565b60005b838110156132ff5781810151838201526020016132e7565b50506000910152565b600081518084526133208160208601602086016132e4565b601f01601f19169290920160200192915050565b80518252602081015160208301526000604082015160018060a01b0380821660408601528060608501511660608601525050608082015160c0608085015261337f60c0850182613308565b60a093840151949093019390935250919050565b6020815260006133a66020830184613334565b9392505050565b6001600160a01b0391909116815260200190565b8215158152604060208201526000610bc46040830184613308565b600080600080606085870312156133f257600080fd5b843593506020850135925060408501356001600160401b0381111561341657600080fd5b6134228782880161319d565b95989497509550505050565b801515811461153057600080fd5b60008060008060008060a0878903121561345557600080fd5b863561346081613188565b9550602087013561347081613188565b94506040870135935060608701356001600160401b0381111561349257600080fd5b61349e89828a0161319d565b90945092505060808701356134b28161342e565b809150509295509295509295565b6000602082840312156134d257600080fd5b81356133a681613188565b600080600080600080600060c0888a0312156134f857600080fd5b87359650602088013561350a81613188565b955060408801359450606088013593506080880135925060a08801356001600160401b0381111561353a57600080fd5b6135468a828b0161319d565b989b979a50959850939692959293505050565b868152602081018690526001600160a01b0385811660408301528416606082015260c06080820181905260009061359290830185613308565b90508260a0830152979650505050505050565b634e487b7160e01b600052601160045260246000fd5b808201808211156135ce576135ce6135a5565b92915050565b80820281158282048414176135ce576135ce6135a5565b60208082526015908201527473746174652063616e6e6f7420626520656d70747960581b604082015260600190565b6020808252601790820152761a5b9d985b1a5908195b585a5b1059191c90dbdb5b5a5d604a1b604082015260600190565b602080825260139082015272696e76616c6964206578706972792074696d6560681b604082015260600190565b602080825260169082015275756e636c61696d65642073746174652065786973747360501b604082015260600190565b634e487b7160e01b600052604160045260246000fd5b600181811c908216806136d257607f821691505b6020821081036136f257634e487b7160e01b600052602260045260246000fd5b50919050565b601f821115612f0557600081815260208120601f850160051c8101602086101561371f5750805b601f850160051c820191505b8181101561373e5782815560010161372b565b505050505050565b81516001600160401b0381111561375f5761375f6136a8565b6137738161376d84546136be565b846136f8565b602080601f8311600181146137a857600084156137905750858301515b600019600386901b1c1916600185901b17855561373e565b600085815260208120601f198616915b828110156137d7578886015182559484019460019091019084016137b8565b50858210156137f55787850151600019600388901b60f8161c191681555b5050505050600190811b01905550565b600060018201613817576138176135a5565b5060010190565b6040815260006138316040830185613334565b905082151560208301529392505050565b600060033d111561385b5760046000803e5060005160e01c5b90565b601f8201601f191681016001600160401b0381118282101715613883576138836136a8565b6040525050565b600060443d10156138985790565b6040516003193d81016004833e81513d6001600160401b0380831160248401831017156138c757505050505090565b82850191508151818111156138df5750505050505090565b843d87010160208285010111156138f95750505050505090565b6139086020828601018761385e565b509095945050505050565b7803ab731b630b4b6b2b21039ba30ba32903932b39032b9391d1603d1b8152600082516139478160198501602087016132e4565b9190910160190192915050565b6020815260006133a66020830184613308565b81835281816020850137506000828201602090810191909152601f909101601f19169091010190565b6001600160a01b038981168252881660208201526040810187905260c0606082018190526000906139c49083018789613967565b85608084015282810360a08401526139dd818587613967565b9b9a5050505050505050505050565b602080825260159082015274756e636c61696d65642066756e642065786973747360581b604082015260600190565b6020808252600a90820152691a5b9d985b1a59081a5960b21b604082015260600190565b6020808252601e908201527f756e636c61696d6564207374617465206e6f7420726567697374657265640000604082015260600190565b818103818111156135ce576135ce6135a5565b6020808252601590820152741a5b9cdd59999a58da595b9d0819d85cc81b19599d605a1b604082015260600190565b6020808252601d908201527f756e636c61696d65642066756e64206e6f742072656769737465726564000000604082015260600190565b6001600160a01b0393841681526020810192909252909116604082015260600190565b600060208284031215613b2457600080fd5b5051919050565b60208082526012908201527131b0b63632b9103737ba103932b630bcb2b960711b604082015260600190565b600060608284031215613b6957600080fd5b604051606081016001600160401b0381118282101715613b8b57613b8b6136a8565b6040528251613b9981613188565b81526020830151613ba98161342e565b60208201526040928301519281019290925250919050565b6020808252601b908201527a1a5b9d985b1a59081c995b185e595c88199bdc881858d8dbdd5b9d602a1b604082015260600190565b6020808252601b908201527a34b73b30b634b21030b1b1b7bab73a1035b2bc9031b7b6b6b4ba1760291b604082015260600190565b6020808252601790820152761858d8dbdd5b9d081b9bdd081a5b9a5d1a585b1a5e9959604a1b604082015260600190565b6020808252601390820152721a5b9d985b1a59081dd85b1b195d081cd85b1d606a1b604082015260600190565b858152846020820152836040820152608060608201526000613091608083018486613967565b600060208284031215613cc157600080fd5b81516133a68161342e565b6020808252600d908201526c34b73b30b634b210383937b7b360991b604082015260600190565b600060208284031215613d0557600080fd5b81516133a681613188565b604081526000613d236040830185613334565b905060018060a01b03831660208301529392505050565b6001600160a01b038781168252861660208201526040810185905260c060608201819052600090613d6e9083018587613967565b60808301939093525080820360a0909101526000815260200195945050505050565b600060018060a01b03808a16835288602084015280881660408401525085606083015284608083015260c060a0830152613dce60c083018486613967565b9998505050505050505050565b60008251613ded8184602087016132e4565b919091019291505056fe85c4a8f8db5b961cba8f77ec376273369ac4de1015fe3339e858c8c86e8ca0c93d4f419954f8e623920443782544b99437be3d18a51ea8790df36db174069cb4a2646970667358221220e90850bbbe873542f693011e6f3164931715d12a2c3fb3681fbbd9173de4e8af64736f6c63430008110033",
    "linkReferences": {}
  },
  "methodIdentifiers": {
    "accountHandler()": "33ddfb9a",
    "claimUnclaimedFund(uint256,bytes32,bytes)": "8ddda0eb",
    "claimUnclaimedState(uint256,bytes32,bytes)": "c9646647",
    "getUnclaimedFund(uint256)": "81763f64",
    "getUnclaimedState(uint256)": "223008d6",
    "maxFeePerGas()": "2728bf2c",
    "numUnclaimedFunds()": "b5072bc6",
    "numUnclaimedStates()": "5fa7a696",
    "owner()": "8da5cb5b",
    "registerUnclaimedFund(bytes32,address,uint256,uint256,uint256,string)": "f9df978e",
    "registerUnclaimedFundInternal(address,bytes32,address,uint256)": "1bae92f7",
    "registerUnclaimedState(bytes32,address,bytes,uint256,uint256,string)": "0e878b9b",
    "registerUnclaimedStateInternal(address,address,bytes32,bytes,bool)": "def27db7",
    "relayerHandler()": "5e5f2610",
    "renounceOwnership()": "715018a6",
    "transferOwnership(address)": "f2fde38b",
    "unclaimedFundClaimGas()": "66221734",
    "unclaimedFundOfId(uint256)": "d27d6a12",
    "unclaimedStateClaimGas()": "a87fedae",
    "unclaimedStateOfId(uint256)": "ff8b4ccf",
    "unclaimsExpiryDuration()": "cdbe49f0",
    "verifier()": "2b7ac3f3",
    "voidUnclaimedFund(uint256)": "85959ac3",
    "voidUnclaimedState(uint256)": "616ad001"
  },
  "id": 135
}