{
  "abi": [
    {
      "inputs": [],
      "stateMutability": "nonpayable",
      "type": "constructor"
    },
    {
      "anonymous": false,
      "inputs": [
        {
          "indexed": false,
          "internalType": "address",
          "name": "previousAdmin",
          "type": "address"
        },
        {
          "indexed": false,
          "internalType": "address",
          "name": "newAdmin",
          "type": "address"
        }
      ],
      "name": "AdminChanged",
      "type": "event"
    },
    {
      "anonymous": false,
      "inputs": [
        {
          "indexed": true,
          "internalType": "address",
          "name": "beacon",
          "type": "address"
        }
      ],
      "name": "BeaconUpgraded",
      "type": "event"
    },
    {
      "anonymous": false,
      "inputs": [
        {
          "indexed": false,
          "internalType": "uint8",
          "name": "version",
          "type": "uint8"
        }
      ],
      "name": "Initialized",
      "type": "event"
    },
    {
      "anonymous": false,
      "inputs": [
        {
          "indexed": true,
          "internalType": "address",
          "name": "previousOwner",
          "type": "address"
        },
        {
          "indexed": true,
          "internalType": "address",
          "name": "newOwner",
          "type": "address"
        }
      ],
      "name": "OwnershipTransferred",
      "type": "event"
    },
    {
      "anonymous": false,
      "inputs": [
        {
          "indexed": true,
          "internalType": "uint256",
          "name": "id",
          "type": "uint256"
        },
        {
          "indexed": true,
          "internalType": "bytes32",
          "name": "emailAddrCommit",
          "type": "bytes32"
        },
        {
          "indexed": false,
          "internalType": "address",
          "name": "tokenAddr",
          "type": "address"
        },
        {
          "indexed": false,
          "internalType": "uint256",
          "name": "amount",
          "type": "uint256"
        },
        {
          "indexed": false,
          "internalType": "address",
          "name": "recipient",
          "type": "address"
        }
      ],
      "name": "UnclaimedFundClaimed",
      "type": "event"
    },
    {
      "anonymous": false,
      "inputs": [
        {
          "indexed": true,
          "internalType": "uint256",
          "name": "id",
          "type": "uint256"
        },
        {
          "indexed": true,
          "internalType": "bytes32",
          "name": "emailAddrCommit",
          "type": "bytes32"
        },
        {
          "indexed": false,
          "internalType": "address",
          "name": "tokenAddr",
          "type": "address"
        },
        {
          "indexed": false,
          "internalType": "uint256",
          "name": "amount",
          "type": "uint256"
        },
        {
          "indexed": false,
          "internalType": "address",
          "name": "sender",
          "type": "address"
        },
        {
          "indexed": false,
          "internalType": "uint256",
          "name": "expiryTime",
          "type": "uint256"
        },
        {
          "indexed": false,
          "internalType": "uint256",
          "name": "commitmentRandomness",
          "type": "uint256"
        },
        {
          "indexed": false,
          "internalType": "string",
          "name": "emailAddr",
          "type": "string"
        }
      ],
      "name": "UnclaimedFundRegistered",
      "type": "event"
    },
    {
      "anonymous": false,
      "inputs": [
        {
          "indexed": true,
          "internalType": "uint256",
          "name": "id",
          "type": "uint256"
        },
        {
          "indexed": true,
          "internalType": "bytes32",
          "name": "emailAddrCommit",
          "type": "bytes32"
        },
        {
          "indexed": false,
          "internalType": "address",
          "name": "tokenAddr",
          "type": "address"
        },
        {
          "indexed": false,
          "internalType": "uint256",
          "name": "amount",
          "type": "uint256"
        },
        {
          "indexed": false,
          "internalType": "address",
          "name": "sender",
          "type": "address"
        }
      ],
      "name": "UnclaimedFundVoided",
      "type": "event"
    },
    {
      "anonymous": false,
      "inputs": [
        {
          "indexed": true,
          "internalType": "uint256",
          "name": "id",
          "type": "uint256"
        },
        {
          "indexed": true,
          "internalType": "bytes32",
          "name": "emailAddrCommit",
          "type": "bytes32"
        },
        {
          "indexed": false,
          "internalType": "address",
          "name": "recipient",
          "type": "address"
        }
      ],
      "name": "UnclaimedStateClaimed",
      "type": "event"
    },
    {
      "anonymous": false,
      "inputs": [
        {
          "indexed": true,
          "internalType": "uint256",
          "name": "id",
          "type": "uint256"
        },
        {
          "indexed": true,
          "internalType": "bytes32",
          "name": "emailAddrCommit",
          "type": "bytes32"
        },
        {
          "indexed": false,
          "internalType": "address",
          "name": "extensionAddr",
          "type": "address"
        },
        {
          "indexed": false,
          "internalType": "address",
          "name": "sender",
          "type": "address"
        },
        {
          "indexed": false,
          "internalType": "uint256",
          "name": "expiryTime",
          "type": "uint256"
        },
        {
          "indexed": false,
          "internalType": "bytes",
          "name": "state",
          "type": "bytes"
        },
        {
          "indexed": false,
          "internalType": "uint256",
          "name": "commitmentRandomness",
          "type": "uint256"
        },
        {
          "indexed": false,
          "internalType": "string",
          "name": "emailAddr",
          "type": "string"
        }
      ],
      "name": "UnclaimedStateRegistered",
      "type": "event"
    },
    {
      "anonymous": false,
      "inputs": [
        {
          "indexed": true,
          "internalType": "uint256",
          "name": "id",
          "type": "uint256"
        },
        {
          "indexed": true,
          "internalType": "bytes32",
          "name": "emailAddrCommit",
          "type": "bytes32"
        },
        {
          "indexed": false,
          "internalType": "address",
          "name": "sender",
          "type": "address"
        }
      ],
      "name": "UnclaimedStateVoided",
      "type": "event"
    },
    {
      "anonymous": false,
      "inputs": [
        {
          "indexed": true,
          "internalType": "address",
          "name": "implementation",
          "type": "address"
        }
      ],
      "name": "Upgraded",
      "type": "event"
    },
    {
      "inputs": [],
      "name": "accountHandler",
      "outputs": [
        {
          "internalType": "contract AccountHandler",
          "name": "",
          "type": "address"
        }
      ],
      "stateMutability": "view",
      "type": "function"
    },
    {
      "inputs": [
        {
          "internalType": "uint256",
          "name": "id",
          "type": "uint256"
        },
        {
          "internalType": "bytes32",
          "name": "recipientWalletSalt",
          "type": "bytes32"
        },
        {
          "internalType": "bytes",
          "name": "proof",
          "type": "bytes"
        }
      ],
      "name": "claimUnclaimedFund",
      "outputs": [],
      "stateMutability": "nonpayable",
      "type": "function"
    },
    {
      "inputs": [
        {
          "internalType": "uint256",
          "name": "id",
          "type": "uint256"
        },
        {
          "internalType": "bytes32",
          "name": "recipientWalletSalt",
          "type": "bytes32"
        },
        {
          "internalType": "bytes",
          "name": "proof",
          "type": "bytes"
        }
      ],
      "name": "claimUnclaimedState",
      "outputs": [
        {
          "internalType": "bool",
          "name": "success",
          "type": "bool"
        },
        {
          "internalType": "bytes",
          "name": "returnData",
          "type": "bytes"
        }
      ],
      "stateMutability": "nonpayable",
      "type": "function"
    },
    {
      "inputs": [
        {
          "internalType": "uint256",
          "name": "id",
          "type": "uint256"
        }
      ],
      "name": "getUnclaimedFund",
      "outputs": [
        {
          "components": [
            {
              "internalType": "uint256",
              "name": "id",
              "type": "uint256"
            },
            {
              "internalType": "bytes32",
              "name": "emailAddrCommit",
              "type": "bytes32"
            },
            {
              "internalType": "address",
              "name": "sender",
              "type": "address"
            },
            {
              "internalType": "address",
              "name": "tokenAddr",
              "type": "address"
            },
            {
              "internalType": "uint256",
              "name": "amount",
              "type": "uint256"
            },
            {
              "internalType": "uint256",
              "name": "expiryTime",
              "type": "uint256"
            }
          ],
          "internalType": "struct UnclaimedFund",
          "name": "",
          "type": "tuple"
        }
      ],
      "stateMutability": "view",
      "type": "function"
    },
    {
      "inputs": [
        {
          "internalType": "uint256",
          "name": "id",
          "type": "uint256"
        }
      ],
      "name": "getUnclaimedState",
      "outputs": [
        {
          "components": [
            {
              "internalType": "uint256",
              "name": "id",
              "type": "uint256"
            },
            {
              "internalType": "bytes32",
              "name": "emailAddrCommit",
              "type": "bytes32"
            },
            {
              "internalType": "address",
              "name": "extensionAddr",
              "type": "address"
            },
            {
              "internalType": "address",
              "name": "sender",
              "type": "address"
            },
            {
              "internalType": "bytes",
              "name": "state",
              "type": "bytes"
            },
            {
              "internalType": "uint256",
              "name": "expiryTime",
              "type": "uint256"
            }
          ],
          "internalType": "struct UnclaimedState",
          "name": "",
          "type": "tuple"
        }
      ],
      "stateMutability": "view",
      "type": "function"
    },
    {
      "inputs": [
        {
          "internalType": "address",
          "name": "_relayerHandler",
          "type": "address"
        },
        {
          "internalType": "address",
          "name": "_accountHandler",
          "type": "address"
        },
        {
          "internalType": "address",
          "name": "_verifier",
          "type": "address"
        },
        {
          "internalType": "uint256",
          "name": "_unclaimedFundClaimGas",
          "type": "uint256"
        },
        {
          "internalType": "uint256",
          "name": "_unclaimedStateClaimGas",
          "type": "uint256"
        },
        {
          "internalType": "uint256",
          "name": "_unclaimsExpiryDuration",
          "type": "uint256"
        },
        {
          "internalType": "uint256",
          "name": "_maxFeePerGas",
          "type": "uint256"
        }
      ],
      "name": "initialize",
      "outputs": [],
      "stateMutability": "nonpayable",
      "type": "function"
    },
    {
      "inputs": [],
      "name": "maxFeePerGas",
      "outputs": [
        {
          "internalType": "uint256",
          "name": "",
          "type": "uint256"
        }
      ],
      "stateMutability": "view",
      "type": "function"
    },
    {
      "inputs": [],
      "name": "numUnclaimedFunds",
      "outputs": [
        {
          "internalType": "uint256",
          "name": "",
          "type": "uint256"
        }
      ],
      "stateMutability": "view",
      "type": "function"
    },
    {
      "inputs": [],
      "name": "numUnclaimedStates",
      "outputs": [
        {
          "internalType": "uint256",
          "name": "",
          "type": "uint256"
        }
      ],
      "stateMutability": "view",
      "type": "function"
    },
    {
      "inputs": [],
      "name": "owner",
      "outputs": [
        {
          "internalType": "address",
          "name": "",
          "type": "address"
        }
      ],
      "stateMutability": "view",
      "type": "function"
    },
    {
      "inputs": [],
      "name": "proxiableUUID",
      "outputs": [
        {
          "internalType": "bytes32",
          "name": "",
          "type": "bytes32"
        }
      ],
      "stateMutability": "view",
      "type": "function"
    },
    {
      "inputs": [
        {
          "internalType": "bytes32",
          "name": "emailAddrCommit",
          "type": "bytes32"
        },
        {
          "internalType": "address",
          "name": "tokenAddr",
          "type": "address"
        },
        {
          "internalType": "uint256",
          "name": "amount",
          "type": "uint256"
        },
        {
          "internalType": "uint256",
          "name": "expiryTime",
          "type": "uint256"
        },
        {
          "internalType": "uint256",
          "name": "announceCommitRandomness",
          "type": "uint256"
        },
        {
          "internalType": "string",
          "name": "announceEmailAddr",
          "type": "string"
        }
      ],
      "name": "registerUnclaimedFund",
      "outputs": [
        {
          "internalType": "uint256",
          "name": "",
          "type": "uint256"
        }
      ],
      "stateMutability": "payable",
      "type": "function"
    },
    {
      "inputs": [
        {
          "internalType": "address",
          "name": "sender",
          "type": "address"
        },
        {
          "internalType": "bytes32",
          "name": "emailAddrCommit",
          "type": "bytes32"
        },
        {
          "internalType": "address",
          "name": "tokenAddr",
          "type": "address"
        },
        {
          "internalType": "uint256",
          "name": "amount",
          "type": "uint256"
        }
      ],
      "name": "registerUnclaimedFundInternal",
      "outputs": [
        {
          "internalType": "uint256",
          "name": "",
          "type": "uint256"
        }
      ],
      "stateMutability": "nonpayable",
      "type": "function"
    },
    {
      "inputs": [
        {
          "internalType": "bytes32",
          "name": "emailAddrCommit",
          "type": "bytes32"
        },
        {
          "internalType": "address",
          "name": "extensionAddr",
          "type": "address"
        },
        {
          "internalType": "bytes",
          "name": "state",
          "type": "bytes"
        },
        {
          "internalType": "uint256",
          "name": "expiryTime",
          "type": "uint256"
        },
        {
          "internalType": "uint256",
          "name": "announceCommitRandomness",
          "type": "uint256"
        },
        {
          "internalType": "string",
          "name": "announceEmailAddr",
          "type": "string"
        }
      ],
      "name": "registerUnclaimedState",
      "outputs": [
        {
          "internalType": "uint256",
          "name": "",
          "type": "uint256"
        }
      ],
      "stateMutability": "payable",
      "type": "function"
    },
    {
      "inputs": [
        {
          "internalType": "address",
          "name": "extensionAddr",
          "type": "address"
        },
        {
          "internalType": "address",
          "name": "sender",
          "type": "address"
        },
        {
          "internalType": "bytes32",
          "name": "recipientEmailAddrCommit",
          "type": "bytes32"
        },
        {
          "internalType": "bytes",
          "name": "state",
          "type": "bytes"
        },
        {
          "internalType": "bool",
          "name": "isInternal",
          "type": "bool"
        }
      ],
      "name": "registerUnclaimedStateInternal",
      "outputs": [
        {
          "internalType": "uint256",
          "name": "",
          "type": "uint256"
        }
      ],
      "stateMutability": "nonpayable",
      "type": "function"
    },
    {
      "inputs": [],
      "name": "relayerHandler",
      "outputs": [
        {
          "internalType": "contract RelayerHandler",
          "name": "",
          "type": "address"
        }
      ],
      "stateMutability": "view",
      "type": "function"
    },
    {
      "inputs": [],
      "name": "renounceOwnership",
      "outputs": [],
      "stateMutability": "nonpayable",
      "type": "function"
    },
    {
      "inputs": [
        {
          "internalType": "address",
          "name": "newOwner",
          "type": "address"
        }
      ],
      "name": "transferOwnership",
      "outputs": [],
      "stateMutability": "nonpayable",
      "type": "function"
    },
    {
      "inputs": [],
      "name": "unclaimedFundClaimGas",
      "outputs": [
        {
          "internalType": "uint256",
          "name": "",
          "type": "uint256"
        }
      ],
      "stateMutability": "view",
      "type": "function"
    },
    {
      "inputs": [
        {
          "internalType": "uint256",
          "name": "",
          "type": "uint256"
        }
      ],
      "name": "unclaimedFundOfId",
      "outputs": [
        {
          "internalType": "uint256",
          "name": "id",
          "type": "uint256"
        },
        {
          "internalType": "bytes32",
          "name": "emailAddrCommit",
          "type": "bytes32"
        },
        {
          "internalType": "address",
          "name": "sender",
          "type": "address"
        },
        {
          "internalType": "address",
          "name": "tokenAddr",
          "type": "address"
        },
        {
          "internalType": "uint256",
          "name": "amount",
          "type": "uint256"
        },
        {
          "internalType": "uint256",
          "name": "expiryTime",
          "type": "uint256"
        }
      ],
      "stateMutability": "view",
      "type": "function"
    },
    {
      "inputs": [],
      "name": "unclaimedStateClaimGas",
      "outputs": [
        {
          "internalType": "uint256",
          "name": "",
          "type": "uint256"
        }
      ],
      "stateMutability": "view",
      "type": "function"
    },
    {
      "inputs": [
        {
          "internalType": "uint256",
          "name": "",
          "type": "uint256"
        }
      ],
      "name": "unclaimedStateOfId",
      "outputs": [
        {
          "internalType": "uint256",
          "name": "id",
          "type": "uint256"
        },
        {
          "internalType": "bytes32",
          "name": "emailAddrCommit",
          "type": "bytes32"
        },
        {
          "internalType": "address",
          "name": "extensionAddr",
          "type": "address"
        },
        {
          "internalType": "address",
          "name": "sender",
          "type": "address"
        },
        {
          "internalType": "bytes",
          "name": "state",
          "type": "bytes"
        },
        {
          "internalType": "uint256",
          "name": "expiryTime",
          "type": "uint256"
        }
      ],
      "stateMutability": "view",
      "type": "function"
    },
    {
      "inputs": [],
      "name": "unclaimsExpiryDuration",
      "outputs": [
        {
          "internalType": "uint256",
          "name": "",
          "type": "uint256"
        }
      ],
      "stateMutability": "view",
      "type": "function"
    },
    {
      "inputs": [
        {
          "internalType": "address",
          "name": "newImplementation",
          "type": "address"
        }
      ],
      "name": "upgradeTo",
      "outputs": [],
      "stateMutability": "nonpayable",
      "type": "function"
    },
    {
      "inputs": [
        {
          "internalType": "address",
          "name": "newImplementation",
          "type": "address"
        },
        {
          "internalType": "bytes",
          "name": "data",
          "type": "bytes"
        }
      ],
      "name": "upgradeToAndCall",
      "outputs": [],
      "stateMutability": "payable",
      "type": "function"
    },
    {
      "inputs": [],
      "name": "verifier",
      "outputs": [
        {
          "internalType": "contract IVerifier",
          "name": "",
          "type": "address"
        }
      ],
      "stateMutability": "view",
      "type": "function"
    },
    {
      "inputs": [
        {
          "internalType": "uint256",
          "name": "id",
          "type": "uint256"
        }
      ],
      "name": "voidUnclaimedFund",
      "outputs": [],
      "stateMutability": "nonpayable",
      "type": "function"
    },
    {
      "inputs": [
        {
          "internalType": "uint256",
          "name": "id",
          "type": "uint256"
        }
      ],
      "name": "voidUnclaimedState",
      "outputs": [
        {
          "internalType": "bool",
          "name": "success",
          "type": "bool"
        },
        {
          "internalType": "bytes",
          "name": "returnData",
          "type": "bytes"
        }
      ],
      "stateMutability": "nonpayable",
      "type": "function"
    },
    {
      "stateMutability": "payable",
      "type": "receive"
    }
  ],
  "bytecode": {
    "object": "0x60a0604052306080523480156200001557600080fd5b506001600055620000256200002b565b620000ec565b600154610100900460ff1615620000985760405162461bcd60e51b815260206004820152602760248201527f496e697469616c697a61626c653a20636f6e747261637420697320696e697469604482015266616c697a696e6760c81b606482015260840160405180910390fd5b60015460ff90811614620000ea576001805460ff191660ff9081179091556040519081527f7f26b83ff96e1f2b6a682f133852f6798a09c465da95921460cefb38474024989060200160405180910390a15b565b60805161496a620001246000396000818161114d015281816111e30152818161131e015281816113b401526114e3015261496a6000f3fe6080604052600436106101bb5760003560e01c8063715018a6116100ec578063c96466471161008a578063def27db711610064578063def27db7146106e6578063f2fde38b14610706578063f9df978e14610726578063ff8b4ccf1461073957600080fd5b8063c9646647146105ff578063cdbe49f01461061f578063d27d6a121461063557600080fd5b80638da5cb5b116100c65780638da5cb5b146105885780638ddda0eb146105b3578063a87fedae146105d3578063b5072bc6146105e957600080fd5b8063715018a61461042a57806381763f641461043f57806385959ac31461056857600080fd5b80633659cfe6116101595780635e5f2610116101335780635e5f2610146103a35780635fa7a696146103d0578063616ad001146103e6578063662217341461041457600080fd5b80633659cfe61461035b5780634f1ef2861461037b57806352d1902d1461038e57600080fd5b80632728bf2c116101955780632728bf2c146102a65780632b4656c8146102bc5780632b7ac3f3146102dc57806333ddfb9a1461032e57600080fd5b80630e878b9b146102335780631bae92f714610259578063223008d61461027957600080fd5b3661022e5760345473ffffffffffffffffffffffffffffffffffffffff16331461022c5760405162461bcd60e51b815260206004820152601760248201527f6f6e6c79206f776e65722063616e2073656e642045544800000000000000000060448201526064015b60405180910390fd5b005b600080fd5b610246610241366004613da2565b61076b565b6040519081526020015b60405180910390f35b34801561026557600080fd5b50610246610274366004613e41565b610c32565b34801561028557600080fd5b50610299610294366004613e89565b610e05565b6040516102509190613f7d565b3480156102b257600080fd5b50610246606d5481565b3480156102c857600080fd5b5061022c6102d7366004613f90565b610f3c565b3480156102e857600080fd5b506067546103099073ffffffffffffffffffffffffffffffffffffffff1681565b60405173ffffffffffffffffffffffffffffffffffffffff9091168152602001610250565b34801561033a57600080fd5b506068546103099073ffffffffffffffffffffffffffffffffffffffff1681565b34801561036757600080fd5b5061022c610376366004613ffe565b611136565b61022c61038936600461409c565b611307565b34801561039a57600080fd5b506102466114c9565b3480156103af57600080fd5b506069546103099073ffffffffffffffffffffffffffffffffffffffff1681565b3480156103dc57600080fd5b50610246606f5481565b3480156103f257600080fd5b50610406610401366004613e89565b61159c565b604051610250929190614166565b34801561042057600080fd5b50610246606a5481565b34801561043657600080fd5b5061022c611b26565b34801561044b57600080fd5b5061050061045a366004613e89565b6040805160c081018252600080825260208201819052918101829052606081018290526080810182905260a081019190915250600090815260706020908152604091829020825160c08101845281548152600182015492810192909252600281015473ffffffffffffffffffffffffffffffffffffffff90811693830193909352600381015490921660608201526004820154608082015260059091015460a082015290565b6040516102509190600060c0820190508251825260208301516020830152604083015173ffffffffffffffffffffffffffffffffffffffff808216604085015280606086015116606085015250506080830151608083015260a083015160a083015292915050565b34801561057457600080fd5b5061022c610583366004613e89565b611b3a565b34801561059457600080fd5b5060345473ffffffffffffffffffffffffffffffffffffffff16610309565b3480156105bf57600080fd5b5061022c6105ce366004614181565b611f1a565b3480156105df57600080fd5b50610246606b5481565b3480156105f557600080fd5b50610246606e5481565b34801561060b57600080fd5b5061040661061a366004614181565b6123bb565b34801561062b57600080fd5b50610246606c5481565b34801561064157600080fd5b5061069f610650366004613e89565b6070602052600090815260409020805460018201546002830154600384015460048501546005909501549394929373ffffffffffffffffffffffffffffffffffffffff92831693919092169186565b60408051968752602087019590955273ffffffffffffffffffffffffffffffffffffffff9384169486019490945291166060840152608083015260a082015260c001610250565b3480156106f257600080fd5b506102466107013660046141e2565b612a8e565b34801561071257600080fd5b5061022c610721366004613ffe565b612d9a565b610246610734366004614267565b612e34565b34801561074557600080fd5b50610759610754366004613e89565b6131a2565b604051610250969594939291906142e4565b60008460000361078557606c54610782904261436b565b94505b606d54606b54610795919061437e565b34146107e35760405162461bcd60e51b815260206004820152601b60248201527f696e76616c696420756e636c61696d65642073746174652066656500000000006044820152606401610223565b856108305760405162461bcd60e51b815260206004820152601560248201527f73746174652063616e6e6f7420626520656d70747900000000000000000000006044820152606401610223565b8861087d5760405162461bcd60e51b815260206004820152601760248201527f696e76616c696420656d61696c41646472436f6d6d69740000000000000000006044820152606401610223565b4285116108cc5760405162461bcd60e51b815260206004820152601360248201527f696e76616c6964206578706972792074696d65000000000000000000000000006044820152606401610223565b606f5460009081526071602052604090206003015473ffffffffffffffffffffffffffffffffffffffff16156109445760405162461bcd60e51b815260206004820152601660248201527f756e636c61696d656420737461746520657869737473000000000000000000006044820152606401610223565b60006040518060c00160405280606f5481526020018b81526020018a73ffffffffffffffffffffffffffffffffffffffff1681526020013373ffffffffffffffffffffffffffffffffffffffff16815260200189898080601f0160208091040260200160405190810160405280939291908181526020018383808284376000920182905250938552505050602091820189905282518152607182526040908190208351815591830151600183015582015160028201805473ffffffffffffffffffffffffffffffffffffffff9283167fffffffffffffffffffffffff000000000000000000000000000000000000000091821617909155606084015160038401805491909316911617905560808201519192508a918391906004820190610a6b9082614436565b5060a09190910151600590910155606f8054906000610a8983614550565b90915550506040517f3ed4f16a00000000000000000000000000000000000000000000000000000000815273ffffffffffffffffffffffffffffffffffffffff821690633ed4f16a90610ae3908590600090600401614588565b600060405180830381600087803b158015610afd57600080fd5b505af1925050508015610b0e575060015b610bd857610b1a6145ac565b806308c379a003610b8e5750610b2e6145c7565b80610b395750610b90565b80604051602001610b4a919061466f565b604080517fffffffffffffffffffffffffffffffffffffffffffffffffffffffffffffffe08184030181529082905262461bcd60e51b8252610223916004016146b4565b505b60405162461bcd60e51b815260206004820152601760248201527f756e636c61696d656420737461746520726567206572720000000000000000006044820152606401610223565b8a82600001517f3d4f419954f8e623920443782544b99437be3d18a51ea8790df36db174069cb48c338b8e8e8d8d8d604051610c1b989796959493929190614710565b60405180910390a350519998505050505050505050565b6000610c3c61327b565b606e5460009081526070602052604090206004015415610c9e5760405162461bcd60e51b815260206004820152601560248201527f756e636c61696d65642066756e642065786973747300000000000000000000006044820152606401610223565b6000606c5442610cae919061436b565b6040805160c081018252606e805480835260208084018b815273ffffffffffffffffffffffffffffffffffffffff808e168688019081528c821660608801908152608088018d815260a089018b815260009788526070909652988620885181559351600185015590516002840180549184167fffffffffffffffffffffffff0000000000000000000000000000000000000000928316179055905160038401805491909316911617905594516004860155516005909401939093558054939450909291610d7a83614550565b909155505080516040805173ffffffffffffffffffffffffffffffffffffffff8881168252602082018890528a16818301526060810185905260006080820181905260c060a0830181905282015290518892917f85c4a8f8db5b961cba8f77ec376273369ac4de1015fe3339e858c8c86e8ca0c9919081900360e00190a3519150505b949350505050565b6040805160c0810182526000808252602082018190529181018290526060808201839052608082015260a0810191909152600082815260716020908152604091829020825160c08101845281548152600182015492810192909252600281015473ffffffffffffffffffffffffffffffffffffffff9081169383019390935260038101549092166060820152600482018054919291608084019190610ea990614395565b80601f0160208091040260200160405190810160405280929190818152602001828054610ed590614395565b8015610f225780601f10610ef757610100808354040283529160200191610f22565b820191906000526020600020905b815481529060010190602001808311610f0557829003601f168201915b505050505081526020016005820154815250509050919050565b600154610100900460ff1615808015610f5957506001805460ff16105b80610f725750303b158015610f7257506001805460ff16145b610fe45760405162461bcd60e51b815260206004820152602e60248201527f496e697469616c697a61626c653a20636f6e747261637420697320616c72656160448201527f647920696e697469616c697a65640000000000000000000000000000000000006064820152608401610223565b600180547fffffffffffffffffffffffffffffffffffffffffffffffffffffffffffffff001681179055801561104157600180547fffffffffffffffffffffffffffffffffffffffffffffffffffffffffffff00ff166101001790555b6110496132e2565b33606680547fffffffffffffffffffffffff000000000000000000000000000000000000000090811673ffffffffffffffffffffffffffffffffffffffff938416179091556069805482168b84161790556068805482168a841617905560678054909116918816919091179055606a859055606b849055606c839055606d829055801561112c57600180547fffffffffffffffffffffffffffffffffffffffffffffffffffffffffffff00ff1681556040519081527f7f26b83ff96e1f2b6a682f133852f6798a09c465da95921460cefb38474024989060200160405180910390a15b5050505050505050565b73ffffffffffffffffffffffffffffffffffffffff7f00000000000000000000000000000000000000000000000000000000000000001630036111e15760405162461bcd60e51b815260206004820152602c60248201527f46756e6374696f6e206d7573742062652063616c6c6564207468726f7567682060448201527f64656c656761746563616c6c00000000000000000000000000000000000000006064820152608401610223565b7f000000000000000000000000000000000000000000000000000000000000000073ffffffffffffffffffffffffffffffffffffffff166112567f360894a13ba1a3210667c828492db98dca3e2076cc3735a920a3ca505d382bbc5473ffffffffffffffffffffffffffffffffffffffff1690565b73ffffffffffffffffffffffffffffffffffffffff16146112df5760405162461bcd60e51b815260206004820152602c60248201527f46756e6374696f6e206d7573742062652063616c6c6564207468726f7567682060448201527f6163746976652070726f787900000000000000000000000000000000000000006064820152608401610223565b6112e881613367565b60408051600080825260208201909252611304918391906133ce565b50565b73ffffffffffffffffffffffffffffffffffffffff7f00000000000000000000000000000000000000000000000000000000000000001630036113b25760405162461bcd60e51b815260206004820152602c60248201527f46756e6374696f6e206d7573742062652063616c6c6564207468726f7567682060448201527f64656c656761746563616c6c00000000000000000000000000000000000000006064820152608401610223565b7f000000000000000000000000000000000000000000000000000000000000000073ffffffffffffffffffffffffffffffffffffffff166114277f360894a13ba1a3210667c828492db98dca3e2076cc3735a920a3ca505d382bbc5473ffffffffffffffffffffffffffffffffffffffff1690565b73ffffffffffffffffffffffffffffffffffffffff16146114b05760405162461bcd60e51b815260206004820152602c60248201527f46756e6374696f6e206d7573742062652063616c6c6564207468726f7567682060448201527f6163746976652070726f787900000000000000000000000000000000000000006064820152608401610223565b6114b982613367565b6114c5828260016133ce565b5050565b60003073ffffffffffffffffffffffffffffffffffffffff7f000000000000000000000000000000000000000000000000000000000000000016146115765760405162461bcd60e51b815260206004820152603860248201527f555550535570677261646561626c653a206d757374206e6f742062652063616c60448201527f6c6564207468726f7567682064656c656761746563616c6c00000000000000006064820152608401610223565b507f360894a13ba1a3210667c828492db98dca3e2076cc3735a920a3ca505d382bbc5b90565b600060606115a861359e565b60005a9050606f5484106115fe5760405162461bcd60e51b815260206004820152600a60248201527f696e76616c6964206964000000000000000000000000000000000000000000006044820152606401610223565b6000848152607160209081526040808320815160c08101835281548152600182015493810193909352600281015473ffffffffffffffffffffffffffffffffffffffff908116928401929092526003810154909116606083015260048101805460808401919061166d90614395565b80601f016020809104026020016040519081016040528092919081815260200182805461169990614395565b80156116e65780601f106116bb576101008083540402835291602001916116e6565b820191906000526020600020905b8154815290600101906020018083116116c957829003601f168201915b505050918352505060059190910154602090910152606081015190915073ffffffffffffffffffffffffffffffffffffffff166117655760405162461bcd60e51b815260206004820152601e60248201527f756e636c61696d6564207374617465206e6f74207265676973746572656400006044820152606401610223565b428160a00151106117b85760405162461bcd60e51b815260206004820152601b60248201527f756e636c61696d6564207374617465206e6f74206578706972656400000000006044820152606401610223565b60408082015160008781526071602052918220828155600181018390556002810180547fffffffffffffffffffffffff00000000000000000000000000000000000000009081169091556003820180549091169055909161181c6004830182613ce9565b600582016000905550506000616d226152085a6118399087614778565b606b546118469190614778565b6118509190614778565b61185a9190614778565b905061186781604061437e565b5a61187390603f61437e565b116118c05760405162461bcd60e51b815260206004820152601560248201527f696e73756666696369656e7420676173206c65667400000000000000000000006044820152606401610223565b6040517fb91ad65100000000000000000000000000000000000000000000000000000000815273ffffffffffffffffffffffffffffffffffffffff83169063b91ad651908390611914908790600401613f7d565b600060405180830381600088803b15801561192e57600080fd5b5087f193505050508015611940575060015b6119815761194c6145ac565b806308c379a00361197657506119606145c7565b8061196b5750611978565b600096509450611986565b505b60009550611986565b600195505b6000616d226152085a6119999088614778565b6119a3919061436b565b6119ad919061436b565b9050836060015173ffffffffffffffffffffffffffffffffffffffff16606d5482606b546119db9190614778565b6119e5919061437e565b604051600081818185875af1925050503d8060008114611a21576040519150601f19603f3d011682016040523d82523d6000602084013e611a26565b606091505b50508097505086611a795760405162461bcd60e51b815260206004820181905260248201527f455448207472616e7366657220746f2075732e73656e646572206661696c65646044820152606401610223565b606d5433906108fc90611a8c908461437e565b6040518115909202916000818181858888f19350505050158015611ab4573d6000803e3d6000fd5b508360200151887f77eecc78c2351f067771819051aa66f304f53798731871f42c7e4abc3ca6dc7c8660600151604051611b0a919073ffffffffffffffffffffffffffffffffffffffff91909116815260200190565b60405180910390a35050505050611b216001600055565b915091565b611b2e61327b565b611b3860006135f7565b565b611b4261359e565b60005a600083815260706020908152604091829020825160c08101845281548152600182015492810192909252600281015473ffffffffffffffffffffffffffffffffffffffff90811693830193909352600381015490921660608201526004820154608082015260059091015460a0820152606e54919250908310611c0a5760405162461bcd60e51b815260206004820152600a60248201527f696e76616c6964206964000000000000000000000000000000000000000000006044820152606401610223565b6000816080015111611c5e5760405162461bcd60e51b815260206004820152601d60248201527f756e636c61696d65642066756e64206e6f7420726567697374657265640000006044820152606401610223565b428160a0015110611cb15760405162461bcd60e51b815260206004820152601a60248201527f756e636c61696d65642066756e64206e6f7420657870697265640000000000006044820152606401610223565b600083815260706020526040808220828155600181018390556002810180547fffffffffffffffffffffffff00000000000000000000000000000000000000009081169091556003820180549091169055600481018390556005019190915581015160808201516060830151611d3f9273ffffffffffffffffffffffffffffffffffffffff9091169161366e565b6000616d226152085a611d529086614778565b611d5c919061436b565b611d66919061436b565b90506000826040015173ffffffffffffffffffffffffffffffffffffffff16606d5483606a54611d969190614778565b611da0919061437e565b604051600081818185875af1925050503d8060008114611ddc576040519150601f19603f3d011682016040523d82523d6000602084013e611de1565b606091505b5050905080611e585760405162461bcd60e51b815260206004820152602260248201527f455448207472616e7366657220746f2066756e642e73656e646572206661696c60448201527f65640000000000000000000000000000000000000000000000000000000000006064820152608401610223565b606d5433906108fc90611e6b908561437e565b6040518115909202916000818181858888f19350505050158015611e93573d6000803e3d6000fd5b508260200151857f960802630656455a2f4af19fd682f15891466a4e1712ac96e83afe9efa62def6856060015186608001518760400151604051611f049392919073ffffffffffffffffffffffffffffffffffffffff93841681526020810192909252909116604082015260600190565b60405180910390a3505050506113046001600055565b611f2261359e565b600084815260706020908152604091829020825160c08101845281548152600182015492810192909252600281015473ffffffffffffffffffffffffffffffffffffffff90811693830193909352600381015490921660608201526004820154608082015260059091015460a0820152606e548510611fe35760405162461bcd60e51b815260206004820152600a60248201527f696e76616c6964206964000000000000000000000000000000000000000000006044820152606401610223565b60008160800151116120375760405162461bcd60e51b815260206004820152601d60248201527f756e636c61696d65642066756e64206e6f7420726567697374657265640000006044820152606401610223565b428160a001511161208a5760405162461bcd60e51b815260206004820152601660248201527f756e636c61696d65642066756e642065787069726564000000000000000000006044820152606401610223565b836120d75760405162461bcd60e51b815260206004820152601360248201527f696e76616c69642077616c6c65742073616c74000000000000000000000000006044820152606401610223565b60675460208201516040517fc03a5c1800000000000000000000000000000000000000000000000000000000815273ffffffffffffffffffffffffffffffffffffffff9092169163c03a5c1891612137918891908890889060040161478b565b602060405180830381865afa158015612154573d6000803e3d6000fd5b505050506040513d601f19601f8201168201806040525081019061217891906147ab565b6121c45760405162461bcd60e51b815260206004820152600d60248201527f696e76616c69642070726f6f66000000000000000000000000000000000000006044820152606401610223565b6068546040517f5664c78e0000000000000000000000000000000000000000000000000000000081526004810186905260009173ffffffffffffffffffffffffffffffffffffffff1690635664c78e90602401602060405180830381865afa158015612234573d6000803e3d6000fd5b505050506040513d601f19601f8201168201806040525081019061225891906147c8565b6000878152607060205260408120818155600181018290556002810180547fffffffffffffffffffffffff000000000000000000000000000000000000000090811690915560038201805490911690556004810182905560050155608083015160608401519192506122e29173ffffffffffffffffffffffffffffffffffffffff1690839061366e565b3373ffffffffffffffffffffffffffffffffffffffff166108fc606d54606a5461230c919061437e565b6040518115909202916000818181858888f19350505050158015612334573d6000803e3d6000fd5b508160200151867fef8d34edaaafc6b888496fdfdd9806a9aa93377cc5de625ed8e5a8a9c166135084606001518560800151856040516123a19392919073ffffffffffffffffffffffffffffffffffffffff93841681526020810192909252909116604082015260600190565b60405180910390a350506123b56001600055565b50505050565b600060606123c761359e565b60005a9050606f54871061241d5760405162461bcd60e51b815260206004820152600a60248201527f696e76616c6964206964000000000000000000000000000000000000000000006044820152606401610223565b6000878152607160209081526040808320815160c08101835281548152600182015493810193909352600281015473ffffffffffffffffffffffffffffffffffffffff908116928401929092526003810154909116606083015260048101805460808401919061248c90614395565b80601f01602080910402602001604051908101604052809291908181526020018280546124b890614395565b80156125055780601f106124da57610100808354040283529160200191612505565b820191906000526020600020905b8154815290600101906020018083116124e857829003601f168201915b505050918352505060059190910154602090910152606081015190915073ffffffffffffffffffffffffffffffffffffffff166125845760405162461bcd60e51b815260206004820152601e60248201527f756e636c61696d6564207374617465206e6f74207265676973746572656400006044820152606401610223565b604081015173ffffffffffffffffffffffffffffffffffffffff166125eb5760405162461bcd60e51b815260206004820152601960248201527f696e76616c696420657874656e73696f6e2061646472657373000000000000006044820152606401610223565b428160a001511161263e5760405162461bcd60e51b815260206004820152601760248201527f756e636c61696d656420737461746520657870697265640000000000000000006044820152606401610223565b8661268b5760405162461bcd60e51b815260206004820152601360248201527f696e76616c69642077616c6c65742073616c74000000000000000000000000006044820152606401610223565b60675460208201516040517fc03a5c1800000000000000000000000000000000000000000000000000000000815273ffffffffffffffffffffffffffffffffffffffff9092169163c03a5c18916126eb918b91908b908b9060040161478b565b602060405180830381865afa158015612708573d6000803e3d6000fd5b505050506040513d601f19601f8201168201806040525081019061272c91906147ab565b6127785760405162461bcd60e51b815260206004820152600d60248201527f696e76616c69642070726f6f66000000000000000000000000000000000000006044820152606401610223565b6068546040517f5664c78e0000000000000000000000000000000000000000000000000000000081526004810189905260009173ffffffffffffffffffffffffffffffffffffffff1690635664c78e90602401602060405180830381865afa1580156127e8573d6000803e3d6000fd5b505050506040513d601f19601f8201168201806040525081019061280c91906147c8565b60408084015160008c81526071602052918220828155600181018390556002810180547fffffffffffffffffffffffff0000000000000000000000000000000000000000908116909155600382018054909116905592935091906128736004830182613ce9565b6005820160009055505060006152085a61288d9087614778565b606b5461289a9190614778565b6128a49190614778565b90506128b181604061437e565b5a6128bd90603f61437e565b1161290a5760405162461bcd60e51b815260206004820152601560248201527f696e73756666696369656e7420676173206c65667400000000000000000000006044820152606401610223565b6040517f8eb0930c00000000000000000000000000000000000000000000000000000000815273ffffffffffffffffffffffffffffffffffffffff831690638eb0930c90839061296090889088906004016147e5565b600060405180830381600088803b15801561297a57600080fd5b5087f19350505050801561298c575060015b6129cd576129986145ac565b806308c379a0036129c257506129ac6145c7565b806129b757506129c4565b6000975095506129d2565b505b600096506129d2565b600196505b3373ffffffffffffffffffffffffffffffffffffffff166108fc606d54606b546129fc919061437e565b6040518115909202916000818181858888f19350505050158015612a24573d6000803e3d6000fd5b5060208085015160405173ffffffffffffffffffffffffffffffffffffffff8616815290918d917fc174f81bea73edc46dccae6ae23191463a5c6f206ff1da09d047210d01e56f49910160405180910390a35050505050612a856001600055565b94509492505050565b6000612a9861327b565b606f5460009081526071602052604090206003015473ffffffffffffffffffffffffffffffffffffffff1615612b105760405162461bcd60e51b815260206004820152601660248201527f756e636c61696d656420737461746520657869737473000000000000000000006044820152606401610223565b82612b5d5760405162461bcd60e51b815260206004820152601560248201527f73746174652063616e6e6f7420626520656d70747900000000000000000000006044820152606401610223565b6000606c5442612b6d919061436b565b905060006040518060c00160405280606f5481526020018881526020018a73ffffffffffffffffffffffffffffffffffffffff1681526020018973ffffffffffffffffffffffffffffffffffffffff16815260200187878080601f0160208091040260200160405190810160405280939291908181526020018383808284376000920182905250938552505050602091820185905282518152607182526040908190208351815591830151600183015582015160028201805473ffffffffffffffffffffffffffffffffffffffff9283167fffffffffffffffffffffffff000000000000000000000000000000000000000091821617909155606084015160038401805491909316911617905560808201519192508a918391906004820190612c969082614436565b5060a09190910151600590910155606f8054906000612cb483614550565b90915550506040517f3ed4f16a00000000000000000000000000000000000000000000000000000000815273ffffffffffffffffffffffffffffffffffffffff821690633ed4f16a90612d0d9085908990600401614588565b600060405180830381600087803b158015612d2757600080fd5b505af1925050508015612d38575060015b612d4457610b1a6145ac565b8782600001517f3d4f419954f8e623920443782544b99437be3d18a51ea8790df36db174069cb48c8c878c8c6000604051612d849695949392919061481d565b60405180910390a3505198975050505050505050565b612da261327b565b73ffffffffffffffffffffffffffffffffffffffff8116612e2b5760405162461bcd60e51b815260206004820152602660248201527f4f776e61626c653a206e6577206f776e657220697320746865207a65726f206160448201527f64647265737300000000000000000000000000000000000000000000000000006064820152608401610223565b611304816135f7565b600084600003612e4e57606c54612e4b904261436b565b94505b606d54606a54612e5e919061437e565b3414612eac5760405162461bcd60e51b815260206004820152601a60248201527f696e76616c696420756e636c61696d65642066756e64206665650000000000006044820152606401610223565b60008611612efc5760405162461bcd60e51b815260206004820152601f60248201527f616d6f756e742073686f756c642062652067726561746572207468616e2030006044820152606401610223565b73ffffffffffffffffffffffffffffffffffffffff8716612f5f5760405162461bcd60e51b815260206004820152601660248201527f696e76616c696420746f6b656e20636f6e7472616374000000000000000000006044820152606401610223565b87612fac5760405162461bcd60e51b815260206004820152601760248201527f696e76616c696420656d61696c41646472436f6d6d69740000000000000000006044820152606401610223565b428511612ffb5760405162461bcd60e51b815260206004820152601360248201527f696e76616c6964206578706972792074696d65000000000000000000000000006044820152606401610223565b606e546000908152607060205260409020600401541561305d5760405162461bcd60e51b815260206004820152601560248201527f756e636c61696d65642066756e642065786973747300000000000000000000006044820152606401610223565b61307f73ffffffffffffffffffffffffffffffffffffffff8816333089613742565b6040805160c081018252606e805480835260208084018d81523385870190815273ffffffffffffffffffffffffffffffffffffffff8e811660608801908152608088018f815260a089018f815260009788526070909652988620885181559351600185015591516002840180547fffffffffffffffffffffffff00000000000000000000000000000000000000009081169284169290921790559151600384018054909316911617905594516004860155516005909401939093558054919261314783614550565b91905055508881600001517f85c4a8f8db5b961cba8f77ec376273369ac4de1015fe3339e858c8c86e8ca0c98a8a338b8b8b8b60405161318d979695949392919061487f565b60405180910390a35198975050505050505050565b607160205260009081526040902080546001820154600283015460038401546004850180549495939473ffffffffffffffffffffffffffffffffffffffff9384169492909316926131f290614395565b80601f016020809104026020016040519081016040528092919081815260200182805461321e90614395565b801561326b5780601f106132405761010080835404028352916020019161326b565b820191906000526020600020905b81548152906001019060200180831161324e57829003601f168201915b5050505050908060050154905086565b60345473ffffffffffffffffffffffffffffffffffffffff163314611b385760405162461bcd60e51b815260206004820181905260248201527f4f776e61626c653a2063616c6c6572206973206e6f7420746865206f776e65726044820152606401610223565b600154610100900460ff1661335f5760405162461bcd60e51b815260206004820152602b60248201527f496e697469616c697a61626c653a20636f6e7472616374206973206e6f74206960448201527f6e697469616c697a696e670000000000000000000000000000000000000000006064820152608401610223565b611b386137a0565b60665473ffffffffffffffffffffffffffffffffffffffff1633146113045760405162461bcd60e51b815260206004820152601860248201527f63616c6c6572206973206e6f742061206465706c6f79657200000000000000006044820152606401610223565b7f4910fdfa16fed3260ed0e7147f7cc6da11a60208b5b9406d12a635614ffd91435460ff16156134065761340183613826565b505050565b8273ffffffffffffffffffffffffffffffffffffffff166352d1902d6040518163ffffffff1660e01b8152600401602060405180830381865afa92505050801561348b575060408051601f3d9081017fffffffffffffffffffffffffffffffffffffffffffffffffffffffffffffffe0168201909252613488918101906148d8565b60015b6134fd5760405162461bcd60e51b815260206004820152602e60248201527f45524331393637557067726164653a206e657720696d706c656d656e7461746960448201527f6f6e206973206e6f7420555550530000000000000000000000000000000000006064820152608401610223565b7f360894a13ba1a3210667c828492db98dca3e2076cc3735a920a3ca505d382bbc81146135925760405162461bcd60e51b815260206004820152602960248201527f45524331393637557067726164653a20756e737570706f727465642070726f7860448201527f6961626c655555494400000000000000000000000000000000000000000000006064820152608401610223565b50613401838383613916565b6002600054036135f05760405162461bcd60e51b815260206004820152601f60248201527f5265656e7472616e637947756172643a207265656e7472616e742063616c6c006044820152606401610223565b6002600055565b6034805473ffffffffffffffffffffffffffffffffffffffff8381167fffffffffffffffffffffffff0000000000000000000000000000000000000000831681179093556040519116919082907f8be0079c531659141344cd1fd0a4f28419497f9722a3daafe3b4186f6b6457e090600090a35050565b60405173ffffffffffffffffffffffffffffffffffffffff83166024820152604481018290526134019084907fa9059cbb00000000000000000000000000000000000000000000000000000000906064015b604080517fffffffffffffffffffffffffffffffffffffffffffffffffffffffffffffffe08184030181529190526020810180517bffffffffffffffffffffffffffffffffffffffffffffffffffffffff167fffffffff000000000000000000000000000000000000000000000000000000009093169290921790915261393b565b60405173ffffffffffffffffffffffffffffffffffffffff808516602483015283166044820152606481018290526123b59085907f23b872dd00000000000000000000000000000000000000000000000000000000906084016136c0565b600154610100900460ff1661381d5760405162461bcd60e51b815260206004820152602b60248201527f496e697469616c697a61626c653a20636f6e7472616374206973206e6f74206960448201527f6e697469616c697a696e670000000000000000000000000000000000000000006064820152608401610223565b611b38336135f7565b73ffffffffffffffffffffffffffffffffffffffff81163b6138b05760405162461bcd60e51b815260206004820152602d60248201527f455243313936373a206e657720696d706c656d656e746174696f6e206973206e60448201527f6f74206120636f6e7472616374000000000000000000000000000000000000006064820152608401610223565b7f360894a13ba1a3210667c828492db98dca3e2076cc3735a920a3ca505d382bbc80547fffffffffffffffffffffffff00000000000000000000000000000000000000001673ffffffffffffffffffffffffffffffffffffffff92909216919091179055565b61391f83613a30565b60008251118061392c5750805b15613401576123b58383613a7d565b600061399d826040518060400160405280602081526020017f5361666545524332303a206c6f772d6c6576656c2063616c6c206661696c65648152508573ffffffffffffffffffffffffffffffffffffffff16613aab9092919063ffffffff16565b90508051600014806139be5750808060200190518101906139be91906147ab565b6134015760405162461bcd60e51b815260206004820152602a60248201527f5361666545524332303a204552433230206f7065726174696f6e20646964206e60448201527f6f742073756363656564000000000000000000000000000000000000000000006064820152608401610223565b613a3981613826565b60405173ffffffffffffffffffffffffffffffffffffffff8216907fbc7cd75a20ee27fd9adebab32041f755214dbc6bffa90cc0225b39da2e5c2d3b90600090a250565b6060613aa2838360405180606001604052806027815260200161490e60279139613aba565b90505b92915050565b6060610dfd8484600085613b3f565b60606000808573ffffffffffffffffffffffffffffffffffffffff1685604051613ae491906148f1565b600060405180830381855af49150503d8060008114613b1f576040519150601f19603f3d011682016040523d82523d6000602084013e613b24565b606091505b5091509150613b3586838387613c3e565b9695505050505050565b606082471015613bb75760405162461bcd60e51b815260206004820152602660248201527f416464726573733a20696e73756666696369656e742062616c616e636520666f60448201527f722063616c6c00000000000000000000000000000000000000000000000000006064820152608401610223565b6000808673ffffffffffffffffffffffffffffffffffffffff168587604051613be091906148f1565b60006040518083038185875af1925050503d8060008114613c1d576040519150601f19603f3d011682016040523d82523d6000602084013e613c22565b606091505b5091509150613c3387838387613c3e565b979650505050505050565b60608315613cba578251600003613cb35773ffffffffffffffffffffffffffffffffffffffff85163b613cb35760405162461bcd60e51b815260206004820152601d60248201527f416464726573733a2063616c6c20746f206e6f6e2d636f6e74726163740000006044820152606401610223565b5081610dfd565b610dfd8383815115613ccf5781518083602001fd5b8060405162461bcd60e51b815260040161022391906146b4565b508054613cf590614395565b6000825580601f10613d05575050565b601f01602090049060005260206000209081019061130491905b80821115613d335760008155600101613d1f565b5090565b73ffffffffffffffffffffffffffffffffffffffff8116811461130457600080fd5b60008083601f840112613d6b57600080fd5b50813567ffffffffffffffff811115613d8357600080fd5b602083019150836020828501011115613d9b57600080fd5b9250929050565b60008060008060008060008060c0898b031215613dbe57600080fd5b883597506020890135613dd081613d37565b9650604089013567ffffffffffffffff80821115613ded57600080fd5b613df98c838d01613d59565b909850965060608b0135955060808b0135945060a08b0135915080821115613e2057600080fd5b50613e2d8b828c01613d59565b999c989b5096995094979396929594505050565b60008060008060808587031215613e5757600080fd5b8435613e6281613d37565b9350602085013592506040850135613e7981613d37565b9396929550929360600135925050565b600060208284031215613e9b57600080fd5b5035919050565b60005b83811015613ebd578181015183820152602001613ea5565b50506000910152565b60008151808452613ede816020860160208601613ea2565b601f017fffffffffffffffffffffffffffffffffffffffffffffffffffffffffffffffe0169290920160200192915050565b80518252602081015160208301526000604082015173ffffffffffffffffffffffffffffffffffffffff80821660408601528060608501511660608601525050608082015160c06080850152613f6960c0850182613ec6565b60a093840151949093019390935250919050565b602081526000613aa26020830184613f10565b600080600080600080600060e0888a031215613fab57600080fd5b8735613fb681613d37565b96506020880135613fc681613d37565b95506040880135613fd681613d37565b969995985095966060810135965060808101359560a0820135955060c0909101359350915050565b60006020828403121561401057600080fd5b813561401b81613d37565b9392505050565b7f4e487b7100000000000000000000000000000000000000000000000000000000600052604160045260246000fd5b7fffffffffffffffffffffffffffffffffffffffffffffffffffffffffffffffe0601f830116810181811067ffffffffffffffff8211171561409557614095614022565b6040525050565b600080604083850312156140af57600080fd5b82356140ba81613d37565b915060208381013567ffffffffffffffff808211156140d857600080fd5b818601915086601f8301126140ec57600080fd5b8135818111156140fe576140fe614022565b6040519150614134847fffffffffffffffffffffffffffffffffffffffffffffffffffffffffffffffe0601f8401160183614051565b808252878482850101111561414857600080fd5b80848401858401376000848284010152508093505050509250929050565b8215158152604060208201526000610dfd6040830184613ec6565b6000806000806060858703121561419757600080fd5b8435935060208501359250604085013567ffffffffffffffff8111156141bc57600080fd5b6141c887828801613d59565b95989497509550505050565b801515811461130457600080fd5b60008060008060008060a087890312156141fb57600080fd5b863561420681613d37565b9550602087013561421681613d37565b945060408701359350606087013567ffffffffffffffff81111561423957600080fd5b61424589828a01613d59565b9094509250506080870135614259816141d4565b809150509295509295509295565b600080600080600080600060c0888a03121561428257600080fd5b87359650602088013561429481613d37565b955060408801359450606088013593506080880135925060a088013567ffffffffffffffff8111156142c557600080fd5b6142d18a828b01613d59565b989b979a50959850939692959293505050565b868152856020820152600073ffffffffffffffffffffffffffffffffffffffff808716604084015280861660608401525060c0608083015261432960c0830185613ec6565b90508260a0830152979650505050505050565b7f4e487b7100000000000000000000000000000000000000000000000000000000600052601160045260246000fd5b80820180821115613aa557613aa561433c565b8082028115828204841417613aa557613aa561433c565b600181811c908216806143a957607f821691505b6020821081036143e2577f4e487b7100000000000000000000000000000000000000000000000000000000600052602260045260246000fd5b50919050565b601f82111561340157600081815260208120601f850160051c8101602086101561440f5750805b601f850160051c820191505b8181101561442e5782815560010161441b565b505050505050565b815167ffffffffffffffff81111561445057614450614022565b6144648161445e8454614395565b846143e8565b602080601f8311600181146144b757600084156144815750858301515b7fffffffffffffffffffffffffffffffffffffffffffffffffffffffffffffffff600386901b1c1916600185901b17855561442e565b6000858152602081207fffffffffffffffffffffffffffffffffffffffffffffffffffffffffffffffe08616915b82811015614504578886015182559484019460019091019084016144e5565b508582101561454057878501517fffffffffffffffffffffffffffffffffffffffffffffffffffffffffffffffff600388901b60f8161c191681555b5050505050600190811b01905550565b60007fffffffffffffffffffffffffffffffffffffffffffffffffffffffffffffffff82036145815761458161433c565b5060010190565b60408152600061459b6040830185613f10565b905082151560208301529392505050565b600060033d11156115995760046000803e5060005160e01c90565b600060443d10156145d55790565b6040517ffffffffffffffffffffffffffffffffffffffffffffffffffffffffffffffffc803d016004833e81513d67ffffffffffffffff816024840111818411171561462357505050505090565b828501915081518181111561463b5750505050505090565b843d87010160208285010111156146555750505050505090565b61466460208286010187614051565b509095945050505050565b7f756e636c61696d656420737461746520726567206572723a20000000000000008152600082516146a7816019850160208701613ea2565b9190910160190192915050565b602081526000613aa26020830184613ec6565b8183528181602085013750600060208284010152600060207fffffffffffffffffffffffffffffffffffffffffffffffffffffffffffffffe0601f840116840101905092915050565b600073ffffffffffffffffffffffffffffffffffffffff808b168352808a1660208401525087604083015260c0606083015261475060c0830187896146c7565b85608084015282810360a08401526147698185876146c7565b9b9a5050505050505050505050565b81810381811115613aa557613aa561433c565b848152836020820152606060408201526000613b356060830184866146c7565b6000602082840312156147bd57600080fd5b815161401b816141d4565b6000602082840312156147da57600080fd5b815161401b81613d37565b6040815260006147f86040830185613f10565b905073ffffffffffffffffffffffffffffffffffffffff831660208301529392505050565b600073ffffffffffffffffffffffffffffffffffffffff808916835280881660208401525085604083015260c0606083015261485d60c0830185876146c7565b60808301939093525080820360a0909101526000815260200195945050505050565b600073ffffffffffffffffffffffffffffffffffffffff808a16835288602084015280881660408401525085606083015284608083015260c060a08301526148cb60c0830184866146c7565b9998505050505050505050565b6000602082840312156148ea57600080fd5b5051919050565b60008251614903818460208701613ea2565b919091019291505056fe416464726573733a206c6f772d6c6576656c2064656c65676174652063616c6c206661696c6564a2646970667358221220c50d4efe4084d69f3e5725238b7ad18d5fe0df16471d7c7d810fd826a9c73e7764736f6c63430008150033",
    "linkReferences": {}
  },
  "methodIdentifiers": {
    "accountHandler()": "33ddfb9a",
    "claimUnclaimedFund(uint256,bytes32,bytes)": "8ddda0eb",
    "claimUnclaimedState(uint256,bytes32,bytes)": "c9646647",
    "getUnclaimedFund(uint256)": "81763f64",
    "getUnclaimedState(uint256)": "223008d6",
    "initialize(address,address,address,uint256,uint256,uint256,uint256)": "2b4656c8",
    "maxFeePerGas()": "2728bf2c",
    "numUnclaimedFunds()": "b5072bc6",
    "numUnclaimedStates()": "5fa7a696",
    "owner()": "8da5cb5b",
    "proxiableUUID()": "52d1902d",
    "registerUnclaimedFund(bytes32,address,uint256,uint256,uint256,string)": "f9df978e",
    "registerUnclaimedFundInternal(address,bytes32,address,uint256)": "1bae92f7",
    "registerUnclaimedState(bytes32,address,bytes,uint256,uint256,string)": "0e878b9b",
    "registerUnclaimedStateInternal(address,address,bytes32,bytes,bool)": "def27db7",
    "relayerHandler()": "5e5f2610",
    "renounceOwnership()": "715018a6",
    "transferOwnership(address)": "f2fde38b",
    "unclaimedFundClaimGas()": "66221734",
    "unclaimedFundOfId(uint256)": "d27d6a12",
    "unclaimedStateClaimGas()": "a87fedae",
    "unclaimedStateOfId(uint256)": "ff8b4ccf",
    "unclaimsExpiryDuration()": "cdbe49f0",
    "upgradeTo(address)": "3659cfe6",
    "upgradeToAndCall(address,bytes)": "4f1ef286",
    "verifier()": "2b7ac3f3",
    "voidUnclaimedFund(uint256)": "85959ac3",
    "voidUnclaimedState(uint256)": "616ad001"
  },
  "storageLayout": {
    "storage": [
      {
        "astId": 658,
        "contract": "src/handlers/UnclaimsHandler.sol:UnclaimsHandler",
        "label": "_status",
        "offset": 0,
        "slot": "0",
        "type": "t_uint256"
      },
      {
        "astId": 138,
        "contract": "src/handlers/UnclaimsHandler.sol:UnclaimsHandler",
        "label": "_initialized",
        "offset": 0,
        "slot": "1",
        "type": "t_uint8"
      },
      {
        "astId": 141,
        "contract": "src/handlers/UnclaimsHandler.sol:UnclaimsHandler",
        "label": "_initializing",
        "offset": 1,
        "slot": "1",
        "type": "t_bool"
      },
      {
        "astId": 67690,
        "contract": "src/handlers/UnclaimsHandler.sol:UnclaimsHandler",
        "label": "__gap",
        "offset": 0,
        "slot": "2",
        "type": "t_array(t_uint256)50_storage"
      },
      {
        "astId": 10,
        "contract": "src/handlers/UnclaimsHandler.sol:UnclaimsHandler",
        "label": "_owner",
        "offset": 0,
        "slot": "52",
        "type": "t_address"
      },
      {
        "astId": 130,
        "contract": "src/handlers/UnclaimsHandler.sol:UnclaimsHandler",
        "label": "__gap",
        "offset": 0,
        "slot": "53",
        "type": "t_array(t_uint256)49_storage"
      },
      {
        "astId": 62138,
        "contract": "src/handlers/UnclaimsHandler.sol:UnclaimsHandler",
        "label": "deployer",
        "offset": 0,
        "slot": "102",
        "type": "t_address"
      },
      {
        "astId": 62141,
        "contract": "src/handlers/UnclaimsHandler.sol:UnclaimsHandler",
        "label": "verifier",
        "offset": 0,
        "slot": "103",
        "type": "t_contract(IVerifier)63721"
      },
      {
        "astId": 62144,
        "contract": "src/handlers/UnclaimsHandler.sol:UnclaimsHandler",
        "label": "accountHandler",
        "offset": 0,
        "slot": "104",
        "type": "t_contract(AccountHandler)61328"
      },
      {
        "astId": 62147,
        "contract": "src/handlers/UnclaimsHandler.sol:UnclaimsHandler",
        "label": "relayerHandler",
        "offset": 0,
        "slot": "105",
        "type": "t_contract(RelayerHandler)62105"
      },
      {
        "astId": 62149,
        "contract": "src/handlers/UnclaimsHandler.sol:UnclaimsHandler",
        "label": "unclaimedFundClaimGas",
        "offset": 0,
        "slot": "106",
        "type": "t_uint256"
      },
      {
        "astId": 62151,
        "contract": "src/handlers/UnclaimsHandler.sol:UnclaimsHandler",
        "label": "unclaimedStateClaimGas",
        "offset": 0,
        "slot": "107",
        "type": "t_uint256"
      },
      {
        "astId": 62153,
        "contract": "src/handlers/UnclaimsHandler.sol:UnclaimsHandler",
        "label": "unclaimsExpiryDuration",
        "offset": 0,
        "slot": "108",
        "type": "t_uint256"
      },
      {
        "astId": 62155,
        "contract": "src/handlers/UnclaimsHandler.sol:UnclaimsHandler",
        "label": "maxFeePerGas",
        "offset": 0,
        "slot": "109",
        "type": "t_uint256"
      },
      {
        "astId": 62158,
        "contract": "src/handlers/UnclaimsHandler.sol:UnclaimsHandler",
        "label": "numUnclaimedFunds",
        "offset": 0,
        "slot": "110",
        "type": "t_uint256"
      },
      {
        "astId": 62161,
        "contract": "src/handlers/UnclaimsHandler.sol:UnclaimsHandler",
        "label": "numUnclaimedStates",
        "offset": 0,
        "slot": "111",
        "type": "t_uint256"
      },
      {
        "astId": 62166,
        "contract": "src/handlers/UnclaimsHandler.sol:UnclaimsHandler",
        "label": "unclaimedFundOfId",
        "offset": 0,
        "slot": "112",
        "type": "t_mapping(t_uint256,t_struct(UnclaimedFund)63795_storage)"
      },
      {
        "astId": 62171,
        "contract": "src/handlers/UnclaimsHandler.sol:UnclaimsHandler",
        "label": "unclaimedStateOfId",
        "offset": 0,
        "slot": "113",
        "type": "t_mapping(t_uint256,t_struct(UnclaimedState)63808_storage)"
      }
    ],
    "types": {
      "t_address": {
        "encoding": "inplace",
        "label": "address",
        "numberOfBytes": "20"
      },
      "t_array(t_uint256)49_storage": {
        "encoding": "inplace",
        "label": "uint256[49]",
        "numberOfBytes": "1568",
        "base": "t_uint256"
      },
      "t_array(t_uint256)50_storage": {
        "encoding": "inplace",
        "label": "uint256[50]",
        "numberOfBytes": "1600",
        "base": "t_uint256"
      },
      "t_bool": {
        "encoding": "inplace",
        "label": "bool",
        "numberOfBytes": "1"
      },
      "t_bytes32": {
        "encoding": "inplace",
        "label": "bytes32",
        "numberOfBytes": "32"
      },
      "t_bytes_storage": {
        "encoding": "bytes",
        "label": "bytes",
        "numberOfBytes": "32"
      },
      "t_contract(AccountHandler)61328": {
        "encoding": "inplace",
        "label": "contract AccountHandler",
        "numberOfBytes": "20"
      },
      "t_contract(IVerifier)63721": {
        "encoding": "inplace",
        "label": "contract IVerifier",
        "numberOfBytes": "20"
      },
      "t_contract(RelayerHandler)62105": {
        "encoding": "inplace",
        "label": "contract RelayerHandler",
        "numberOfBytes": "20"
      },
      "t_mapping(t_uint256,t_struct(UnclaimedFund)63795_storage)": {
        "encoding": "mapping",
        "key": "t_uint256",
        "label": "mapping(uint256 => struct UnclaimedFund)",
        "numberOfBytes": "32",
        "value": "t_struct(UnclaimedFund)63795_storage"
      },
      "t_mapping(t_uint256,t_struct(UnclaimedState)63808_storage)": {
        "encoding": "mapping",
        "key": "t_uint256",
        "label": "mapping(uint256 => struct UnclaimedState)",
        "numberOfBytes": "32",
        "value": "t_struct(UnclaimedState)63808_storage"
      },
      "t_struct(UnclaimedFund)63795_storage": {
        "encoding": "inplace",
        "label": "struct UnclaimedFund",
        "numberOfBytes": "192",
        "members": [
          {
            "astId": 63784,
            "contract": "src/handlers/UnclaimsHandler.sol:UnclaimsHandler",
            "label": "id",
            "offset": 0,
            "slot": "0",
            "type": "t_uint256"
          },
          {
            "astId": 63786,
            "contract": "src/handlers/UnclaimsHandler.sol:UnclaimsHandler",
            "label": "emailAddrCommit",
            "offset": 0,
            "slot": "1",
            "type": "t_bytes32"
          },
          {
            "astId": 63788,
            "contract": "src/handlers/UnclaimsHandler.sol:UnclaimsHandler",
            "label": "sender",
            "offset": 0,
            "slot": "2",
            "type": "t_address"
          },
          {
            "astId": 63790,
            "contract": "src/handlers/UnclaimsHandler.sol:UnclaimsHandler",
            "label": "tokenAddr",
            "offset": 0,
            "slot": "3",
            "type": "t_address"
          },
          {
            "astId": 63792,
            "contract": "src/handlers/UnclaimsHandler.sol:UnclaimsHandler",
            "label": "amount",
            "offset": 0,
            "slot": "4",
            "type": "t_uint256"
          },
          {
            "astId": 63794,
            "contract": "src/handlers/UnclaimsHandler.sol:UnclaimsHandler",
            "label": "expiryTime",
            "offset": 0,
            "slot": "5",
            "type": "t_uint256"
          }
        ]
      },
      "t_struct(UnclaimedState)63808_storage": {
        "encoding": "inplace",
        "label": "struct UnclaimedState",
        "numberOfBytes": "192",
        "members": [
          {
            "astId": 63797,
            "contract": "src/handlers/UnclaimsHandler.sol:UnclaimsHandler",
            "label": "id",
            "offset": 0,
            "slot": "0",
            "type": "t_uint256"
          },
          {
            "astId": 63799,
            "contract": "src/handlers/UnclaimsHandler.sol:UnclaimsHandler",
            "label": "emailAddrCommit",
            "offset": 0,
            "slot": "1",
            "type": "t_bytes32"
          },
          {
            "astId": 63801,
            "contract": "src/handlers/UnclaimsHandler.sol:UnclaimsHandler",
            "label": "extensionAddr",
            "offset": 0,
            "slot": "2",
            "type": "t_address"
          },
          {
            "astId": 63803,
            "contract": "src/handlers/UnclaimsHandler.sol:UnclaimsHandler",
            "label": "sender",
            "offset": 0,
            "slot": "3",
            "type": "t_address"
          },
          {
            "astId": 63805,
            "contract": "src/handlers/UnclaimsHandler.sol:UnclaimsHandler",
            "label": "state",
            "offset": 0,
            "slot": "4",
            "type": "t_bytes_storage"
          },
          {
            "astId": 63807,
            "contract": "src/handlers/UnclaimsHandler.sol:UnclaimsHandler",
            "label": "expiryTime",
            "offset": 0,
            "slot": "5",
            "type": "t_uint256"
          }
        ]
      },
      "t_uint256": {
        "encoding": "inplace",
        "label": "uint256",
        "numberOfBytes": "32"
      },
      "t_uint8": {
        "encoding": "inplace",
        "label": "uint8",
        "numberOfBytes": "1"
      }
    }
  },
  "id": 126
}