{"abi":[{"type":"constructor","inputs":[],"stateMutability":"nonpayable"},{"type":"receive","stateMutability":"payable"},{"type":"function","name":"accountHandler","inputs":[],"outputs":[{"name":"","type":"address","internalType":"contract AccountHandler"}],"stateMutability":"view"},{"type":"function","name":"claimUnclaimedFund","inputs":[{"name":"id","type":"uint256","internalType":"uint256"},{"name":"recipientEmailAddrPointer","type":"bytes32","internalType":"bytes32"},{"name":"proof","type":"bytes","internalType":"bytes"}],"outputs":[],"stateMutability":"nonpayable"},{"type":"function","name":"claimUnclaimedState","inputs":[{"name":"id","type":"uint256","internalType":"uint256"},{"name":"recipientEmailAddrPointer","type":"bytes32","internalType":"bytes32"},{"name":"proof","type":"bytes","internalType":"bytes"}],"outputs":[{"name":"success","type":"bool","internalType":"bool"},{"name":"returnData","type":"bytes","internalType":"bytes"}],"stateMutability":"nonpayable"},{"type":"function","name":"getUnclaimedFund","inputs":[{"name":"id","type":"uint256","internalType":"uint256"}],"outputs":[{"name":"","type":"tuple","internalType":"struct UnclaimedFund","components":[{"name":"id","type":"uint256","internalType":"uint256"},{"name":"emailAddrCommit","type":"bytes32","internalType":"bytes32"},{"name":"sender","type":"address","internalType":"address"},{"name":"tokenAddr","type":"address","internalType":"address"},{"name":"amount","type":"uint256","internalType":"uint256"},{"name":"expiryTime","type":"uint256","internalType":"uint256"}]}],"stateMutability":"view"},{"type":"function","name":"getUnclaimedState","inputs":[{"name":"id","type":"uint256","internalType":"uint256"}],"outputs":[{"name":"","type":"tuple","internalType":"struct UnclaimedState","components":[{"name":"id","type":"uint256","internalType":"uint256"},{"name":"emailAddrCommit","type":"bytes32","internalType":"bytes32"},{"name":"extensionAddr","type":"address","internalType":"address"},{"name":"sender","type":"address","internalType":"address"},{"name":"state","type":"bytes","internalType":"bytes"},{"name":"expiryTime","type":"uint256","internalType":"uint256"}]}],"stateMutability":"view"},{"type":"function","name":"initialize","inputs":[{"name":"_relayerHandler","type":"address","internalType":"address"},{"name":"_accountHandler","type":"address","internalType":"address"},{"name":"_verifier","type":"address","internalType":"address"},{"name":"_unclaimedFundClaimGas","type":"uint256","internalType":"uint256"},{"name":"_unclaimedStateClaimGas","type":"uint256","internalType":"uint256"},{"name":"_unclaimsExpiryDuration","type":"uint256","internalType":"uint256"},{"name":"_maxFeePerGas","type":"uint256","internalType":"uint256"}],"outputs":[],"stateMutability":"nonpayable"},{"type":"function","name":"maxFeePerGas","inputs":[],"outputs":[{"name":"","type":"uint256","internalType":"uint256"}],"stateMutability":"view"},{"type":"function","name":"numUnclaimedFunds","inputs":[],"outputs":[{"name":"","type":"uint256","internalType":"uint256"}],"stateMutability":"view"},{"type":"function","name":"numUnclaimedStates","inputs":[],"outputs":[{"name":"","type":"uint256","internalType":"uint256"}],"stateMutability":"view"},{"type":"function","name":"owner","inputs":[],"outputs":[{"name":"","type":"address","internalType":"address"}],"stateMutability":"view"},{"type":"function","name":"proxiableUUID","inputs":[],"outputs":[{"name":"","type":"bytes32","internalType":"bytes32"}],"stateMutability":"view"},{"type":"function","name":"registerUnclaimedFund","inputs":[{"name":"emailAddrCommit","type":"bytes32","internalType":"bytes32"},{"name":"tokenAddr","type":"address","internalType":"address"},{"name":"amount","type":"uint256","internalType":"uint256"},{"name":"expiryTime","type":"uint256","internalType":"uint256"},{"name":"announceCommitRandomness","type":"uint256","internalType":"uint256"},{"name":"announceEmailAddr","type":"string","internalType":"string"}],"outputs":[{"name":"","type":"uint256","internalType":"uint256"}],"stateMutability":"payable"},{"type":"function","name":"registerUnclaimedFundInternal","inputs":[{"name":"sender","type":"address","internalType":"address"},{"name":"emailAddrCommit","type":"bytes32","internalType":"bytes32"},{"name":"tokenAddr","type":"address","internalType":"address"},{"name":"amount","type":"uint256","internalType":"uint256"}],"outputs":[{"name":"","type":"uint256","internalType":"uint256"}],"stateMutability":"nonpayable"},{"type":"function","name":"registerUnclaimedState","inputs":[{"name":"emailAddrCommit","type":"bytes32","internalType":"bytes32"},{"name":"extensionAddr","type":"address","internalType":"address"},{"name":"state","type":"bytes","internalType":"bytes"},{"name":"expiryTime","type":"uint256","internalType":"uint256"},{"name":"announceCommitRandomness","type":"uint256","internalType":"uint256"},{"name":"announceEmailAddr","type":"string","internalType":"string"}],"outputs":[{"name":"","type":"uint256","internalType":"uint256"}],"stateMutability":"payable"},{"type":"function","name":"registerUnclaimedStateInternal","inputs":[{"name":"extensionAddr","type":"address","internalType":"address"},{"name":"sender","type":"address","internalType":"address"},{"name":"recipientEmailAddrCommit","type":"bytes32","internalType":"bytes32"},{"name":"state","type":"bytes","internalType":"bytes"},{"name":"isInternal","type":"bool","internalType":"bool"}],"outputs":[{"name":"","type":"uint256","internalType":"uint256"}],"stateMutability":"nonpayable"},{"type":"function","name":"relayerHandler","inputs":[],"outputs":[{"name":"","type":"address","internalType":"contract RelayerHandler"}],"stateMutability":"view"},{"type":"function","name":"renounceOwnership","inputs":[],"outputs":[],"stateMutability":"nonpayable"},{"type":"function","name":"transferOwnership","inputs":[{"name":"newOwner","type":"address","internalType":"address"}],"outputs":[],"stateMutability":"nonpayable"},{"type":"function","name":"unclaimedFundClaimGas","inputs":[],"outputs":[{"name":"","type":"uint256","internalType":"uint256"}],"stateMutability":"view"},{"type":"function","name":"unclaimedFundOfId","inputs":[{"name":"","type":"uint256","internalType":"uint256"}],"outputs":[{"name":"id","type":"uint256","internalType":"uint256"},{"name":"emailAddrCommit","type":"bytes32","internalType":"bytes32"},{"name":"sender","type":"address","internalType":"address"},{"name":"tokenAddr","type":"address","internalType":"address"},{"name":"amount","type":"uint256","internalType":"uint256"},{"name":"expiryTime","type":"uint256","internalType":"uint256"}],"stateMutability":"view"},{"type":"function","name":"unclaimedStateClaimGas","inputs":[],"outputs":[{"name":"","type":"uint256","internalType":"uint256"}],"stateMutability":"view"},{"type":"function","name":"unclaimedStateOfId","inputs":[{"name":"","type":"uint256","internalType":"uint256"}],"outputs":[{"name":"id","type":"uint256","internalType":"uint256"},{"name":"emailAddrCommit","type":"bytes32","internalType":"bytes32"},{"name":"extensionAddr","type":"address","internalType":"address"},{"name":"sender","type":"address","internalType":"address"},{"name":"state","type":"bytes","internalType":"bytes"},{"name":"expiryTime","type":"uint256","internalType":"uint256"}],"stateMutability":"view"},{"type":"function","name":"unclaimsExpiryDuration","inputs":[],"outputs":[{"name":"","type":"uint256","internalType":"uint256"}],"stateMutability":"view"},{"type":"function","name":"upgradeTo","inputs":[{"name":"newImplementation","type":"address","internalType":"address"}],"outputs":[],"stateMutability":"nonpayable"},{"type":"function","name":"upgradeToAndCall","inputs":[{"name":"newImplementation","type":"address","internalType":"address"},{"name":"data","type":"bytes","internalType":"bytes"}],"outputs":[],"stateMutability":"payable"},{"type":"function","name":"verifier","inputs":[],"outputs":[{"name":"","type":"address","internalType":"contract IVerifier"}],"stateMutability":"view"},{"type":"function","name":"voidUnclaimedFund","inputs":[{"name":"id","type":"uint256","internalType":"uint256"}],"outputs":[],"stateMutability":"nonpayable"},{"type":"function","name":"voidUnclaimedState","inputs":[{"name":"id","type":"uint256","internalType":"uint256"}],"outputs":[{"name":"success","type":"bool","internalType":"bool"},{"name":"returnData","type":"bytes","internalType":"bytes"}],"stateMutability":"nonpayable"},{"type":"event","name":"AdminChanged","inputs":[{"name":"previousAdmin","type":"address","indexed":false,"internalType":"address"},{"name":"newAdmin","type":"address","indexed":false,"internalType":"address"}],"anonymous":false},{"type":"event","name":"BeaconUpgraded","inputs":[{"name":"beacon","type":"address","indexed":true,"internalType":"address"}],"anonymous":false},{"type":"event","name":"Initialized","inputs":[{"name":"version","type":"uint8","indexed":false,"internalType":"uint8"}],"anonymous":false},{"type":"event","name":"OwnershipTransferred","inputs":[{"name":"previousOwner","type":"address","indexed":true,"internalType":"address"},{"name":"newOwner","type":"address","indexed":true,"internalType":"address"}],"anonymous":false},{"type":"event","name":"UnclaimedFundClaimed","inputs":[{"name":"id","type":"uint256","indexed":true,"internalType":"uint256"},{"name":"emailAddrCommit","type":"bytes32","indexed":true,"internalType":"bytes32"},{"name":"tokenAddr","type":"address","indexed":false,"internalType":"address"},{"name":"amount","type":"uint256","indexed":false,"internalType":"uint256"},{"name":"recipient","type":"address","indexed":false,"internalType":"address"}],"anonymous":false},{"type":"event","name":"UnclaimedFundRegistered","inputs":[{"name":"id","type":"uint256","indexed":true,"internalType":"uint256"},{"name":"emailAddrCommit","type":"bytes32","indexed":true,"internalType":"bytes32"},{"name":"tokenAddr","type":"address","indexed":false,"internalType":"address"},{"name":"amount","type":"uint256","indexed":false,"internalType":"uint256"},{"name":"sender","type":"address","indexed":false,"internalType":"address"},{"name":"expiryTime","type":"uint256","indexed":false,"internalType":"uint256"},{"name":"commitmentRandomness","type":"uint256","indexed":false,"internalType":"uint256"},{"name":"emailAddr","type":"string","indexed":false,"internalType":"string"}],"anonymous":false},{"type":"event","name":"UnclaimedFundVoided","inputs":[{"name":"id","type":"uint256","indexed":true,"internalType":"uint256"},{"name":"emailAddrCommit","type":"bytes32","indexed":true,"internalType":"bytes32"},{"name":"tokenAddr","type":"address","indexed":false,"internalType":"address"},{"name":"amount","type":"uint256","indexed":false,"internalType":"uint256"},{"name":"sender","type":"address","indexed":false,"internalType":"address"}],"anonymous":false},{"type":"event","name":"UnclaimedStateClaimed","inputs":[{"name":"id","type":"uint256","indexed":true,"internalType":"uint256"},{"name":"emailAddrCommit","type":"bytes32","indexed":true,"internalType":"bytes32"},{"name":"recipient","type":"address","indexed":false,"internalType":"address"}],"anonymous":false},{"type":"event","name":"UnclaimedStateRegistered","inputs":[{"name":"id","type":"uint256","indexed":true,"internalType":"uint256"},{"name":"emailAddrCommit","type":"bytes32","indexed":true,"internalType":"bytes32"},{"name":"extensionAddr","type":"address","indexed":false,"internalType":"address"},{"name":"sender","type":"address","indexed":false,"internalType":"address"},{"name":"expiryTime","type":"uint256","indexed":false,"internalType":"uint256"},{"name":"state","type":"bytes","indexed":false,"internalType":"bytes"},{"name":"commitmentRandomness","type":"uint256","indexed":false,"internalType":"uint256"},{"name":"emailAddr","type":"string","indexed":false,"internalType":"string"}],"anonymous":false},{"type":"event","name":"UnclaimedStateVoided","inputs":[{"name":"id","type":"uint256","indexed":true,"internalType":"uint256"},{"name":"emailAddrCommit","type":"bytes32","indexed":true,"internalType":"bytes32"},{"name":"sender","type":"address","indexed":false,"internalType":"address"}],"anonymous":false},{"type":"event","name":"Upgraded","inputs":[{"name":"implementation","type":"address","indexed":true,"internalType":"address"}],"anonymous":false}],"bytecode":{"object":"0x60a0604052306080523480156200001557600080fd5b506001600055620000256200002b565b620000ec565b600154610100900460ff1615620000985760405162461bcd60e51b815260206004820152602760248201527f496e697469616c697a61626c653a20636f6e747261637420697320696e697469604482015266616c697a696e6760c81b606482015260840160405180910390fd5b60015460ff90811614620000ea576001805460ff191660ff9081179091556040519081527f7f26b83ff96e1f2b6a682f133852f6798a09c465da95921460cefb38474024989060200160405180910390a15b565b60805161500b6200012460003960008181611049015281816110df015281816111e60152818161127c0152611377015261500b6000f3fe6080604052600436106101bb5760003560e01c8063715018a6116100ec578063c96466471161008a578063def27db711610064578063def27db714610664578063f2fde38b14610684578063f9df978e146106a4578063ff8b4ccf146106b757600080fd5b8063c964664714610597578063cdbe49f0146105b7578063d27d6a12146105cd57600080fd5b80638da5cb5b116100c65780638da5cb5b1461052d5780638ddda0eb1461054b578063a87fedae1461056b578063b5072bc61461058157600080fd5b8063715018a6146103e957806381763f64146103fe57806385959ac31461050d57600080fd5b80633659cfe6116101595780635e5f2610116101335780635e5f26101461036f5780635fa7a6961461038f578063616ad001146103a557806366221734146103d357600080fd5b80633659cfe6146103275780634f1ef2861461034757806352d1902d1461035a57600080fd5b80632728bf2c116101955780632728bf2c146102995780632b4656c8146102af5780632b7ac3f3146102cf57806333ddfb9a1461030757600080fd5b80630e878b9b146102265780631bae92f71461024c578063223008d61461026c57600080fd5b36610221576034546001600160a01b0316331461021f5760405162461bcd60e51b815260206004820152601760248201527f6f6e6c79206f776e65722063616e2073656e642045544800000000000000000060448201526064015b60405180910390fd5b005b600080fd5b610239610234366004614353565b6106e9565b6040519081526020015b60405180910390f35b34801561025857600080fd5b506102396102673660046143f2565b610b6f565b34801561027857600080fd5b5061028c61028736600461443a565b610d28565b6040516102439190614521565b3480156102a557600080fd5b50610239606d5481565b3480156102bb57600080fd5b5061021f6102ca366004614534565b610e52565b3480156102db57600080fd5b506067546102ef906001600160a01b031681565b6040516001600160a01b039091168152602001610243565b34801561031357600080fd5b506068546102ef906001600160a01b031681565b34801561033357600080fd5b5061021f6103423660046145a2565b61103f565b61021f610355366004614686565b6111dc565b34801561036657600080fd5b5061023961136a565b34801561037b57600080fd5b506069546102ef906001600160a01b031681565b34801561039b57600080fd5b50610239606f5481565b3480156103b157600080fd5b506103c56103c036600461443a565b611430565b60405161024392919061471f565b3480156103df57600080fd5b50610239606a5481565b3480156103f557600080fd5b5061021f611979565b34801561040a57600080fd5b506104b261041936600461443a565b6040805160c081018252600080825260208201819052918101829052606081018290526080810182905260a081019190915250600090815260706020908152604091829020825160c0810184528154815260018201549281019290925260028101546001600160a01b0390811693830193909352600381015490921660608201526004820154608082015260059091015460a082015290565b6040516102439190600060c082019050825182526020830151602083015260408301516001600160a01b03808216604085015280606086015116606085015250506080830151608083015260a083015160a083015292915050565b34801561051957600080fd5b5061021f61052836600461443a565b61198d565b34801561053957600080fd5b506034546001600160a01b03166102ef565b34801561055757600080fd5b5061021f61056636600461473a565b611d39565b34801561057757600080fd5b50610239606b5481565b34801561058d57600080fd5b50610239606e5481565b3480156105a357600080fd5b506103c56105b236600461473a565b61268a565b3480156105c357600080fd5b50610239606c5481565b3480156105d957600080fd5b5061062a6105e836600461443a565b607060205260009081526040902080546001820154600283015460038401546004850154600590950154939492936001600160a01b0392831693919092169186565b6040805196875260208701959095526001600160a01b039384169486019490945291166060840152608083015260a082015260c001610243565b34801561067057600080fd5b5061023961067f36600461479b565b613177565b34801561069057600080fd5b5061021f61069f3660046145a2565b613442565b6102396106b2366004614820565b6134cf565b3480156106c357600080fd5b506106d76106d236600461443a565b613816565b6040516102439695949392919061489d565b60008460000361070357606c546107009042614917565b94505b606d54606b54610713919061492a565b34146107615760405162461bcd60e51b815260206004820152601b60248201527f696e76616c696420756e636c61696d65642073746174652066656500000000006044820152606401610216565b856107ae5760405162461bcd60e51b815260206004820152601560248201527f73746174652063616e6e6f7420626520656d70747900000000000000000000006044820152606401610216565b886107fb5760405162461bcd60e51b815260206004820152601760248201527f696e76616c696420656d61696c41646472436f6d6d69740000000000000000006044820152606401610216565b42851161084a5760405162461bcd60e51b815260206004820152601360248201527f696e76616c6964206578706972792074696d65000000000000000000000000006044820152606401610216565b606f546000908152607160205260409020600301546001600160a01b0316156108b55760405162461bcd60e51b815260206004820152601660248201527f756e636c61696d656420737461746520657869737473000000000000000000006044820152606401610216565b60006040518060c00160405280606f5481526020018b81526020018a6001600160a01b03168152602001336001600160a01b0316815260200189898080601f016020809104026020016040519081016040528093929190818152602001838380828437600092018290525093855250505060209182018990528251815260718252604090819020835181559183015160018301558201516002820180546001600160a01b039283167fffffffffffffffffffffffff000000000000000000000000000000000000000091821617909155606084015160038401805491909316911617905560808201519192508a9183919060048201906109b590826149e4565b5060a09190910151600590910155606f80549060006109d383614afe565b90915550506040517f3ed4f16a0000000000000000000000000000000000000000000000000000000081526001600160a01b03821690633ed4f16a90610a20908590600090600401614b36565b600060405180830381600087803b158015610a3a57600080fd5b505af1925050508015610a4b575060015b610b1557610a57614b5a565b806308c379a003610acb5750610a6b614b75565b80610a765750610acd565b80604051602001610a879190614c1d565b604080517fffffffffffffffffffffffffffffffffffffffffffffffffffffffffffffffe08184030181529082905262461bcd60e51b825261021691600401614c62565b505b60405162461bcd60e51b815260206004820152601760248201527f756e636c61696d656420737461746520726567206572720000000000000000006044820152606401610216565b8a82600001517f3d4f419954f8e623920443782544b99437be3d18a51ea8790df36db174069cb48c338b8e8e8d8d8d604051610b58989796959493929190614cbe565b60405180910390a350519998505050505050505050565b6000610b796138e2565b606e5460009081526070602052604090206004015415610bdb5760405162461bcd60e51b815260206004820152601560248201527f756e636c61696d65642066756e642065786973747300000000000000000000006044820152606401610216565b6000606c5442610beb9190614917565b6040805160c081018252606e805480835260208084018b81526001600160a01b03808e168688019081528c821660608801908152608088018d815260a089018b815260009788526070909652988620885181559351600185015590516002840180549184167fffffffffffffffffffffffff0000000000000000000000000000000000000000928316179055905160038401805491909316911617905594516004860155516005909401939093558054939450909291610caa83614afe565b90915550508051604080516001600160a01b038881168252602082018890528a16818301526060810185905260006080820181905260c060a0830181905282015290518892917f85c4a8f8db5b961cba8f77ec376273369ac4de1015fe3339e858c8c86e8ca0c9919081900360e00190a3519150505b949350505050565b6040805160c0810182526000808252602082018190529181018290526060808201839052608082015260a0810191909152600082815260716020908152604091829020825160c0810184528154815260018201549281019290925260028101546001600160a01b039081169383019390935260038101549092166060820152600482018054919291608084019190610dbf90614941565b80601f0160208091040260200160405190810160405280929190818152602001828054610deb90614941565b8015610e385780601f10610e0d57610100808354040283529160200191610e38565b820191906000526020600020905b815481529060010190602001808311610e1b57829003601f168201915b505050505081526020016005820154815250509050919050565b600154610100900460ff1615808015610e6f57506001805460ff16105b80610e885750303b158015610e8857506001805460ff16145b610efa5760405162461bcd60e51b815260206004820152602e60248201527f496e697469616c697a61626c653a20636f6e747261637420697320616c72656160448201527f647920696e697469616c697a65640000000000000000000000000000000000006064820152608401610216565b600180547fffffffffffffffffffffffffffffffffffffffffffffffffffffffffffffff0016811790558015610f5757600180547fffffffffffffffffffffffffffffffffffffffffffffffffffffffffffff00ff166101001790555b610f5f61393c565b33606680547fffffffffffffffffffffffff00000000000000000000000000000000000000009081166001600160a01b03938416179091556069805482168b84161790556068805482168a841617905560678054909116918816919091179055606a859055606b849055606c839055606d829055801561103557600180547fffffffffffffffffffffffffffffffffffffffffffffffffffffffffffff00ff1681556040519081527f7f26b83ff96e1f2b6a682f133852f6798a09c465da95921460cefb38474024989060200160405180910390a15b5050505050505050565b6001600160a01b037f00000000000000000000000000000000000000000000000000000000000000001630036110dd5760405162461bcd60e51b815260206004820152602c60248201527f46756e6374696f6e206d7573742062652063616c6c6564207468726f7567682060448201527f64656c656761746563616c6c00000000000000000000000000000000000000006064820152608401610216565b7f00000000000000000000000000000000000000000000000000000000000000006001600160a01b03166111387f360894a13ba1a3210667c828492db98dca3e2076cc3735a920a3ca505d382bbc546001600160a01b031690565b6001600160a01b0316146111b45760405162461bcd60e51b815260206004820152602c60248201527f46756e6374696f6e206d7573742062652063616c6c6564207468726f7567682060448201527f6163746976652070726f787900000000000000000000000000000000000000006064820152608401610216565b6111bd816139c1565b604080516000808252602082019092526111d991839190613a1b565b50565b6001600160a01b037f000000000000000000000000000000000000000000000000000000000000000016300361127a5760405162461bcd60e51b815260206004820152602c60248201527f46756e6374696f6e206d7573742062652063616c6c6564207468726f7567682060448201527f64656c656761746563616c6c00000000000000000000000000000000000000006064820152608401610216565b7f00000000000000000000000000000000000000000000000000000000000000006001600160a01b03166112d57f360894a13ba1a3210667c828492db98dca3e2076cc3735a920a3ca505d382bbc546001600160a01b031690565b6001600160a01b0316146113515760405162461bcd60e51b815260206004820152602c60248201527f46756e6374696f6e206d7573742062652063616c6c6564207468726f7567682060448201527f6163746976652070726f787900000000000000000000000000000000000000006064820152608401610216565b61135a826139c1565b61136682826001613a1b565b5050565b6000306001600160a01b037f0000000000000000000000000000000000000000000000000000000000000000161461140a5760405162461bcd60e51b815260206004820152603860248201527f555550535570677261646561626c653a206d757374206e6f742062652063616c60448201527f6c6564207468726f7567682064656c656761746563616c6c00000000000000006064820152608401610216565b507f360894a13ba1a3210667c828492db98dca3e2076cc3735a920a3ca505d382bbc5b90565b6000606061143c613bde565b60005a9050606f5484106114925760405162461bcd60e51b815260206004820152600a60248201527f696e76616c6964206964000000000000000000000000000000000000000000006044820152606401610216565b6000848152607160209081526040808320815160c0810183528154815260018201549381019390935260028101546001600160a01b0390811692840192909252600381015490911660608301526004810180546080840191906114f490614941565b80601f016020809104026020016040519081016040528092919081815260200182805461152090614941565b801561156d5780601f106115425761010080835404028352916020019161156d565b820191906000526020600020905b81548152906001019060200180831161155057829003601f168201915b50505091835250506005919091015460209091015260608101519091506001600160a01b03166115df5760405162461bcd60e51b815260206004820152601e60248201527f756e636c61696d6564207374617465206e6f74207265676973746572656400006044820152606401610216565b428160a00151106116325760405162461bcd60e51b815260206004820152601b60248201527f756e636c61696d6564207374617465206e6f74206578706972656400000000006044820152606401610216565b60408082015160008781526071602052918220828155600181018390556002810180547fffffffffffffffffffffffff00000000000000000000000000000000000000009081169091556003820180549091169055909161169660048301826142a7565b600582016000905550506000616d226152085a6116b39087614d19565b606b546116c09190614d19565b6116ca9190614d19565b6116d49190614d19565b90506116e181604061492a565b5a6116ed90603f61492a565b1161173a5760405162461bcd60e51b815260206004820152601560248201527f696e73756666696369656e7420676173206c65667400000000000000000000006044820152606401610216565b6040517fb91ad6510000000000000000000000000000000000000000000000000000000081526001600160a01b0383169063b91ad651908390611781908790600401614521565b600060405180830381600088803b15801561179b57600080fd5b5087f1935050505080156117ad575060015b6117ee576117b9614b5a565b806308c379a0036117e357506117cd614b75565b806117d857506117e5565b6000965094506117f3565b505b600095506117f3565b600195505b6000616d226152085a6118069088614d19565b6118109190614917565b61181a9190614917565b905083606001516001600160a01b0316606d5482606b5461183b9190614d19565b611845919061492a565b604051600081818185875af1925050503d8060008114611881576040519150601f19603f3d011682016040523d82523d6000602084013e611886565b606091505b505080975050866118d95760405162461bcd60e51b815260206004820181905260248201527f455448207472616e7366657220746f2075732e73656e646572206661696c65646044820152606401610216565b606d5433906108fc906118ec908461492a565b6040518115909202916000818181858888f19350505050158015611914573d6000803e3d6000fd5b508360200151887f77eecc78c2351f067771819051aa66f304f53798731871f42c7e4abc3ca6dc7c866060015160405161195d91906001600160a01b0391909116815260200190565b60405180910390a350505050506119746001600055565b915091565b6119816138e2565b61198b6000613c37565b565b611995613bde565b60005a600083815260706020908152604091829020825160c0810184528154815260018201549281019290925260028101546001600160a01b0390811693830193909352600381015490921660608201526004820154608082015260059091015460a0820152606e54919250908310611a505760405162461bcd60e51b815260206004820152600a60248201527f696e76616c6964206964000000000000000000000000000000000000000000006044820152606401610216565b6000816080015111611aa45760405162461bcd60e51b815260206004820152601d60248201527f756e636c61696d65642066756e64206e6f7420726567697374657265640000006044820152606401610216565b428160a0015110611af75760405162461bcd60e51b815260206004820152601a60248201527f756e636c61696d65642066756e64206e6f7420657870697265640000000000006044820152606401610216565b600083815260706020526040808220828155600181018390556002810180547fffffffffffffffffffffffff00000000000000000000000000000000000000009081169091556003820180549091169055600481018390556005019190915581015160808201516060830151611b78926001600160a01b0390911691613ca1565b6000616d226152085a611b8b9086614d19565b611b959190614917565b611b9f9190614917565b9050600082604001516001600160a01b0316606d5483606a54611bc29190614d19565b611bcc919061492a565b604051600081818185875af1925050503d8060008114611c08576040519150601f19603f3d011682016040523d82523d6000602084013e611c0d565b606091505b5050905080611c845760405162461bcd60e51b815260206004820152602260248201527f455448207472616e7366657220746f2066756e642e73656e646572206661696c60448201527f65640000000000000000000000000000000000000000000000000000000000006064820152608401610216565b606d5433906108fc90611c97908561492a565b6040518115909202916000818181858888f19350505050158015611cbf573d6000803e3d6000fd5b508260200151857f960802630656455a2f4af19fd682f15891466a4e1712ac96e83afe9efa62def6856060015186608001518760400151604051611d23939291906001600160a01b0393841681526020810192909252909116604082015260600190565b60405180910390a3505050506111d96001600055565b611d41613bde565b6000848152607060209081526040808320815160c0810183528154815260018201549381019390935260028101546001600160a01b0390811684840152600382015481166060850152600480830154608086015260059092015460a085015260685492517fba591a3600000000000000000000000000000000000000000000000000000000815293949392169163ba591a3691611de49189910190815260200190565b602060405180830381865afa158015611e01573d6000803e3d6000fd5b505050506040513d601f19601f82011682018060405250810190611e259190614d2c565b9050606e548610611e785760405162461bcd60e51b815260206004820152600a60248201527f696e76616c6964206964000000000000000000000000000000000000000000006044820152606401610216565b6069546040517f5300f8410000000000000000000000000000000000000000000000000000000081523360048201526000916001600160a01b031690635300f84190602401600060405180830381865afa158015611eda573d6000803e3d6000fd5b505050506040513d6000823e601f3d9081017fffffffffffffffffffffffffffffffffffffffffffffffffffffffffffffffe0168201604052611f209190810190614d9d565b5090508051600003611f745760405162461bcd60e51b815260206004820152601260248201527f63616c6c6572206e6f742072656c6179657200000000000000000000000000006044820152606401610216565b6068546040517f6b0f047d0000000000000000000000000000000000000000000000000000000081526004810184905233916001600160a01b031690636b0f047d90602401606060405180830381865afa158015611fd6573d6000803e3d6000fd5b505050506040513d601f19601f82011682018060405250810190611ffa9190614e01565b516001600160a01b0316146120515760405162461bcd60e51b815260206004820152601b60248201527f696e76616c69642072656c6179657220666f72206163636f756e7400000000006044820152606401610216565b60008360800151116120a55760405162461bcd60e51b815260206004820152601d60248201527f756e636c61696d65642066756e64206e6f7420726567697374657265640000006044820152606401610216565b428360a00151116120f85760405162461bcd60e51b815260206004820152601660248201527f756e636c61696d65642066756e642065787069726564000000000000000000006044820152606401610216565b6068546040517fba591a36000000000000000000000000000000000000000000000000000000008152600481018890526000916001600160a01b03169063ba591a3690602401602060405180830381865afa15801561215b573d6000803e3d6000fd5b505050506040513d601f19601f8201168201806040525081019061217f9190614d2c565b036121cc5760405162461bcd60e51b815260206004820152601b60248201527f696e76616c6964206163636f756e74206b657920636f6d6d69742e00000000006044820152606401610216565b6068546040517f6b0f047d000000000000000000000000000000000000000000000000000000008152600481018490526001600160a01b0390911690636b0f047d90602401606060405180830381865afa15801561222e573d6000803e3d6000fd5b505050506040513d601f19601f820116820180604052508101906122529190614e01565b602001516122a25760405162461bcd60e51b815260206004820152601760248201527f6163636f756e74206e6f7420696e697469616c697a65640000000000000000006044820152606401610216565b6068546040517f6b0f047d000000000000000000000000000000000000000000000000000000008152600481018490526000916001600160a01b031690636b0f047d90602401606060405180830381865afa158015612305573d6000803e3d6000fd5b505050506040513d601f19601f820116820180604052508101906123299190614e01565b604001510361237a5760405162461bcd60e51b815260206004820152601360248201527f696e76616c69642077616c6c65742073616c74000000000000000000000000006044820152606401610216565b60675460208401516040517fc03a5c180000000000000000000000000000000000000000000000000000000081526001600160a01b039092169163c03a5c18916123cd918a91908a908a90600401614e6c565b602060405180830381865afa1580156123ea573d6000803e3d6000fd5b505050506040513d601f19601f8201168201806040525081019061240e9190614e8c565b61245a5760405162461bcd60e51b815260206004820152600d60248201527f696e76616c69642070726f6f66000000000000000000000000000000000000006044820152606401610216565b6068546040517f6b0f047d000000000000000000000000000000000000000000000000000000008152600481018490526000916001600160a01b031690635664c78e908290636b0f047d90602401606060405180830381865afa1580156124c5573d6000803e3d6000fd5b505050506040513d601f19601f820116820180604052508101906124e99190614e01565b604001516040518263ffffffff1660e01b815260040161250b91815260200190565b602060405180830381865afa158015612528573d6000803e3d6000fd5b505050506040513d601f19601f8201168201806040525081019061254c9190614ea9565b6000898152607060205260408120818155600181018290556002810180547fffffffffffffffffffffffff000000000000000000000000000000000000000090811690915560038201805490911690556004810182905560050155608085015160608601519192506125c9916001600160a01b0316908390613ca1565b336001600160a01b03166108fc606d54606a546125e6919061492a565b6040518115909202916000818181858888f1935050505015801561260e573d6000803e3d6000fd5b508360200151887fef8d34edaaafc6b888496fdfdd9806a9aa93377cc5de625ed8e5a8a9c1661350866060015187608001518560405161266e939291906001600160a01b0393841681526020810192909252909116604082015260600190565b60405180910390a3505050506126846001600055565b50505050565b60006060612696613bde565b60005a9050606f5487106126ec5760405162461bcd60e51b815260206004820152600a60248201527f696e76616c6964206964000000000000000000000000000000000000000000006044820152606401610216565b6000878152607160209081526040808320815160c0810183528154815260018201549381019390935260028101546001600160a01b03908116928401929092526003810154909116606083015260048101805460808401919061274e90614941565b80601f016020809104026020016040519081016040528092919081815260200182805461277a90614941565b80156127c75780601f1061279c576101008083540402835291602001916127c7565b820191906000526020600020905b8154815290600101906020018083116127aa57829003601f168201915b5050509183525050600591909101546020909101526068546040517fba591a36000000000000000000000000000000000000000000000000000000008152600481018a90529192506000916001600160a01b039091169063ba591a3690602401602060405180830381865afa158015612844573d6000803e3d6000fd5b505050506040513d601f19601f820116820180604052508101906128689190614d2c565b6069546040517f5300f8410000000000000000000000000000000000000000000000000000000081523360048201529192506000916001600160a01b0390911690635300f84190602401600060405180830381865afa1580156128cf573d6000803e3d6000fd5b505050506040513d6000823e601f3d9081017fffffffffffffffffffffffffffffffffffffffffffffffffffffffffffffffe01682016040526129159190810190614d9d565b50905080516000036129695760405162461bcd60e51b815260206004820152601260248201527f63616c6c6572206e6f742072656c6179657200000000000000000000000000006044820152606401610216565b6068546040517f6b0f047d0000000000000000000000000000000000000000000000000000000081526004810184905233916001600160a01b031690636b0f047d90602401606060405180830381865afa1580156129cb573d6000803e3d6000fd5b505050506040513d601f19601f820116820180604052508101906129ef9190614e01565b516001600160a01b031614612a465760405162461bcd60e51b815260206004820152601b60248201527f696e76616c69642072656c6179657220666f72206163636f756e7400000000006044820152606401610216565b60608301516001600160a01b0316612aa05760405162461bcd60e51b815260206004820152601e60248201527f756e636c61696d6564207374617465206e6f74207265676973746572656400006044820152606401610216565b60408301516001600160a01b0316612afa5760405162461bcd60e51b815260206004820152601960248201527f696e76616c696420657874656e73696f6e2061646472657373000000000000006044820152606401610216565b428360a0015111612b4d5760405162461bcd60e51b815260206004820152601760248201527f756e636c61696d656420737461746520657870697265640000000000000000006044820152606401610216565b81612b9a5760405162461bcd60e51b815260206004820152601b60248201527f696e76616c6964206163636f756e74206b657920636f6d6d69742e00000000006044820152606401610216565b6068546040517f6b0f047d000000000000000000000000000000000000000000000000000000008152600481018490526001600160a01b0390911690636b0f047d90602401606060405180830381865afa158015612bfc573d6000803e3d6000fd5b505050506040513d601f19601f82011682018060405250810190612c209190614e01565b60200151612c705760405162461bcd60e51b815260206004820152601760248201527f6163636f756e74206e6f7420696e697469616c697a65640000000000000000006044820152606401610216565b6068546040517f6b0f047d000000000000000000000000000000000000000000000000000000008152600481018490526000916001600160a01b031690636b0f047d90602401606060405180830381865afa158015612cd3573d6000803e3d6000fd5b505050506040513d601f19601f82011682018060405250810190612cf79190614e01565b6040015103612d485760405162461bcd60e51b815260206004820152601360248201527f696e76616c69642077616c6c65742073616c74000000000000000000000000006044820152606401610216565b60675460208401516040517fc03a5c180000000000000000000000000000000000000000000000000000000081526001600160a01b039092169163c03a5c1891612d9b918d91908d908d90600401614e6c565b602060405180830381865afa158015612db8573d6000803e3d6000fd5b505050506040513d601f19601f82011682018060405250810190612ddc9190614e8c565b612e285760405162461bcd60e51b815260206004820152600d60248201527f696e76616c69642070726f6f66000000000000000000000000000000000000006044820152606401610216565b6068546040517f6b0f047d000000000000000000000000000000000000000000000000000000008152600481018490526000916001600160a01b031690635664c78e908290636b0f047d90602401606060405180830381865afa158015612e93573d6000803e3d6000fd5b505050506040513d601f19601f82011682018060405250810190612eb79190614e01565b604001516040518263ffffffff1660e01b8152600401612ed991815260200190565b602060405180830381865afa158015612ef6573d6000803e3d6000fd5b505050506040513d601f19601f82011682018060405250810190612f1a9190614ea9565b60408086015160008e81526071602052918220828155600181018390556002810180547fffffffffffffffffffffffff000000000000000000000000000000000000000090811690915560038201805490911690559293509190612f8160048301826142a7565b6005820160009055505060006152085a612f9b9089614d19565b606b54612fa89190614d19565b612fb29190614d19565b9050612fbf81604061492a565b5a612fcb90603f61492a565b116130185760405162461bcd60e51b815260206004820152601560248201527f696e73756666696369656e7420676173206c65667400000000000000000000006044820152606401610216565b6040517f8eb0930c0000000000000000000000000000000000000000000000000000000081526001600160a01b03831690638eb0930c908390613061908a908890600401614ec6565b600060405180830381600088803b15801561307b57600080fd5b5087f19350505050801561308d575060015b6130ce57613099614b5a565b806308c379a0036130c357506130ad614b75565b806130b857506130c5565b6000995097506130d3565b505b600098506130d3565b600198505b336001600160a01b03166108fc606d54606b546130f0919061492a565b6040518115909202916000818181858888f19350505050158015613118573d6000803e3d6000fd5b506020808701516040516001600160a01b038616815290918f917fc174f81bea73edc46dccae6ae23191463a5c6f206ff1da09d047210d01e56f49910160405180910390a35050505050505061316e6001600055565b94509492505050565b60006131816138e2565b606f546000908152607160205260409020600301546001600160a01b0316156131ec5760405162461bcd60e51b815260206004820152601660248201527f756e636c61696d656420737461746520657869737473000000000000000000006044820152606401610216565b826132395760405162461bcd60e51b815260206004820152601560248201527f73746174652063616e6e6f7420626520656d70747900000000000000000000006044820152606401610216565b6000606c54426132499190614917565b905060006040518060c00160405280606f5481526020018881526020018a6001600160a01b03168152602001896001600160a01b0316815260200187878080601f016020809104026020016040519081016040528093929190818152602001838380828437600092018290525093855250505060209182018590528251815260718252604090819020835181559183015160018301558201516002820180546001600160a01b039283167fffffffffffffffffffffffff000000000000000000000000000000000000000091821617909155606084015160038401805491909316911617905560808201519192508a91839190600482019061334b90826149e4565b5060a09190910151600590910155606f805490600061336983614afe565b90915550506040517f3ed4f16a0000000000000000000000000000000000000000000000000000000081526001600160a01b03821690633ed4f16a906133b59085908990600401614b36565b600060405180830381600087803b1580156133cf57600080fd5b505af19250505080156133e0575060015b6133ec57610a57614b5a565b8782600001517f3d4f419954f8e623920443782544b99437be3d18a51ea8790df36db174069cb48c8c878c8c600060405161342c96959493929190614ef1565b60405180910390a3505198975050505050505050565b61344a6138e2565b6001600160a01b0381166134c65760405162461bcd60e51b815260206004820152602660248201527f4f776e61626c653a206e6577206f776e657220697320746865207a65726f206160448201527f64647265737300000000000000000000000000000000000000000000000000006064820152608401610216565b6111d981613c37565b6000846000036134e957606c546134e69042614917565b94505b606d54606a546134f9919061492a565b34146135475760405162461bcd60e51b815260206004820152601a60248201527f696e76616c696420756e636c61696d65642066756e64206665650000000000006044820152606401610216565b600086116135975760405162461bcd60e51b815260206004820152601f60248201527f616d6f756e742073686f756c642062652067726561746572207468616e2030006044820152606401610216565b6001600160a01b0387166135ed5760405162461bcd60e51b815260206004820152601660248201527f696e76616c696420746f6b656e20636f6e7472616374000000000000000000006044820152606401610216565b8761363a5760405162461bcd60e51b815260206004820152601760248201527f696e76616c696420656d61696c41646472436f6d6d69740000000000000000006044820152606401610216565b4285116136895760405162461bcd60e51b815260206004820152601360248201527f696e76616c6964206578706972792074696d65000000000000000000000000006044820152606401610216565b606e54600090815260706020526040902060040154156136eb5760405162461bcd60e51b815260206004820152601560248201527f756e636c61696d65642066756e642065786973747300000000000000000000006044820152606401610216565b6137006001600160a01b038816333089613d68565b6040805160c081018252606e805480835260208084018d8152338587019081526001600160a01b038e811660608801908152608088018f815260a089018f815260009788526070909652988620885181559351600185015591516002840180547fffffffffffffffffffffffff0000000000000000000000000000000000000000908116928416929092179055915160038401805490931691161790559451600486015551600590940193909355805491926137bb83614afe565b91905055508881600001517f85c4a8f8db5b961cba8f77ec376273369ac4de1015fe3339e858c8c86e8ca0c98a8a338b8b8b8b6040516138019796959493929190614f46565b60405180910390a35198975050505050505050565b60716020526000908152604090208054600182015460028301546003840154600485018054949593946001600160a01b0393841694929093169261385990614941565b80601f016020809104026020016040519081016040528092919081815260200182805461388590614941565b80156138d25780601f106138a7576101008083540402835291602001916138d2565b820191906000526020600020905b8154815290600101906020018083116138b557829003601f168201915b5050505050908060050154905086565b6034546001600160a01b0316331461198b5760405162461bcd60e51b815260206004820181905260248201527f4f776e61626c653a2063616c6c6572206973206e6f7420746865206f776e65726044820152606401610216565b600154610100900460ff166139b95760405162461bcd60e51b815260206004820152602b60248201527f496e697469616c697a61626c653a20636f6e7472616374206973206e6f74206960448201527f6e697469616c697a696e670000000000000000000000000000000000000000006064820152608401610216565b61198b613db9565b6066546001600160a01b031633146111d95760405162461bcd60e51b815260206004820152601860248201527f63616c6c6572206973206e6f742061206465706c6f79657200000000000000006044820152606401610216565b7f4910fdfa16fed3260ed0e7147f7cc6da11a60208b5b9406d12a635614ffd91435460ff1615613a5357613a4e83613e3f565b505050565b826001600160a01b03166352d1902d6040518163ffffffff1660e01b8152600401602060405180830381865afa925050508015613acb575060408051601f3d9081017fffffffffffffffffffffffffffffffffffffffffffffffffffffffffffffffe0168201909252613ac891810190614d2c565b60015b613b3d5760405162461bcd60e51b815260206004820152602e60248201527f45524331393637557067726164653a206e657720696d706c656d656e7461746960448201527f6f6e206973206e6f7420555550530000000000000000000000000000000000006064820152608401610216565b7f360894a13ba1a3210667c828492db98dca3e2076cc3735a920a3ca505d382bbc8114613bd25760405162461bcd60e51b815260206004820152602960248201527f45524331393637557067726164653a20756e737570706f727465642070726f7860448201527f6961626c655555494400000000000000000000000000000000000000000000006064820152608401610216565b50613a4e838383613f15565b600260005403613c305760405162461bcd60e51b815260206004820152601f60248201527f5265656e7472616e637947756172643a207265656e7472616e742063616c6c006044820152606401610216565b6002600055565b603480546001600160a01b038381167fffffffffffffffffffffffff0000000000000000000000000000000000000000831681179093556040519116919082907f8be0079c531659141344cd1fd0a4f28419497f9722a3daafe3b4186f6b6457e090600090a35050565b6040516001600160a01b038316602482015260448101829052613a4e9084907fa9059cbb00000000000000000000000000000000000000000000000000000000906064015b604080517fffffffffffffffffffffffffffffffffffffffffffffffffffffffffffffffe08184030181529190526020810180517bffffffffffffffffffffffffffffffffffffffffffffffffffffffff167fffffffff0000000000000000000000000000000000000000000000000000000090931692909217909152613f3a565b6040516001600160a01b03808516602483015283166044820152606481018290526126849085907f23b872dd0000000000000000000000000000000000000000000000000000000090608401613ce6565b600154610100900460ff16613e365760405162461bcd60e51b815260206004820152602b60248201527f496e697469616c697a61626c653a20636f6e7472616374206973206e6f74206960448201527f6e697469616c697a696e670000000000000000000000000000000000000000006064820152608401610216565b61198b33613c37565b6001600160a01b0381163b613ebc5760405162461bcd60e51b815260206004820152602d60248201527f455243313936373a206e657720696d706c656d656e746174696f6e206973206e60448201527f6f74206120636f6e7472616374000000000000000000000000000000000000006064820152608401610216565b7f360894a13ba1a3210667c828492db98dca3e2076cc3735a920a3ca505d382bbc80547fffffffffffffffffffffffff0000000000000000000000000000000000000000166001600160a01b0392909216919091179055565b613f1e83614022565b600082511180613f2b5750805b15613a4e576126848383614062565b6000613f8f826040518060400160405280602081526020017f5361666545524332303a206c6f772d6c6576656c2063616c6c206661696c6564815250856001600160a01b03166140909092919063ffffffff16565b9050805160001480613fb0575080806020019051810190613fb09190614e8c565b613a4e5760405162461bcd60e51b815260206004820152602a60248201527f5361666545524332303a204552433230206f7065726174696f6e20646964206e60448201527f6f742073756363656564000000000000000000000000000000000000000000006064820152608401610216565b61402b81613e3f565b6040516001600160a01b038216907fbc7cd75a20ee27fd9adebab32041f755214dbc6bffa90cc0225b39da2e5c2d3b90600090a250565b60606140878383604051806060016040528060278152602001614faf6027913961409f565b90505b92915050565b6060610d208484600085614117565b6060600080856001600160a01b0316856040516140bc9190614f92565b600060405180830381855af49150503d80600081146140f7576040519150601f19603f3d011682016040523d82523d6000602084013e6140fc565b606091505b509150915061410d86838387614209565b9695505050505050565b60608247101561418f5760405162461bcd60e51b815260206004820152602660248201527f416464726573733a20696e73756666696369656e742062616c616e636520666f60448201527f722063616c6c00000000000000000000000000000000000000000000000000006064820152608401610216565b600080866001600160a01b031685876040516141ab9190614f92565b60006040518083038185875af1925050503d80600081146141e8576040519150601f19603f3d011682016040523d82523d6000602084013e6141ed565b606091505b50915091506141fe87838387614209565b979650505050505050565b60608315614278578251600003614271576001600160a01b0385163b6142715760405162461bcd60e51b815260206004820152601d60248201527f416464726573733a2063616c6c20746f206e6f6e2d636f6e74726163740000006044820152606401610216565b5081610d20565b610d20838381511561428d5781518083602001fd5b8060405162461bcd60e51b81526004016102169190614c62565b5080546142b390614941565b6000825580601f106142c3575050565b601f0160209004906000526020600020908101906111d991905b808211156142f157600081556001016142dd565b5090565b6001600160a01b03811681146111d957600080fd5b60008083601f84011261431c57600080fd5b50813567ffffffffffffffff81111561433457600080fd5b60208301915083602082850101111561434c57600080fd5b9250929050565b60008060008060008060008060c0898b03121561436f57600080fd5b883597506020890135614381816142f5565b9650604089013567ffffffffffffffff8082111561439e57600080fd5b6143aa8c838d0161430a565b909850965060608b0135955060808b0135945060a08b01359150808211156143d157600080fd5b506143de8b828c0161430a565b999c989b5096995094979396929594505050565b6000806000806080858703121561440857600080fd5b8435614413816142f5565b935060208501359250604085013561442a816142f5565b9396929550929360600135925050565b60006020828403121561444c57600080fd5b5035919050565b60005b8381101561446e578181015183820152602001614456565b50506000910152565b6000815180845261448f816020860160208601614453565b601f017fffffffffffffffffffffffffffffffffffffffffffffffffffffffffffffffe0169290920160200192915050565b8051825260208101516020830152600060408201516001600160a01b0380821660408601528060608501511660608601525050608082015160c0608085015261450d60c0850182614477565b60a093840151949093019390935250919050565b60208152600061408760208301846144c1565b600080600080600080600060e0888a03121561454f57600080fd5b873561455a816142f5565b9650602088013561456a816142f5565b9550604088013561457a816142f5565b969995985095966060810135965060808101359560a0820135955060c0909101359350915050565b6000602082840312156145b457600080fd5b81356145bf816142f5565b9392505050565b7f4e487b7100000000000000000000000000000000000000000000000000000000600052604160045260246000fd5b7fffffffffffffffffffffffffffffffffffffffffffffffffffffffffffffffe0601f830116810181811067ffffffffffffffff82111715614639576146396145c6565b6040525050565b600067ffffffffffffffff82111561465a5761465a6145c6565b50601f017fffffffffffffffffffffffffffffffffffffffffffffffffffffffffffffffe01660200190565b6000806040838503121561469957600080fd5b82356146a4816142f5565b9150602083013567ffffffffffffffff8111156146c057600080fd5b8301601f810185136146d157600080fd5b80356146dc81614640565b6040516146e982826145f5565b8281528760208486010111156146fe57600080fd5b82602085016020830137600060208483010152809450505050509250929050565b8215158152604060208201526000610d206040830184614477565b6000806000806060858703121561475057600080fd5b8435935060208501359250604085013567ffffffffffffffff81111561477557600080fd5b6147818782880161430a565b95989497509550505050565b80151581146111d957600080fd5b60008060008060008060a087890312156147b457600080fd5b86356147bf816142f5565b955060208701356147cf816142f5565b945060408701359350606087013567ffffffffffffffff8111156147f257600080fd5b6147fe89828a0161430a565b90945092505060808701356148128161478d565b809150509295509295509295565b600080600080600080600060c0888a03121561483b57600080fd5b87359650602088013561484d816142f5565b955060408801359450606088013593506080880135925060a088013567ffffffffffffffff81111561487e57600080fd5b61488a8a828b0161430a565b989b979a50959850939692959293505050565b86815285602082015260006001600160a01b03808716604084015280861660608401525060c060808301526148d560c0830185614477565b90508260a0830152979650505050505050565b7f4e487b7100000000000000000000000000000000000000000000000000000000600052601160045260246000fd5b8082018082111561408a5761408a6148e8565b808202811582820484141761408a5761408a6148e8565b600181811c9082168061495557607f821691505b60208210810361498e577f4e487b7100000000000000000000000000000000000000000000000000000000600052602260045260246000fd5b50919050565b601f821115613a4e576000816000526020600020601f850160051c810160208610156149bd5750805b601f850160051c820191505b818110156149dc578281556001016149c9565b505050505050565b815167ffffffffffffffff8111156149fe576149fe6145c6565b614a1281614a0c8454614941565b84614994565b602080601f831160018114614a655760008415614a2f5750858301515b7fffffffffffffffffffffffffffffffffffffffffffffffffffffffffffffffff600386901b1c1916600185901b1785556149dc565b6000858152602081207fffffffffffffffffffffffffffffffffffffffffffffffffffffffffffffffe08616915b82811015614ab257888601518255948401946001909101908401614a93565b5085821015614aee57878501517fffffffffffffffffffffffffffffffffffffffffffffffffffffffffffffffff600388901b60f8161c191681555b5050505050600190811b01905550565b60007fffffffffffffffffffffffffffffffffffffffffffffffffffffffffffffffff8203614b2f57614b2f6148e8565b5060010190565b604081526000614b4960408301856144c1565b905082151560208301529392505050565b600060033d111561142d5760046000803e5060005160e01c90565b600060443d1015614b835790565b6040517ffffffffffffffffffffffffffffffffffffffffffffffffffffffffffffffffc803d016004833e81513d67ffffffffffffffff8160248401118184111715614bd157505050505090565b8285019150815181811115614be95750505050505090565b843d8701016020828501011115614c035750505050505090565b614c12602082860101876145f5565b509095945050505050565b7f756e636c61696d656420737461746520726567206572723a2000000000000000815260008251614c55816019850160208701614453565b9190910160190192915050565b6020815260006140876020830184614477565b8183528181602085013750600060208284010152600060207fffffffffffffffffffffffffffffffffffffffffffffffffffffffffffffffe0601f840116840101905092915050565b60006001600160a01b03808b168352808a1660208401525087604083015260c06060830152614cf160c083018789614c75565b85608084015282810360a0840152614d0a818587614c75565b9b9a5050505050505050505050565b8181038181111561408a5761408a6148e8565b600060208284031215614d3e57600080fd5b5051919050565b600082601f830112614d5657600080fd5b8151614d6181614640565b604051614d6e82826145f5565b828152856020848701011115614d8357600080fd5b614d94836020830160208801614453565b95945050505050565b60008060408385031215614db057600080fd5b825167ffffffffffffffff80821115614dc857600080fd5b614dd486838701614d45565b93506020850151915080821115614dea57600080fd5b50614df785828601614d45565b9150509250929050565b600060608284031215614e1357600080fd5b6040516060810181811067ffffffffffffffff82111715614e3657614e366145c6565b6040528251614e44816142f5565b81526020830151614e548161478d565b60208201526040928301519281019290925250919050565b84815283602082015260606040820152600061410d606083018486614c75565b600060208284031215614e9e57600080fd5b81516145bf8161478d565b600060208284031215614ebb57600080fd5b81516145bf816142f5565b604081526000614ed960408301856144c1565b90506001600160a01b03831660208301529392505050565b60006001600160a01b03808916835280881660208401525085604083015260c06060830152614f2460c083018587614c75565b60808301939093525080820360a0909101526000815260200195945050505050565b60006001600160a01b03808a16835288602084015280881660408401525085606083015284608083015260c060a0830152614f8560c083018486614c75565b9998505050505050505050565b60008251614fa4818460208701614453565b919091019291505056fe416464726573733a206c6f772d6c6576656c2064656c65676174652063616c6c206661696c6564a2646970667358221220a69a7cda7c347e124be81ee195b955c6d06586467d134fd663ca83ad8a99eef264736f6c63430008170033","linkReferences":{}},"methodIdentifiers":{"accountHandler()":"33ddfb9a","claimUnclaimedFund(uint256,bytes32,bytes)":"8ddda0eb","claimUnclaimedState(uint256,bytes32,bytes)":"c9646647","getUnclaimedFund(uint256)":"81763f64","getUnclaimedState(uint256)":"223008d6","initialize(address,address,address,uint256,uint256,uint256,uint256)":"2b4656c8","maxFeePerGas()":"2728bf2c","numUnclaimedFunds()":"b5072bc6","numUnclaimedStates()":"5fa7a696","owner()":"8da5cb5b","proxiableUUID()":"52d1902d","registerUnclaimedFund(bytes32,address,uint256,uint256,uint256,string)":"f9df978e","registerUnclaimedFundInternal(address,bytes32,address,uint256)":"1bae92f7","registerUnclaimedState(bytes32,address,bytes,uint256,uint256,string)":"0e878b9b","registerUnclaimedStateInternal(address,address,bytes32,bytes,bool)":"def27db7","relayerHandler()":"5e5f2610","renounceOwnership()":"715018a6","transferOwnership(address)":"f2fde38b","unclaimedFundClaimGas()":"66221734","unclaimedFundOfId(uint256)":"d27d6a12","unclaimedStateClaimGas()":"a87fedae","unclaimedStateOfId(uint256)":"ff8b4ccf","unclaimsExpiryDuration()":"cdbe49f0","upgradeTo(address)":"3659cfe6","upgradeToAndCall(address,bytes)":"4f1ef286","verifier()":"2b7ac3f3","voidUnclaimedFund(uint256)":"85959ac3","voidUnclaimedState(uint256)":"616ad001"},"storageLayout":{"storage":[{"astId":658,"contract":"src/handlers/UnclaimsHandler.sol:UnclaimsHandler","label":"_status","offset":0,"slot":"0","type":"t_uint256"},{"astId":138,"contract":"src/handlers/UnclaimsHandler.sol:UnclaimsHandler","label":"_initialized","offset":0,"slot":"1","type":"t_uint8"},{"astId":141,"contract":"src/handlers/UnclaimsHandler.sol:UnclaimsHandler","label":"_initializing","offset":1,"slot":"1","type":"t_bool"},{"astId":68175,"contract":"src/handlers/UnclaimsHandler.sol:UnclaimsHandler","label":"__gap","offset":0,"slot":"2","type":"t_array(t_uint256)50_storage"},{"astId":10,"contract":"src/handlers/UnclaimsHandler.sol:UnclaimsHandler","label":"_owner","offset":0,"slot":"52","type":"t_address"},{"astId":130,"contract":"src/handlers/UnclaimsHandler.sol:UnclaimsHandler","label":"__gap","offset":0,"slot":"53","type":"t_array(t_uint256)49_storage"},{"astId":62169,"contract":"src/handlers/UnclaimsHandler.sol:UnclaimsHandler","label":"deployer","offset":0,"slot":"102","type":"t_address"},{"astId":62172,"contract":"src/handlers/UnclaimsHandler.sol:UnclaimsHandler","label":"verifier","offset":0,"slot":"103","type":"t_contract(IVerifier)63906"},{"astId":62175,"contract":"src/handlers/UnclaimsHandler.sol:UnclaimsHandler","label":"accountHandler","offset":0,"slot":"104","type":"t_contract(AccountHandler)61344"},{"astId":62178,"contract":"src/handlers/UnclaimsHandler.sol:UnclaimsHandler","label":"relayerHandler","offset":0,"slot":"105","type":"t_contract(RelayerHandler)62136"},{"astId":62180,"contract":"src/handlers/UnclaimsHandler.sol:UnclaimsHandler","label":"unclaimedFundClaimGas","offset":0,"slot":"106","type":"t_uint256"},{"astId":62182,"contract":"src/handlers/UnclaimsHandler.sol:UnclaimsHandler","label":"unclaimedStateClaimGas","offset":0,"slot":"107","type":"t_uint256"},{"astId":62184,"contract":"src/handlers/UnclaimsHandler.sol:UnclaimsHandler","label":"unclaimsExpiryDuration","offset":0,"slot":"108","type":"t_uint256"},{"astId":62186,"contract":"src/handlers/UnclaimsHandler.sol:UnclaimsHandler","label":"maxFeePerGas","offset":0,"slot":"109","type":"t_uint256"},{"astId":62189,"contract":"src/handlers/UnclaimsHandler.sol:UnclaimsHandler","label":"numUnclaimedFunds","offset":0,"slot":"110","type":"t_uint256"},{"astId":62192,"contract":"src/handlers/UnclaimsHandler.sol:UnclaimsHandler","label":"numUnclaimedStates","offset":0,"slot":"111","type":"t_uint256"},{"astId":62197,"contract":"src/handlers/UnclaimsHandler.sol:UnclaimsHandler","label":"unclaimedFundOfId","offset":0,"slot":"112","type":"t_mapping(t_uint256,t_struct(UnclaimedFund)63980_storage)"},{"astId":62202,"contract":"src/handlers/UnclaimsHandler.sol:UnclaimsHandler","label":"unclaimedStateOfId","offset":0,"slot":"113","type":"t_mapping(t_uint256,t_struct(UnclaimedState)63993_storage)"}],"types":{"t_address":{"encoding":"inplace","label":"address","numberOfBytes":"20"},"t_array(t_uint256)49_storage":{"encoding":"inplace","label":"uint256[49]","numberOfBytes":"1568","base":"t_uint256"},"t_array(t_uint256)50_storage":{"encoding":"inplace","label":"uint256[50]","numberOfBytes":"1600","base":"t_uint256"},"t_bool":{"encoding":"inplace","label":"bool","numberOfBytes":"1"},"t_bytes32":{"encoding":"inplace","label":"bytes32","numberOfBytes":"32"},"t_bytes_storage":{"encoding":"bytes","label":"bytes","numberOfBytes":"32"},"t_contract(AccountHandler)61344":{"encoding":"inplace","label":"contract AccountHandler","numberOfBytes":"20"},"t_contract(IVerifier)63906":{"encoding":"inplace","label":"contract IVerifier","numberOfBytes":"20"},"t_contract(RelayerHandler)62136":{"encoding":"inplace","label":"contract RelayerHandler","numberOfBytes":"20"},"t_mapping(t_uint256,t_struct(UnclaimedFund)63980_storage)":{"encoding":"mapping","key":"t_uint256","label":"mapping(uint256 => struct UnclaimedFund)","numberOfBytes":"32","value":"t_struct(UnclaimedFund)63980_storage"},"t_mapping(t_uint256,t_struct(UnclaimedState)63993_storage)":{"encoding":"mapping","key":"t_uint256","label":"mapping(uint256 => struct UnclaimedState)","numberOfBytes":"32","value":"t_struct(UnclaimedState)63993_storage"},"t_struct(UnclaimedFund)63980_storage":{"encoding":"inplace","label":"struct UnclaimedFund","numberOfBytes":"192","members":[{"astId":63969,"contract":"src/handlers/UnclaimsHandler.sol:UnclaimsHandler","label":"id","offset":0,"slot":"0","type":"t_uint256"},{"astId":63971,"contract":"src/handlers/UnclaimsHandler.sol:UnclaimsHandler","label":"emailAddrCommit","offset":0,"slot":"1","type":"t_bytes32"},{"astId":63973,"contract":"src/handlers/UnclaimsHandler.sol:UnclaimsHandler","label":"sender","offset":0,"slot":"2","type":"t_address"},{"astId":63975,"contract":"src/handlers/UnclaimsHandler.sol:UnclaimsHandler","label":"tokenAddr","offset":0,"slot":"3","type":"t_address"},{"astId":63977,"contract":"src/handlers/UnclaimsHandler.sol:UnclaimsHandler","label":"amount","offset":0,"slot":"4","type":"t_uint256"},{"astId":63979,"contract":"src/handlers/UnclaimsHandler.sol:UnclaimsHandler","label":"expiryTime","offset":0,"slot":"5","type":"t_uint256"}]},"t_struct(UnclaimedState)63993_storage":{"encoding":"inplace","label":"struct UnclaimedState","numberOfBytes":"192","members":[{"astId":63982,"contract":"src/handlers/UnclaimsHandler.sol:UnclaimsHandler","label":"id","offset":0,"slot":"0","type":"t_uint256"},{"astId":63984,"contract":"src/handlers/UnclaimsHandler.sol:UnclaimsHandler","label":"emailAddrCommit","offset":0,"slot":"1","type":"t_bytes32"},{"astId":63986,"contract":"src/handlers/UnclaimsHandler.sol:UnclaimsHandler","label":"extensionAddr","offset":0,"slot":"2","type":"t_address"},{"astId":63988,"contract":"src/handlers/UnclaimsHandler.sol:UnclaimsHandler","label":"sender","offset":0,"slot":"3","type":"t_address"},{"astId":63990,"contract":"src/handlers/UnclaimsHandler.sol:UnclaimsHandler","label":"state","offset":0,"slot":"4","type":"t_bytes_storage"},{"astId":63992,"contract":"src/handlers/UnclaimsHandler.sol:UnclaimsHandler","label":"expiryTime","offset":0,"slot":"5","type":"t_uint256"}]},"t_uint256":{"encoding":"inplace","label":"uint256","numberOfBytes":"32"},"t_uint8":{"encoding":"inplace","label":"uint8","numberOfBytes":"1"}}},"id":126}