{
  "abi": [
    {
      "inputs": [
        {
          "internalType": "contract IUniswapV3Factory",
          "name": "_factory",
          "type": "address"
        }
      ],
      "stateMutability": "nonpayable",
      "type": "constructor"
    },
    {
      "inputs": [],
      "name": "factory",
      "outputs": [
        {
          "internalType": "contract IUniswapV3Factory",
          "name": "",
          "type": "address"
        }
      ],
      "stateMutability": "view",
      "type": "function"
    },
    {
      "inputs": [
        {
          "internalType": "address",
          "name": "tokenA",
          "type": "address"
        },
        {
          "internalType": "address",
          "name": "tokenB",
          "type": "address"
        },
        {
          "internalType": "uint24",
          "name": "fee",
          "type": "uint24"
        }
      ],
      "name": "getPoolSlot0",
      "outputs": [
        {
          "internalType": "uint160",
          "name": "sqrtPriceX96",
          "type": "uint160"
        },
        {
          "internalType": "int24",
          "name": "tick",
          "type": "int24"
        },
        {
          "internalType": "uint16",
          "name": "observationIndex",
          "type": "uint16"
        },
        {
          "internalType": "uint16",
          "name": "observationCardinality",
          "type": "uint16"
        },
        {
          "internalType": "uint16",
          "name": "observationCardinalityNext",
          "type": "uint16"
        },
        {
          "internalType": "uint8",
          "name": "feeProtocol",
          "type": "uint8"
        },
        {
          "internalType": "bool",
          "name": "unlocked",
          "type": "bool"
        }
      ],
      "stateMutability": "view",
      "type": "function"
    }
  ],
  "bytecode": {
    "object": "0x60a060405234801561001057600080fd5b5060405161046d38038061046d83398101604081905261002f91610040565b6001600160a01b0316608052610070565b60006020828403121561005257600080fd5b81516001600160a01b038116811461006957600080fd5b9392505050565b6080516103dc6100916000396000818160a9015261012601526103dc6000f3fe608060405234801561001057600080fd5b50600436106100365760003560e01c8063b723c1721461003b578063c45a0155146100a4575b600080fd5b61004e610049366004610274565b6100e3565b604080516001600160a01b03909816885260029690960b602088015261ffff94851695870195909552918316606086015291909116608084015260ff1660a0830152151560c082015260e0015b60405180910390f35b6100cb7f000000000000000000000000000000000000000000000000000000000000000081565b6040516001600160a01b03909116815260200161009b565b604051630b4c774160e11b81526001600160a01b038481166004830152838116602483015262ffffff8316604483015260009182918291829182918291829182917f00000000000000000000000000000000000000000000000000000000000000001690631698ee8290606401602060405180830381865afa15801561016d573d6000803e3d6000fd5b505050506040513d601f19601f8201168201806040525081019061019191906102c7565b90506001600160a01b0381166101de5760405162461bcd60e51b815260206004820152600e60248201526d141bdbdb081b9bdd08199bdd5b9960921b604482015260640160405180910390fd5b806001600160a01b0316633850c7bd6040518163ffffffff1660e01b815260040160e060405180830381865afa15801561021c573d6000803e3d6000fd5b505050506040513d601f19601f820116820180604052508101906102409190610302565b9750975097509750975097509750509397509397509397909450565b6001600160a01b038116811461027157600080fd5b50565b60008060006060848603121561028957600080fd5b83356102948161025c565b925060208401356102a48161025c565b9150604084013562ffffff811681146102bc57600080fd5b809150509250925092565b6000602082840312156102d957600080fd5b81516102e48161025c565b9392505050565b805161ffff811681146102fd57600080fd5b919050565b600080600080600080600060e0888a03121561031d57600080fd5b87516103288161025c565b8097505060208801518060020b811461034057600080fd5b955061034e604089016102eb565b945061035c606089016102eb565b935061036a608089016102eb565b925060a088015160ff8116811461038057600080fd5b60c0890151909250801515811461039657600080fd5b809150509295989194975092955056fea26469706673582212204fe286316d4cc8f889bc9e89f31f9811c386ff2aae3e5704e5eb1eba60e3af7c64736f6c63430008150033",
    "linkReferences": {}
  },
  "methodIdentifiers": {
    "factory()": "c45a0155",
    "getPoolSlot0(address,address,uint24)": "b723c172"
  },
  "id": 127
}