{
  "abi": [
    {
      "inputs": [
        {
          "internalType": "contract IUniswapV3Factory",
          "name": "_factory",
          "type": "address"
        }
      ],
      "stateMutability": "nonpayable",
      "type": "constructor"
    },
    {
      "inputs": [],
      "name": "factory",
      "outputs": [
        {
          "internalType": "contract IUniswapV3Factory",
          "name": "",
          "type": "address"
        }
      ],
      "stateMutability": "view",
      "type": "function"
    },
    {
      "inputs": [
        {
          "internalType": "address",
          "name": "tokenA",
          "type": "address"
        },
        {
          "internalType": "address",
          "name": "tokenB",
          "type": "address"
        },
        {
          "internalType": "uint24",
          "name": "fee",
          "type": "uint24"
        }
      ],
      "name": "getPoolSlot0",
      "outputs": [
        {
          "internalType": "uint160",
          "name": "sqrtPriceX96",
          "type": "uint160"
        },
        {
          "internalType": "int24",
          "name": "tick",
          "type": "int24"
        },
        {
          "internalType": "uint16",
          "name": "observationIndex",
          "type": "uint16"
        },
        {
          "internalType": "uint16",
          "name": "observationCardinality",
          "type": "uint16"
        },
        {
          "internalType": "uint16",
          "name": "observationCardinalityNext",
          "type": "uint16"
        },
        {
          "internalType": "uint8",
          "name": "feeProtocol",
          "type": "uint8"
        },
        {
          "internalType": "bool",
          "name": "unlocked",
          "type": "bool"
        }
      ],
      "stateMutability": "view",
      "type": "function"
    },
    {
      "inputs": [
        {
          "internalType": "address",
          "name": "tokenA",
          "type": "address"
        },
        {
          "internalType": "address",
          "name": "tokenB",
          "type": "address"
        },
        {
          "internalType": "uint24",
          "name": "fee",
          "type": "uint24"
        }
      ],
      "name": "isPoolExists",
      "outputs": [
        {
          "internalType": "bool",
          "name": "",
          "type": "bool"
        }
      ],
      "stateMutability": "view",
      "type": "function"
    }
  ],
  "bytecode": {
    "object": "0x60a060405234801561001057600080fd5b5060405161061a38038061061a83398101604081905261002f91610040565b6001600160a01b0316608052610070565b60006020828403121561005257600080fd5b81516001600160a01b038116811461006957600080fd5b9392505050565b6080516105826100986000396000818160e401528181610188015261027c01526105826000f3fe608060405234801561001057600080fd5b50600436106100415760003560e01c806364bd1edf14610046578063b723c1721461006e578063c45a0155146100df575b600080fd5b61005961005436600461041a565b61012b565b60405190151581526020015b60405180910390f35b61008161007c36600461041a565b610213565b6040805173ffffffffffffffffffffffffffffffffffffffff909816885260029690960b602088015261ffff94851695870195909552918316606086015291909116608084015260ff1660a0830152151560c082015260e001610065565b6101067f000000000000000000000000000000000000000000000000000000000000000081565b60405173ffffffffffffffffffffffffffffffffffffffff9091168152602001610065565b6040517f1698ee8200000000000000000000000000000000000000000000000000000000815273ffffffffffffffffffffffffffffffffffffffff8481166004830152838116602483015262ffffff8316604483015260009182917f00000000000000000000000000000000000000000000000000000000000000001690631698ee8290606401602060405180830381865afa1580156101cf573d6000803e3d6000fd5b505050506040513d601f19601f820116820180604052508101906101f3919061046d565b73ffffffffffffffffffffffffffffffffffffffff161415949350505050565b6040517f1698ee8200000000000000000000000000000000000000000000000000000000815273ffffffffffffffffffffffffffffffffffffffff8481166004830152838116602483015262ffffff8316604483015260009182918291829182918291829182917f00000000000000000000000000000000000000000000000000000000000000001690631698ee8290606401602060405180830381865afa1580156102c3573d6000803e3d6000fd5b505050506040513d601f19601f820116820180604052508101906102e7919061046d565b905073ffffffffffffffffffffffffffffffffffffffff811661036a576040517f08c379a000000000000000000000000000000000000000000000000000000000815260206004820152600e60248201527f506f6f6c206e6f7420666f756e64000000000000000000000000000000000000604482015260640160405180910390fd5b8073ffffffffffffffffffffffffffffffffffffffff16633850c7bd6040518163ffffffff1660e01b815260040160e060405180830381865afa1580156103b5573d6000803e3d6000fd5b505050506040513d601f19601f820116820180604052508101906103d991906104a8565b9750975097509750975097509750509397509397509397909450565b73ffffffffffffffffffffffffffffffffffffffff8116811461041757600080fd5b50565b60008060006060848603121561042f57600080fd5b833561043a816103f5565b9250602084013561044a816103f5565b9150604084013562ffffff8116811461046257600080fd5b809150509250925092565b60006020828403121561047f57600080fd5b815161048a816103f5565b9392505050565b805161ffff811681146104a357600080fd5b919050565b600080600080600080600060e0888a0312156104c357600080fd5b87516104ce816103f5565b8097505060208801518060020b81146104e657600080fd5b95506104f460408901610491565b945061050260608901610491565b935061051060808901610491565b925060a088015160ff8116811461052657600080fd5b60c0890151909250801515811461053c57600080fd5b809150509295989194975092955056fea2646970667358221220513ab6a3d9372432ef44213d10b43701d0544f4be79f7c740c4e4957475cd71764736f6c63430008150033",
    "linkReferences": {}
  },
  "methodIdentifiers": {
    "factory()": "c45a0155",
    "getPoolSlot0(address,address,uint24)": "b723c172",
    "isPoolExists(address,address,uint24)": "64bd1edf"
  },
  "storageLayout": {
    "storage": [],
    "types": {}
  },
  "id": 137
}