{
  "abi": [
    {
      "inputs": [
        {
          "internalType": "contract IUniswapV3Factory",
          "name": "_factory",
          "type": "address"
        }
      ],
      "stateMutability": "nonpayable",
      "type": "constructor"
    },
    {
      "inputs": [],
      "name": "factory",
      "outputs": [
        {
          "internalType": "contract IUniswapV3Factory",
          "name": "",
          "type": "address"
        }
      ],
      "stateMutability": "view",
      "type": "function"
    },
    {
      "inputs": [
        {
          "internalType": "address",
          "name": "tokenA",
          "type": "address"
        },
        {
          "internalType": "address",
          "name": "tokenB",
          "type": "address"
        },
        {
          "internalType": "uint24",
          "name": "fee",
          "type": "uint24"
        }
      ],
      "name": "getPoolSlot0",
      "outputs": [
        {
          "internalType": "uint160",
          "name": "sqrtPriceX96",
          "type": "uint160"
        },
        {
          "internalType": "int24",
          "name": "tick",
          "type": "int24"
        },
        {
          "internalType": "uint16",
          "name": "observationIndex",
          "type": "uint16"
        },
        {
          "internalType": "uint16",
          "name": "observationCardinality",
          "type": "uint16"
        },
        {
          "internalType": "uint16",
          "name": "observationCardinalityNext",
          "type": "uint16"
        },
        {
          "internalType": "uint8",
          "name": "feeProtocol",
          "type": "uint8"
        },
        {
          "internalType": "bool",
          "name": "unlocked",
          "type": "bool"
        }
      ],
      "stateMutability": "view",
      "type": "function"
    },
    {
      "inputs": [
        {
          "internalType": "address",
          "name": "tokenA",
          "type": "address"
        },
        {
          "internalType": "address",
          "name": "tokenB",
          "type": "address"
        },
        {
          "internalType": "uint24",
          "name": "fee",
          "type": "uint24"
        }
      ],
      "name": "isPoolExists",
      "outputs": [
        {
          "internalType": "bool",
          "name": "",
          "type": "bool"
        }
      ],
      "stateMutability": "view",
      "type": "function"
    }
  ],
  "bytecode": {
    "object": "0x60a060405234801561001057600080fd5b5060405161056238038061056283398101604081905261002f91610040565b6001600160a01b0316608052610070565b60006020828403121561005257600080fd5b81516001600160a01b038116811461006957600080fd5b9392505050565b6080516104ca6100986000396000818160d70152818161012501526101c801526104ca6000f3fe608060405234801561001057600080fd5b50600436106100415760003560e01c806364bd1edf14610046578063b723c1721461006e578063c45a0155146100d2575b600080fd5b61005961005436600461033a565b610111565b60405190151581526020015b60405180910390f35b61008161007c36600461033a565b6101ba565b604080516001600160a01b03909816885260029690960b602088015261ffff94851695870195909552918316606086015291909116608084015260ff1660a0830152151560c082015260e001610065565b6100f97f000000000000000000000000000000000000000000000000000000000000000081565b6040516001600160a01b039091168152602001610065565b604051630b4c774160e11b815260009081907f00000000000000000000000000000000000000000000000000000000000000006001600160a01b031690631698ee82906101669088908890889060040161038d565b602060405180830381865afa158015610183573d6000803e3d6000fd5b505050506040513d601f19601f820116820180604052508101906101a791906103b5565b6001600160a01b03161415949350505050565b6000806000806000806000807f00000000000000000000000000000000000000000000000000000000000000006001600160a01b0316631698ee828c8c8c6040518463ffffffff1660e01b81526004016102169392919061038d565b602060405180830381865afa158015610233573d6000803e3d6000fd5b505050506040513d601f19601f8201168201806040525081019061025791906103b5565b90506001600160a01b0381166102a45760405162461bcd60e51b815260206004820152600e60248201526d141bdbdb081b9bdd08199bdd5b9960921b604482015260640160405180910390fd5b806001600160a01b0316633850c7bd6040518163ffffffff1660e01b815260040160e060405180830381865afa1580156102e2573d6000803e3d6000fd5b505050506040513d601f19601f8201168201806040525081019061030691906103f0565b9750975097509750975097509750509397509397509397909450565b6001600160a01b038116811461033757600080fd5b50565b60008060006060848603121561034f57600080fd5b833561035a81610322565b9250602084013561036a81610322565b9150604084013562ffffff8116811461038257600080fd5b809150509250925092565b6001600160a01b03938416815291909216602082015262ffffff909116604082015260600190565b6000602082840312156103c757600080fd5b81516103d281610322565b9392505050565b805161ffff811681146103eb57600080fd5b919050565b600080600080600080600060e0888a03121561040b57600080fd5b875161041681610322565b8097505060208801518060020b811461042e57600080fd5b955061043c604089016103d9565b945061044a606089016103d9565b9350610458608089016103d9565b925060a088015160ff8116811461046e57600080fd5b60c0890151909250801515811461048457600080fd5b809150509295989194975092955056fea2646970667358221220eb708e79b8f23a6e2332ace388d7576967fe4fc2cc13e2a1e73dad0305b7c39864736f6c63430008150033",
    "linkReferences": {}
  },
  "methodIdentifiers": {
    "factory()": "c45a0155",
    "getPoolSlot0(address,address,uint24)": "b723c172",
    "isPoolExists(address,address,uint24)": "64bd1edf"
  },
  "id": 123
}