{
  "abi": [
    {
      "inputs": [
        {
          "internalType": "contract IUniswapV3Factory",
          "name": "_factory",
          "type": "address"
        }
      ],
      "stateMutability": "nonpayable",
      "type": "constructor"
    },
    {
      "inputs": [],
      "name": "factory",
      "outputs": [
        {
          "internalType": "contract IUniswapV3Factory",
          "name": "",
          "type": "address"
        }
      ],
      "stateMutability": "view",
      "type": "function"
    },
    {
      "inputs": [
        {
          "internalType": "address",
          "name": "tokenA",
          "type": "address"
        },
        {
          "internalType": "address",
          "name": "tokenB",
          "type": "address"
        },
        {
          "internalType": "uint24",
          "name": "fee",
          "type": "uint24"
        }
      ],
      "name": "getPool",
      "outputs": [
        {
          "internalType": "contract IUniswapV3Pool",
          "name": "",
          "type": "address"
        }
      ],
      "stateMutability": "view",
      "type": "function"
    }
  ],
  "bytecode": {
    "object": "0x60a060405234801561001057600080fd5b506040516102dd3803806102dd83398101604081905261002f91610040565b6001600160a01b0316608052610070565b60006020828403121561005257600080fd5b81516001600160a01b038116811461006957600080fd5b9392505050565b60805161024d61009060003960008181606f015260c8015261024d6000f3fe608060405234801561001057600080fd5b50600436106100365760003560e01c80631698ee821461003b578063c45a01551461006a575b600080fd5b61004e6100493660046101a0565b610091565b6040516001600160a01b03909116815260200160405180910390f35b61004e7f000000000000000000000000000000000000000000000000000000000000000081565b604051630b4c774160e11b81526001600160a01b038481166004830152838116602483015262ffffff8316604483015260009182917f00000000000000000000000000000000000000000000000000000000000000001690631698ee8290606401602060405180830381865afa15801561010f573d6000803e3d6000fd5b505050506040513d601f19601f8201168201806040525081019061013391906101f3565b90506001600160a01b0381166101805760405162461bcd60e51b815260206004820152600e60248201526d141bdbdb081b9bdd08199bdd5b9960921b604482015260640160405180910390fd5b949350505050565b6001600160a01b038116811461019d57600080fd5b50565b6000806000606084860312156101b557600080fd5b83356101c081610188565b925060208401356101d081610188565b9150604084013562ffffff811681146101e857600080fd5b809150509250925092565b60006020828403121561020557600080fd5b815161021081610188565b939250505056fea2646970667358221220faf191900013277bb6fc94f18c2201fd12bf10d7175e4da391cf1ad6c084676964736f6c63430008150033",
    "linkReferences": {}
  },
  "methodIdentifiers": {
    "factory()": "c45a0155",
    "getPool(address,address,uint24)": "1698ee82"
  },
  "id": 129
}