{"abi":[{"type":"constructor","inputs":[],"stateMutability":"nonpayable"},{"type":"function","name":"initialize","inputs":[],"outputs":[],"stateMutability":"nonpayable"},{"type":"function","name":"owner","inputs":[],"outputs":[{"name":"","type":"address","internalType":"address"}],"stateMutability":"view"},{"type":"function","name":"proxiableUUID","inputs":[],"outputs":[{"name":"","type":"bytes32","internalType":"bytes32"}],"stateMutability":"view"},{"type":"function","name":"registerRelayer","inputs":[{"name":"emailAddr","type":"string","internalType":"string"},{"name":"hostname","type":"string","internalType":"string"}],"outputs":[],"stateMutability":"nonpayable"},{"type":"function","name":"relayerOfEmailAddr","inputs":[{"name":"","type":"string","internalType":"string"}],"outputs":[{"name":"","type":"address","internalType":"address"}],"stateMutability":"view"},{"type":"function","name":"relayers","inputs":[{"name":"","type":"address","internalType":"address"}],"outputs":[{"name":"emailAddr","type":"string","internalType":"string"},{"name":"hostname","type":"string","internalType":"string"}],"stateMutability":"view"},{"type":"function","name":"renounceOwnership","inputs":[],"outputs":[],"stateMutability":"nonpayable"},{"type":"function","name":"transferOwnership","inputs":[{"name":"newOwner","type":"address","internalType":"address"}],"outputs":[],"stateMutability":"nonpayable"},{"type":"function","name":"updateRelayerConfig","inputs":[{"name":"hostname","type":"string","internalType":"string"}],"outputs":[],"stateMutability":"nonpayable"},{"type":"function","name":"upgradeTo","inputs":[{"name":"newImplementation","type":"address","internalType":"address"}],"outputs":[],"stateMutability":"nonpayable"},{"type":"function","name":"upgradeToAndCall","inputs":[{"name":"newImplementation","type":"address","internalType":"address"},{"name":"data","type":"bytes","internalType":"bytes"}],"outputs":[],"stateMutability":"payable"},{"type":"event","name":"AdminChanged","inputs":[{"name":"previousAdmin","type":"address","indexed":false,"internalType":"address"},{"name":"newAdmin","type":"address","indexed":false,"internalType":"address"}],"anonymous":false},{"type":"event","name":"BeaconUpgraded","inputs":[{"name":"beacon","type":"address","indexed":true,"internalType":"address"}],"anonymous":false},{"type":"event","name":"Initialized","inputs":[{"name":"version","type":"uint8","indexed":false,"internalType":"uint8"}],"anonymous":false},{"type":"event","name":"OwnershipTransferred","inputs":[{"name":"previousOwner","type":"address","indexed":true,"internalType":"address"},{"name":"newOwner","type":"address","indexed":true,"internalType":"address"}],"anonymous":false},{"type":"event","name":"RelayerConfigUpdated","inputs":[{"name":"addr","type":"address","indexed":true,"internalType":"address"},{"name":"hostname","type":"string","indexed":false,"internalType":"string"}],"anonymous":false},{"type":"event","name":"RelayerRegistered","inputs":[{"name":"addr","type":"address","indexed":true,"internalType":"address"},{"name":"emailAddr","type":"string","indexed":false,"internalType":"string"},{"name":"hostname","type":"string","indexed":false,"internalType":"string"}],"anonymous":false},{"type":"event","name":"Upgraded","inputs":[{"name":"implementation","type":"address","indexed":true,"internalType":"address"}],"anonymous":false}],"bytecode":{"object":"0x60a06040523060805234801561001457600080fd5b5061001d610022565b6100e1565b600054610100900460ff161561008e5760405162461bcd60e51b815260206004820152602760248201527f496e697469616c697a61626c653a20636f6e747261637420697320696e697469604482015266616c697a696e6760c81b606482015260840160405180910390fd5b60005460ff908116146100df576000805460ff191660ff9081179091556040519081527f7f26b83ff96e1f2b6a682f133852f6798a09c465da95921460cefb38474024989060200160405180910390a15b565b608051611f12610118600039600081816102870152818161033c0152818161049101528181610541015261068a0152611f126000f3fe6080604052600436106100bc5760003560e01c80637e2f2bbc116100745780638da5cb5b1161004e5780638da5cb5b146101b6578063cd092c1a14610202578063f2fde38b1461025057600080fd5b80637e2f2bbc146101615780638129fc1c1461018157806389c90bb81461019657600080fd5b806352d1902d116100a557806352d1902d146100f65780635300f8411461011e578063715018a61461014c57600080fd5b80633659cfe6146100c15780634f1ef286146100e3575b600080fd5b3480156100cd57600080fd5b506100e16100dc3660046117da565b610270565b005b6100e16100f13660046118b8565b61047a565b34801561010257600080fd5b5061010b610670565b6040519081526020015b60405180910390f35b34801561012a57600080fd5b5061013e6101393660046117da565b61075c565b604051610115929190611988565b34801561015857600080fd5b506100e1610888565b34801561016d57600080fd5b506100e161017c3660046119ff565b61089c565b34801561018d57600080fd5b506100e16109fe565b3480156101a257600080fd5b506100e16101b1366004611a41565b610bb9565b3480156101c257600080fd5b5060335473ffffffffffffffffffffffffffffffffffffffff165b60405173ffffffffffffffffffffffffffffffffffffffff9091168152602001610115565b34801561020e57600080fd5b506101dd61021d366004611aad565b805160208183018101805160678252928201919093012091525473ffffffffffffffffffffffffffffffffffffffff1681565b34801561025c57600080fd5b506100e161026b3660046117da565b610f22565b73ffffffffffffffffffffffffffffffffffffffff7f000000000000000000000000000000000000000000000000000000000000000016300361033a576040517f08c379a000000000000000000000000000000000000000000000000000000000815260206004820152602c60248201527f46756e6374696f6e206d7573742062652063616c6c6564207468726f7567682060448201527f64656c656761746563616c6c000000000000000000000000000000000000000060648201526084015b60405180910390fd5b7f000000000000000000000000000000000000000000000000000000000000000073ffffffffffffffffffffffffffffffffffffffff166103af7f360894a13ba1a3210667c828492db98dca3e2076cc3735a920a3ca505d382bbc5473ffffffffffffffffffffffffffffffffffffffff1690565b73ffffffffffffffffffffffffffffffffffffffff1614610452576040517f08c379a000000000000000000000000000000000000000000000000000000000815260206004820152602c60248201527f46756e6374696f6e206d7573742062652063616c6c6564207468726f7567682060448201527f6163746976652070726f787900000000000000000000000000000000000000006064820152608401610331565b61045b81610fd6565b6040805160008082526020820190925261047791839190611057565b50565b73ffffffffffffffffffffffffffffffffffffffff7f000000000000000000000000000000000000000000000000000000000000000016300361053f576040517f08c379a000000000000000000000000000000000000000000000000000000000815260206004820152602c60248201527f46756e6374696f6e206d7573742062652063616c6c6564207468726f7567682060448201527f64656c656761746563616c6c00000000000000000000000000000000000000006064820152608401610331565b7f000000000000000000000000000000000000000000000000000000000000000073ffffffffffffffffffffffffffffffffffffffff166105b47f360894a13ba1a3210667c828492db98dca3e2076cc3735a920a3ca505d382bbc5473ffffffffffffffffffffffffffffffffffffffff1690565b73ffffffffffffffffffffffffffffffffffffffff1614610657576040517f08c379a000000000000000000000000000000000000000000000000000000000815260206004820152602c60248201527f46756e6374696f6e206d7573742062652063616c6c6564207468726f7567682060448201527f6163746976652070726f787900000000000000000000000000000000000000006064820152608401610331565b61066082610fd6565b61066c82826001611057565b5050565b60003073ffffffffffffffffffffffffffffffffffffffff7f00000000000000000000000000000000000000000000000000000000000000001614610737576040517f08c379a000000000000000000000000000000000000000000000000000000000815260206004820152603860248201527f555550535570677261646561626c653a206d757374206e6f742062652063616c60448201527f6c6564207468726f7567682064656c656761746563616c6c00000000000000006064820152608401610331565b507f360894a13ba1a3210667c828492db98dca3e2076cc3735a920a3ca505d382bbc90565b60666020526000908152604090208054819061077790611af6565b80601f01602080910402602001604051908101604052809291908181526020018280546107a390611af6565b80156107f05780601f106107c5576101008083540402835291602001916107f0565b820191906000526020600020905b8154815290600101906020018083116107d357829003601f168201915b50505050509080600101805461080590611af6565b80601f016020809104026020016040519081016040528092919081815260200182805461083190611af6565b801561087e5780601f106108535761010080835404028352916020019161087e565b820191906000526020600020905b81548152906001019060200180831161086157829003601f168201915b5050505050905082565b61089061125b565b61089a60006112dc565b565b6000819003610907576040517f08c379a000000000000000000000000000000000000000000000000000000000815260206004820152601860248201527f686f73746e616d652063616e6e6f7420626520656d70747900000000000000006044820152606401610331565b336000908152606660205260409020805461092190611af6565b905060000361098c576040517f08c379a000000000000000000000000000000000000000000000000000000000815260206004820152601660248201527f72656c61796572206e6f742072656769737465726564000000000000000000006044820152606401610331565b3360009081526066602052604090206001016109a9828483611b99565b503373ffffffffffffffffffffffffffffffffffffffff167f6ff0546c9b984813862ee7fd4c0bccb1d83c1d5670f953f05ca4bae56418d5ee83836040516109f2929190611cfd565b60405180910390a25050565b600054610100900460ff1615808015610a1e5750600054600160ff909116105b80610a385750303b158015610a38575060005460ff166001145b610ac4576040517f08c379a000000000000000000000000000000000000000000000000000000000815260206004820152602e60248201527f496e697469616c697a61626c653a20636f6e747261637420697320616c72656160448201527f647920696e697469616c697a65640000000000000000000000000000000000006064820152608401610331565b600080547fffffffffffffffffffffffffffffffffffffffffffffffffffffffffffffff001660011790558015610b2257600080547fffffffffffffffffffffffffffffffffffffffffffffffffffffffffffff00ff166101001790555b610b2a611353565b606580547fffffffffffffffffffffffff00000000000000000000000000000000000000001633179055801561047757600080547fffffffffffffffffffffffffffffffffffffffffffffffffffffffffffff00ff169055604051600181527f7f26b83ff96e1f2b6a682f133852f6798a09c465da95921460cefb38474024989060200160405180910390a150565b6000839003610c24576040517f08c379a000000000000000000000000000000000000000000000000000000000815260206004820152601960248201527f656d61696c416464722063616e6e6f7420626520656d707479000000000000006044820152606401610331565b6000819003610c8f576040517f08c379a000000000000000000000000000000000000000000000000000000000815260206004820152601860248201527f686f73746e616d652063616e6e6f7420626520656d70747900000000000000006044820152606401610331565b3360009081526066602052604090208054610ca990611af6565b159050610d12576040517f08c379a000000000000000000000000000000000000000000000000000000000815260206004820152601a60248201527f72656c6179657220616c726561647920726567697374657265640000000000006044820152606401610331565b600073ffffffffffffffffffffffffffffffffffffffff1660678585604051610d3c929190611d11565b9081526040519081900360200190205473ffffffffffffffffffffffffffffffffffffffff1614610dc9576040517f08c379a000000000000000000000000000000000000000000000000000000000815260206004820152601c60248201527f656d61696c4164647220616c72656164792072656769737465726564000000006044820152606401610331565b6040805160606020601f87018190040282018101835291810185815290918291908790879081908501838280828437600092019190915250505090825250604080516020601f860181900481028201810190925284815291810191908590859081908401838280828437600092018290525093909452505033815260666020526040902082519091508190610e5e9082611d21565b5060208201516001820190610e739082611d21565b509050503360678585604051610e8a929190611d11565b908152604051908190036020018120805473ffffffffffffffffffffffffffffffffffffffff939093167fffffffffffffffffffffffff00000000000000000000000000000000000000009093169290921790915533907f6d8a8b7ad07c84c7549f092b4743ed1834e57565146423a0aff45e156a612d3c90610f14908790879087908790611e3b565b60405180910390a250505050565b610f2a61125b565b73ffffffffffffffffffffffffffffffffffffffff8116610fcd576040517f08c379a000000000000000000000000000000000000000000000000000000000815260206004820152602660248201527f4f776e61626c653a206e6577206f776e657220697320746865207a65726f206160448201527f64647265737300000000000000000000000000000000000000000000000000006064820152608401610331565b610477816112dc565b60655473ffffffffffffffffffffffffffffffffffffffff163314610477576040517f08c379a000000000000000000000000000000000000000000000000000000000815260206004820152601860248201527f63616c6c6572206973206e6f742061206465706c6f79657200000000000000006044820152606401610331565b7f4910fdfa16fed3260ed0e7147f7cc6da11a60208b5b9406d12a635614ffd91435460ff161561108f5761108a836113f2565b505050565b8273ffffffffffffffffffffffffffffffffffffffff166352d1902d6040518163ffffffff1660e01b8152600401602060405180830381865afa925050508015611114575060408051601f3d9081017fffffffffffffffffffffffffffffffffffffffffffffffffffffffffffffffe016820190925261111191810190611e6d565b60015b6111a0576040517f08c379a000000000000000000000000000000000000000000000000000000000815260206004820152602e60248201527f45524331393637557067726164653a206e657720696d706c656d656e7461746960448201527f6f6e206973206e6f7420555550530000000000000000000000000000000000006064820152608401610331565b7f360894a13ba1a3210667c828492db98dca3e2076cc3735a920a3ca505d382bbc811461124f576040517f08c379a000000000000000000000000000000000000000000000000000000000815260206004820152602960248201527f45524331393637557067726164653a20756e737570706f727465642070726f7860448201527f6961626c655555494400000000000000000000000000000000000000000000006064820152608401610331565b5061108a8383836114fc565b60335473ffffffffffffffffffffffffffffffffffffffff16331461089a576040517f08c379a000000000000000000000000000000000000000000000000000000000815260206004820181905260248201527f4f776e61626c653a2063616c6c6572206973206e6f7420746865206f776e65726044820152606401610331565b6033805473ffffffffffffffffffffffffffffffffffffffff8381167fffffffffffffffffffffffff0000000000000000000000000000000000000000831681179093556040519116919082907f8be0079c531659141344cd1fd0a4f28419497f9722a3daafe3b4186f6b6457e090600090a35050565b600054610100900460ff166113ea576040517f08c379a000000000000000000000000000000000000000000000000000000000815260206004820152602b60248201527f496e697469616c697a61626c653a20636f6e7472616374206973206e6f74206960448201527f6e697469616c697a696e670000000000000000000000000000000000000000006064820152608401610331565b61089a611527565b73ffffffffffffffffffffffffffffffffffffffff81163b611496576040517f08c379a000000000000000000000000000000000000000000000000000000000815260206004820152602d60248201527f455243313936373a206e657720696d706c656d656e746174696f6e206973206e60448201527f6f74206120636f6e7472616374000000000000000000000000000000000000006064820152608401610331565b7f360894a13ba1a3210667c828492db98dca3e2076cc3735a920a3ca505d382bbc80547fffffffffffffffffffffffff00000000000000000000000000000000000000001673ffffffffffffffffffffffffffffffffffffffff92909216919091179055565b611505836115c7565b6000825111806115125750805b1561108a576115218383611614565b50505050565b600054610100900460ff166115be576040517f08c379a000000000000000000000000000000000000000000000000000000000815260206004820152602b60248201527f496e697469616c697a61626c653a20636f6e7472616374206973206e6f74206960448201527f6e697469616c697a696e670000000000000000000000000000000000000000006064820152608401610331565b61089a336112dc565b6115d0816113f2565b60405173ffffffffffffffffffffffffffffffffffffffff8216907fbc7cd75a20ee27fd9adebab32041f755214dbc6bffa90cc0225b39da2e5c2d3b90600090a250565b60606116398383604051806060016040528060278152602001611eb660279139611640565b9392505050565b60606000808573ffffffffffffffffffffffffffffffffffffffff168560405161166a9190611e86565b600060405180830381855af49150503d80600081146116a5576040519150601f19603f3d011682016040523d82523d6000602084013e6116aa565b606091505b50915091506116bb868383876116c5565b9695505050505050565b6060831561175b5782516000036117545773ffffffffffffffffffffffffffffffffffffffff85163b611754576040517f08c379a000000000000000000000000000000000000000000000000000000000815260206004820152601d60248201527f416464726573733a2063616c6c20746f206e6f6e2d636f6e74726163740000006044820152606401610331565b5081611765565b611765838361176d565b949350505050565b81511561177d5781518083602001fd5b806040517f08c379a00000000000000000000000000000000000000000000000000000000081526004016103319190611ea2565b803573ffffffffffffffffffffffffffffffffffffffff811681146117d557600080fd5b919050565b6000602082840312156117ec57600080fd5b611639826117b1565b7f4e487b7100000000000000000000000000000000000000000000000000000000600052604160045260246000fd5b600067ffffffffffffffff8084111561183f5761183f6117f5565b604051601f85017fffffffffffffffffffffffffffffffffffffffffffffffffffffffffffffffe0908116603f01168101908282118183101715611885576118856117f5565b8160405280935085815286868601111561189e57600080fd5b858560208301376000602087830101525050509392505050565b600080604083850312156118cb57600080fd5b6118d4836117b1565b9150602083013567ffffffffffffffff8111156118f057600080fd5b8301601f8101851361190157600080fd5b61191085823560208401611824565b9150509250929050565b60005b8381101561193557818101518382015260200161191d565b50506000910152565b6000815180845261195681602086016020860161191a565b601f017fffffffffffffffffffffffffffffffffffffffffffffffffffffffffffffffe0169290920160200192915050565b60408152600061199b604083018561193e565b82810360208401526119ad818561193e565b95945050505050565b60008083601f8401126119c857600080fd5b50813567ffffffffffffffff8111156119e057600080fd5b6020830191508360208285010111156119f857600080fd5b9250929050565b60008060208385031215611a1257600080fd5b823567ffffffffffffffff811115611a2957600080fd5b611a35858286016119b6565b90969095509350505050565b60008060008060408587031215611a5757600080fd5b843567ffffffffffffffff80821115611a6f57600080fd5b611a7b888389016119b6565b90965094506020870135915080821115611a9457600080fd5b50611aa1878288016119b6565b95989497509550505050565b600060208284031215611abf57600080fd5b813567ffffffffffffffff811115611ad657600080fd5b8201601f81018413611ae757600080fd5b61176584823560208401611824565b600181811c90821680611b0a57607f821691505b602082108103611b43577f4e487b7100000000000000000000000000000000000000000000000000000000600052602260045260246000fd5b50919050565b601f82111561108a576000816000526020600020601f850160051c81016020861015611b725750805b601f850160051c820191505b81811015611b9157828155600101611b7e565b505050505050565b67ffffffffffffffff831115611bb157611bb16117f5565b611bc583611bbf8354611af6565b83611b49565b6000601f841160018114611c175760008515611be15750838201355b7fffffffffffffffffffffffffffffffffffffffffffffffffffffffffffffffff600387901b1c1916600186901b178355611cad565b6000838152602090207fffffffffffffffffffffffffffffffffffffffffffffffffffffffffffffffe0861690835b82811015611c665786850135825560209485019460019092019101611c46565b5086821015611ca1577fffffffffffffffffffffffffffffffffffffffffffffffffffffffffffffffff60f88860031b161c19848701351681555b505060018560011b0183555b5050505050565b8183528181602085013750600060208284010152600060207fffffffffffffffffffffffffffffffffffffffffffffffffffffffffffffffe0601f840116840101905092915050565b602081526000611765602083018486611cb4565b8183823760009101908152919050565b815167ffffffffffffffff811115611d3b57611d3b6117f5565b611d4f81611d498454611af6565b84611b49565b602080601f831160018114611da25760008415611d6c5750858301515b7fffffffffffffffffffffffffffffffffffffffffffffffffffffffffffffffff600386901b1c1916600185901b178555611b91565b6000858152602081207fffffffffffffffffffffffffffffffffffffffffffffffffffffffffffffffe08616915b82811015611def57888601518255948401946001909101908401611dd0565b5085821015611e2b57878501517fffffffffffffffffffffffffffffffffffffffffffffffffffffffffffffffff600388901b60f8161c191681555b5050505050600190811b01905550565b604081526000611e4f604083018688611cb4565b8281036020840152611e62818587611cb4565b979650505050505050565b600060208284031215611e7f57600080fd5b5051919050565b60008251611e9881846020870161191a565b9190910192915050565b602081526000611639602083018461193e56fe416464726573733a206c6f772d6c6576656c2064656c65676174652063616c6c206661696c6564a264697066735822122026205b6b65563d23a6b99b8a9a175eef4cd4424fffd1929d80930a305bd3372f64736f6c63430008170033","linkReferences":{}},"methodIdentifiers":{"initialize()":"8129fc1c","owner()":"8da5cb5b","proxiableUUID()":"52d1902d","registerRelayer(string,string)":"89c90bb8","relayerOfEmailAddr(string)":"cd092c1a","relayers(address)":"5300f841","renounceOwnership()":"715018a6","transferOwnership(address)":"f2fde38b","updateRelayerConfig(string)":"7e2f2bbc","upgradeTo(address)":"3659cfe6","upgradeToAndCall(address,bytes)":"4f1ef286"},"storageLayout":{"storage":[{"astId":138,"contract":"src/handlers/RelayerHandler.sol:RelayerHandler","label":"_initialized","offset":0,"slot":"0","type":"t_uint8"},{"astId":141,"contract":"src/handlers/RelayerHandler.sol:RelayerHandler","label":"_initializing","offset":1,"slot":"0","type":"t_bool"},{"astId":68175,"contract":"src/handlers/RelayerHandler.sol:RelayerHandler","label":"__gap","offset":0,"slot":"1","type":"t_array(t_uint256)50_storage"},{"astId":10,"contract":"src/handlers/RelayerHandler.sol:RelayerHandler","label":"_owner","offset":0,"slot":"51","type":"t_address"},{"astId":130,"contract":"src/handlers/RelayerHandler.sol:RelayerHandler","label":"__gap","offset":0,"slot":"52","type":"t_array(t_uint256)49_storage"},{"astId":61951,"contract":"src/handlers/RelayerHandler.sol:RelayerHandler","label":"deployer","offset":0,"slot":"101","type":"t_address"},{"astId":61956,"contract":"src/handlers/RelayerHandler.sol:RelayerHandler","label":"relayers","offset":0,"slot":"102","type":"t_mapping(t_address,t_struct(RelayerConfig)63913_storage)"},{"astId":61960,"contract":"src/handlers/RelayerHandler.sol:RelayerHandler","label":"relayerOfEmailAddr","offset":0,"slot":"103","type":"t_mapping(t_string_memory_ptr,t_address)"}],"types":{"t_address":{"encoding":"inplace","label":"address","numberOfBytes":"20"},"t_array(t_uint256)49_storage":{"encoding":"inplace","label":"uint256[49]","numberOfBytes":"1568","base":"t_uint256"},"t_array(t_uint256)50_storage":{"encoding":"inplace","label":"uint256[50]","numberOfBytes":"1600","base":"t_uint256"},"t_bool":{"encoding":"inplace","label":"bool","numberOfBytes":"1"},"t_mapping(t_address,t_struct(RelayerConfig)63913_storage)":{"encoding":"mapping","key":"t_address","label":"mapping(address => struct RelayerConfig)","numberOfBytes":"32","value":"t_struct(RelayerConfig)63913_storage"},"t_mapping(t_string_memory_ptr,t_address)":{"encoding":"mapping","key":"t_string_memory_ptr","label":"mapping(string => address)","numberOfBytes":"32","value":"t_address"},"t_string_memory_ptr":{"encoding":"bytes","label":"string","numberOfBytes":"32"},"t_string_storage":{"encoding":"bytes","label":"string","numberOfBytes":"32"},"t_struct(RelayerConfig)63913_storage":{"encoding":"inplace","label":"struct RelayerConfig","numberOfBytes":"64","members":[{"astId":63910,"contract":"src/handlers/RelayerHandler.sol:RelayerHandler","label":"emailAddr","offset":0,"slot":"0","type":"t_string_storage"},{"astId":63912,"contract":"src/handlers/RelayerHandler.sol:RelayerHandler","label":"hostname","offset":0,"slot":"1","type":"t_string_storage"}]},"t_uint256":{"encoding":"inplace","label":"uint256","numberOfBytes":"32"},"t_uint8":{"encoding":"inplace","label":"uint8","numberOfBytes":"1"}}},"id":125}