{
  "abi": [
    {
      "anonymous": false,
      "inputs": [
        {
          "indexed": true,
          "internalType": "address",
          "name": "previousOwner",
          "type": "address"
        },
        {
          "indexed": true,
          "internalType": "address",
          "name": "newOwner",
          "type": "address"
        }
      ],
      "name": "OwnershipTransferred",
      "type": "event"
    },
    {
      "anonymous": false,
      "inputs": [
        {
          "indexed": true,
          "internalType": "address",
          "name": "addr",
          "type": "address"
        },
        {
          "indexed": false,
          "internalType": "string",
          "name": "hostname",
          "type": "string"
        }
      ],
      "name": "RelayerConfigUpdated",
      "type": "event"
    },
    {
      "anonymous": false,
      "inputs": [
        {
          "indexed": true,
          "internalType": "address",
          "name": "addr",
          "type": "address"
        },
        {
          "indexed": false,
          "internalType": "bytes32",
          "name": "randHash",
          "type": "bytes32"
        },
        {
          "indexed": false,
          "internalType": "string",
          "name": "emailAddr",
          "type": "string"
        },
        {
          "indexed": false,
          "internalType": "string",
          "name": "hostname",
          "type": "string"
        }
      ],
      "name": "RelayerRegistered",
      "type": "event"
    },
    {
      "inputs": [
        {
          "internalType": "address",
          "name": "relayer",
          "type": "address"
        }
      ],
      "name": "getRandHash",
      "outputs": [
        {
          "internalType": "bytes32",
          "name": "",
          "type": "bytes32"
        }
      ],
      "stateMutability": "view",
      "type": "function"
    },
    {
      "inputs": [],
      "name": "owner",
      "outputs": [
        {
          "internalType": "address",
          "name": "",
          "type": "address"
        }
      ],
      "stateMutability": "view",
      "type": "function"
    },
    {
      "inputs": [
        {
          "internalType": "bytes32",
          "name": "randHash",
          "type": "bytes32"
        },
        {
          "internalType": "string",
          "name": "emailAddr",
          "type": "string"
        },
        {
          "internalType": "string",
          "name": "hostname",
          "type": "string"
        }
      ],
      "name": "registerRelayer",
      "outputs": [],
      "stateMutability": "nonpayable",
      "type": "function"
    },
    {
      "inputs": [
        {
          "internalType": "string",
          "name": "",
          "type": "string"
        }
      ],
      "name": "relayerOfEmailAddr",
      "outputs": [
        {
          "internalType": "address",
          "name": "",
          "type": "address"
        }
      ],
      "stateMutability": "view",
      "type": "function"
    },
    {
      "inputs": [
        {
          "internalType": "bytes32",
          "name": "",
          "type": "bytes32"
        }
      ],
      "name": "relayerOfRandHash",
      "outputs": [
        {
          "internalType": "address",
          "name": "",
          "type": "address"
        }
      ],
      "stateMutability": "view",
      "type": "function"
    },
    {
      "inputs": [
        {
          "internalType": "address",
          "name": "",
          "type": "address"
        }
      ],
      "name": "relayers",
      "outputs": [
        {
          "internalType": "bytes32",
          "name": "randHash",
          "type": "bytes32"
        },
        {
          "internalType": "string",
          "name": "emailAddr",
          "type": "string"
        },
        {
          "internalType": "string",
          "name": "hostname",
          "type": "string"
        }
      ],
      "stateMutability": "view",
      "type": "function"
    },
    {
      "inputs": [],
      "name": "renounceOwnership",
      "outputs": [],
      "stateMutability": "nonpayable",
      "type": "function"
    },
    {
      "inputs": [
        {
          "internalType": "address",
          "name": "newOwner",
          "type": "address"
        }
      ],
      "name": "transferOwnership",
      "outputs": [],
      "stateMutability": "nonpayable",
      "type": "function"
    },
    {
      "inputs": [
        {
          "internalType": "string",
          "name": "hostname",
          "type": "string"
        }
      ],
      "name": "updateRelayerConfig",
      "outputs": [],
      "stateMutability": "nonpayable",
      "type": "function"
    }
  ],
  "bytecode": {
    "object": "0x608060405234801561001057600080fd5b5061001a3361001f565b61006f565b600080546001600160a01b038381166001600160a01b0319831681178455604051919092169283917f8be0079c531659141344cd1fd0a4f28419497f9722a3daafe3b4186f6b6457e09190a35050565b610df98061007e6000396000f3fe608060405234801561001057600080fd5b50600436106100835760003560e01c80633f5615a4146100885780635300f841146100c45780635d23392c146100e6578063715018a6146100fb5780637e2f2bbc146101035780638283b575146101165780638da5cb5b14610157578063cd092c1a1461015f578063f2fde38b14610193575b600080fd5b6100b1610096366004610866565b6001600160a01b031660009081526001602052604090205490565b6040519081526020015b60405180910390f35b6100d76100d2366004610866565b6101a6565b6040516100bb939291906108dc565b6100f96100f4366004610959565b6102d8565b005b6100f9610640565b6100f96101113660046109d2565b610654565b61013f610124366004610a13565b6002602052600090815260409020546001600160a01b031681565b6040516001600160a01b0390911681526020016100bb565b61013f61072f565b61013f61016d366004610a42565b80516020818301810180516003825292820191909301209152546001600160a01b031681565b6100f96101a1366004610866565b61073e565b6001602081905260009182526040909120805491810180546101c790610af2565b80601f01602080910402602001604051908101604052809291908181526020018280546101f390610af2565b80156102405780601f1061021557610100808354040283529160200191610240565b820191906000526020600020905b81548152906001019060200180831161022357829003601f168201915b50505050509080600201805461025590610af2565b80601f016020809104026020016040519081016040528092919081815260200182805461028190610af2565b80156102ce5780601f106102a3576101008083540402835291602001916102ce565b820191906000526020600020905b8154815290600101906020018083116102b157829003601f168201915b5050505050905083565b846103255760405162461bcd60e51b815260206004820152601860248201527772616e64486173682063616e6e6f7420626520656d70747960401b60448201526064015b60405180910390fd5b60008390036103725760405162461bcd60e51b8152602060048201526019602482015278656d61696c416464722063616e6e6f7420626520656d70747960381b604482015260640161031c565b60008190036103935760405162461bcd60e51b815260040161031c90610b2c565b33600090815260016020526040902054156103ed5760405162461bcd60e51b815260206004820152601a6024820152791c995b185e595c88185b1c9958591e481c9959da5cdd195c995960321b604482015260640161031c565b6000858152600260205260409020546001600160a01b0316156104505760405162461bcd60e51b815260206004820152601b60248201527a1c985b9912185cda08185b1c9958591e481c9959da5cdd195c9959602a1b604482015260640161031c565b60006001600160a01b03166003858560405161046d929190610b5e565b908152604051908190036020019020546001600160a01b0316146104d25760405162461bcd60e51b815260206004820152601c60248201527b195b585a5b1059191c88185b1c9958591e481c9959da5cdd195c995960221b604482015260640161031c565b604051806060016040528086815260200185858080601f016020809104026020016040519081016040528093929190818152602001838380828437600092019190915250505090825250604080516020601f8601819004810282018101909252848152918101919085908590819084018382808284376000920182905250939094525050338152600160208181526040909220845181559184015191925082019061057d9082610bd2565b50604082015160028201906105929082610bd2565b5050506000858152600260205260409081902080546001600160a01b0319163390811790915590516003906105ca9087908790610b5e565b90815260405190819003602001812080546001600160a01b03939093166001600160a01b03199093169290921790915533907f07d4894ab9bd64e8aba08a79dc41880b37af16c75c8ed73e761da6523c34e3fa906106319088908890889088908890610cb4565b60405180910390a25050505050565b6106486107b7565b6106526000610816565b565b60008190036106755760405162461bcd60e51b815260040161031c90610b2c565b336000908152600160205260409020546106ca5760405162461bcd60e51b81526020600482015260166024820152751c995b185e595c881b9bdd081c9959da5cdd195c995960521b604482015260640161031c565b3360009081526001602052604090206002016106e7828483610ced565b50336001600160a01b03167f6ff0546c9b984813862ee7fd4c0bccb1d83c1d5670f953f05ca4bae56418d5ee8383604051610723929190610da7565b60405180910390a25050565b6000546001600160a01b031690565b6107466107b7565b6001600160a01b0381166107ab5760405162461bcd60e51b815260206004820152602660248201527f4f776e61626c653a206e6577206f776e657220697320746865207a65726f206160448201526564647265737360d01b606482015260840161031c565b6107b481610816565b50565b336107c061072f565b6001600160a01b0316146106525760405162461bcd60e51b815260206004820181905260248201527f4f776e61626c653a2063616c6c6572206973206e6f7420746865206f776e6572604482015260640161031c565b600080546001600160a01b038381166001600160a01b0319831681178455604051919092169283917f8be0079c531659141344cd1fd0a4f28419497f9722a3daafe3b4186f6b6457e09190a35050565b60006020828403121561087857600080fd5b81356001600160a01b038116811461088f57600080fd5b9392505050565b6000815180845260005b818110156108bc576020818501810151868301820152016108a0565b506000602082860101526020601f19601f83011685010191505092915050565b8381526060602082015260006108f56060830185610896565b82810360408401526109078185610896565b9695505050505050565b60008083601f84011261092357600080fd5b5081356001600160401b0381111561093a57600080fd5b60208301915083602082850101111561095257600080fd5b9250929050565b60008060008060006060868803121561097157600080fd5b8535945060208601356001600160401b038082111561098f57600080fd5b61099b89838a01610911565b909650945060408801359150808211156109b457600080fd5b506109c188828901610911565b969995985093965092949392505050565b600080602083850312156109e557600080fd5b82356001600160401b038111156109fb57600080fd5b610a0785828601610911565b90969095509350505050565b600060208284031215610a2557600080fd5b5035919050565b634e487b7160e01b600052604160045260246000fd5b600060208284031215610a5457600080fd5b81356001600160401b0380821115610a6b57600080fd5b818401915084601f830112610a7f57600080fd5b813581811115610a9157610a91610a2c565b604051601f8201601f19908116603f01168101908382118183101715610ab957610ab9610a2c565b81604052828152876020848701011115610ad257600080fd5b826020860160208301376000928101602001929092525095945050505050565b600181811c90821680610b0657607f821691505b602082108103610b2657634e487b7160e01b600052602260045260246000fd5b50919050565b602080825260189082015277686f73746e616d652063616e6e6f7420626520656d70747960401b604082015260600190565b8183823760009101908152919050565b601f821115610bb857600081815260208120601f850160051c81016020861015610b955750805b601f850160051c820191505b81811015610bb457828155600101610ba1565b5050505b505050565b600019600383901b1c191660019190911b1790565b81516001600160401b03811115610beb57610beb610a2c565b610bff81610bf98454610af2565b84610b6e565b602080601f831160018114610c2e5760008415610c1c5750858301515b610c268582610bbd565b865550610bb4565b600085815260208120601f198616915b82811015610c5d57888601518255948401946001909101908401610c3e565b5085821015610c7b5787850151600019600388901b60f8161c191681555b5050505050600190811b01905550565b81835281816020850137506000828201602090810191909152601f909101601f19169091010190565b858152606060208201526000610cce606083018688610c8b565b8281036040840152610ce1818587610c8b565b98975050505050505050565b6001600160401b03831115610d0457610d04610a2c565b610d1883610d128354610af2565b83610b6e565b6000601f841160018114610d465760008515610d345750838201355b610d3e8682610bbd565b845550610da0565b600083815260209020601f19861690835b82811015610d775786850135825560209485019460019092019101610d57565b5086821015610d945760001960f88860031b161c19848701351681555b505060018560011b0183555b5050505050565b602081526000610dbb602083018486610c8b565b94935050505056fea264697066735822122077d177658b1a4edf4768e09e6b34a0c6d3b8b3e6cefdb9eee1a216d38435314264736f6c63430008150033",
    "linkReferences": {}
  },
  "methodIdentifiers": {
    "getRandHash(address)": "3f5615a4",
    "owner()": "8da5cb5b",
    "registerRelayer(bytes32,string,string)": "5d23392c",
    "relayerOfEmailAddr(string)": "cd092c1a",
    "relayerOfRandHash(bytes32)": "8283b575",
    "relayers(address)": "5300f841",
    "renounceOwnership()": "715018a6",
    "transferOwnership(address)": "f2fde38b",
    "updateRelayerConfig(string)": "7e2f2bbc"
  },
  "id": 133
}