{
  "abi": [
    {
      "inputs": [],
      "stateMutability": "nonpayable",
      "type": "constructor"
    },
    {
      "anonymous": false,
      "inputs": [
        {
          "indexed": false,
          "internalType": "address",
          "name": "previousAdmin",
          "type": "address"
        },
        {
          "indexed": false,
          "internalType": "address",
          "name": "newAdmin",
          "type": "address"
        }
      ],
      "name": "AdminChanged",
      "type": "event"
    },
    {
      "anonymous": false,
      "inputs": [
        {
          "indexed": true,
          "internalType": "address",
          "name": "beacon",
          "type": "address"
        }
      ],
      "name": "BeaconUpgraded",
      "type": "event"
    },
    {
      "anonymous": false,
      "inputs": [
        {
          "indexed": false,
          "internalType": "uint8",
          "name": "version",
          "type": "uint8"
        }
      ],
      "name": "Initialized",
      "type": "event"
    },
    {
      "anonymous": false,
      "inputs": [
        {
          "indexed": true,
          "internalType": "address",
          "name": "previousOwner",
          "type": "address"
        },
        {
          "indexed": true,
          "internalType": "address",
          "name": "newOwner",
          "type": "address"
        }
      ],
      "name": "OwnershipTransferred",
      "type": "event"
    },
    {
      "anonymous": false,
      "inputs": [
        {
          "indexed": true,
          "internalType": "address",
          "name": "addr",
          "type": "address"
        },
        {
          "indexed": false,
          "internalType": "string",
          "name": "hostname",
          "type": "string"
        }
      ],
      "name": "RelayerConfigUpdated",
      "type": "event"
    },
    {
      "anonymous": false,
      "inputs": [
        {
          "indexed": true,
          "internalType": "address",
          "name": "addr",
          "type": "address"
        },
        {
          "indexed": false,
          "internalType": "string",
          "name": "emailAddr",
          "type": "string"
        },
        {
          "indexed": false,
          "internalType": "string",
          "name": "hostname",
          "type": "string"
        }
      ],
      "name": "RelayerRegistered",
      "type": "event"
    },
    {
      "anonymous": false,
      "inputs": [
        {
          "indexed": true,
          "internalType": "address",
          "name": "implementation",
          "type": "address"
        }
      ],
      "name": "Upgraded",
      "type": "event"
    },
    {
      "inputs": [],
      "name": "initialize",
      "outputs": [],
      "stateMutability": "nonpayable",
      "type": "function"
    },
    {
      "inputs": [],
      "name": "owner",
      "outputs": [
        {
          "internalType": "address",
          "name": "",
          "type": "address"
        }
      ],
      "stateMutability": "view",
      "type": "function"
    },
    {
      "inputs": [],
      "name": "proxiableUUID",
      "outputs": [
        {
          "internalType": "bytes32",
          "name": "",
          "type": "bytes32"
        }
      ],
      "stateMutability": "view",
      "type": "function"
    },
    {
      "inputs": [
        {
          "internalType": "string",
          "name": "emailAddr",
          "type": "string"
        },
        {
          "internalType": "string",
          "name": "hostname",
          "type": "string"
        }
      ],
      "name": "registerRelayer",
      "outputs": [],
      "stateMutability": "nonpayable",
      "type": "function"
    },
    {
      "inputs": [
        {
          "internalType": "string",
          "name": "",
          "type": "string"
        }
      ],
      "name": "relayerOfEmailAddr",
      "outputs": [
        {
          "internalType": "address",
          "name": "",
          "type": "address"
        }
      ],
      "stateMutability": "view",
      "type": "function"
    },
    {
      "inputs": [
        {
          "internalType": "address",
          "name": "",
          "type": "address"
        }
      ],
      "name": "relayers",
      "outputs": [
        {
          "internalType": "string",
          "name": "emailAddr",
          "type": "string"
        },
        {
          "internalType": "string",
          "name": "hostname",
          "type": "string"
        }
      ],
      "stateMutability": "view",
      "type": "function"
    },
    {
      "inputs": [],
      "name": "renounceOwnership",
      "outputs": [],
      "stateMutability": "nonpayable",
      "type": "function"
    },
    {
      "inputs": [
        {
          "internalType": "address",
          "name": "newOwner",
          "type": "address"
        }
      ],
      "name": "transferOwnership",
      "outputs": [],
      "stateMutability": "nonpayable",
      "type": "function"
    },
    {
      "inputs": [
        {
          "internalType": "string",
          "name": "hostname",
          "type": "string"
        }
      ],
      "name": "updateRelayerConfig",
      "outputs": [],
      "stateMutability": "nonpayable",
      "type": "function"
    },
    {
      "inputs": [
        {
          "internalType": "address",
          "name": "newImplementation",
          "type": "address"
        }
      ],
      "name": "upgradeTo",
      "outputs": [],
      "stateMutability": "nonpayable",
      "type": "function"
    },
    {
      "inputs": [
        {
          "internalType": "address",
          "name": "newImplementation",
          "type": "address"
        },
        {
          "internalType": "bytes",
          "name": "data",
          "type": "bytes"
        }
      ],
      "name": "upgradeToAndCall",
      "outputs": [],
      "stateMutability": "payable",
      "type": "function"
    }
  ],
  "bytecode": {
    "object": "0x60a06040523060805234801561001457600080fd5b5061001d610022565b6100e1565b600054610100900460ff161561008e5760405162461bcd60e51b815260206004820152602760248201527f496e697469616c697a61626c653a20636f6e747261637420697320696e697469604482015266616c697a696e6760c81b606482015260840160405180910390fd5b60005460ff908116146100df576000805460ff191660ff9081179091556040519081527f7f26b83ff96e1f2b6a682f133852f6798a09c465da95921460cefb38474024989060200160405180910390a15b565b608051611e8d610118600039600081816102870152818161033c0152818161049101528181610541015261068a0152611e8d6000f3fe6080604052600436106100bc5760003560e01c80637e2f2bbc116100745780638da5cb5b1161004e5780638da5cb5b146101b6578063cd092c1a14610202578063f2fde38b1461025057600080fd5b80637e2f2bbc146101615780638129fc1c1461018157806389c90bb81461019657600080fd5b806352d1902d116100a557806352d1902d146100f65780635300f8411461011e578063715018a61461014c57600080fd5b80633659cfe6146100c15780634f1ef286146100e3575b600080fd5b3480156100cd57600080fd5b506100e16100dc366004611757565b610270565b005b6100e16100f1366004611835565b61047a565b34801561010257600080fd5b5061010b610670565b6040519081526020015b60405180910390f35b34801561012a57600080fd5b5061013e610139366004611757565b61075c565b604051610115929190611905565b34801561015857600080fd5b506100e1610888565b34801561016d57600080fd5b506100e161017c36600461197c565b61089c565b34801561018d57600080fd5b506100e16109fe565b3480156101a257600080fd5b506100e16101b13660046119be565b610bb9565b3480156101c257600080fd5b5060335473ffffffffffffffffffffffffffffffffffffffff165b60405173ffffffffffffffffffffffffffffffffffffffff9091168152602001610115565b34801561020e57600080fd5b506101dd61021d366004611a2a565b805160208183018101805160678252928201919093012091525473ffffffffffffffffffffffffffffffffffffffff1681565b34801561025c57600080fd5b506100e161026b366004611757565b610e9f565b73ffffffffffffffffffffffffffffffffffffffff7f000000000000000000000000000000000000000000000000000000000000000016300361033a576040517f08c379a000000000000000000000000000000000000000000000000000000000815260206004820152602c60248201527f46756e6374696f6e206d7573742062652063616c6c6564207468726f7567682060448201527f64656c656761746563616c6c000000000000000000000000000000000000000060648201526084015b60405180910390fd5b7f000000000000000000000000000000000000000000000000000000000000000073ffffffffffffffffffffffffffffffffffffffff166103af7f360894a13ba1a3210667c828492db98dca3e2076cc3735a920a3ca505d382bbc5473ffffffffffffffffffffffffffffffffffffffff1690565b73ffffffffffffffffffffffffffffffffffffffff1614610452576040517f08c379a000000000000000000000000000000000000000000000000000000000815260206004820152602c60248201527f46756e6374696f6e206d7573742062652063616c6c6564207468726f7567682060448201527f6163746976652070726f787900000000000000000000000000000000000000006064820152608401610331565b61045b81610f53565b6040805160008082526020820190925261047791839190610fd4565b50565b73ffffffffffffffffffffffffffffffffffffffff7f000000000000000000000000000000000000000000000000000000000000000016300361053f576040517f08c379a000000000000000000000000000000000000000000000000000000000815260206004820152602c60248201527f46756e6374696f6e206d7573742062652063616c6c6564207468726f7567682060448201527f64656c656761746563616c6c00000000000000000000000000000000000000006064820152608401610331565b7f000000000000000000000000000000000000000000000000000000000000000073ffffffffffffffffffffffffffffffffffffffff166105b47f360894a13ba1a3210667c828492db98dca3e2076cc3735a920a3ca505d382bbc5473ffffffffffffffffffffffffffffffffffffffff1690565b73ffffffffffffffffffffffffffffffffffffffff1614610657576040517f08c379a000000000000000000000000000000000000000000000000000000000815260206004820152602c60248201527f46756e6374696f6e206d7573742062652063616c6c6564207468726f7567682060448201527f6163746976652070726f787900000000000000000000000000000000000000006064820152608401610331565b61066082610f53565b61066c82826001610fd4565b5050565b60003073ffffffffffffffffffffffffffffffffffffffff7f00000000000000000000000000000000000000000000000000000000000000001614610737576040517f08c379a000000000000000000000000000000000000000000000000000000000815260206004820152603860248201527f555550535570677261646561626c653a206d757374206e6f742062652063616c60448201527f6c6564207468726f7567682064656c656761746563616c6c00000000000000006064820152608401610331565b507f360894a13ba1a3210667c828492db98dca3e2076cc3735a920a3ca505d382bbc90565b60666020526000908152604090208054819061077790611a73565b80601f01602080910402602001604051908101604052809291908181526020018280546107a390611a73565b80156107f05780601f106107c5576101008083540402835291602001916107f0565b820191906000526020600020905b8154815290600101906020018083116107d357829003601f168201915b50505050509080600101805461080590611a73565b80601f016020809104026020016040519081016040528092919081815260200182805461083190611a73565b801561087e5780601f106108535761010080835404028352916020019161087e565b820191906000526020600020905b81548152906001019060200180831161086157829003601f168201915b5050505050905082565b6108906111d8565b61089a6000611259565b565b6000819003610907576040517f08c379a000000000000000000000000000000000000000000000000000000000815260206004820152601860248201527f686f73746e616d652063616e6e6f7420626520656d70747900000000000000006044820152606401610331565b336000908152606660205260409020805461092190611a73565b905060000361098c576040517f08c379a000000000000000000000000000000000000000000000000000000000815260206004820152601660248201527f72656c61796572206e6f742072656769737465726564000000000000000000006044820152606401610331565b3360009081526066602052604090206001016109a9828483611b14565b503373ffffffffffffffffffffffffffffffffffffffff167f6ff0546c9b984813862ee7fd4c0bccb1d83c1d5670f953f05ca4bae56418d5ee83836040516109f2929190611c78565b60405180910390a25050565b600054610100900460ff1615808015610a1e5750600054600160ff909116105b80610a385750303b158015610a38575060005460ff166001145b610ac4576040517f08c379a000000000000000000000000000000000000000000000000000000000815260206004820152602e60248201527f496e697469616c697a61626c653a20636f6e747261637420697320616c72656160448201527f647920696e697469616c697a65640000000000000000000000000000000000006064820152608401610331565b600080547fffffffffffffffffffffffffffffffffffffffffffffffffffffffffffffff001660011790558015610b2257600080547fffffffffffffffffffffffffffffffffffffffffffffffffffffffffffff00ff166101001790555b610b2a6112d0565b606580547fffffffffffffffffffffffff00000000000000000000000000000000000000001633179055801561047757600080547fffffffffffffffffffffffffffffffffffffffffffffffffffffffffffff00ff169055604051600181527f7f26b83ff96e1f2b6a682f133852f6798a09c465da95921460cefb38474024989060200160405180910390a150565b6000839003610c24576040517f08c379a000000000000000000000000000000000000000000000000000000000815260206004820152601960248201527f656d61696c416464722063616e6e6f7420626520656d707479000000000000006044820152606401610331565b6000819003610c8f576040517f08c379a000000000000000000000000000000000000000000000000000000000815260206004820152601860248201527f686f73746e616d652063616e6e6f7420626520656d70747900000000000000006044820152606401610331565b600073ffffffffffffffffffffffffffffffffffffffff1660678585604051610cb9929190611c8c565b9081526040519081900360200190205473ffffffffffffffffffffffffffffffffffffffff1614610d46576040517f08c379a000000000000000000000000000000000000000000000000000000000815260206004820152601c60248201527f656d61696c4164647220616c72656164792072656769737465726564000000006044820152606401610331565b6040805160606020601f87018190040282018101835291810185815290918291908790879081908501838280828437600092019190915250505090825250604080516020601f860181900481028201810190925284815291810191908590859081908401838280828437600092018290525093909452505033815260666020526040902082519091508190610ddb9082611c9c565b5060208201516001820190610df09082611c9c565b509050503360678585604051610e07929190611c8c565b908152604051908190036020018120805473ffffffffffffffffffffffffffffffffffffffff939093167fffffffffffffffffffffffff00000000000000000000000000000000000000009093169290921790915533907f6d8a8b7ad07c84c7549f092b4743ed1834e57565146423a0aff45e156a612d3c90610e91908790879087908790611db6565b60405180910390a250505050565b610ea76111d8565b73ffffffffffffffffffffffffffffffffffffffff8116610f4a576040517f08c379a000000000000000000000000000000000000000000000000000000000815260206004820152602660248201527f4f776e61626c653a206e6577206f776e657220697320746865207a65726f206160448201527f64647265737300000000000000000000000000000000000000000000000000006064820152608401610331565b61047781611259565b60655473ffffffffffffffffffffffffffffffffffffffff163314610477576040517f08c379a000000000000000000000000000000000000000000000000000000000815260206004820152601860248201527f63616c6c6572206973206e6f742061206465706c6f79657200000000000000006044820152606401610331565b7f4910fdfa16fed3260ed0e7147f7cc6da11a60208b5b9406d12a635614ffd91435460ff161561100c576110078361136f565b505050565b8273ffffffffffffffffffffffffffffffffffffffff166352d1902d6040518163ffffffff1660e01b8152600401602060405180830381865afa925050508015611091575060408051601f3d9081017fffffffffffffffffffffffffffffffffffffffffffffffffffffffffffffffe016820190925261108e91810190611de8565b60015b61111d576040517f08c379a000000000000000000000000000000000000000000000000000000000815260206004820152602e60248201527f45524331393637557067726164653a206e657720696d706c656d656e7461746960448201527f6f6e206973206e6f7420555550530000000000000000000000000000000000006064820152608401610331565b7f360894a13ba1a3210667c828492db98dca3e2076cc3735a920a3ca505d382bbc81146111cc576040517f08c379a000000000000000000000000000000000000000000000000000000000815260206004820152602960248201527f45524331393637557067726164653a20756e737570706f727465642070726f7860448201527f6961626c655555494400000000000000000000000000000000000000000000006064820152608401610331565b50611007838383611479565b60335473ffffffffffffffffffffffffffffffffffffffff16331461089a576040517f08c379a000000000000000000000000000000000000000000000000000000000815260206004820181905260248201527f4f776e61626c653a2063616c6c6572206973206e6f7420746865206f776e65726044820152606401610331565b6033805473ffffffffffffffffffffffffffffffffffffffff8381167fffffffffffffffffffffffff0000000000000000000000000000000000000000831681179093556040519116919082907f8be0079c531659141344cd1fd0a4f28419497f9722a3daafe3b4186f6b6457e090600090a35050565b600054610100900460ff16611367576040517f08c379a000000000000000000000000000000000000000000000000000000000815260206004820152602b60248201527f496e697469616c697a61626c653a20636f6e7472616374206973206e6f74206960448201527f6e697469616c697a696e670000000000000000000000000000000000000000006064820152608401610331565b61089a6114a4565b73ffffffffffffffffffffffffffffffffffffffff81163b611413576040517f08c379a000000000000000000000000000000000000000000000000000000000815260206004820152602d60248201527f455243313936373a206e657720696d706c656d656e746174696f6e206973206e60448201527f6f74206120636f6e7472616374000000000000000000000000000000000000006064820152608401610331565b7f360894a13ba1a3210667c828492db98dca3e2076cc3735a920a3ca505d382bbc80547fffffffffffffffffffffffff00000000000000000000000000000000000000001673ffffffffffffffffffffffffffffffffffffffff92909216919091179055565b61148283611544565b60008251118061148f5750805b156110075761149e8383611591565b50505050565b600054610100900460ff1661153b576040517f08c379a000000000000000000000000000000000000000000000000000000000815260206004820152602b60248201527f496e697469616c697a61626c653a20636f6e7472616374206973206e6f74206960448201527f6e697469616c697a696e670000000000000000000000000000000000000000006064820152608401610331565b61089a33611259565b61154d8161136f565b60405173ffffffffffffffffffffffffffffffffffffffff8216907fbc7cd75a20ee27fd9adebab32041f755214dbc6bffa90cc0225b39da2e5c2d3b90600090a250565b60606115b68383604051806060016040528060278152602001611e31602791396115bd565b9392505050565b60606000808573ffffffffffffffffffffffffffffffffffffffff16856040516115e79190611e01565b600060405180830381855af49150503d8060008114611622576040519150601f19603f3d011682016040523d82523d6000602084013e611627565b606091505b509150915061163886838387611642565b9695505050505050565b606083156116d85782516000036116d15773ffffffffffffffffffffffffffffffffffffffff85163b6116d1576040517f08c379a000000000000000000000000000000000000000000000000000000000815260206004820152601d60248201527f416464726573733a2063616c6c20746f206e6f6e2d636f6e74726163740000006044820152606401610331565b50816116e2565b6116e283836116ea565b949350505050565b8151156116fa5781518083602001fd5b806040517f08c379a00000000000000000000000000000000000000000000000000000000081526004016103319190611e1d565b803573ffffffffffffffffffffffffffffffffffffffff8116811461175257600080fd5b919050565b60006020828403121561176957600080fd5b6115b68261172e565b7f4e487b7100000000000000000000000000000000000000000000000000000000600052604160045260246000fd5b600067ffffffffffffffff808411156117bc576117bc611772565b604051601f85017fffffffffffffffffffffffffffffffffffffffffffffffffffffffffffffffe0908116603f0116810190828211818310171561180257611802611772565b8160405280935085815286868601111561181b57600080fd5b858560208301376000602087830101525050509392505050565b6000806040838503121561184857600080fd5b6118518361172e565b9150602083013567ffffffffffffffff81111561186d57600080fd5b8301601f8101851361187e57600080fd5b61188d858235602084016117a1565b9150509250929050565b60005b838110156118b257818101518382015260200161189a565b50506000910152565b600081518084526118d3816020860160208601611897565b601f017fffffffffffffffffffffffffffffffffffffffffffffffffffffffffffffffe0169290920160200192915050565b60408152600061191860408301856118bb565b828103602084015261192a81856118bb565b95945050505050565b60008083601f84011261194557600080fd5b50813567ffffffffffffffff81111561195d57600080fd5b60208301915083602082850101111561197557600080fd5b9250929050565b6000806020838503121561198f57600080fd5b823567ffffffffffffffff8111156119a657600080fd5b6119b285828601611933565b90969095509350505050565b600080600080604085870312156119d457600080fd5b843567ffffffffffffffff808211156119ec57600080fd5b6119f888838901611933565b90965094506020870135915080821115611a1157600080fd5b50611a1e87828801611933565b95989497509550505050565b600060208284031215611a3c57600080fd5b813567ffffffffffffffff811115611a5357600080fd5b8201601f81018413611a6457600080fd5b6116e2848235602084016117a1565b600181811c90821680611a8757607f821691505b602082108103611ac0577f4e487b7100000000000000000000000000000000000000000000000000000000600052602260045260246000fd5b50919050565b601f82111561100757600081815260208120601f850160051c81016020861015611aed5750805b601f850160051c820191505b81811015611b0c57828155600101611af9565b505050505050565b67ffffffffffffffff831115611b2c57611b2c611772565b611b4083611b3a8354611a73565b83611ac6565b6000601f841160018114611b925760008515611b5c5750838201355b7fffffffffffffffffffffffffffffffffffffffffffffffffffffffffffffffff600387901b1c1916600186901b178355611c28565b6000838152602090207fffffffffffffffffffffffffffffffffffffffffffffffffffffffffffffffe0861690835b82811015611be15786850135825560209485019460019092019101611bc1565b5086821015611c1c577fffffffffffffffffffffffffffffffffffffffffffffffffffffffffffffffff60f88860031b161c19848701351681555b505060018560011b0183555b5050505050565b8183528181602085013750600060208284010152600060207fffffffffffffffffffffffffffffffffffffffffffffffffffffffffffffffe0601f840116840101905092915050565b6020815260006116e2602083018486611c2f565b8183823760009101908152919050565b815167ffffffffffffffff811115611cb657611cb6611772565b611cca81611cc48454611a73565b84611ac6565b602080601f831160018114611d1d5760008415611ce75750858301515b7fffffffffffffffffffffffffffffffffffffffffffffffffffffffffffffffff600386901b1c1916600185901b178555611b0c565b6000858152602081207fffffffffffffffffffffffffffffffffffffffffffffffffffffffffffffffe08616915b82811015611d6a57888601518255948401946001909101908401611d4b565b5085821015611da657878501517fffffffffffffffffffffffffffffffffffffffffffffffffffffffffffffffff600388901b60f8161c191681555b5050505050600190811b01905550565b604081526000611dca604083018688611c2f565b8281036020840152611ddd818587611c2f565b979650505050505050565b600060208284031215611dfa57600080fd5b5051919050565b60008251611e13818460208701611897565b9190910192915050565b6020815260006115b660208301846118bb56fe416464726573733a206c6f772d6c6576656c2064656c65676174652063616c6c206661696c6564a2646970667358221220f5cd4c520977cbe9e39c371dd825212b6f0a45c2be209485fb17ad2c22544ec064736f6c63430008150033",
    "linkReferences": {}
  },
  "methodIdentifiers": {
    "initialize()": "8129fc1c",
    "owner()": "8da5cb5b",
    "proxiableUUID()": "52d1902d",
    "registerRelayer(string,string)": "89c90bb8",
    "relayerOfEmailAddr(string)": "cd092c1a",
    "relayers(address)": "5300f841",
    "renounceOwnership()": "715018a6",
    "transferOwnership(address)": "f2fde38b",
    "updateRelayerConfig(string)": "7e2f2bbc",
    "upgradeTo(address)": "3659cfe6",
    "upgradeToAndCall(address,bytes)": "4f1ef286"
  },
  "storageLayout": {
    "storage": [
      {
        "astId": 138,
        "contract": "src/handlers/RelayerHandler.sol:RelayerHandler",
        "label": "_initialized",
        "offset": 0,
        "slot": "0",
        "type": "t_uint8"
      },
      {
        "astId": 141,
        "contract": "src/handlers/RelayerHandler.sol:RelayerHandler",
        "label": "_initializing",
        "offset": 1,
        "slot": "0",
        "type": "t_bool"
      },
      {
        "astId": 67690,
        "contract": "src/handlers/RelayerHandler.sol:RelayerHandler",
        "label": "__gap",
        "offset": 0,
        "slot": "1",
        "type": "t_array(t_uint256)50_storage"
      },
      {
        "astId": 10,
        "contract": "src/handlers/RelayerHandler.sol:RelayerHandler",
        "label": "_owner",
        "offset": 0,
        "slot": "51",
        "type": "t_address"
      },
      {
        "astId": 130,
        "contract": "src/handlers/RelayerHandler.sol:RelayerHandler",
        "label": "__gap",
        "offset": 0,
        "slot": "52",
        "type": "t_array(t_uint256)49_storage"
      },
      {
        "astId": 61935,
        "contract": "src/handlers/RelayerHandler.sol:RelayerHandler",
        "label": "deployer",
        "offset": 0,
        "slot": "101",
        "type": "t_address"
      },
      {
        "astId": 61940,
        "contract": "src/handlers/RelayerHandler.sol:RelayerHandler",
        "label": "relayers",
        "offset": 0,
        "slot": "102",
        "type": "t_mapping(t_address,t_struct(RelayerConfig)63728_storage)"
      },
      {
        "astId": 61944,
        "contract": "src/handlers/RelayerHandler.sol:RelayerHandler",
        "label": "relayerOfEmailAddr",
        "offset": 0,
        "slot": "103",
        "type": "t_mapping(t_string_memory_ptr,t_address)"
      }
    ],
    "types": {
      "t_address": {
        "encoding": "inplace",
        "label": "address",
        "numberOfBytes": "20"
      },
      "t_array(t_uint256)49_storage": {
        "encoding": "inplace",
        "label": "uint256[49]",
        "numberOfBytes": "1568",
        "base": "t_uint256"
      },
      "t_array(t_uint256)50_storage": {
        "encoding": "inplace",
        "label": "uint256[50]",
        "numberOfBytes": "1600",
        "base": "t_uint256"
      },
      "t_bool": {
        "encoding": "inplace",
        "label": "bool",
        "numberOfBytes": "1"
      },
      "t_mapping(t_address,t_struct(RelayerConfig)63728_storage)": {
        "encoding": "mapping",
        "key": "t_address",
        "label": "mapping(address => struct RelayerConfig)",
        "numberOfBytes": "32",
        "value": "t_struct(RelayerConfig)63728_storage"
      },
      "t_mapping(t_string_memory_ptr,t_address)": {
        "encoding": "mapping",
        "key": "t_string_memory_ptr",
        "label": "mapping(string => address)",
        "numberOfBytes": "32",
        "value": "t_address"
      },
      "t_string_memory_ptr": {
        "encoding": "bytes",
        "label": "string",
        "numberOfBytes": "32"
      },
      "t_string_storage": {
        "encoding": "bytes",
        "label": "string",
        "numberOfBytes": "32"
      },
      "t_struct(RelayerConfig)63728_storage": {
        "encoding": "inplace",
        "label": "struct RelayerConfig",
        "numberOfBytes": "64",
        "members": [
          {
            "astId": 63725,
            "contract": "src/handlers/RelayerHandler.sol:RelayerHandler",
            "label": "emailAddr",
            "offset": 0,
            "slot": "0",
            "type": "t_string_storage"
          },
          {
            "astId": 63727,
            "contract": "src/handlers/RelayerHandler.sol:RelayerHandler",
            "label": "hostname",
            "offset": 0,
            "slot": "1",
            "type": "t_string_storage"
          }
        ]
      },
      "t_uint256": {
        "encoding": "inplace",
        "label": "uint256",
        "numberOfBytes": "32"
      },
      "t_uint8": {
        "encoding": "inplace",
        "label": "uint8",
        "numberOfBytes": "1"
      }
    }
  },
  "id": 125
}