{
  "abi": [
    {
      "inputs": [
        {
          "internalType": "uint256[2]",
          "name": "_pA",
          "type": "uint256[2]"
        },
        {
          "internalType": "uint256[2][2]",
          "name": "_pB",
          "type": "uint256[2][2]"
        },
        {
          "internalType": "uint256[2]",
          "name": "_pC",
          "type": "uint256[2]"
        },
        {
          "internalType": "uint256[6]",
          "name": "_pubSignals",
          "type": "uint256[6]"
        }
      ],
      "name": "verifyProof",
      "outputs": [
        {
          "internalType": "bool",
          "name": "",
          "type": "bool"
        }
      ],
      "stateMutability": "view",
      "type": "function"
    }
  ],
  "bytecode": {
    "object": "0x608060405234801561001057600080fd5b50610726806100206000396000f3fe608060405234801561001057600080fd5b506004361061002b5760003560e01c8063f398789b14610030575b600080fd5b61004361003e36600461066a565b610057565b604051901515815260200160405180910390f35b60006105d4565b6000805160206106d1833981519152811061007d576000805260206000f35b50565b600060405183815284602082015285604082015260408160608360076107d05a03fa9150816100b3576000805260206000f35b825160408201526020830151606082015260408360808360066107d05a03fa915050806100e4576000805260206000f35b5050505050565b7f293f09c5dc0f8c768c036ad64033405ff44ec0c70c2e95fd0fcef96d3424e1c385527f1b6a47e30fee5c11d29b6e5fb06f75681afa0e794677a3b64f9b768c4293d7ca60208601526000608086018661018887357f28cc2585a078c2c086fc4294d1f09d49d021bbc6b17adb994cd08aa43ee3ef9c7f2397a5e7cd8627b91eb179223796483e1bc5a8dc4d805cca435d8beea5b6eed084610080565b6101d860208801357f2d9cb103d2433e7b969a19f04e489ff2e6c794bd80a354e373638524a46556b17f2f65e5672393cc8e18e5bd3ee11b63e67f0dde9c97cbb4893f440bde681b9bf584610080565b61022860408801357f0e509db793f15992f9b9f40285f06472e8cf3ceae0fe642dab31489ef3863f2d7f185e351a82dc5583a10dfba0f130404db427ca18d6eaf811772f594a6f82c35c84610080565b61027860608801357f13c347d873ca54b4ca998863174b2a8ca6ba4e4dfc34394e85aef888ca9f3b917f0378913e66579b46199240af6256f72b5f07ffc35c8651eddaf0317a3939a5e484610080565b6102c860808801357f126d4aa107615532c188a10090c4ddf5f3bca0119ca93219ae9b1912c9db48e77f17d68a8ed71560bca9863eff528e28676d83ab15fb8b77192111bb9ceb02201284610080565b61031860a08801357f0a2c7aea852ce205e18a2a32a99aa4720c07bd3211596ac981a96538acce1cf87f0eeb1c98f72693ebedd260ab8be805e35ebf608832a33b0ae5b40e248dc85b2684610080565b50823581526000805160206106d183398151915260208401356000805160206106d183398151915203066020820152833560408201526020840135606082015260408401356080820152606084013560a08201527f2d4d9aa7e302d9df41749d5507949d05dbea33fbb16c643b22f599a2be6df2e260c08201527f14bedd503c37ceb061d8ec60209fe345ce89830a19230301f076caff004d192660e08201527f0967032fcbf776d1afc985f88877f182d38480a653f2decaa9794cbc3bf3060c6101008201527f0e187847ad4c798374d0d6732bf501847dd68bc0e071241e0213bc7fc13db7ab6101208201527f304cfbd1e08a704a99f5e847d93f8c3caafddec46b7a0d379da69a4d112346a76101408201527f1739c1b1a457a8c7313123d24d2f9192f896b7c63eea05a9d57f06547ad0cec8610160820152600087015161018082015260206000018701516101a08201527f198e9393920d483a7260bfb731fb5d25f1aa493335a9e71297e485b7aef312c26101c08201527f1800deef121f1e76426a00665e5c4479674322d4f75edadd46debd5cd992f6ed6101e08201527f090689d0585ff075ec9e99ad690c3395bc4b313370b38ef355acdadcd122975b6102008201527f12c85ea5db8c6deb4aab71808dcb408fe3d1e7690c43d37b4ce6cc0166fa7daa610220820152843561024082015260208501356102608201527f023719a059dc179ccb5a7247092bc1057e3f68395441c7a96cbc1c7a1795e2806102808201527f1ee964d3a11e06c36574a62b4c741daff9f3a93b4e5bef6712c83679c55e2a426102a08201527f102b86355ea8aed05d42daacf94d17987a955c5b9a470d750819aca25cccd4226102c08201527f122bf3cad5caff33ac07c9b67812d53717bba33e967196ed95528f1e6f69a1036102e08201526020816103008360086107d05a03fa9051169695505050505050565b60405161038081016040526105ec600084013561005e565b6105f9602084013561005e565b610606604084013561005e565b610613606084013561005e565b610620608084013561005e565b61062d60a084013561005e565b61063a60c084013561005e565b610647818486888a6100eb565b90508060005260206000f35b806040810183101561066457600080fd5b92915050565b6000806000806101c080868803121561068257600080fd5b61068c8787610653565b945060c086018781111561069f57600080fd5b6040870194506106af8882610653565b9350508681870111156106c157600080fd5b5092959194509261010001915056fe30644e72e131a029b85045b68181585d97816a916871ca8d3c208c16d87cfd47a26469706673582212203ab54da09db7815839abb378f07fb7028f9dadab53562ef0b8374ad9760e59ef64736f6c63430008150033",
    "linkReferences": {}
  },
  "methodIdentifiers": {
    "verifyProof(uint256[2],uint256[2][2],uint256[2],uint256[6])": "f398789b"
  },
  "id": 146
}