{
  "abi": [
    {
      "inputs": [
        {
          "internalType": "uint256[2]",
          "name": "_pA",
          "type": "uint256[2]"
        },
        {
          "internalType": "uint256[2][2]",
          "name": "_pB",
          "type": "uint256[2][2]"
        },
        {
          "internalType": "uint256[2]",
          "name": "_pC",
          "type": "uint256[2]"
        },
        {
          "internalType": "uint256[33]",
          "name": "_pubSignals",
          "type": "uint256[33]"
        }
      ],
      "name": "verifyProof",
      "outputs": [
        {
          "internalType": "bool",
          "name": "",
          "type": "bool"
        }
      ],
      "stateMutability": "view",
      "type": "function"
    }
  ],
  "bytecode": {
    "object": "0x608060405234801561001057600080fd5b50611122806100206000396000f3fe608060405234801561001057600080fd5b506004361061002b5760003560e01c8063ee56750f14610030575b600080fd5b61004361003e366004611066565b610057565b604051901515815260200160405180910390f35b6000610e57565b6000805160206110cd833981519152811061007d576000805260206000f35b50565b600060405183815284602082015285604082015260408160608360076107d05a03fa9150816100b3576000805260206000f35b825160408201526020830151606082015260408360808360066107d05a03fa915050806100e4576000805260206000f35b5050505050565b7f14ca70f1fc53cb2a9663542a8ed8ac72c6fc8a544038dab302eae16ae592d9e885527ed3518a58c662ee6ec560d588478a0fed9d3b121afb69a3f72687e23c808fcc60208601526000608086018661018687357f17d8188777ab42a04f968a10d22bd6ff455ce0f5cc0fb270f2fde049f36540fc7ee0bd14b7f00bab1a8e51db27574480b3a3ac99c08d337971ddfd4d9d39260284610080565b6101d460208801357ecf995a5b5d729601139904ff97cc5509e5e7d19a7e719f77fdfe7891536a997ef2b38e6cf7443e8d998a672cc9606ba378897478c30d98be938cf0d890d96584610080565b61022460408801357f26bfb62c91aa0076b30b0b5c994451efb07a1d225a0a3d3c699837eb3da70d337f2dc654d00c889e8ef4ed80d69c9751e79d736cf927c346ccefb07afa14de84f084610080565b61027460608801357f0beeab291bbdb5f25d7a35c214440305feffca99c2e8807a6aa74c3d6766ba6f7f1cfc54ca98c4ce44b79ef34b5dae823c74120723cd2ea269c96e273d368190a184610080565b6102c460808801357f1d042d0d4f54455f6761504587a1a9f8da93f030e2128b33ad0379d946f421b57f27a9d156796faf2340cc0827fcb709cad0e1c3aa68bef6e88bbfa03894af3c2384610080565b61031460a08801357f0537052c30f23138eaef6b1b2457b5efffa43f1bc619fecfc7028dace127722d7f023dcac683b02b0663c471ecead96fa499cccf6567553ead8aebfcebe822c1b584610080565b61036460c08801357f1b1bb72e31ea8fce3dc312e4d640e04991830f0fff9bf9553f5bf716607daa5e7f0a3478d030fdc102f3aced8c5272026ff42c1c44396a711eb9b0585f2c20b19b84610080565b6103b460e08801357f14f566d0dcfcb4f58458713d7600065af79791001cd715bd8bc3416df730bfe77f194538e1e3f147a4e36a1cac4c23fd8698380c4ad9a5d35d1bc9b24fa6ea5afc84610080565b6104056101008801357f21fe9232b763df602a08f729845084fabbf3ce82575b09c36cca1e88b48039ab7f2a60514b6b2b791c60ea49d6a85f7233e847303b17e2ebca3af3c00eda5b2b8a84610080565b6104566101208801357f15e9a621bfcaae1d79eac0f7ec254bf32eba3b83efb84d51b81aa84bbacd0e587f227dff44367805f4a789603ed7d510fcb8bc8b02a1a67f14365a11a9c2b31a2384610080565b6104a76101408801357f0132b56cd774b0ad53af38dbbf8183357d53e5e978875b24597e6077320d56187f285165b04ebda615ef6c15658f6349338e5d43b7fedb50357d308474299e991f84610080565b6104f86101608801357f1fdbe5faed1ae2b1aeeb1faaa54df9ec17fa716612d7562fef655e2abc8035897f2420381a041bd67635ece6516ccd50c465d8aab0898021acade512fb519361a284610080565b6105496101808801357f2838f76d078a6ebf51926861b9fabcc4474f8755fa1c903aa0d2884754e4e5a87f25d6a334282d8eb43e12164d9aec2a771a561608741f5c708e737021feccbcbb84610080565b61059a6101a08801357f14b61dd4c994f3cef258d80dc2c99af9deacec03cfeab2a8192e760d95cde22f7f1c1d3d9213fab710fbb7ae67de11039f2f40947d02751bbf87ba078186996ee384610080565b6105eb6101c08801357f1c287adc5c493e3c91dfa72bb051430b085181f46713d17733af7c012810030b7f2d0a78ad3481b1dd6625ae6e387e82f8aa05e31304a80da1ed4840ff60a3e14084610080565b61063c6101e08801357f2d72aa4699cc90d7aa876da2e0421e5955ef10ebc25f4dd5bc9648a2e0cc1a9f7f07f8c5f57d9ffc4b4c851af015e30ea58c3ad3a926330c5d5dbbea5387c63d4284610080565b61068d6102008801357f275f564b1eaa0a82115a5ed1c08e4e4af9aec7a6abe3e36269a0154314b33ad67f1a343c833ec351981edd70ac5c75ed72f01a2826b8a012c636f39d19273877cf84610080565b6106de6102208801357f14b20f03d13457af0dc2ff93ad347cac42e50ccdf48b3d528c4fd9f517867d517f2accdc4ede183aee59b0562204d114409f668d5bd73e9a9a1eea5ba16437d00c84610080565b61072f6102408801357f0577f23758911f28c8a214992f887814e740bd97a342e90d74c2961733da28277f0fe027f231077a6a61408103e7a56c10988db4137d4068965098146e8fa0f45b84610080565b6107806102608801357f06471241626ac243ae7ca8634f1fdfdd25c0b6b209147220804b5ef8a895998b7f1983309c890da75943e5b42f5cd7c801f7903bec89b5d10db2d53d090b46930784610080565b6107d16102808801357f026995739db78f91393a59344aa16a250204f7316018f4e780f6de080111ff1e7f0b82edd039df2146e91d3f93d1a16e8b53c060fce9624a44aa64f9448b5440b284610080565b6108226102a08801357f12beabd9b520f2786fa79cbd72b1f5e7ccc03e04db7fd8ca46f489aa182dbbe17f2c36a613685192309c4b449661511cd5fd26198f9a1b509b57fb6e74a9ab1d1984610080565b6108736102c08801357f19416ffdecb0b82b2311d3ae1183c547922bca913821d72aa27b6bbcc0c47a907f110e8b97e89cf46c466c617a1590975438190b1fcc9f174f06b73531d338887f84610080565b6108c46102e08801357f16203b274a7364d7722ff003d61adef8f649771668c5fc577b9fd07bc49b08f47f2b916ff755371ad3c6504f249bb783adf56915ba12256914d5201a1981cdc44384610080565b6109146103008801357f2fc6634d5f2344ca7899b0314bfac28a455e50935c0cf19d0498b56316d388d67e6144f418607dc39bf95ccd796aadfafe4247012336c612c1d1aa8ca74ea8fe84610080565b6109646103208801357ecc95e6ba8fcd4cb7f82f8bcf64a7d3901db986aa3e26c34a20a0535c05addf7f101ae86a5e35770a0b03f6bf89b559c28c67fa5187140097192ef3350f8bf0ed84610080565b6109b56103408801357f23b38de14a2e517eee7fd2c62bfe09ed4529adfee7bec778a1d43082ddde69047f054a25ee2c3f19e69fb08be946b58091647ea8eb0042a7b74851d60681e3d33884610080565b610a066103608801357f225da162369d5d7be3bac7cf136b6cd43f69714dce138b27911b4b478da380987f1ba1aebdd8ecde990be1b8a6d34815c2173813fb6c4feea01458f6103b6ed09f84610080565b610a576103808801357f145f9d0642ea06e1f3ee92949e00a761b6fa1545af4b68a5df096f38ed6ef90e7f04ffd87c5d808b520943d8a987fe1f1e0b808427273df8a36c016e4fc34e0cc584610080565b610aa86103a08801357f2b8ebb8fbcdfedecd1f1d694e9071d3da0acb1d4d7a6ff0ba9123f8e673442317f1742ae13caa601252bb035eac8f230810e50e5d6573ab16b4301456a6b9eefc084610080565b610af96103c08801357f0bfbd075fa563a57fa9277f78d1c348994710664440cca6c67f8615b333a2def7f237c7160554578109c550e21d02bde7265243be3cd9440cb285ed97dc9793bd284610080565b610b4a6103e08801357f0a65ea2e184de975d1b76ac19d02f48be8b2e8ea264e2e99ccdf9de862c1051c7f2732fe3646e34bdc46554b6d1b53f7a81c56873e9283984d656e8f596cef1af284610080565b610b9b6104008801357f1cc391151173796db96f4c8ad22a993c3319eb010af4d3e903707af938acec4f7f148da97ab86c88a481f08bbd4d462e81041c31f8dbee258a9dfb365c98db7d5284610080565b50823581526000805160206110cd83398151915260208401356000805160206110cd83398151915203066020820152833560408201526020840135606082015260408401356080820152606084013560a08201527f2d4d9aa7e302d9df41749d5507949d05dbea33fbb16c643b22f599a2be6df2e260c08201527f14bedd503c37ceb061d8ec60209fe345ce89830a19230301f076caff004d192660e08201527f0967032fcbf776d1afc985f88877f182d38480a653f2decaa9794cbc3bf3060c6101008201527f0e187847ad4c798374d0d6732bf501847dd68bc0e071241e0213bc7fc13db7ab6101208201527f304cfbd1e08a704a99f5e847d93f8c3caafddec46b7a0d379da69a4d112346a76101408201527f1739c1b1a457a8c7313123d24d2f9192f896b7c63eea05a9d57f06547ad0cec8610160820152600087015161018082015260206000018701516101a08201527f198e9393920d483a7260bfb731fb5d25f1aa493335a9e71297e485b7aef312c26101c08201527f1800deef121f1e76426a00665e5c4479674322d4f75edadd46debd5cd992f6ed6101e08201527f090689d0585ff075ec9e99ad690c3395bc4b313370b38ef355acdadcd122975b6102008201527f12c85ea5db8c6deb4aab71808dcb408fe3d1e7690c43d37b4ce6cc0166fa7daa610220820152843561024082015260208501356102608201527f2c434311a573fafab0b27c9f0be0fa5ac9a7c44161c6d0b5f018fc216b64bbc66102808201527f15279d83ffc43d09f8dbeacac48b2802bc72a814abbc4b17d84d630bfcc8023d6102a08201527f0b1856d1344f4c34e46c57daaf954a03a4c4278dccf8dd452a7cba3538980fa66102c08201527f2ea28008906a464f08fab684f6e46da0f15c961f7f39eee2fd971136fcc80c216102e08201526020816103008360086107d05a03fa9051169695505050505050565b6040516103808101604052610e6f600084013561005e565b610e7c602084013561005e565b610e89604084013561005e565b610e96606084013561005e565b610ea3608084013561005e565b610eb060a084013561005e565b610ebd60c084013561005e565b610eca60e084013561005e565b610ed861010084013561005e565b610ee661012084013561005e565b610ef461014084013561005e565b610f0261016084013561005e565b610f1061018084013561005e565b610f1e6101a084013561005e565b610f2c6101c084013561005e565b610f3a6101e084013561005e565b610f4861020084013561005e565b610f5661022084013561005e565b610f6461024084013561005e565b610f7261026084013561005e565b610f8061028084013561005e565b610f8e6102a084013561005e565b610f9c6102c084013561005e565b610faa6102e084013561005e565b610fb861030084013561005e565b610fc661032084013561005e565b610fd461034084013561005e565b610fe261036084013561005e565b610ff061038084013561005e565b610ffe6103a084013561005e565b61100c6103c084013561005e565b61101a6103e084013561005e565b61102861040084013561005e565b61103661042084013561005e565b611043818486888a6100eb565b90508060005260206000f35b806040810183101561106057600080fd5b92915050565b60008060008061052080868803121561107e57600080fd5b611088878761104f565b945060c086018781111561109b57600080fd5b6040870194506110ab888261104f565b9350508681870111156110bd57600080fd5b5092959194509261010001915056fe30644e72e131a029b85045b68181585d97816a916871ca8d3c208c16d87cfd47a2646970667358221220f1fdbfee8ac6bc58c483ed632b6896cc8feee1b2424fd74b8c68cbbb8f54a41364736f6c63430008110033",
    "linkReferences": {}
  },
  "methodIdentifiers": {
    "verifyProof(uint256[2],uint256[2][2],uint256[2],uint256[33])": "ee56750f"
  },
  "id": 152
}