{
  "abi": [
    {
      "inputs": [
        {
          "internalType": "uint256[2]",
          "name": "_pA",
          "type": "uint256[2]"
        },
        {
          "internalType": "uint256[2][2]",
          "name": "_pB",
          "type": "uint256[2][2]"
        },
        {
          "internalType": "uint256[2]",
          "name": "_pC",
          "type": "uint256[2]"
        },
        {
          "internalType": "uint256[35]",
          "name": "_pubSignals",
          "type": "uint256[35]"
        }
      ],
      "name": "verifyProof",
      "outputs": [
        {
          "internalType": "bool",
          "name": "",
          "type": "bool"
        }
      ],
      "stateMutability": "view",
      "type": "function"
    }
  ],
  "bytecode": {
    "object": "0x608060405234801561001057600080fd5b506111fc806100206000396000f3fe608060405234801561001057600080fd5b506004361061002b5760003560e01c8063e8cecdf614610030575b600080fd5b61004361003e366004611160565b610057565b604051901515815260200160405180910390f35b6000610f35565b7f30644e72e131a029b85045b68181585d97816a916871ca8d3c208c16d87cfd47811061008f576000805260206000f35b50565b600060405183815284602082015285604082015260408160608360076107d05a03fa9150816100c5576000805260206000f35b825160408201526020830151606082015260408360808360066107d05a03fa915050806100f6576000805260206000f35b5050505050565b7f0818830e74e172c03fec5b750d61c1917655ce87c76309349e50daf3ca1a201985527f26c5e853e627c78618e94e08bc6020d025e8a9c48ca29a8181b8a2005976c37e60208601526000608086018661019a87357f154a92311a84c655d566297bd50e82653e461c1afb3b1eecbbe2b91bdb1c16e67f0e69f40d6eb195fff98834c336793c373daa080e53fc7720e0296d5adf5a959784610092565b6101ea60208801357f0c2709015aa83bbae6842b79e5b67fe92afb9b775bb481f57f5879f2d39a255b7f0b4d520702a36a586f9d3760c7e581f8dd0a5371abd4576c0dbdef37a3112b1b84610092565b61023a60408801357f2ecdf880caae479633569cdf513a0a8910746382ae81b0d95f2d74a7aff9f4187f1ee6408056c19e6c4d14c9f29c524f225547f87c45f45f83de98263f7048cddd84610092565b61028a60608801357f17fed5814597512329b5924c8aca9f49383f8557761e212a2f670567e35c5a167f2883e379506bc7e4fe2af5239e7bd6786d9cb6777a20819cdcc282ed7e87d10c84610092565b6102da60808801357f1430c79b9a1c42ce09deee06f510050f4cbab95145cb42b3e7dbd516254d4a527f0c6a78e37bd8e5d5ff17ab5a88da389e0bd37eaa10acac3b8fa75e12598a87a884610092565b61032a60a08801357f24ddca30d1ed2bc604286fc774af0e00753aaab47c80a81f06b1ed8bb25bf6a37f1b12096021f750165a0fab4cca6c76a22f6ec2a4597e2cebbfa4d76be1edc70b84610092565b61037a60c08801357f084f0efc6616551d35dc4172eb201708957b31a05cd696c28064e61ca49efe707f0dbc01eac44c29a2967bad6e1f13fd15d73df07b0f08f06afecfc78ac423919284610092565b6103ca60e08801357f305da51fbd95d98c8cc55da91131e29c4095dc5fb9cf7a82cb8f198d8ee1cc6f7f22f73ada50e6b77d31f5d570830c21687c968f593479704b9b82aaa7be2429da84610092565b61041b6101008801357f1d7cb82d82d7b8f3bdfee4a51835e5d20ec5bf7b85ecd557f381a02d6c6fe0fd7f184a1e59fc80ace21eb802343c8a4700726a289a5186d239383f98a5e56a69fd84610092565b61046c6101208801357f0a06d2cfd9c9233e25c85bf229fe47e96f52312924b50ce7454fc1b0b15474117f0783a920a529c67cfd7444b855896787147dc2b58dff4e1c190f1f7e1f2040c684610092565b6104bd6101408801357f045ca12309a23618f7f4c2ac8603fa738440bc8f451223304a491e79b844fefc7f05fad8303ce9a79846cebacecec6ad520b65205aae4bdf1bc692d210d960540f84610092565b61050e6101608801357f1a2711e2761aeca4d2fa78e758cba69b1d20d1d0e751923b95b9af318a6ea0b77f0859629ae5357541fbf2a1ade56522d066b6a6f2a20b1d8b159b49f04bcf41ca84610092565b61055f6101808801357f237822d4998e354db041504f21e0c874e7cc07425012a0364eea2e7dd23fafa57f22e53591a91c6161bdaa0dc3faff00785411f656bbb35f38f8437ce749ace96c84610092565b6105b06101a08801357f0a8f72113930bef912d17eeca5837ec3b0345fd369e053c70929278a01c5259e7f11714a6f820cd09d7ba87b8161ab8b1638a453eca99238d9088fc00b445dd02284610092565b6106016101c08801357f178d79bfebb4441d8af77bd533160ab0e90037f8e46c6da00ea9271ce5fa72147f0221595c39b6362fe5a999f8c6bd002710fefe01bdb8d5774ca8b760a3368dc584610092565b6106526101e08801357f2eb96e92958221051ee55664d9d6457a2992e1e769688f16bf3e9f40eea325857f19469bdb61da94ca877520fc851348c3ca1b6aaaa6c3753cc450e641f4ec2d0a84610092565b6106a36102008801357f15cf95bd231b94185db5b99751ad8cbd0d0a68969cb086acba6c2e159c4687317f2c3b7d517e81ccd31048659caef36fe3c0cc9bdb0e798fc007a69fd5522369b984610092565b6106f46102208801357f18c00c1201b95e22856aaf168105e9776b057ad66631d7c691d11ebcf76407397f19b2a49039667f3d700c86192549b18f23523b57277e3a39913ac2c3cec8fcac84610092565b6107456102408801357f2f3e43aae2b132d342b3868479a502f418827987747e6ba154a1a30db3de55bc7f2370100463f0e6e9d5aadf634825493139ec45528492ad199d5609e26a1827f984610092565b6107966102608801357f0719f5d34a5c53edfaa6f1bd7532d4884b773683704f0acb9af5ef681a4b5e377f19dd4843443c965d8af2816213526331df266ab065bd95e36ee7b266b8d7df7384610092565b6107e76102808801357f27b06e52920a2d6c7712459a7e7f16e2265ca2fb8f137c7fce4efb54b362e43f7f27d454d9c39d32e4edbda9e4b565479c7f5148e1a84eb265ae6665409a88581884610092565b6108386102a08801357f133c29024676e5233ccb0835c75f9ca95f19b724903aed6b5b07800d96e81d717f2985df6c74d5bb3cae3843310b56486d9c5ab0665b6ca6220f354e7f76035d3484610092565b6108896102c08801357f13a545792bf54c46cd3e9f4920730243190768c1624675fba9aac6c7dd4d54ee7f043acdfde83ce8c0eae42079e31b9fe53021d2d3b39dcaa0385108fefc13073184610092565b6108da6102e08801357f1d909edfe8c327aaddfc255445c91cc0337108d153c874cf1cec0a7aed9821d07f2b3b927d65af76d7a26aa441cd1fd3c1b2bd74cf97e0b333aa3e81f2dd6d040084610092565b61092b6103008801357f1f98575fed053fb28a11cd30a419bb57e4d5163286361b5ef3d230d1dc3187287f0b9797de77423c4dc75c0d93dea973fa364f41c361c0ef2172307cef12981c8784610092565b61097c6103208801357f1ce091201272d2eea26de90faebe106f98f8dc965c26b547d6bfd7bfd8dc0a9d7f1c94d908bbebc3c96c6ce44d8b22a4e59ab1fbacc388e3f6ae015f303305b84e84610092565b6109cd6103408801357f23311960587b6c6710db897ad5419abc797e7ff41c72eab4f87fd14a94be8ab17f22642306905e67c48109d5d58daeb90ce6bd7218c2085e139499fb5e421f386284610092565b610a1e6103608801357f141faafcf61415ec4b0871143638d42272f9cf08a1533f8042f74377fcbaf3817f09812366888403b77536a946f780f69fe99e8a407826b1491266a372b6641a3484610092565b610a6f6103808801357f1eec67441e17bc1cbf79609e1730c44a36bc45fb79168459230d140e6e4741577f2ea76bb20916d6b3ae480f26a73f67519691f9258ffaa1da16bf4304ea61fa7584610092565b610ac06103a08801357f0f9202453544920c3e2eedf53d4419e6fa1ba2473179837b03b3cc7ffe84a6df7f2f4356e1993f819d30dd9c2489f63a85fecdf8893cfe6d4154103fa4becaac8284610092565b610b116103c08801357f0de193acdaa827280178217b4bc340871f921582bc7795b716b3d33deec426cf7f0a2c5986acbafe39f33f668028e259156c9633ae7b7890ed6f8e04373b8a927284610092565b610b626103e08801357f069161b11690241b3c64b30f601ead929ca96c286db43e053688b6d1e6ba34297f24d299cb9870ab755768cd6954c6ca7f51272db2644f73cb60c971f47459595d84610092565b610bb36104008801357f03aafc7278d65dd7bf2ac1b3f31a129d6796c10e01d672ef2ddc672113f3aa6e7f0839872d9e754c8392a3a8a8cf30400014c307ec9dfb6093b1a80e056b428ab084610092565b610c046104208801357f0fd2819414346e897aaec6db006e41b27ae6be1597efe8b3b20e59f831c5e2427f11b1fb55b096986cb757e28e95651fdb8c748d9ed224db02a4e9eef8a6d1ce3784610092565b610c556104408801357f1603c9121ca045a06e99392ff13b0efa77adb35f1128bef8684b08342d65c5037f2b5f68f14d0c2118e358814b2e89e8aa6123abc23a4e583c4cd33a0373e72bbf84610092565b50823581527f30644e72e131a029b85045b68181585d97816a916871ca8d3c208c16d87cfd4760208401357f30644e72e131a029b85045b68181585d97816a916871ca8d3c208c16d87cfd4703066020820152833560408201526020840135606082015260408401356080820152606084013560a08201527f2d4d9aa7e302d9df41749d5507949d05dbea33fbb16c643b22f599a2be6df2e260c08201527f14bedd503c37ceb061d8ec60209fe345ce89830a19230301f076caff004d192660e08201527f0967032fcbf776d1afc985f88877f182d38480a653f2decaa9794cbc3bf3060c6101008201527f0e187847ad4c798374d0d6732bf501847dd68bc0e071241e0213bc7fc13db7ab6101208201527f304cfbd1e08a704a99f5e847d93f8c3caafddec46b7a0d379da69a4d112346a76101408201527f1739c1b1a457a8c7313123d24d2f9192f896b7c63eea05a9d57f06547ad0cec8610160820152600087015161018082015260206000018701516101a08201527f198e9393920d483a7260bfb731fb5d25f1aa493335a9e71297e485b7aef312c26101c08201527f1800deef121f1e76426a00665e5c4479674322d4f75edadd46debd5cd992f6ed6101e08201527f090689d0585ff075ec9e99ad690c3395bc4b313370b38ef355acdadcd122975b6102008201527f12c85ea5db8c6deb4aab71808dcb408fe3d1e7690c43d37b4ce6cc0166fa7daa610220820152843561024082015260208501356102608201527f1800e0bbce11e80c5a5930cf9fba6c081fcf62e4c9288dc069655d7d41cb8faf6102808201527f034c9022736bb45794bf1e0ef79a413c3092fc923c0bdcfc20fe674e6d27fc0f6102a08201527f0189b3f326ceec86d2b71f04c5f071bfdfd93894a60e633df859b89c8ed002aa6102c08201527f1ca665db1948e4836bb066f94c1548b85f9a29729899f7d2bb02faf8a001c0f26102e08201526020816103008360086107d05a03fa9051169695505050505050565b6040516103808101604052610f4d600084013561005e565b610f5a602084013561005e565b610f67604084013561005e565b610f74606084013561005e565b610f81608084013561005e565b610f8e60a084013561005e565b610f9b60c084013561005e565b610fa860e084013561005e565b610fb661010084013561005e565b610fc461012084013561005e565b610fd261014084013561005e565b610fe061016084013561005e565b610fee61018084013561005e565b610ffc6101a084013561005e565b61100a6101c084013561005e565b6110186101e084013561005e565b61102661020084013561005e565b61103461022084013561005e565b61104261024084013561005e565b61105061026084013561005e565b61105e61028084013561005e565b61106c6102a084013561005e565b61107a6102c084013561005e565b6110886102e084013561005e565b61109661030084013561005e565b6110a461032084013561005e565b6110b261034084013561005e565b6110c061036084013561005e565b6110ce61038084013561005e565b6110dc6103a084013561005e565b6110ea6103c084013561005e565b6110f86103e084013561005e565b61110661040084013561005e565b61111461042084013561005e565b61112261044084013561005e565b61113061046084013561005e565b61113d818486888a6100fd565b90508060005260206000f35b806040810183101561115a57600080fd5b92915050565b60008060008061056080868803121561117857600080fd5b6111828787611149565b945060c086018781111561119557600080fd5b6040870194506111a58882611149565b9350508681870111156111b757600080fd5b5092959194509261010001915056fea2646970667358221220f1b676015e8eb59da0876481347bf95119d56c7fd26bfce6edf446a586c70b4464736f6c63430008150033",
    "linkReferences": {}
  },
  "methodIdentifiers": {
    "verifyProof(uint256[2],uint256[2][2],uint256[2],uint256[35])": "e8cecdf6"
  },
  "storageLayout": {
    "storage": [],
    "types": {}
  },
  "id": 146
}